:100000000C94F3000C941B010C941B010C949310A2
:100010000C9493100C9493100C941B010C941B01E2
:100020000C941B010C941B010C941B010C941B01E0
:100030000C941B010C941B010C941B010C941B01D0
:100040000C94F10F0C941B010C9461100C943B1058
:100050000C941B010C941B010C941B010C941B01B0
:100060000C941B010C941B013D3D3D2054657374A1
:1000700020436F6D706C657465203D3D3D00E29CD2
:10008000852053442E626567696E28292073756345
:100090006365737366756C207769746820736C6F21
:1000A00077205350492100E29C852053442E6265FD
:1000B00067696E282920776F726B65642077697491
:1000C000682064656661756C742073706565642171
:1000D00000E29D8C2053442E626567696E282920BA
:1000E0006661696C6564207769746820646566611F
:1000F000756C7420737065656420746F6F00547242
:1001000079696E6720776974682064656661756CCB
:1001100074205350492073706565642E2E2E00E2C2
:100120009D8C2053442E626567696E282920666184
:10013000696C6564207769746820736C6F772053ED
:1001400050490054657374696E672053442E62658C
:1001500067696E2829207769746820736C6F77202F
:100160005350492E2E2E003D3D3D205344204361E7
:10017000726420536C6F77205370656564205465FA
:100180007374203D3D3D00000000080002010000A6
:10019000030407000000000000000000000000242D
:1001A0000027002A0000000000230026002900008C
:1001B000000000250028002B0004040404040404AB
:1001C0000402020202020203030303030301020406
:1001D00008102040800102040810200102040810C9
:1001E00020000B11D31311241FBECFEFD8E0DEBFC8
:1001F000CDBF11E0A0E0B1E0E8E3F8E202C0059075
:100200000D92AA34B107D9F725E0AAE4B1E001C004
:100210001D92A539B207E1F710E0C2EFD0E004C0AB
:100220002197FE010E94FA13C13FD107C9F70E942E
:1002300012130C940F140C94000090E0FC01E95789
:10024000FE4F2491FC01E353FE4F3491FC01E7542F
:10025000FE4FE491EE23C9F0222339F0233001F15F
:10026000A8F4213019F1223029F1F0E0EE0FFF1F40
:10027000E155FE4FA591B4918FB7F894EC916111BF
:1002800026C030953E233C938FBF08952730A9F0B8
:100290002830C9F0243049F7809180008F7D03C059
:1002A000809180008F7780938000DFCF84B58F7737
:1002B00084BDDBCF84B58F7DFBCF8091B0008F777D
:1002C0008093B000D2CF8091B0008F7DF9CF3E2BCC
:1002D000DACFCF93DF9390E0FC01E353FE4F2491FC
:1002E00087549E4FFC0184918823D1F090E0880FC1
:1002F000991FFC01E556FE4FA591B491FC01E15513
:10030000FE4FC591D49161110EC09FB7F8948C91A6
:10031000E22FE0958E238C932881E223E8839FBF10
:10032000DF91CF9108958FB7F894EC91E22BEC9385
:100330008FBFF6CF3FB7F89480919A0190919B01BF
:10034000A0919C01B0919D0126B5A89B05C02F3FAF
:1003500019F00196A11DB11D3FBFBA2FA92F982FEB
:100360008827BC01CD01620F711D811D911D42E0E6
:10037000660F771F881F991F4A95D1F708958F92AE
:100380009F92AF92BF92CF92DF92EF92FF920E9424
:100390009A014B015C0188EEC82E83E0D82EE12C37
:1003A000F12C0E949A01681979098A099B09683E13
:1003B000734081059105A8F321E0C21AD108E10834
:1003C000F10888EE880E83E0981EA11CB11CC114B0
:1003D000D104E104F10429F7FF90EF90DF90CF9072
:1003E000BF90AF909F908F9008952FB7F894609131
:1003F00096017091970180919801909199012FBF7A
:100400000895AF92BF92CF92DF92EF92FF920F9337
:100410001F93CF93DF936C017B018B01040F151F9A
:10042000EB015E01AE18BF08C017D10759F0699102
:10043000D601ED91FC910190F081E02DC601099566
:10044000892B79F7C501DF91CF911F910F91FF9013
:10045000EF90DF90CF90BF90AF900895FC01538D47
:10046000448D252F30E0842F90E0821B930B54178E
:1004700010F0CF96089501970895FC01918D828D1B
:10048000981761F0A28DAE0FBF2FB11D5D968C91B4
:10049000928D9F5F9F73928F90E008958FEF9FEFF3
:1004A0000895FC01918D828D981731F0828DE80FAF
:1004B000F11D858D90E008958FEF9FEF0895FC0169
:1004C000918D228D892F90E0805C9F4F821B910936
:1004D0008F739927089581EA93E00E945F0221E0DB
:1004E000892B09F420E0822F089580E090E0892B89
:1004F00029F00E946B0281110C9400000895FC0108
:10050000A48DA80FB92FB11DA35ABF4F2C91848D74
:1005100090E001968F739927848FA689B7892C93D1
:10052000A089B1898C91837080648C93938D848D24
:10053000981306C00288F389E02D80818F7D808327
:100540000895EF92FF920F931F93CF93DF93EC01E7
:1005500081E0888F9B8D8C8D98131AC0E889F9896A
:10056000808185FF15C09FB7F894EE89FF8960836D
:10057000E889F98980818370806480839FBF81E0EE
:1005800090E0DF91CF911F910F91FF90EF90089530
:10059000F62E0B8D10E00F5F1F4F0F731127E02E0B
:1005A0008C8D8E110CC00FB607FCFACFE889F98943
:1005B000808185FFF5CFCE010E947F02F1CFEB8DC8
:1005C000EC0FFD2FF11DE35AFF4FF0829FB7F89417
:1005D0000B8FEA89FB8980818062CFCF0F931F93B5
:1005E000CF93DF938C01D0E0C0E0F801EC0FFD1F4A
:1005F0006491662341F081EA93E00E94A102892B75
:1006000011F02196F2CF42E050E066E471E081EA19
:1006100093E00E9401028C0F9D1FDF91CF911F91EB
:100620000F910895CF93DF93EC01888D8823B9F063
:10063000AA89BB89E889F9898C9185FD03C08081ED
:1006400086FD0DC00FB607FCF7CF8C9185FFF2CF6A
:10065000808185FFEDCFCE010E947F02E9CFDF913F
:10066000CF91089520919301309194012817390773
:1006700071F49091920180919101981741F0E0916D
:100680009201F0E0EF5AFE4F808190E008958FEFE5
:100690009FEF08950895EF92FF920F931F93CF93CA
:1006A000DF93DC015C96ED90FC905D97E114F10422
:1006B00079F481E090E013969C938E93129790E0EA
:1006C00080E0DF91CF911F910F91FF90EF900895FF
:1006D0005196ED91FC91529750968C915097982F8E
:1006E00090950FB75E962C915E97122F127021FD98
:1006F0006095F8942081112319F1282B2083E701BC
:100700002197F1F728E0462F50E0308160FF1AC0B2
:10071000382B3083E7012197F1F7BA01759567957A
:10072000215089F7112381F08081892380830FBFB5
:100730005C968D919C910197F1F781E090E0C1CF9B
:100740002923DCCF3923E5CF9081892BEFCF20916E
:100750009301309194012817390761F48091910138
:100760002091920190E0805C9F4F821B91098F73D2
:100770009927089590E080E00895209193013091A9
:10078000940128173907B9F4909192018091910151
:10079000981789F0E0919201F0E0EF5AFE4F8081C6
:1007A0002091920130E02F5F3F4F2F73332720932A
:1007B000920190E008958FEF9FEF089590E080E020
:1007C00008958FB7F89480914B018FBF089561E031
:1007D000FC0184810E941D0180914A0181111092C7
:1007E0004A0108958EBD00000DB407FEFDCF8EB501
:1007F00008958FEF0C94F2030F931F93CF93DF9321
:10080000EC010E94F5018B010E94F9038F3F69F012
:100810000E94F501601B710B6C177D07A8F380E047
:10082000DF91CF911F910F91089581E0F9CF8CBD99
:100830009DBD0895CF93DF93EC0180914A01811112
:1008400009C081E080934A0180913E0490913F0469
:100850000E94170460E08C81DF91CF910C941D0100
:100860008F929F92AF92BF92FF920F931F93CF935D
:10087000DF93EC01F62E49015A018E81882389F01D
:100880008F8198859C012F5F3F4F38872F8382305F
:10089000924018F40E94F903F3CFCE010E94E703BF
:1008A0001E82CE010E941A048CE291E00E94FC0399
:1008B0008F2D80640E94F20308E110E0D501C4018D
:1008C000002E04C0B695A795979587950A94D2F700
:1008D0000E94F20308501109083F8FEF180771F7C3
:1008E00085E9FF2021F028E087E8F2128FEF0E94CF
:1008F000F20310E00E94F9038A8787FF04C01F3FBC
:1009000011F01F5FF7CFDF91CF911F910F91FF90F3
:10091000BF90AF909F908F900895AF92BF92CF926B
:10092000DF92EF92FF920F931F93CF93DF93EC012F
:100930006901C801820F931F8130924050F58E816A
:10094000882379F088819981AA81BB8184179507D2
:10095000A607B70731F48F819885C816D90608F025
:1009600042C0488359836A837B838B85833039F007
:1009700089E0440F551F661F771F8A95D1F79A01AA
:10098000AB0161E1CE010E943004882389F083E04D
:100990008D83CE010E94E70380E0DF91CF911F910C
:1009A0000F91FF90EF90DF90CF90BF90AF900895A0
:1009B0000E94F5015B010E94F9038A878F3F69F469
:1009C0000E94F5016A197B096D327140A0F38FE036
:1009D0008D83CE010E94E703DCCF8E3F89F4188619
:1009E0001F8281E08E838F8198858C159D0550F440
:1009F0000E94F9038F819885019698878F83F3CFA2
:100A00008DE0E6CF6701E00EF11E0E94F903F601CA
:100A100081936F01EE15FF05C1F78F819885080F4F
:100A2000191F18870F838985882319F00115124033
:100A3000A0F08E81882389F08F8198859C012F5F9B
:100A40003F4F38872F838230924018F40E94F90379
:100A5000F3CFCE010E94E7031E8281E09ECFCF92AA
:100A6000DF92EF92FF920F93CF93DF93EC01690136
:100A700082E1411551056105710599F08B8583303F
:100A800039F089E0440F551F661F771F8A95D1F70B
:100A90009A01AB0168E1CE010E943004882319F06D
:100AA00084E08D832DC08EEF0E94F20376018EEFDD
:100AB000D81AF70181917F010E94F203EC14FD0422
:100AC000C1F78FEF0E94F2038FEF0E94F2030E94A2
:100AD000F9038A878F71853071F4011116C0CE0138
:100AE0000E94E70381E0DF91CF910F91FF90EF909B
:100AF000DF90CF90089581E18D83CE010E94E703BE
:100B0000CE010E94E70380E0EECF88E592E00E94EC
:100B1000FC03811102C085E1C4CF20E030E0A901CF
:100B20006DE0CE010E943004882311F084E1B9CF3A
:100B30000E94F9038111FACFD2CF0F9340914D015A
:100B400050914E0160914F01709150014115510536
:100B50006105710599F0082F2FE931E080919F031D
:100B60009091A0030E942F05882349F010924D0117
:100B700010924E0110924F011092500181E00F919E
:100B800008950F93CF93C82F80914C01811105C018
:100B9000C1E08C2FCF910F910895409100015091A9
:100BA000010160910201709103010C2F2FE931E0E6
:100BB00080919F039091A0030E942F05811102C094
:100BC000C0E0E7CFCC2321F381E00E949D0588237C
:100BD000B9F310924C01DDCF8F929F92AF92BF92EA
:100BE000EF92FF920F931F93CF934B015C01C42FA1
:100BF0008091000190910101A0910201B091030147
:100C000088159905AA05BB0551F181E00E94C1052F
:100C100081110BC080E0CF911F910F91FF90EF9059
:100C2000BF90AF909F908F9008958FE9E82E81E05C
:100C3000F82E00E012E030E020E0B501A401809140
:100C40009F039091A0030E948D04882319F3809242
:100C5000000190920101A0920201B0920301409123
:100C60004C014C2B40934C0181E0D5CF8F929F9249
:100C7000AF92BF92CF92DF92EF92FF92CF9320E498
:100C800034E03093A00320939F03882309F46DC0C0
:100C900040E060E070E0CB010E94EC0581110BC0E8
:100CA00080E0CF91FF90EF90DF90CF90BF90AF901A
:100CB0009F908F90089580915D038F7789F7809141
:100CC000690390916A03A0916B03B0916C03843621
:100CD0009105A105B10520F3C0906503D09066038E
:100CE000E0906703F0906803C114D104E104F104BB
:100CF000B9F240E0C701B6010E94EC05882381F2F9
:100D00008091AA019091AB018115924049F6A09182
:100D1000AF01AA2329F26091AD017091AE01611576
:100D2000710509F4BDCF2091AC01222309F4B8CF9D
:100D3000A0935E042093500490E080E030E0E1E076
:100D4000F0E0C82FAF01082E02C0440F551F0A94CF
:100D5000E2F72417350769F041E0480F0196893022
:100D6000910579F7409359049BCFC12CD12C760182
:100D7000C0CF809359042091B5013091B60150E065
:100D800040E02115310541F42091C3013091C401A7
:100D90004091C5015091C6012093510430935204F3
:100DA000409353045093540446015701860E971EF6
:100DB000A11CB11C80925F0490926004A092610417
:100DC000B0926204E091B001F091B101F09365043A
:100DD000E0936404B0E00E94EF13DC01CB01880DC6
:100DE000991DAA1DBB1D8093660490936704A09370
:100DF0006804B093690425E0EE0FFF1F2A95E1F720
:100E0000E150FE4FEF2FFF27E6958E0F9F1FA11D8C
:100E1000B11D80935A0490935B04A0935C04B0933B
:100E20005D048090B2019090B301B12CA12C81148B
:100E3000910441F48090BF019090C001A090C10145
:100E4000B090C201C81AD90AEA0AFB0AC80CD91C18
:100E5000EA1CFB1C04C0F694E794D794C794CA9587
:100E6000D2F7C0925504D0925604E0925704F09203
:100E7000580485EFC8168FE0D806E104F10428F481
:100E80008CE08093630481E00CCF80E125EFC216F3
:100E90002FEFD206E104F104A0F38091CB019091F1
:100EA000CC01A091CD01B091CE01809366049093C6
:100EB0006704A0936804B093690480E2E2CF4F9284
:100EC0005F926F927F928F929F92AF92BF92CF92DA
:100ED000DF92EF92FF920F931F93CF93DF93EC017A
:100EE000423051056105710590F480E0DF91CF91AA
:100EF0001F910F91FF90EF90DF90CF90BF90AF9038
:100F00009F908F907F906F905F904F90089589850C
:100F10009A85AB85BC850196A11DB11D84179507E7
:100F2000A607B70710F3CB88DC88ED88FE888F8989
:100F3000803109F042C0BB27A72F962F852F48018B
:100F400059012A013B01C80ED91EEA1EFB1E8091E1
:100F5000000190910101A0910201B0910301C81616
:100F6000D906EA06FB0699F58F898031C1F5B301F0
:100F7000A201552766277727440F551F41565E4F1C
:100F8000FA019182808280914C01816080934C01B2
:100F90008A89823080F08D819E81AF81B8858C0DE9
:100FA0009D1DAE1DBF1D80934D0190934E01A093DA
:100FB0004F01B093500181E099CFDB01CA01E7E016
:100FC000B695A79597958795EA95D1F7B8CF40E064
:100FD000C701B6010E94EC058111C6CF86CFB301CF
:100FE000A2014F77552766277727440F551F440FD7
:100FF000551F41565E4FFA0180829182A282B382D0
:10100000C2CF8F929F92AF92BF92CF92DF92EF9218
:10101000FF920F931F93CF93DF93FC0181859285FD
:10102000A385B4850196A11DB11D84179507A60758
:10103000B70770F480E0DF91CF911F910F91FF907F
:10104000EF90DF90CF90BF90AF909F908F900895DA
:1010500083889488A588B6888789803189F5BB27DD
:10106000A72F962F852FE9016A017B018F01BC0113
:10107000CD01680D791D8A1D9B1D80900001909007
:101080000101A0900201B090030186169706A80600
:10109000B90601F5F8018789803111F5DD24EE24C8
:1010A000FF24F601EE0FFF1FE156FE4F8081918174
:1010B000B0E0A0E088839983AA83BB8381E0BBCFA3
:1010C000DB01CA01C7E0B695A79597958795CA95A4
:1010D000D1F7C9CF40E00E94EC058111DBCFAACF48
:1010E000E894C7F8DD24EE24FF24F601EE0FFF1F7D
:1010F000EE0FFF1FE156FE4F80819181A281B381E7
:10110000BF70D8CF2F923F924F925F926F927F9293
:101110008F929F92AF92BF92CF92DF92EF92FF9207
:101120000F931F93CF93DF93EC014B018D818111BE
:1011300015C08FEF9FEFDF91CF911F910F91FF901F
:10114000EF90DF90CF90BF90AF909F908F907F9067
:101150006F905F904F903F902F9008958C8180FF0B
:10116000E8CF4B895C896D897E898A859B85AC85B2
:10117000BD85412C481759076A077B0711F04424A5
:101180004394512C52011E0126E0220E311CA11461
:10119000B10409F4B3C04A855B856C857D856A011D
:1011A00081E0D8228B8D9C8D8A019B01E9E03695E8
:1011B000279517950795EA95D1F7ED81E230E1F58E
:1011C000FC01628D738D848D958D600F711F821F60
:1011D000931F612C22E0722E6C187D08A614B704B0
:1011E00008F435012C8126FD04C06114F2E07F066D
:1011F00071F40091000110910101209102013091E0
:101200000301061717072807390709F053C040E004
:101210000E94EC05882309F48CCFC60181569E4FAD
:10122000D4019C01260D371DFC012E173F0709F440
:1012300060C041914D93F9CFFC0174807A94702283
:10124000C114D10471F471100CC0452B462B472BEF
:1012500039F58F89988DA98DBA8D8E839F83A88744
:10126000B987EB8DFC8D6E817F8188859985625071
:10127000710981099109258504C0660F771F881FB0
:10128000991F2A95D2F70685178520893189600F25
:10129000711F821F931F670D711D811D911D99CFB5
:1012A0004E815F816885798591010E9401088111D5
:1012B000D8CF3FCF740183019601AB01BC0180916F
:1012C0009F039091A0030E948D04882309F431CFDD
:1012D000860C971C8A859B85AC85BD85860D971DE0
:1012E000A11DB11D8A879B87AC87BD87A618B7084B
:1012F0004ECF281B390B820E931EECCFC2011BCFA1
:101300008F929F92AF92BF92CF92DF92EF92FF9215
:101310000F931F93CF93DF93EC018D8181110EC04A
:1013200080E0DF91CF911F910F91FF90EF90DF90C0
:10133000CF90BF90AF909F908F9008950B891C899C
:101340002D893E89041715072607370748F34A01F8
:101350005B01823031F48A869B86AC86BD8681E053
:10136000E0CF81149104A104B10449F41E821F82CC
:10137000188619861A861B861C861D86F0CF0A855C
:101380001B852C853D85EB8DFC8D858590E0099630
:10139000B901A8014150510961097109082E04C021
:1013A00076956795579547950A94D2F7750164012C
:1013B000E1E0CE1AD108E108F10804C0F694E79400
:1013C000D794C7948A95D2F7C416D506E606F706D1
:1013D00020F0012B022B032B11F58F89988DA98DFD
:1013E000BA8D8E839F83A887B9878E010A5F1F4FAE
:1013F000C114D104E104F10409F4ADCF4E815F8141
:101400006885798598018B8D9C8D0E94010891E0FB
:10141000C91AD108E108F1088111EACF81CFC41AB5
:10142000D50AE60AF70AE1CF3F924F925F926F9298
:101430007F928F929F92AF92BF92CF92DF92EF9264
:10144000FF920F931F93CF93DF93CDB7DEB72C9707
:101450000FB6F894DEBF0FBECDBF5C01DC015B961A
:101460008D909C905C9716964D905D906D907C90C1
:101470001997411451046104710409F468C0BFEF65
:101480004B1A5B0A6B0A7B0A312CF4018185928529
:10149000A385B4859C01AD012F5F3F4F4F4F5F4F38
:1014A00029873A874B875C87730162011D821E8200
:1014B0001F821886F40181859285A385B4852D81CC
:1014C0003E814F815885281739074A075B0708F086
:1014D00056C089859A85AB85BC858C159D05AE0562
:1014E000BF0550F482E0C82ED12CE12CF12C92E003
:1014F000492E512C612C712C9E012F5F3F4FB7015B
:10150000A601C4010E9401088823C9F189819A813A
:10151000AB81BC81892B8A2B8B2B09F126013701EA
:101520009FEF491A590A690A790A2D813E814F8134
:1015300058852F5F3F4F4F4F5F4F2D833E834F8323
:1015400058873FEFC31AD30AE30AF30AB3CFF40173
:1015500040805180628073803324339496CFC414CA
:10156000D504E604F70409F70FEF1FEF2FEF3FE074
:10157000B701A601C4010E945F07811119C080E074
:101580002C960FB6F894DEBF0FBECDBFDF91CF9182
:101590001F910F91FF90EF90DF90CF90BF90AF9091
:1015A0009F908F907F906F905F904F903F900895A5
:1015B000D50116964D915D916D917C9119974115CC
:1015C00051056105710539F097018601C4010E943A
:1015D0005F078823A1F2D5011696CD92DD92ED9298
:1015E000FC921997332051F0D701C6010196A11D35
:1015F000B11DF40180839183A283B383F5018789B0
:10160000908DA18DB28D892B8A2B8B2B39F48481FF
:10161000C78AD08EE18EF28E80688483F501848142
:101620008062848381E0ACCF1F93CF93DF93FC0172
:1016300025812223D1F1162FEC01848187FF2AC056
:10164000668577858089918941E00E94EC05882331
:1016500061F1EA8980E2E89FF0011124E156FE4F32
:10166000309719F18D81823040F48B899C89AD8946
:10167000BE89848F958FA68FB78F8F89988D938F12
:10168000828F8F89988DA98DBA8DB58BA48B8C8113
:101690008F778C83111103C08C818F7E8C83812F77
:1016A000DF91CF911F910C94C10580E0DF91CF9124
:1016B0001F9108958F929F92AF92BF92CF92DF9227
:1016C000EF92FF920F931F93CF93DF9300D000D040
:1016D000CDB7DEB780916F04882341F061E08AE6E0
:1016E00094E00E94140B811110926F0410924B042D
:1016F00010924904109246041092450489E08093A8
:1017000044040E94F5018B0161E0809144040E9431
:10171000690161E0809144040E941D01FFB6F894C4
:1017200080919E01811127C0E3ECF1E08491E7ED07
:10173000F1E09491E82FF0E0EE0FFF1FE556FE4F29
:10174000A591B491EC91E92321F461E08AE00E9433
:101750001D0161E08AE00E9469018CB580618CBD49
:101760008CB580648CBD61E08DE00E94690161E010
:101770008BE00E94690180919E018F5F80939E01A2
:10178000FFBE82E580933E0410923F0480913E04A8
:1017900090913F040E9417045AE0F52E8FEF0E94AB
:1017A000F203FA94F110FACF80E494E00E941A0454
:1017B00020E030E0A90160E080E494E00E94300481
:1017C000F82E80934A0421E0821701F10E94F5016E
:1017D000601B710B613D774058F381E080934504B5
:1017E00080E494E00E94E70380E00F900F900F9058
:1017F0000F90DF91CF911F910F91FF90EF90DF90AD
:10180000CF90BF90AF909F908F9008952AEA31E0DB
:1018100040E050E068E080E494E00E94300482FF01
:101820002AC0F0924B0480914B04C12CD12C76013C
:10183000823029F4C12CD12CE12C30E4F32E20E0AD
:1018400030E0A90167E380E494E00E943004A7013E
:10185000960169E280E494E00E94300480934A0497
:101860008823D1F00E94F501601B710B613D774028
:1018700030F388E0B3CF44E0F42E0E94F903809364
:101880004A04FA94F110F9CF8A3A11F082E0A6CF17
:1018900082E080934B04C7CF80914B048230D1F417
:1018A00020E030E0A9016AE380E494E00E94300483
:1018B000882311F086E092CF0E94F903807C803C5F
:1018C00019F483E080934B040E94F9030E94F9030A
:1018D0000E94F90380E494E00E94E70380E580938E
:1018E0003E0410923F0481E00E943606882309F4EA
:1018F0004DC080916F04811177CF80916304803156
:1019000009F04BC082E080936F0410928104109222
:101910008204109283041092840480916404909154
:101920006504B0E0A0E025E0880F991FAA1FBB1F47
:101930002A95D1F780937D0490937E04A0937F0431
:10194000B09380048CE494E09093860480938504A3
:1019500081E080936E0410927004109271041092D2
:101960007204109273041092740410927504109211
:1019700076041092770410927804109279041092F1
:101980007A0410927B0410927C042FCF80E00E9496
:101990003606882309F428CFACCF803209F024CF53
:1019A00083E080936F048091660490916704A09116
:1019B0006804B09169048093810490938204A09399
:1019C0008304B093840489839A83AB83BC83C12C42
:1019D000D12C7601812C82E0982EA12CB12C49814A
:1019E0005A816B817C819E012F5F3F4F8CE494E094
:1019F0000E940108882309F4F7CE80915904A501BB
:101A0000940104C0220F331F441F551F8A95D2F73B
:101A1000DA01C901C80ED91EEA1EFB1E49815A818E
:101A20006B817C8180916304803191F088EF9FEF1E
:101A3000AFEFBFE0481759076A077B0780F2C092F3
:101A40007D04D0927E04E0927F04F09280047ACFED
:101A500088EF9FEFA0E0B0E0EDCFFF920F931F93D0
:101A6000CF93DF93EC018D81813041F090E080E0F5
:101A7000DF91CF911F910F91FF9008958C8181FF8D
:101A8000F5CF82FD1BC000919F031091A003C801F8
:101A90000E941A040E94F903F82EC8010E94E7036D
:101AA0008FEFF812E3CF8C8185FF1BC060E0CE0181
:101AB0000E94140B8C818F7D8C83D8CF4B895C89DD
:101AC0006D897E898A859B85AC85BD858417950740
:101AD000A607B707C1F2CE010E9480098111D3CFBA
:101AE000C5CF40914D0150914E0160914F017091D1
:101AF0005001452B462B472B21F080E00E949D058D
:101B0000B5CF80618C832A853B85317080E092E07F
:101B1000821B930BADCF2F923F924F925F926F92A9
:101B20007F928F929F92AF92BF92CF92DF92EF926D
:101B3000FF920F931F93CF93DF9300D000D01F929B
:101B4000CDB7DEB77C015B01342E5D83DC011596D9
:101B50008C911597813009F0CEC014962C9021FEFF
:101B6000CAC022FCB4C0C32CDD8022947FE02722AF
:101B70002094B22DB1702B2ED7011A964D915D9104
:101B80006D917C911D97C114D10409F428C15B9615
:101B90008D919C915C97FC0174807A948A019B01E1
:101BA00069E036952795179507956A95D1F77022C4
:101BB0008A011170711020C001151105E9F4169603
:101BC0004D915D916D917C9119974115510561057C
:101BD000710509F099C057968D919D910D90BC911A
:101BE000A02D0097A105B10509F0B0C0C7010E9462
:101BF000140A882309F47FC080E092E0801B910BD7
:101C000046018C159D0508F44C01D7015B964D915A
:101C10005C915C9716968D919D910D90BC91A02D35
:101C20000297A109B109FA01258504C0880F991FFF
:101C3000AA1FBB1F2A95D2F74685578560897189EF
:101C4000840F951FA61FB71F9C01AD01270D311DE5
:101C5000411D511D29013A01811432E0930609F01A
:101C60007BC08091000190910101A0910201B0918F
:101C7000030184159505A605B70559F48FEF9FEF6D
:101C8000DC018093000190930101A0930201B093C5
:101C90000301022D9501B301A20180919F03909150
:101CA000A0030E942F05882331F19EEFB91AC818AE
:101CB000D908F70182859385A485B585880D991D7E
:101CC000A11DB11D82879387A487B58755CFF701E2
:101CD000438954896589768982859385A485B585EC
:101CE000481759076A077B0709F43DCFC7010E94CF
:101CF0008009811138CF81E090E0D70113969C9341
:101D00008E93129780E007C09E012F5F3F4F0E9485
:101D10000108811102C090E079C089819A81AB816C
:101D2000BC81F701238D348DF901278948EF5FEFDE
:101D300060E070E0203121F048EF5FEF6FEF7FE06F
:101D400084179507A607B70708F050CFF7018683D9
:101D50009783A087B18750CF0115110599F5D70159
:101D60001A964D915D916D917C911D9753968D9131
:101D70009D910D90BC91A02D481759076A077B07CC
:101D800008F181E00E94C105882309F4B4CF409294
:101D90000001509201016092020170920301809152
:101DA0004C01816080934C01C80181569E4FD50142
:101DB0009C01280D391DFC012E173F0759F04D914C
:101DC0004193FACF41E0C301B2010E94EC058111B9
:101DD000EBCF91CF281B390BA20EB31E68CFF701B2
:101DE00083899489A589B68984179507A607B707BB
:101DF00038F48481438B548B658B768B8068848325
:101E0000F701848183FD1AC0832D9D810F900F906F
:101E10000F900F900F90DF91CF911F910F91FF9036
:101E2000EF90DF90CF90BF90AF909F908F907F907A
:101E30006F905F904F903F902F90089561E0C701A1
:101E40000E94140B882309F456CFDECFCF93DF9383
:101E50001F92CDB7DEB7698341E050E0BE016F5FEE
:101E60007F4F0E948B0D0F90DF91CF9108950895C1
:101E7000FC01818D928D009719F061E00C94140B98
:101E80000895DC015996ED91FC913097B9F0838962
:101E90009489A589B6894285538564857585841B97
:101EA000950BA60BB70B811520E89207A105B1058C
:101EB00038F08FEF9FE7A0E0B0E0089590E080E079
:101EC0000895CF93DF931F92CDB7DEB7FC01818DCC
:101ED000928D009769F0BE016F5F7F4F0E9482086C
:101EE000019731F4898190E00F90DF91CF910895AF
:101EF0008FEF9FEFF9CFEF92FF920F931F93CF9346
:101F0000DF931F92CDB7DEB7FC01818D928D10E07B
:101F100000E00097D1F07F01BE016F5F7F4F0E940C
:101F200082080FEF1FEF019781F4098110E0F7019C
:101F3000818D928DFC014285538564857585415064
:101F40005109610971090E948009C8010F90DF9150
:101F5000CF911F910F91FF90EF900895DC0159965A
:101F60008D919C91009739F0DC01ED91FC910480FA
:101F7000F581E02D099490E080E00895CF93DF9300
:101F8000EC01E98DFA8D309749F481E090E09B8374
:101F90008A8390E080E0DF91CF91089513821282CE
:101FA000898D9A8D0E948B0DE98DFA8D2281338166
:101FB000232B59F7F0CFCF93DF931F92CDB7DEB726
:101FC0006983DC01ED91FC910280F381E02D41E019
:101FD00050E0BE016F5F7F4F09950F90DF91CF9169
:101FE00008951F920F920FB60F9211242F933F93D3
:101FF0008F939F93AF93BF93809196019091970198
:10200000A0919801B09199013091950123E0230F9F
:102010002D3758F50196A11DB11D20939501809390
:10202000960190939701A0939801B09399018091A4
:102030009A0190919B01A0919C01B0919D01019604
:10204000A11DB11D80939A0190939B01A0939C01C7
:10205000B0939D01BF91AF919F918F913F912F912F
:102060000F900FBE0F901F90189526E8230F029631
:10207000A11DB11DD2CF1F920F920FB60F92112446
:102080002F933F934F935F936F937F938F939F9380
:10209000AF93BF93EF93FF9381EA93E00E947F0297
:1020A000FF91EF91BF91AF919F918F917F916F9130
:1020B0005F914F913F912F910F900FBE0F901F9006
:1020C00018951F920F920FB60F9211242F938F9392
:1020D0009F93EF93FF93E091B103F091B20380815E
:1020E000E091B703F091B80382FD1BC0908180910D
:1020F000BA038F5F8F732091BB03821741F0E09189
:10210000BA03F0E0EF55FC4F958F8093BA03FF912F
:10211000EF919F918F912F910F900FBE0F901F9075
:1021200018958081F4CF1F920F920FB60F92112451
:102130002F933F934F935F936F937F938F939F93CF
:10214000AF93BF93EF93FF93E0919301F0919401CC
:10215000309749F0A685B7858585968D91FF14C087
:102160009C918923A1F4FF91EF91BF91AF919F9131
:102170008F917F916F915F914F913F912F910F9030
:102180000FBE0F901F9018959C91892361F7A3892A
:10219000B4899C918589809589238C9386899789B8
:1021A0000197F1F7608D718DA685B785558538E06B
:1021B00020E0CB010197F1F7822F90E0959587956C
:1021C000282F4C91452309F02068315091F7868DD6
:1021D00081FD20958091910190E001968F73992760
:1021E00030919201381799F0A0919101B0E0AF5A67
:1021F000BE4F2C9380939101828D938D0197F1F7BF
:10220000A389B4898C919589892B8C93ACCF868DC9
:102210008160868FF1CFCF92DF92EF92FF92109282
:10222000A4031092A30398EEC92E93E0D92EE12CBB
:10223000F12CC092A503D092A603E092A703F092DE
:10224000A80388E091E09093A2038093A10385EC1A
:1022500090E09093AE038093AD0384EC90E0909374
:10226000B0038093AF0380EC90E09093B20380932F
:10227000B10381EC90E09093B4038093B30382ECBC
:1022800090E09093B6038093B50386EC90E0909332
:10229000B8038093B7031092BA031092BB03109255
:1022A000BC031092BD0380E580933E0410923F046E
:1022B00010924504109246041092490410924B0467
:1022C00082E090E0A0E0B0E080934C0490934D0455
:1022D000A0934E04B0934F041092630410926D04C7
:1022E00010926C048AE191E090936B0480936A04ED
:1022F00010926F0410928C0410928B04C0928D0483
:10230000D0928E04E0928F04F092900486E291E0E5
:1023100090938A04809389041092A3041092A204DB
:102320001092950460E088E00E946901E5EDF1E01B
:10233000E491E093BB04E1ECF1E0E491F0E0EE0F16
:10234000FF1FEB55FE4F859194919093BD048093B0
:10235000BC041092C6041092C8041092C7041092D4
:10236000C5041092C4041092C3041092C2041092C7
:10237000C1041092C0041092BF041092BE041092C7
:10238000AB041092AC041092A40489E08093A704DB
:1023900061E06093A8046093A9046093AA0410927A
:1023A000A5041092BA041092B9048FEF8093B70479
:1023B0001092B8048BEB94E09093AE048093AD043C
:1023C0001092E8041092E9041092EB041092EA04CF
:1023D0001092EC041092ED041092EE041092EF04AF
:1023E0001092F0041092F2041092F1041092F3048F
:1023F0001092F4041092F5041092F6041092F7046F
:102400001092F9041092F8041092FA041092FB044E
:102410001092FC041092FD041092FE04109200052C
:102420001092FF041092010510920205109203050C
:10243000109204051092050510920A0510920B05E2
:1024400010920C0510920D0510920E0510920F05BA
:10245000109218051092190510921A0510921B057A
:1024600010921C0510921D0510922605109227054A
:1024700010922C0510922D0510922E0510922F050A
:10248000109234051092350510923A0510923B05D2
:1024900010923C0510923D051092420510924305A2
:1024A000109248051092490510924A0510924B056A
:1024B0001092500510925105109256051092570532
:1024C000109258051092590510925E0510925F0502
:1024D00010926405109265051092660510926705CA
:1024E00010926C0510926D0582E080937D0510922C
:1024F0007E0510927F051092800510928205109241
:102500008105109284051092830510928505109222
:102510008605109287051092880510928905109201
:102520008A0510928B0510928C0510928D051092E1
:102530008E0510928F0510929005109291051092C1
:102540009205109293051092940510926E051092C8
:10255000CC041092CB04C092CD04D092CE04E09271
:10256000CF04F092D00488E391E09093CA04809362
:10257000C9041092E0041092DF041092E204109259
:10258000E1041092E4041092E3041092E604109225
:10259000E5048091E7048E7F8D7F8093E704869524
:1025A0008170682781E00E941D0161E081E00E9446
:1025B0006901EEECF1E0E491E093D904EAEBF1E09B
:1025C000E491F0E0EE0FFF1FE155FE4F85919491ED
:1025D0009093DB048093DA0460E080E00E9469015C
:1025E0008091E70481FD04C061E080E00E941D014C
:1025F0001092D504EDECF1E0E491E093D604E9EB20
:10260000F1E0E491F0E0EE0FFF1FEB55FE4F8591F6
:1026100094919093D8048093D704FF90EF90DF902B
:10262000CF900895789484B5826084BD84B581602C
:1026300084BD85B5826085BD85B5816085BD80918D
:102640006E00816080936E00109281008091810005
:1026500082608093810080918100816080938100FD
:10266000809180008160809380008091B1008460BF
:102670008093B1008091B00081608093B000809120
:102680007A00846080937A0080917A0082608093DF
:102690007A0080917A00816080937A0080917A003C
:1026A000806880937A001092C100E091B103F091AC
:1026B000B20382E08083E091AD03F091AE0310821B
:1026C000E091AF03F091B00380E180831092B903F1
:1026D000E091B503F091B60386E08083E091B30307
:1026E000F091B403808180618083E091B303F09125
:1026F000B403808188608083E091B303F091B403D8
:10270000808180688083E091B303F091B40380817D
:102710008F7D808387E691E00E94EE028CB5836016
:102720008CBD8DB58E7F8DBD83E491E00E94EE025D
:102730000E945A0B811134C08FE191E00E94EE0299
:102740008EEF90E00E94EE028CB58C7F8CBD8DB533
:102750008E7F8DBD0E945A0B81111FC081ED90E0CC
:102760000E94EE0288E690E00E94EE02C0E0D0E017
:1027700061E08DE00E941D010E94BF0160E08DE0DC
:102780000E941D010E94BF01209791F30E946B02DD
:10279000882371F30E940000EBCF87EA90E0E0CF3E
:1027A0008EE790E0DDCF88E391E09093CA048093B8
:1027B000C9048091930190919401895C944071F4D3
:1027C000E091DC04F091DD0490818091DE0480953D
:1027D00089238083109294011092930108950E949E
:1027E0000014A59F900DB49F900DA49F800D911D86
:1027F00011240895EE0FFF1F0590F491E02D099428
:10280000A29FB001B39FC001A39F700D811D112431
:10281000911DB29F700D811D1124911D089510E02E
:10282000C2EFD0E004C0FE010E94FA132196C33F1C
:08283000D107C9F7F894FFCFAE
:10283800FFFFFFFF00000000A10201022E021203A9
:102848005F023D02510200000000260F01022D0D1B
:10285800370F00000000DB0FBE0FAE0F380F410F1F
:10286800610F7B0F000000004B030102DE034A03E7
:0A287800A703BD0332030D0A0000A0
:00000001FF
