:020000040000FA
:100000000C94F9010C9421020C9421020C9489198E
:100010000C9489190C9489190C9421020C942102D6
:100020000C9421020C9421020C9421020C942102C4
:100030000C9421020C9421020C9421020C942102B4
:100040000C94E7180C9421020C9457190C94311954
:100050000C9421020C9421020C9421020C94210294
:100060000C9421020C94210200407A10F35A00A053
:10007000724E18090010A5D4E80000E87648170071
:1000800000E40B54020000CA9A3B000000E1F505B1
:10009000000080969800000040420F000000A086FB
:1000A00001000000102700000000E803000000002D
:1000B0006400000000000A000000000001000000D1
:1000C00000002C76D888DC674F0823DFC1DFAE59EB
:1000D000E1B1B796E5E3E453C63AE651997696E87E
:1000E000E6C28426EB898C9B62ED407C6FFCEFBC02
:1000F0009C9F40F2BAA56FA5F490055A2AF75C932D
:100100006B6CF9676DC11BFCE0E40D47FEF520E662
:10011000B500D0ED902E0300943577050080841E45
:10012000080000204E0A000000C80C333333330FA0
:10013000986E12831141EF8D2114893BE65516CF3D
:10014000FEE6DB18D1844B381BF77C1D901DA4BB49
:10015000E424203284725E228100C9F124ECA1E5FE
:100160003D274572726F72206F70656E696E6720F1
:10017000666C696768742E74787400005EBCE26116
:100180003FDD83C29C7E20A3FD1F41009D23BE4610
:10019000DB65F88C11AF32CA57E9747C3C3E5E2BAC
:1001A0003D3F2F5B5D3B2C2A225C00534420696E4F
:1001B0006974206661696C65642100534420696E2E
:1001C000697420737563636573732E0054656D7075
:1001D0002073656E736F7220736574757020636F22
:1001E0006D706C657465004750532073657475704D
:1001F00020636F6D706C657465004750533A2057EB
:10020000616974696E6720666F7220736174656CD2
:100210006C697465206669782E2E2E005344206325
:10022000617264206E6F7420617661696C61626CCA
:1002300065202D2072756E6E696E6720696E207460
:10024000657374206D6F646500534420636172644C
:1002500020696E697469616C697A6564207375637D
:100260006365737366756C6C790057616974696E48
:100270006720666F7220666C6967687420636F6EB2
:10028000646974696F6E732E2E2E00416C6C20733E
:10029000656E736F727320696E697469616C697AD7
:1002A0006564207375636365737366756C6C79211F
:1002B00000496E697469616C697A696E672073655B
:1002C0006E736F72732E2E2E003D3D3D2055534CA4
:1002D000492053756D6D6572205375627363616C4F
:1002E00065205061796C6F6164203D3D3D004C415B
:1002F0004E44494E472044455445435445440046E6
:100300004C494748542044455445435445442100F2
:100310004572726F723A206E6F2074656D706572EF
:1003200061747572652064617461004552524F5268
:100330003A204661696C656420746F206C6F672099
:100340006461746120746F2053442063617264009F
:10035000504F5354464C4947485400464C4947482F
:100360005400505245464C4947485400207361742C
:10037000732C2053746174653A20006D2C20475013
:10038000533A2000C2B0432C20416C743A200054F0
:100390003A200000000000240027002A000000008E
:1003A0000800020100000304070000000000000034
:1003B00000000000002300260029000000000025A6
:1003C0000028002B000404040404040404020202B4
:1003D0000202020303030303030102040810204086
:1003E0008001020408102001020408102000011AF4
:1003F000C22611241FBECFEFD8E0DEBFCDBF26E05E
:10040000AAE1B2E001C01D92A13BB207E1F712E000
:10041000A0E0B1E0EEEBFDE502C005900D92AA313F
:10042000B107D9F711E0C8EFD1E004C02197FE0170
:100430000E94992CC73FD107C9F70E94081C0C9451
:10044000D22E0C94000090E0FC01E356FC4F249166
:10045000FC01E752FC4F3491FC01EB53FC4FE4915B
:10046000EE23C9F0222339F0233001F1A8F4213022
:1004700019F1223029F1F0E0EE0FFF1FE554FC4F97
:10048000A591B4918FB7F894EC91611126C0309585
:100490003E233C938FBF08952730A9F02830C9F040
:1004A000243049F7809180008F7D03C080918000C7
:1004B0008F7780938000DFCF84B58F7784BDDBCFCB
:1004C00084B58F7DFBCF8091B0008F778093B00093
:1004D000D2CF8091B0008F7DF9CF3E2BDACFCF9372
:1004E000DF9390E0FC01E752FC4F24918B539C4F2B
:1004F000FC0184918823D1F090E0880F991FFC01C2
:10050000ED56FC4FA591B491FC01E554FC4FC5910B
:10051000D49161110EC09FB7F8948C91E22FE095B1
:100520008E238C932881E223E8839FBFDF91CF91B4
:1005300008958FB7F894EC91E22BEC938FBFF6CF30
:100540003FB7F8948091B3029091B402A091B502A4
:10055000B091B60226B5A89B05C02F3F19F00196B1
:10056000A11DB11D3FBFBA2FA92F982F8827BC010D
:10057000CD01620F711D811D911D42E0660F771F35
:10058000881F991F4A95D1F708958F929F92AF9235
:10059000BF92CF92DF92EF92FF926B017C010E949B
:1005A000A0024B015C01C114D104E104F104B9F0D3
:1005B0000E94A002681979098A099B09683E734064
:1005C0008105910580F321E0C21AD108E108F10804
:1005D00088EE880E83E0981EA11CB11CE4CFFF902A
:1005E000EF90DF90CF90BF90AF909F908F90089545
:1005F0002FB7F8946091AF027091B0028091B10270
:100600009091B2022FBF0895AF92BF92CF92DF9226
:10061000EF92FF920F931F93CF93DF936C017B01B7
:100620008B01040F151FEB015E01AE18BF08C01748
:10063000D10759F06991D601ED91FC910190F081BB
:10064000E02DC6010995892B79F7C501DF91CF917E
:100650001F910F91FF90EF90DF90CF90BF90AF90E0
:100660000895FC01538D448D252F30E0842F90E0B8
:10067000821B930B541710F0CF960895019708959D
:10068000FC01918D828D981761F0A28DAE0FBF2F66
:10069000B11D5D968C91928D9F5F9F73928F90E0BC
:1006A00008958FEF9FEF0895FC01918D828D98172B
:1006B00031F0828DE80FF11D858D90E008958FEF68
:1006C0009FEF0895FC01918D228D892F90E0805C31
:1006D0009F4F821B91098F739927089589EB94E0AE
:1006E0000E94620321E0892B09F420E0822F089503
:1006F00080E090E0892B29F00E946E0381110C9418
:1007000000000895FC01A48DA80FB92FB11DA35AB4
:10071000BF4F2C91848D90E001968F739927848F21
:10072000A689B7892C93A089B1898C918370806444
:100730008C93938D848D981306C00288F389E02DE5
:1007400080818F7D80830895EF92FF920F931F9396
:10075000CF93DF93EC0181E0888F9B8D8C8D981374
:100760001AC0E889F989808185FF15C09FB7F89480
:10077000EE89FF896083E889F989808183708064CC
:1007800080839FBF81E090E0DF91CF911F910F9117
:10079000FF90EF900895F62E0B8D10E00F5F1F4F26
:1007A0000F731127E02E8C8D8E110CC00FB607FC35
:1007B000FACFE889F989808185FFF5CFCE010E94C3
:1007C0008203F1CFEB8DEC0FFD2FF11DE35AFF4FAC
:1007D000F0829FB7F8940B8FEA89FB898081806251
:1007E000CFCF0F931F93CF93DF938C01D0E0C0E066
:1007F000F801EC0FFD1F6491662341F089EB94E052
:100800000E94A403892B11F02196F2CFCE01DF9133
:10081000CF911F910F910895CF93DF93EC01888DB5
:100820008823B9F0AA89BB89E889F9898C9185FD6B
:1008300003C0808186FD0DC00FB607FCF7CF8C91F9
:1008400085FFF2CF808185FFEDCFCE010E9482032C
:10085000E9CFDF91CF9108958FB7F89480915B0233
:100860008FBF089561E0FC0184810E942302809182
:100870005A02811110925A0208958EBD00000DB4E3
:1008800007FEFDCF8EB508958FEF0C943D040F93B6
:100890001F93CF93DF93EC010E94F8028B010E941B
:1008A00044048F3F69F00E94F802601B710B6C17C3
:1008B0007D07A8F380E0DF91CF911F910F910895FC
:1008C00081E0F9CF8CBD9DBD0895CF93DF93EC01FE
:1008D00080915A02811109C081E080935A0280916F
:1008E0005605909157050E94620460E08C81DF916B
:1008F000CF910C9423028F929F92AF92BF92FF925E
:100900000F931F93CF93DF93EC01F62E49015A0109
:100910008E81882389F08F8198859C012F5F3F4FBE
:1009200038872F838230924018F40E944404F3CF1A
:10093000CE010E9432041E82CE010E9465048CE228
:1009400091E00E9447048F2D80640E943D0408E1DD
:1009500010E0D501C401002E04C0B695A795979567
:1009600087950A94D2F70E943D0408501109083F68
:100970008FEF180771F785E9FF2021F028E087E85D
:10098000F2128FEF0E943D0410E00E9444048A8717
:1009900087FF04C01F3F11F01F5FF7CFDF91CF919A
:1009A0001F910F91FF90BF90AF909F908F900895EF
:1009B000AF92BF92CF92DF92EF92FF920F931F936D
:1009C000CF93DF93EC016901C801820F931F81303F
:1009D000924050F58E81882379F088819981AA818F
:1009E000BB8184179507A607B70731F48F819885D7
:1009F000C816D90608F042C0488359836A837B83AE
:100A00008B85833039F089E0440F551F661F771FAF
:100A10008A95D1F79A01AB0161E1CE010E947B0476
:100A2000882389F083E08D83CE010E94320480E028
:100A3000DF91CF911F910F91FF90EF90DF90CF90BA
:100A4000BF90AF9008950E94F8025B010E94440499
:100A50008A878F3F69F40E94F8026A197B096D3218
:100A60007140A0F38FE08D83CE010E943204DCCF71
:100A70008E3F89F418861F8281E08E838F8198854E
:100A80008C159D0550F40E9444048F819885019631
:100A900098878F83F3CF8DE0E6CF6701E00EF11EDC
:100AA0000E944404F60181936F01EE15FF05C1F722
:100AB0008F819885080F191F18870F8389858823D0
:100AC00019F001151240A0F08E81882389F08F81E2
:100AD00098859C012F5F3F4F38872F83823092404B
:100AE00018F40E944404F3CFCE010E9432041E8207
:100AF00081E09ECFCF92DF92EF92FF920F93CF9340
:100B0000DF93EC01690182E1411551056105710531
:100B100099F08B85833039F089E0440F551F661FAB
:100B2000771F8A95D1F79A01AB0168E1CE010E9447
:100B30007B04882319F084E08D832DC08EEF0E9402
:100B40003D0476018EEFD81AF70181917F010E9452
:100B50003D04EC14FD04C1F78FEF0E943D048FEFBC
:100B60000E943D040E9444048A878F71853071F48D
:100B7000011116C0CE010E94320481E0DF91CF91B5
:100B80000F91FF90EF90DF90CF90089581E18D83DA
:100B9000CE010E943204CE010E94320480E0EECFEA
:100BA00088E592E00E944704811102C085E1C4CF2C
:100BB00020E030E0A9016DE0CE010E947B04882393
:100BC00011F084E1B9CF0E9444048111FACFD2CF51
:100BD0000F9340915D0250915E0260915F027091AF
:100BE0006002411551056105710599F0082F27EB49
:100BF00032E08091B7049091B8040E947A0588236E
:100C000049F010925D0210925E0210925F02109203
:100C1000600281E00F9108950F93CF93C82F8091C8
:100C20005C02811105C0C1E08C2FCF910F91089516
:100C30004091000150910101609102017091030106
:100C40000C2F27EB32E08091B7049091B8040E94FA
:100C50007A05811102C0C0E0E7CFCC2321F381E007
:100C60000E94E8058823B9F310925C02DDCF8F92D1
:100C70009F92AF92BF92EF92FF920F931F93CF93E9
:100C80004B015C01C42F8091000190910101A09162
:100C90000201B091030188159905AA05BB0551F120
:100CA00081E00E940C0681110BC080E0CF911F9162
:100CB0000F91FF90EF90BF90AF909F908F9008950D
:100CC00087EBE82E82E0F82E00E012E030E020E032
:100CD000B501A4018091B7049091B8040E94D80492
:100CE000882319F38092000190920101A0920201E1
:100CF000B092030140915C024C2B40935C0281E076
:100D0000D5CF8F929F92AF92BF92CF92DF92EF9208
:100D1000FF92CF9328E535E03093B8042093B704D1
:100D2000882309F46DC040E060E070E0CB010E94D0
:100D3000370681110BC080E0CF91FF90EF90DF90DC
:100D4000CF90BF90AF909F908F9008958091750441
:100D50008F7789F78091810490918204A091830418
:100D6000B091840484369105A105B10520F3C090AB
:100D70007D04D0907E04E0907F04F0908004C11444
:100D8000D104E104F104B9F240E0C701B6010E94C8
:100D90003706882381F28091C2029091C3028115A7
:100DA000924049F6A091C702AA2329F26091C50298
:100DB0007091C6026115710509F4BDCF2091C4027E
:100DC000222309F4B8CFA09376052093680590E01C
:100DD00080E030E0E1E0F0E0C82FAF01082E02C073
:100DE000440F551F0A94E2F72417350769F041E0D4
:100DF000480F01968930910579F7409371059BCF93
:100E0000C12CD12C7601C0CF809371052091CD02E9
:100E10003091CE0250E040E02115310541F420919F
:100E2000DB023091DC024091DD025091DE02209322
:100E3000690530936A0540936B0550936C05460134
:100E40005701860E971EA11CB11C809277059092C7
:100E50007805A0927905B0927A05E091C802F091E8
:100E6000C902F0937D05E0937C05B0E00E94EA2A78
:100E7000DC01CB01880D991DAA1DBB1D80937E0549
:100E800090937F05A0938005B093810525E0EE0F38
:100E9000FF1F2A95E1F7E150FE4FEF2FFF27E69560
:100EA0008E0F9F1FA11DB11D809372059093730536
:100EB000A0937405B09375058090CA029090CB0200
:100EC000B12CA12C8114910441F48090D702909010
:100ED000D802A090D902B090DA02C81AD90AEA0A58
:100EE000FB0AC80CD91CEA1CFB1C04C0F694E7944E
:100EF000D794C794CA95D2F7C0926D05D0926E056B
:100F0000E0926F05F092700585EFC8168FE0D80665
:100F1000E104F10428F48CE080937B0581E00CCFA0
:100F200080E125EFC2162FEFD206E104F104A0F311
:100F30008091E3029091E402A091E502B091E60273
:100F400080937E0590937F05A0938005B0938105E3
:100F500080E2E2CF4F925F926F927F928F929F9248
:100F6000AF92BF92CF92DF92EF92FF920F931F93B7
:100F7000CF93DF93EC01423051056105710590F488
:100F800080E0DF91CF911F910F91FF90EF90DF9064
:100F9000CF90BF90AF909F908F907F906F905F9019
:100FA0004F90089589859A85AB85BC850196A11DD2
:100FB000B11D84179507A607B70710F3CB88DC8807
:100FC000ED88FE888F89803109F042C0BB27A72FAA
:100FD000962F852F480159012A013B01C80ED91EC1
:100FE000EA1EFB1E8091000190910101A091020177
:100FF000B0910301C816D906EA06FB0699F58F8958
:101000008031C1F5B301A201552766277727440F28
:10101000551F49545D4FFA019182808280915C0294
:10102000816080935C028A89823080F08D819E810C
:10103000AF81B8858C0D9D1DAE1DBF1D80935D02D7
:1010400090935E02A0935F02B093600281E099CF1B
:10105000DB01CA01E7E0B695A79597958795EA95D4
:10106000D1F7B8CF40E0C701B6010E943706811121
:10107000C6CF86CFB301A2014F77552766277727C2
:10108000440F551F440F551F49545D4FFA0180828C
:101090009182A282B382C2CF8F929F92AF92BF926F
:1010A000CF92DF92EF92FF920F931F93CF93DF9334
:1010B000FC0181859285A385B4850196A11DB11D92
:1010C00084179507A607B70770F480E0DF91CF91EA
:1010D0001F910F91FF90EF90DF90CF90BF90AF9056
:1010E0009F908F90089583889488A588B688878973
:1010F000803189F5BB27A72F962F852FE9016A013B
:101100007B018F01BC01CD01680D791D8A1D9B1DDE
:101110008090000190900101A0900201B090030125
:1011200086169706A806B90601F5F8018789803169
:1011300011F5DD24EE24FF24F601EE0FFF1FE95424
:10114000FD4F80819181B0E0A0E088839983AA83DC
:10115000BB8381E0BBCFDB01CA01C7E0B695A79591
:1011600097958795CA95D1F7C9CF40E00E94370679
:101170008111DBCFAACFE894C7F8DD24EE24FF2449
:10118000F601EE0FFF1FEE0FFF1FE954FD4F8081A8
:101190009181A281B381BF70D8CF4F925F926F923D
:1011A0007F92AF92BF92CF92DF92EF92FF920F9316
:1011B0001F93CF93DF9300D000D0CDB7DEB78C0163
:1011C00049835A836B837C835901C12CD12C7601CE
:1011D000412C82E0582E612C712C49815A816B81FF
:1011E0007C819E012F5F3F4FC8010E944C088823DD
:1011F00039F1F8018585A301920104C0220F331F44
:10120000441F551F8A95D2F7DA01C901C80ED91EAD
:10121000EA1EFB1E49815A816B817C81878980315E
:1012200011F188EF9FEFAFEFBFE0481759076A074A
:101230007B0798F2F501C082D182E282F38281E0DD
:101240000F900F900F900F90DF91CF911F910F9102
:10125000FF90EF90DF90CF90BF90AF907F906F9016
:101260005F904F90089588EF9FEFA0E0B0E0DDCF52
:10127000CF93DF93FC012581222321F080E0DF91D1
:10128000CF910895EC0180917B05803159F582E082
:101290008583178A108E118E128E80917C05909115
:1012A0007D05B0E0A0E025E0880F991FAA1FBB1FB5
:1012B0002A95D1F7838B948BA58BB68B84E695E02A
:1012C0009C8F8B8F81E08C831E821F8218861986EB
:1012D0001A861B861C861D861E861F86188A198AFA
:1012E0001A8ACDCF803251F683E0858340917E0506
:1012F00050917F056091800570918105478B508FDB
:10130000618F728F9F012D5E3F4F84E695E00E94B2
:10131000CD088111D3CFB2CF8F929F92AF92BF925F
:10132000CF92DF92EF92FF920F931F93CF93DF93B1
:10133000EC018D8181110EC080E0DF91CF911F9172
:101340000F91FF90EF90DF90CF90BF90AF909F9064
:101350008F9008950B891C892D893E8904171507E4
:101360002607370748F34A015B01823031F48A8649
:101370009B86AC86BD8681E0E0CF81149104A104F8
:10138000B10449F41E821F82188619861A861B86AC
:101390001C861D86F0CF0A851B852C853D85EB8D2F
:1013A000FC8D858590E00996B901A801415051094D
:1013B00061097109082E04C0769567955795479580
:1013C0000A94D2F775016401E1E0CE1AD108E10870
:1013D000F10804C0F694E794D794C7948A95D2F79D
:1013E000C416D506E606F70620F0012B022B032BC8
:1013F00011F58F89988DA98DBA8D8E839F83A887CB
:10140000B9878E010A5F1F4FC114D104E104F104B2
:1014100009F4ADCF4E815F816885798598018B8D08
:101420009C8D0E944C0891E0C91AD108E108F1088E
:101430008111EACF81CFC41AD50AE60AF70AE1CFB3
:101440003F924F925F926F927F928F929F92AF9254
:10145000BF92CF92DF92EF92FF920F931F93CF93A1
:10146000DF93CDB7DEB72C970FB6F894DEBF0FBE73
:10147000CDBF5C01DC015B968D909C905C971696CD
:101480004D905D906D907C901997411451046104CA
:10149000710409F468C0BFEF4B1A5B0A6B0A7B0A40
:1014A000312CF40181859285A385B4859C01AD0121
:1014B0002F5F3F4F4F4F5F4F29873A874B875C879E
:1014C000730162011D821E821F821886F4018185CC
:1014D0009285A385B4852D813E814F81588528173B
:1014E00039074A075B0708F056C089859A85AB859E
:1014F000BC858C159D05AE05BF0550F482E0C82E55
:10150000D12CE12CF12C92E0492E512C612C712C24
:101510009E012F5F3F4FB701A601C4010E944C08F6
:101520008823C9F189819A81AB81BC81892B8A2B5F
:101530008B2B09F1260137019FEF491A590A690AD5
:10154000790A2D813E814F8158852F5F3F4F4F4F44
:101550005F4F2D833E834F8358873FEFC31AD30AD3
:10156000E30AF30AB3CFF4014080518062807380B4
:101570003324339496CFC414D504E604F70409F752
:101580000FEF1FEF2FEF3FE0B701A601C4010E944C
:10159000AA07811119C080E02C960FB6F894DEBF1F
:1015A0000FBECDBFDF91CF911F910F91FF90EF90B4
:1015B000DF90CF90BF90AF909F908F907F906F9073
:1015C0005F904F903F900895D50116964D915D9193
:1015D0006D917C911997411551056105710539F09F
:1015E00097018601C4010E94AA078823A1F2D501B0
:1015F0001696CD92DD92ED92FC921997332051F020
:10160000D701C6010196A11DB11DF401808391830C
:10161000A283B383F5018789908DA18DB28D892B2B
:101620008A2B8B2B39F48481C78AD08EE18EF28E7F
:1016300080688483F50184818062848381E0ACCFFB
:101640001F93CF93DF93FC0125812223D1F1162F25
:10165000EC01848187FF2AC066857785808991891E
:1016600041E00E943706882361F1EA8980E2E89F21
:10167000F0011124E954FD4F309719F18D8182302A
:1016800040F48B899C89AD89BE89848F958FA68F04
:10169000B78F8F89988D938F828F8F89988DA98D21
:1016A000BA8DB58BA48B8C818F778C83111103C07D
:1016B0008C818F7E8C83812FDF91CF911F910C9431
:1016C0000C0680E0DF91CF911F910895FF920F9358
:1016D0001F93CF93DF93EC018D81813041F090E037
:1016E00080E0DF91CF911F910F91FF9008958C8141
:1016F00081FFF5CF82FD1BC00091B7041091B804A3
:10170000C8010E9465040E944404F82EC8010E948A
:1017100032048FEFF812E3CF8C8185FF1BC060E0AD
:10172000CE010E94200B8C818F7D8C83D8CF4B897A
:101730005C896D897E898A859B85AC85BD8584178A
:101740009507A607B707C1F2CE010E948C09811147
:10175000D3CFC5CF40915D0250915E0260915F0290
:1017600070916002452B462B472B21F080E00E94B0
:10177000E805B5CF80618C832A853B85317080E098
:1017800092E0821B930BADCFCF93DF93EC0161E02E
:101790000E94200B882311F01D8281E0DF91CF9100
:1017A00008952F923F924F925F926F927F928F9205
:1017B0009F92AF92BF92CF92DF92EF92FF920F93E0
:1017C0001F93CF93DF9300D000D01F92CDB7DEB729
:1017D0007C015B01342E5D83DC0115968C9115979D
:1017E000813009F0CEC014962C9021FECAC022FC94
:1017F000B4C0C32CDD8022947FE027222094B22D38
:10180000B1702B2ED7011A964D915D916D917C91FF
:101810001D97C114D10409F428C15B968D919C9148
:101820005C97FC0174807A948A019B0169E036958B
:101830002795179507956A95D1F770228A0111703F
:10184000711020C001151105E9F416964D915D91B6
:101850006D917C911997411551056105710509F04C
:1018600099C057968D919D910D90BC91A02D009798
:10187000A105B10509F0B0C0C7010E94200A882364
:1018800009F47FC080E092E0801B910B46018C152B
:101890009D0508F44C01D7015B964D915C915C97D6
:1018A00016968D919D910D90BC91A02D0297A10946
:1018B000B109FA01258504C0880F991FAA1FBB1F13
:1018C0002A95D2F74685578560897189840F951FBF
:1018D000A61FB71F9C01AD01270D311D411D511DD4
:1018E00029013A01811432E0930609F07BC080910E
:1018F000000190910101A0910201B09103018415B2
:101900009505A605B70559F48FEF9FEFDC0180938D
:10191000000190930101A0930201B0930301022DF5
:101920009501B301A2018091B7049091B8040E947F
:101930007A05882331F19EEFB91AC818D908F70142
:1019400082859385A485B585880D991DA11DB11D3E
:1019500082879387A487B58755CFF7014389548938
:101960006589768982859385A485B5854817590749
:101970006A077B0709F43DCFC7010E948C098111DA
:1019800038CF81E090E0D70113969C938E93129705
:1019900080E007C09E012F5F3F4F0E944C088111DD
:1019A00002C090E079C089819A81AB81BC81F70146
:1019B000238D348DF901278948EF5FEF60E070E0F7
:1019C000203121F048EF5FEF6FEF7FE0841795073C
:1019D000A607B70708F050CFF70186839783A08743
:1019E000B18750CF0115110599F5D7011A964D9180
:1019F0005D916D917C911D9753968D919D910D9068
:101A0000BC91A02D481759076A077B0708F181E0B0
:101A10000E940C06882309F4B4CF40920001509232
:101A20000101609202017092030180915C02816069
:101A300080935C02C80189549D4FD5019C01280DFB
:101A4000391DFC012E173F0759F04D914193FACFF4
:101A500041E0C301B2010E9437068111EBCF91CF63
:101A6000281B390BA20EB31E68CFF7018389948916
:101A7000A589B68984179507A607B70738F4848126
:101A8000438B548B658B768B80688483F7018481CC
:101A900083FD1AC0832D9D810F900F900F900F90A2
:101AA0000F90DF91CF911F910F91FF90EF90DF90FA
:101AB000CF90BF90AF909F908F907F906F905F90EE
:101AC0004F903F902F90089561E0C7010E94200B36
:101AD000882309F456CFDECFCF93DF931F92CDB783
:101AE000DEB7698341E050E0BE016F5F7F4F0E9427
:101AF000D10B0F90DF91CF910895FC01DB0112967D
:101B00008D919C9113979383828386E291E09183D8
:101B1000808314968C911497848315968C911597D5
:101B2000858316964D915D916D917C9119974683B1
:101B30005783608771871A964D915D916D917C9165
:101B40001D9742875387648775871E964D915D91D7
:101B50006D917C91519746875787608B718B529618
:101B60008C915297828B53964D915D916D917C91A2
:101B70005697438B548B658B768B57964D915D9121
:101B80006D917C915A97478B508F618F728F5B96C6
:101B90008D919C91948F838F08950895FC01818D80
:101BA000928D009719F061E00C94200B0895DC01F0
:101BB0005996ED91FC913097B9F083899489A58964
:101BC000B6894285538564857585841B950BA60B64
:101BD000B70B811520E89207A105B10538F08FEF0A
:101BE0009FE7A0E0B0E0089590E080E00895DC0178
:101BF00059968D919C91009739F0DC01ED91FC9103
:101C00000480F581E02D099490E080E00895CF9361
:101C1000DF93EC01E98DFA8D309749F481E090E093
:101C20009B838A8390E080E0DF91CF9108951382B7
:101C30001282898D9A8D0E94D10BE98DFA8D2281B5
:101C40003381232B59F7F0CFCF93DF931F92CDB77A
:101C5000DEB76983DC01ED91FC910280F381E02D18
:101C600041E050E0BE016F5F7F4F09950F90DF911B
:101C7000CF9108952F923F924F925F926F927F92F1
:101C80008F929F92AF92BF92CF92DF92EF92FF928C
:101C90000F931F93CF93DF9300D01F92CDB7DEB782
:101CA000FC018581811118C08FEF9FEF0F900F907D
:101CB0000F90DF91CF911F910F91FF90EF90DF90E8
:101CC000CF90BF90AF909F908F907F906F905F90DC
:101CD0004F903F902F900895848180FFE5CF4389F6
:101CE00054896589768982859385A485B585312C4B
:101CF000212C481759076A077B0719F022242394DF
:101D0000312C6F012101CE0101963C01DF011696B5
:101D1000BB83AA834114510409F4C5C0F60142856E
:101D20005385648575854A01F1E09F22D6015B9653
:101D30008D919C915C978A019B01E9E036952795EE
:101D400017950795EA95D1F71596EC91E230E9F5EC
:101D5000FC01628D738D848D958D600F711F821FC4
:101D6000931FA12C22E0B22EA818B9084A145B04D4
:101D700008F45201F601248126FD04C0A114F2E00A
:101D8000BF0671F400910001109101012091020140
:101D900030910301061717072807390709F05EC0BD
:101DA00040E00E943706882309F47ECFC40189549D
:101DB0009D4FD3019C012A0D3B1DFC012E173F07AF
:101DC00009F46CC041914D93F9CFDC011496BC909D
:101DD000BA94B0228114910479F4B1100DC0452B4E
:101DE000462B472B69F5F6018789908DA18DB28D21
:101DF00086839783A087B187D6015B96ED91FC918E
:101E00005C9716966D917D918D919C91199762507A
:101E1000710981099109258504C0660F771F881F04
:101E2000991F2A95D2F70685178520893189600F79
:101E3000711F821F931F6B0D711D811D911D91CF0D
:101E4000D60116964D915D916D917C9119972A81DD
:101E50003B810E944C088111CFCF26CF73018501B1
:101E60009401AB01BC018091B7049091B8040E9429
:101E7000D804882309F418CF6A0C7B1CF6018285EC
:101E80009385A485B5858A0D9B1DA11DB11D8287F3
:101E90009387A487B5874A185B083CCF281B390B6A
:101EA000620E731EEBCF2A94232809F0FDCE8981A0
:101EB00090E0FCCEFC01818D928D009711F00C9486
:101EC0003A0E8FEF9FEF08950F931F93CF93DF93F9
:101ED000EC01898D9A8D10E000E0009799F00E9446
:101EE0003A0E8C010F3F100769F0898D9A8DFC0125
:101EF0004285538564857585415051096109710991
:101F00000E948C09C801DF91CF911F910F91089514
:101F1000DC0180E0615090F09D919827E92FEF70EF
:101F2000F0E0E558FE4F2491E92FE295EF70F0E0E4
:101F3000E557FE4FE491822F8E27ECCF0895DC0108
:101F40002C911196ED91FC91F8948181822B8183E3
:101F50009281322F30959323928387E090E001970E
:101F6000F1F781818323818383E290E00197F1F788
:101F700090817894EFECF0E03197F1F7922381E0D3
:101F800009F480E00895FC0190810180F281E02D48
:101F9000292F209560FF14C0F894828182238283C8
:101FA0008181892B8183A3E2B0E01197F1F78281CF
:101FB000982B9283789487ED90E00197F1F708953C
:101FC000F8948281822382838181892B8183AFEF80
:101FD000B0E01197F1F78281982B928378948FE08B
:101FE00090E0EBCFDF92EF92FF920F931F93CF938E
:101FF000DF93EC01D62EE42E08E010E0FF24F394EA
:1020000061E08D2D8F2109F460E0CE010E94C30FA5
:10201000FF0C01501109A1F7E11010C0F894E981FB
:10202000FA8191818881809589238183E981FA8170
:10203000928188818095892382837894DF91CF91E2
:102040001F910F91FF90EF90DF900895EF92FF9214
:102050000F931F93CF93DF938C017B0140E065E5E5
:102060000E94F20FE70188E0E80EF11C699140E060
:10207000C8010E94F20FCE15DF05C1F7DF91CF91A5
:102080001F910F91FF90EF900895FC0190810180C6
:10209000F281E02DF8948181292F2095822381837C
:1020A00078943DE743E050E0315029F1DA0111978F
:1020B000F1F780818923C1F3F8948281822382839E
:1020C0008181892B81837894ABE7B7E01197F1F791
:1020D000F894818182238183A3E1B1E01197F1F724
:1020E0008081982381E009F080E07894E3E6F6E0CF
:1020F0003197F1F7089580E008956F927F928F9263
:102100009F92AF92BF92CF92DF92EF92FF920F9386
:102110001F93CF93DF938C01EB018091C5059091C4
:10212000C6050E944510882309F43FC0B80180917C
:10213000C5059091C6050E94261040E06EEB809187
:10214000C5059091C6050E94F20F7E016E0189E0DF
:10215000C80ED11C8E01A090C505B090C60588E0C0
:10216000882E912C712C66246394C5010E949F0FC8
:1021700081117628660CE1E08E1A9108B1F7F8011A
:1021800071928F01CE16DF0631F78091C5059091CF
:10219000C6050E944510813041F4F70181917F010D
:1021A000811105C0E017F107C1F790E008C068E0B1
:1021B000CE010E94880F91E028852813F6CF892F41
:1021C000DF91CF911F910F91FF90EF90DF90CF9013
:1021D000BF90AF909F908F907F906F9008952091C7
:1021E0006402309165022817390771F490916202F8
:1021F00080916302981741F0E0916202F0E0E65EA0
:10220000FD4F808190E008958FEF9FEF089508952E
:10221000EF92FF920F931F93CF93DF93DC015C96B5
:10222000ED90FC905D97E114F10479F481E090E089
:1022300013969C938E93129790E080E0DF91CF915C
:102240001F910F91FF90EF9008955196ED91FC91A1
:10225000529750968C915097982F90950FB75E9605
:102260002C915E97122F127021FD6095F8942081B9
:10227000112319F1282B2083E7012197F1F728E09A
:10228000462F50E0308160FF1AC0382B3083E701C1
:102290002197F1F7BA0175956795215089F71123B8
:1022A00081F08081892380830FBF5C968D919C9102
:1022B0000197F1F781E090E0C1CF2923DCCF3923EA
:1022C000E5CF9081892BEFCF209164023091650298
:1022D0002817390761F4809163022091620290E02F
:1022E000805C9F4F821B91098F739927089590E01E
:1022F00080E0089520916402309165022817390723
:10230000B9F49091620280916302981789F0E0918C
:102310006202F0E0E65EFD4F80812091620230E0D3
:102320002F5F3F4F2F7333272093620290E0089571
:102330008FEF9FEF089590E080E00895CF93DF93B3
:10234000EC018A859B85AC85BD858E839F83A8879C
:10235000B9870E94F8026A837B838C839D8381E026
:1023600089838883DF91CF910895CF93DF93EC0128
:102370008E819F81A885B9858A839B83AC83BD8329
:102380000E94F8026A877B878C879D8781E089831A
:102390008883DF91CF9108950F931F93CF93DF939D
:1023A0008C01D0E0C0E061E08DE00E94230268EC87
:1023B00070E080E090E00E94C50260E08DE00E9445
:1023C000230268EC70E080E090E00E94C502219654
:1023D0000C171D0741F7DF91CF911F910F910895C1
:1023E000BF92CF92DF92EF92FF920F931F93CF9302
:1023F000DF93EC01B62EC72E8D85811105C0CE016D
:102400000E94451081110EC01B861D861C8680E02F
:10241000DF91CF911F910F91FF90EF90DF90CF90C0
:10242000BF90089540E060EFCE010E94F20F01E0FE
:10243000E12CD12C11E0CE010E949F0FF82ECE018D
:102440000E949F0F91E0F91218C0813099F5113464
:10245000D8F2DB86D11002C081E08D878B81882382
:1024600099F22396EB2DFC2DCF010896299121930B
:10247000E817F907D9F781E0CBCFEE2DF0E0F8129D
:102480000FC08B851817A0F4DE01AE0FBF1F139687
:102490008C91802379F4F12C193008F41C87D12E0B
:1024A000EC0FFD1F8381902F9095892383830AC0B1
:1024B0008113F1CFFE01EE0DF11D8381802B83830B
:1024C000FF24F3946F2DCE010E94C30F1F5F000FF6
:1024D00011F4E39401E087E08E1508F0ACCFB7CF9C
:1024E000CF92DF92EF92FF921F93CF93DF93EC0195
:1024F00080E2689FF0011124E954FD4F93859171AA
:1025000061F0842F827449F080E0DF91CF911F91B8
:10251000FF90EF90DF90CF900895142F6A8B8091F9
:10252000000190910101A0910201B09103018E87F9
:102530009F87A88BB98BC488D588F12CE12C7601B4
:10254000DD24CC24CF8AD88EE98EFA8E828D938DAD
:10255000B0E0A0E0AC01BD014C295D296E297F29C6
:102560004F8B588F698F7A8F83858871B1F4848DF2
:10257000958DA68DB78D8B8B9C8BAD8BBE8B81E0A3
:102580008D831F701C831E821F82188619861A86EF
:102590001B861C861D8681E0B8CF803109F0B4CF40
:1025A0009E012D5E3F4F8B8D9C8D0E94CD08882310
:1025B00009F4AACF84E0E4CFFB0101900020E9F701
:1025C0003197AF01461B570BDC01ED91FC91028066
:1025D000F381E02D0994CF93DF930E94F103EC0186
:1025E00062E571E089EB94E00E94DC128C0F9D1F84
:1025F000DF91CF9108958F929F92AF92BF920F93E8
:102600001F93CF93DF93CDB7DEB7A1970FB6F894A2
:10261000DEBF0FBECDBF19A2423008F44AE08E01E2
:102620000F5D1F4F842E912CB12CA12CA50194017C
:102630000E94772CE62FB901CA01EA3004F5E05D6B
:10264000D801EE938D01232B242B252B79F790E0D5
:1026500080E0109729F0BD0189EB94E00E94DC1224
:10266000A1960FB6F894DEBF0FBECDBFDF91CF911C
:102670001F910F91BF90AF909F908F900895E95C4C
:10268000DFCF4F925F926F927F928F929F92AF9225
:10269000BF92CF92DF92EF92FF920F931F93CF934F
:1026A0006B017C01742EAC019B010E944E2C65E5F0
:1026B00071E0811126C046015701E894B7F82FEF69
:1026C0003FEF4FE75FE7C501B4010E944E2C811137
:1026D0000CC02FEF3FEF4FE75FE7C501B4010E9449
:1026E000C62969E571E0181664F02FEF3FEF4FE758
:1026F0005FE4C701B6010E94492C1816ACF46DE5E1
:1027000071E089EB94E0CF911F910F91FF90EF90D2
:10271000DF90CF90BF90AF909F908F907F906F9001
:102720005F904F900C94DC122FEF3FEF4FE75FEC80
:10273000C701B6010E94C62987FDE1CF20E030E045
:10274000A901C701B6010E94C62910E000E087FF79
:102750000AC06DE289EB94E00E94A4038C01F7FAB1
:10276000F094F7F8F094C0E060E070E080E09FE360
:102770007C1641F020E030E040E251E40E94A82BBA
:10278000CF5FF6CFA70196010E943C2B2B013C01A5
:102790000E941A2C4B015C014AE00E94FB127C0152
:1027A000E00EF11ECC23C1F1C501B4010E94CB297A
:1027B0009B01AC01C301B2010E943B2B4B015C01A8
:1027C0006EE289EB94E00E94A403E80EF91EC1506A
:1027D00018F120E030E040E251E4C501B4010E946C
:1027E0002C2A2B013C010E941A2C4B01B12CA12C4C
:1027F0004AE0C501B4010E94FB12E80EF91EC501B2
:10280000B4010E94CB299B01AC01C301B2010E941B
:102810003B2B4B015C01DBCFC701CF911F910F9187
:10282000FF90EF90DF90CF90BF90AF909F908F90F0
:102830007F906F905F904F9008952F923F924F92AC
:102840005F926F927F928F929F92AF92BF92CF9240
:10285000DF92EF92FF920F931F93CF93DF93D82FC6
:10286000C92F8B010E94FC2624E630E040E050E0B6
:102870000E94772C49019B01AC0160E876E988E968
:1028800090E00E94532C6B017C01F80191828082C0
:10289000ED2FFC2F2191822F022E000C990BC09757
:1028A0000A97C0F32E3239F51F0180E8882E86E999
:1028B000982E88E9A82EB12C9AE0492E512C612C33
:1028C000712CF101C1911F010C2E000CDD0BE09762
:1028D000CA30D10580F4C501B401A30192010E9460
:1028E000772C49015A01DE010E949F2CC60ED71E8B
:1028F000E81EF91EE6CFA5E0B0E0A70196010E9410
:10290000EA2A6F5F7F4F8F4F9F4F23E030E040E018
:1029100050E00E94772CF80122833383448355834F
:102920001682DF91CF911F910F91FF90EF90DF9072
:10293000CF90BF90AF909F908F907F906F905F905F
:102940004F903F902F9008951F93CF93DF93EC010A
:1029500018811D3209F42196CE010E94FC269B01AC
:10296000AC01A4E6B0E00E94EA2AAB01BC01FE0182
:102970002991822F022E000C990BC0970A97B8F369
:102980002E3231F58181082E000C990BC0978A30C8
:102990009105F0F4AAE0A89F9001A99F300D1124A1
:1029A000C901330FAA0BBB0B480F591F6A1F7B1FAE
:1029B0008281082E000C990BC0978A30910540F453
:1029C000092E000CAA0BBB0B480F591F6A1F7B1F57
:1029D0001D3239F470956095509541955F4F6F4F5A
:1029E0007F4FCB01BA01DF91CF911F9108950F93D3
:1029F0001F93CF93DF93EC0188819981009759F061
:102A00002A813B812617370730F081E0DF91CF9193
:102A10001F910F9108958B016F5F7F4F0E94E02DF2
:102A2000009759F0998388831B830A832C813D8109
:102A3000232B59F7FC011082E8CF80E0E7CFEF921B
:102A4000FF920F931F93CF93DF936115710541F4AC
:102A500080E0DF91CF911F910F91FF90EF9008954B
:102A600041155105B1F07B01EC010C811D81040F72
:102A7000151FB8010E94F714882351F3288139816A
:102A80008C819D81B701820F931F0E94BC2E1D83F4
:102A90000C8381E0DECFEF92FF920F931F93CF93D1
:102AA000DF93CDB7DEB764970FB6F894DEBF0FBEE5
:102AB000CDBF7C01CB01BA018E010F5F1F4F22E019
:102AC00044E00E94DE26FC0101900020E9F73197E6
:102AD000AF01481B590BBC01C7010E941F1564962A
:102AE0000FB6F894DEBF0FBECDBFDF91CF911F911F
:102AF0000F91FF90EF900895FB0101900020E9F7FE
:102B00003197AF01461B570B0C941F15CF93DF93E2
:102B1000EC0188819981009711F00E94572D19824C
:102B200018821D821C821B821A82DF91CF91089528
:102B3000EF92FF920F931F93CF93DF93EC017B01F2
:102B4000198218821B821A821D821C82FB0101904D
:102B50000020E9F731978F01061B170BB8010E947F
:102B6000F714811109C0CE01DF91CF911F910F9110
:102B7000FF90EF900C9486151D830C83B70188811C
:102B80009981DF91CF911F910F91FF90EF900C945D
:102B9000BC2ECF92DF92EF92FF920F931F93CF93B1
:102BA000DF93CDB7DEB7A1970FB6F894DEBF0FBEA7
:102BB000CDBF7C01CB01BA01F701118210821382D3
:102BC0001282158214828E010F5F1F4F26E048E0AB
:102BD0000E94DE266C01009771F0FC01019000203C
:102BE000E9F731978F01081B190BB801C7010E9443
:102BF000F714811112C0C7010E948615A1960FB665
:102C0000F894DEBF0FBECDBFDF91CF911F910F9122
:102C1000FF90EF90DF90CF900895F7011583048324
:102C2000B601808191810E94BC2EE8CFFC01808199
:102C30009181009711F00C94572D08953F924F9277
:102C40005F926F927F928F929F92AF92BF92CF923C
:102C5000DF92EF92FF920F931F93CF93DF93CDB745
:102C6000DEB72B970FB6F894DEBF0FBECDBF7C0149
:102C7000FE013196CE010C966F0130E23193E817D8
:102C8000F907E1F7DA0130E087E09D91B92E992349
:102C900009F43CC09E32F1F48A30C9F480E02B96EE
:102CA0000FB6F894DEBF0FBECDBFDF91CF911F915D
:102CB0000F91FF90EF90DF90CF90BF90AF909F90DB
:102CC0008F907F906F905F904F903F90089538E085
:102CD0008AE0DBCFEBE9F1E04491442321F0319627
:102CE0009413FACFDBCF8317C8F24FED490F4E355F
:102CF000A8F64FE9490F4A3118F440EEB42EB90E48
:102D0000F601E30FF11DB0823F5FBFCF89818032B2
:102D100029F2322E8B01DB015B968D919C915C97A1
:102D2000F701948F838F16961D921D921D921C920F
:102D30001997FB011286138614861586F801828581
:102D40009385A485B58543895489658976898417D7
:102D50009507A607B70708F04DC025E0B695A795DB
:102D6000979587952A95D1F7F82FFF70AF2ED80148
:102D700015968C91823008F491CFC8010E943A0ECA
:102D800097FD8CCFF80182859385A485B5854F96F4
:102D9000A11DB11D82879387A487B587F0E2AF9EFE
:102DA000B001112469547D4F6115710509F476CF86
:102DB000DB018C91882341F0853E09F062C0BB2085
:102DC00029F0BB24B394BACFB1100EC0F701A28A88
:102DD0008091000190910101A0910201B091030145
:102DE00086879787A08BB18BDB018C918111E9CF0E
:102DF000BB24B394832D8271823109F04FCFBB2065
:102E000009F44DC0F701668577858089918941E095
:102E10000E943706882309F441CFD70152968C913E
:102E2000B0E28B9FC001112489549D4F009709F493
:102E300035CFFC013A9626E1DF011D922A95E9F78C
:102E40002BE0F601DC0101900D922A95E1F721E2D9
:102E500038E2FC01318B208B40E058E057874687F1
:102E6000338B228B318F208F578B468B81E00E94D2
:102E70000C06882309F412CF432DD70152966C918A
:102E80000AC04BE050E0C6010E949D2E892B09F03C
:102E900055CF432D6A2DC7010E94701200CFF80153
:102EA0008581823009F4FACEC8010E94200A882365
:102EB00009F4F4CED8015B96ED91FC915C971696DF
:102EC0008D909D90AD90BC901997B2E08B1A9108AF
:102ED000A108B108858504C0880C991CAA1CBB1CDC
:102EE0008A95D2F786859785A089B189880E991E23
:102EF000AA1EBB1E848124013501480E511C611C91
:102F0000711C84149504A604B70409F1E1E04E1A7B
:102F100051086108710881E00E940C06882309F4B9
:102F2000BDCEE7EBF2E0119287EB94E08E179F079E
:102F3000D1F740920001509201016092020170921B
:102F4000030180915C02816080935C02DACFD8013A
:102F50005B96ED91FC91258580E092E0A0E0B0E0E9
:102F600004C0880F991FAA1FBB1F2A95D2F7F8012A
:102F70004389548965897689840F951FA61FB71FD9
:102F8000838B948BA58BB68BD70152961C9287EBC3
:102F900092E04FCFEF92FF920F931F93CF93DF9367
:102FA000EC017B018A011B821A8288EE93E0A0E08B
:102FB000B0E08C839D83AE83BF8382E391E09983ED
:102FC00088838DE190E00E94BB2C9A8F898F0097B7
:102FD00079F02DE1F701DC0101900D922A95E1F7DE
:102FE0004CE050E0B801CE010C960E94C32E188E22
:102FF000DF91CF911F910F91FF90EF900895EF9285
:10300000FF920F931F93CF93DF93CDB7DEB7C257D5
:10301000D1090FB6F894DEBF0FBECDBF8C011C8264
:103020001B8286E2E82E81E0F82EFA82E9821E8277
:10303000CE0101960E943809BE016F5F7F4FCE011D
:10304000CB960E947D0D19A218A2FF8EEE8E1BA2B8
:1030500021968FAD219781116CC06C961FAE1EAE6C
:103060006C9788EE93E0A0E0B0E0A0968CAF9DAFA7
:10307000AEAFBFAFA09782E391E06A969FAF8EAFED
:103080006A97E3961FAE1EAEE397A5961FAEA5976F
:103090006C968EAD9FAD6C979093A4058093A3051D
:1030A000A0968CAD9DADAEADBFADA0978093A505AC
:1030B0009093A605A093A705B093A805A4968CAD00
:1030C0009DADAEADBFADA4978093A9059093AA0521
:1030D000A093AB05B093AC05A8E5B0E0AC0FBD1F65
:1030E0001C96EDEAF5E08D91819385E0EA3BF807C7
:1030F000D1F7E396EEADFFADE397F093BB05E09318
:10310000BA05309719F0858181113EC082E691E0C1
:103110000E94EB1280E0CE58DF4F0FB6F894DEBF6E
:103120000FBECDBFDF91CF911F910F91FF90EF9018
:10313000089527E141E651E0BE01655C7F4FCE0175
:103140004E960E941E16882309F487CFCE01CB9697
:103150000E94C40B49A95AA96BA97CA9CE014E961D
:103160000E948C09BE01625E7F4FCE0101960E94D3
:103170007D0D41E651E0BE016F5F7F4FCE01885A61
:103180009F4F0E94CA1784CFF80144815581608106
:10319000718181EA95E00E94070E62E571E081EAA3
:1031A00095E00E94DC128091BA059091BB050097D2
:1031B00061F00E94C40B8091BA059091BB050E94FA
:1031C000572D1092BB051092BA0581E0A4CF1F9233
:1031D0000F920FB60F9211242F933F938F939F93CB
:1031E000AF93BF938091AF029091B002A091B102D2
:1031F000B091B2023091AE0223E0230F2D3758F583
:103200000196A11DB11D2093AE028093AF02909351
:10321000B002A093B102B093B2028091B302909138
:10322000B402A091B502B091B6020196A11DB11DE4
:103230008093B3029093B402A093B502B093B60208
:10324000BF91AF919F918F913F912F910F900FBEA2
:103250000F901F90189526E8230F0296A11DB11D0F
:10326000D2CF1F920F920FB60F9211242F933F933C
:103270004F935F936F937F938F939F93AF93BF937E
:10328000EF93FF9389EB94E00E948203FF91EF910B
:10329000BF91AF919F918F917F916F915F914F916E
:1032A0003F912F910F900FBE0F901F9018951F9276
:1032B0000F920FB60F9211242F938F939F93EF933A
:1032C000FF93E091C904F091CA048081E091CF049A
:1032D000F091D00482FD1BC090818091D2048F5F59
:1032E0008F732091D304821741F0E091D204F0E073
:1032F000E754FB4F958F8093D204FF91EF919F91FC
:103300008F912F910F900FBE0F901F901895808175
:10331000F4CF1F920F920FB60F9211242F933F9369
:103320004F935F936F937F938F939F93AF93BF93CD
:10333000EF93FF93E0916402F0916502309749F0BA
:10334000A685B7858585968D91FF14C09C918923AC
:10335000A1F4FF91EF91BF91AF919F918F917F91D8
:103360006F915F914F913F912F910F900FBE0F90F2
:103370001F9018959C91892361F7A389B4899C912A
:103380008589809589238C93868997890197F1F7A0
:10339000608D718DA685B785558538E020E0CB011D
:1033A0000197F1F7822F90E095958795282F4C9102
:1033B000452309F02068315091F7868D81FD2095D5
:1033C0008091630290E001968F7399273091620299
:1033D000381799F0A0916302B0E0A65EBD4F2C9320
:1033E00080936302828D938D0197F1F7A389B4894D
:1033F0008C919589892B8C93ACCF868D8160868F3B
:10340000F1CFCF92DF92EF92FF921092BC04109214
:10341000BB0498EEC92E93E0D92EE12CF12CC0927A
:10342000BD04D092BE04E092BF04F092C00484E1D7
:1034300091E09093BA048093B90485EC90E0909366
:10344000C6048093C50484EC90E09093C8048093F4
:10345000C70480EC90E09093CA048093C90481EC87
:1034600090E09093CC048093CB0482EC90E0909316
:10347000CE048093CD0486EC90E09093D0048093AA
:10348000CF041092D2041092D3041092D40410925C
:10349000D50480E5809356051092570510925D057E
:1034A00010925E05109261051092630582E090E033
:1034B000A0E0B0E08093640590936505A093660555
:1034C000B093670510927B051092850510928405D4
:1034D00086E291E0909383058093820510928705A0
:1034E0001092A4051092A305C092A505D092A6053E
:1034F000E092A705F092A80582E391E09093A205DF
:103500008093A1051092BB051092BA051092AD05EB
:1035100060E088E00E946F02E1EEF3E0E491E09366
:10352000D305EDECF3E0E491F0E0EE0FFF1FEF5474
:10353000FC4F859194919093D5058093D40510927A
:10354000DE051092E0051092DF051092DD05109265
:10355000DC051092DB051092DA051092D905109265
:10356000D8051092D7051092D6051092C305109277
:10357000C4051092BC0589E08093BF0561E06093AB
:10358000C0056093C1056093C2051092BD051092FD
:10359000D2051092D1058FEF8093CF051092D00500
:1035A00083ED95E09093C6058093C50510920006C3
:1035B0001092010610920306109202061092040661
:1035C0001092050610920606109207061092080641
:1035D00010920A061092090610920B0610920C0621
:1035E00010920D0610920E0610920F061092110600
:1035F00010921006109212061092130610921406E2
:1036000010921506109216061092180610921706C0
:103610001092190610921A0610921B0610921C06A0
:1036200010921D0610922206109223061092240674
:103630001092250610922606109227061092300648
:103640001092310610923206109233061092340610
:103650001092350610923E0610923F0610924406D4
:1036600010924506109246061092470610924C069C
:1036700010924D0610925206109253061092540664
:103680001092550610925A0610925B061092600630
:1036900010926106109262061092630610926806FC
:1036A0001092690610926E0610926F0610927006C4
:1036B00010927106109276061092770610927C0690
:1036C00010927D0610927E0610927F06109284065C
:1036D0001092850682E080939506109296061092CD
:1036E00097061092980610929A06109299061092D8
:1036F0009C0610929B0610929D0610929E061092B8
:103700009F061092A0061092A1061092A206109297
:10371000A3061092A4061092A5061092A606109277
:10372000A7061092A8061092A9061092AA06109257
:10373000AB061092AC06109286061092E405109229
:10374000E305C092E505D092E605E092E705F09228
:10375000E80584E491E09093E2058093E1051092FE
:10376000F8051092F7051092FA051092F9051092DB
:10377000FC051092FB051092FE051092FD0580914C
:10378000FF058E7F8D7F8093FF058695817068276A
:1037900081E00E94230261E081E00E946F02EAED75
:1037A000F3E0E491E093F105E6ECF3E0E491F0E07E
:1037B000EE0FFF1FE554FC4F859194919093F30514
:1037C0008093F20560E080E00E946F028091FF0527
:1037D00081FD04C061E080E00E9423021092ED05AB
:1037E000E9EDF3E0E491E093EE05E5ECF3E0E4913C
:1037F000F0E0EE0FFF1FEF54FC4F859194919093F2
:10380000F0058093EF05FF90EF90DF90CF90089543
:10381000CF93DF93CDB7DEB765970FB6F894DEBFD1
:103820000FBECDBF789484B5826084BD84B58160BD
:1038300084BD85B5826085BD85B5816085BD80917B
:103840006E00816080936E001092810080918100F3
:1038500082608093810080918100816080938100EB
:10386000809180008160809380008091B1008460AD
:103870008093B1008091B00081608093B00080910E
:103880007A00846080937A0080917A0082608093CD
:103890007A0080917A00816080937A0080917A002A
:1038A000806880937A001092C100E091C904F09181
:1038B000CA0482E08083E091C504F091C6041082BE
:1038C000E091C704F091C80480E180831092D10494
:1038D000E091CD04F091CE0486E08083E091CB04AA
:1038E000F091CC04808180618083E091CB04F091E1
:1038F000CC04808188608083E091CB04F091CC047B
:10390000808180688083E091CB04F091CC04808139
:103910008F7D808389EC92E00E94EB1281EB92E034
:103920000E94EB1261E08DE00E946F0283E090E064
:103930000E94CC1180918705882321F082E895E0D0
:103940000E94C40B109263051092610510925E05EF
:1039500010925D058BE080935C050E94F8028B015C
:1039600061E080915C050E946F0261E080915C05DE
:103970000E942302FFB6F89480916102811127C052
:10398000EFECF3E08491E3EEF3E09491E82FF0E0C4
:10399000EE0FFF1FED56FC4FA591B491EC91E9237A
:1039A00021F461E08AE00E94230261E08AE00E9443
:1039B0006F028CB580618CBD8CB580648CBD61E07C
:1039C0008DE00E946F0261E08BE00E946F028091A7
:1039D00061028F5F80936102FFBE82E5809356058E
:1039E0001092570580915605909157050E946204E8
:1039F0004AE0F42E8FEF0E943D04FA94F110FACFC2
:103A000088E595E00E94650420E030E0A90160E0CF
:103A100088E595E00E947B04F82E80936205882457
:103A200083948815C9F00E94F802601B710B613DF8
:103A3000774050F381E080935D0588E595E00E9432
:103A400032048BEA91E00E94EB1210926F028CE13B
:103A500092E00E94EB1293C02AEA31E040E050E08D
:103A600068E088E595E00E947B0482FF2AC0F0921E
:103A7000630580916305C12CD12CE12C20E4F22E4A
:103A8000823019F0C12CD12C760120E030E0A90160
:103A900067E388E595E00E947B04A701960169E24F
:103AA00088E595E00E947B04809362058823D1F02D
:103AB0000E94F802601B710B613D774030F388E093
:103AC000BACF34E0F32E0E94440480936205FA9446
:103AD000F110F9CF8A3A11F082E0ADCF82E0809305
:103AE0006305C7CF809163058230D1F420E030E0D8
:103AF000A9016AE388E595E00E947B04882311F020
:103B000086E099CF0E944404807C803C19F483E0D5
:103B1000809363050E9444040E9444040E9444046C
:103B200088E595E00E94320480E580935605109266
:103B3000570581E00E948106882309F4A7C082E826
:103B400095E00E943809882309F47BCF8BEB91E044
:103B50000E94EB1281E080936F0289E492E00E9460
:103B6000EB126CE671E0CE0101960E949815CE0131
:103B700001960E94FF17CE0101960E94161613E0CF
:103B800001E0E091C505F091C605138615861486FF
:103B9000128611861086178216821582148213826D
:103BA0001092C3051092C40562E370E080E090E0DB
:103BB0000E94C502BE01625F7F4F8091C505909152
:103BC000C6050E94F011882309F481C067E0CE0188
:103BD0000E960E94880F9D898913ECCF8091C305B2
:103BE0008F5F8093C3058E85883231F008F055C011
:103BF000803111F08232F1F68091C4058F5F80939D
:103C0000C4058091BC05811128C08091C5059091A3
:103C1000C6050E944510BE01625F7F4F8091C505B9
:103C20009091C6050E94261040E064EB8091C50586
:103C30009091C6050E94F20F8091C5059091C6052E
:103C40000E949F0FF82E8091C5059091C6050E9495
:103C50004510F11002C00093BC058E85803141F102
:103C6000BE016F5F7F4FCE010E960E947D108823AC
:103C700059F08D819E859B3311F487FD19C08F33D8
:103C8000C9F090F48F31F9F080E015C080E00E9417
:103C90008106882309F4D5CE52CF8B3309F4ACCFFB
:103CA000823409F087CFA8CF8F3579F08F3761F74D
:103CB0008CE001C08AE09091BF05981708F07ACF98
:103CC0008093BF0577CF89E0F6CF8BE0F4CF80916A
:103CD000C305811103C0115009F053CF8CEC91E062
:103CE0000E94EB121092FC051092FB051092FA054F
:103CF0001092F9051092F8051092F7058EE393E003
:103D00009093FE058093FD059091ED05963108F0A6
:103D100047C02DE831E03093F8052093F7052CE3F8
:103D200033E03093FA052093F90524E632E030932E
:103D3000FC052093FB052091680084E0983048F052
:103D400031E09E3008F430E081E001C0880F3A9500
:103D5000EAF7822B809368002DE630E0983050F02F
:103D60002BE630E09E3030F02CE630E0963110F05B
:103D700030E020E03093F5052093F405292F30E062
:103D8000983008F052C181E001C0880F9A95EAF797
:103D90008093F6058091FD059091FE050197F1F75E
:103DA0008091FB059091FC05892B49F1E09164021B
:103DB000F091650255E0E13EF50709F1309739F0E1
:103DC000A389B4899C918589809589238C9380915E
:103DD000FF058E7F8093FF051092630210926202AE
:103DE00081EE95E09093650280936402E091F40582
:103DF000F091F50580819091F605892B808387EEFF
:103E000091E00E94EB128AEF91E00E94EB128BE8A6
:103E100092E00E94EB128AE692E00E94EB120E946E
:103E2000F8026093A8027093A9028093AA0290936B
:103E3000AB0285E090E00E94CC11CE0101967C019E
:103E400022242394312C82E0C82EDD24D3940E94B6
:103E5000F8022B013C0181EE95E00E9464111816D6
:103E600019060CF0D5C281EE95E00E947A11B82EA9
:103E700080919D0690919E06A0919F06B091A0060C
:103E80000196A11DB11D80939D0690939E06A0935F
:103E90009F06B093A00694E2B91609F498C2E09187
:103EA00097069B150CF4CEC0FAE0BF1621F00DE08A
:103EB000802EB81099C2EF3008F044C1F0E0EA5704
:103EC000F94F108280918506882309F449C1209119
:103ED0008606822F022E000C990B3FEB320F3630F4
:103EE00008F0BFC0C7978295807F90918706292FE1
:103EF000092E000C330B4FEB490F463008F0B9C0C8
:103F000027533109820F90918406891308C180914B
:103F1000A9069091AA06A091AB06B091AC060196B5
:103F2000A11DB11D8093A9069093AA06A093AB068C
:103F3000B093AC0680919806882399F08091A106F1
:103F40009091A206A091A306B091A4060196A11D8E
:103F5000B11D8093A1069093A206A093A306B093EF
:103F6000A40610919506112309F48CC01130A1F517
:103F700082E296E00E94B51180E396E00E94B511BE
:103F800080919806882341F187E0E0E1F6E0A2E025
:103F9000B6E001900D928A95E1F787E0E7E1F6E05F
:103FA000A9E0B6E001900D928A95E1F70E94F8022F
:103FB00060931E0670931F0680932006909321063F
:103FC00010930106109300068EE396E00E949E1166
:103FD0008CE496E00E949E1100919B0610919C0635
:103FE0000115110509F4AEC0E0919B06F0919C0605
:103FF00066A177A1F80186A197A10E94B32E892B13
:1040000009F0A0C0B801C80140960E94BC2E0E94D1
:10401000F802F80160A371A382A393A38824839478
:1040200085A284A202A513A5DBCF9E3040F42850C0
:10403000310981E001C0880F2A95EAF7A9CE2E50F8
:104040003109F7CF1AE2912EB91409F434CFBCE24A
:10405000AB2EBA10C9C1809184068B25809384064B
:104060002ACF2156263018F4875591093CCFC097A6
:104070003ACF9156963018F42755310943CF205343
:10408000310940CF80E396E00E94B51180919806F7
:10409000882321F187E0E0E1F6E0A2E0B6E00190BC
:1040A0000D928A95E1F787E0E7E1F6E0A9E0B6E056
:1040B00001900D928A95E1F70E94F80260931E0626
:1040C00070931F068093200690932106D0920106DC
:1040D000D09200068AE596E00E949E1180917206B9
:1040E00090917306A0917406B091750680936E0648
:1040F00090936F06A0937006B09371060E94F80229
:1041000060936A0670936B0680936C0690936D06BD
:10411000D0926906D092680686E796E05BCF8091E0
:10412000A5069091A606A091A706B091A8060196B3
:10413000A11DB11D8093A5069093A606A093A70686
:10414000B093A806809196068F5F80939606109292
:10415000970681E0FAE2BF1280E0809385067BCE6D
:1041600090919606911144C06AEE71E086E896E05F
:104170000E94B32E892B41F060EF71E086E896E053
:104180000E94B32E892BF1F4D09295068091990666
:1041900090919A0690939C0680939B0600919B06B3
:1041A00010919C060115110569F266E876E0F801A8
:1041B00086A197A10E94B32E97FFDCC5F80182A5C6
:1041C00093A5E8CF66EF71E086E896E00E94B32EF3
:1041D000892B41F06CEF71E086E896E00E94B32EE7
:1041E000892B19F410929506D1CFC0929506CECFA7
:1041F000E0919506E23009F448C080918606882354
:1042000009F443C020E2E29FF0011124E92B319729
:10421000E932F10508F039C0E05FFE4D0C94992CAD
:1042200039217A21812188218B21B921C021CD21F9
:10423000DA214521452145214521452145214521B9
:10424000452145214521452145214521452145213E
:10425000452145214521452145214521452145212E
:10426000392174217A21812188218B2192219F215A
:10427000AC2186E896E00E94A41460933606709301
:104280003706809338069093390600919B0610916B
:104290009C06A09096060115110509F453CFE091F4
:1042A0009B06F0919C0666A177A1F80186A197A1D3
:1042B0000E94B32E892B09F045CFF80120A531A526
:1042C0008A2D90E0821793070CF43CCF281739070A
:1042D00039F440E150E066E876E0C8010E94C32E60
:1042E000F80102A513A5D5CF91E0813409F445C0AA
:1042F00090E043C060E176E086E896E00E941D14FD
:10430000C4CF91E0833509F090E090931606BDCFBD
:1043100067E176E0F1CF91E0873509F090E0909386
:104320001D06B3CF86E896E00E94A4146093480669
:104330007093490680934A0690934B06A6CF86E871
:1043400096E00E94A41460935606709357068093DB
:1043500058069093590699CF86E896E00E94FC266D
:10436000609328067093290680932A0690932B0663
:104370008CCF91E081330CF4BBCF9093980685CF1E
:1043800086E896E00E94FC2660937206709373069E
:10439000809374069093750678CF86E896E00E9425
:1043A000A414609380067093810680938206909394
:1043B00083066BCF86E896E00E94A414609364069F
:1043C0007093650680936606909367065ECF1092A1
:1043D00097061092960610928406C0929506109247
:1043E00085061092980637CDEE3040F481E08E0FAE
:1043F00080939706F0E0EA57F94FB08280918506E6
:10440000811129CD80918406B826B092840623CDEF
:104410000E94F80200916B0210916C0220916D02D3
:1044200030916E02601B710B820B930B683E7340E0
:104430008105910508F444C080907C0290907D0233
:10444000A0907E02B0907F02609166027091670238
:10445000809168029091690220916A022111CEC375
:1044600020E030E040E251E40E943C2B9B01AC0193
:10447000C501B4010E94492C181684F4D0926A0236
:104480000E94F8023092AD022092AC028FEF92E0CF
:104490000E94EB128AE090E00E94CC1180926602AA
:1044A00090926702A0926802B09269020E94F8029C
:1044B00060936B0270936C0280936D0290936E0216
:1044C0000091AC021091AD0284E690E0A0E0B0E073
:1044D0000130110559F088EE93E0A0E0B0E001153D
:1044E000110521F088E893E1A0E0B0E04091A80236
:1044F0005091A9026091AA027091AB02530142014E
:10450000841A950AA60AB70AB501A40148175907E3
:104510006A077B0708F45FC30E94F8026093700289
:104520007093710280937202909373021093A702AA
:104530000093A6028091C5059091C6050E94451082
:1045400040E06CEC8091C5059091C6050E94F20F89
:104550004091BC0564E48091C5059091C6050E9418
:10456000F20F0E94F8024B015C018091C005882384
:10457000E1F08091C105882309F45BC38091BC05FB
:10458000811157C38091C5059091C6050E949F0F68
:10459000813059F00E94F802681979098A099B094B
:1045A0006E3E72408105910568F38091C3058823B2
:1045B00009F47FC0E091C505F091C6051386158604
:1045C000148612861186108617821682158214822E
:1045D0001382BE01625F7F4F8091C5059091C60531
:1045E0000E94F011882309F464C067E0CE010E96A2
:1045F0000E94880F9D8989135CC0B701CE010E9679
:104600000E947D10882309F454C09A81812C912C3A
:10461000540197FF06C0812C912CF8EFAF2EBB24DC
:10462000BA944E8509814B3309F02CC38D8187FFE5
:1046300029C300FD3EC010E030E020E073E0000F31
:10464000111F221F331F7A95D1F7007E1770222782
:104650003327892F90E0B0E0A0E0EBE0880F991FAE
:10466000AA1FBB1FEA95D1F7802B912BA22BB32B4E
:104670008C019D01082919292A293B290138F4EECA
:104680001F07FFEF2F073F07A4F0C901B8010E94E1
:10469000CD2920E030E040E05CE30E942C2A4B0171
:1046A0005C0120E030E04EEF52EC0E94C6298111FF
:1046B0000BC080E193E00E94EB12812C80EC982EDD
:1046C00089E7A82E84ECB82E80927402909275022D
:1046D000A0927602B092770280910006882309F4B6
:1046E00017C310920106609104067091050680912F
:1046F0000606909107060E94CB2928E23BE64EE68B
:104700005EE40E94A82B4B015C016091020670914F
:10471000030690E080E00E94CB299B01AC01C5011B
:10472000B4010E943C2B20910806211190586093FF
:104730008002709381028093820290938302609141
:104740000B0670910C0680910D0690910E060E944A
:10475000CB2928E23BE64EE65EE40E94A82B4B0103
:104760005C016091090670910A0690E080E00E9469
:10477000CB299B01AC01C501B4010E943C2B2091C7
:104780000F062111905860938402709385028093E4
:1047900086029093870280915A06882309F4C9C241
:1047A00010925B06609160067091610680916206CE
:1047B000909163060E94CD2920E030E048EC52E45D
:1047C0000E94A82B609388027093890280938A02CA
:1047D00090938B021092690680916E0690916F06FD
:1047E00090938D0280938C0210927802109279023D
:1047F00010927A0210927B0210927C0210927D023B
:1048000010927E0210927F0210928E0210928F02FE
:1048100010929002109291021092920210929302C2
:1048200010929402109295021092960210929702A2
:10483000109298021092990210929A0210929B0282
:1048400010929C0210929D0210929E0210929F0262
:104850001092A0021092A1021092A2021092A30242
:104860001092A4021092A50280916F02882309F48D
:1048700047C164E571E0CE010E960E9498156091E3
:1048800070027091710280917202909173022AE01D
:10489000A7010E944327F70101900020E9F7319713
:1048A000AF014E195F09B701CE010E960E941F1588
:1048B00062E072E0CE010E960E947C154091740277
:1048C000509175026091760270917702CE010E963A
:1048D0000E944B1562E072E0CE010E960E947C159C
:1048E000409178025091790260917A0270917B0236
:1048F000CE010E960E944B1562E072E0CE010E963C
:104900000E947C1540917C0250917D0260917E0254
:1049100070917F02CE010E960E944B1562E072E00C
:10492000CE010E960E947C1540918002509181022A
:104930006091820270918302C7010E94C9154D8166
:104940005E8169817A81CE010E960E941F15C70192
:104950000E94161662E072E0CE010E960E947C154F
:104960004091840250918502609186027091870285
:10497000C7010E94C9154D815E8169817A81CE018E
:104980000E960E941F15C7010E94161662E072E083
:10499000CE010E960E947C154091880250918902AA
:1049A00060918A0270918B02CE010E960E944B1587
:1049B00062E072E0CE010E960E947C154AE0B701DB
:1049C00080918C0290918D020E942327F701019023
:1049D0000020E9F73197AF014E195F09B701CE0109
:1049E0000E960E941F1562E072E0CE010E960E94A4
:1049F0007C1540918E0250918F02609190027091CF
:104A00009102CE010E960E944B1562E072E0CE013B
:104A10000E960E947C1540919202509193026091F3
:104A2000940270919502CE010E960E944B1562E0A1
:104A300072E0CE010E960E947C1540919602509134
:104A400097026091980270919902CE010E960E9491
:104A50004B1562E072E0CE010E960E947C154091EB
:104A60009A0250919B0260919C0270919D02CE012E
:104A70000E960E944B1562E072E0CE010E960E94E7
:104A80007C1540919E0250919F026091A00270910E
:104A9000A102CE010E960E944B1562E072E0CE019B
:104AA0000E960E947C154091A2025091A302609143
:104AB000A4027091A502CE010E960E944B1562E0F1
:104AC00072E0CE010E960E947C158091A602909114
:104AD000A7028130910509F43CC108F433C1029763
:104AE00009F43AC1CE010E960E94FF17811104C04D
:104AF0008BE293E00E94EB12CE010E960E941616F6
:104B00008FE893E00E94F103609174027091750246
:104B1000809176029091770242E00E94411384E8EE
:104B200093E00E94F10360917C0270917D0280917C
:104B30007E0290917F0242E00E9441138BE793E056
:104B40000E94F10380908C0290908D02092C000C41
:104B5000AA08BB084AE0C501B401B7FE0DC06DE26A
:104B600089EB94E00E94A40366277727CB0168199C
:104B700079098A099B094AE00E94FB128CE693E0BE
:104B80000E94F1038091A6029091A70281309105C5
:104B900009F4EAC008F4E3C0029709F4E8C062E54A
:104BA00071E089EB94E00E94DC124092A8025092DE
:104BB000A9026092AA027092AB0261E08DE00E94AD
:104BC000230262E370E080E090E00E94C50260E0B2
:104BD0008DE00E9423026AE070E080E090E00E9495
:104BE000C50280E090E0892B09F431C90E946E0370
:104BF000882309F428C90E94000025C920E030E07C
:104C000040EA50E40E943B2B9B01AC01C501B4017A
:104C10000E94C62987FF42CC42E050E05093AD028B
:104C20004093AC028EEE92E00E94EB128FE090E097
:104C300033CCE091BF05E9508EEE92E0E33038F4DA
:104C4000F0E0EE0FFF1FE65FFE4F808191814C0187
:104C5000B12CA12C8091BD05882329F060E08091C2
:104C6000BE050E942302C501B4010E94C5028091C5
:104C7000BD05882309F499CC61E08091BE050E94AE
:104C8000230293CC892F90E0982F8827990F990FB2
:104C9000990F58E0059F80011124082B192B012E34
:104CA000000C220B330B082919292A293B294031F2
:104CB00009F0E4CC6885662309F4E0CC70E08F81CC
:104CC000FB01E81BF109CF019695982F882797954E
:104CD00087950E94632CCB01770FAA0BBB0B53E087
:104CE000000F111F221F331F5A95D1F7007827702C
:104CF00033270052110921093109800F911FA21F8A
:104D0000B31F95018401082B192B2A2B3B2BB6CC02
:104D100010928002109281021092820210928302FD
:104D200010928402109285021092860210928702DD
:104D300032CD109288021092890210928A0210924B
:104D40008B0248CD64E072E0CE010E960E947C1585
:104D5000C9CE67E072E0F8CF6EE072E0F5CF82E690
:104D600093E00E94F1031BCF8BE593E0FACF80E53F
:104D700093E0F7CF892B09F4E5C910929C061092B5
:104D80009B06E0C984E491E09093E2058093E105FD
:104D90008091640290916502815E954071F4E0918A
:104DA000F405F091F50590818091F60580958923B1
:104DB000808310926502109264020895EF920F931F
:104DC0001F93CF93DF93E80134E047FD34E1042ED5
:104DD000000C550B57FF03C0519541955109E32E27
:104DE000022F242FAE010E947F27CE01DF91CF91A9
:104DF0001F910F91EF9008951F93FC019927882729
:104E0000BC01E89411911032E9F3193010F01E3012
:104E1000C8F31B3251F01D3249F4689406C00E9459
:104E20002E27610F711D811D911D119110531A3094
:104E3000B0F33EF490958095709561957F4F8F4FBC
:104E40009F4F1F910895BB274A3031F4992322F4D4
:104E5000BDE2909581959F4F0C946627592F482F5E
:104E6000372F262F660F771F881F991F660F771F12
:104E7000881F991F620F731F841F951F660F771F6E
:104E8000881F991F0895BB27FA01A62F6217710585
:104E900081059105330B30FB66F0AA27660F771F5B
:104EA000881F991FAA1FA21710F0A21B63953850E4
:104EB000A9F7A05DAA3308F0A95DA19336F7B11157
:104EC000B1931082CA010C94B629BB27FB01552768
:104ED000AA27880F991FAA1FA41710F0A41B839557
:104EE0005051B9F7A05DAA3308F0A95DA1930097CE
:104EF00079F7B111B1931192CB010C94B629A9E0C5
:104F0000B0E0E5E8F7E20C94FB2A6A01F22EB02E3D
:104F1000102FFBE3AF2EA01608F41BE31F5F012F39
:104F200027E0AE014F5F5F4F0E94DE28BC01898100
:104F3000982F9970913009F43FC09BE2E1FC04C0C6
:104F40009E2D9170E0FC3AC05E2D5071E82FE87004
:104F500083FF46C084E0911101C083E0EF2DE81B80
:104F60008F1508F0E0E0D6018E2F20E2552351F195
:104F7000992329F0D6019C93C60101966C019601F4
:104F80002D5F3F4FE2FE24C08EE4D6018C9391E466
:104F900011969C93119712968C93D9018E2F90E2C3
:104FA00081111BC0E20FF32FF11D10828EEF9FEFD6
:104FB0002996ECE00C94172B9DE2C6CF90E2C4CF6B
:104FC0002D9381508111FCCFCE0ED11CE0E0D0CFCB
:104FD0008EE6D6018C9391E6DBCF9D938150E0CF96
:104FE000482F447082FF3DC084E0911101C083E0EE
:104FF0008F1510F4EF2DE81BD6018E2F20E25523DC
:1050000009F1992329F0D6019C93C60101966C0100
:1050100096012D5F3F4FE2FE1BC089E4D6018C93C1
:105020008EE411968C93119786E412968C93D90195
:105030008E2F90E2882309F4B5CF9D938150FACF4B
:105040002D9381508111FCCFCE0ED11CE0E0D9CF41
:1050500089E6D6018C938EE611968C93119786E69D
:10506000E4CF9B0177FF02C030E020E0A1E0B0E098
:10507000911102C0B0E0A0E0F9013196AE0FBF1F60
:105080008B2C912CBB2009F461C05401EFEFAE1AB8
:10509000BE0AAA0DBB1DFA161B0619F014F04F2DFF
:1050A0004A1B511188C0E3FC59C07601A42FB0E21D
:1050B000A1114FC0C40ED11C992309F45BC040E07C
:1050C000D6011196F60190836D01552309F448C06D
:1050D000012F060F9A81582F507184FF03C091331E
:1050E00009F4015010160CF047C0093008F008E030
:1050F000EEE2FE2E5B01A01AB10885019194819425
:1051000091082F3F320729F4D601FC92F60131961F
:105110006F016217730794F1021713077CF5DB0127
:10512000A21BB30BAA24A394B12CAC0EBD1EAA0DD6
:10513000BB1D11968C9121503109D601119628156D
:105140003905F4F0F60180836D01DBCFB12CA12C81
:10515000A0CFF701B1937F01A150AACF9111B0CF99
:10516000D601942F50E302C05D9391509111FCCF72
:10517000C40ED11C40E0ACCF01E0BACF80E3DBCF5E
:105180006217730731F4963388F4953311F455237D
:1051900069F0F6018083FD01842F90E2811108C03F
:1051A000A40FB11D1C9290E080E002CF81E3F1CF0B
:1051B00091938150F3CF911183CF8ACF283008F09B
:1051C00027E03327DA01990F311D87FD91600096A2
:1051D0006105710539F432602E5F3D9330E32A9505
:1051E000E1F708959F3F30F080387105610509F0BF
:1051F0003C5F3C5F3D93913008F08068911DDF93E8
:10520000CF931F930F93FF92EF92192F987F96954C
:10521000E92F96959695E90FFF27EE53FF4F9927B3
:105220003327EE24FF24A701E70105900894079493
:1052300028F4360FE71EF81E491F511D660F771F11
:10524000881F991F0694A1F70590079428F4E70E8C
:10525000F81E491F561FC11D770F881F991F661F13
:105260000694A1F70590079428F4F80E491F561FDD
:10527000C71FD11D880F991F661F771F0694A1F7BE
:105280000590079420F4490F561FC71FD81F990F88
:10529000661F771F881F0694A9F7849110951770D1
:1052A00041F0D695C79557954795F794E7941A9589
:1052B000C1F7E8E6F0E06894159015913591659195
:1052C000959105907FE27395E118F10A430B560B17
:1052D000C90BD009C0F7E10CF11E431F561FC91FAF
:1052E000D01D7EF4703311F48A95E6CFE894015016
:1052F00030F0080F0AF40027021708F4202F239536
:10530000022F7A3328F079E37D932A95E9F710C0CC
:105310007D932A9589F60694979567953795179505
:105320001794E118F10A430B560BC90BD00998F0FA
:1053300023957E9173957A3308F070E37C93201364
:10534000B8F77E9170617D9330F0839571E37D9322
:1053500070E32A95E1F71124EF90FF900F911F91D0
:10536000CF91DF91992787FD90950895DC01FC018D
:10537000672F71917723E1F7329704C07C916D9389
:1053800070836291AE17BF07C8F308950E94082A80
:1053900008F481E00895E89409C097FB3EF49095E5
:1053A0008095709561957F4F8F4F9F4F9923A9F0FE
:1053B000F92F96E9BB279395F6958795779567958D
:1053C000B795F111F8CFFAF4BB0F11F460FF1BC0D1
:1053D0006F5F7F4F8F4F9F4F16C0882311F096E964
:1053E00011C0772321F09EE8872F762F05C0662312
:1053F00071F096E8862F70E060E02AF09A95660FCB
:10540000771F881FDAF7880F9695879597F9089583
:10541000990F0008550FAA0BE0E8FEEF16161706C5
:10542000E807F907C0F012161306E407F50798F02D
:10543000621B730B840B950B39F40A2661F0232B46
:10544000242B252B21F408950A2609F4A140A695C2
:105450008FEF811D811D08950E943F2A0C94B02A70
:105460000E94A22A38F00E94A92A20F0952311F068
:105470000C94992A0C949F2A11240C94E42A0E94DB
:10548000C12A70F3959FC1F3950F50E0551F629F9D
:10549000F001729FBB27F00DB11D639FAA27F00D8D
:1054A000B11DAA1F649F6627B00DA11D661F829FB4
:1054B0002227B00DA11D621F739FB00DA11D621F99
:1054C000839FA00D611D221F749F3327A00D611DB6
:1054D000231F849F600D211D822F762F6A2F112498
:1054E0009F5750409AF0F1F088234AF0EE0FFF1FCB
:1054F000BB1F661F771F881F91505040A9F79E3F22
:10550000510580F00C94992A0C94E42A5F3FE4F34F
:10551000983ED4F3869577956795B795F795E79577
:105520009F5FC1F7FE2B880F911D9695879597F980
:10553000089597F99F6780E870E060E008959FEF15
:1055400080EC089500240A9416161706180609061A
:10555000089500240A9412161306140605060895E9
:10556000092E0394000C11F4882352F0BB0F40F471
:10557000BF2B11F460FF04C06F5F7F4F8F4F9F4FB1
:10558000089557FD9058440F551F59F05F3F71F033
:105590004795880F97FB991F61F09F3F79F087959A
:1055A0000895121613061406551FF2CF4695F1DF23
:1055B00008C0161617061806991FF1CF86957105B3
:1055C000610508940895E894BB2766277727CB01E7
:1055D00097F908950E942C2BA59F900DB49F900DD4
:1055E000A49F800D911D112408952F923F924F92F8
:1055F0005F926F927F928F929F92AF92BF92CF9263
:10560000DF92EF92FF920F931F93CF93DF93CDB76B
:10561000DEB7CA1BDB0B0FB6F894DEBF0FBECDBFE3
:1056200009942A88398848885F846E847D848C84B4
:105630009B84AA84B984C884DF80EE80FD800C81BD
:105640001B81AA81B981CE0FD11D0FB6F894DEBFA0
:105650000FBECDBFED010895A29FB001B39FC00161
:10566000A39F700D811D1124911DB29F700D811D8E
:105670001124911D08955058BB27AA270E94532B2F
:105680000C94B02A0E94A22A38F00E94A92A20F085
:1056900039F49F3F19F426F40C949F2A0EF4E095F8
:1056A000E7FB0C94992AE92F0E94C12A58F3BA17F4
:1056B000620773078407950720F079F4A6F50C9428
:1056C000E32A0EF4E0950B2EBA2FA02D0B01B901A1
:1056D00090010C01CA01A0011124FF27591B99F068
:1056E000593F50F4503E68F11A16F040A22F232F74
:1056F000342F4427585FF3CF469537952795A795C4
:10570000F0405395C9F77EF41F16BA0B620B730B6A
:10571000840BBAF09150A1F0FF0FBB1F661F771FDB
:10572000881FC2F70EC0BA0F621F731F841F48F490
:10573000879577956795B795F7959E3F08F0B0CF19
:105740009395880F08F09927EE0F97958795089500
:105750000E94BC2B0C94B02A0E94A92A58F00E94E7
:10576000A22A40F029F45F3F29F00C94992A5111A4
:105770000C94E42A0C949F2A0E94C12A68F399236E
:10578000B1F3552391F3951B550BBB27AA2762173D
:105790007307840738F09F5F5F4F220F331F441F4A
:1057A000AA1FA9F335D00E2E3AF0E0E832D091507E
:1057B0005040E695001CCAF72BD0FE2F29D0660F6B
:1057C000771F881FBB1F261737074807AB07B0E8AE
:1057D00009F0BB0B802DBF01FF2793585F4F3AF0B4
:1057E0009E3F510578F00C94992A0C94E42A5F3F6F
:1057F000E4F3983ED4F3869577956795B795F7953A
:105800009F5FC9F7880F911D9695879597F9089521
:10581000E1E0660F771F881FBB1F621773078407BD
:10582000BA0720F0621B730B840BBA0BEE1F88F7CC
:10583000E09508950E94C92A88F09F5798F0B92FE3
:105840009927B751B0F0E1F0660F771F881F991FB5
:105850001AF0BA95C9F714C0B13091F00E94E32A4A
:10586000B1E008950C94E32A672F782F8827B85F5A
:1058700039F0B93FCCF3869577956795B395D9F70D
:105880003EF490958095709561957F4F8F4F9F4F17
:1058900008950E94082A08F48FEF08950E94082AAC
:1058A000880B990B0895DB018F939F930E94EA2A3E
:1058B000BF91AF91A29F800D911DA39F900DB29FAC
:1058C000900D1124089597FB072E16F4009407D02D
:1058D00077FD09D00E94A72C07FC05D03EF49095D7
:1058E00081959F4F0895709561957F4F0895A1E22E
:1058F0001A2EAA1BBB1BFD010DC0AA1FBB1FEE1F4A
:10590000FF1FA217B307E407F50720F0A21BB30B94
:10591000E40BF50B661F771F881F991F1A9469F710
:1059200060957095809590959B01AC01BD01CF016C
:105930000895EE0FFF1F0590F491E02D0994B7FF35
:105940000C94EA2A0E94EA2A821B930B0895AA1B50
:10595000BB1B51E107C0AA1FBB1FA617B70710F05A
:10596000A61BB70B881F991F5A95A9F7809590958C
:10597000BC01CD0108950F931F93CF93DF93823025
:10598000910510F482E090E0E091AF06F091B0064E
:1059900030E020E0B0E0A0E0309799F42115310527
:1059A00009F44AC0281B390B24303105D8F58A8107
:1059B0009B816115710589F1FB0193838283FE014F
:1059C00011C0408151810281138148175907E0F0CD
:1059D0004817590799F4109761F012960C93129793
:1059E00013961C933296CF01DF91CF911F910F91A7
:1059F00008950093AF061093B006F4CF211531053A
:105A000051F04217530738F0A901DB019A01BD019B
:105A1000DF01F801C1CFEF01F9CF9093B006809379
:105A2000AF06CDCFFE01E20FF31F81939193225079
:105A3000310939832883D7CF2091AD063091AE0646
:105A4000232B41F420910601309107013093AE06DB
:105A50002093AD06209104013091050121153105F7
:105A600041F42DB73EB74091080150910901241B24
:105A7000350BE091AD06F091AE06E217F307A0F406
:105A80002E1B3F0B2817390778F0AC014E5F5F4F94
:105A90002417350748F04E0F5F1F5093AE06409312
:105AA000AD06819391939FCFF0E0E0E09CCFCF9340
:105AB000DF930097E9F0FC01329713821282A091E4
:105AC000AF06B091B006ED0130E020E01097A1F4F0
:105AD00020813181820F931F2091AD063091AE0657
