:100000000C9499030C94C1030C94C1030C94C10388
:100010000C94C1030C94C1030C94C1030C94DE2214
:100020000C94C1030C94C1030C94C1030C94C10340
:100030000C94C1030C94C1030C94C1030C94C10330
:100040000C9494220C94C1030C9460230C943A23D6
:100050000C94C1030C94C1030C94C1030C94C10310
:100060000C9492230C94C10307634236B79BD8A724
:100070001A39685618AEBAAB558C1D3CB7CC5763CD
:10008000BD6DEDFD753EF6177231BF000000803F7B
:1000900008000000BE922449123EABAAAA2ABECD97
:1000A000CCCC4C3E00000080BEABAAAAAA3E000009
:1000B0000000BF000000803F000000000008417801
:1000C000D3BB4387D1133D190E3CC3BD4282AD2B38
:1000D0003E68EC8276BED98FE1A93E4C80EFFFBE30
:1000E00001C4FF7F3F0000000000202045787065BC
:1000F0006374656420372062797465732C20676FA0
:10010000743A2000202028313D6461746120746FAE
:100110006F206C6F6E672C20323D4E41434B206F39
:100120006E20616464722C20333D4E41434B206F3E
:100130006E20646174612C20343D6F74686572298F
:10014000002020493243204572726F7220436F6451
:10015000653A20002C2C002C002C0030003A003096
:10016000003A003000200030002D0030002D007CCF
:100170003C3E5E2B3D3F2F5B5D3B2C2A225C0020EA
:1001800020474E44202D3E20474E44002020564319
:1001900043202D3E20332E3356206F7220355600DB
:1001A000202053434C202D3E204135002020534435
:1001B00041202D3E20413400436865636B20776900
:1001C00072696E673A00E29C97204661696C6564CB
:1001D00020746F20696E697469616C697A65204268
:1001E0004D50323830207669612049324321004336
:1001F0006F6E66696775726174696F6E20636F6D8B
:10020000706C6574652E00E29C9320424D5032382C
:100210003020696E697469616C697A6564207375F0
:10022000636365737366756C6C792100496E6974DC
:1002300069616C697A696E6720424D5032383020AE
:1002400028493243206D6F6465292E2E2E005344B9
:100250003A20496E697469616C697A6174696F6E7C
:10026000207375636365737366756C0053443A203D
:10027000496E697469616C697A6174696F6E206630
:1002800061696C65640053443A20496E6974696120
:100290006C697A696E6720776974682043532070AF
:1002A000696E20000A4C3D53746172742C20533DDA
:1002B00053746F702C20443D44656C657465005325
:1002C00044206661696C656400526561647900462A
:1002D00041494C4544004F4B003D3D3D3D3D3D3D7A
:1002E0003D3D3D3D3D3D3D3D3D004641494C454444
:1002F000004F4B00534420436172643A2000464152
:10030000494C4544004F4B004261726F6D65746506
:10031000723A20005254433A20000A3D3D3D20539A
:100320005441545553203D3D3D00E29C932053449D
:100330002063617264204F4B00E29AA02053442056
:1003400063617264206661696C656400E29C93205D
:100350004261726F6D65746572204F4B00E29AA026
:10036000204261726F6D65746572206661696C65AB
:1003700064004552524F523A2043616E6E6F7420B2
:1003800072656164205254432074696D6521004593
:1003900052524F523A205254432074696D65206E78
:1003A0006F74207365742120557365205254432067
:1003B000736574746572207574696C6974792E0044
:1003C0003A003A0020002D002D0052544320746959
:1003D0006D653A2000E29C9320525443204F4B001D
:1003E000E29AA020525443206661696C656400E281
:1003F0009C9320535049204F4B00E29C9320427520
:100400007A7A6572204F4B00E29C93204275747497
:100410006F6E204F4B0055534C49205061796C6FE3
:1004200061640053443A20577269746520657272A2
:100430006F72206465746563746564002C002C0021
:100440002C0030003A0030003A003000200030002C
:100450002D0030002D0053443A2046696C65206E13
:100460006F74206F70656E0002000000002300268C
:100470000029004C6F6767696E672073746F707036
:100480006564004C6F6767696E672073746172748E
:10049000656400427574746F6E2070726573736565
:1004A000640050726573732027482720666F72209E
:1004B00068656C7000556E6B6E6F776E20636F6D44
:1004C0006D616E643A20004C3D53746172742C204F
:1004D000533D53746F702C20443D44656C657465C6
:1004E0000046696C65206E6F7420666F756E6420BF
:1004F0006F722064656C657465206661696C656403
:100500000046696C652064656C65746564004465CB
:100510006C6574696E6720646174612E6373762EF6
:100520002E2E0053746F7070696E67206C6F676752
:10053000696E672E2E2E004E6F7420637572726581
:100540006E746C79206C6F6767696E67004C6F67BB
:1005500067696E672073746F707065640053746FA1
:100560007070696E67206C6F6767696E672E2E2EDC
:10057000004C6F6767696E6720737461727465649D
:10058000005374617274696E67206C6F6767696E7F
:10059000672E2E2E00416C7265616479206C6F6746
:1005A00067696E6720746F3A200053442077726940
:1005B0007465206661696C6564004E4F2D4241523E
:1005C0004F002A2A2A204C414E44494E4720444598
:1005D00054454354454421202A2A2A002A2A2A2005
:1005E00054414B454F4646204445544543544544A9
:1005F00021202A2A2A006D006850612000C2B043E1
:100600002000200000000000240027002A00000035
:100610000000250028002B00040404040404040442
:10062000020202020202030303030303010204089D
:10063000102040800102040810200102040810204C
:100640000000000800020100000304070000000091
:100650000000000053443A20417070656E64696E7A
:100660006720746F206578697374696E67206669A6
:100670006C650053443A204E65772066696C6520AE
:100680002D2068656164657220616464656400544E
:10069000696D657374616D702C54656D705F432C6A
:1006A00050726573737572655F6850612C416C742C
:1006B00069747564655F6D0053443A2046696C65E2
:1006C000206F70656E656420737563636573736610
:1006D000756C6C790053443A20436865636B2077EE
:1006E0006972696E6720616E642063617264005391
:1006F000443A204661696C656420746F206F7065B0
:100700006E2066696C650053443A204F70656E69CF
:100710006E672066696C65200053443A20416C7214
:1007200065616479206C6F6767696E670000B1244A
:100730004A3011241FBECFEFD8E0DEBFCDBF11E09D
:10074000A0E0B1E0E0E5F5E702C005900D92A83E1B
:10075000B107D9F725E0A8EEB1E001C01D92A23F94
:10076000B207E1F713E0C8E9D3E004C02197FE0126
:100770000E947232C739D107C9F70E944B250C94E9
:100780009B3A0C94000008950895833081F028F47A
:10079000813099F08230A9F008958730A9F088302F
:1007A000C9F08430B1F4809180008F7D03C08091C6
:1007B00080008F7780938000089584B58F7784BD03
:1007C000089584B58F7DFBCF8091B0008F778093A3
:1007D000B00008958091B0008F7DF9CF1F93CF9323
:1007E000DF93282F30E0F901E05CF94F8491F901A3
:1007F000E45DF94FD491F901E85EF94FC491CC233F
:10080000A9F0162F81110E94C503EC2FF0E0EE0F26
:10081000FF1FE25FF94FA591B4918FB7F894EC9167
:10082000111108C0D095DE23DC938FBFDF91CF91EB
:100830001F910895DE2BF8CFCF93DF9390E0FC015A
:10084000E45DF94F2491885E994FFC0184918823DF
:10085000C9F090E0880F991FFC01EC5FF94FA5915A
:10086000B491FC01E25FF94FC591D49161110DC0C3
:100870009FB7F8948C91209582238C9388812823AC
:1008800028839FBFDF91CF910895623051F49FB7C5
:10089000F8943C91822F809583238C93E8812E2BB2
:1008A000EFCF8FB7F894EC912E2B2C938FBFEACF1C
:1008B0008230910538F0880F991F880F991F05978E
:1008C0000197F1F70895BF92CF92DF92EF92FF92D6
:1008D0000F931F93CF93DF93EC0188819981892B2C
:1008E00081F06EBD0DB407FEFDCF0EB5802FDF91F8
:1008F000CF911F910F91FF90EF90DF90CF90BF901D
:1009000008958885998511E0892B09F010E8BB24AA
:10091000B394862F812309F0B12CF62E2C813D81D2
:100920004E815F8160E271EA87E090E00E94A6302C
:10093000E22E00E0C22ED12CEE2019F0C6010E945A
:1009400058048A85982F977F09F044C08D858F3F82
:1009500089F09F2D912381E009F480E08B1551F0FF
:10096000EF85F8898F89992379F19081892B80838C
:10097000BB24B394E989FA898081998D892B80837E
:10098000EE2019F0C6010E9458048E858F3F39F081
:10099000EB89FC898081988D892309F0012BE989F5
:1009A000FA899081898D80958923808388859985AE
:1009B000892B09F067C0110F1111BECF8E858F3FB3
:1009C00009F094CF0F2D92CF908180958923808359
:1009D000B12CD0CF8C3099F58D858F3F49F0EF85C4
:1009E000F8898F899F2D912331F19081892B808304
:1009F000E989FA899081898D809589238083EE2009
:100A000019F0C6010E945804E989FA898081998DFC
:100A1000892B8083EE2019F0C6010E9458048E8530
:100A20008F3F21F2EB89FC898081988D892309F41D
:100A3000BDCF012BBBCF908180958923D8CFE98989
:100A4000FA898081998D892B8083EE2019F0C60167
:100A50000E9458048D858F3F49F0EF85F8898F8972
:100A60009F2D912359F09081892B8083E989FA8900
:100A70009081898D809589238083D1CF90818095C5
:100A80008923F3CF169598CF3FB7F89480917302DE
:100A900090917402A0917502B091760226B5A89B40
:100AA00005C02F3F19F00196A11DB11D3FBFBA2F00
:100AB000A92F982F8827BC01CD01620F711D811DC0
:100AC000911D42E0660F771F881F991F4A95D1F745
:100AD00008958F929F92AF92BF92CF92DF92EF9242
:100AE000FF924B015C010E9444056B017C010E9456
:100AF00044056C197D098E099F09683E7340810584
:100B00009105A8F321E0821A9108A108B10888EEA6
:100B1000C80E83E0D81EE11CF11C81149104A104CD
:100B2000B10429F7FF90EF90DF90CF90BF90AF9086
:100B30009F908F9008952FB7F89460916F027091F5
:100B4000700280917102909172022FBF089590916E
:100B5000040189130BC0E8E6F4E0E4919FEF909361
:100B60000401E13049F028F0E23061F060E00C94DB
:100B7000EE0310926E00FACF90916F009D7F9093DC
:100B80006F00F4CF909170009D7F9093700091E082
:100B90009093B0009091B100987F94609093B100D1
:100BA0001092B300E3CFDC01ED91FC910190F08154
:100BB000E02D0994EF92FF920F931F93CF93DF9351
:100BC0008C017B01D0E0C0E0F701EC0FFD1F6491C8
:100BD000662361F0D801ED91FC910190F081E02D48
:100BE000C8010995892B11F02196EECFCE01DF9136
:100BF000CF911F910F91FF90EF900895AF92BF9208
:100C0000CF92DF92EF92FF920F931F93CF93DF93D8
:100C10006C017B018B01040F151FEB015E01AE1807
:100C2000BF08C017D10759F06991D601ED91FC9129
:100C30000190F081E02DC6010995892B79F7C50156
:100C4000DF91CF911F910F91FF90EF90DF90CF90A8
:100C5000BF90AF900895FC01538D448D252F30E057
:100C6000842F90E0821B930B541710F00F96089579
:100C700001970895FC01918D828D981761F0A28DE6
:100C8000AE0FBF2FB11D5D968C91928D9F5F9F70AF
:100C9000928F90E008958FEF9FEF0895FC01918D62
:100CA000828D981731F0828DE80FF11D858D90E0CF
:100CB00008958FEF9FEF0895FC01918D228D892F6C
:100CC00090E04096821B91098F709927089582E1E8
:100CD00095E00E945C0621E0892B09F420E0822F38
:100CE000089580E090E0892B29F00E946706811129
:100CF0000C9400000895FC01A48DA80FB92FB11D1C
:100D00009D962C91848D90E001968F709927848F09
:100D1000A689B7892C93A089B1898C91837080644E
:100D20008C93938D848D981306C00288F389E02DEF
:100D300080818F7D80830895EF92FF920F931F93A0
:100D4000CF93DF93EC0181E0888F9B8D8C8D98137E
:100D50001AC0E889F989808185FF15C09FB7F8948A
:100D6000EE89FF896083E889F989808183708064D6
:100D700080839FBF81E090E0DF91CF911F910F9121
:100D8000FF90EF900895F62E0B8D10E00F5F1F4F30
:100D90000F701127E02E8C8D8E110CC00FB607FC42
:100DA000FACFE889F989808185FFF5CFCE010E94CD
:100DB0007B06F1CFEB8DEC0FFD2FF11DF5A69FB754
:100DC000F8940B8FEA89FB8980818062D1CFCF9321
:100DD000DF93EC01888D8823B9F0AA89BB89E88963
:100DE000F9898C9185FD03C0808186FD0DC00FB609
:100DF00007FCF7CF8C9185FFF2CF808185FFEDCF87
:100E0000CE010E947B06E9CFDF91CF91089508952E
:100E1000FC0183858F3F19F061E00C94EE03089587
:100E200061E0FC0184810E94EE0380912D0281111A
:100E300010922D0208958EBD00000DB407FEFDCF67
:100E40008EB508958FEF0C941B070F931F93CF93CC
:100E5000DF93EC010E949B058B010E9422078F3FCC
:100E600069F00E949B05601B710B6C177D07A8F34E
:100E700080E0DF91CF911F910F91089581E0F9CF2C
:100E80008CBD9DBD0895CF93DF93EC01888199813E
:100E9000892B31F0EA81FB81808191810E9440079A
:100EA0008B858F3F29F060E0DF91CF910C94EE03AA
:100EB000DF91CF910895CF92DF92EF92FF920F933F
:100EC0001F93CF93DF938C01EB016A0179010E949C
:100ED00043076881C8010E946304E601EC0CFD1C15
:100EE0006FEFC8010E9463048993CE15DF05C1F737
:100EF000C8010E94080781E0DF91CF911F910F91F7
:100F0000FF90EF90DF90CF900895CF93DF93EC01A7
:100F100080912D02811109C081E080932D02809182
:100F20004F05909150050E94400760E08C81DF9151
:100F3000CF910C94EE038F929F92AF92BF92FF924B
:100F40000F931F93CF93DF93EC01F62E49015A01C3
:100F50008E81882389F08F8198859C012F5F3F4F78
:100F600038872F838230924018F40E942207F3CFF3
:100F7000CE010E9410071E82CE010E9485078CE2DE
:100F800091E00E9425078F2D80640E941B0708E1D5
:100F900010E0D501C401002E04C0B695A795979521
:100FA00087950A94D2F70E941B0708501109083F41
:100FB0008FEF180771F785E9FF2021F028E087E817
:100FC000F2128FEF0E941B0710E00E9422078A870F
:100FD00087FF04C01F3F11F01F5FF7CFDF91CF9154
:100FE0001F910F91FF90BF90AF909F908F900895A9
:100FF000AF92BF92CF92DF92EF92FF920F931F9327
:10100000CF93DF93EC016901C801820F931F8130F8
:10101000924050F58E81882379F088819981AA8148
:10102000BB8184179507A607B70731F48F81988590
:10103000C816D90608F042C0488359836A837B8367
:101040008B85833039F089E0440F551F661F771F69
:101050008A95D1F79A01AB0161E1CE010E949B070D
:10106000882389F083E08D83CE010E94100780E001
:10107000DF91CF911F910F91FF90EF90DF90CF9074
:10108000BF90AF9008950E949B055B010E942207CC
:101090008A878F3F69F40E949B056A197B096D322C
:1010A0007140A0F38FE08D83CE010E941007DCCF4A
:1010B0008E3F89F418861F8281E08E838F81988508
:1010C0008C159D0550F40E9422078F81988501960A
:1010D00098878F83F3CF8DE0E6CF6701E00EF11E96
:1010E0000E942207F60181936F01EE15FF05C1F7FB
:1010F0008F819885080F191F18870F83898588238A
:1011000019F001151240A0F08E81882389F08F819B
:1011100098859C012F5F3F4F38872F838230924004
:1011200018F40E942207F3CFCE010E9410071E82FE
:1011300081E09ECFCF92DF92EF92FF920F93CF93F9
:10114000DF93EC01690182E14115510561057105EB
:1011500099F08B85833039F089E0440F551F661F65
:10116000771F8A95D1F79A01AB0168E1CE010E9401
:101170009B07882319F084E08D832DC08EEF0E9499
:101180001B0776018EEFD81AF70181917F010E942B
:101190001B07EC14FD04C1F78FEF0E941B078FEFB4
:1011A0000E941B070E9422078A878F71853071F485
:1011B000011116C0CE010E94100781E0DF91CF918E
:1011C0000F91FF90EF90DF90CF90089581E18D8394
:1011D000CE010E941007CE010E94100780E0EECFE2
:1011E00088E592E00E942507811102C085E1C4CF05
:1011F00020E030E0A9016DE0CE010E949B0788232A
:1012000011F084E1B9CF0E9422078111FACFD2CF29
:101210000F9340912F0250913002609131027091F2
:101220003202411551056105710599F0082F2CE92D
:1012300032E080917702909178020E949A08882388
:1012400049F010922F021092300210923102109247
:10125000320281E00F9108950F93CF93C82F8091B0
:101260002E02811105C0C1E08C2FCF910F910895FE
:1012700040910001509101016091020170910301C0
:101280000C2F2CE932E080917702909178020E9435
:101290009A08811102C0C0E0E7CFCC2321F381E09E
:1012A0000E9408098823B9F310922E02DDCF8F9295
:1012B0009F92AF92BF92EF92FF920F931F93CF93A3
:1012C0004B015C01C42F8091000190910101A0911C
:1012D0000201B091030188159905AA05BB0551F1DA
:1012E00081E00E942C0981110BC080E0CF911F91F9
:1012F0000F91FF90EF90BF90AF909F908F900895C7
:101300008CE9E82E82E0F82E00E012E030E020E0E8
:10131000B501A40180917702909178020E94F807AC
:10132000882319F38092000190920101A09202019A
:10133000B092030140912E024C2B40932E0281E08B
:10134000D5CFCF93DF93EC016E857F85888999890E
:1013500041E00E945709882351F08A8920E2829F48
:10136000C001112484569D4FDF91CF91089590E0E4
:1013700080E0FACF8F929F92AF92BF92CF92DF928E
:10138000EF92FF92CF9321E535E0309378022093DE
:101390007702882309F46DC040E060E070E0CB0183
:1013A0000E94570981110BC080E0CF91FF90EF9010
:1013B000DF90CF90BF90AF909F908F9008958091D5
:1013C0005A048F7789F78091660490916704A09101
:1013D0006804B091690484369105A105B10520F334
:1013E000C0906204D0906304E0906404F0906504BF
:1013F000C114D104E104F104B9F240E0C701B6011F
:101400000E945709882381F28091A7029091A80237
:101410008115924049F6A091AC02AA2329F260916D
:10142000AA027091AB026115710509F4BDCF20913C
:10143000A902222309F4B8CFA0936F052093610578
:1014400090E080E030E0E1E0F0E0C82FAF01082E4E
:1014500002C0440F551F0A94E2F72417350769F0BC
:1014600041E0480F01968930910579F740936A056C
:101470009BCFC12CD12C7601C0CF80936A052091DF
:10148000B2023091B30250E040E02115310541F441
:101490002091C0023091C1024091C2025091C3021A
:1014A000209362053093630540936405509365056E
:1014B00046015701860E971EA11CB11C8092700533
:1014C00090927105A0927205B0927305E091AD0201
:1014D000F091AE02F0937605E0937505B0E00E94BE
:1014E000C830DC01CB01880D991DAA1DBB1D80935E
:1014F000770590937805A0937905B0937A0525E058
:10150000EE0FFF1F2A95E1F7E150FE4FEF2FFF2767
:10151000E6958E0F9F1FA11DB11D80936B059093C3
:101520006C05A0936D05B0936E058090AF0290900E
:10153000B002B12CA12C8114910441F48090BC0222
:101540009090BD02A090BE02B090BF02C81AD90A06
:10155000EA0AFB0AC80CD91CEA1CFB1C04C0F6945E
:10156000E794D794C794CA95D2F7C0926605D092F3
:101570006705E0926805F092690585EFC8168FE06F
:10158000D806E104F10428F48CE08093740581E02E
:101590000CCF80E125EFC2162FEFD206E104F10453
:1015A000A0F38091C8029091C902A091CA02B091A3
:1015B000CB028093770590937805A0937905B0933B
:1015C0007A0580E2E2CF4F925F926F927F928F9284
:1015D0009F92AF92BF92CF92DF92EF92FF920F93C2
:1015E0001F93CF93DF93EC014230510561057105E4
:1015F00090F480E0DF91CF911F910F91FF90EF90D9
:10160000DF90CF90BF90AF909F908F907F906F9022
:101610005F904F90089589859A85AB85BC8501962A
:10162000A11DB11D84179507A607B70710F3CB8836
:10163000DC88ED88FE888F89803109F042C0BB27A5
:10164000A72F962F852F480159012A013B01C80E6B
:10165000D91EEA1EFB1E8091000190910101A0910C
:101660000201B0910301C816D906EA06FB0699F5F6
:101670008F898031C1F5B301A201552766277727ED
:10168000440F551F44565D4FFA019182808280912C
:101690002E02816080932E028A89823080F08D81B3
:1016A0009E81AF81B8858C0D9D1DAE1DBF1D8093A1
:1016B0002F0290933002A0933102B093320281E066
:1016C00099CFDB01CA01E7E0B695A7959795879575
:1016D000EA95D1F7B8CF40E0C701B6010E9457099B
:1016E0008111C6CF86CFB301A2014F775527662758
:1016F0007727440F551F440F551F44565D4FFA017D
:1017000080829182A282B382C2CF8F929F92AF9247
:10171000BF92CF92DF92EF92FF920F931F93CF93DE
:10172000DF93FC0181859285A385B4850196A11D77
:10173000B11D84179507A607B70770F480E0DF9105
:10174000CF911F910F91FF90EF90DF90CF90BF90BE
:10175000AF909F908F90089583889488A588B688CD
:101760008789803189F5BB27A72F962F852FE9011F
:101770006A017B018F01BC01CD01680D791D8A1DB5
:101780009B1D8090000190900101A0900201B090FB
:10179000030186169706A806B90601F5F8018789A0
:1017A000803111F5DD24EE24FF24F601EE0FFF1F3A
:1017B000E456FD4F80819181B0E0A0E08883998359
:1017C000AA83BB8381E0BBCFDB01CA01C7E0B6952A
:1017D000A79597958795CA95D1F7C9CF40E00E9404
:1017E00057098111DBCFAACFE894C7F8DD24EE2496
:1017F000FF24F601EE0FFF1FEE0FFF1FE456FD4F13
:1018000080819181A281B381BF70D8CF4F925F92C6
:101810006F927F92AF92BF92CF92DF92EF92FF9240
:101820000F931F93CF93DF9300D000D0CDB7DEB7D7
:101830008C0149835A836B837C835901C12CD12C41
:101840007601412C82E0582E612C712C49815A81FD
:101850006B817C819E012F5F3F4FC8010E94850BE9
:10186000882339F1F8018585A301920104C0220F74
:10187000331F441F551F8A95D2F7DA01C901C80EDC
:10188000D91EEA1EFB1E49815A816B817C818789A2
:10189000803111F188EF9FEFAFEFBFE04817590794
:1018A0006A077B0798F2F501C082D182E282F38257
:1018B00081E00F900F900F900F90DF91CF911F91CB
:1018C0000F91FF90EF90DF90CF90BF90AF907F90FF
:1018D0006F905F904F90089588EF9FEFA0E0B0E089
:1018E000DDCFCF93DF93FC012581222321F080E01F
:1018F000DF91CF910895EC0180917405803159F505
:1019000082E08583178A108E118E128E8091750564
:1019100090917605B0E0A0E025E0880F991FAA1FFE
:10192000BB1F2A95D1F7838B948BA58BB68B8DE546
:1019300095E09C8F8B8F81E08C831E821F8218869E
:1019400019861A861B861C861D861E861F86188A87
:10195000198A1A8ACDCF803251F683E0858340916F
:101960007705509178056091790570917A05478BDC
:10197000508F618F728F9F012D5E3F4F8DE595E0F7
:101980000E94060C8111D3CFB2CF8F929F92AF925B
:10199000BF92CF92DF92EF92FF920F931F93CF935C
:1019A000DF93EC018D8181110EC080E0DF91CF913A
:1019B0001F910F91FF90EF90DF90CF90BF90AF906D
:1019C0009F908F9008950B891C892D893E8904175B
:1019D00015072607370748F34A015B01823031F4C7
:1019E0008A869B86AC86BD8681E0E0CF8114910417
:1019F000A104B10449F41E821F82188619861A8632
:101A00001B861C861D86F0CF0A851B852C853D858F
:101A1000EB8DFC8D858590E00996B901A8014150B8
:101A2000510961097109082E04C07695679557958B
:101A300047950A94D2F775016401E1E0CE1AD10806
:101A4000E108F10804C0F694E794D794C7948A9506
:101A5000D2F7C416D506E606F70620F0012B022BB6
:101A6000032B11F58F89988DA98DBA8D8E839F8355
:101A7000A887B9878E010A5F1F4FC114D104E10402
:101A8000F10409F4ADCF4E815F81688579859801B5
:101A90008B8D9C8D0E94850B91E0C91AD108E108BD
:101AA000F1088111EACF81CFC41AD50AE60AF70AF4
:101AB000E1CF3F924F925F926F927F928F929F926F
:101AC000AF92BF92CF92DF92EF92FF920F931F934C
:101AD000CF93DF93CDB7DEB72C970FB6F894DEBF68
:101AE0000FBECDBF5C01DC015B968D909C905C9736
:101AF00016964D905D906D907C901997411451040D
:101B00006104710409F468C0BFEF4B1A5B0A6B0AE9
:101B10007B0A312CF40181859285A385B4859C01D3
:101B2000AD012F5F3F4F4F4F5F4F29873A874B875C
:101B30005C87730162011D821E821F821886F40178
:101B400081859285A385B4852D813E814F815885FD
:101B5000281739074A075B0708F056C089859A8518
:101B6000AB85BC858C159D05AE05BF0550F482E0A4
:101B7000C82ED12CE12CF12C92E0492E512C612C55
:101B8000712C9E012F5F3F4FB701A601C4010E9437
:101B9000850B8823C9F189819A81AB81BC81892B0E
:101BA0008A2B8B2B09F1260137019FEF491A590A1D
:101BB000690A790A2D813E814F8158852F5F3F4FF9
:101BC0004F4F5F4F2D833E834F8358873FEFC31A9C
:101BD000D30AE30AF30AB3CFF40140805180628054
:101BE00073803324339496CFC414D504E604F704E9
:101BF00009F70FEF1FEF2FEF3FE0B701A601C40178
:101C00000E94E30A811119C080E02C960FB6F89467
:101C1000DEBF0FBECDBFDF91CF911F910F91FF901F
:101C2000EF90DF90CF90BF90AF909F908F907F907C
:101C30006F905F904F903F900895D50116964D910B
:101C40005D916D917C911997411551056105710563
:101C500039F097018601C4010E94E30A8823A1F2AA
:101C6000D5011696CD92DD92ED92FC921997332014
:101C700051F0D701C6010196A11DB11DF401808369
:101C80009183A283B383F5018789908DA18DB28D55
:101C9000892B8A2B8B2B39F48481C78AD08EE18ED5
:101CA000F28E80688483F50184818062848381E080
:101CB000ACCF1F93CF93DF93FC012581222371F1D9
:101CC000162FEC01848187FF1EC0CF010E94A1095D
:101CD000FC01892B19F18D81823040F48B899C891C
:101CE000AD89BE89848F958FA68FB78F8F89988D88
:101CF000938F828F8F89988DA98DBA8DB58BA48B88
:101D00008C818F778C83111103C08C818F7E8C83A3
:101D1000812FDF91CF911F910C942C0980E0DF91EE
:101D2000CF911F910895FF920F931F93CF93DF934D
:101D3000EC018D81813041F090E080E0DF91CF9126
:101D40001F910F91FF9008958C8181FFF5CF82FD47
:101D50001BC00091770210917802C8010E9485078C
:101D60000E942207F82EC8010E9410078FEFF81278
:101D7000E3CF8C8185FF1BC060E0CE010E94590E2D
:101D80008C818F7D8C83D8CF4B895C896D897E89CE
:101D90008A859B85AC85BD8584179507A607B707FF
:101DA000C1F2CE010E94C50C8111D3CFC5CF4091A5
:101DB0002F02509130026091310270913202452B16
:101DC000462B472B21F080E00E940809B5CF8061A7
:101DD0008C832A853B85317080E092E0821B930BD7
:101DE000ADCFCF93DF93EC0161E00E94590E8823C1
:101DF00011F01D8281E0DF91CF9108952F923F92E3
:101E00004F925F926F927F928F929F92AF92BF920A
:101E1000CF92DF92EF92FF920F931F93CF93DF93B6
:101E200000D000D01F92CDB7DEB77C015B01342E0D
:101E30005D83DC0115968C911597813009F0CEC039
:101E400014962C9021FECAC022FCB4C0C32CDD80A5
:101E500022947FE027222094B22DB1702B2ED7013F
:101E60001A964D915D916D917C911D97C114D1048D
:101E700009F428C15B968D919C915C97FC0174805C
:101E80007A948A019B0169E0369527951795079505
:101E90006A95D1F770228A011170711020C0011566
:101EA0001105E9F416964D915D916D917C9119970C
:101EB000411551056105710509F099C057968D913D
:101EC0009D910D90BC91A02D0097A105B10509F041
:101ED000B0C0C7010E94590D882309F47FC080E07B
:101EE00092E0801B910B46018C159D0508F44C0176
:101EF000D7015B964D915C915C9716968D919D9163
:101F00000D90BC91A02D0297A109B109FA01258578
:101F100004C0880F991FAA1FBB1F2A95D2F74685B8
:101F2000578560897189840F951FA61FB71F9C0173
:101F3000AD01270D311D411D511D29013A018114AB
:101F400032E0930609F07BC080910001909101017D
:101F5000A0910201B091030184159505A605B7056E
:101F600059F48FEF9FEFDC01809300019093010102
:101F7000A0930201B0930301022D9501B301A201C8
:101F800080917702909178020E949A08882331F11B
:101F90009EEFB91AC818D908F70182859385A485E0
:101FA000B585880D991DA11DB11D82879387A487D2
:101FB000B58755CFF701438954896589768982852C
:101FC0009385A485B585481759076A077B0709F4E7
:101FD0003DCFC7010E94C50C811138CF81E090E050
:101FE000D70113969C938E93129780E007C09E01B1
:101FF0002F5F3F4F0E94850B811102C090E079C096
:1020000089819A81AB81BC81F701238D348DF901DF
:10201000278948EF5FEF60E070E0203121F048EF62
:102020005FEF6FEF7FE084179507A607B70708F00B
:1020300050CFF70186839783A087B18750CF0115D2
:10204000110599F5D7011A964D915D916D917C918D
:102050001D9753968D919D910D90BC91A02D481781
:1020600059076A077B0708F181E00E942C09882341
:1020700009F4B4CF40920001509201016092020134
:102080007092030180912E02816080932E02C8011C
:1020900084569D4FD5019C01280D391DFC012E173A
:1020A0003F0759F04D914193FACF41E0C301B2018E
:1020B0000E9457098111EBCF91CF281B390BA20E3B
:1020C000B31E68CFF70183899489A589B6898417DF
:1020D0009507A607B70738F48481438B548B658B2B
:1020E000768B80688483F701848183FD1AC0832DF9
:1020F0009D810F900F900F900F900F90DF91CF91D7
:102100001F910F91FF90EF90DF90CF90BF90AF9015
:102110009F908F907F906F905F904F903F902F9007
:10212000089561E0C7010E94590E882309F456CF33
:10213000DECFCF93DF931F92CDB7DEB7698341E047
:1021400050E0BE016F5F7F4F0E94FE0E0F90DF9147
:10215000CF910895FC01DB0112968D919C9113970C
:102160009383828382E291E09183808314968C91A1
:102170001497848315968C911597858316964D91A7
:102180005D916D917C911997468357836087718724
:102190001A964D915D916D917C911D974287538761
:1021A000648775871E964D915D916D917C915197D5
:1021B00046875787608B718B52968C915297828B92
:1021C00053964D915D916D917C915697438B548BB5
:1021D000658B768B57964D915D916D917C915A9759
:1021E000478B508F618F728F5B968D919C91948FEE
:1021F000838F08950895FC01818D928D009719F0C9
:1022000061E00C94590E0895DC015996ED91FC9112
:102210003097B9F083899489A589B6894285538519
:1022200064857585841B950BA60BB70B811520E87B
:102230009207A105B10538F08FEF9FE7A0E0B0E06D
:10224000089590E080E00895DC0159968D919C916D
:10225000009739F0DC01ED91FC910480F581E02DCF
:10226000099490E080E00895CF93DF93EC01E98D2D
:10227000FA8D309749F481E090E09B838A8390E067
:1022800080E0DF91CF91089513821282898D9A8D1B
:102290000E94FE0EE98DFA8D22813381232B59F79E
:1022A000F0CFCF93DF931F92CDB7DEB76983DC0108
:1022B000ED91FC910280F381E02D41E050E0BE0100
:1022C0006F5F7F4F09950F90DF91CF9108952F9207
:1022D0003F924F925F926F927F928F929F92AF92B6
:1022E000BF92CF92DF92EF92FF920F931F93CF9303
:1022F000DF9300D01F92CDB7DEB7FC01858181113D
:1023000018C08FEF9FEF0F900F900F90DF91CF913C
:102310001F910F91FF90EF90DF90CF90BF90AF9003
:102320009F908F907F906F905F904F903F902F90F5
:102330000895848180FFE5CF438954896589768932
:1023400082859385A485B585312C212C48175907A2
:102350006A077B0719F022242394312C6F01210195
:10236000CE0101963C01DF011696BB83AA8341147E
:10237000510409F4C5C0F60142855385648575850D
:102380004A01F1E09F22D6015B968D919C915C976A
:102390008A019B01E9E03695279517950795EA95FF
:1023A000D1F71596EC91E230E9F5FC01628D738D61
:1023B000848D958D600F711F821F931FA12C22E0C9
:1023C000B22EA818B9084A145B0408F45201F601A9
:1023D000248126FD04C0A114F2E0BF0671F400912F
:1023E00000011091010120910201309103010617B3
:1023F00017072807390709F05EC040E00E94570917
:10240000882309F47ECFC40184569D4FD3019C01DB
:102410002A0D3B1DFC012E173F0709F46CC04191AA
:102420004D93F9CFDC011496BC90BA94B02281147C
:10243000910479F4B1100DC0452B462B472B69F55B
:10244000F6018789908DA18DB28D86839783A087B1
:10245000B187D6015B96ED91FC915C9716966D91D4
:102460007D918D919C911997625071098109910913
:10247000258504C0660F771F881F991F2A95D2F7FC
:102480000685178520893189600F711F821F931F70
:102490006B0D711D811D911D91CFD60116964D9129
:1024A0005D916D917C9119972A813B810E94850BEA
:1024B0008111CFCF26CF730185019401AB01BC01FF
:1024C00080917702909178020E94F807882309F49E
:1024D00018CF6A0C7B1CF60182859385A485B5858F
:1024E0008A0D9B1DA11DB11D82879387A487B58787
:1024F0004A185B083CCF281B390B620E731EEBCFCA
:102500002A94232809F0FDCE898190E0FCCEFC01BD
:10251000818D928D009711F00C9467118FEF9FEFD2
:1025200008950F931F93CF93DF93EC01898D9A8DBC
:1025300010E000E0009799F00E9467118C010F3FB6
:10254000100769F0898D9A8DFC0142855385648559
:10255000758541505109610971090E94C50CC80176
:10256000DF91CF911F910F91089508950895CF9312
:10257000CFB7F89480912C02811127C0E2E2F6E0F7
:102580008491E6E3F6E09491E82FF0E0EE0FFF1F70
:10259000EC5FF94FA591B491EC91E92321F461E04E
:1025A0008AE00E94EE0361E08AE00E941C048CB580
:1025B00080618CBD8CB580648CBD61E08DE00E9433
:1025C0001C0461E08BE00E941C0480912C028F5F50
:1025D00080932C02CFBFCF91089520910902260F3E
:1025E0003327331F21323105ECF42091E804FC013C
:1025F00090E080E0243069F082E00895A091090223
:102600002191AC0147515E4FA40FB52FB11D2C9302
:102610000196861798F380910902680F609309026A
:1026200080E0089581E008951092E80481E08093AD
:10263000E7041092C20461E082E10E94EE0361E0CF
:1026400083E10E94EE03E9EBF0E080818E7F8083DE
:1026500080818D7F808388E48093B80085E48093B7
:10266000BC0008951092A1041092A0041092EF04EF
:10267000109211050E94141383EC93E090939F0431
:1026800080939E0484EC93E090939D0480939C043B
:102690000895CF93DF9391E09093E8018823B9F0F8
:1026A000C091B800D091BA008091BC008A7B809321
:1026B000BC0060E082E10E94EE0360E083E10E94E2
:1026C000EE030E941413D093BA00C093B800DF91B8
:1026D000CF9108958F929F92AF92BF92CF92DF9247
:1026E000EF92FF920F931F93CF93DF93D091110539
:1026F000D13208F0D7C0182FC09110050E944405B0
:102700006B017C018091E80481116BC082E08093B1
:10271000E8041093E7048FEF8093E6041092E50439
:10272000D093E404A0EFB4E0E4ECF4E080E0D8134C
:1027300091C01092C3048091C304CC0FC82BC093E6
:10274000C3048091C204813009F088C01092C20491
:102750000E9444056B017C018091C3048093BB00FF
:102760008091EA049091EB04A091EC04B091ED0407
:10277000892B8A2B8B2BA1F00E9444050091EA043F
:102780001091EB042091EC043091ED046C197D095B
:102790008E099F09061717072807390708F442C052
:1027A0008091BC0083FDD8CF85EC8093BC000E9453
:1027B00044056B017C018091E804823009F450C02B
:1027C0008091E6048F3F09F46FC08091E604803267
:1027D00009F46CC08091E604803309F469C084E098
:1027E00026C08091EA049091EB04A091EC04B09192
:1027F000ED04892B8A2B8B2B09F484CF0E9444058E
:102800008090EA049090EB04A090EC04B090ED046A
:102810006C197D098E099F0986169706A806B906C8
:1028200008F070CF8091E9040E94491385E010926E
:10283000EF04109211051092EE04DF91CF911F91D9
:102840000F91FF90EF90DF90CF90BF90AF909F904F
:102850008F9008959D9191938F5F69CF85EEA5CF5D
:102860008091EA049091EB04A091EC04B091ED0406
:10287000892B8A2B8B2B09F49ECF0E944405009153
:10288000EA041091EB042091EC043091ED046C19F2
:102890007D098E099F09061717072807390708F0D1
:1028A0008ACFC0CF81E0C3CF80E0C1CF82E0BFCF6D
:1028B00083E0BDCF1F93CF93DF93EA01122FDC019A
:1028C00011968D919C91DC01ED91FC910280F38138
:1028D000E02D0995C817D90729F4812F0E946A13A2
:1028E00091E0811190E0892FDF91CF911F910895A0
:1028F000CF93DF93EC018B818823A1F0888191E055
:102900009093EE04809310051092EF04109211053D
:1029100081E00E946A1391E0811190E0892FDF919C
:10292000CF9108950E94321381E08B83CE010E94E3
:102930007814982F8111E2CFF1CF8F929F92AF92AE
:10294000BF92CF92DF92EF92FF920F931F93CF939C
:10295000DF93D82FC62F142F613208F09CC00E943D
:1029600044056B017C018091E80481116FC081E016
:102970008093E8041093E7049FEF9093E60410928D
:10298000E5049C0F9093E4048093C3048091C304F6
:10299000DD0FD82BD093C3048091C204813009F09D
:1029A0007CC01092C2040E9444056B017C0180919E
:1029B000C3048093BB008091EA049091EB04A09142
:1029C000EC04B091ED04892B8A2B8B2BA1F00E9493
:1029D00044050091EA041091EB042091EC0430913D
:1029E000ED046C197D098E099F0906171707280742
:1029F000390708F44CC08091BC0083FDD8CF85EC2A
:102A00008093BC000E9444056B017C018091E80426
:102A1000813009F444C08091E5048C1710F4C09112
:102A2000E504E4ECF4E0A2EAB4E080E08C1359C0E1
:102A30008C2FDF91CF911F910F91FF90EF90DF903E
:102A4000CF90BF90AF909F908F9008958091EA04AF
:102A50009091EB04A091EC04B091ED04892B8A2BAA
:102A60008B2B09F480CF0E9444058090EA0490905B
:102A7000EB04A090EC04B090ED046C197D098E0974
:102A80009F0986169706A806B90608F06CCF8091B4
:102A9000E9040E944913C0E0CBCF85EEB1CF80910D
:102AA000EA049091EB04A091EC04B091ED04892B21
:102AB0008A2B8B2B09F4AACF0E9444050091EA04CB
:102AC0001091EB042091EC043091ED046C197D0918
:102AD0008E099F09061717072807390708F096CFB0
:102AE000D6CF91919D938F5FA1CF0895E091A104DE
:102AF0008091A004E81730F4F0E0EE55FB4F8081A0
:102B000090E008958FEF9FEF08959091A104809138
:102B1000A0042FEF3FEF981748F4E92FF0E0EE55AF
:102B2000FB4F208130E09F5F9093A104C90108957D
:102B30008091A0049091A104891B990B0895CF92D4
:102B4000DF92EF92FF920F931F93CF93DF937C015D
:102B5000CB018A012091EE04222389F0EB016B0165
:102B6000C40ED51ECC15DD0569F06991D701ED9134
:102B7000FC910190F081E02DC7010995F3CF642FFE
:102B80000E94ED12C801DF91CF911F910F91FF902C
:102B9000EF90DF90CF900895CF93DF931F92CDB742
:102BA000DEB769832091EE042223F9F0209111050C
:102BB000203258F021E030E0FC013383228390E0A2
:102BC00080E00F90DF91CF9108958091EF04E82F7E
:102BD000F0E0E051FB4F998190838F5F8093EF0489
:102BE0008093110581E090E0ECCF61E0CE01019689
:102BF0000E94ED12F7CF90E080E008950F931F93AD
:102C0000CF93DF9300D0CDB7DEB76A83E091C305E1
:102C1000F091C4053097F9F08983848195810297FA
:102C200098F0808191E09093EE04809310051092CB
:102C3000EF041092110521E042E050E0BE016F5F09
:102C40007F4FCF010E945A140F900F90DF91CF91C8
:102C50001F910F9108958F7789830091C505109179
:102C6000C605C8010E9443076981C8010E94630428
:102C70006A81C8010E946304C8010E940807E4CF6A
:102C8000CF93DF93CDEED5E08770886E8883ECEE2E
:102C9000F5E0962F9770990F990F990F8081807C9E
:102CA000242F2770892B822B808395E0440F551F9A
:102CB0009A95E1F787FB882780F9482B660F771FE5
:102CC000660F771F642B85EF0E94FE158881682FA1
:102CD000677090E2699FB0011124282F26952695F0
:102CE0002695277094E0299F90011124622B8295EC
:102CF000869586958370682B84EFDF91CF910C9435
:102D0000FE155F926F927F928F929F92AF92BF92C9
:102D1000CF92DF92EF92FF920F931F93CF93DF93A7
:102D2000DC011496ED91FC911597EF2B09F465C029
:102D300069013A01EC01888191E09093EE0480935F
:102D400010051092EF041092110520E041E050E0D0
:102D5000CD010E945A14582E882309F44EC0F12C3C
:102D6000E12C8C819D8186010E191F098017910726
:102D700008F48C0141E0C601801B910BE816F906AE
:102D800008F440E0602F013208F060E288810E9480
:102D90009D141092A1048093A0048017110669F578
:102DA00043018E0C9F1C5401C50188199909801795
:102DB000910768F489819A81DC01ED91FC9102848C
:102DC000F385E02D0995F50181935F01EDCFE00ECC
:102DD000F11EEC14FD0428F2852DDF91CF911F9197
:102DE0000F91FF90EF90DF90CF90BF90AF909F90AA
:102DF0008F907F906F905F900895512CEDCFCF937F
:102E0000DF9300D0CDB7DEB7E091C305F091C405E4
:102E1000898322E030E0AE014F5F5F4FBA01309707
:102E200051F0CF010E94811689819A810F900F90F5
:102E3000DF91CF9108958091C5059091C6050E94BC
:102E40005B07F2CFCF93DF9300D01F92CDB7DEB7F1
:102E5000FC0182819381698323E030E0AE014F5F02
:102E60005F4FBA010097A1F00E94811629816A8103
:102E700070E090E080E0982F872F762F6627822BD6
:102E80002B81622B0F900F900F90DF91CF910895BF
:102E9000848195810E945B07E9CF8F929F92AF92C8
:102EA000BF92CF92DF92EF92FF920F931F93CF9337
:102EB000DF93FC014385548565857685452B462B3C
:102EC000472B09F479C0EC016AEF0E9422170B89A5
:102ED0001C8930E020E0C72ED82EE92EFF24E7FC25
:102EE000FA94C01AD10AE20AF30A57E09595879539
:102EF000779567955A95D1F7000F111F221F331F41
:102F00004B015C01801A910AA20AB30AA50194013F
:102F1000AD89BE890E94D3304B015C01FBE0B594C2
:102F2000A79497948794FA95D1F7A7019601C701C2
:102F3000B6010E9482309B01AC01ACE055954795EB
:102F400037952795AA95D1F7AF89B88D0E94D330D0
:102F50009B01AC01BEE05595479537952795BA95ED
:102F6000D1F7280D391D4A1D5B1D2F87388B498BE2
:102F70005A8BA5E0B0E00E94C83060587F4F8F4F59
:102F80009F4F672F782F892F992787FD9A950E9449
:102F9000A23320E030E048EC52E40E94F932DF91A5
:102FA000CF911F910F91FF90EF90DF90CF90BF9046
:102FB000AF909F908F90089560E070E080EC9FE765
:102FC000EECF2F923F924F925F926F927F928F92AD
:102FD0009F92AF92BF92CF92DF92EF92FF920F93A8
:102FE0001F93CF93DF93CDB7DEB76D970FB6F894ED
:102FF000DEBF0FBECDBF9D8F8C8F0E944D1767EF38
:103000008C8D9D8D0E942217688F798F8A8F9B8F60
:10301000EC8DFD8D87859089A189B2896C017D0138
:10302000FF0CCC08DC2C76019C01AD016C2D7C2DB5
:103030008C2D9C2D345F4140510961097109810932
:10304000910929873A874B875C873B014C015901DD
:103050006A017B018C010E94DB30322E232E4A8BC9
:103060005B8B6C8B7D8B8E8B9F8BAC8DBD8D5C96C3
:103070003C915C975B962C91932F990F990B492F5C
:10308000592F692F792F892F0E94DB300CE00E9485
:103090000A32522E39834D875E876F87788B898BF2
:1030A000492EEC8DFD8D368D258D932F990F990B23
:1030B000A32CB22CCA88DB88EC88FD880E891F8976
:1030C000492F592F692F792F892F0E94DB3008E073
:1030D0000E942332A52CB980CD84DE84EF84F88849
:1030E0000989142D0E94403270588F4F9F4FAC8D2C
:1030F000BD8D5996ED91FC915F01D12CC12CE12C35
:10310000F12C8701E983BA82CB82DC82ED82FE82D8
:103110000F831887C12CD12CE12CF12C00E010E09A
:103120000E94DB3001E20E9423322983532E4D8717
:103130005E876F87788B898B492EA0E00E94523280
:1031400009F43DC1AC8DBD8D94963C9194979396B6
:103150002C91932F990F990BA32CB22CCA88DB8842
:10316000EC88FD880E891F89492F592F692F792FE7
:10317000892F0E94DB3019014A8B5B8B6C8B7D8B16
:103180008E8B9F8BEC8DFD8D32A121A1932F990FFA
:10319000990BA984BA84CB84DC8473018401492F00
:1031A000592F692F792F892F0E94DB3001E10E946E
:1031B0000A325101CA88DB88EC88FD880E891F8994
:1031C0000E94403259016A017B01282E192F488D37
:1031D000598D6A8D7B8D84E07595679557954795D8
:1031E0008A95D1F780E090E0A0E1B0E0841B950BD8
:1031F000A60BB70B3C014D01990C6608762C4301D8
:103200009C01AD01662D762D862D962D0FE10E9435
:103210000A32722E832E942E652EB62FA72F382EAB
:103220009987EC8DFD8D30A1278D932F990F990BE8
:10323000492F592F692F792F892F03E20E940A32D3
:10324000022D0E94403259016A017B018C01272D19
:10325000382D492D562D6B2F7A2F832D99850E945D
:103260004932E5E3AE2EFCE0BF2EC12CD12CE12C7F
:10327000F12C00E010E00E94DB30A980B52CCD8459
:10328000DE84EF84F8880989142D0E94353129875E
:103290003A874B875C8769837D878E879F870DE0A0
:1032A0000E942332922E832E742E652E562E472E88
:1032B000382E292EAC8DBD8D9A963C919A97999671
:1032C0002C91932F990F990BA92CB82CC72CD62C85
:1032D000E52CF42C032D122D492F592F692F792F0E
:1032E000892F0E94DB300E94DB3009E10E942332EB
:1032F000A984BA84CB84DC84E980FD840E851F8593
:103300000E94403219012A013B014C01EC8DFD8DD8
:1033100030A527A1932F990F990B492F592F692F6A
:10332000792F892F0E94DB3003E10E94233259015B
:103330006A017B018C019101A201B301C4010E94C9
:10334000403208E00E94233259016A017B01E82FD4
:10335000192FAC8DBD8D96963C91969795962C9194
:10336000932F990F990B492F592F692F792F892F57
:1033700004E00E940A320E2F0E9440320E949A33CB
:1033800020E030E040E85BE30E94A5346D960FB684
:10339000F894DEBF0FBECDBFDF91CF911F910F918B
:1033A000FF90EF90DF90CF90BF90AF909F908F9065
:1033B0007F906F905F904F903F902F90089560E0C6
:1033C00070E0CB01E3CF8F929F92AF92BF92CF92EA
:1033D000DF92EF92FF920F931F93CF93DF9300D072
:1033E00000D0CDB7DEB7FC018581813091F080E05F
:1033F0000F900F900F900F90DF91CF911F910F9131
:10340000FF90EF90DF90CF90BF90AF909F908F9004
:103410000895848181FFEBCF83899489A589B6893A
:10342000892B8A2B8B2B09F45FC07F0140E050E091
:10343000BA01CF010E94C50C8823C9F2F701C38CE1
:10344000D48C8788908CA18CB28C82E090E0A0E034
:10345000B0E0F60180839183A283B3839E012F5F46
:103460003F4FB501A401C6010E94850B882309F4D2
:10347000BECF00E010E09801B501A401C6010E9492
:10348000E30A882309F4B3CF89809A80AB80BC809B
:10349000F6018789803119F188EF9FEFAFEFBFE028
:1034A00088169906AA06BB06C8F2F701178A108E7D
:1034B000118E128E138A148A158A168A8481806866
:1034C000848361E0C7010E94590E882309F48FCFDD
:1034D00040E050E0BA01C7010E94C50C89CF88EFD7
:1034E0009FEFA0E0B0E0DCCF81E082CFCF92DF920F
:1034F000EF92FF921F93CF93DF93EC0180E2689FDE
:10350000F0011124E456FD4F9385917161F0842FF1
:10351000827449F080E0DF91CF911F91FF90EF908E
:10352000DF90CF900895142F6A8B809100019091C5
:103530000101A0910201B09103018E879F87A88BA2
:10354000B98BC488D588F12CE12C7601DD24CC24FC
:10355000CF8AD88EE98EFA8E828D938DB0E0A0E06E
:10356000AC01BD014C295D296E297F294F8B588FF5
:10357000698F7A8F83858871B1F4848D958DA68D3E
:10358000B78D8B8B9C8BAD8BBE8B81E08D831F7039
:103590001C831E821F82188619861A861B861C862B
:1035A0001D8681E0B8CF803109F0B4CF9E012D5E39
:1035B0003F4F8B8D9C8D0E94060C882309F4AACF67
:1035C00084E0E4CF0C9438370C943837CF93C09113
:1035D0009902CC23B1F08091B3059091B405009786
:1035E00061F00E94F10E8091B3059091B4050E94A4
:1035F00038371092B4051092B305109299021092C8
:1036000079028C2FCF910895FB0101900020E9F7FA
:103610003197AF01461B570BDC01ED91FC91028005
:10362000F381E02D09948F929F92AF92BF92EF9217
:10363000FF920F931F93CF93DF93CDB7DEB7A19780
:103640000FB6F894DEBF0FBECDBF7C01FA01CB01EF
:1036500019A2223008F42AE08E010F5D1F4F822E3E
:10366000912CB12CA12CBF01A50194010E94A63080
:10367000F901CA016A300CF5605DD8016E938D01C5
:10368000232B242B252B79F790E080E0109721F055
:10369000BD01C7010E94041BA1960FB6F894DEBFBE
:1036A0000FBECDBFDF91CF911F910F91FF90EF9093
:1036B000BF90AF909F908F900895695CDECF462FAA
:1036C00050E070E060E02AE00C94131B2F923F92D0
:1036D0004F925F926F927F928F929F92AF92BF9222
:1036E000CF92DF92EF92FF921F93CF93DF93EC0183
:1036F0006A017B01722EAB019601CB01B6010E94DB
:1037000062356AE671E0811126C046015701E894EE
:10371000B7F82FEF3FEF4FE75FE7C501B4010E9415
:10372000623581110CC02FEF3FEF4FE75FE7C50116
:10373000B4010E94F4326EE671E0181664F02FEFC7
:103740003FEF4FE75FE4C701B6010E94A0341816AF
:10375000B4F462E771E0CE01DF91CF911F91FF9049
:10376000EF90DF90CF90BF90AF909F908F907F9021
:103770006F905F904F903F902F900C94041B2FEF11
:103780003FEF4FE75FECC701B6010E94F43287FDBF
:10379000E0CF20E030E0A901C701B6010E94F43279
:1037A000312C212C87FF09C06DE2CE010E94D30588
:1037B0001C01F7FAF094F7F8F09410E060E070E084
:1037C00080E09FE3711641F020E030E040E251E4F8
:1037D0000E94F9321F5FF6CFA70196010E9488323E
:1037E0002B013C010E946B334B015C012AE0BC01C0
:1037F000A401CE010E94131B7C01E20CF31C1123D7
:10380000C1F1C501B4010E94A0339B01AC01C30109
:10381000B2010E9487324B015C016EE2CE010E9430
:10382000D305E80EF91E115020F120E030E040E20F
:1038300051E4C501B4010E94A5342B013C010E9452
:103840006B334B01B12CA12C2AE0B501A401CE01B0
:103850000E94131BE80EF91EC501B4010E94A0339B
:103860009B01AC01C301B2010E9487324B015C0194
:10387000DACFC701DF91CF911F91FF90EF90DF90DA
:10388000CF90BF90AF909F908F907F906F905F9000
:103890004F903F902F90089566E771E00C94041BC1
:1038A000CF93DF93682F82E195E00E945F1BEC01CC
:1038B00082E195E00E944C1C8C0F9D1FDF91CF91FF
:1038C00008950F931F93CF93DF93EC010E94DA05C5
:1038D0008C01CE010E944C1C800F911FDF91CF9173
:1038E0001F910F910895CF92DF92EF92FF920F9365
:1038F0001F93CF93DF93EC0111E01093EE0488E661
:10390000809310051092EF041092110563E085EB8F
:1039100095E00E94CC1581E00E946A13082F88234D
:10392000D1F01F8261E471E082E195E00E94DA0546
:10393000802F0E94501C64E071E082E195E00E94BB
:10394000611C80E0DF91CF911F910F91FF90EF906C
:10395000DF90CF90089541E067E088E60E949D14D3
:10396000082F1092A1048093A004873058F41F827E
:103970006AEE70E082E195E00E94DA05802F0E94F5
:10398000501CDFCF85EB95E00E948515C82E85EB96
:1039900095E00E948515D82E85EB95E00E9485154F
:1039A000E82E85EB95E00E948515F82E85EB95E0D5
:1039B0000E94851585EB95E00E948515082F85EB03
:1039C00095E00E9485154C2D4F77242F30E054E070
:1039D000359527955A95E1F7322F330F330FA22FE4
:1039E000A31BAA0FA40FAE834D2D4F77242F30E0D9
:1039F00064E0359527956A95E1F7322F330F330F41
:103A0000F22FF31BFF0FF40FFD834E2D4F73242F66
:103A100030E074E0359527957A95E1F7322F330F32
:103A2000330FE22FE31BEE0FE40FEC832F2D2F73E8
:103A3000622F70E0B4E075956795BA95E1F7362F7F
:103A4000330F330F631B660F620F6B830F71402FB1
:103A500050E024E0559547952A95E1F7242F220F51
:103A6000220F421B440F400F4A839C0154E03595BE
:103A700027955A95E1F72F703327922F990F990FB9
:103A8000291B220F280F30E02053384F3983288319
:103A9000AC3350F4FC3340F4E83130F461506F3112
:103AA00018F441504C3010F01F824BCF1F8381E03F
:103AB00049CFCF92DF92EF92FF921F93CF93DF9384
:103AC00010919902112309F49FC0E091B305F09180
:103AD000B405309709F4A1C02581222309F49DC0C3
:103AE0007A016B01EC014881598170E060E02AE0C5
:103AF0008AE995E00E94131B6DE671E08AE995E082
:103B00000E94DA058A818A3030F46BE671E08AE936
:103B100095E00E94DA056A818AE995E00E945F1BC0
:103B200069E671E08AE995E00E94DA058B818A30C6
:103B300030F467E671E08AE995E00E94DA056B816E
:103B40008AE995E00E945F1B65E671E08AE995E0ED
:103B50000E94DA058C818A3030F463E671E08AE9EC
:103B600095E00E94DA056C818AE995E00E945F1B6E
:103B700061E671E08AE995E00E94DA058D818A307C
:103B800030F46FE571E08AE995E00E94DA056D8115
:103B90008AE995E00E945F1B6DE571E08AE995E096
:103BA0000E94DA058E818A3030F46BE571E08AE993
:103BB00095E00E94DA056E818AE995E00E945F1B1C
:103BC00069E571E08AE995E00E94DA05B6018AE9C3
:103BD00095E00E94041B67E571E08AE995E00E9488
:103BE000DA05B7018AE995E00E94041B64E571E0FB
:103BF0008AE995E00E94DA058AE995E00E944C1C6A
:103C00008AE995E00E94FB10812FDF91CF911F91EF
:103C1000FF90EF90DF90CF90089510E0F5CF0F93D5
:103C20001F93CF93DF93CDB7DEB728970FB6F894E5
:103C3000DEBF0FBECDBF20919B022223B1F02091A9
:103C40009902222391F020919A02222371F08C0193
:103C5000CE0101960E94731C882339F0A80169E700
:103C600071E0CE0101960E94591D28960FB6F89476
:103C7000DEBF0FBECDBFDF91CF911F910F91089591
:103C80003F924F925F926F927F928F929F92AF92EC
:103C9000BF92CF92DF92EF92FF920F931F93CF9339
:103CA000DF93CDB7DEB72B970FB6F894DEBF0FBE0C
:103CB000CDBF7C01FE013196CE010C966F0130E242
:103CC00031938E179F07E1F7DA0130E087E09D918D
:103CD000B92E992309F43CC09E32F1F48A30C9F41C
:103CE00080E02B960FB6F894DEBF0FBECDBFDF91FC
:103CF000CF911F910F91FF90EF90DF90CF90BF90E9
:103D0000AF909F908F907F906F905F904F903F907B
:103D1000089538E08AE0DBCFEFE6F1E044914423F8
:103D200021F031969413FACFDBCF8317C8F24FED11
:103D3000490F4E35A8F64FE9490F4A3118F440EEC5
:103D4000B42EB90EF601E30FF11DB0823F5FBFCF75
:103D50008981803229F2322E8B01DB015B968D91B5
:103D60009C915C97F701948F838F16961D921D92FC
:103D70001D921C921997FB011286138614861586D4
:103D8000F80182859385A485B58543895489658921
:103D9000768984179507A607B70708F04DC025E078
:103DA000B695A795979587952A95D1F7F82FFF7027
:103DB000AF2ED80115968C91823008F491CFC801AE
:103DC0000E94671197FD8CCFF80182859385A485A9
:103DD000B5854F96A11DB11D82879387A487B587AE
:103DE000F0E2AF9EB001112464567D4F611571055C
:103DF00009F476CFDB018C91882341F0853E09F0F0
:103E000058C0BB2029F0BB24B394BACFB1100EC068
:103E1000F701A28A8091000190910101A091020115
:103E2000B091030186879787A08BB18BDB018C91C2
:103E30008111E9CFBB24B394832D8271823109F0C3
:103E40004FCFBB2009F443C0C7010E94A1090097CE
:103E500009F446CF20E2FC0111922A95E9F72BE004
:103E6000F601DC0101900D922A95E1F721E238E29A
:103E7000DC0151963C932E93509740E058E01F96FA
:103E80005C934E931E9753963C932E93529759965C
:103E90003C932E93589757965C934E93569781E098
:103EA0000E942C09882309F41BCF432DF701628956
:103EB0000AC04BE050E0C6010E94C137892B09F0CF
:103EC0005FCF432D6A2DC7010E94761A0ACFF801F1
:103ED0008581823009F404CFC8010E94590D8823DE
:103EE00009F4FECED8015B96ED91FC915C97169695
:103EF0008D909D90AD90BC901997B2E08B1A91086F
:103F0000A108B108858504C0880C991CAA1CBB1C9B
:103F10008A95D2F786859785A089B189880E991EE2
:103F2000AA1EBB1E848124013501480E511C611C50
:103F3000711C481459046A047B0409F1E1E04E1A2B
:103F400051086108710881E00E942C09882309F456
:103F5000C7CEECE9F2E011928CE994E08E179F074E
:103F6000D1F74092000150920101609202017092DB
:103F7000030180912E02816080932E02DACFD80156
:103F80005B96ED91FC91258580E092E0A0E0B0E0A9
:103F900004C0880F991FAA1FBB1F2A95D2F7F801EA
:103FA0004389548965897689840F951FA61FB71F99
:103FB000838B948BA58BB68BD70152961C928CE980
:103FC00092E048CF0F931F93CF93DF938C01EB01C7
:103FD000FB01349680E2DF011D928A95E9F784E2C5
:103FE00090E0A0E0B0E088839983AA83BB83F801C6
:103FF00082819381092E000CAA0BBB0B8C839D83BD
:10400000AE83BF8386E090E0A0E0B0E08887998728
:10401000AA87BB870E949B05688B798B8A8B9B8BB9
:10402000D80114968D919C91FC014385548565853A
:104030007685452B462B472B91F00E94E11720E017
:1040400030E048EC52E40E94F9326C8B7D8B8E8B11
:104050009F8B81E0DF91CF911F910F91089560E0D8
:1040600070E080EC9FE7EBCF0F931F93CF93DF932C
:104070008C01EB0188E2FB0111928A95E9F74BE094
:1040800050E06FE771E0CE010E94DE371B8681E0D1
:1040900090E0A0E0B0E08C879D87AE87BF87F801F5
:1040A00082819381092E000CAA0BBB0B888B998B04
:1040B000AA8BBB8B86E090E0A0E0B0E08C8B9D8B60
:1040C000AE8BBF8B1CA21DA21EA21FA280E090E09F
:1040D000A6E9B3E48C8F9D8FAE8FBF8F80E090E810
:1040E000A9E8B4E4888F998FAA8FBB8F86EA9BE9F1
:1040F000A4E4BCE388A399A3AAA3BBA3DF91CF91B7
:104100001F910F9108950F931F93CF93DF938C010D
:10411000EB01FB01349680E2DF011D928A95E9F7FD
:1041200084E290E0A0E0B0E088839983AA83BB8317
:10413000F80182819381092E000CAA0BBB0B8C83A2
:104140009D83AE83BF838DE090E0A0E0B0E08887E0
:104150009987AA87BB870E949B05688B798B8A8B7E
:104160009B8BD80114968D919C910E944D176C8B5E
:104170007D8B8E8B9F8B81E0DF91CF911F910F9173
:1041800008950F931F93CF93DF938C01EB0188E287
:10419000FB0111928A95E9F74BE050E06FE771E07F
:1041A000CE010E94DE371B8681E090E0A0E0B0E007
:1041B0008C879D87AE87BF87F80182819381092E06
:1041C000000CAA0BBB0B888B998BAA8BBB8B8DE049
:1041D00090E0A0E0B0E08C8B9D8BAE8BBF8B1CA2DF
:1041E0001DA21EA21FA280E090E0A0E2B2EC8C8F84
:1041F0009D8FAE8FBF8F80E090E0AAEAB2E4888FF7
:10420000998FAA8FBB8F8AE097EDA3E2BCE388A3C6
:1042100099A3AAA3BBA3DF91CF911F910F910895FA
:10422000EF92FF920F931F93CF93DF93EC017B01EB
:104230008A011B821A8288EE93E0A0E0B0E08C83B2
:104240009D83AE83BF8380E491E0998388838DE171
:1042500090E00E949C369A8F898F009779F02DE12B
:10426000F701DC0101900D922A95E1F74CE050E056
:10427000B801CE010C960E94DE37188EDF91CF91E7
:104280001F910F91FF90EF900895EF92FF921F936F
:10429000CF93DF93CDB7DEB7C257D1090FB6F894ED
:1042A000DEBF0FBECDBF109199021123A9F069E1C5
:1042B00077E082E195E00E94611C10E0812FCE58EA
:1042C000DF4F0FB6F894DEBF0FBECDBFDF91CF91A9
:1042D0001F91FF90EF90089567E077E082E195E00D
:1042E0000E94DA0566E871E082E195E00E94041B15
:1042F00082E195E00E944C1C1C821B8282E2E82E27
:1043000081E0F82EFA82E9821E82CE0101960E9497
:10431000710CBE016F5F7F4FCE01CB960E94AA1039
:1043200019A218A2FF8EEE8E1BA221968FAD2197A7
:10433000811166C06C961FAE1EAE6C9788EE93E03E
:10434000A0E0B0E0A0968CAF9DAFAEAFBFAFA0979E
:1043500080E491E06A969FAF8EAF6A97E3961FAEB6
:104360001EAEE397A5961FAEA5976C968EAD9FAD3A
:104370006C9790939D0580939C05A0968CAD9DAD08
:10438000AEADBFADA09780939E0590939F05A0937F
:10439000A005B093A105A4968CAD9DADAEADBFAD0B
:1043A000A4978093A2059093A305A093A405B0932E
:1043B000A505A8E5B0E0AC0FBD1F1C96E6EAF5E048
:1043C0008D91819385E0E33BF807D1F7E396EEAD5D
:1043D000FFADE397F093B405E093B305309719F080
:1043E0008581811138C06FEE76E082E195E00E9410
:1043F000611C65ED76E082E195E00E94611C5ECF74
:1044000027E146E851E0BE01655C7F4FCE014E9644
:104410000E94401E882309F48DCFCE01CB960E94C6
:10442000F10E49A95AA96BA97CA9CE014E960E940A
:10443000C50CBE01625E7F4FCE0101960E94AA109C
:1044400046E851E0BE016F5F7F4FCE01885A9F4F13
:104450000E9410218ACF68EB76E082E195E00E940D
:10446000611CE091B305F091B405309751F0838958
:104470009489A589B68964E576E0892B8A2B8B2BF4
:1044800041F46FE876E08AE995E00E94611C63E7F9
:1044900076E082E195E00E94611C81E080939902C0
:1044A0004FE150E066E871E089E792E00E94DE3774
:1044B0001092980211E002CF85ED8093BC008091AC
:1044C000EA049091EB04A091EC04B091ED040796FE
:1044D000A11DB11D23E0B695A795979587952A95BF
:1044E000D1F72091BC0024FD03C01092E804089588
:1044F0004091EA045091EB046091EC047091ED045A
:10450000452B462B472B69F30097A105B10541F0D8
:104510002AE22A95F1F700C00197A109B109E1CF7C
:104520008091E9040C9449131F920F920FB60F92D9
:1045300011242F933F938F939F93AF93BF938091B9
:104540006F0290917002A0917102B091720230914D
:104550006E0223E0230F2D3758F50196A11DB11DE2
:1045600020936E0280936F0290937002A093710269
:10457000B09372028091730290917402A0917502BF
:10458000B09176020196A11DB11D809373029093A4
:104590007402A0937502B0937602BF91AF919F9180
:1045A0008F913F912F910F900FBE0F901F901895F4
:1045B00026E8230F0296A11DB11DD2CF1F920F92A4
:1045C0000FB60F9211242F933F934F935F936F93E6
:1045D0007F938F939F93AF93BF93EF93FF938091BC
:1045E0004E0290914F02A0915002B0915102892B3E
:1045F0008A2B8B2BD1F190914902E0914A02F091E4
:104600004B0280818927808380914E0290914F02D6
:10461000A0915002B0915102181619061A061B06F5
:104620009CF480914E0290914F02A0915002B09163
:1046300051020197A109B10980934E0290934F0254
:10464000A0935002B0935102FF91EF91BF91AF91AF
:104650009F918F917F916F915F914F913F912F919A
:104660000F900FBE0F901F901895809104010E942B
:10467000A705EACF1F920F920FB60F9211242F9326
:104680003F934F935F936F937F938F939F93AF93DA
:10469000BF93EF93FF9382E195E00E947B06FF9129
:1046A000EF91BF91AF919F918F917F916F915F91AA
:1046B0004F913F912F910F900FBE0F901F90189523
:1046C0001F920F920FB60F9211242F938F939F93E7
:1046D000EF93FF93E0912205F09123058081E09113
:1046E0002805F091290582FD1BC0908180912B0542
:1046F0008F5F8F7020912C05821741F0E0912B0580
:10470000F0E0EE5EFA4F958F80932B05FF91EF91CD
:104710009F918F912F910F900FBE0F901F90189522
:104720008081F4CF1F920F920FB60F9211242F9316
:104730003F934F935F936F937F938F939F93AF9329
:10474000BF93EF93FF938091B900887F803609F47F
:104750004AC0F0F5883209F4A7C018F5803109F491
:104760009BC0B8F4882309F4F9C0883009F494C0D8
:10477000FF91EF91BF91AF919F918F917F916F9139
:104780005F914F913F912F910F900FBE0F901F900F
:104790001895883109F488C0803251F78093E60477
:1047A00014C0803409F49DC040F48033B9F38833D9
:1047B000F9F68093E60485ECB0C0803509F485C035
:1047C000883509F496C0883499F60E945C22D0CFCF
:1047D000883909F48CC038F5883729F050F48836C8
:1047E00011F0803729F683E08093E80410922B02C1
:1047F00057C0883809F47BC0803919F0803809F037
:10480000B7CF80912B02803208F071C0E0912B026B
:1048100081E08E0F80932B028091BB00F0E0E55F7A
:10482000FD4F80833DC0803B39F0E0F4803A09F4CD
:1048300079C0883A09F09CCF84E08093E804109214
:104840000A0210920902E0919E04F0919F040995DA
:104850008091090281110FC081E0809309021092BA
:10486000E90109C0803C09F4A6CF883C09F4A3CF34
:10487000883B09F07DCFE0910A0281E08E0F8093A2
:104880000A02F0E0E751FE4F80818093BB009091D7
:104890000A028091090229C08091C3048093BB0061
:1048A00085EC8093BC0064CF9091E5048091E40492
:1048B000981758F5E091E50481E08E0F8093E504A8
:1048C000F0E0EC53FB4F8081E9CFE091E50481E01B
:1048D0008E0F8093E5048091BB00F0E0EC53FB4F1A
:1048E00080839091E5048091E4049817C8F285E8EC
:1048F000D8CFE091E50481E08E0F8093E5048091AC
:10490000BB00F0E0EC53FB4F80838091E704811102
:104910005CCF81E08093C20484EA8093BC00109253
:10492000E80426CF85EC8093BC001092E8048091C7
:104930002B02803230F4E0912B02F0E0E55FFD4F76
:10494000108260912B0270E0E0919C04F0919D0434
:104950008BE092E0099510922B020ACF1092E604A8
:1049600034CFCF93DF93E2E1F5E01382128248EE79
:1049700053E060E070E0448355836683778380E191
:1049800091E09183808385EC90E09587848784EC27
:1049900090E09787868780EC90E0918B808B81EC0C
:1049A00090E0938B828B82EC90E0958B848B86ECED
:1049B00090E0978B868B118E128E138E148EEFE4FF
:1049C000F5E080E580831182E1E5F5E0158216824D
:1049D0001186138682E090E0A0E0B0E0848795879E
:1049E000A687B78713A215A614A682E291E093A723
:1049F00082A717A6A5EBB5E013961C921E921297FC
:104A000014964D935D936D937C9317978EE291E08E
:104A100011969C938E93EAE9F5E013821282448307
:104A200055836683778380E491E091838083128E3F
:104A3000118E1486C1ECD5E01B821A821D821C8265
:104A40001B861C861D861E861BA61CA6B983A883F2
:104A500086E090E00E949C36FC0180E691E0918324
:104A6000808388E191E093838283D583C483FF832D
:104A7000EE8386E090E00E949C36FC0182E591E0A6
:104A80009183808313821282D583C483F987E88758
:104A9000DF91CF910895CF93DF93CDB7DEB7C6599D
:104AA000D1090FB6F894DEBF0FBECDBF789484B5A0
:104AB000826084BD84B5816084BD85B5826085BD1A
:104AC00085B5816085BD80916E00816080936E00A8
:104AD000109281008091810082608093810080919A
:104AE000810081608093810080918000816080934B
:104AF00080008091B10084608093B1008091B0000B
:104B000081608093B00080917A00846080937A0005
:104B100080917A00826080937A0080917A0081602F
:104B200080937A0080917A00806880937A00109256
:104B3000C100E0912205F091230582E08083E0919D
:104B40001E05F0911F051082E0912005F0912105CE
:104B500080E1808310922A05E0912605F0912705D7
:104B600086E08083E0912405F091250580818061B5
:104B70008083E0912405F091250580818860808301
:104B8000E0912405F0912505808180688083E09183
:104B90002405F091250580818F7D808366E174E096
:104BA00082E195E00E94611C62E084E00E941C04A6
:104BB00068E074E082E195E00E94611C61E087E0BA
:104BC0000E941C0460E087E00E94EE036AEF73E03D
:104BD00082E195E00E94611C0E94B7126FEE73E0C3
:104BE00082E195E00E94611C0E94321311E0109353
:104BF000EE0488E6809310051092EF0410921105E0
:104C000081E00E946A13882309F43DC110929A0240
:104C100060EE73E082E195E00E94611C80919A024F
:104C2000882309F453C0CE0101960E94731C882387
:104C300009F467C16AEC73E082E195E00E94DA054D
:104C400049815A8170E060E02AE082E195E00E94AB
:104C5000131B68EC73E082E195E00E94DA056B813A
:104C600082E195E00E945F1B66EC73E082E195E0D3
:104C70000E94DA056C8182E195E00E945F1B64EC82
:104C800073E082E195E00E94DA056D8182E195E0B2
:104C90000E945F1B62EC73E082E195E00E94DA05FE
:104CA0006E8182E195E00E945F1B60EC73E082E11F
:104CB00095E00E94DA058F810E94501C89819A81BB
:104CC0006FE873E0883E974008F41DC16CE272E023
:104CD00082E195E00E94611C0091C5051091C60516
:104CE0000115110509F016C18091C3059091C40505
:104CF000009711F00E94383786E090E00E949C36C1
:104D00008C018091C1059091C20527E7D8012C93B1
:104D100012969C938E93119713961C92139780E290
:104D200090E015969C938E9314971093C40500936E
:104D3000C3050E94321381E0F8018383C8010E94F9
:104D400078148111FFC066EC71E082E195E00E9469
:104D5000611C68EB71E082E195E00E94611C6CEAE5
:104D600071E082E195E00E94611C60EA71E082E1FD
:104D700095E00E94611C6CE871E082E195E00E9480
:104D8000611C6FE771E082E195E00E94611C109266
:104D90006D026DE573E082E195E00E94611C66E8BA
:104DA00072E082E195E00E94DA052AE043E050E0FB
:104DB00060E070E082E195E00E94131B82E195E0E3
:104DC0000E944C1C80918005882321F08BE795E0A0
:104DD0000E94F10E10925C0510925A051092570530
:104DE0001092560583E0809355050E949B058B0128
:104DF00061E0809155050E941C0461E08091550599
:104E00000E94EE030E94B71282E580934F05109234
:104E1000500580914F05909150050E9440077AE01F
:104E2000F72E8FEF0E941B07FA94F110FACF81E55D
:104E300095E00E94850720E030E0A90160E081E56F
:104E400095E00E949B07F82E80935B05F1E08F1799
:104E500009F469C10E949B05601B710B613D77409D
:104E600050F381E08093560581E595E00E9410079C
:104E70006CE672E082E195E00E94611C10929B0258
:104E800069E373E0D5C11093EE041092EF04109221
:104E9000110560E085EB95E00E94CC1581E00E9451
:104EA0006A1341E061E088E60E949D141092A1041B
:104EB0008093A00485EB95E00E948515082F85FD61
:104EC00005C010939A0265ED73E0A4CE1093EE0432
:104ED0001092EF041092110560E085EB95E00E94BE
:104EE000CC15602F6F7D85EB95E00E94CC1581E09D
:104EF0000E946A136AE070E080E090E00E94690519
:104F0000E0CF62E773E082E195E00E94611C1092BD
:104F10009A02DCCED8011B968C918F3F41F061E064
:104F20000E941C0461E0F80183850E94EE03D80111
:104F30008D919C91892B09F4BCC00E94B71281E02D
:104F4000F801838F8091C3059091C405009709F4FF
:104F5000DBC020ED298321E030E0AE014F5F5F4FE1
:104F6000BA010E948116898190E0B0E0A0E08093B0
:104F7000CC059093CD05A093CE05B093CF05883591
:104F80009105A105B10509F0DECE88E80E94FF1663
:104F90009093D5058093D4058AE80E94FF169093DC
:104FA000D7058093D6058CE80E94FF169093D9050B
:104FB0008093D8058EE80E94FF169093DB058093BE
:104FC000DA0580E90E94FF169093DD058093DC05E9
:104FD00082E90E94FF169093DF058093DE0584E945
:104FE0000E94FF169093E1058093E00586E90E94F8
:104FF000FF169093E3058093E20588E90E94FF166F
:105000009093E5058093E4058AE90E94FF1690934A
:10501000E7058093E6058CE90E94FF169093E90569
:105020008093E8058EE90E94FF169093EB0580932C
:10503000EA058091CC059091CD05A091CE05B09167
:10504000CF05892B8A2B8B2B41F050E040E070E09C
:1050500060E085E090E00E94401664E670E080E049
:1050600090E00E94690567E072E082E195E00E94AD
:10507000611C8091CC059091CD05A091CE05B09199
:10508000CF05892B8A2B8B2B41F044E050E064E064
:1050900070E082E090E00E9440166FEE71E082E1E5
:1050A00095E00E94611C81E080936D026CE473E0E6
:1050B00072CE61E0F80184850E941C04D8011A9622
:1050C0008C911A978B7FE1F460E01C968C910E9482
:1050D000EE03D8011D968C918F3F41F061E00E9454
:1050E0001C0461E0F80185850E94EE03D8011E963C
:1050F0008C918F3F09F423CF60E00E941C041FCFE6
:1051000061E0F8018485E3CF80ED898321E030E020
:10511000AE014F5F5F4FBA018091C5059091C60502
:105120000E945B0720CF2AEA31E040E050E068E0CF
:1051300081E595E00E949B0782FF2AC0F0925C0502
:1051400080915C05C12CD12CE12C50E4F52E8230ED
:1051500019F0C12CD12C760120E030E0A90167E3E1
:1051600081E595E00E949B07A701960169E281E530
:1051700095E00E949B0780935B058823D1F00E94F5
:105180009B05601B710B613D774030F388E06ACE70
:1051900064E0F62E0E94220780935B05FA94F110DA
:1051A000F9CF8A3A11F082E05DCE82E080935C050F
:1051B000C7CF80915C058230D1F420E030E0A901B6
:1051C0006AE381E595E00E949B07882311F086E061
:1051D00049CE0E942207807C803C19F483E08093B2
:1051E0005C050E9422070E9422070E94220781E597
:1051F00095E00E94100780E580934F0510925005BE
:1052000081E00E94BA09882309F4F9C28BE795E08E
:105210000E94710C882309F42BCE6EE472E082E1C7
:1052200095E00E94611C81E080939B026AE273E03A
:1052300082E195E00E94611C6AE173E082E195E001
:105240000E94611C64E173E082E195E00E94DA054E
:1052500080919A0265E073E0811102C06EEF72E006
:1052600082E195E00E94611C68E073E082E195E0D4
:105270000E94DA0580916D0261EF72E0811102C037
:105280006AEE72E082E195E00E94611C64EF72E0D8
:1052900082E195E00E94DA0580919B0266ED72E062
:1052A000811102C06FEC72E082E195E00E94611C06
:1052B00069ED72E082E195E00E94611C80919B02A1
:1052C00069EC72E0811102C06FEB72E082E195E05F
:1052D0000E94611C64EA72E082E195E00E94611C18
:1052E000CE01C196C357DF4F99838883CD58D040F4
:1052F00080919A02882309F489C2CE018B579F4F6F
:105300000E94731C382E882309F480C2C557DF4FD2
:105310008881CB58D0401F928F93C657DF4F88812A
:10532000CA58D0401F928F93C757DF4F8881C95802
:10533000D0401F928F93C857DF4F8881C858D04004
:105340001F928F93C957DF4F8881C758D0401F9253
:105350008F93CA57DF4F8881C658D0408F93CB5761
:10536000DF4F8881C558D0408F93AFE8B1E0BF933D
:10537000AF931F9280E28F9321E030E02C0F3D1F0E
:105380003F932F930E94ED370FB6F894DEBF0FBE08
:10539000CDBF20906D02222009F44AC281EC95E035
:1053A0000E944D172B013C018091CC059091CD05B9
:1053B000A091CE05B091CF05892B8A2B8B2B09F4B8
:1053C0002DC281EC95E00E94E11720E030E048EC2E
:1053D00052E40E94F9326B017C01A3019201C301E6
:1053E000B2010E946235811131C0A7019601C70147
:1053F000B6010E946235811129C020E030E040E210
:1054000052ECC301B2010E94F43287FD1FC020E0BC
:1054100030E04AEA52E4C301B2010E94A0341816F7
:10542000ACF020E030E046E953E4C701B6010E9449
:10543000F43287FD0BC020E030E849E854E4C701AE
:10544000B6010E94A03418160CF05FC06AE070E04C
:1054500080E090E00E94690581EC95E00E944D1784
:105460002B013C018091CC059091CD05A091CE05FA
:10547000B091CF05892B8A2B8B2B09F4D4C181ECF9
:1054800095E00E94E11720E030E048EC52E40E94F1
:10549000F9326B017C01A3019201C301B2010E94A8
:1054A00062358111C5C1A7019601C701B6010E94ED
:1054B00062358111BDC120E030E040E252ECC30111
:1054C000B2010E94F43287FDB3C120E030E04AEA25
:1054D00052E4C301B2010E94A03418160CF4A8C112
:1054E00020E030E046E953E4C701B6010E94F432FF
:1054F00087FD9EC120E030E849E854E4C701B601C9
:105500000E94A03418160CF493C120E030E54DE75A
:1055100054E4C701B6010E94F93221E03EED42E4B5
:105520005EE30E9412354B015C018091470290912D
:105530004802AC014F5F5F4F5093480240934702CF
:1055400065E070E00E9492308C01000F111F000F87
:10555000111F0D5C1D4FA501940160E070E080E813
:105560009FE30E94873220E03AE24DE257E40E9436
:10557000A534D8016D937D938D939C93139784E10B
:10558000E3E3F2E0DE01919601900D928A95E1F756
:105590008E010F5D1F4FC157DF4F19830883CF580E
:1055A000D040C157DF4FA881B981CF58D040149661
:1055B0008D919D910D90BC91A02DCD56DF4F88838C
:1055C0009983AA83BB83C359D040F801808091801E
:1055D000A280B380A5019401BC01CD010E94F432E8
:1055E00087FF19C0CD56DF4F88819981AA81BB8181
:1055F000C359D040F80180839183A283B383C157FC
:10560000DF4FA881B981CF58D04014968D929D92DA
:10561000AD92BC921797C157DF4FE881F981CF58FF
:10562000D0403496C157DF4FF983E883CF58D0403C
:10563000C357DF4F28813981CD58D040E217F30797
:1056400009F0AFCF0C5F1F4FC357DF4FE881F981DF
:10565000CD58D040E017F10709F09DCF89A49AA456
:10566000ABA4BCA480919902882309F46AC02220CB
:1056700009F44AC1BE016F5F7F4F82E195E00E944D
:10568000041B62E076E082E195E00E94DA0521E009
:10569000B301A20182E195E00E94661B6DEF75E007
:1056A00082E195E00E94DA0521E0B701A60182E1DE
:1056B00095E00E94661B68EF75E082E195E00E942C
:1056C000DA0521E0B501A40182E195E00E94661BA4
:1056D00066EF75E082E195E00E94611C809199027D
:1056E000882379F180919A02882359F18091690287
:1056F00090916A02A0916B02B0916C02C157DF4F8A
:1057000088839983AA83BB83CF58D04020E030E0C0
:10571000A901BC01CD010E94F432811192C020E0A8
:1057200030E0A901C501B4010E94A03418160CF0A4
:1057300088C08092690290926A02A0926B02B09235
:105740006C0280919B02882371F0809199028823DA
:1057500009F495C4332009F4C8C12110DCC088ECD9
:1057600091E00E940F1E809162029091990299230C
:1057700009F487C481112EC40E949B0500915E022A
:1057800010915F022091600230916102601B710BE9
:10579000820B930B683E73408105910508F463C248
:1057A00080910401873009F0A7C1E8E6F4E0149184
:1057B00017FD4CC261E087E00E941C04112309F42C
:1057C0000DC2123009F022C28091B100887F826040
:1057D0008093B10087EC8093B30088EE93E0A0E063
:1057E000B0E080934E0290934F02A0935002B0938A
:1057F00051028091700082608093700027C280E027
:105800000E94BA09882309F433CB00CD6DEA71E018
:10581000CE0101960E94D737312CBBCD60E070E0FD
:1058200080EC9FE7D2CD60E070E080EC9FE72BCE6C
:10583000812C912C54017501640124013501212C26
:1058400011CF80916802811130C020E030E040E843
:105850005FE3C157DF4F688179818A819B81CF588F
:10586000D0400E9488329B01AC01C501B4010E9466
:10587000A03418160CF065CF81E0809368026CEDBF
:1058800075E082E195E00E94611CCE0181960E9444
:10589000731C44EB51E066EB71E0882309F451CFAF
:1058A000CE0181960E94591D4CCF809167028111D3
:1058B00048CF20E030E040E85FE3C157DF4F688128
:1058C00079818A819B81CF58D0400E9488329B0188
:1058D000AC01C501B4010E94F43287FF32CF81E0F0
:1058E0008093670262EC75E082E195E00E94611CA2
:1058F000CE0181960E94731C882309F422CF4EEBBF
:1059000051E060EC71E0CCCF6AEB75E082E195E0AC
:105910000E94611C16CFE091B305F091B405309759
:1059200019F0858181110FC066E574E082E195E090
:105930000E94611C6AEA75E082E195E00E94611CA8
:1059400080ED91E00ECFCB57DF4F48815981C5588C
:10595000D04070E060E02AE08AE995E00E94131BE5
:1059600064E574E08AE995E00E94DA05C957DF4FE3
:105970008881C758D0408A3030F462E574E08AE903
:1059800095E00E94DA05C957DF4F6881C758D040BB
:105990008AE995E00E945F1B60E574E08AE995E082
:1059A0000E94DA05C857DF4F8881C858D0408A3036
:1059B00030F46EE474E08AE995E00E94DA05C85795
:1059C000DF4F6881C858D0408AE995E00E945F1B8C
:1059D0006CE474E08AE995E00E94DA05C757DF4F6E
:1059E0008881C958D0408A3030F46AE474E08AE98A
:1059F00095E00E94DA05C757DF4F6881C958D0404B
:105A00008AE995E00E945F1B68E474E08AE995E00A
:105A10000E94DA05C657DF4F8881CA58D0408A30C5
:105A200030F466E474E08AE995E00E94DA05C6572E
:105A3000DF4F6881CA58D0408AE995E00E945F1B19
:105A400064E474E08AE995E00E94DA05C557DF4F07
:105A50008881CB58D0408A3030F462E474E08AE91F
:105A600095E00E94DA05C557DF4F6881CB58D040DA
:105A70008AE995E00E945F1B60E474E08AE995E0A2
:105A80000E94DA0522E0B301A2018AE995E00E94B2
:105A9000661B6EE374E08AE995E00E94DA0522E075
:105AA000B701A6018AE995E00E94661B6CE374E0E9
:105AB0008AE995E00E94DA0522E0B501A4018AE9AD
:105AC00095E00E94661B8AE995E00E944C1C8AE9D9
:105AD00095E00E94FB1080919C0590919D05892B7B
