:100000000C942A040C9452040C9452040C94520440
:100010000C9452040C9452040C9452040C94CB246F
:100020000C9452040C9452040C9452040C945204F8
:100030000C9452040C9452040C9452040C945204E8
:100040000C9481240C9452040C944D250C94272577
:100050000C9452040C9452040C9452040C945204C8
:100060000C947F250C94520407634236B79BD8A7A3
:100070001A39685618AEBAAB558C1D3CB7CC5763CD
:10008000BD6DEDFD753EF6177231BF000000803F7B
:1000900008000000BE922449123EABAAAA2ABECD97
:1000A000CCCC4C3E00000080BEABAAAAAA3E000009
:1000B0000000BF000000803F000000000008417801
:1000C000D3BB4387D1133D190E3CC3BD4282AD2B38
:1000D0003E68EC8276BED98FE1A93E4C80EFFFBE30
:1000E00001C4FF7F3F0000000000202045787065BC
:1000F0006374656420372062797465732C20676FA0
:10010000743A2000202028313D6461746120746FAE
:100110006F206C6F6E672C20323D4E41434B206F39
:100120006E20616464722C20333D4E41434B206F3E
:100130006E20646174612C20343D6F74686572298F
:10014000002020493243204572726F7220436F6451
:10015000653A20007C3C3E5E2B3D3F2F5B5D3B2C97
:100160002A225C002020474E44202D3E20474E444A
:10017000002020564343202D3E20332E3356206F3F
:100180007220355600202053434C202D3E2041350F
:10019000002020534441202D3E2041340043686517
:1001A000636B20776972696E673A00E29C9720461C
:1001B00061696C656420746F20696E697469616C33
:1001C000697A6520424D5032383020766961204985
:1001D00032432100436F6E66696775726174696F9F
:1001E0006E20636F6D706C6574652E00E29C9320C9
:1001F000424D5032383020696E697469616C697A99
:100200006564207375636365737366756C6C7921BF
:1002100000496E697469616C697A696E6720424D44
:10022000503238302028493243206D6F6465292EC2
:100230002E2E0053443A20496E697469616C697AC4
:100240006174696F6E207375636365737366756C33
:100250000053443A20496E697469616C697A61742B
:10026000696F6E206661696C65640053443A204989
:100270006E697469616C697A696E67207769746800
:100280002043532070696E20000A436F6D6D616ECC
:1002900064733A204C3D53746172742C20533D5367
:1002A000746F702C20443D44656C6574652C20424D
:1002B0003D546573742062757A7A65722C20483DCE
:1002C00048656C700053442063617264206E6F74E3
:1002D00020617661696C61626C6500526561647968
:1002E000202D205072657373204C20746F2073741E
:1002F000617274206C6F6767696E67004641494C94
:100300004544004F4B003D3D3D3D3D3D3D3D3D3D68
:100310003D3D3D3D3D3D3D3D3D004641494C454413
:10032000004F4B00534420436172643A2000464121
:10033000494C4544004F4B004261726F6D657465D6
:10034000723A20005254433A20000A3D3D3D20536A
:10035000595354454D20535441545553203D3D3D30
:1003600000E29C932053442063617264204F4B0051
:10037000E29AA02053442063617264206661696C34
:10038000656400E29C93204261726F6D65746572D2
:10039000204F4B00E29AA0204261726F6D65746538
:1003A00072206661696C656400E29C93205254433C
:1003B0002074696D6520736574207375636365735C
:1003C0007366756C6C792100436F756C64206E6F79
:1003D000742072656164205254432074696D652EE7
:1003E0002053657474696E672064656661756C740A
:1003F0002074696D652E2E2E00E29C93205254438A
:100400002074696D6520736574207375636365730B
:100410007366756C6C7921005254432074696D6564
:10042000206170706561727320756E7365742E2023
:1004300053657474696E6720746F2063757272659A
:100440006E742074696D652E2E2E00E29C932052EE
:1004500054432074696D652069732076616C69640A
:100460002C206C656176696E6720697420756E63F7
:1004700068616E6765642E003A003A0020002D0026
:100480002D0043757272656E742052544320746956
:100490006D653A2000E29C9320525443204F4B005C
:1004A000E29AA020525443206661696C656400E2C0
:1004B0009C932053504920696E697469616C697A14
:1004C000656400E29C932042757A7A657220696EB9
:1004D000697469616C697A656400E29C9320427575
:1004E00074746F6E20696E697469616C697A656491
:1004F00020776974682070756C6C2D757000555389
:100500004C49205061796C6F61643A20466C696790
:1005100068742044617461204C6F67676572005392
:10052000443A205772697465206572726F72206454
:1005300065746563746564002C002C002C00300029
:100540003A0030003A003000200030002D0030002A
:100550002D0053443A2046696C65206E6F74206FFD
:1005600070656E00000000002300260029004C6F1B
:100570006767696E672073746F70706564004C6F95
:100580006767696E67207374617274656400427591
:1005900074746F6E20707265737365640050726559
:1005A00073732027482720666F722068656C70007F
:1005B000556E6B6E6F776E20636F6D6D616E643A12
:1005C0002000436F6D6D616E64733A204C3D53742F
:1005D0006172742C20533D53746F702C20443D4441
:1005E000656C6574652C20423D546573742062759A
:1005F0007A7A65720042757A7A65722074657374CE
:1006000020636F6D706C6574650054657374696EFA
:10061000672062757A7A65722E2E2E0046696C65A7
:10062000206E6F7420666F756E64206F7220646533
:100630006C657465206661696C65640046696C650B
:100640002064656C657465640044656C6574696EEE
:100650006720646174612E6373762E2E2E005374AE
:100660006F7070696E67206C6F6767696E672E2E9A
:100670002E004E6F742063757272656E746C7920F3
:100680006C6F6767696E67004C6F6767696E67209C
:1006900073746F707065640053746F7070696E6707
:1006A000206C6F6767696E672E2E2E004C6F676730
:1006B000696E67207374617274656400537461724B
:1006C00074696E67206C6F6767696E672E2E2E00E7
:1006D000416C7265616479206C6F6767696E672031
:1006E000746F3A2000534420777269746520666104
:1006F000696C6564004E4F2D4241524F006D006899
:1007000050612000C2B043200020000000000024FF
:100710000027002A00000000080002010000030476
:1007200007000000000000000053443A20417070B0
:10073000656E64696E6720746F206578697374698B
:100740006E672066696C650053443A204E657720D9
:1007500066696C65202D206865616465722061643E
:100760006465640054696D657374616D702C5465C3
:100770006D705F432C50726573737572655F68505E
:10078000612C416C7469747564655F6D0053443A03
:100790002046696C65206F70656E656420737563B3
:1007A0006365737366756C6C790053443A204368D3
:1007B00065636B20776972696E6720616E64206380
:1007C0006172640053443A204661696C6564207428
:1007D0006F206F70656E2066696C650053443A2027
:1007E0004F70656E696E672066696C6520005344C2
:1007F0003A20416C7265616479206C6F6767696E3D
:100800006700010204081020408001020408102043
:1008100001020408102000000000250028002B0021
:100820000404040404040404020202020202030396
:1008300003030303022C2C002C002C0030003A0090
:1008400030003A003000200030002D0030002D0034
:100850009E26113111241FBECFEFD8E0DEBFCDBFE1
:1008600011E0A0E0B1E0ECE1F7E702C005900D92E5
:10087000A43DB107D9F725E0A4EDB1E001C01D9278
:10088000A83DB207E1F714E0C9E2D4E004C0219723
:10089000FE010E945833C832D107C9F70E94382799
:1008A0000C94813B0C94000008950895833081F0EE
:1008B00028F4813099F08230A9F008958730A9F0AA
:1008C0008830C9F08430B1F4809180008F7D03C0FE
:1008D000809180008F7780938000089584B58F7712
:1008E00084BD089584B58F7DFBCF8091B0008F7754
:1008F0008093B00008958091B0008F7DF9CF1F9351
:10090000CF93DF93282F30E0F901EB5EF84F84910D
:10091000F901EE5FF74FD491F901E05EF74FC49112
:10092000CC23A9F0162F81110E945604EC2FF0E081
:10093000EE0FFF1FEA5EF74FA591B4918FB7F894C1
:10094000EC91111108C0D095DE23DC938FBFDF91AD
:10095000CF911F910895DE2BF8CFCF93DF9390E0D6
:10096000FC01EE5FF74F2491805E974FFC0184916C
:100970008823C9F090E0880F991FFC01E55FF84FCC
:10098000A591B491FC01EA5EF74FC591D491611134
:100990000DC09FB7F8948C91209582238C93888109
:1009A000282328839FBFDF91CF910895623051F4AF
:1009B0009FB7F8943C91822F809583238C93E88194
:1009C0002E2BEFCF8FB7F894EC912E2B2C938FBF5B
:1009D000EACF4F925F926F927F928F929F92AF92E7
:1009E000BF92CF92DF92EF92FF920F931F93CF931C
:1009F0008C014A015B0180910501873099F08F3F9E
:100A000009F451C0CF911F910F91FF90EF90DF90AB
:100A1000CF90BF90AF909F908F907F906F905F909E
:100A20004F900895E4E3F8E0C491C7FDEBCF61E097
:100A300087E00E94AD04CC2319F0C23009F0E7C072
:100A4000712C612C60E472E48FE090E0A3019801C6
:100A50000E948F3169017A0181E0C81AD108E1084A
:100A6000F108C23009F08EC092E08FEFC816D104B1
:100A7000E104F10489F084F060E970ED83E090E036
:100A8000A30198010E948F3169017A0181E0C81A9F
:100A9000D108E108F10893E08091B100887F892BAB
:100AA0008093B10092C087E080930501E4E3F8E011
:100AB000C491CF3F09F4A6CFC13021F150F0C2302C
:100AC00009F43EC0C7FD9ECF61E087E00E94AD04FF
:100AD000B4CF14BC15BC84B5826084BD85B581607B
:100AE00085BDE7E2F8E0E491F0E0EE0FFF1FEA5E7B
:100AF000F74F85919491E9E0F8E0E491E093720278
:100B0000C0E095CF1092800010928100809181000A
:100B10008860809381008091810081608093810052
:100B2000E7E2F8E0E491F0E0EE0FFF1FEA5EF74F36
:100B300085919491E9E0F8E0E491E093710277CF38
:100B40001092B0001092B1008091B000826080934A
:100B5000B0008091B10081608093B100E7E2F8E0DD
:100B6000E491F0E0EE0FFF1FEA5EF74F859194915C
:100B70009093700280936F02E9E0F8E0E491E093D3
:100B80006E0255CF8FEFC816D104E104F104A9F02D
:100B9000A4F068E478EE81E090E0A30198010E945F
:100BA0008F3169017A0181E0C81AD108E108F108A2
:100BB00094E0C11171CF93E003C092E0C1116CCFFA
:100BC00085B5887F892B85BDC0E0D801AA0FBB1FE2
:100BD000A50194010E94AE3128EE33E040E050E0E0
:100BE0000E946D31C13061F1C230E1F1C1110ACF13
:100BF000C7BC20937B0230937C0240937D025093CC
:100C00007E0280916E00826080936E00FBCE980120
:100C100050E040E060E072E18AE790E00E948F31AE
:100C200069017A0181E0C81AD108E108F108C130F0
:100C300061F680918100887F816080938100C5CFBB
:100C4000D0928900C0928800209377023093780276
:100C50004093790250937A0280916F008260809372
:100C60006F00D0CEC092B300209373023093740211
:100C70004093750250937602809170008260809359
:100C80007000C0CE8230910538F0880F991F880F10
:100C9000991F05970197F1F70895BF92CF92DF92C0
:100CA000EF92FF920F931F93CF93DF93EC01888114
:100CB0009981892B81F06EBD0DB407FEFDCF0EB575
:100CC000802FDF91CF911F910F91FF90EF90DF90D8
:100CD000CF90BF9008958885998511E0892B09F000
:100CE00010E8BB24B394862F812309F0B12CF62E93
:100CF0002C813D814E815F8160E271EA87E090E066
:100D00000E946D31E22E00E0C22ED12CEE2019F0AF
:100D1000C6010E9442068A85982F977F09F044C039
:100D20008D858F3F89F09F2D912381E009F480E02C
:100D30008B1551F0EF85F8898F89992379F190818E
:100D4000892B8083BB24B394E989FA898081998DAA
:100D5000892B8083EE2019F0C6010E9442068E8501
:100D60008F3F39F0EB89FC898081988D892309F0C8
:100D7000012BE989FA899081898D80958923808367
:100D800088859985892B09F067C0110F1111BECF95
:100D90008E858F3F09F094CF0F2D92CF9081809553
:100DA00089238083B12CD0CF8C3099F58D858F3FEE
:100DB00049F0EF85F8898F899F2D912331F190813A
:100DC000892B8083E989FA899081898D809589238F
:100DD0008083EE2019F0C6010E944206E989FA8953
:100DE0008081998D892B8083EE2019F0C6010E94A5
:100DF00042068E858F3F21F2EB89FC898081988D98
:100E0000892309F4BDCF012BBBCF90818095892325
:100E1000D8CFE989FA898081998D892B8083EE204A
:100E200019F0C6010E9442068D858F3F49F0EF857B
:100E3000F8898F899F2D912359F09081892B808388
:100E4000E989FA899081898D809589238083D1CF22
:100E5000908180958923F3CF169598CF3FB7F8946A
:100E60008091480290914902A0914A02B0914B02B0
:100E700026B5A89B05C02F3F19F00196A11DB11DF5
:100E80003FBFBA2FA92F982F8827BC01CD01620F31
:100E9000711D811D911D42E0660F771F881F991FEC
:100EA0004A95D1F708958F929F92AF92BF92CF92B9
:100EB000DF92EF92FF924B015C010E942E076B01C3
:100EC0007C010E942E076C197D098E099F09683EDE
:100ED000734081059105A8F321E0821A9108A108C9
:100EE000B10888EEC80E83E0D81EE11CF11C811405
:100EF0009104A104B10429F7FF90EF90DF90CF9007
:100F0000BF90AF909F908F9008952FB7F894609105
:100F100044027091450280914602909147022FBF92
:100F200008959091050189130BC0E4E3F8E0E49182
:100F30009FEF90930501E13049F028F0E23061F035
:100F400060E00C947F0410926E00FACF90916F00D5
:100F50009D7F90936F00F4CF909170009D7F909350
:100F6000700091E09093B0009091B100987F9460F0
:100F70009093B1001092B300E3CFDC01ED91FC91AE
:100F80000190F081E02D0994EF92FF920F931F934F
:100F9000CF93DF938C017B01D0E0C0E0F701EC0F31
:100FA000FD1F6491662361F0D801ED91FC910190E1
:100FB000F081E02DC8010995892B11F02196EECF23
:100FC000CE01DF91CF911F910F91FF90EF90089587
:100FD000AF92BF92CF92DF92EF92FF920F931F9347
:100FE000CF93DF936C017B018B01040F151FEB0185
:100FF0005E01AE18BF08C017D10759F06991D6013C
:10100000ED91FC910190F081E02DC6010995892BAD
:1010100079F7C501DF91CF911F910F91FF90EF906C
:10102000DF90CF90BF90AF900895FC01538D448D19
:10103000252F30E0842F90E0821B930B541710F083
:101040000F96089501970895FC01918D828D981750
:1010500061F0A28DAE0FBF2FB11D5D968C91928D68
:101060009F5F9F70928F90E008958FEF9FEF08959C
:10107000FC01918D828D981731F0828DE80FF11D62
:10108000858D90E008958FEF9FEF0895FC01918D7D
:10109000228D892F90E04096821B91098F709927AD
:1010A000089588EF94E00E94460821E0892B09F416
:1010B00020E0822F089580E090E0892B29F00E94A3
:1010C000510881110C9400000895FC01A48DA80F13
:1010D000B92FB11D9D962C91848D90E001968F7053
:1010E0009927848FA689B7892C93A089B1898C917F
:1010F000837080648C93938D848D981306C00288CE
:10110000F389E02D80818F7D80830895EF92FF9297
:101110000F931F93CF93DF93EC0181E0888F9B8D1A
:101120008C8D98131AC0E889F989808185FF15C0D4
:101130009FB7F894EE89FF896083E889F9898081F7
:101140008370806480839FBF81E090E0DF91CF91C6
:101150001F910F91FF90EF900895F62E0B8D10E0E8
:101160000F5F1F4F0F701127E02E8C8D8E110CC05A
:101170000FB607FCFACFE889F989808185FFF5CFA2
:10118000CE010E946508F1CFEB8DEC0FFD2FF11D14
:10119000F5A69FB7F8940B8FEA89FB89808180625E
:1011A000D1CFCF93DF93EC01888D8823B9F0AA8942
:1011B000BB89E889F9898C9185FD03C0808186FD12
:1011C0000DC00FB607FCF7CF8C9185FFF2CF808161
:1011D00085FFEDCFCE010E946508E9CFDF91CF9169
:1011E00008950895FC0183858F3F19F061E00C9408
:1011F0007F04089561E0FC0184810E947F04809156
:10120000190281111092190208958EBD00000DB4CB
:1012100007FEFDCF8EB508958FEF0C9405090F934F
:101220001F93CF93DF93EC010E9485078B010E94EF
:101230000C098F3F69F00E948507601B710B6C17CA
:101240007D07A8F380E0DF91CF911F910F91089562
:1012500081E0F9CF8CBD9DBD0895CF93DF93EC0164
:1012600088819981892B31F0EA81FB81808191818C
:101270000E942A098B858F3F29F060E0DF91CF9192
:101280000C947F04DF91CF910895CF92DF92EF927B
:10129000FF920F931F93CF93DF938C01EB016A01B1
:1012A00079010E942D096881C8010E944D06E6015E
:1012B000EC0CFD1C6FEFC8010E944D068993CE1502
:1012C000DF05C1F7C8010E94F20881E0DF91CF91EC
:1012D0001F910F91FF90EF90DF90CF900895CF93E3
:1012E000DF93EC0180911902811109C081E08093A4
:1012F000190280913505909136050E942A0960E017
:101300008C81DF91CF910C947F048F929F92AF924A
:10131000BF92FF920F931F93CF93DF93EC01F62EB2
:1013200049015A018E81882389F08F8198859C011B
:101330002F5F3F4F38872F838230924018F40E94EE
:101340000C09F3CFCE010E94FA081E82CE010E9442
:101350006F098CE291E00E940F098F2D80640E943A
:10136000050908E110E0D501C401002E04C0B695BE
:10137000A795979587950A94D2F70E94050908507A
:101380001109083F8FEF180771F785E9FF2021F059
:1013900028E087E8F2128FEF0E94050910E00E9412
:1013A0000C098A8787FF04C01F3F11F01F5FF7CF2A
:1013B000DF91CF911F910F91FF90BF90AF909F90C1
:1013C0008F900895AF92BF92CF92DF92EF92FF92EB
:1013D0000F931F93CF93DF93EC016901C801820F34
:1013E000931F8130924050F58E81882379F0888157
:1013F0009981AA81BB8184179507A607B70731F4A5
:101400008F819885C816D90608F042C04883598351
:101410006A837B838B85833039F089E0440F551FC5
:10142000661F771F8A95D1F79A01AB0161E1CE0162
:101430000E948509882389F083E08D83CE010E9474
:10144000FA0880E0DF91CF911F910F91FF90EF900C
:10145000DF90CF90BF90AF9008950E9485075B0109
:101460000E940C098A878F3F69F40E9485076A19D8
:101470007B096D327140A0F38FE08D83CE010E9415
:10148000FA08DCCF8E3F89F418861F8281E08E83B4
:101490008F8198858C159D0550F40E940C098F81D1
:1014A0009885019698878F83F3CF8DE0E6CF67010B
:1014B000E00EF11E0E940C09F60181936F01EE15FA
:1014C000FF05C1F78F819885080F191F18870F83B3
:1014D0008985882319F001151240A0F08E81882398
:1014E00089F08F8198859C012F5F3F4F38872F832C
:1014F0008230924018F40E940C09F3CFCE010E9472
:10150000FA081E8281E09ECFCF92DF92EF92FF9287
:101510000F93CF93DF93EC01690182E141155105EF
:101520006105710599F08B85833039F089E0440FAE
:10153000551F661F771F8A95D1F79A01AB0168E1A5
:10154000CE010E948509882319F084E08D832DC087
:101550008EEF0E94050976018EEFD81AF70181916E
:101560007F010E940509EC14FD04C1F78FEF0E9472
:1015700005098FEF0E9405090E940C098A878F7167
:10158000853071F4011116C0CE010E94FA0881E085
:10159000DF91CF910F91FF90EF90DF90CF90089562
:1015A00081E18D83CE010E94FA08CE010E94FA08E3
:1015B00080E0EECF88E592E00E940F09811102C021
:1015C00085E1C4CF20E030E0A9016DE0CE010E94AA
:1015D0008509882311F084E1B9CF0E940C0981119B
:1015E000FACFD2CF0F9340911B0250911C02609111
:1015F0001D0270911E02411551056105710599F09A
:10160000082F22E832E080914C0290914D020E9416
:10161000840A882349F010921B0210921C02109237
:101620001D0210921E0281E00F9108950F93CF9337
:10163000C82F80911A02811105C0C1E08C2FCF9173
:101640000F910895409100015091010160910201B4
:10165000709103010C2F22E832E080914C029091AE
:101660004D020E94840A811102C0C0E0E7CFCC2362
:1016700021F381E00E94F20A8823B9F310921A0242
:10168000DDCF8F929F92AF92BF92EF92FF920F9316
:101690001F93CF934B015C01C42F80910001909167
:1016A0000101A0910201B091030188159905AA05D5
:1016B000BB0551F181E00E94160B81110BC080E047
:1016C000CF911F910F91FF90EF90BF90AF909F909F
:1016D0008F90089582E8E82E82E0F82E00E012E074
:1016E00030E020E0B501A40180914C0290914D02C0
:1016F0000E94E209882319F380920001909201016F
:10170000A0920201B092030140911A024C2B409327
:101710001A0281E0D5CFCF93DF93EC016E857F85F0
:101720008889998941E00E94410B882351F08A8978
:1017300020E2829FC00111248E579D4FDF91CF91EF
:10174000089590E080E0FACF8F929F92AF92BF927F
:10175000CF92DF92EF92FF92CF9327E335E0309361
:101760004D0220934C02882309F46DC040E060E0F4
:1017700070E0CB010E94410B81110BC080E0CF9142
:10178000FF90EF90DF90CF90BF90AF909F908F90A1
:101790000895809140048F7789F780914C0490914F
:1017A0004D04A0914E04B0914F0484369105A105DB
:1017B000B10520F3C0904804D0904904E0904A0459
:1017C000F0904B04C114D104E104F104B9F240E0FB
:1017D000C701B6010E94410B882381F280918D02DE
:1017E00090918E028115924049F6A0919202AA230F
:1017F00029F260919002709191026115710509F4CE
:10180000BDCF20918F02222309F4B8CFA0935505B4
:101810002093470590E080E030E0E1E0F0E0C82F61
:10182000AF01082E02C0440F551F0A94E2F7241797
:10183000350769F041E0480F01968930910579F745
:10184000409350059BCFC12CD12C7601C0CF809303
:101850005005209198023091990250E040E0211506
:10186000310541F42091A6023091A7024091A802CF
:101870005091A902209348053093490540934A05A9
:1018800050934B0546015701860E971EA11CB11CB3
:101890008092560590925705A0925805B09259052E
:1018A000E0919302F0919402F0935C05E0935B0564
:1018B000B0E00E94AE31DC01CB01880D991DAA1D5C
:1018C000BB1D80935D0590935E05A0935F05B0936B
:1018D000600525E0EE0FFF1F2A95E1F7E150FE4F6E
:1018E000EF2FFF27E6958E0F9F1FA11DB11D80933F
:1018F000510590935205A0935305B09354058090E1
:10190000950290909602B12CA12C8114910441F47F
:101910008090A2029090A302A090A402B090A50291
:10192000C81AD90AEA0AFB0AC80CD91CEA1CFB1C13
:1019300004C0F694E794D794C794CA95D2F7C0929E
:101940004C05D0924D05E0924E05F0924F0585EF83
:10195000C8168FE0D806E104F10428F48CE08093E7
:101960005A0581E00CCF80E125EFC2162FEFD20699
:10197000E104F104A0F38091AE029091AF02A09136
:10198000B002B091B10280935D0590935E05A09383
:101990005F05B093600580E2E2CF4F925F926F9255
:1019A0007F928F929F92AF92BF92CF92DF92EF92EF
:1019B000FF920F931F93CF93DF93EC0142305105B9
:1019C0006105710590F480E0DF91CF911F910F9137
:1019D000FF90EF90DF90CF90BF90AF909F908F904F
:1019E0007F906F905F904F90089589859A85AB8521
:1019F000BC850196A11DB11D84179507A607B707E1
:101A000010F3CB88DC88ED88FE888F89803109F05F
:101A100042C0BB27A72F962F852F480159012A01C5
:101A20003B01C80ED91EEA1EFB1E80910001909159
:101A30000101A0910201B0910301C816D906EA067E
:101A4000FB0699F58F898031C1F5B301A2015527B5
:101A500066277727440F551F4E575D4FFA01918235
:101A6000808280911A02816080931A028A89823072
:101A700080F08D819E81AF81B8858C0D9D1DAE1D3E
:101A8000BF1D80931B0290931C02A0931D02B09374
:101A90001E0281E099CFDB01CA01E7E0B695A79568
:101AA00097958795EA95D1F7B8CF40E0C701B60181
:101AB0000E94410B8111C6CF86CFB301A2014F779F
:101AC000552766277727440F551F440F551F4E573C
:101AD0005D4FFA0180829182A282B382C2CF8F923F
:101AE0009F92AF92BF92CF92DF92EF92FF920F93AD
:101AF0001F93CF93DF93FC0181859285A385B485E5
:101B00000196A11DB11D84179507A607B70770F4AC
:101B100080E0DF91CF911F910F91FF90EF90DF90C8
:101B2000CF90BF90AF909F908F90089583889488B6
:101B3000A588B6888789803189F5BB27A72F962F7E
:101B4000852FE9016A017B018F01BC01CD01680D80
:101B5000791D8A1D9B1D8090000190900101A0902D
:101B60000201B090030186169706A806B90601F592
:101B7000F8018789803111F5DD24EE24FF24F60178
:101B8000EE0FFF1FEE57FD4F80819181B0E0A0E086
:101B900088839983AA83BB8381E0BBCFDB01CA0121
:101BA000C7E0B695A79597958795CA95D1F7C9CF00
:101BB00040E00E94410B8111DBCFAACFE894C7F827
:101BC000DD24EE24FF24F601EE0FFF1FEE0FFF1FB2
:101BD000EE57FD4F80819181A281B381BF70D8CF34
:101BE0004F925F926F927F92AF92BF92CF92DF92AD
:101BF000EF92FF920F931F93CF93DF9300D000D00B
:101C0000CDB7DEB78C0149835A836B837C8359013E
:101C1000C12CD12C7601412C82E0582E612C712CE4
:101C200049815A816B817C819E012F5F3F4FC801A2
:101C30000E946F0D882339F1F8018585A301920177
:101C400004C0220F331F441F551F8A95D2F7DA01B3
:101C5000C901C80ED91EEA1EFB1E49815A816B813B
:101C60007C818789803111F188EF9FEFAFEFBFE072
:101C7000481759076A077B0798F2F501C082D1829D
:101C8000E282F38281E00F900F900F900F90DF912E
:101C9000CF911F910F91FF90EF90DF90CF90BF9069
:101CA000AF907F906F905F904F90089588EF9FEF77
:101CB000A0E0B0E0DDCFCF93DF93FC0125812223AC
:101CC00021F080E0DF91CF910895EC0180915A05D9
:101CD000803159F582E08583178A108E118E128E1D
:101CE00080915B0590915C05B0E0A0E025E0880F55
:101CF000991FAA1FBB1F2A95D1F7838B948BA58BA5
:101D0000B68B83E495E09C8F8B8F81E08C831E8261
:101D10001F82188619861A861B861C861D861E86BB
:101D20001F86188A198A1A8ACDCF803251F683E02D
:101D3000858340915D0550915E0560915F057091CE
:101D40006005478B508F618F728F9F012D5E3F4FD3
:101D500083E495E00E94F00D8111D3CFB2CF8F9232
:101D60009F92AF92BF92CF92DF92EF92FF920F932A
:101D70001F93CF93DF93EC018D8181110EC080E022
:101D8000DF91CF911F910F91FF90EF90DF90CF9057
:101D9000BF90AF909F908F9008950B891C892D89DB
:101DA0003E89041715072607370748F34A015B01E8
:101DB000823031F48A869B86AC86BD8681E0E0CF96
:101DC00081149104A104B10449F41E821F82188673
:101DD00019861A861B861C861D86F0CF0A851B85F0
:101DE0002C853D85EB8DFC8D858590E00996B901AC
:101DF000A8014150510961097109082E04C0769566
:101E00006795579547950A94D2F775016401E1E00B
:101E1000CE1AD108E108F10804C0F694E794D794EB
:101E2000C7948A95D2F7C416D506E606F70620F0C1
:101E3000012B022B032B11F58F89988DA98DBA8D5B
:101E40008E839F83A887B9878E010A5F1F4FC114B5
:101E5000D104E104F10409F4ADCF4E815F816885BE
:101E6000798598018B8D9C8D0E946F0D91E0C91A28
:101E7000D108E108F1088111EACF81CFC41AD50A4F
:101E8000E60AF70AE1CF3F924F925F926F927F92FC
:101E90008F929F92AF92BF92CF92DF92EF92FF927A
:101EA0000F931F93CF93DF93CDB7DEB72C970FB669
:101EB000F894DEBF0FBECDBF5C01DC015B968D9058
:101EC0009C905C9716964D905D906D907C901997C4
:101ED000411451046104710409F468C0BFEF4B1A46
:101EE0005B0A6B0A7B0A312CF40181859285A385FC
:101EF000B4859C01AD012F5F3F4F4F4F5F4F298746
:101F00003A874B875C87730162011D821E821F82A4
:101F10001886F40181859285A385B4852D813E8143
:101F20004F815885281739074A075B0708F056C0C4
:101F300089859A85AB85BC858C159D05AE05BF0549
:101F400050F482E0C82ED12CE12CF12C92E0492EE5
:101F5000512C612C712C9E012F5F3F4FB701A601C0
:101F6000C4010E946F0D8823C9F189819A81AB81D8
:101F7000BC81892B8A2B8B2B09F1260137019FEF1E
:101F8000491A590A690A790A2D813E814F8158857B
:101F90002F5F3F4F4F4F5F4F2D833E834F835887B7
:101FA0003FEFC31AD30AE30AF30AB3CFF401408028
:101FB0005180628073803324339496CFC414D50447
:101FC000E604F70409F70FEF1FEF2FEF3FE0B7012B
:101FD000A601C4010E94CD0C811119C080E02C968D
:101FE0000FB6F894DEBF0FBECDBFDF91CF911F912A
:101FF0000F91FF90EF90DF90CF90BF90AF909F90A8
:102000008F907F906F905F904F903F900895D50193
:1020100016964D915D916D917C91199741155105E1
:102020006105710539F097018601C4010E94CD0C4C
:102030008823A1F2D5011696CD92DD92ED92FC9205
:102040001997332051F0D701C6010196A11DB11D8A
:10205000F40180839183A283B383F5018789908DF6
:10206000A18DB28D892B8A2B8B2B39F48481C78A61
:10207000D08EE18EF28E80688483F5018481806247
:10208000848381E0ACCF1F93CF93DF93FC01258144
:10209000222371F1162FEC01848187FF1EC0CF012E
:1020A0000E948B0BFC01892B19F18D81823040F449
:1020B0008B899C89AD89BE89848F958FA68FB78FB8
:1020C0008F89988D938F828F8F89988DA98DBA8DE6
:1020D000B58BA48B8C818F778C83111103C08C817D
:1020E0008F7E8C83812FDF91CF911F910C94160BE3
:1020F00080E0DF91CF911F910895FF920F931F937E
:10210000CF93DF93EC018D81813041F090E080E04E
:10211000DF91CF911F910F91FF9008958C8181FFE6
:10212000F5CF82FD1BC000914C0210914D02C801F9
:102130000E946F090E940C09F82EC8010E94FA083B
:102140008FEFF812E3CF8C8185FF1BC060E0CE01DA
:102150000E9443108C818F7D8C83D8CF4B895C8902
:102160006D897E898A859B85AC85BD858417950799
:10217000A607B707C1F2CE010E94AF0E8111D3CFDF
:10218000C5CF40911B0250911C0260911D027091BD
:102190001E02452B462B472B21F080E00E94F20ABD
:1021A000B5CF80618C832A853B85317080E092E0D9
:1021B000821B930BADCFCF93DF93EC0161E00E94C4
:1021C0004310882311F01D8281E0DF91CF910895A3
:1021D0002F923F924F925F926F927F928F929F9237
:1021E000AF92BF92CF92DF92EF92FF920F931F9325
:1021F000CF93DF9300D000D01F92CDB7DEB77C0124
:102200005B01342E5D83DC0115968C91159781302E
:1022100009F0CEC014962C9021FECAC022FCB4C096
:10222000C32CDD8022947FE027222094B22DB17050
:102230002B2ED7011A964D915D916D917C911D9732
:10224000C114D10409F428C15B968D919C915C97CF
:10225000FC0174807A948A019B0169E03695279588
:10226000179507956A95D1F770228A011170711040
:1022700020C001151105E9F416964D915D916D91FF
:102280007C911997411551056105710509F099C0B7
:1022900057968D919D910D90BC91A02D0097A10511
:1022A000B10509F0B0C0C7010E94430F882309F4AB
:1022B0007FC080E092E0801B910B46018C159D054C
:1022C00008F44C01D7015B964D915C915C97169692
:1022D0008D919D910D90BC91A02D0297A109B109FE
:1022E000FA01258504C0880F991FAA1FBB1F2A95D4
:1022F000D2F74685578560897189840F951FA61F7F
:10230000B71F9C01AD01270D311D411D511D290134
:102310003A01811432E0930609F07BC080910001FC
:1023200090910101A0910201B091030184159505DE
:10233000A605B70559F48FEF9FEFDC0180930001EC
:1023400090930101A0930201B0930301022D950126
:10235000B301A20180914C0290914D020E94840A27
:10236000882331F19EEFB91AC818D908F701828580
:102370009385A485B585880D991DA11DB11D828702
:102380009387A487B58755CFF70143895489658919
:10239000768982859385A485B585481759076A078C
:1023A0007B0709F43DCFC7010E94AF0E811138CFE2
:1023B00081E090E0D70113969C938E93129780E072
:1023C00007C09E012F5F3F4F0E946F0D811102C019
:1023D00090E079C089819A81AB81BC81F701238D1E
:1023E000348DF901278948EF5FEF60E070E020311C
:1023F00021F048EF5FEF6FEF7FE084179507A607A6
:10240000B70708F050CFF70186839783A087B1877D
:1024100050CF0115110599F5D7011A964D915D918F
:102420006D917C911D9753968D919D910D90BC91CE
:10243000A02D481759076A077B0708F181E00E9421
:10244000160B882309F4B4CF409200015092010189
:10245000609202017092030180911A028160809360
:102460001A02C8018E579D4FD5019C01280D391DB8
:10247000FC012E173F0759F04D914193FACF41E0EF
:10248000C301B2010E94410B8111EBCF91CF281BF8
:10249000390BA20EB31E68CFF70183899489A589F1
:1024A000B68984179507A607B70738F48481438B4C
:1024B000548B658B768B80688483F701848183FDE0
:1024C0001AC0832D9D810F900F900F900F900F9049
:1024D000DF91CF911F910F91FF90EF90DF90CF9000
:1024E000BF90AF909F908F907F906F905F904F9034
:1024F0003F902F90089561E0C7010E944310882308
:1025000009F456CFDECFCF93DF931F92CDB7DEB75E
:10251000698341E050E0BE016F5F7F4F0E94E81089
:102520000F90DF91CF910895FC01DB0112968D9100
:102530009C9113979383828382E291E091838083BD
:1025400014968C911497848315968C911597858396
:1025500016964D915D916D917C91199746835783A5
:10256000608771871A964D915D916D917C911D9751
:1025700042875387648775871E964D915D916D9153
:102580007C91519746875787608B718B52968C91BF
:102590005297828B53964D915D916D917C91569798
:1025A000438B548B658B768B57964D915D916D91D6
:1025B0007C915A97478B508F618F728F5B968D916C
:1025C0009C91948F838F08950895FC01818D928D45
:1025D000009719F061E00C9443100895DC015996BE
:1025E000ED91FC913097B9F083899489A589B689DA
:1025F0004285538564857585841B950BA60BB70BA7
:10260000811520E89207A105B10538F08FEF9FE70B
:10261000A0E0B0E0089590E080E00895DC015996D4
:102620008D919C91009739F0DC01ED91FC91048033
:10263000F581E02D099490E080E00895CF93DF9339
:10264000EC01E98DFA8D309749F481E090E09B83AD
:102650008A8390E080E0DF91CF9108951382128207
:10266000898D9A8D0E94E810E98DFA8D228133813F
:10267000232B59F7F0CFCF93DF931F92CDB7DEB75F
:102680006983DC01ED91FC910280F381E02D41E052
:1026900050E0BE016F5F7F4F09950F90DF91CF91A2
:1026A00008952F923F924F925F926F927F928F92F6
:1026B0009F92AF92BF92CF92DF92EF92FF920F93D1
:1026C0001F93CF93DF9300D01F92CDB7DEB7FC01ED
:1026D0008581811118C08FEF9FEF0F900F900F90A1
:1026E000DF91CF911F910F91FF90EF90DF90CF90EE
:1026F000BF90AF909F908F907F906F905F904F9022
:102700003F902F900895848180FFE5CF43895489BD
:102710006589768982859385A485B585312C212CA0
:10272000481759076A077B0719F022242394312C94
:102730006F012101CE0101963C01DF011696BB839A
:10274000AA834114510409F4C5C0F601428553859A
:10275000648575854A01F1E09F22D6015B968D91D3
:102760009C915C978A019B01E9E036952795179526
:102770000795EA95D1F71596EC91E230E9F5FC0161
:10278000628D738D848D958D600F711F821F931FD5
:10279000A12C22E0B22EA818B9084A145B0408F450
:1027A0005201F601248126FD04C0A114F2E0BF0607
:1027B00071F400910001109101012091020130910A
:1027C0000301061717072807390709F05EC040E024
:1027D0000E94410B882309F47ECFC4018E579D4F80
:1027E000D3019C012A0D3B1DFC012E173F0709F464
:1027F0006CC041914D93F9CFDC011496BC90BA9412
:10280000B0228114910479F4B1100DC0452B462BF0
:10281000472B69F5F6018789908DA18DB28D86834E
:102820009783A087B187D6015B96ED91FC915C9769
:1028300016966D917D918D919C91199762507109B9
:1028400081099109258504C0660F771F881F991F8C
:102850002A95D2F70685178520893189600F711F67
:10286000821F931F6B0D711D811D911D91CFD6018C
:1028700016964D915D916D917C9119972A813B81BE
:102880000E946F0D8111CFCF26CF73018501940176
:10289000AB01BC0180914C0290914D020E94E20973
:1028A000882309F418CF6A0C7B1CF6018285938576
:1028B000A485B5858A0D9B1DA11DB11D82879387B7
:1028C000A487B5874A185B083CCF281B390B620EDA
:1028D000731EEBCF2A94232809F0FDCE898190E066
:1028E000FCCEFC01818D928D009711F00C94511358
:1028F0008FEF9FEF08950F931F93CF93DF93EC011A
:10290000898D9A8D10E000E0009799F00E94511394
:102910008C010F3F100769F0898D9A8DFC0142856B
:1029200053856485758541505109610971090E947B
:10293000AF0EC801DF91CF911F910F9108950895B7
:102940000895CF93CFB7F89480911802811127C0D2
:10295000EAE2F8E08491ECE0F8E09491E82FF0E00E
:10296000EE0FFF1FE55FF84FA591B491EC91E923BD
:1029700021F461E08AE00E947F0461E08AE00E9425
:10298000AD048CB580618CBD8CB580648CBD61E07C
:102990008DE00E94AD0461E08BE00E94AD04809167
:1029A00018028F5F80931802CFBFCF9108952091B6
:1029B000F501260F3327331F21323105ECF4209126
:1029C000CE04FC0190E080E0243069F082E00895BC
:1029D000A091F5012191AC014B525E4FA40FB52F90
:1029E000B11D2C930196861798F38091F501680F1D
:1029F0006093F50180E0089581E008951092CE047F
:102A000081E08093CD041092A80461E082E10E94ED
:102A10007F0461E083E10E947F04E9EBF0E08081C4
:102A20008E7F808380818D7F808388E48093B8004F
:102A300085E48093BC000895109287041092860468
:102A40001092D5041092F7040E94FE1484E594E0DD
:102A5000909385048093840485E594E090938304A7
:102A6000809382040895CF93DF9391E09093D401F3
:102A70008823B9F0C091B800D091BA008091BC0011
:102A80008A7B8093BC0060E082E10E947F0460E06A
:102A900083E10E947F040E94FE14D093BA00C09389
:102AA000B800DF91CF9108958F929F92AF92BF921D
:102AB000CF92DF92EF92FF920F931F93CF93DF930A
:102AC000D091F704D13208F0D7C0182FC091F60486
:102AD0000E942E076B017C018091CE0481116BC096
:102AE00082E08093CE041093CD048FEF8093CC04CA
:102AF0001092CB04D093CA04A6EDB4E0EAEAF4E065
:102B000080E0D81391C01092A9048091A904CC0F41
:102B1000C82BC093A9048091A804813009F088C013
:102B20001092A8040E942E076B017C018091A904D9
:102B30008093BB008091D0049091D104A091D204E5
:102B4000B091D304892B8A2B8B2BA1F00E942E07E6
:102B50000091D0041091D1042091D2043091D3047B
:102B60006C197D098E099F09061717072807390771
:102B700008F442C08091BC0083FDD8CF85EC8093DF
:102B8000BC000E942E076B017C018091CE04823034
:102B900009F450C08091CC048F3F09F46FC080913C
:102BA000CC04803209F46CC08091CC04803309F4E9
:102BB00069C084E026C08091D0049091D104A09196
:102BC000D204B091D304892B8A2B8B2B09F484CFA8
:102BD0000E942E078090D0049090D104A090D2043F
:102BE000B090D3046C197D098E099F09861697064B
:102BF000A806B90608F070CF8091CF040E94331563
:102C000085E01092D5041092F7041092D404DF915D
:102C1000CF911F910F91FF90EF90DF90CF90BF90D9
:102C2000AF909F908F9008959D9191938F5F69CF02
:102C300085EEA5CF8091D0049091D104A091D204CB
:102C4000B091D304892B8A2B8B2B09F49ECF0E9441
:102C50002E070091D0041091D1042091D20430911C
:102C6000D3046C197D098E099F09061717072807D9
:102C7000390708F08ACFC0CF81E0C3CF80E0C1CF51
:102C800082E0BFCF83E0BDCF1F93CF93DF93EA01F4
:102C9000122FDC0111968D919C91DC01ED91FC913C
:102CA0000280F381E02D0995C817D90729F4812FF7
:102CB0000E94541591E0811190E0892FDF91CF910E
:102CC0001F910895CF93DF93EC018B818823A1F0AE
:102CD000888191E09093D4048093F6041092D504F7
:102CE0001092F70481E00E94541591E0811190E068
:102CF000892FDF91CF9108950E941C1581E08B836D
:102D0000CE010E946216982F8111E2CFF1CF8F92EF
:102D10009F92AF92BF92CF92DF92EF92FF920F936A
:102D20001F93CF93DF93D82FC62F142F613208F053
:102D30009CC00E942E076B017C018091CE04811102
:102D40006FC081E08093CE041093CD049FEF9093E9
:102D5000CC041092CB049C0F9093CA048093A904D6
:102D60008091A904DD0FD82BD093A9048091A804E9
:102D7000813009F07CC01092A8040E942E076B01DC
:102D80007C018091A9048093BB008091D004909134
:102D9000D104A091D204B091D304892B8A2B8B2B20
:102DA000A1F00E942E070091D0041091D10420912F
:102DB000D2043091D3046C197D098E099F0906173E
:102DC00017072807390708F44CC08091BC0083FD21
:102DD000D8CF85EC8093BC000E942E076B017C014C
:102DE0008091CE04813009F444C08091CB048C17CB
:102DF00010F4C091CB04EAEAF4E0A8E8B4E080E083
:102E00008C1359C08C2FDF91CF911F910F91FF90A0
:102E1000EF90DF90CF90BF90AF909F908F900895EC
:102E20008091D0049091D104A091D204B091D304A8
:102E3000892B8A2B8B2B09F480CF0E942E07809040
:102E4000D0049090D104A090D204B090D3046C1917
:102E50007D098E099F0986169706A806B90608F00F
:102E60006CCF8091CF040E943315C0E0CBCF85EEAC
:102E7000B1CF8091D0049091D104A091D204B091AF
:102E8000D304892B8A2B8B2B09F4AACF0E942E07FF
:102E90000091D0041091D1042091D2043091D30438
:102EA0006C197D098E099F0906171707280739072E
:102EB00008F096CFD6CF91919D938F5FA1CF0895C3
:102EC000E091870480918604E81730F4F0E0E85739
:102ED000FB4F808190E008958FEF9FEF08959091D0
:102EE0008704809186042FEF3FEF981748F4E92F6D
:102EF000F0E0E857FB4F208130E09F5F909387041C
:102F0000C90108958091860490918704891B990BCB
:102F10000895CF92DF92EF92FF920F931F93CF937A
:102F2000DF937C01CB018A012091D404222389F014
:102F3000EB016B01C40ED51ECC15DD0569F069915E
:102F4000D701ED91FC910190F081E02DC701099529
:102F5000F3CF642F0E94D714C801DF91CF911F9146
:102F60000F91FF90EF90DF90CF900895CF93DF9374
:102F70001F92CDB7DEB769832091D4042223F9F0E4
:102F80002091F704203258F021E030E0FC01338337
:102F9000228390E080E00F90DF91CF91089580919F
:102FA000D504E82FF0E0EA52FB4F998190838F5FC0
:102FB0008093D5048093F70481E090E0ECCF61E04A
:102FC000CE0101960E94D714F7CF90E080E00895DB
:102FD000CF93C62F91E09093D40498E69093F60493
:102FE0001092D5041092F704682F8BE995E00E94A7
:102FF000B6176C2F8BE995E00E94B61781E0CF9150
:103000000C9454150F931F93CF93DF9300D0CDB73B
:10301000DEB76A83E091A905F091AA053097F9F02F
:10302000898384819581029798F0808191E09093C3
:10303000D4048093F6041092D5041092F70421E092
:1030400042E050E0BE016F5F7F4FCF010E94441607
:103050000F900F90DF91CF911F910F9108958F776F
:1030600089830091AB051091AC05C8010E942D0920
:103070006981C8010E944D066A81C8010E944D06FF
:10308000C8010E94F208E4CFCF93DF93C3EDD5E0EF
:103090008770886E8883E2EDF5E0962F9770990F20
:1030A000990F990F8081807C242F2770892B822B88
:1030B000808395E0440F551F9A95E1F787FB882799
:1030C00080F9482B660F771F660F771F642B85EFFB
:1030D0000E9402188881682F677090E2699FB00192
:1030E0001124282F269526952695277094E0299F50
:1030F00090011124622B8295869586958370682BAA
:1031000084EFDF91CF910C9402185F926F927F92BF
:103110008F929F92AF92BF92CF92DF92EF92FF92E7
:103120000F931F93CF93DF93DC011496ED91FC91E5
:103130001597EF2B09F465C069013A01EC0188810C
:1031400091E09093D4048093F6041092D5041092E9
:10315000F70420E041E050E0CD010E944416582ED3
:10316000882309F44EC0F12CE12C8C819D818601CD
:103170000E191F098017910708F48C0141E0C60160
:10318000801B910BE816F90608F440E0602F01322D
:1031900008F060E288810E9487161092870480936D
:1031A00086048017110669F543018E0C9F1C54019B
:1031B000C501881999098017910768F489819A8156
:1031C000DC01ED91FC910284F385E02D0995F50178
:1031D00081935F01EDCFE00EF11EEC14FD0428F2A7
:1031E000852DDF91CF911F910F91FF90EF90DF9090
:1031F000CF90BF90AF909F908F907F906F905F9097
:103200000895512CEDCFCF93DF9300D0CDB7DEB72B
:10321000E091A905F091AA05898322E030E0AE0192
:103220004F5F5F4FBA01309751F0CF010E94851870
:1032300089819A810F900F90DF91CF9108958091AD
:10324000AB059091AC050E944509F2CFCF93DF9377
:1032500000D01F92CDB7DEB7FC01828193816983D4
:1032600023E030E0AE014F5F5F4FBA010097A1F05D
:103270000E94851829816A8170E090E080E0982F93
:10328000872F762F6627822B2B81622B0F900F9032
:103290000F90DF91CF910895848195810E94450917
:1032A000E9CF8F929F92AF92BF92CF92DF92EF922F
:1032B000FF920F931F93CF93DF93FC0143855485B7
:1032C00065857685452B462B472B09F479C0EC01A3
:1032D0006AEF0E9426190B891C8930E020E0C72E76
:1032E000D82EE92EFF24E7FCFA94C01AD10AE20A8C
:1032F000F30A57E095958795779567955A95D1F795
:10330000000F111F221F331F4B015C01801A910A0D
:10331000A20AB30AA5019401AD89BE890E94B93100
:103320004B015C01FBE0B594A79497948794FA95C0
:10333000D1F7A7019601C701B6010E9449319B014F
:10334000AC01ACE05595479537952795AA95D1F7EF
:10335000AF89B88D0E94B9319B01AC01BEE0559593
:10336000479537952795BA95D1F7280D391D4A1DF0
:103370005B1D2F87388B498B5A8BA5E0B0E00E94EC
:10338000AE3160587F4F8F4F9F4F672F782F892F17
:10339000992787FD9A950E94883420E030E048EC18
:1033A00052E40E94DF33DF91CF911F910F91FF9084
:1033B000EF90DF90CF90BF90AF909F908F90089547
:1033C00060E070E080EC9FE7EECF2F923F924F924B
:1033D0005F926F927F928F929F92AF92BF92CF92A5
:1033E000DF92EF92FF920F931F93CF93DF93CDB7AE
:1033F000DEB76D970FB6F894DEBF0FBECDBF9D8FC1
:103400008C8F0E94511967EF8C8D9D8D0E9426191B
:10341000688F798F8A8F9B8FEC8DFD8D8785908942
:10342000A189B2896C017D01FF0CCC08DC2C7601EE
:103430009C01AD016C2D7C2D8C2D9C2D345F414069
:103440005109610971098109910929873A874B87D7
:103450005C873B014C0159016A017B018C010E9490
:10346000C131322E232E4A8B5B8B6C8B7D8B8E8BE6
:103470009F8BAC8DBD8D5C963C915C975B962C913F
:10348000932F990F990B492F592F692F792F892F36
:103490000E94C1310CE00E94F032522E39834D87D8
:1034A0005E876F87788B898B492EEC8DFD8D368DED
:1034B000258D932F990F990BA32CB22CCA88DB88EA
:1034C000EC88FD880E891F89492F592F692F792F84
:1034D000892F0E94C13108E00E940933A52CB980D0
:1034E000CD84DE84EF84F8880989142D0E94263368
:1034F00070588F4F9F4FAC8DBD8D5996ED91FC91BB
:103500005F01D12CC12CE12CF12C8701E983BA8217
:10351000CB82DC82ED82FE820F831887C12CD12CF6
:10352000E12CF12C00E010E00E94C13101E20E9488
:1035300009332983532E4D875E876F87788B898B5C
:10354000492EA0E00E94383309F43DC1AC8DBD8DF9
:1035500094963C91949793962C91932F990F990B55
:10356000A32CB22CCA88DB88EC88FD880E891F89C1
:10357000492F592F692F792F892F0E94C1311901A5
:103580004A8B5B8B6C8B7D8B8E8B9F8BEC8DFD8D3B
:1035900032A121A1932F990F990BA984BA84CB84CE
:1035A000DC8473018401492F592F692F792F892FCA
:1035B0000E94C13101E10E94F0325101CA88DB88CA
:1035C000EC88FD880E891F890E94263359016A0103
:1035D0007B01282E192F488D598D6A8D7B8D84E0B3
:1035E00075956795579547958A95D1F780E090E056
:1035F000A0E1B0E0841B950BA60BB70B3C014D017D
:10360000990C6608762C43019C01AD01662D762D40
:10361000862D962D0FE10E94F032722E832E942E6D
:10362000652EB62FA72F382E9987EC8DFD8D30A1F2
:10363000278D932F990F990B492F592F692F792F88
:10364000892F03E20E94F032022D0E942633590195
:103650006A017B018C01272D382D492D562D6B2FAA
:103660007A2F832D99850E942F33E5E3AE2EFCE05F
:10367000BF2EC12CD12CE12CF12C00E010E00E94D7
:10368000C131A980B52CCD84DE84EF84F888098906
:10369000142D0E941B3229873A874B875C876983E8
:1036A0007D878E879F870DE00E940933922E832E9F
:1036B000742E652E562E472E382E292EAC8DBD8D9C
:1036C0009A963C919A9799962C91932F990F990BD2
:1036D000A92CB82CC72CD62CE52CF42C032D122D9C
:1036E000492F592F692F792F892F0E94C1310E94AC
:1036F000C13109E10E940933A984BA84CB84DC84F6
:10370000E980FD840E851F850E94263319012A0158
:103710003B014C01EC8DFD8D30A527A1932F990F16
:10372000990B492F592F692F792F892F0E94C13169
:1037300003E10E94093359016A017B018C01910167
:10374000A201B301C4010E94263308E00E9409339C
:1037500059016A017B01E82F192FAC8DBD8D96961A
:103760003C91969795962C91932F990F990B492FF1
:10377000592F692F792F892F04E00E94F0320E2FE4
:103780000E9426330E94803420E030E040E85BE372
:103790000E948B356D960FB6F894DEBF0FBECDBF7D
:1037A000DF91CF911F910F91FF90EF90DF90CF901D
:1037B000BF90AF909F908F907F906F905F904F9051
:1037C0003F902F90089560E070E0CB01E3CF8F929F
:1037D0009F92AF92BF92CF92DF92EF92FF920F93A0
:1037E0001F93CF93DF9300D000D0CDB7DEB7FC019D
:1037F0008581813091F080E00F900F900F900F90B5
:10380000DF91CF911F910F91FF90EF90DF90CF90BC
:10381000BF90AF909F908F900895848181FFEBCFF0
:1038200083899489A589B689892B8A2B8B2B09F4E6
:103830005FC07F0140E050E0BA01CF010E94AF0EAF
:103840008823C9F2F701C38CD48C8788908CA18C13
:10385000B28C82E090E0A0E0B0E0F601808391833A
:10386000A283B3839E012F5F3F4FB501A401C60120
:103870000E946F0D882309F4BECF00E010E098018C
:10388000B501A401C6010E94CD0C882309F4B3CF71
:1038900089809A80AB80BC80F6018789803119F1DC
:1038A00088EF9FEFAFEFBFE088169906AA06BB0628
:1038B000C8F2F701178A108E118E128E138A148A9D
:1038C000158A168A84818068848361E0C7010E941A
:1038D0004310882309F48FCF40E050E0BA01C701BC
:1038E0000E94AF0E89CF88EF9FEFA0E0B0E0DCCF61
:1038F00081E082CFCF92DF92EF92FF921F93CF931E
:10390000DF93EC0180E2689FF0011124EE57FD4F38
:103910009385917161F0842F827449F080E0DF918A
:10392000CF911F91FF90EF90DF90CF900895142FCB
:103930006A8B8091000190910101A0910201B091E8
:1039400003018E879F87A88BB98BC488D588F12CFB
:10395000E12C7601DD24CC24CF8AD88EE98EFA8E34
:10396000828D938DB0E0A0E0AC01BD014C295D29B2
:103970006E297F294F8B588F698F7A8F8385887145
:10398000B1F4848D958DA68DB78D8B8B9C8BAD8B73
:10399000BE8B81E08D831F701C831E821F82188660
:1039A00019861A861B861C861D8681E0B8CF803159
:1039B00009F0B4CF9E012D5E3F4F8B8D9C8D0E94F0
:1039C000F00D882309F4AACF84E0E4CF0C941E38CC
:1039D0000C941E38CF93C0917F02CC23B1F080911C
:1039E000990590919A05009761F00E94DB108091F3
:1039F000990590919A050E941E3810929A0510928E
:103A0000990510927F0210924E028C2FCF9108954B
:103A1000FB0101900020E9F73197AF01461B570BDE
:103A2000DC01ED91FC910280F381E02D09948F92ED
:103A30009F92AF92BF92EF92FF920F931F93CF93FB
:103A4000DF93CDB7DEB7A1970FB6F894DEBF0FBEF8
:103A5000CDBF7C01FA01CB0119A2223008F42AE083
:103A60008E010F5D1F4F822E912CB12CA12CBF0116
:103A7000A50194010E946D31F901CA016A300CF56B
:103A8000605DD8016E938D01232B242B252B79F7B4
:103A900090E080E0109721F0BD01C7010E94081D51
:103AA000A1960FB6F894DEBF0FBECDBFDF91CF91C8
:103AB0001F910F91FF90EF90BF90AF909F908F90CC
:103AC0000895695CDECF462F50E070E060E02AE0A8
:103AD0000C94171D2F923F924F925F926F927F929C
:103AE0008F929F92AF92BF92CF92DF92EF92FF920E
:103AF0001F93CF93DF93EC016A017B01722EAB0120
:103B00009601CB01B6010E9448366AE671E0811148
:103B100026C046015701E894B7F82FEF3FEF4FE773
:103B20005FE7C501B4010E94483681110CC02FEF38
:103B30003FEF4FE75FE7C501B4010E94DA336EE65D
:103B400071E0181664F02FEF3FEF4FE75FE4C70115
:103B5000B6010E9486351816B4F462E771E0CE0112
:103B6000DF91CF911F91FF90EF90DF90CF90BF90AA
:103B7000AF909F908F907F906F905F904F903F900D
:103B80002F900C94081D2FEF3FEF4FE75FECC7011C
:103B9000B6010E94DA3387FDE0CF20E030E0A901D2
:103BA000C701B6010E94DA33312C212C87FF09C0EE
:103BB0006DE2CE010E94BD071C01F7FAF094F7F800
:103BC000F09410E060E070E080E09FE3711641F057
:103BD00020E030E040E251E40E94DF331F5FF6CF87
:103BE000A70196010E946E332B013C010E945134C3
:103BF0004B015C012AE0BC01A401CE010E94171D0B
:103C00007C01E20CF31C1123C1F1C501B4010E9437
:103C100086349B01AC01C301B2010E946D334B019C
:103C20005C016EE2CE010E94BD07E80EF91E115044
:103C300020F120E030E040E251E4C501B4010E94EF
:103C40008B352B013C010E9451344B01B12CA12C2E
:103C50002AE0B501A401CE010E94171DE80EF91E4D
:103C6000C501B4010E9486349B01AC01C301B201BD
:103C70000E946D334B015C01DACFC701DF91CF9118
:103C80001F91FF90EF90DF90CF90BF90AF909F90EB
:103C90008F907F906F905F904F903F902F900895FE
:103CA00066E771E00C94081DCF93DF93682F88EFCF
:103CB00094E00E94631DEC0188EF94E00E94501E86
:103CC0008C0F9D1FDF91CF9108950F931F93CF937A
:103CD000DF93EC010E94C4078C01CE010E94501EAC
:103CE000800F911FDF91CF911F910F910895CF9277
:103CF000DF92EF92FF920F931F93CF93DF93EC012C
:103D000011E01093D40488E68093F6041092D50451
:103D10001092F70463E08BE995E00E94B61781E00A
:103D20000E945415082F8823D1F01F8261E471E0AE
:103D300088EF94E00E94C407802F0E94541E64E024
:103D400071E088EF94E00E94651E80E0DF91CF91E2
:103D50001F910F91FF90EF90DF90CF90089541E079
:103D600067E088E60E948716082F109287048093E8
:103D70008604873058F41F826AEE70E088EF94E082
:103D80000E94C407802F0E94541EDFCF8BE995E06C
:103D90000E946F17C82E8BE995E00E946F17D82EEE
:103DA0008BE995E00E946F17E82E8BE995E00E9461
:103DB0006F17F82E8BE995E00E946F178BE995E05D
:103DC0000E946F17082F8BE995E00E946F174C2D0A
:103DD0004F77242F30E054E0359527955A95E1F739
:103DE000322F330F330FA22FA31BAA0FA40FAE83C2
:103DF0004D2D4F77242F30E064E0359527956A9557
:103E0000E1F7322F330F330FF22FF31BFF0FF40FB5
:103E1000FD834E2D4F73242F30E074E035952795A8
:103E20007A95E1F7322F330F330FE22FE31BEE0FBA
:103E3000E40FEC832F2D2F73622F70E0B4E07595A3
:103E40006795BA95E1F7362F330F330F631B660F73
:103E5000620F6B830F71402F50E024E0559547951A
:103E60002A95E1F7242F220F220F421B440F400F07
:103E70004A839C0154E0359527955A95E1F72F70B8
:103E80003327922F990F990F291B220F280F30E00B
:103E90002053384F39832883AC3350F4FC3340F43B
:103EA000E83130F461506F3118F441504C3010F06B
:103EB0001F824BCF1F8381E049CF0F931F93CF9376
:103EC000DF93CDB7DEB728970FB6F894DEBF0FBEED
:103ED000CDBF20918102222309F4B4C020917F023A
:103EE000222309F4AFC020918002222309F4AAC042
:103EF0008C01CE0101960E94771E882309F4A2C08E
:103F000080917F02882309F49DC0E0919905F0918A
:103F10009A05309709F496C08581882309F492C0E8
:103F200049815A8170E060E02AE080E895E00E94D3
:103F3000171D6EE478E080E895E00E94C4078B814D
:103F40008A3030F46CE478E080E895E00E94C407A1
:103F50006B8180E895E00E94631D6AE478E080E868
:103F600095E00E94C4078C818A3030F468E478E0E0
:103F700080E895E00E94C4076C8180E895E00E948B
:103F8000631D66E478E080E895E00E94C4078D81B7
:103F90008A3030F464E478E080E895E00E94C40759
:103FA0006D8180E895E00E94631D62E478E080E81E
:103FB00095E00E94C4078E818A3030F460E478E096
:103FC00080E895E00E94C4076E8180E895E00E9439
:103FD000631D6EE378E080E895E00E94C4078F815E
:103FE0008A3030F46CE378E080E895E00E94C40702
:103FF0006F8180E895E00E94631D6AE378E080E8C5
:1040000095E00E94C40769E771E080E895E00E94AE
:10401000081D68E378E080E895E00E94C407B801D5
:1040200080E895E00E94081D65E378E080E895E06F
:104030000E94C40780E895E00E94501E80E895E049
:104040000E94E51228960FB6F894DEBF0FBECDBFD2
:10405000DF91CF911F910F9108953F924F925F9200
:104060006F927F928F929F92AF92BF92CF92DF9288
:10407000EF92FF920F931F93CF93DF93CDB7DEB7ED
:104080002B970FB6F894DEBF0FBECDBF7C01FE01AB
:104090003196CE010C966F0130E231938E179F0757
:1040A000E1F7DA0130E087E09D91B92E992309F418
:1040B0003CC09E32F1F48A30C9F480E02B960FB6F2
:1040C000F894DEBF0FBECDBFDF91CF911F910F914E
:1040D000FF90EF90DF90CF90BF90AF909F908F9028
:1040E0007F906F905F904F903F90089538E08AE006
:1040F000DBCFE4E5F1E04491442321F031969413C1
:10410000FACFDBCF8317C8F24FED490F4E35A8F633
:104110004FE9490F4A3118F440EEB42EB90EF601BA
:10412000E30FF11DB0823F5FBFCF8981803229F25A
:10413000322E8B01DB015B968D919C915C97F70190
:10414000948F838F16961D921D921D921C92199723
:10415000FB011286138614861586F80182859385E5
:10416000A485B5854389548965897689841795071F
:10417000A607B70708F04DC025E0B695A795979517
:1041800087952A95D1F7F82FFF70AF2ED801159695
:104190008C91823008F491CFC8010E94511397FD91
:1041A0008CCFF80182859385A485B5854F96A11D96
:1041B000B11D82879387A487B587F0E2AF9EB001D7
:1041C00011246E577D4F6115710509F476CFDB011F
:1041D0008C91882341F0853E09F058C0BB2029F01E
:1041E000BB24B394BACFB1100EC0F701A28A80915C
:1041F000000190910101A0910201B0910301868715
:104200009787A08BB18BDB018C918111E9CFBB2407
:10421000B394832D8271823109F04FCFBB2009F412
:1042200043C0C7010E948B0B009709F446CF20E2E0
:10423000FC0111922A95E9F72BE0F601DC010190CF
:104240000D922A95E1F721E238E2DC0151963C9388
:104250002E93509740E058E01F965C934E931E9724
:1042600053963C932E93529759963C932E9358977E
:1042700057965C934E93569781E00E94160B8823C5
:1042800009F41BCF432DF70162890AC04BE050E0CF
:10429000C6010E94A738892B09F05FCF432D6A2DF4
:1042A000C7010E947A1C0ACFF8018581823009F487
:1042B00004CFC8010E94430F882309F4FECED80121
:1042C0005B96ED91FC915C9716968D909D90AD90CC
:1042D000BC901997B2E08B1A9108A108B1088585A6
:1042E00004C0880C991CAA1CBB1C8A95D2F7868531
:1042F0009785A089B189880E991EAA1EBB1E84814C
:1043000024013501480E511C611C711C48145904CC
:104310006A047B0409F1E1E04E1A51086108710852
:1043200081E00E94160B882309F4C7CEE2E8F2E090
:10433000119282E894E08E179F07D1F74092000116
:1043400050920101609202017092030180911A0261
:10435000816080931A02DACFD8015B96ED91FC91CF
:10436000258580E092E0A0E0B0E004C0880F991FAE
:10437000AA1FBB1F2A95D2F7F80143895489658982
:104380007689840F951FA61FB71F838B948BA58BEF
:10439000B68BD70152961C9282E892E048CF0F93D9
:1043A0001F93CF93DF938C01EB01FB01349680E2E6
:1043B000DF011D928A95E9F784E290E0A0E0B0E089
:1043C00088839983AA83BB83F80182819381092E14
:1043D000000CAA0BBB0B8C839D83AE83BF8386E04E
:1043E00090E0A0E0B0E088879987AA87BB870E9409
:1043F0008507688B798B8A8B9B8BD80114968D915E
:104400009C91FC014385548565857685452B462B1B
:10441000472B91F00E94E51920E030E048EC52E48F
:104420000E94DF336C8B7D8B8E8B9F8B81E0DF91C5
:10443000CF911F910F91089560E070E080EC9FE7AD
:10444000EBCF0F931F93CF93DF938C01EB0188E2A7
:10445000FB0111928A95E9F74BE050E06FE771E0BC
:10446000CE010E94C4381B8681E090E0A0E0B0E05D
:104470008C879D87AE87BF87F80182819381092E43
:10448000000CAA0BBB0B888B998BAA8BBB8B86E08D
:1044900090E0A0E0B0E08C8B9D8BAE8BBF8B1CA21C
:1044A0001DA21EA21FA280E090E0A6E9B3E48C8FBB
:1044B0009D8FAE8FBF8F80E090E8A9E8B4E4888F2D
:1044C000998FAA8FBB8F86EA9BE9A4E4BCE388A3FB
:1044D00099A3AAA3BBA3DF91CF911F910F91089538
:1044E0000F931F93CF93DF938C01EB01FB01349665
:1044F00080E2DF011D928A95E9F784E290E0A0E076
:10450000B0E088839983AA83BB83F8018281938179
:10451000092E000CAA0BBB0B8C839D83AE83BF833B
:104520008DE090E0A0E0B0E088879987AA87BB87FC
:104530000E948507688B798B8A8B9B8BD801149698
:104540008D919C910E9451196C8B7D8B8E8B9F8BD2
:1045500081E0DF91CF911F910F9108950F931F93E9
:10456000CF93DF938C01EB0188E2FB0111928A95D6
:10457000E9F74BE050E06FE771E0CE010E94C438EC
:104580001B8681E090E0A0E0B0E08C879D87AE873D
:10459000BF87F80182819381092E000CAA0BBB0B07
:1045A000888B998BAA8BBB8B8DE090E0A0E0B0E06C
:1045B0008C8B9D8BAE8BBF8B1CA21DA21EA21FA23B
:1045C00080E090E0A0E2B2EC8C8F9D8FAE8FBF8F29
:1045D00080E090E0AAEAB2E4888F998FAA8FBB8F1F
:1045E0008AE097EDA3E2BCE388A399A3AAA3BBA3A7
:1045F000DF91CF911F910F910895EF92FF920F934A
:104600001F93CF93DF93EC017B018A011B821A82F7
:1046100088EE93E0A0E0B0E08C839D83AE83BF83FF
:1046200080E491E0998388838DE190E00E94823755
:104630009A8F898F009779F02DE1F701DC010190C5
:104640000D922A95E1F74CE050E0B801CE010C96AE
:104650000E94C438188EDF91CF911F910F91FF9067
:10466000EF900895EF92FF921F93CF93DF93CDB712
:10467000DEB7C257D1090FB6F894DEBF0FBECDBF6B
:1046800010917F021123A9F06EEE77E088EF94E09D
:104690000E94651E10E0812FCE58DF4F0FB6F894B0
:1046A000DEBF0FBECDBFDF91CF911F91FF90EF9086
:1046B00008956CED77E088EF94E00E94C40766E807
:1046C00071E088EF94E00E94081D88EF94E00E945A
:1046D000501E1C821B8282E2E82E81E0F82EFA82B4
:1046E000E9821E82CE0101960E945B0EBE016F5FC1
:1046F0007F4FCE01CB960E94941219A218A2FF8E72
:10470000EE8E1BA221968FAD2197811166C06C960B
:104710001FAE1EAE6C9788EE93E0A0E0B0E0A096CE
:104720008CAF9DAFAEAFBFAFA09780E491E06A962B
:104730009FAF8EAF6A97E3961FAE1EAEE397A59626
:104740001FAEA5976C968EAD9FAD6C979093830529
:1047500080938205A0968CAD9DADAEADBFADA09708
:104760008093840590938505A0938605B093870573
:10477000A4968CAD9DADAEADBFADA49780938805DA
:1047800090938905A0938A05B0938B05A8E5B0E0C6
:10479000AC0FBD1F1C96ECE8F5E08D91819385E090
:1047A000E939F807D1F7E396EEADFFADE397F09363
:1047B0009A05E0939905309719F08581811138C0E9
:1047C00064EC77E088EF94E00E94651E6AEA77E087
:1047D00088EF94E00E94651E5ECF27E146E851E035
:1047E000BE01655C7F4FCE014E960E942D2088232E
:1047F00009F48DCFCE01CB960E94DB1049A95AA9AE
:104800006BA97CA9CE014E960E94AF0EBE01625EDE
:104810007F4FCE0101960E94941246E851E0BE01FE
:104820006F5F7F4FCE01885A9F4F0E94FD228ACF33
:104830006DE877E088EF94E00E94651EE0919905AD
:10484000F0919A05309751F083899489A589B689AA
:1048500069E277E0892B8A2B8B2B41F464E677E0C1
:1048600080E895E00E94651E68E477E088EF94E0B8
:104870000E94651E81E080937F024FE150E066E870
:1048800071E08EE492E00E94C43810926D0211E053
:1048900002CF85ED8093BC008091D0049091D1042B
:1048A000A091D204B091D3040796A11DB11D23E0BD
:1048B000B695A795979587952A95D1F72091BC0035
:1048C00024FD03C01092CE0408954091D00450916D
:1048D000D1046091D2047091D304452B462B472B11
:1048E00069F30097A105B10541F02AE22A95F1F795
:1048F00000C00197A109B109E1CF8091CF040C94C8
:1049000033151F920F920FB60F9211242F933F93DE
:104910008F939F93AF93BF938091440290914502F0
:10492000A0914602B09147023091430223E0230F49
:104930002D3758F50196A11DB11D20934302809398
:10494000440290934502A0934602B093470280919F
:10495000480290914902A0914A02B0914B020196FF
:10496000A11DB11D8093480290934902A0934A0271
:10497000B0934B02BF91AF919F918F913F912F9137
:104980000F900FBE0F901F90189526E8230F0296E8
:10499000A11DB11DD2CF1F920F920FB60F921124FD
:1049A0002F933F934F935F936F937F938F939F9337
:1049B000AF93BF93EF93FF93809173029091740232
:1049C000A0917502B0917602892B8A2B8B2BD1F1A5
:1049D00090916E02E0916F02F091700280818927C0
:1049E00080838091730290917402A0917502B091BE
:1049F0007602181619061A061B069CF4809173029B
:104A000090917402A0917502B09176020197A1096C
:104A1000B1098093730290937402A0937502B093CE
:104A20007602FF91EF91BF91AF919F918F917F910E
:104A30006F915F914F913F912F910F900FBE0F900B
:104A40001F901895809105010E949107EACF1F924F
:104A50000F920FB60F9211242F933F934F935F93B2
:104A60006F937F938F939F93AF93BF93EF93FF9336
:104A700088EF94E00E946508FF91EF91BF91AF919C
:104A80009F918F917F916F915F914F913F912F9166
:104A90000F900FBE0F901F9018951F920F920FB698
:104AA0000F9211242F938F939F93EF93FF93E09195
:104AB0000805F09109058081E0910E05F0910F0540
:104AC00082FD1BC09081809111058F5F8F702091B6
:104AD0001205821741F0E0911105F0E0E850FB4F1C
:104AE000958F80931105FF91EF919F918F912F9159
:104AF0000F900FBE0F901F9018958081F4CF1F92DA
:104B00000F920FB60F9211242F933F934F935F9301
:104B10006F937F938F939F93AF93BF93EF93FF9385
:104B20008091B900887F803609F44AC0F0F5883258
:104B300009F4A7C018F5803109F49BC0B8F48823A4
:104B400009F4F9C0883009F494C0FF91EF91BF9146
:104B5000AF919F918F917F916F915F914F913F9115
:104B60002F910F900FBE0F901F901895883109F468
:104B700088C0803251F78093CC0414C0803409F48B
:104B80009DC040F48033B9F38833F9F68093CC04A8
:104B900085ECB0C0803509F485C0883509F496C02D
:104BA000883499F60E944924D0CF883909F48CC002
:104BB00038F5883729F050F4883611F0803729F617
:104BC00083E08093CE041092170257C0883809F40E
:104BD0007BC0803919F0803809F0B7CF8091170277
:104BE000803208F071C0E091170281E08E0F80934F
:104BF00017028091BB00F0E0E950FE4F80833DC07A
:104C0000803B39F0E0F4803A09F479C0883A09F041
:104C10009CCF84E08093CE041092F6011092F501AF
:104C2000E0918404F091850409958091F50181114A
:104C30000FC081E08093F5011092D50109C0803C3E
:104C400009F4A6CF883C09F4A3CF883B09F07DCFB7
:104C5000E091F60181E08E0F8093F601F0E0EB52D7
:104C6000FE4F80818093BB009091F6018091F50109
:104C700029C08091A9048093BB0085EC8093BC007F
:104C800064CF9091CB048091CA04981758F5E091B5
:104C9000CB0481E08E0F8093CB04F0E0E655FB4F10
:104CA0008081E9CFE091CB0481E08E0F8093CB042B
:104CB0008091BB00F0E0E655FB4F80839091CB04E0
:104CC0008091CA049817C8F285E8D8CFE091CB0448
:104CD00081E08E0F8093CB048091BB00F0E0E6551D
:104CE000FB4F80838091CD0481115CCF81E0809364
:104CF000A80484EA8093BC001092CE0426CF85ECF1
:104D00008093BC001092CE0480911702803230F460
:104D1000E0911702F0E0E950FE4F10826091170217
:104D200070E0E0918204F091830487EF91E00995AF
:104D3000109217020ACF1092CC0434CFCF93DF9396
:104D4000E8EFF4E01382128248EE53E060E070E096
:104D5000448355836683778380E191E091838083E8
:104D600085EC90E09587848784EC90E09787868730
:104D700080EC90E0918B808B81EC90E0938B828B28
:104D800082EC90E0958B848B86EC90E0978B868B01
:104D9000118E128E138E148EE5E3F5E080E580838C
:104DA0001182E7E3F5E0158216821186138682E010
:104DB00090E0A0E0B0E084879587A687B78713A22C
:104DC00015A614A682E291E093A782A717A6ABE9E5
:104DD000B5E013961C921E92129714964D935D9314
:104DE0006D937C9317978EE291E011969C938E932E
:104DF000E0E8F5E01382128244835583668377836B
:104E000080E491E091838083128E118E1486C7EA2C
:104E1000D5E01B821A821D821C821B861C861D8681
:104E20001E861BA61CA6B983A88386E090E00E947C
:104E30008237FC0180E691E09183808388E191E0F4
:104E400093838283D583C483FF83EE8386E090E0DF
:104E50000E948237FC0182E591E091838083138276
:104E60001282D583C483F987E887DF91CF910895B3
:104E7000CF93DF93CDB7DEB7C659D1090FB6F894FB
:104E8000DEBF0FBECDBF789484B5826084BD84B58B
:104E9000816084BD85B5826085BD85B5816085BD35
:104EA00080916E00816080936E00109281008091ED
:104EB0008100826080938100809181008160809375
:104EC0008100809180008160809380008091B1009A
:104ED00084608093B1008091B00081608093B000C5
:104EE00080917A00846080937A0080917A00826059
:104EF00080937A0080917A00816080937A0080911B
:104F00007A00806880937A001092C100E0910805D1
:104F1000F091090582E08083E0910405F091050598
:104F20001082E0910605F091070580E180831092E0
:104F30001005E0910C05F0910D0586E08083E0916D
:104F40000A05F0910B05808180618083E0910A055C
:104F5000F0910B05808188608083E0910A05F091D3
:104F60000B05808180688083E0910A05F0910B0534
:104F700080818F7D80836EEF74E088EF94E00E94E3
:104F8000651E62E084E00E94AD046AED74E088EF83
:104F900094E00E94651E61E087E00E94AD0460E03D
:104FA00087E00E947F0463EC74E088EF94E00E9445
:104FB000651E0E94A1146FEA74E088EF94E00E94DD
:104FC000651E0E941C1511E01093D40488E680939E
:104FD000F6041092D5041092F70481E00E94541553
:104FE000882309F448C11092800260EA74E088EFD7
:104FF00094E00E94651E80918002882309F45EC0BF
:10500000CE0101960E94771E882309F483C162E8CD
:1050100074E088EF94E00E94C40749815A8170E0EF
:1050200060E02AE088EF94E00E94171D60E874E0D9
:1050300088EF94E00E94C4076B8188EF94E00E949F
:10504000631D6EE774E088EF94E00E94C4076C81F2
:1050500088EF94E00E94631D6CE774E088EF94E0B1
:105060000E94C4076D8188EF94E00E94631D6AE787
:1050700074E088EF94E00E94C4076E8188EF94E0AA
:105080000E94631D68E774E088EF94E00E94C40703
:105090008F810E94541E89819A81883E974008F42E
:1050A00018C18D818C3021F48E81853008F411C1B6
:1050B0006BE474E088EF94E00E94651E61E172E0A9
:1050C00088EF94E00E94651E0091AB051091AC053D
:1050D0000115110509F03FC18091A9059091AA051C
:1050E000009711F00E941E3886E090E00E948237FF
:1050F0008C018091A7059091A80527E7D8012C93F2
:1051000012969C938E93119713961C92139780E29C
:1051100090E015969C938E9314971093AA05009394
:10512000A9050E941C1581E0F8018383C8010E9433
:105130006216811128C16BEA71E088EF94E00E9449
:10514000651E6DE971E088EF94E00E94651E61E9DB
:1051500071E088EF94E00E94651E65E871E088EFD9
:1051600094E00E94651E61E771E088EF94E00E9480
:10517000651E64E671E088EF94E00E94651E10925F
:10518000420264E973E088EF94E00E94651E6BE6DA
:1051900072E088EF94E00E94C4072AE043E050E008
:1051A00060E070E088EF94E00E94171D88EF94E0C3
:1051B0000E94501E80916605882321F081E695E0CB
:1051C0000E94DB10109242051092400510923D059E
:1051D00010923C0583E080933B050E9485078B017C
:1051E00061E080913B050E94AD0461E080913B0548
:1051F0000E947F040E94A11482E5809335051092DD
:10520000360580913505909136050E942A094AE0BD
:10521000F42E8FEF0E940509FA94F110FACF87E37C
:1052200095E00E946F0920E030E0A90160E087E38B
:1052300095E00E948509F82E80934105F1E08F17D3
:1052400009F492C10E948507601B710B613D774094
:1052500050F381E080933C0587E395E00E94FA08D3
:1052600061E572E088EF94E00E94651E1092810271
:1052700060E773E0FEC11093D4041092D50410923D
:10528000F70460E08BE995E00E94B61781E00E9488
:10529000541541E061E088E60E9487161092870469
:1052A000809386048BE995E00E946F1785FD05C009
:1052B0001093800265E974E09ACE682F6F7D80E0DC
:1052C0000E94E8176AE070E080E090E00E945307D7
:1052D000EFCF68E174E088EF94E00E94651E60E221
:1052E00083E00E94E81768E084E00E94E81761E22A
:1052F00085E00E94E81764E186E00E94E81760E11B
:1053000088E00E94E81765E289E00E94E81769EFEB
:1053100073E0D0CE68EC73E088EF94E00E94651EE5
:1053200060E083E00E94E81767E084E00E94E817ED
:1053300061E285E00E94E81764E186E00E94E817D8
:1053400060E188E00E94E81765E289E00E94E817C2
:1053500069EA73E0AFCED8011B968C918F3F41F084
:1053600061E00E94AD0461E0F80183850E947F0442
:10537000D8018D919C91892B09F4BCC00E94A11485
:1053800081E0F801838F8091A9059091AA0500978B
:1053900009F4DBC020ED298321E030E0AE014F5F4E
:1053A0005F4FBA010E948518898190E0B0E0A0E0CB
:1053B0008093B2059093B305A093B405B093B5055F
:1053C00088359105A105B10509F0B5CE88E80E94A0
:1053D00003199093BB058093BA058AE80E940319CC
:1053E0009093BD058093BC058CE80E9403199093AF
:1053F000BF058093BE058EE80E9403199093C105F6
:105400008093C00580E90E9403199093C30580939F
:10541000C20582E90E9403199093C5058093C405D3
:1054200084E90E9403199093C7058093C60586E915
:105430000E9403199093C9058093C80588E90E94CA
:1054400003199093CB058093CA058AE90E9403193A
:105450009093CD058093CC058CE90E94031990931D
:10546000CF058093CE058EE90E9403199093D10554
:105470008093D0058091B2059091B305A091B405B9
:10548000B091B505892B8A2B8B2B41F050E040E081
:1054900070E060E085E090E00E94441864E670E00F
:1054A00080E090E00E9453076CEE71E088EF94E09A
:1054B0000E94651E8091B2059091B305A091B4053C
:1054C000B091B505892B8A2B8B2B41F044E050E03D
:1054D00064E070E082E090E00E94441864ED71E0C6
:1054E00088EF94E00E94651E81E08093420263E8A9
:1054F00073E049CE61E0F80184850E94AD04D801D3
:105500001A968C911A978B7FE1F460E01C968C912F
:105510000E947F04D8011D968C918F3F41F061E07D
:105520000E94AD0461E0F80185850E947F04D801E6
:105530001E968C918F3F09F423CF60E00E94AD044A
:105540001FCF61E0F8018485E3CF80ED898321E0FE
:1055500030E0AE014F5F5F4FBA018091AB05909193
:10556000AC050E94450920CF2AEA31E040E050E036
:1055700068E087E395E00E94850982FF2AC0F092E7
:10558000420580914205C12CD12CE12C20E4F22E61
:10559000823019F0C12CD12C760120E030E0A90135
:1055A00067E387E395E00E948509A701960169E218
:1055B00087E395E00E948509809341058823D1F017
:1055C0000E948507601B710B613D774030F388E0D6
:1055D00041CE34E0F32E0E940C0980934105FA94E9
:1055E000F110F9CF8A3A11F082E034CE82E0809354
:1055F0004205C7CF809142058230D1F420E030E0EF
:10560000A9016AE387E395E00E948509882311F0E8
:1056100086E020CE0E940C09807C803C19F483E057
:10562000809342050E940C090E940C090E940C09FB
:1056300087E395E00E94FA0880E580933505109293
:10564000360581E00E94A40B882309F432C381E669
:1056500095E00E945B0E882309F402CE63E372E0BA
:1056600088EF94E00E94651E81E08093810261E6EC
:1056700073E088EF94E00E94651E6AE473E088EFAF
:1056800094E00E94651E64E473E088EF94E00E9459
:10569000C4078091800265E373E0811102C06EE26D
:1056A00073E088EF94E00E94651E68E373E088EF82
:1056B00094E00E94C4078091420261E273E081118C
:1056C00002C06AE173E088EF94E00E94651E64E224
:1056D00073E088EF94E00E94C4078091810263E048
:1056E00073E0811102C06CEF72E088EF94E00E94D9
:1056F000651E66E073E088EF94E00E94651E80916D
:1057000081026BED72E0811102C065EC72E088EFFE
:1057100094E00E94651E69E872E088EF94E00E94C0
:10572000651ECE0101961C01DE01D196C357DF4FE5
:10573000B983A883CD58D04080918002882309F492
:10574000BFC2CE018B579F4F0E94771ECE56DF4FB0
:105750008883C259D040882309F4B2C2C557DF4FAD
:105760008881CB58D0401F928F93C657DF4F8881D6
:10577000CA58D0401F928F93C757DF4F8881C958AE
:10578000D0401F928F93C857DF4F8881C858D040B0
:105790001F928F93C957DF4F8881C758D0401F92FF
:1057A0008F93CA57DF4F8881C658D0408F93CB570D
:1057B000DF4F8881C558D0408F93EFE8F1E0FF9329
:1057C000EF931F9280E28F933F922F920E94D338E3
:1057D0000FB6F894DEBF0FBECDBF90914202CF56F8
:1057E000DF4F9883C159D040992309F47EC287EADC
:1057F00095E00E9451192B013C018091B2059091D6
:10580000B305A091B405B091B505892B8A2B8B2BDC
:1058100009F461C287EA95E00E94E51920E030E0D2
:1058200048EC52E40E94DF336B017C01A30192013A
:10583000C301B2010E944836811131C0A70196010F
:10584000C701B6010E944836811129C020E030E02E
:1058500040E252ECC301B2010E94DA3387FD1FC05F
:1058600020E030E04AEA52E4C301B2010E948635EA
:105870001816ACF020E030E046E953E4C701B60169
:105880000E94DA3387FD0BC020E030E849E854E499
:10589000C701B6010E94863518160CF05FC06AE099
:1058A00070E080E090E00E94530787EA95E00E9454
:1058B00051192B013C018091B2059091B305A09143
:1058C000B405B091B505892B8A2B8B2B09F408C23E
:1058D00087EA95E00E94E51920E030E048EC52E4C8
:1058E0000E94DF336B017C01A3019201C301B2016D
:1058F0000E9448368111F9C1A7019601C701B6017E
:105900000E9448368111F1C120E030E040E252ECC3
:10591000C301B2010E94DA3387FDE7C120E030E025
:105920004AEA52E4C301B2010E94863518160CF40B
:10593000DCC120E030E046E953E4C701B6010E9433
:10594000DA3387FDD2C120E030E849E854E4C701EA
:10595000B6010E94863518160CF4C7C120E030E568
:105960004DE754E4C701B6010E94DF3321E03EED6C
:1059700042E45EE30E94F8354B015C018091330202
:1059800090913402AC014F5F5F4F509334024093CB
:10599000330265E070E00E9459318C01000F111F45
:1059A000000F111F015E1D4FA501940160E070E022
:1059B00080E89FE30E946D3320E03AE24DE257E435
:1059C0000E948B35D8016D937D938D939C93139793
:1059D00084E1EFE1F2E0DE01919601900D928A956B
:1059E000E1F78E010F5D1F4FC157DF4F1983088309
:1059F000CF58D040C157DF4FA881B981CF58D04090
:105A000014968D919D910D90BC91A02DCD56DF4F98
:105A100088839983AA83BB83C359D040F8018080CF
:105A20009180A280B380A5019401BC01CD010E94A8
:105A3000DA3387FF19C0CD56DF4F88819981AA815B
:105A4000BB81C359D040F80180839183A283B38383
:105A5000C157DF4FA881B981CF58D04014968D929D
:105A60009D92AD92BC921797C157DF4FE881F981A3
:105A7000CF58D0403496C157DF4FF983E883CF58D1
:105A8000D040C357DF4F28813981CD58D040E2172D
:105A9000F30709F0AFCF0C5F1F4FC357DF4FE8810B
:105AA000F981CD58D040E017F10709F09DCF89A4C6
:105AB0009AA4ABA4BCA480917F028823D9F1CF56CD
:105AC000DF4F3881C159D04065EF76E0332371F163
:105AD000B10188EF94E00E94081D69E077E088EF4B
