:100000000C94E1000C9409010C9409010C94090171
:100010000C9409010C9409010C9409010C94090138
:100020000C9409010C9409010C9409010C94090128
:100030000C9409010C9409010C9409010C94090118
:100040000C940C1C0C9409010C947C1C0C94561CF4
:100050000C9409010C9409010C9409010C940901F8
:100060000C94AE1C0C94090107634236B79BD8A7C9
:100070001A39685618AEBAAB558C1D3CB7CC5763CD
:10008000BD6DEDFD753EF6177231BF000000803F7B
:1000900008000000BE922449123EABAAAA2ABECD97
:1000A000CCCC4C3E00000080BEABAAAAAA3E000009
:1000B0000000BF000000803F000000000008417801
:1000C000D3BB4387D1133D190E3CC3BD4282AD2B38
:1000D0003E68EC8276BED98FE1A93E4C80EFFFBE30
:1000E00001C4FF7F3F0000000000202045787065BC
:1000F0006374656420372062797465732C20676FA0
:10010000743A2000202028313D6461746120746FAE
:100110006F206C6F6E672C20323D4E41434B206F39
:100120006E20616464722C20333D4E41434B206F3E
:100130006E20646174612C20343D6F74686572298F
:10014000002020493243204572726F7220436F6451
:10015000653A20007C3C3E5E2B3D3F2F5B5D3B2C97
:100160002A225C0000000000240027002A00000072
:100170000008000201000003040700000000000066
:1001800000000000000023002600290001020408EE
:1001900010204080010204081020010204081020F1
:1001A00000000000250028002B00040404040404BF
:1001B0000404020202020202030303030303CD1D2F
:1001C000132611241FBECFEFD8E0DEBFCDBF12E053
:1001D000A0E0B1E0E4E1F0E602C005900D92AE3A95
:1001E000B107D9F726E0AEEAB2E001C01D92AA3409
:1001F000B207E1F710E0C0EED0E004C02197FE01A5
:100200000E941328CF3DD107C9F70E94D31E0C943A
:10021000FD2F0C9400000895089590E0FC01E25930
:10022000FE4F2491FC01E457FE4F3491FC01E6554A
:10023000FE4FE491EE23C9F0222339F0233001F17F
:10024000A8F4213019F1223029F1F0E0EE0FFF1F60
:10025000E056FE4FA591B4918FB7F894EC916111DF
:1002600026C030953E233C938FBF08952730A9F0D8
:100270002830C9F0243049F7809180008F7D03C079
:10028000809180008F7780938000DFCF84B58F7757
:1002900084BDDBCF84B58F7DFBCF8091B0008F779D
:1002A0008093B000D2CF8091B0008F7DF9CF3E2BEC
:1002B000DACFCF93DF9390E0FC01E457FE4F249117
:1002C00086559E4FFC0184918823D1F090E0880FE1
:1002D000991FFC01EC59FE4FA591B491FC01E05629
:1002E000FE4FC591D49161110EC09FB7F8948C91C7
:1002F000E22FE0958E238C932881E223E8839FBF31
:10030000DF91CF9108958FB7F894EC91E22BEC93A5
:100310008FBFF6CF8230910538F0880F991F880F74
:10032000991F05970197F1F70895BF92CF92DF9239
:10033000EF92FF920F931F93CF93DF93EC0188818D
:100340009981892B81F06EBD0DB407FEFDCF0EB5EE
:10035000802FDF91CF911F910F91FF90EF90DF9051
:10036000CF90BF9008958885998511E0892B09F079
:1003700010E8BB24B394862F812309F0B12CF62E0C
:100380002C813D814E815F8160E271EA87E090E0DF
:100390000E945B26E22E00E0C22ED12CEE2019F046
:1003A000C6010E948A018A85982F977F09F044C070
:1003B0008D858F3F89F09F2D912381E009F480E0A6
:1003C0008B1551F0EF85F8898F89992379F1908108
:1003D000892B8083BB24B394E989FA898081998D24
:1003E000892B8083EE2019F0C6010E948A018E8538
:1003F0008F3F39F0EB89FC898081988D892309F042
:10040000012BE989FA899081898D809589238083E0
:1004100088859985892B09F067C0110F1111BECF0E
:100420008E858F3F09F094CF0F2D92CF90818095CC
:1004300089238083B12CD0CF8C3099F58D858F3F67
:1004400049F0EF85F8898F899F2D912331F19081B3
:10045000892B8083E989FA899081898D8095892308
:100460008083EE2019F0C6010E948A01E989FA8989
:100470008081998D892B8083EE2019F0C6010E941E
:100480008A018E858F3F21F2EB89FC898081988DCE
:10049000892309F4BDCF012BBBCF9081809589239F
:1004A000D8CFE989FA898081998D892B8083EE20C4
:1004B00019F0C6010E948A018D858F3F49F0EF85B2
:1004C000F8898F899F2D912359F09081892B808302
:1004D000E989FA899081898D809589238083D1CF9C
:1004E000908180958923F3CF169598CF3FB7F894E4
:1004F0008091090390910A03A0910B03B0910C0322
:1005000026B5A89B05C02F3F19F00196A11DB11D6E
:100510003FBFBA2FA92F982F8827BC01CD01620FAA
:10052000711D811D911D42E0660F771F881F991F65
:100530004A95D1F708958F929F92AF92BF92CF9232
:10054000DF92EF92FF924B015C010E9476026B01F9
:100550007C010E9476026C197D098E099F09683E14
:10056000734081059105A8F321E0821A9108A10842
:10057000B10888EEC80E83E0D81EE11CF11C81147E
:100580009104A104B10429F7FF90EF90DF90CF9080
:10059000BF90AF909F908F9008952FB7F89460917F
:1005A00005037091060380910703909108032FBF04
:1005B0000895AF92BF92CF92DF92EF92FF920F9386
:1005C0001F93CF93DF936C017B018B01040F151FE9
:1005D000EB015E01AE18BF08C017D10759F0699151
:1005E000D601ED91FC910190F081E02DC6010995B5
:1005F000892B79F7C501DF91CF911F910F91FF9062
:10060000EF90DF90CF90BF90AF900895FC01538D95
:10061000448D252F30E0842F90E0821B930B5417DC
:1006200010F00F96089501970895FC01918D828D29
:10063000981761F0A28DAE0FBF2FB11D5D968C9102
:10064000928D9F5F9F70928F90E008958FEF9FEF44
:100650000895FC01918D828D981731F0828DE80FFD
:10066000F11D858D90E008958FEF9FEF0895FC01B7
:10067000918D228D892F90E04096821B91098F7079
:100680009927089585E895E00E94370321E0892B9A
:1006900009F420E0822F089580E090E0892B29F072
:1006A0000E94420381110C9400000895FC01A48D66
:1006B000A80FB92FB11D9D962C91848D90E00196C5
:1006C0008F709927848FA689B7892C93A089B189C7
:1006D0008C91837080648C93938D848D981306C065
:1006E0000288F389E02D80818F7D80830895EF92C9
:1006F000FF920F931F93CF93DF93EC0181E0888FDC
:100700009B8D8C8D98131AC0E889F989808185FFAB
:1007100015C09FB7F894EE89FF896083E889F9894D
:1007200080818370806480839FBF81E090E0DF914F
:10073000CF911F910F91FF90EF900895F62E0B8DA2
:1007400010E00F5F1F4F0F701127E02E8C8D8E1160
:100750000CC00FB607FCFACFE889F989808185FFC4
:10076000F5CFCE010E945603F1CFEB8DEC0FFD2F9C
:10077000F11DF5A69FB7F8940B8FEA89FB8980815C
:100780008062D1CF0F931F93CF93DF938C01D0E082
:10079000C0E0F801EC0FFD1F6491662341F085E88D
:1007A00095E00E947703892B11F02196F2CFCE01BC
:1007B000DF91CF911F910F910895CF93DF93EC01BB
:1007C000888D8823B9F0AA89BB89E889F9898C9139
:1007D00085FD03C0808186FD0DC00FB607FCF7CFF5
:1007E0008C9185FFF2CF808185FFEDCFCE010E94F5
:1007F0005603E9CFDF91CF9108950895FC018385D9
:100800008F3F19F061E00C940D01089561E0FC0147
:1008100084810E940D018091F30281111092F302F4
:1008200008958EBD00000DB407FEFDCF8EB508956E
:100830008FEF0C9411040F931F93CF93DF93EC0170
:100840000E94CD028B010E9418048F3F69F00E9424
:10085000CD02601B710B6C177D07A8F380E0DF9160
:10086000CF911F910F91089581E0F9CF8CBD9DBD6F
:100870000895CF93DF93EC0188819981892B31F022
:10088000EA81FB81808191810E9436048B858F3FB4
:1008900029F060E0DF91CF910C940D01DF91CF91B1
:1008A0000895CF92DF92EF92FF920F931F93CF9311
:1008B000DF938C01EB016A0179010E9439046881A0
:1008C000C8010E949501E601EC0CFD1C6FEFC80108
:1008D0000E9495018993CE15DF05C1F7C8010E94DA
:1008E000FE0381E0DF91CF911F910F91FF90EF9078
:1008F000DF90CF900895CF93DF93EC018091F302C6
:10090000811109C081E08093F3028091C20590912A
:10091000C3050E94360460E08C81DF91CF910C9476
:100920000D018F929F92AF92BF92FF920F931F93F0
:10093000CF93DF93EC01F62E49015A018E81882373
:1009400089F08F8198859C012F5F3F4F38872F83D7
:100950008230924018F40E941804F3CFCE010E9416
:1009600006041E82CE010E947B048CE291E00E946C
:100970001B048F2D80640E94110408E110E0D50152
:10098000C401002E04C0B695A795979587950A9443
:10099000D2F70E94110408501109083F8FEF180781
:1009A00071F785E9FF2021F028E087E8F2128FEF48
:1009B0000E94110410E00E9418048A8787FF04C077
:1009C0001F3F11F01F5FF7CFDF91CF911F910F9164
:1009D000FF90BF90AF909F908F900895AF92BF927D
:1009E000CF92DF92EF92FF920F931F93CF93DF93FB
:1009F000EC016901C801820F931F8130924050F5CC
:100A00008E81882379F088819981AA81BB8184179E
:100A10009507A607B70731F48F819885C816D906C0
:100A200008F042C0488359836A837B838B85833077
:100A300039F089E0440F551F661F771F8A95D1F75B
:100A40009A01AB0161E1CE010E949104882389F0F3
:100A500083E08D83CE010E94060480E0DF91CF9178
:100A60001F910F91FF90EF90DF90CF90BF90AF90CC
:100A700008950E94CD025B010E9418048A878F3F6F
:100A800069F40E94CD026A197B096D327140A0F3AE
:100A90008FE08D83CE010E940604DCCF8E3F89F467
:100AA00018861F8281E08E838F8198858C159D0525
:100AB00050F40E9418048F819885019698878F833F
:100AC000F3CF8DE0E6CF6701E00EF11E0E9418041F
:100AD000F60181936F01EE15FF05C1F78F819885AF
:100AE000080F191F18870F838985882319F00115AE
:100AF0001240A0F08E81882389F08F8198859C0117
:100B00002F5F3F4F38872F838230924018F40E9426
:100B10001804F3CFCE010E9406041E8281E09ECF0E
:100B2000CF92DF92EF92FF920F93CF93DF93EC017E
:100B3000690182E1411551056105710599F08B85C7
:100B4000833039F089E0440F551F661F771F8A955F
:100B5000D1F79A01AB0168E1CE010E94910488238C
:100B600019F084E08D832DC08EEF0E941104760170
:100B70008EEFD81AF70181917F010E941104EC14C5
:100B8000FD04C1F78FEF0E9411048FEF0E94110442
:100B90000E9418048A878F71853071F4011116C084
:100BA000CE010E94060481E0DF91CF910F91FF906A
:100BB000EF90DF90CF90089581E18D83CE010E9468
:100BC0000604CE010E94060480E0EECF88E592E0A4
:100BD0000E941B04811102C085E1C4CF20E030E0F7
:100BE000A9016DE0CE010E949104882311F084E1F7
:100BF000B9CF0E9418048111FACFD2CF0F93409140
:100C0000F5025091F6026091F7027091F8024115D9
:100C100051056105710599F0082F23E833E08091B3
:100C20008305909184050E949005882349F01092D5
:100C3000F5021092F6021092F7021092F80281E08B
:100C40000F9108950F93CF93C82F8091F4028111D3
:100C500005C0C1E08C2FCF910F9108954091000104
:100C60005091010160910201709103010C2F23E862
:100C700033E080918305909184050E949005811155
:100C800002C0C0E0E7CFCC2321F381E00E94FE0543
:100C90008823B9F31092F402DDCF8F929F92AF9226
:100CA000BF92EF92FF920F931F93CF934B015C0182
:100CB000C42F8091000190910101A0910201B09197
:100CC000030188159905AA05BB0551F181E00E9431
:100CD000220681110BC080E0CF911F910F91FF90F0
:100CE000EF90BF90AF909F908F90089583E8E82E8B
:100CF00083E0F82E00E012E030E020E0B501A4012E
:100D000080918305909184050E94EE04882319F355
:100D10008092000190920101A0920201B092030121
:100D20004091F4024C2B4093F40281E0D5CF8F9296
:100D30009F92AF92BF92CF92DF92EF92FF92CF93AA
:100D400024EC35E03093840520938305882309F44F
:100D50006DC040E060E070E0CB010E944D06811163
:100D60000BC080E0CF91FF90EF90DF90CF90BF90CD
:100D7000AF909F908F900895809141058F7789F76C
:100D800080914D0590914E05A0914F05B091500571
:100D900084369105A105B10520F3C0904905D09096
:100DA0004A05E0904B05F0904C05C114D104E104D4
:100DB000F104B9F240E0C701B6010E944D06882354
:100DC00081F280918E0390918F038115924049F6B4
:100DD000A0919303AA2329F2609191037091920349
:100DE0006115710509F4BDCF20919003222309F408
:100DF000B8CFA093E2052093D40590E080E030E0E6
:100E0000E1E0F0E0C82FAF01082E02C0440F551FEB
:100E10000A94E2F72417350769F041E0480F01967C
:100E20008930910579F74093DD059BCFC12CD12CFA
:100E30007601C0CF8093DD052091990330919A030C
:100E400050E040E02115310541F42091A703309195
:100E5000A8034091A9035091AA032093D50530938C
:100E6000D6054093D7055093D80546015701860E05
:100E7000971EA11CB11C8092E3059092E405A092FC
:100E8000E505B092E605E0919403F0919503F093A7
:100E9000E905E093E805B0E00E947D26DC01CB0186
:100EA000880D991DAA1DBB1D8093EA059093EB0543
:100EB000A093EC05B093ED0525E0EE0FFF1F2A95FA
:100EC000E1F7E150FE4FEF2FFF27E6958E0F9F1FB2
:100ED000A11DB11D8093DE059093DF05A093E00571
:100EE000B093E1058090960390909703B12CA12CCC
:100EF0008114910441F48090A3039090A403A090E6
:100F0000A503B090A603C81AD90AEA0AFB0AC80CBE
:100F1000D91CEA1CFB1C04C0F694E794D794C79430
:100F2000CA95D2F7C092D905D092DA05E092DB05D6
:100F3000F092DC0585EFC8168FE0D806E104F104D5
:100F400028F48CE08093E70581E00CCF80E125EF69
:100F5000C2162FEFD206E104F104A0F38091AF0393
:100F60009091B003A091B103B091B2038093EA05D0
:100F70009093EB05A093EC05B093ED0580E2E2CFF2
:100F80004F925F926F927F928F929F92AF92BF9299
:100F9000CF92DF92EF92FF920F931F93CF93DF9345
:100FA000EC01423051056105710590F480E0DF915C
:100FB000CF911F910F91FF90EF90DF90CF90BF9056
:100FC000AF909F908F907F906F905F904F9008951B
:100FD00089859A85AB85BC850196A11DB11D8417B5
:100FE0009507A607B70710F3CB88DC88ED88FE8845
:100FF0008F89803109F042C0BB27A72F962F852FFC
:10100000480159012A013B01C80ED91EEA1EFB1EE8
:101010008091000190910101A0910201B091030122
:10102000C816D906EA06FB0699F58F898031C1F505
:10103000B301A201552766277727440F551F4D5747
:101040005C4FFA01918280828091F40281608093EA
:10105000F4028A89823080F08D819E81AF81B885CB
:101060008C0D9D1DAE1DBF1D8093F5029093F60261
:10107000A093F702B093F80281E099CFDB01CA0197
:10108000E7E0B695A79597958795EA95D1F7B8CFFC
:1010900040E0C701B6010E944D068111C6CF86CF40
:1010A000B301A2014F77552766277727440F551FB5
:1010B000440F551F4D575C4FFA0180829182A282E6
:1010C000B382C2CF8F929F92AF92BF92CF92DF92A4
:1010D000EF92FF920F931F93CF93DF93FC018185D3
:1010E0009285A385B4850196A11DB11D841795072E
:1010F000A607B70770F480E0DF91CF911F910F91A1
:10110000FF90EF90DF90CF90BF90AF909F908F9027
:10111000089583889488A588B6888789803189F561
:10112000BB27A72F962F852FE9016A017B018F012D
:10113000BC01CD01680D791D8A1D9B1D80900001A9
:1011400090900101A0900201B090030186169706CD
:10115000A806B90601F5F8018789803111F5DD246B
:10116000EE24FF24F601EE0FFF1FED57FC4F8081A8
:101170009181B0E0A0E088839983AA83BB8381E05A
:10118000BBCFDB01CA01C7E0B695A79597958795B8
:10119000CA95D1F7C9CF40E00E944D068111DBCF3F
:1011A000AACFE894C7F8DD24EE24FF24F601EE0F61
:1011B000FF1FEE0FFF1FED57FC4F80819181A28131
:1011C000B381BF70D8CF4F925F926F927F92AF92F0
:1011D000BF92CF92DF92EF92FF920F931F93CF9324
:1011E000DF9300D000D0CDB7DEB78C0149835A839E
:1011F0006B837C835901C12CD12C7601412C82E078
:10120000582E612C712C49815A816B817C819E0101
:101210002F5F3F4FC8010E946208882339F1F8010F
:101220008585A301920104C0220F331F441F551F5F
:101230008A95D2F7DA01C901C80ED91EEA1EFB1E33
:1012400049815A816B817C818789803111F188EFD6
:101250009FEFAFEFBFE0481759076A077B0798F287
:10126000F501C082D182E282F38281E00F900F907B
:101270000F900F90DF91CF911F910F91FF90EF9002
:10128000DF90CF90BF90AF907F906F905F904F9026
:10129000089588EF9FEFA0E0B0E0DDCFCF93DF931C
:1012A000FC012581222321F080E0DF91CF91089578
:1012B000EC018091E705803159F582E08583178A3A
:1012C000108E118E128E8091E8059091E905B0E0A4
:1012D000A0E025E0880F991FAA1FBB1F2A95D1F710
:1012E000838B948BA58BB68B80ED95E09C8F8B8F39
:1012F00081E08C831E821F82188619861A861B86BF
:101300001C861D861E861F86188A198A1A8ACDCFCA
:10131000803251F683E085834091EA055091EB05D8
:101320006091EC057091ED05478B508F618F728F46
:101330009F012D5E3F4F80ED95E00E94E3088111F3
:10134000D3CFB2CF8F929F92AF92BF92CF92DF92C4
:10135000EF92FF920F931F93CF93DF93EC018D8158
:1013600081110EC080E0DF91CF911F910F91FF900E
:10137000EF90DF90CF90BF90AF909F908F900895A7
:101380000B891C892D893E89041715072607370705
:1013900048F34A015B01823031F48A869B86AC8631
:1013A000BD8681E0E0CF81149104A104B10449F429
:1013B0001E821F82188619861A861B861C861D8629
:1013C000F0CF0A851B852C853D85EB8DFC8D8585B1
:1013D00090E00996B901A8014150510961097109CC
:1013E000082E04C076956795579547950A94D2F7CD
:1013F00075016401E1E0CE1AD108E108F10804C0EA
:10140000F694E794D794C7948A95D2F7C416D50674
:10141000E606F70620F0012B022B032B11F58F892E
:10142000988DA98DBA8D8E839F83A887B9878E01E9
:101430000A5F1F4FC114D104E104F10409F4ADCFD8
:101440004E815F816885798598018B8D9C8D0E9486
:10145000620891E0C91AD108E108F1088111EACFC8
:1014600081CFC41AD50AE60AF70AE1CF3F924F921C
:101470005F926F927F928F929F92AF92BF92CF9224
:10148000DF92EF92FF920F931F93CF93DF93CDB72D
:10149000DEB72C970FB6F894DEBF0FBECDBF5C0150
:1014A000DC015B968D909C905C9716964D905D90BC
:1014B0006D907C901997411451046104710409F4F2
:1014C00068C0BFEF4B1A5B0A6B0A7B0A312CF40130
:1014D00081859285A385B4859C01AD012F5F3F4F27
:1014E0004F4F5F4F29873A874B875C8773016201B3
:1014F0001D821E821F821886F40181859285A38534
:10150000B4852D813E814F815885281739074A07B8
:101510005B0708F056C089859A85AB85BC858C151C
:101520009D05AE05BF0550F482E0C82ED12CE12CFC
:10153000F12C92E0492E512C612C712C9E012F5FD1
:101540003F4FB701A601C4010E9462088823C9F178
:1015500089819A81AB81BC81892B8A2B8B2B09F1E4
:10156000260137019FEF491A590A690A790A2D8124
:101570003E814F8158852F5F3F4F4F4F5F4F2D83E7
:101580003E834F8358873FEFC31AD30AE30AF30A17
:10159000B3CFF40140805180628073803324339450
:1015A00096CFC414D504E604F70409F70FEF1FEF34
:1015B0002FEF3FE0B701A601C4010E94C0078111CF
:1015C00019C080E02C960FB6F894DEBF0FBECDBFD9
:1015D000DF91CF911F910F91FF90EF90DF90CF900F
:1015E000BF90AF909F908F907F906F905F904F9043
:1015F0003F900895D50116964D915D916D917C9126
:101600001997411551056105710539F0970186015A
:10161000C4010E94C0078823A1F2D5011696CD927D
:10162000DD92ED92FC921997332051F0D701C6015B
:101630000196A11DB11DF40180839183A283B38320
:10164000F5018789908DA18DB28D892B8A2B8B2BEB
:1016500039F48481C78AD08EE18EF28E80688483CB
:10166000F50184818062848381E0ACCF1F93CF93A6
:10167000DF93FC0125812223D1F1162FEC01848117
:1016800087FF2AC0668577858089918941E00E941D
:101690004D06882361F1EA8980E2E89FF001112478
:1016A000ED57FC4F309719F18D81823040F48B89D2
:1016B0009C89AD89BE89848F958FA68FB78F8F89BE
:1016C000988D938F828F8F89988DA98DBA8DB58BC8
:1016D000A48B8C818F778C83111103C08C818F7EBA
:1016E0008C83812FDF91CF911F910C94220680E093
:1016F000DF91CF911F910895FF920F931F93CF9386
:10170000DF93EC018D81813041F090E080E0DF914A
:10171000CF911F910F91FF9008958C8181FFF5CF9C
:1017200082FD1BC00091830510918405C8010E94B1
:101730007B040E941804F82EC8010E9406048FEF53
:10174000F812E3CF8C8185FF1BC060E0CE010E94C0
:10175000360B8C818F7D8C83D8CF4B895C896D89CA
:101760007E898A859B85AC85BD8584179507A607EC
:10177000B707C1F2CE010E94A2098111D3CFC5CF14
:101780004091F5025091F6026091F7027091F802D3
:10179000452B462B472B21F080E00E94FE05B5CF5C
:1017A00080618C832A853B85317080E092E0821BCA
:1017B000930BADCFCF93DF93EC0161E00E94360B2A
:1017C000882311F01D8281E0DF91CF9108952F923F
:1017D0003F924F925F926F927F928F929F92AF92C1
:1017E000BF92CF92DF92EF92FF920F931F93CF930E
:1017F000DF9300D000D01F92CDB7DEB77C015B0134
:10180000342E5D83DC0115968C911597813009F09B
:10181000CEC014962C9021FECAC022FCB4C0C32CAA
:10182000DD8022947FE027222094B22DB1702B2EF0
:10183000D7011A964D915D916D917C911D97C114C0
:10184000D10409F428C15B968D919C915C97FC01B1
:1018500074807A948A019B0169E0369527951795E3
:1018600007956A95D1F770228A011170711020C016
:1018700001151105E9F416964D915D916D917C91DC
:101880001997411551056105710509F099C05796E1
:101890008D919D910D90BC91A02D0097A105B10552
:1018A00009F0B0C0C7010E94360A882309F47FC03E
:1018B00080E092E0801B910B46018C159D0508F499
:1018C0004C01D7015B964D915C915C9716968D917A
:1018D0009D910D90BC91A02D0297A109B109FA012B
:1018E000258504C0880F991FAA1FBB1F2A95D2F710
:1018F0004685578560897189840F951FA61FB71F7C
:101900009C01AD01270D311D411D511D29013A01D9
:10191000811432E0930609F07BC080910001909120
:101920000101A0910201B091030184159505A6055E
:10193000B70559F48FEF9FEFDC018093000190937E
:101940000101A0930201B0930301022D9501B3019F
:10195000A20180918305909184050E9490058823BF
:1019600031F19EEFB91AC818D908F701828593851D
:10197000A485B585880D991DA11DB11D828793870A
:10198000A487B58755CFF70143895489658976893E
:1019900082859385A485B585481759076A077B0713
:1019A00009F43DCFC7010E94A209811138CF81E01F
:1019B00090E0D70113969C938E93129780E007C016
:1019C0009E012F5F3F4F0E946208811102C090E08C
:1019D00079C089819A81AB81BC81F701238D348DD7
:1019E000F901278948EF5FEF60E070E0203121F0D6
:1019F00048EF5FEF6FEF7FE084179507A607B70703
:101A000008F050CFF70186839783A087B18750CF26
:101A10000115110599F5D7011A964D915D916D91BA
:101A20007C911D9753968D919D910D90BC91A02D09
:101A3000481759076A077B0708F181E00E942206D0
:101A4000882309F4B4CF40920001509201016092C2
:101A50000201709203018091F40281608093F4028C
:101A6000C8018D579C4FD5019C01280D391DFC01E3
:101A70002E173F0759F04D914193FACF41E0C30132
:101A8000B2010E944D068111EBCF91CF281B390B7B
:101A9000A20EB31E68CFF70183899489A589B68900
:101AA00084179507A607B70738F48481438B548BB6
:101AB000658B768B80688483F701848183FD1AC0EF
:101AC000832D9D810F900F900F900F900F90DF91BD
:101AD000CF911F910F91FF90EF90DF90CF90BF902B
:101AE000AF909F908F907F906F905F904F903F90BE
:101AF0002F90089561E0C7010E94360B882309F4F6
:101B000056CFDECFCF93DF931F92CDB7DEB7698379
:101B100041E050E0BE016F5F7F4F0E94E70B0F90E6
:101B2000DF91CF910895FC01DB0112968D919C917C
:101B300013979383828382E391E091838083149649
:101B40008C911497848315968C911597858316969E
:101B50004D915D916D917C91199746835783608774
:101B600071871A964D915D916D917C911D97428779
:101B70005387648775871E964D915D916D917C9119
:101B8000519746875787608B718B52968C915297ED
:101B9000828B53964D915D916D917C915697438BBD
:101BA000548B658B768B57964D915D916D917C91A1
:101BB0005A97478B508F618F728F5B968D919C9156
:101BC000948F838F08950895FC01818D928D0097E5
:101BD00019F061E00C94360B0895DC015996ED91F3
:101BE000FC913097B9F083899489A589B68942859B
:101BF000538564857585841B950BA60BB70B8115E2
:101C000020E89207A105B10538F08FEF9FE7A0E02B
:101C1000B0E0089590E080E00895DC0159968D9140
:101C20009C91009739F0DC01ED91FC910480F581E5
:101C3000E02D099490E080E00895CF93DF93EC01CC
:101C4000E98DFA8D309749F481E090E09B838A8397
:101C500090E080E0DF91CF91089513821282898D08
:101C60009A8D0E94E70BE98DFA8D22813381232B17
:101C700059F7F0CFCF93DF931F92CDB7DEB76983CB
:101C8000DC01ED91FC910280F381E02D41E050E018
:101C9000BE016F5F7F4F09950F90DF91CF9108953F
:101CA0002F923F924F925F926F927F928F929F926C
:101CB000AF92BF92CF92DF92EF92FF920F931F935A
:101CC000CF93DF9300D01F92CDB7DEB7FC018581A3
:101CD000811118C08FEF9FEF0F900F900F90DF9141
:101CE000CF911F910F91FF90EF90DF90CF90BF9019
:101CF000AF909F908F907F906F905F904F903F90AC
:101D00002F900895848180FFE5CF438954896589A8
:101D1000768982859385A485B585312C212C481739
:101D200059076A077B0719F022242394312C6F018D
:101D30002101CE0101963C01DF011696BB83AA83E7
:101D40004114510409F4C5C0F601428553856485E8
:101D500075854A01F1E09F22D6015B968D919C9199
:101D60005C978A019B01E9E03695279517950795C1
:101D7000EA95D1F71596EC91E230E9F5FC01628D18
:101D8000738D848D958D600F711F821F931FA12C01
:101D900022E0B22EA818B9084A145B0408F45201D4
:101DA000F601248126FD04C0A114F2E0BF0671F4FF
:101DB0000091000110910101209102013091030175
:101DC000061717072807390709F05EC040E00E9490
:101DD0004D06882309F47ECFC4018D579C4FD30153
:101DE0009C012A0D3B1DFC012E173F0709F46CC016
:101DF00041914D93F9CFDC011496BC90BA94B02276
:101E00008114910479F4B1100DC0452B462B472B5A
:101E100069F5F6018789908DA18DB28D86839783B0
:101E2000A087B187D6015B96ED91FC915C971696E1
:101E30006D917D918D919C911997625071098109E5
:101E40009109258504C0660F771F881F991F2A9561
:101E5000D2F70685178520893189600F711F821F8F
:101E6000931F6B0D711D811D911D91CFD60116968B
:101E70004D915D916D917C9119972A813B810E94D2
:101E800062088111CFCF26CF730185019401AB0188
:101E9000BC0180918305909184050E94EE04882303
:101EA00009F418CF6A0C7B1CF60182859385A48502
:101EB000B5858A0D9B1DA11DB11D82879387A487BF
:101EC000B5874A185B083CCF281B390B620E731E7E
:101ED000EBCF2A94232809F0FDCE898190E0FCCE37
:101EE000FC01818D928D009711F00C94500E8FEFB4
:101EF0009FEF08950F931F93CF93DF93EC01898D8C
:101F00009A8D10E000E0009799F00E94500E8C012D
:101F10000F3F100769F0898D9A8DFC01428553852A
:101F20006485758541505109610971090E94A209B2
:101F3000C801DF91CF911F910F91089508950895E1
:101F4000CF93CFB7F8948091F202811127C0E4EBD0
:101F5000F1E08491E6E9F1E09491E82FF0E0EE0FF2
:101F6000FF1FEC59FE4FA591B491EC91E92321F4A8
:101F700061E08AE00E940D0161E08AE00E9459015F
:101F80008CB580618CBD8CB580648CBD61E08DE0CA
:101F90000E94590161E08BE00E9459018091F20298
:101FA0008F5F8093F202CFBFCF9108952091CF022F
:101FB000260F3327331F21323105ECF420915903CA
:101FC000FC0190E080E0243069F082E00895A09167
:101FD000CF022191AC0141555D4FA40FB52FB11D2A
:101FE0002C930196861798F38091CF02680F609327
:101FF000CF0280E0089581E008951092590381E0B6
:10200000809358031092330361E082E10E940D0136
:1020100061E083E10E940D01E9EBF0E080818E7FB9
:10202000808380818D7F808388E48093B80085E4FD
:102030008093BC0008951092120310921103109225
:102040006003109282030E94FD0F8BE091E0909359
:10205000100380930F038CE091E090930E03809324
:102060000D030895CF93DF9391E09093AE02882300
:10207000B9F0C091B800D091BA008091BC008A7BC1
:102080008093BC0060E082E10E940D0160E083E18A
:102090000E940D010E94FD0FD093BA00C093B800BA
:1020A000DF91CF9108958F929F92AF92BF92CF927E
:1020B000DF92EF92FF920F931F93CF93DF93D09114
:1020C0008203D13208F0D7C0182FC09181030E943B
:1020D00076026B017C018091590381116BC082E013
:1020E00080935903109358038FEF809357031092F6
:1020F0005603D0935503A1E6B3E0E5E3F3E080E0B7
:10210000D81391C01092340380913403CC0FC82BA4
:10211000C093340380913303813009F088C010925A
:1021200033030E9476026B017C018091340380931B
:10213000BB0080915B0390915C03A0915D03B09123
:102140005E03892B8A2B8B2BA1F00E9476020091D3
:102150005B0310915C0320915D0330915E036C1969
:102160007D098E099F09061717072807390708F404
:1021700042C08091BC0083FDD8CF85EC8093BC0029
:102180000E9476026B017C0180915903823009F430
:1021900050C0809157038F3F09F46FC0809157035F
:1021A000803209F46CC080915703803309F469C010
:1021B00084E026C080915B0390915C03A0915D0355
:1021C000B0915E03892B8A2B8B2B09F484CF0E945C
:1021D000760280905B0390905C03A0905D03B090CA
:1021E0005E036C197D098E099F0986169706A8065D
:1021F000B90608F070CF80915A030E94321085E032
:10220000109260031092820310925F03DF91CF91CE
:102210001F910F91FF90EF90DF90CF90BF90AF9004
:102220009F908F9008959D9191938F5F69CF85EED8
:10223000A5CF80915B0390915C03A0915D03B09169
:102240005E03892B8A2B8B2B09F49ECF0E9476028A
:1022500000915B0310915C0320915D0330915E035C
:102260006C197D098E099F0906171707280739077A
:1022700008F08ACFC0CF81E0C3CF80E0C1CF82E039
:10228000BFCF83E0BDCF1F93CF93DF93EA01122F1F
:10229000DC0111968D919C91DC01ED91FC91028005
:1022A000F381E02D0995C817D90729F4812F0E94E1
:1022B000531091E0811190E0892FDF91CF911F9110
:1022C00008958F929F92AF92BF92CF92DF92EF923A
:1022D000FF920F931F93CF93DF93D82FC62F142F06
:1022E000613208F09CC00E9476026B017C018091F3
:1022F000590381116FC081E08093590310935803F3
:102300009FEF90935703109256039C0F90935503A1
:102310008093340380913403DD0FD82BD0933403A2
:1023200080913303813009F07CC0109233030E9406
:1023300076026B017C01809134038093BB00809115
:102340005B0390915C03A0915D03B0915E03892BC8
:102350008A2B8B2BA1F00E94760200915B031091D7
:102360005C0320915D0330915E036C197D098E0939
:102370009F09061717072807390708F44CC08091F2
:10238000BC0083FDD8CF85EC8093BC000E94760210
:102390006B017C0180915903813009F444C0809124
:1023A00056038C1710F4C0915603E5E3F3E0A3E164
:1023B000B3E080E08C1359C08C2FDF91CF911F9137
:1023C0000F91FF90EF90DF90CF90BF90AF909F90D4
:1023D0008F90089580915B0390915C03A0915D03C1
:1023E000B0915E03892B8A2B8B2B09F480CF0E943E
:1023F000760280905B0390905C03A0905D03B090A8
:102400005E036C197D098E099F0986169706A8063A
:10241000B90608F06CCF80915A030E943210C0E0D8
:10242000CBCF85EEB1CF80915B0390915C03A091FF
:102430005D03B0915E03892B8A2B8B2B09F4AACF05
:102440000E94760200915B0310915C0320915D0372
:1024500030915E036C197D098E099F0906171707D5
:102460002807390708F096CFD6CF91919D938F5FBB
:10247000A1CF0895E091120380911103E81730F481
:10248000F0E0ED5EFC4F808190E008958FEF9FEFCC
:10249000089590911203809111032FEF3FEF981749
:1024A00048F4E92FF0E0ED5EFC4F208130E09F5FC3
:1024B00090931203C9010895809111039091120322
:1024C000891B990B0895CF92DF92EF92FF920F93A1
:1024D0001F93CF93DF937C01CB018A0120915F038F
:1024E000222389F0EB016B01C40ED51ECC15DD054E
:1024F00069F06991D701ED91FC910190F081E02D97
:10250000C7010995F3CF642F0E94D60FC801DF9150
:10251000CF911F910F91FF90EF90DF90CF90089592
:10252000CF93DF931F92CDB7DEB7698320915F030E
:102530002223F9F020918203203258F021E030E08C
:10254000FC013383228390E080E00F90DF91CF91F4
:10255000089580916003E82FF0E0EF59FC4F9981D6
:1025600090838F5F809360038093820381E090E08B
:10257000ECCF61E0CE0101960E94D60FF7CF682F15
:102580008DE096E00C94901281E00C945310CF9360
:10259000DF93EC018B818823A9F089819A812881BE
:1025A00031E030935F032093810310926003109217
:1025B00082030E94C41291E0811190E0892FDF9183
:1025C000CF9108950E941B1081E08B83CE010E9461
:1025D000C712982F8111E1CFF1CF90E080E00895EC
:1025E0000F931F93CF93DF9300D0CDB7DEB76A83ED
:1025F000E0911B06F0911C063097F9F089838481E5
:102600009581029798F0808191E090935F03809389
:102610008103109260031092820321E042E050E0B7
:10262000BE016F5F7F4FCF010E9443110F900F904B
:10263000DF91CF911F910F9108958F77898300913A
:102640001D0610911E06C8010E9439046981C80147
:102650000E9495016A81C8010E949501C8010E94EB
:10266000FE03E4CFCF93DF93C5E4D6E08770886E96
:102670008883E4E4F6E0962F9770990F990F990FED
:102680008081807C242F2770892B822B808395E08A
:10269000440F551F9A95E1F787FB882780F9482B4F
:1026A000660F771F660F771F642B85EF0E94F0126D
:1026B0008881682F677090E2699FB0011124282FEC
:1026C000269526952695277094E0299F9001112440
:1026D000622B8295869586958370682B84EFDF91B7
:1026E000CF910C94F0125F926F927F928F929F9293
:1026F000AF92BF92CF92DF92EF92FF920F931F9310
:10270000CF93DF93DC011496ED91FC911597EF2B9D
:1027100009F465C069013A01EC01888191E0909368
:102720005F0380938103109260031092820320E084
:1027300041E050E0CD010E944311582E882309F456
:102740004EC0F12CE12C8C819D8186010E191F0950
:102750008017910708F48C0141E0C601801B910BA2
:10276000E816F90608F440E0602F013208F060E254
:1027700088810E94611110921203809311038017C7
:10278000110669F543018E0C9F1C5401C50188197F
:1027900099098017910768F489819A81DC01ED918C
:1027A000FC910284F385E02D0995F50181935F0189
:1027B000EDCFE00EF11EEC14FD0428F2852DDF9123
:1027C000CF911F910F91FF90EF90DF90CF90BF902E
:1027D000AF909F908F907F906F905F900895512C55
:1027E000EDCFCF93DF9300D0CDB7DEB7E0911B06DE
:1027F000F0911C06898322E030E0AE014F5F5F4F0D
:10280000BA01309751F0CF010E94731389819A81E8
:102810000F900F90DF91CF91089580911D069091B8
:102820001E060E945104F2CFCF93DF9300D01F9277
:10283000CDB7DEB7FC0182819381698323E030E06C
:10284000AE014F5F5F4FBA010097A1F00E94731372
:1028500029816A8170E090E080E0982F872F762FA1
:102860006627822B2B81622B0F900F900F90DF91A8
:10287000CF910895848195810E945104E9CF8F9270
:102880009F92AF92BF92CF92DF92EF92FF920F93FF
:102890001F93CF93DF93FC0143855485658576852F
:1028A000452B462B472B09F479C0EC016AEF0E94B7
:1028B00014140B891C8930E020E0C72ED82EE92E95
:1028C000FF24E7FCFA94C01AD10AE20AF30A57E09F
:1028D00095958795779567955A95D1F7000F111FB4
:1028E000221F331F4B015C01801A910AA20AB30A0E
:1028F000A5019401AD89BE890E9488264B015C0127
:10290000FBE0B594A79497948794FA95D1F7A70123
:102910009601C701B6010E944B269B01AC01ACE0B9
:102920005595479537952795AA95D1F7AF89B88DD5
:102930000E9488269B01AC01BEE0559547953795CE
:102940002795BA95D1F7280D391D4A1D5B1D2F8794
:10295000388B498B5A8BA5E0B0E00E947D266058E9
:102960007F4F8F4F9F4F672F782F892F992787FD94
:102970009A950E94142920E030E048EC52E40E942D
:102980009A28DF91CF911F910F91FF90EF90DF90E8
:10299000CF90BF90AF909F908F90089560E070E0CF
:1029A00080EC9FE7EECF2F923F924F925F926F9213
:1029B0007F928F929F92AF92BF92CF92DF92EF92CF
:1029C000FF920F931F93CF93DF93CDB7DEB76D9731
:1029D0000FB6F894DEBF0FBECDBF9D8F8C8F0E94C7
:1029E0003F1467EF8C8D9D8D0E941414688F798F32
:1029F0008A8F9B8FEC8DFD8D87859089A189B28907
:102A00006C017D01FF0CCC08DC2C76019C01AD0132
:102A10006C2D7C2D8C2D9C2D345F4140510961091A
:102A200071098109910929873A874B875C873B01A6
:102A30004C0159016A017B018C010E949026322EC3
:102A4000232E4A8B5B8B6C8B7D8B8E8B9F8BAC8DFF
:102A5000BD8D5C963C915C975B962C91932F990F62
:102A6000990B492F592F692F792F892F0E94902672
:102A70000CE00E94BF27522E39834D875E876F87F7
:102A8000788B898B492EEC8DFD8D368D258D932F7E
:102A9000990F990BA32CB22CCA88DB88EC88FD888F
:102AA0000E891F89492F592F692F792F892F0E944D
:102AB000902608E00E94D827A52CB980CD84DE841A
:102AC000EF84F8880989142D0E94F52770588F4FDC
:102AD0009F4FAC8DBD8D5996ED91FC915F01D12C2E
:102AE000C12CE12CF12C8701E983BA82CB82DC82F4
:102AF000ED82FE820F831887C12CD12CE12CF12CA2
:102B000000E010E00E94902601E20E94D82729836D
:102B1000532E4D875E876F87788B898B492EA0E077
:102B20000E94072809F43DC1AC8DBD8D94963C915F
:102B3000949793962C91932F990F990BA32CB22CC9
:102B4000CA88DB88EC88FD880E891F89492F592F98
:102B5000692F792F892F0E94902619014A8B5B8B50
:102B60006C8B7D8B8E8B9F8BEC8DFD8D32A121A18B
:102B7000932F990F990BA984BA84CB84DC847301B9
:102B80008401492F592F692F792F892F0E94902670
:102B900001E10E94BF275101CA88DB88EC88FD88CB
:102BA0000E891F890E94F52759016A017B01282E91
:102BB000192F488D598D6A8D7B8D84E075956795A9
:102BC000579547958A95D1F780E090E0A0E1B0E075
:102BD000841B950BA60BB70B3C014D01990C6608A5
:102BE000762C43019C01AD01662D762D862D962D08
:102BF0000FE10E94BF27722E832E942E652EB62FD2
:102C0000A72F382E9987EC8DFD8D30A1278D932F1E
:102C1000990F990B492F592F692F792F892F03E28B
:102C20000E94BF27022D0E94F52759016A017B01EE
:102C30008C01272D382D492D562D6B2F7A2F832D62
:102C400099850E94FE27E5E3AE2EFCE0BF2EC12C45
:102C5000D12CE12CF12C00E010E00E949026A980FC
:102C6000B52CCD84DE84EF84F8880989142D0E9468
:102C7000EA2629873A874B875C8769837D878E8719
:102C80009F870DE00E94D827922E832E742E652EEA
:102C9000562E472E382E292EAC8DBD8D9A963C91FE
:102CA0009A9799962C91932F990F990BA92CB82C40
:102CB000C72CD62CE52CF42C032D122D492F592F7F
:102CC000692F792F892F0E9490260E94902609E172
:102CD0000E94D827A984BA84CB84DC84E980FD844F
:102CE0000E851F850E94F52719012A013B014C0121
:102CF000EC8DFD8D30A527A1932F990F990B492FAE
:102D0000592F692F792F892F0E94902603E10E9465
:102D1000D82759016A017B018C019101A201B301FD
:102D2000C4010E94F52708E00E94D82759016A01D2
:102D30007B01E82F192FAC8DBD8D96963C9196970F
:102D400095962C91932F990F990B492F592F692FF5
:102D5000792F892F04E00E94BF270E2F0E94F527AC
:102D60000E940C2920E030E040E85BE30E94172A33
:102D70006D960FB6F894DEBF0FBECDBFDF91CF9139
:102D80001F910F91FF90EF90DF90CF90BF90AF9089
:102D90009F908F907F906F905F904F903F902F907B
:102DA000089560E070E0CB01E3CFCF92DF92EF9225
:102DB000FF921F93CF93DF93EC0180E2689FF001B5
:102DC0001124ED57FC4F9385917161F0842F82742B
:102DD00049F080E0DF91CF911F91FF90EF90DF905D
:102DE000CF900895142F6A8B80910001909101017A
:102DF000A0910201B09103018E879F87A88BB98BA8
:102E0000C488D588F12CE12C7601DD24CC24CF8A2E
:102E1000D88EE98EFA8E828D938DB0E0A0E0AC0161
:102E2000BD014C295D296E297F294F8B588F698FF1
:102E30007A8F83858871B1F4848D958DA68DB78D39
:102E40008B8B9C8BAD8BBE8B81E08D831F701C8325
:102E50001E821F82188619861A861B861C861D866E
:102E600081E0B8CF803109F0B4CF9E012D5E3F4F95
:102E70008B8D9C8D0E94E308882309F4AACF84E0FF
:102E8000E4CF0C94AA2C0C94AA2CFB0101900020F6
:102E9000E9F73197AF01461B570BDC01ED91FC912F
:102EA0000280F381E02D09948F929F92AF92BF929E
:102EB0000F931F93CF93DF93CDB7DEB7A1970FB6D4
:102EC000F894DEBF0FBECDBF19A2423008F44AE02D
:102ED0008E010F5D1F4F842E912CB12CA12CA501CA
:102EE00094010E945B26E62FB901CA01EA3004F57D
:102EF000E05DD801EE938D01232B242B252B79F750
:102F000090E080E0109729F0BD0185E895E00E94EF
:102F10004517A1960FB6F894DEBF0FBECDBFDF9167
:102F2000CF911F910F91BF90AF909F908F90089578
:102F3000E95CDFCF682F70E090E080E04AE00C941D
:102F40005417BC0185E895E00C944517CF93DF93A7
:102F5000BC01990F880B990B4AE00E945417EC01B1
:102F600068E671E085E895E00E9445178C0F9D1F8B
:102F7000DF91CF910895CF93DF930E949A17EC01D0
:102F800068E671E085E895E00E9445178C0F9D1F6B
:102F9000DF91CF9108950F931F93CF93DF93EC01AF
:102FA0000E9445178C0168E671E0CE010E9445172A
:102FB000800F911FDF91CF911F910F910895CF92B4
:102FC000DF92EF92FF920F931F93CF93DF93EC0169
:102FD00011E010935F0388E68093810310926003F1
:102FE0001092820383E090E00E94BF128DE096E091
:102FF0000E94C412082F8823E1F01F8281E491E02F
:103000000E94C203802F0E94BB1784E091E00E94BF
:10301000C20368E671E085E895E00E94451780E00C
:10302000DF91CF911F910F91FF90EF90DF90CF90A4
:10303000089541E067E088E60E946111082F109230
:10304000120380931103873048F41F828AEE90E0C8
:103050000E94C203802F0E94BB17E1CF8DE096E053
:103060000E944912C82E8DE096E00E944912D82E87
:103070008DE096E00E944912E82E8DE096E00E94D5
:103080004912F82E8DE096E00E9449128DE096E0FC
:103090000E944912082F8DE096E00E9449124C2DA3
:1030A0004F77242F30E054E0359527955A95E1F776
:1030B000322F330F330FA22FA31BAA0FA40FAE83FF
:1030C0004D2D4F77242F30E064E0359527956A9594
:1030D000E1F7322F330F330FF22FF31BFF0FF40FF3
:1030E000FD834E2D4F73242F30E074E035952795E6
:1030F0007A95E1F7322F330F330FE22FE31BEE0FF8
:10310000E40FEC832F2D2F73622F70E0B4E07595E0
:103110006795BA95E1F7362F330F330F631B660FB0
:10312000620F6B830F71402F50E024E05595479557
:103130002A95E1F7242F220F220F421B440F400F44
:103140004A839C0154E0359527955A95E1F72F70F5
:103150003327922F990F990F291B220F280F30E048
:103160002053384F39832883AC3350F4FC3340F478
:10317000E83130F461506F3118F441504C3010F0A8
:103180001F824DCF1F8381E04BCF3F924F925F92C2
:103190006F927F928F929F92AF92BF92CF92DF9267
:1031A000EF92FF920F931F93CF93DF93CDB7DEB7CC
:1031B0002B970FB6F894DEBF0FBECDBF7C01FE018A
:1031C0003196CE010C966F0130E23193E817F90782
:1031D000E1F7DA0130E087E09D91B92E992309F4F7
:1031E0003CC09E32F1F48A30C9F480E02B960FB6D1
:1031F000F894DEBF0FBECDBFDF91CF911F910F912D
:10320000FF90EF90DF90CF90BF90AF909F908F9006
:103210007F906F905F904F903F90089538E08AE0E4
:10322000DBCFE4E5F1E04491442321F0319694139F
:10323000FACFDBCF8317C8F24FED490F4E35A8F612
:103240004FE9490F4A3118F440EEB42EB90EF60199
:10325000E30FF11DB0823F5FBFCF8981803229F239
:10326000322E8B01DB015B968D919C915C97F7016F
:10327000948F838F16961D921D921D921C92199702
:10328000FB011286138614861586F80182859385C4
:10329000A485B585438954896589768984179507FE
:1032A000A607B70708F04DC025E0B695A7959795F6
:1032B00087952A95D1F7F82FFF70AF2ED801159674
:1032C0008C91823008F491CFC8010E94500E97FD76
:1032D0008CCFF80182859385A485B5854F96A11D75
:1032E000B11D82879387A487B587F0E2AF9EB001B6
:1032F00011246D577C4F6115710509F476CFDB0100
:103300008C91882341F0853E09F062C0BB2029F0F2
:10331000BB24B394BACFB1100EC0F701A28A80913A
:10332000000190910101A0910201B09103018687F3
:103330009787A08BB18BDB018C918111E9CFBB24E6
:10334000B394832D8271823109F04FCFBB2009F4F1
:103350004DC0F701668577858089918941E00E949B
:103360004D06882309F441CFD70152968C91B0E2E3
:103370008B9FC00111248D579C4F009709F435CFC6
:10338000FC013A9626E1DF011D922A95E9F72BE030
:10339000F601DC0101900D922A95E1F721E238E275
:1033A000FC01318B208B40E058E057874687338BF8
:1033B000228B318F208F578B468B81E00E94220613
:1033C000882309F412CF432DD70152966C910AC07D
:1033D0004BE050E0C6010E94332D892B09F055CFF8
:1033E000432D6A2DC7010E94D51600CFF8018581B3
:1033F000823009F4FACEC8010E94360A882309F403
:10340000F4CED8015B96ED91FC915C9716968D9069
:103410009D90AD90BC901997B2E08B1A9108A108CD
:10342000B108858504C0880C991CAA1CBB1C8A9510
:10343000D2F786859785A089B189880E991EAA1E24
:10344000BB1E848124013501480E511C611C711C76
:1034500084149504A604B70409F1E1E04E1A51085A
:103460006108710881E00E942206882309F4BDCE1C
:10347000E3E8F3E0119283E895E08E179F07D1F718
:10348000409200015092010160920201709203018A
:103490008091F40281608093F402DACFD8015B96C8
:1034A000ED91FC91258580E092E0A0E0B0E004C0C1
:1034B000880F991FAA1FBB1F2A95D2F7F8014389CD
:1034C000548965897689840F951FA61FB71F838B42
:1034D000948BA58BB68BD70152961C9283E893E010
:1034E0004FCF0F931F93CF93DF938C01EB01FB0121
:1034F000349680E2DF011D928A95E9F784E290E03C
:10350000A0E0B0E088839983AA83BB83F80182811D
:103510009381092E000CAA0BBB0B8C839D83AE8379
:10352000BF8386E090E0A0E0B0E088879987AA8713
:10353000BB870E94CD02688B798B8A8B9B8BD801CD
:1035400014968D919C91FC01438554856585768503
:10355000452B462B472B91F00E94D31420E030E0FE
:1035600048EC52E40E949A286C8B7D8B8E8B9F8B4B
:1035700081E0DF91CF911F910F91089560E070E09D
:1035800080EC9FE7EBCF0F931F93CF93DF938C01DA
:10359000EB0188E2FB0111928A95E9F74BE050E0DC
:1035A0006BE671E0CE010E94402D1B8681E090E029
:1035B000A0E0B0E08C879D87AE87BF87F80182814D
:1035C0009381092E000CAA0BBB0B888B998BAA8BBD
:1035D000BB8B86E090E0A0E0B0E08C8B9D8BAE8B47
:1035E000BF8B1CA21DA21EA21FA280E090E0A6E934
:1035F000B3E48C8F9D8FAE8FBF8F80E090E8A9E8F9
:10360000B4E4888F998FAA8FBB8F86EA9BE9A4E4E4
:10361000BCE388A399A3AAA3BBA3DF91CF911F9179
:103620000F9108950F931F93CF93DF938C01EB01BC
:10363000FB01349680E2DF011D928A95E9F784E26E
:1036400090E0A0E0B0E088839983AA83BB83F8016F
:1036500082819381092E000CAA0BBB0B8C839D8366
:10366000AE83BF838DE090E0A0E0B0E088879987CB
:10367000AA87BB870E94CD02688B798B8A8B9B8B34
:10368000D80114968D919C910E943F146C8B7D8B78
:103690008E8B9F8B81E0DF91CF911F910F910895C9
:1036A0000F931F93CF93DF938C01EB0188E2FB0113
:1036B00011928A95E9F74BE050E06BE671E0CE019C
:1036C0000E94402D1B8681E090E0A0E0B0E08C8756
:1036D0009D87AE87BF87F80182819381092E000CF8
:1036E000AA0BBB0B888B998BAA8BBB8B8DE090E0D0
:1036F000A0E0B0E08C8B9D8BAE8BBF8B1CA21DA27B
:103700001EA21FA280E090E0A0E2B2EC8C8F9D8F01
:10371000AE8FBF8F80E090E0AAEAB2E4888F998FE5
:10372000AA8FBB8F8AE097EDA3E2BCE388A399A39D
:10373000AAA3BBA3DF91CF911F910F910895EF92A0
:10374000FF920F931F93CF93DF93EC017B018A01CC
:103750001B821A8288EE93E0A0E0B0E08C839D8308
:10376000AE83BF838EE091E0998388838DE190E002
:103770000E940E2C9A8F898F009779F02DE1F70126
:10378000DC0101900D922A95E1F74CE050E0B80180
:10379000CE010C960E94402D188EDF91CF911F9183
:1037A0000F91FF90EF90089585ED8093BC0080917C
:1037B0005B0390915C03A0915D03B0915E0307965B
:1037C000A11DB11D23E0B695A795979587952A95DC
:1037D000D1F72091BC0024FD03C010925903089535
:1037E00040915B0350915C0360915D0370915E03B7
:1037F000452B462B472B69F30097A105B10541F0F6
:103800002AE22A95F1F700C00197A109B109E1CF99
:1038100080915A030C9432101F920F920FB60F92A0
:1038200011242F933F938F939F93AF93BF938091D6
:10383000050390910603A0910703B091080330910E
:10384000040323E0230F2D3758F50196A11DB11D68
:10385000209304038093050390930603A09307032A
:10386000B09308038091090390910A03A0910B0380
:10387000B0910C030196A11DB11D80930903909393
:103880000A03A0930B03B0930C03BF91AF919F91D8
:103890008F913F912F910F900FBE0F901F90189511
:1038A00026E8230F0296A11DB11DD2CF1F920F92C1
:1038B0000FB60F9211242F933F934F935F936F9303
:1038C0007F938F939F93AF93BF93EF93FF9385E87D
:1038D00095E00E945603FF91EF91BF91AF919F91A8
:1038E0008F917F916F915F914F913F912F910F90A9
:1038F0000FBE0F901F9018951F920F920FB60F9248
:1039000011242F938F939F93EF93FF93E09195054D
:10391000F09196058081E0919B05F0919C0582FDD8
:103920001BC0908180919E058F5F8F7020919F05B5
:10393000821741F0E0919E05F0E0EB57FA4F958F2A
:1039400080939E05FF91EF919F918F912F910F9002
:103950000FBE0F901F9018958081F4CF1F920F9289
:103960000FB60F9211242F933F934F935F936F9352
:103970007F938F939F93AF93BF93EF93FF93809128
:10398000B900887F803609F44AC0F0F5883209F41E
:10399000A7C018F5803109F49BC0B8F4882309F456
:1039A000F9C0883009F494C0FF91EF91BF91AF91B5
:1039B0009F918F917F916F915F914F913F912F9147
:1039C0000F900FBE0F901F901895883109F488C092
:1039D000803251F78093570314C0803409F49DC09E
:1039E00040F48033B9F38833F9F68093570385ECBC
:1039F000B0C0803509F485C0883509F496C0883494
:103A000099F60E94D41BD0CF883909F48CC038F5C0
:103A1000883729F050F4883611F0803729F683E092
:103A2000809359031092F10257C0883809F47BC083
:103A3000803919F0803809F0B7CF8091F1028032D7
:103A400008F071C0E091F10281E08E0F8093F102E5
:103A50008091BB00F0E0EF52FD4F80833DC0803B82
:103A600039F0E0F4803A09F479C0883A09F09CCF43
:103A700084E0809359031092D0021092CF02E0911B
:103A80000F03F091100309958091CF0281110FC0AF
:103A900081E08093CF021092AF0209C0803C09F40C
:103AA000A6CF883C09F4A3CF883B09F07DCFE091F5
:103AB000D00281E08E0F8093D002F0E0E155FD4FFF
:103AC00080818093BB009091D0028091CF0229C069
:103AD000809134038093BB0085EC8093BC0064CF5D
:103AE0009091560380915503981758F5E09156032D
:103AF00081E08E0F80935603F0E0EB5CFC4F8081F9
:103B0000E9CFE091560381E08E0F809356038091B8
:103B1000BB00F0E0EB5CFC4F8083909156038091FA
:103B200055039817C8F285E8D8CFE091560381E095
:103B30008E0F809356038091BB00F0E0EB5CFC4F4E
:103B400080838091580381115CCF81E0809333039F
:103B500084EA8093BC001092590326CF85EC8093B1
:103B6000BC00109259038091F102803230F4E09150
:103B7000F102F0E0EF52FD4F10826091F10270E02F
:103B8000E0910D03F0910E0381ED92E00995109202
:103B9000F1020ACF1092570334CFCF93DF93E5E8B9
:103BA000F5E01382128288EE93E0A0E0B0E0848317
:103BB0009583A683B78320E231E03183208325EC0F
:103BC00030E03587248724EC30E03787268720ECE7
:103BD00030E0318B208B21EC30E0338B228B22ECD8
:103BE00030E0358B248B26EC30E0378B268B118E22
:103BF000128E138E148EE2ECF5E020E52083118204
:103C0000E4ECF5E0158216821186138642E050E05E
:103C100060E070E0448755876687778713A215A612
:103C200014A622E331E033A722A717A6EDE0F6E0C1
:103C30001382128284839583A683B7838EE391E0F7
:103C400091838083C9E1D6E01B821A821B861C8681
:103C50001D861E861BA61CA68CE190E00E940E2CE1
:103C6000DC0111961C921E9213961C921E921297C2
:103C700083E01B968C931B978DE01C968C931C976E
:103C80008CE01E968C931E978BE01D968C931D974F
:103C9000EDEAF1E0E491F0E0EE0FFF1FE056FE4F99
:103CA0008591949156969C938E935597EFE8F1E009
:103CB000E4915A96EC935A97E5EBF1E0E491F0E049
:103CC000EE0FFF1FE056FE4F8591949150969C9306
:103CD0008E931F97E7E9F1E0E4915796EC9357979D
:103CE000E6EBF1E0E491F0E0EE0FFF1FEE57FE4F40
:103CF0008591949154969C938E935397E8E9F1E0C3
:103D0000E4915896EC935897E7EBF1E0E491F0E0FA
:103D1000EE0FFF1FE056FE4F8591949152969C93B3
:103D20008E935197E9E9F1E0E4915996EC93599714
:103D300040E452E46FE070E014964D935D936D9310
:103D40007C93179781E090E019969C938E93189737
:103D50001A961C921A975B961C925B97BD83AC8354
:103D600086E090E00E940E2CFC018EE591E09183AC
:103D7000808388E191E093838283D583C483FF832A
:103D8000EE8386E090E00E940E2CFC0180E591E03D
:103D90009183808313821282D583C483F987E88755
:103DA000DF91CF910895CF93DF93CDB7DEB7C65B98
:103DB000D1090FB6F894DEBF0FBECDBF789484B59D
:103DC000826084BD84B5816084BD85B5826085BD17
:103DD00085B5816085BD80916E00816080936E00A5
:103DE0001092810080918100826080938100809197
:103DF0008100816080938100809180008160809348
:103E000080008091B10084608093B1008091B00007
:103E100081608093B00080917A00846080937A0002
:103E200080917A00826080937A0080917A0081602C
:103E300080937A0080917A00806880937A00109253
:103E4000C100E0919505F091960582E08083E091B4
:103E50009105F09192051082E0919305F0919405FF
:103E600080E1808310929D05E0919905F0919A057B
:103E700086E08083E0919705F091980580818061CC
:103E80008083E0919705F091980580818860808318
:103E9000E0919705F0919805808180688083E0919A
:103EA0009705F091980580818F7D808361E08DE09A
:103EB0000E9459016AE771E085E895E00E94CB17FE
:103EC0000E941B100E941B1001E000935F0388E614
:103ED0008093810310926003109282038DE096E03C
:103EE0000E94C41281113CC000935F0310926003D2
:103EF0001092820360E08DE096E00E9490128DE0C7
:103F000096E00E94C41241E061E088E60E946111DF
:103F100010921203809311038DE096E00E944912E3
:103F2000182F85FF1BC000935F031092600310924F
:103F3000820360E08DE096E00E949012612F6F7D19
:103F40008DE096E00E9490128DE096E00E94C412EF
:103F50006AE070E080E090E00E949B0281E001C096
:103F600080E08093FA0289E891E00E94A117809195
:103F7000FA0262E771E0811102C065E771E085E84D
:103F800095E00E94CB17CE0101960E94DF1788238F
:103F900009F4ACC08EE891E00E94A11769817A8192
:103FA00090E080E04AE00E9454178AE991E00E9484
:103FB000A1178B810E949A178AE991E00E94A117AC
:103FC0008C810E949A1785EF91E00E94A1178D8144
:103FD0000E949A178CE891E00E94A1178E810E949E
:103FE0009A178CE891E00E94A1178F810E94BB175D
:103FF0008D818C3021F481E09E81953008F080E045
:1040000029813A81283E374018F0882309F46EC090
:104010006CE971E085E895E00E94CB1781E0809320
:104020005F0388E6809381031092600310928203FD
:1040300083E090E00E94BF1290E080E00E94BF12F7
:1040400090E080E00E94BF1282E190E00E94BF12E7
:1040500082E190E00E94BF1290E080E00E94BF12D7
:1040600080E190E00E94BF1285E290E00E94BF12C2
:104070008DE096E00E94C41264E670E080E090E07B
:104080000E949B02CE0101960E94DF17882371F1E6
:1040900080EB91E00E94A11769817A8190E080E035
:1040A0004AE00E9454178AE991E00E94A1178B818F
:1040B0000E949A178AE991E00E94A1178C810E94C0
:1040C0009A1785EF91E00E94A1178D810E949A179F
:1040D0008CE891E00E94A1178E810E949A178CE8CB
:1040E00091E00E94A1178F810E94BB170E94A00F30
:1040F00061E08BE00E94590160E08CE00E94590170
:1041000061E08DE00E94590161E083E00E94590165
:1041100061E083E00E940D018FEB91E00E94A11706
:1041200065EC71E085E895E00E94CB1787EE91E0A1
:104130000E94A11783E090E00E94A61780EF91E013
:104140000E94A1178BE090E00E94A61787EF91E0F4
:104150000E94A1178CE090E00E94A6178EEF91E0DC
:104160000E94A1178DE090E00E94A61700911D0605
:1041700010911E060115110509F0B0C080911B06B3
:1041800090911C06009711F00E94AA2C86E090E006
:104190000E940E2C8C018091190690911A0627E737
:1041A000F801208392838183138280E290E09583DB
:1041B000848310931C0600931B060E941B1081E051
:1041C000F8018383C8010E94C71281119EC064E078
:1041D00072E085E895E00E94CB1789E392E00E94A7
:1041E000A1178091F305882321F08EEE95E00E94BF
:1041F000DA0B1092CF051092CD051092CA051092DD
:10420000C90589E08093C8050E94CD028B0161E059
:104210008091C8050E94590161E08091C8050E9403
:104220000D010E94A00F82E58093C2051092C30584
:104230008091C2059091C3050E9436044AE0F42E95
:104240008FEF0E941104FA94F110FACF84EC95E0FC
:104250000E947B0420E030E0A90160E084EC95E05E
:104260000E949104F82E8093CE05F1E08F1709F497
:104270002BC10E94CD02601B710B613D774050F352
:1042800081E08093C90584EC95E00E9406041092B9
:10429000F90265E771E085E895E00E94CB1780910F
:1042A000F902811197C16DE372E085E895E00E9403
:1042B000CB1761E08DE00E940D0168EC70E080E0BA
:1042C00090E00E949B0260E08DE00E940D0168EC8E
:1042D00070E080E090E00E949B02EBCFF8018385C4
:1042E0008F3F41F061E00E94590161E0F801838550
:1042F0000E940D01F80180819181892B09F4B3C0DE
:104300000E94A00F81E0F801838F80911B0690919D
:104310001C06009709F4C9C020ED2DAF21E030E064
:10432000AE01435C5F4FBA010E9473138DAD90E004
:10433000B0E0A0E08093240690932506A093260683
:10434000B093270688359105A105B10509F03FCF47
:1043500088E80E94F11390932D0680932C068AE83A
:104360000E94F11390932F0680932E068CE80E94F2
:10437000F11390933106809330068EE80E94F1137A
:10438000909333068093320680E90E94F113909354
:1043900035068093340682E90E94F1139093370624
:1043A0008093360684E90E94F11390933906809336
:1043B000380686E90E94F11390933B0680933A06F3
:1043C00088E90E94F11390933D0680933C068AE9A8
:1043D0000E94F11390933F0680933E068CE90E9461
:1043E000F11390934106809340068EE90E94F113E9
:1043F000909343068093420680912406909125066F
:10440000A0912606B0912706892B8A2B8B2B41F091
:1044100050E040E070E060E085E090E00E94321300
:1044200064E670E080E090E00E949B0262E771E049
:1044300085E895E00E94CB1780912406909125068F
:10444000A0912606B0912706892B8A2B8B2B41F051
:1044500044E050E064E070E082E090E00E943213BB
:1044600069E172E0B6CE61E084850E945901F801ED
:1044700082858B7F60E009F061E084850E940D01F8
:10448000F80185858F3F41F061E00E94590161E0AC
:10449000F80185850E940D01F80186858F3F09F49A
:1044A00031CF60E00E9459012DCF80ED8DAF21E02A
:1044B00030E0AE01435C5F4FBA0180911D069091E0
:1044C0001E060E94510432CF2AEA31E040E050E05B
:1044D00068E084EC95E00E94910482FF2AC0F0928B
:1044E000CF058091CF05C12CD12CE12C20E4F22EF8
:1044F000823019F0C12CD12C760120E030E0A901E6
:1045000067E384EC95E00E949104A701960169E2BB
:1045100084EC95E00E9491048093CE058823D1F02D
:104520000E94CD02601B710B613D774030F388E043
:10453000A8CE34E0F32E0E9418048093CE05FA949E
:10454000F110F9CF8A3A11F082E09BCE82E080939D
:10455000CF05C7CF8091CF058230D1F420E030E085
:10456000A9016AE384EC95E00E949104882311F08C
:1045700086E087CE0E941804807C803C19F483E09A
:104580008093CF050E9418040E9418040E9418040A
:1045900084EC95E00E94060480E58093C2051092A9
:1045A000C30581E00E949706882369F08EEE95E0AE
:1045B0000E944E09882309F46ACE81E08093F902B3
:1045C00062E771E068CE80E00E949706882309F4D4
:1045D0005ECEECCF60E572E085E895E00E94CB17F7
:1045E00098EE292E93E0392E412C512C85E895E048
:1045F0000E943703892B79F185E895E00E94150325
:10460000182F85E895E00E943703892B29F085E86B
:1046100095E00E941503F5CF1F7D1C3409F0CCC135
:1046200081E0809303031092FF0210920003109226
:104630000103109202030E94CD026093FB0270936B
:10464000FC028093FD029093FE026FE572E085E824
:1046500095E00E94CB1780910303882309F49FC142
:104660000E94CD020091FB021091FC022091FD02FC
:104670003091FE02601B710B820B930B683E7340FE
:104680008105910508F48BC10E94CD026093FB0265
:104690007093FC028093FD029093FE028091FA02D7
:1046A0008111A5C10E94CD029F938F937F936F9339
:1046B00088E692E09F938F931F928CE38F9381E023
:1046C00090E08C0F9D1F9F938F930E944F2D8C0124
:1046D0000FB6F894DEBF0FBECDBF89E196E00E9411
:1046E0003F14962E872E782E692E80912406909165
:1046F0002506A0912606B0912706892B8A2B8B2BA5
:1047000009F4C4C189E196E00E94D31420E030E0AE
:1047100048EC52E40E949A28D62EC72EB82EA92E15
:104720008CE3E82EF12CE01AF10A81E090E08C0F86
:104730009D1F080F191FB401C301272F382D492FC2
:10474000562DD401F3016B2F782D8F2F962D0E94BB
:10475000D42A8111A0C1B601C501272F362F492FB8
:10476000582FD601F5016B2F7A2F8F2F9E2F0E9485
:10477000D42A811190C120E030E040E252ECD40113
:10478000F3016B2F782D8F2F962D0E94952887FD92
:1047900082C120E030E04AEA52E4D401F3016B2FF9
:1047A000782D8F2F962D0E94122A18160CF473C1A3
:1047B00020E030E046E953E4D601F5016B2F7A2F73
:1047C0008F2F9E2F0E94952887FD65C120E030E83D
:1047D00049E854E4D601F5016B2F7A2F8F2F9E2FD5
:1047E0000E94122A18160CF456C120E030E54DE75D
:1047F00054E4D601F5016B2F7C2D8F2F9A2D0E944A
:104800009A2821E03EED42E45EE30E94842A9B0167
:10481000AC0160E070E080E89FE30E94282820E07F
:104820003AE24DE257E40E94172A9F938F937F93B9
:104830006F93AF92BF92CF92DF926F927F928F92DF
:104840009F928CE892E09F938F93FF92EF921F9339
:104850000F930E944F2D0FB6F894DEBF0FBECDBF51
:1048600021961FAE1EAE219782E391E09EAF8DAFE1
:1048700023961FAE2397CE01CD960E944E09BE010E
:10488000635C7F4FCE0189589F4F0E94930D6E96B7
:104890001FAE1EAE6E97E2E3F1E06C96FFAFEEAF97
:1048A0006C97A0961FAEA097ED968FADED978111F6
:1048B0008AC1CA56DF4F19821882C659D040C856DD
:1048C000DF4F288239824A825B82C859D0408EE00D
:1048D00091E0CC56DF4F99838883C459D040C355AB
:1048E000DF4F19821882CD5AD040C056DF4F188250
:1048F000C05AD040C355DF4FE881F981CD5AD0402E
:10490000309709F44CC08581882309F448C0BE0162
:104910006F5F7F4FCE018C569F4F0E94CB17C355C0
:10492000DF4F88819981CD5AD040009781F00E9455
:10493000DA0BC355DF4F88819981CD5AD0400E9450
:10494000AA2CC355DF4F19821882CD5AD0408091CE
:10495000FF0290910003A0910103B0910203019620
:10496000A11DB11D8093FF0290930003A09301034A
:10497000B0930203BE016F5F7F4F85E895E00E9410
:10498000CB1761E08DE00E940D016AE070E080E0ED
:1049900090E00E949B0260E08DE00E940D0180E0AB
:1049A00090E0892B09F422CE0E944203882309F467
:1049B0001DCE0E9400001ACE133509F04CCE109285
:1049C000030382E692E00E94A1176091FF027091BA
:1049D000000380910103909102034AE00E94541762
:1049E00068E671E085E895E00E94451734CECE0177
:1049F00081559F4F0E94DF17882309F453CECA5474
:104A0000DF4F8881C65BD040882309F44BCECB545E
:104A1000DF4F8881C55BD0401F928F93CC54DF4F0E
:104A20008881C45BD0401F928F93CD54DF4F888123
:104A3000C35BD0401F928F93CE54DF4F8881C25BFF
:104A4000D0401F928F93CF54DF4F8881C15BD040FD
:104A50001F928F93C055DF4F8881C05BD0408F93EA
:104A6000C155DF4F8881CF5AD0408F938DE692E0B9
:104A70009F938F931F928CE38F9381E090E08C0F34
:104A80009D1F9F938F930E944F2D21CE60E070E079
:104A900080EC9FE73BCE6AE070E080E090E00E940F
:104AA0009B0289E196E00E943F14962E872E782E75
:104AB000692E8091240690912506A0912606B0913A
:104AC0002706892B8A2B8B2B09F478C089E196E085
:104AD0000E94D31420E030E048EC52E40E949A286F
:104AE000D62EC72EB82EA92EB401C301272F382DDC
:104AF000492F562DD401F3016B2F782D8F2F962D32
:104B00000E94D42A811149C0B601C501272F362F32
:104B1000492F582FD601F5016B2F7A2F8F2F9E2FFB
:104B20000E94D42A811139C020E030E040E252ECEA
:104B3000D401F3016B2F782D8F2F962D0E9495288D
:104B400087FD2BC020E030E04AEA52E4D401F301B3
:104B50006B2F782D8F2F962D0E94122A1816ECF0AD
:104B600020E030E046E953E4D601F5016B2F7A2FBF
:104B70008F2F9E2F0E94952887FD0FC020E030E8E0
:104B800049E854E4D601F5016B2F7A2F8F2F9E2F21
:104B90000E94122A18160CF028CEEBE9F2E0FF93DF
:104BA000EF93FF92EF921F930F930E944F2D0F9060
:104BB0000F900F900F900F900F9052CE60E070E02A
:104BC00080EC9FE787CF27E147EA52E0BE016958B2
:104BD0007F4FCE01865A9F4F0E94C518882309F443
:104BE00068CECE0189589F4F0E94DA0BE1964CADFA
:104BF0005DAD6EAD7FADE197CE01865A9F4F0E94AD
:104C0000A209BE01665A7F4FCE01CD960E94930D38
:104C100047EA52E0BE01635C7F4FCE018C569F4F46
:104C20000E949F1B67CECF93DF93C0911D06D0914A
:104C30001E06209749F08A819B81009711F00E94FF
:104C4000AA2CCE010E94AA2C80911B0690911C06D2
:104C5000009711F00E94AA2C80911F0690912006C7
:104C6000009739F0DC01ED91FC910280F381E02D99
:104C700009958091210690912206009749F0DC0168
:104C8000ED91FC910280F381E02DDF91CF910994A9
:104C9000DF91CF910895DB018F939F930E947D2632
:104CA000BF91AF91A29F800D911DA39F900DB29FC8
:104CB000900D11240895A1E21A2EAA1BBB1BFD0121
:104CC0000DC0AA1FBB1FEE1FFF1FA217B307E407EB
:104CD000F50720F0A21BB30BE40BF50B661F771F43
:104CE000881F991F1A9469F7609570958095909523
:104CF0009B01AC01BD01CF0108950E941928A59F19
:104D0000900DB49F900DA49F800D911D11240895C6
:104D1000B7FF0C947D260E947D26821B930B08957D
:104D2000DF93CF931F930F939A9DF02D219FF00D4A
:104D30008B9DF00D8A9DE02DF10D039FF00D029FDC
:104D4000E00DF11D4E9DE00DF11D5E9DF00D4F9D9E
:104D5000F00D7F936F93BF92AF925F934F93D50106
:104D60000E9419288B01AC01D7010E941928EB0180
:104D7000E80FF91FD6010E94DF262F913F91D6013F
:104D80000E941928C60FD71FE81FF91FAF91BF91C6
:104D90000E94DF262F913F910E941928C60FD71F2E
:104DA000E81FF91FD6010E941928E60FF71F980186
:104DB000BE01CF010F911F91CF91DF9108950E9405
:104DC0001928460F571FC81FD91F08F43196089598
:104DD000689401C0E894F92FF12B12F00C941C2771
:104DE000A0E0B0E0E6EFF6E20C948E27092E0594E1
:104DF00022F40E947827112392F4F0E80F26FFEFA7
:104E0000E094F09400951095B094C094D094A1943F
:104E1000BF0ACF0ADF0AEF0AFF0A0F0B1F0B0E941F
:104E2000272707FC0E947827CDB7DEB7ECE00C946B
:104E3000AA27689401C0E8948F929F92CF93DF9342
:104E40000E942727DF91CF919F908F90089588240B
:104E50009924F401E401B0E49F93AA279A158B04E6
:104E60009C04ED05FE05CF05D007A10798F4AD2FF2
:104E7000DC2FCF2FFE2FE92D982C892E982F872FEE
:104E8000762F652F542F432F322F2227B85031F71A
:104E9000BF9127C01B2EBF91BB27220F331F441F7A
:104EA000551F661F771F881F991F881C991CEE1FAE
:104EB000FF1FCC1FDD1FAA1FBB1F8A149B04EC051C
:104EC000FD05CE05DF05A007B10748F08A189B084D
:104ED000EC09FD09CE09DF09A00BB10B21601A9482
:104EE000E1F62EF49401AF01BE01CD01000C08954E
:104EF0006095709580959095309540955095219549
:104F00003F4F4F4F5F4F6F4F7F4F8F4F9F4F0895D2
:104F10002F923F924F925F926F927F928F929F92C9
:104F2000AF92BF92CF92DF92EF92FF920F931F93B7
:104F3000CF93DF93CDB7DEB7CA1BDB0B0FB6F89468
:104F4000DEBF0FBECDBF09942A88398848885F84A8
:104F50006E847D848C849B84AA84B984C884DF8019
:104F6000EE80FD800C811B81AA81B981CE0FD11DFD
:104F70000FB6F894DEBF0FBECDBFED010895002E31
:104F8000083090F0982F872F762F652F542F432FBE
:104F9000322F22270850F4CF220F331F441F551FF2
:104FA000661F771F881F991F0A95B2F7002D089575
:104FB00097FD1094002E083098F00850232F342FBE
:104FC000452F562F672F782F892F912DF4CF1594C9
:104FD0009795879577956795579547953795279531
:104FE0000A95AAF71124002D08952A0D3B1D4C1D8A
:104FF0005D1D6E1D7F1D801F911F08952A193B099D
:105000004C095D096E097F09800B910B08950024FE
:10501000A7FD00942A17300540055005600570056E
:10502000800590050895EE0FFF1F0590F491E02D87
:105030000994A29FB001B39FC001A39F700D811D71
:105040001124911DB29F700D811D1124911D089591
:105050005058BB27AA270E9440280C94D8290E94A8
:10506000CA2938F00E94D12920F039F49F3F19F461
:1050700026F40C94B7290EF4E095E7FB0C94B129C3
:10508000E92F0E94E92958F3BA17620773078407CA
:10509000950720F079F4A6F50C940B2A0EF4E09510
:1050A0000B2EBA2FA02D0B01B90190010C01CA01E2
:1050B000A0011124FF27591B99F0593F50F4503E8D
:1050C00068F11A16F040A22F232F342F4427585F7F
:1050D000F3CF469537952795A795F0405395C9F797
:1050E0007EF41F16BA0B620B730B840BBAF091504F
:1050F000A1F0FF0FBB1F661F771F881FC2F70EC0EE
:10510000BA0F621F731F841F48F4879577956795C0
:10511000B795F7959E3F08F0B0CF9395880F08F0AC
:105120009927EE0F9795879508950E948D2908F489
:1051300081E008950E94AE280C94D8290E94D129BC
:1051400058F00E94CA2940F029F45F3F29F00C94DE
:10515000B12951110C940C2A0C94B7290E94E92909
:1051600068F39923B1F3552391F3951B550BBB2796
:10517000AA2762177307840738F09F5F5F4F220FDB
:10518000331F441FAA1FA9F335D00E2E3AF0E0E8D2
:1051900032D091505040E695001CCAF72BD0FE2F1C
:1051A00029D0660F771F881FBB1F261737074807B0
:1051B000AB07B0E809F0BB0B802DBF01FF27935868
:1051C0005F4F3AF09E3F510578F00C94B1290C9452
:1051D0000C2A5F3FE4F3983ED4F386957795679564
:1051E000B795F7959F5FC9F7880F911D969587959D
:1051F00097F90895E1E0660F771F881FBB1F6217BC
:1052000073078407BA0720F0621B730B840BBA0B79
:10521000EE1F88F7E095089597FB16F40E94BA29CF
:105220000C945029E89409C097FB3EF49095809522
:10523000709561957F4F8F4F9F4F9923A9F0F92F5C
:1052400096E9BB279395F695879577956795B795DA
:10525000F111F8CFFAF4BB0F11F460FF1BC06F5FC0
:105260007F4F8F4F9F4F16C0882311F096E911C0D2
:10527000772321F09EE8872F762F05C0662371F0F3
:1052800096E8862F70E060E02AF09A95660F771F07
:10529000881FDAF7880F9695879597F90895E8940F
:1052A000F92F96EBFF2381F0121613061406440B18
:1052B0009395F69587957795679557954040FF2389
:1052C000B9F71BC099270895882351F49850D2F755
:1052D000872B762F652F542F432F322F20E0B1F3E9
:1052E000121613061406440B88233AF09A95440FBD
:1052F000551F661F771F881FCAF755234AF4440FAE
:10530000551F11F460FF04C06F5F7F4F8F4F9F4F99
:10531000880F9695879597F90895990F0008550F6E
:10532000AA0BE0E8FEEF16161706E807F907C0F02B
:1053300012161306E407F50798F0621B730B840B33
:10534000950B39F40A2661F0232B242B252B21F40D
:1053500008950A2609F4A140A6958FEF811D811DAD
:10536000089597F99F6780E870E060E008959FEFE7
:1053700080EC089590958095709560955095409536
:10538000309521953F4F4F4F5F4F6F4F7F4F8F4F5E
:105390009F4F089500240A9416161706180609064A
:1053A000089500240A94121613061406050608959B
:1053B000092E0394000C11F4882352F0BB0F40F423
:1053C000BF2B11F460FF04C06F5F7F4F8F4F9F4F63
:1053D000089557FD9058440F551F59F05F3F71F0E5
:1053E0004795880F97FB991F61F09F3F79F087954C
:1053F0000895121613061406551FF2CF4695F1DFD5
:1054000008C0161617061806991FF1CF8695710564
:10541000610508940895E894BB2766277727CB0198
:1054200097F908950E948D2908F48FEF08950E943E
:105430002A2A0C94D8290E94CA2938F00E94D1291E
:1054400020F0952311F00C94B1290C94B729112464
:105450000C940C2A0E94E92970F3959FC1F3950FD3
:1054600050E0551F629FF001729FBB27F00DB11DE8
:10547000639FAA27F00DB11DAA1F649F6627B00D78
:10548000A11D661F829F2227B00DA11D621F739F61
:10549000B00DA11D621F839FA00D611D221F749F6F
:1054A0003327A00D611D231F849F600D211D822FB6
:1054B000762F6A2F11249F5750409AF0F1F08823DD
:1054C0004AF0EE0FFF1FBB1F661F771F881F91500A
:1054D0005040A9F79E3F510580F00C94B1290C94DF
:1054E0000C2A5F3FE4F3983ED4F386957795679551
:1054F000B795F795E7959F5FC1F7FE2B880F911D34
:105500009695879597F90895FA01EE0FFF1F30964B
:1055100021053105A1F16115710561F48038BFE302
:105520009B0749F168949038810561F08038BFEF9E
:105530009B0741F099234AF5FF3FE105310521051D
:1055400019F1E8940894E795D901AA2329F4AB2F1F
:10555000BE2FF85FD0F310C0FF5F70F4A695E0F7A0
:10556000F73950F019F0FF3A38F49F779F930DD038
:105570000F9007FC9058089546F00C94B72960E00E
:1055800070E080E89FE308954FE79F775F934F9324
:105590003F932F930E94842B2F913F914F915F91C6
:1055A0000E94172A0C94E12A0E948D29880B990BDE
:1055B000089529F416F00C94B1290C940B2A0C943C
:1055C000B7290E94F129A8F39638A0F707F80F929F
:1055D000E8942BE33AEA48EB5FE70E942D2A0F920A
:1055E0000F920F924DB75EB70F920E94CC2BE8E658
:1055F000F0E00E94132B4F915F91EF91FF91E595A1
:10560000EE1FFF1F49F0FE57E0684427EE0F441FCE
:10561000FA95E1F74195550B0E94462B0F9007FE36
:105620000C943A2B0895DF93CF931F930F93FF921F
:10563000EF92DF927B018C01689406C0DA2EEF01B5
:105640000E942A2AFE01E894A59125913591459161
:105650005591A6F3EF010E944028FE019701A80191
:10566000DA9469F7DF90EF90FF900F911F91CF913F
:10567000DF9108959B01AC0160E070E080E89FE35A
:105680000C949A280C94B1290C94002C0E94F129B6
:10569000D8F39923C9F3940F511DA3F391505040AF
:1056A00094F059F0882332F0660F771F881F9150CD
:1056B0005040C1F79E3F51052CF7880F911D9695DC
:1056C000879597F908955F3FACF0983E9CF0BB2713
:1056D000869577956795B79508F4B1609395C1F76E
:1056E000BB0F58F711F460FFE8CF6F5F7F4F8F4F0C
:1056F0009F4FE3CF0C940C2A16F00C94002C0C94C2
:10570000B72968940C94B1290E94F129A8F3992330
:10571000C1F3AEF3DF93CF931F930F93FF92C92F83
:10572000DD2788232AF02197660F771F881FDAF775
:1057300020E030E040E85FEB9FE3883920F0803ED6
:1057400038F021968F770E942928E0E9F0E004C024
:105750000E942928EDEBF0E00E94132B8B01BE0183
:10576000EC01FB2E6F5771097595771F880B990B0C
:105770000E94142928E132E741E35FE30E942A2ACC
:10578000AF2D9801AE01FF900F911F91CF91DF9146
:105790000E9440280C94D829FA01DC01AA0FBB1FF3
:1057A0009B01AC01BF5728F42227332744275078A8
:1057B00020C0B75190F4AB2F00244695379527951C
:1057C000011CA395D2F3002071F0220F331F441F58
:1057D000B395DAF30ED00C94282861307105A0E857
:1057E0008A07B94630F49B01AC01662777278827E2
:1057F0009078309621F0208331834283538308953B
:105800009F3F31F0915020F4879577956795B79534
:10581000880F911D9695879597F908950F931F937B
:10582000CF93DF938230910510F482E090E0E09115
:105830004806F091490630E020E0B0E0A0E0309763
:1058400099F42115310509F44AC0281B390B24307D
:105850003105D8F58A819B816115710589F1FB01BC
:1058600093838283FE0111C04081518102811381A3
:1058700048175907E0F04817590799F4109761F055
:1058800012960C93129713961C933296CF01DF91C8
:10589000CF911F910F9108950093480610934906E8
:1058A000F4CF2115310551F04217530738F0A90103
:1058B000DB019A01BD01DF01F801C1CFEF01F9CF92
:1058C0009093490680934806CDCFFE01E20FF31F67
:1058D000819391932250310939832883D7CF209126
:1058E000460630914706232B41F420910601309162
:1058F000070130934706209346062091040130911A
:1059000005012115310541F42DB73EB7409108013D
:1059100050910901241B350BE0914606F091470692
:10592000E217F307A0F42E1B3F0B2817390778F076
:10593000AC014E5F5F4F2417350748F04E0F5F1FD5
:105940005093470640934606819391939FCFF0E092
:10595000E0E09CCFCF93DF930097E9F0FC01329712
:1059600013821282A0914806B0914906ED0130E001
:1059700020E01097A1F420813181820F931F2091A4
:105980004606309147062817390709F061C0F093A1
:105990004706E0934606DF91CF910895EA01CE17BE
:1059A000DF07E8F54A815B819E0141155105B1F79A
:1059B000E901FB83EA8349915991C40FD51FEC1784
:1059C000FD0761F4808191810296840F951FE901A2
:1059D00099838883828193819B838A83F0E0E0E0CE
:1059E00012968D919C9113970097B9F52D913C914A
:1059F0001197CD010296820F931F20914606309198
:105A000047062817390739F6309751F5109249069D
:105A100010924806B0934706A0934606BCCFD383A6
:105A2000C28340815181840F951FC817D90761F443
:105A30004E5F5F4F88819981480F591F5183408382
:105A40008A819B81938382832115310509F0B0CF30
:105A5000F0934906E09348069ECFFD01DC01C0CFDC
:105A600013821282D7CFFB01DC0104C08D9101901B
:105A7000801921F441505040C8F7881B990B0895B4
:105A8000FB01DC014150504048F001900D92002094
:105A9000C9F701C01D9241505040E0F70895AEE0B3
:105AA000B0E0E5E5FDE20C9496270D891E898F890B
:105AB000988D26E02C831A83098397FF02C080E02B
:105AC00090E801979E838D83AE01455E5F4F698D9F
:105AD0007A8DCE0101960E947F2D4D815E8157FD0A
