:100000000C942B050C9453050C9453050C94530538
:100010000C9453050C9453050C9453050C94530500
:100020000C9453050C9453050C9453050C945305F0
:100030000C9453050C9453050C9453050C945305E0
:100040000C944A0F0C9453050C94BA0F0C94940F13
:100050000C9453050C9453050C9453050C945305C0
:100060000C942F0E0C945305202873686F756C64E4
:100070002062652039292E2052657475726E696E72
:10008000672049434D5F32303934385F53746174AF
:100090005F57726F6E67494400202873686F756CF4
:1000A00064206265203732292077686F69616D327C
:1000B0003A200049434D5F32303934383A3A6D6165
:1000C0006757686F49416D3A2077686F69616D3194
:1000D0003A200000202873686F756C6420626520E8
:1000E000392920726561644D6167207365742073DE
:1000F000746174757320746F3A2000202873686FE0
:10010000756C64206265203732292077686F6961D9
:100110006D323A200049434D5F32303934383A3A33
:100120006D616757686F49416D3A2077686F696103
:100130006D313A200000202873686F756C6420626E
:10014000652037322920726561644D6167207365CF
:10015000742073746174757320746F3A200049437E
:100160004D5F32303934383A3A6D616757686F49BC
:10017000416D3A2077686F69616D313A200000491E
:10018000434D5F32303934383A3A73746172747562
:10019000704D61676E65746F6D657465723A206944
:1001A00032634D6173746572436F6E666967757211
:1001B000655065726970686572616C2072657475EE
:1001C000726E65643A20000049434D5F3230393425
:1001D000383A3A737461727475704D61676E657404
:1001E0006F6D657465723A2077726974654D6167E9
:1001F0002072657475726E65643A200020747269AD
:10020000657300207472790049434D5F3230393490
:10021000383A3A737461727475704D61676E6574C3
:100220006F6D657465723A20737563636573736689
:10023000756C206D616757686F49416D2061667408
:1002400065722000292E2052657475726E696E6782
:100250002049434D5F32303934385F537461745FE5
:1002600057726F6E6749440049434D5F32303934ED
:10027000383A3A737461727475704D61676E657463
:100280006F6D657465723A2072656163686564209C
:100290004D41585F4D41474E45544F4D4554455291
:1002A0005F5354415254532028000049434D5F325C
:1002B000303934383A3A73746172747570446566D3
:1002C00061756C743A20656E61626C65444C504691
:1002D0002028477972292072657475726E65643AB8
:1002E00020000049434D5F32303934383A3A737454
:1002F000617274757044656661756C743A20656EE0
:1003000061626C65444C5046202841636329207229
:10031000657475726E65643A20000049434D5F3222
:10032000303934383A3A7374617274757044656662
:1003300061756C743A20736574444C50466366670B
:100340002072657475726E65643A20000049434DF1
:100350005F32303934383A3A73746172747570446C
:10036000656661756C743A2073657446756C6C5380
:1003700063616C652072657475726E65643A200005
:100380000049434D5F32303934383A3A7374617200
:1003900074757044656661756C743A207365745346
:1003A000616D706C654D6F64652072657475726EF9
:1003B00065643A20000049434D5F32303934383AA1
:1003C0003A7374617274757044656661756C743AE1
:1003D00020737461727475704D61676E65746F6DB2
:1003E000657465722072657475726E65643A20007A
:1003F0000049434D5F32303934383A3A7374617290
:1004000074757044656661756C743A206C6F7750D2
:100410006F7765722072657475726E65643A20003C
:100420000049434D5F32303934383A3A737461725F
:1004300074757044656661756C743A20736C65659B
:10044000702072657475726E65643A2000004943CD
:100450004D5F32303934383A3A636865636B4944EA
:100460003A2049434D5F32303934385F6368656301
:100470006B5F69642072657475726E65643A200002
:100480000049434D5F32303934383A3A73746172FF
:1004900074757044656661756C743A207377526543
:1004A0007365742072657475726E65643A2000001D
:1004B00049434D5F32303934383A3A73746172745B
:1004C000757044656661756C743A20636865636B2A
:1004D00049442072657475726E65643A2000004963
:1004E000434D5F32303934385F5350493A3A626590
:1004F00067696E3A207374617274757044656661E1
:10050000756C742072657475726E65643A20002093
:100510005A3D0020593D0020204779726F204F66D8
:1005200066736574733A20583D002E003D3D3D3D95
:100530003D3D3D3D3D3D3D3D3D3D3D3D3D3D3D3DEB
:100540003D3D3D3D3D3D3D3D3D3D3D3D3D3D3D3DDB
:100550003D3D3D3D004C6567656E643A20416363F7
:10056000656C286D2F73C2B229207C204779726F89
:1005700028C2B02F7329207C204D616728C2B55452
:1005800029207C2054656D7028C2B0432900537423
:10059000617274696E6720636F6E74696E756F75D2
:1005A000732072656164696E67732E2E2E00E29C63
:1005B000932043616C6962726174696F6E20636F2E
:1005C0006D706C6574650A003D3D3D3D3D3D3D3DB2
:1005D0003D3D3D3D3D3D3D3D3D3D3D3D3D3D3D3D4B
:1005E0003D3D3D3D3D3D3D3D3D3D3D3D3D3D3D3D3B
:1005F0000043414C4942524154494F4E3A204B65C9
:10060000657020494D552073746174696F6E617215
:1006100079000A3D3D3D3D3D3D3D3D3D3D3D3D3D3E
:100620003D3D3D3D3D3D3D3D3D3D3D3D3D3D3D3DFA
:100630003D3D3D3D3D3D3D3D3D3D3D0020202D208E
:1006400053616D706C6520526174653A207E313063
:1006500030487A0020202D204779726F2052616E39
:1006600067653A20C2B132303030C2B02F730020FB
:10067000202D20416363656C2052616E67653A20CE
:10068000C2B13136670020202D204D6F64653A20BD
:1006900053504900436F6E66696775726174696F84
:1006A0006E20636F6D706C6574653A00E29C9320F8
:1006B00049434D2D323039343820696E697469618F
:1006C0006C697A6564207375636365737366756CB2
:1006D0006C792100E29C9720496E697469616C69AC
:1006E0007A6174696F6E206661696C65642120535C
:1006F00074617475733A2000496E697469616C693C
:100700007A696E672049434D2D323039343820766E
:100710006961205350492E2E2E00496E697469611B
:100720006C697A696E6720535049206275732E2E6A
:100730002E003D3D3D3D3D3D3D3D3D3D3D3D3D3D35
:100740003D3D3D3D3D3D3D3D3D3D3D3D3D3D3D3DD9
:100750003D3D3D3D3D3D3D3D3D3D0A0049434D2D27
:10076000323039343820392D4178697320494D555C
:1007700020546573742028535049204D6F646529B7
:10078000003D3D3D3D3D3D3D3D3D3D3D3D3D3D3DD6
:100790003D3D3D3D3D3D3D3D3D3D3D3D3D3D3D3D89
:1007A0003D3D3D3D3D3D3D3D3D00E29AA020576130
:1007B0006974696E6720666F7220646174612E2EA1
:1007C0002E00C2B0430A00202054656D703A2020EC
:1007D00000205A3D0020593D0020204D61673A20FD
:1007E0002020583D00205A3D0020593D0020204740
:1007F00079726F3A2020583D00207C4D61677C3D26
:1008000000205A3D0020593D002020416363656C63
:100810003A20583D006D730020402000526561640D
:10082000696E672023000000000800020100000339
:100830000407000000000000000000000000250088
:1008400028002B0000000000240027002A000404D8
:100850000404040404040202020202020303030368
:100860000303010204081020408001020408102044
:100870000102040810200049434D5F3230393438FA
:100880003A3A6932634D617374657253696E676C8D
:1008900065523A2049434D5F32303934385F69320E
:1008A000635F6D61737465725F73696E676C655FBA
:1008B000722072657475726E65643A2000556E6BB5
:1008C0006E6F776E2053746174757300496E766134
:1008D0006C696420444D5020526567697374657279
:1008E00000556E7265636F676E6973656420444D71
:1008F00050204865616465723200556E7265636FA1
:10090000676E6973656420444D5020486561646575
:1009100072004D6F7265204649464F2044617461F4
:1009200020417661696C61626C6500444D502064C1
:1009300061746120696E204649464F2077617320BB
:10094000696E636F6D706C657465004E6F2046490B
:10095000464F204461746120417661696C61626C2C
:100960006500444D50204669726D7761726520566E
:100970006572696669636174696F6E204661696C4E
:10098000656400444D50204669726D776172652040
:100990004E6F7420537570706F727465642E2049A9
:1009A000732023646566696E652049434D5F32306C
:1009B0003934385F5553455F444D5020636F6D6D3A
:1009C000656E74656420696E207574696C2F494387
:1009D0004D5F32303934385F432E683F0053656EC7
:1009E000736F72204E6F7420537570706F727465E0
:1009F00064004461746120556E646572666C6F7743
:100A000000496E76616C69642053656E736F720085
:100A100057726F6E6720494400506172616D657452
:100A20006572204572726F72004E6F7420496D704E
:100A30006C656D656E7465640047656E6572616CAA
:100A4000204572726F7200416C6C2069732077656B
:100A50006C6C2E00EC0F11241FBECFEFD8E0DEBF70
:100A6000CDBF12E0A0E0B1E0E8EEF5E302C00590F2
:100A70000D92A83DB107D9F724E0A8EDB2E001C07E
:100A80001D92A035B207E1F715E0CBE2D5E004C036
:100A90002197FE010E944118CA32D107C9F70E946E
:100AA00034100C94F21A0C940000BC0180914004A4
:100AB0008695869583708130B1F040F08230F1F0F8
:100AC000833039F160E070E0CB010895072E000C0F
:100AD000880B990B0E94701920E030E043E053E44A
:100AE0000E94CD180895072E000C880B990B0E94C8
:100AF000701920E030E043E852E4F2CF072E000CFA
:100B0000880B990B0E94701923E333E343E052E40E
:100B1000E7CF072E000C880B990B0E94701923E376
:100B200033E343E851E4DCCFBC018091400483709F
:100B30008130B1F040F08230F1F0833039F160E083
:100B400070E0CB010895072E000C880B990B0E94D2
:100B500070192FE632E143E851E40E94CD18089560
:100B6000072E000C880B990B0E9470192FE632E1BA
:100B700043E051E4F2CF072E000C880B990B0E9442
:100B800070192FE632E143E850E4E7CF072E000C5E
:100B9000880B990B0E9470192FE632E143E050E474
:100BA000DCCF0F931F93A0910704B0910804129615
:100BB000ED91FC911397309739F014960D911C919B
:100BC00009951F910F91089582E090E0FACF0F935D
:100BD0001F93A0910704B0910804ED91FC91119727
:100BE000309759F014960D911C9121E030E040E0CF
:100BF00050E009951F910F91089582E090E0FACF9F
:100C0000CF93DF931F92CDB7DEB78430B0F49091CD
:100C10000B048917A9F080930B0420E1829FC00187
:100C2000112480738983BE016F5F7F4F8FE70E941D
:100C3000E7050F90DF91CF91089583E090E0F9CF21
:100C400090E080E0F6CFCF93DF931F92CDB7DEB771
:100C500021E030E040E050E0BE016F5F7F4F8AE16D
:100C60000E94D105009729F4298120FD02C086E069
:100C700090E00F90DF91CF910895AF92BF92DF92F5
:100C8000EF92FF920F931F93CF93DF931F92CDB7F5
:100C9000DEB79C012370332707E010E0232B09F413
:100CA00070C05C01D62ED694D6948D2D8370D82E2C
:100CB00010E000E0A0FE31C06370F62E82E00E94DA
:100CC00000068C0121E030E040E050E0BE016F5FA3
:100CD0007F4F84E10E94D105082B192B8F2D880F9F
:100CE0009981997F982B9983BE016F5F7F4F84E133
:100CF0000E94E705082B192B21E030E040E050E08E
:100D0000BE016F5F7F4F84E10E94D105082B192B34
:100D1000898186958370F8120160A1FE32C082E05D
:100D20000E9400067C0121E030E040E050E0BE017E
:100D30006F5F7F4F81E00E94D1058E299F29082B8C
:100D4000192B9D2D9370990F8981897F892B898318
:100D5000BE016F5F7F4F81E00E94E705082B192BD2
:100D600021E030E040E050E0BE016F5F7F4F81E066
:100D70000E94D105082B192B898186958370D81282
:100D80000160C8010F90DF91CF911F910F91FF90EB
:100D9000EF90DF90BF90AF900895BF92CF92DF9217
:100DA000EF92FF920F931F93CF93DF9300D000D069
:100DB000CDB7DEB78C838B01B42E80E0411180E883
:100DC0008C608B8383E00E940006BE016D5F7F4FC5
:100DD00083E10E94E705009701F583E00E94000689
:100DE000BE016C5F7F4F84E10E94E7050097A9F484
:100DF0008A818068807A8F7D8A83BB20E1F083E0DE
:100E00000E940006BE016E5F7F4F85E10E94E705EC
:100E1000C12CD12C76010097C1F00F900F900F904C
:100E20000F90DF91CF911F910F91FF90EF90DF9086
:100E3000CF90BF90089583E00E940006B80186E13C
:100E40000E94E7050097D9F2E8CF80E00E940006F3
:100E500021E030E040E050E0BE016F5F7F4F87E16E
:100E60000E94D105298126FB332730F941E058EE55
:100E7000C51653E0D506E104F10408F440E0342B34
:100E80004FEFC41AD40AE40AF40A3323F1F222958C
:100E9000217031E058EEC51653E0D506E104F104A7
:100EA00008F430E0232B79F4BB2009F4B6CF83E0BB
:100EB0000E94000621E030E040E050E0B80187E108
:100EC0000E94D105AACF81E090E0A7CFCF93DF9316
:100ED0001F92CDB7DEB721E030E040E050E0BE0128
:100EE0006F5F7F4F8FE00E94D105009749F48981A1
:100EF0008D7F8983BE016F5F7F4F8FE00E94E70582
:100F00000F90DF91CF9108950F931F93CF93DF93AD
:100F10001F92CDB7DEB78130A1F582E00E940006B6
:100F20008C0121E030E040E050E0BE016F5F7F4F78
:100F300084E10E94D105082B192B89818E7F89833A
:100F4000BE016F5F7F4F84E10E94E705082B192BDC
:100F500021E030E040E050E0BE016F5F7F4F84E170
:100F60000E94D105802B912B298120FD81609093D7
:100F70004404809343040F90DF91CF911F910F9110
:100F8000089582E00E9400068C0121E030E040E0FC
:100F900050E0BE016F5F7F4F81E00E94D105082BBA
:100FA000192B89818E7F8983BE016F5F7F4F81E01E
:100FB0000E94E705082B192B21E030E040E050E0CB
:100FC000BE016F5F7F4F81E0CBCF90E0FC01EE5917
:100FD000F74F2491825B974FFC018491882399F00D
:100FE00090E0880F991FFC01EC5BF74FA591B4913D
:100FF000FC01E65CF74F859194918FB7F894EC91E2
:10100000E22BEC938FBF089520911C03260F33270A
:10101000331F21323105ECF420914003FC0190E0B4
:1010200080E0243069F082E00895A0911C032191B2
:10103000AC0144505D4FA40FB52FB11D2C93019608
:10104000861798F380911C03680F60931C0380E05F
:10105000089581E0089508958FEF9FEF08958FEF31
:101060009FEF08958091F50290E091958195910907
:101070000895CF93DF93CB01EA01642F0E94040807
:10108000CE01DF91CF910895CF93DF931F92CDB71B
:10109000DEB7698361E0CE0101960E94040881E019
:1010A00090E00F90DF91CF91089590E0FC01EA5D10
:1010B000F74F2491FC01EE59F74F3491FC01E25BAC
:1010C000F74FE491EE23C9F0222339F0233001F1E8
:1010D000A8F4213019F1223029F1F0E0EE0FFF1FC2
:1010E000E65CF74FA591B4918FB7F894EC9161113C
:1010F00026C030953E233C938FBF08952730A9F03A
:101100002830C9F0243049F7809180008F7D03C0DA
:10111000809180008F7780938000DFCF84B58F77B8
:1011200084BDDBCF84B58F7DFBCF8091B0008F77FE
:101130008093B000D2CF8091B0008F7DF9CF3E2B4D
:10114000DACF3FB7F8948091F1029091F202A0912A
:10115000F302B091F40226B5A89B05C02F3F19F009
:101160000196A11DB11D3FBFBA2FA92F982F882727
:10117000BC01CD01620F711D811D911D42E0660F02
:10118000771F881F991F4A95D1F708958F929F92D4
:10119000AF92BF92CF92DF92EF92FF924B015C0130
:1011A0000E94A1086B017C010E94A1086C197D09B5
:1011B0008E099F09683E734081059105A8F321E0DF
:1011C000821A9108A108B10888EEC80E83E0D81EE3
:1011D000E11CF11C81149104A104B10429F7FF90D2
:1011E000EF90DF90CF90BF90AF909F908F90089539
:1011F000DC01ED91FC910190F081E02D0994AF921A
:10120000BF92CF92DF92EF92FF920F931F93CF93F3
:10121000DF936C017B018B01040F151FEB015E0155
:10122000AE18BF08C017D10759F06991D601ED91EA
:10123000FC910190F081E02DC6010995892B79F789
:10124000C501DF91CF911F910F91FF90EF90DF903B
:10125000CF90BF90AF90089590E080E00895FC019A
:10126000538D448D252F30E0842F90E0821B930B0B
:10127000541710F0CF96089501970895FC01918DB1
:10128000828D981761F0A28DAE0FBF2FB11D5D96B4
:101290008C91928D9F5F9F73928F90E008958FEF56
:1012A0009FEF0895FC01918D828D981731F0828D0A
:1012B000E80FF11D858D90E008958FEF9FEF089561
:1012C000FC01918D228D892F90E0805C9F4F821BC5
:1012D00091098F739927089586E693E00E9460092B
:1012E00021E0892B09F420E0822F089580E090E02E
:1012F000892B29F00E946C0981110C94000008953B
:10130000FC01A48DA80FB92FB11DA35ABF4F2C917A
:10131000848D90E001968F739927848FA689B78971
:101320002C93A089B1898C91837080648C93938D68
:10133000848D981306C00288F389E02D80818F7D0B
:1013400080830895EF92FF920F931F93CF93DF93C3
:10135000EC0181E0888F9B8D8C8D98131AC0E889F1
:10136000F989808185FF15C09FB7F894EE89FF89C0
:101370006083E889F98980818370806480839FBF5E
:1013800081E090E0DF91CF911F910F91FF90EF905E
:101390000895F62E0B8D10E00F5F1F4F0F7311276E
:1013A000E02E8C8D8E110CC00FB607FCFACFE889A9
:1013B000F989808185FFF5CFCE010E948009F1CFA8
:1013C000EB8DEC0FFD2FF11DE35AFF4FF0829FB71D
:1013D000F8940B8FEA89FB8980818062CFCF0F93CD
:1013E0001F93CF93DF938C01D0E0C0E0F801EC0FA6
:1013F000FD1F6491662341F086E693E00E94A209F6
:10140000892B11F02196F2CFCE01DF91CF911F9160
:101410000F910895CF93DF93EC01888D8823B9F065
:10142000AA89BB89E889F9898C9185FD03C08081EF
:1014300086FD0DC00FB607FCF7CF8C9185FFF2CF6C
:10144000808185FFEDCFCE010E948009E9CFDF9139
:10145000CF91089508958EBD00000DB407FEFDCF15
:101460008EB508958CBD9DBD08957F928F929F92F9
:10147000AF92BF92CF92DF92EF92FF920F931F93A2
:10148000CF93DF930115110581F483E090E0DF91A4
:10149000CF911F910F91FF90EF90DF90CF90BF9071
:1014A000AF909F908F907F900895F801EE5BFF4F73
:1014B0000190F081E02DD801AA5BBF4F7C900C5BBE
:1014C0001F4FD801CD91DC91EF2BF9F249015A0160
:1014D0008B01F82ECE010E94320A80E00E942B0A76
:1014E000CE010E94320A60E0872D0E9455088F2DA0
:1014F0008F770E942B0AE801C12CD12C7601C814E9
:10150000D904EA04FB0449F089910E942B0ABFEF39
:10151000CB1ADB0AEB0AFB0AF2CF61E0872D0E94AF
:10152000550890E080E0B3CF7F928F929F92AF9268
:10153000BF92CF92DF92EF92FF920F931F93CF93C0
:10154000DF930115110581F483E090E0DF91CF91E5
:101550001F910F91FF90EF90DF90CF90BF90AF90D1
:101560009F908F907F900895F801EE5BFF4F019060
:10157000F081E02DD801AA5BBF4F7C900C5B1F4F20
:10158000D801CD91DC91EF2BF9F249015A018B0181
:10159000F82ECE010E94320A80E00E942B0ACE0172
:1015A0000E94320A60E0872D0E9455088F2D8068C6
:1015B0000E942B0AE801C12CD12C7601C814D90451
:1015C000EA04FB0451F080E00E942B0A8993BFEFEC
:1015D000CB1ADB0AEB0AFB0AF1CF61E0872D0E94F0
:1015E000550890E080E0B2CFCF93DF9320910504BF
:1015F000222369F0EC01FE0164912196662339F003
:1016000080910304909104040E94F808F4CFDF91C4
:10161000CF9108958031910508F046C0FC01ED5E40
:10162000F44F0C944118230B270B2A0B2D0B300B76
:10163000330B360B390B3C0B3F0B420B450B480B66
:101640004B0B4E0B510B87E49AE00C94F40A89E3A0
:101650009AE0FBCF89E29AE0F8CF89E19AE0F5CFF2
:1016600080E19AE0F2CF81E09AE0EFCF82EF99E05B
:10167000ECCF8DED99E0E9CF83E899E0E6CF82E603
:1016800099E0E3CF8BE499E0E0CF8BE299E0DDCF06
:1016900082E199E0DACF8AEF98E0D7CF81EE98E047
:1016A000D4CF8CEC98E0D1CF8DEB98E0CECFEF92F9
:1016B000FF920F931F93CF93DF93CDB7DEB76A9757
:1016C0000FB6F894DEBF0FBECDBF80E00E940006CB
:1016D0008C0127E130E040E050E0BE016F5F7F4FBA
:1016E0008DE20E94D105082B192BE3E0F4E08981FB
:1016F0009A8198278927982792A781A78B819C8117
:1017000098278927982794A783A78D819E8198275A
:101710008927982796A785A78F8198859827892755
:10172000982790AB87A789859A8598278927982736
:1017300092AB81AB8B859C8598278927982794ABA2
:1017400083AB8D859E8598278927982794AF83AF93
:101750008F8586AF8889998996AB85AB8A899B8965
:1017600090AF87AB8C899D8992AF81AF8F8987AF0E
:1017700082E00E940006082B192B21E030E040E0B7
:1017800050E0BE01665E7F4F84E10E94D105082BC8
:10179000192B8A8D8695982F937080E4E82E84E02B
:1017A000F82EF70180818C7F892B808382E00E9454
:1017B0000006082B192B21E030E040E050E0BE018C
:1017C000675E7F4F81E00E94D105082B192B898D20
:1017D000880F982F9C70F7018081837F892B8083ED
:1017E00021E030E040E050E0BE01685E7F4F85E1DF
:1017F0000E94D105802B912B6A960FB6F894DEBF1C
:101800000FBECDBFDF91CF911F910F91FF90EF9051
:1018100008951F93CF93DF9385ED8093BC00809153
:10182000F8029091F902A091FA02B091FB0207969A
:10183000A11DB11D23E0B695A795979587952A958B
:10184000D1F72091BC0024FD03C01092400352C088
:101850004091F8025091F9026091FA027091FB02F6
:10186000452B462B472B69F30097A105B10541F0A5
:101870002AE22A95F1F700C00197A109B109E1CF49
:101880008091F702C1E0C093F602882399F1D091CC
:10189000B8001091BA008091BC008A7B8093BC0094
:1018A00060E082E10E94550860E083E10E945508F3
:1018B00010924003C09342031092410361E082E121
:1018C0000E94550861E083E10E9455088091B900AB
:1018D0008E7F8093B9008091B9008D7F8093B9008D
:1018E00088E48093B80085E48093BC001093BA002C
:1018F000D093B800DF91CF911F910895FB01019023
:101900000020E9F73197AF01461B570BDC01ED9141
:10191000FC910280F381E02D0994CF93DF930E9424
:10192000EF09EC0162E371E086E693E00E947E0C31
:101930008C0F9D1FDF91CF9108958F929F92AF9250
:10194000BF92EF92FF920F931F93CF93DF93CDB788
:10195000DEB7A1970FB6F894DEBF0FBECDBF7C01F6
:10196000FA01CB0119A2223008F42AE08E010F5DA2
:101970001F4F822E912CB12CA12CBF01A5019401E7
:101980000E941F18F901CA016A300CF5605DD80188
:101990006E938D01232B242B252B79F790E080E08B
:1019A000109721F0BD01C7010E947E0CA1960FB6D1
:1019B000F894DEBF0FBECDBFDF91CF911F910F9185
:1019C000FF90EF90BF90AF909F908F900895695CCB
:1019D000DECF20910504222359F0AC01990F660B4C
:1019E000770B2AE080910304909104040C949D0CE1
:1019F00008954F925F926F927F928F929F92AF92D3
:101A0000BF92CF92DF92EF92FF920F931F93CF93EB
:101A10006B017C01742EAC019B010E94D81A65E316
:101A200071E0811126C046015701E894B7F82FEF05
:101A30003FEF4FE75FE7C501B4010E94D81A81115B
:101A40000CC02FEF3FEF4FE75FE7C501B4010E94E5
:101A5000C81869E371E0181664F02FEF3FEF4FE705
:101A60005FE4C701B6010E94201A1816ACF46DE3BA
:101A700071E086E693E0CF911F910F91FF90EF9078
:101A8000DF90CF90BF90AF909F908F907F906F909E
:101A90005F904F900C947E0C2FEF3FEF4FE75FEC81
:101AA000C701B6010E94C81887FDE1CF20E030E0F1
:101AB000A901C701B6010E94C81810E000E087FF25
:101AC0000AC06DE286E693E00E94F8088C01F7FAFE
:101AD000F094F7F8F094C0E060E070E080E09FE3FD
:101AE0007C1641F020E030E040E251E40E94CD1845
:101AF000CF5FF6CFA70196010E945C182B013C0135
:101B00000E943F194B015C012AE0BC01A40186E65A
:101B100093E00E949D0C7C01E00EF11ECC23D1F1DC
:101B2000C501B4010E946E199B01AC01C301B20151
:101B30000E945B184B015C016EE286E693E00E9416
:101B4000F808E80EF91EC15028F120E030E040E22C
:101B500051E4C501B4010E94251A2B013C010E94E9
:101B60003F194B01B12CA12C2AE0B501A40186E656
:101B700093E00E949D0CE80EF91EC501B4010E947D
:101B80006E199B01AC01C301B2010E945B184B01AD
:101B90005C01D9CFC701CF911F910F91FF90EF90BA
:101BA000DF90CF90BF90AF909F908F907F906F907D
:101BB0005F904F9008950C94F90CCF93DF9342E01F
:101BC0000E94F90CEC0162E371E086E693E00E946A
:101BD0007E0C8C0F9D1FDF91CF910895CF93DF93E3
:101BE00020910504222399F0EC01FE01649180917B
:101BF0000304909104042196662319F00E94F808CA
:101C0000F4CF62E371E0DF91CF910C947E0CDF9111
:101C1000CF910895CF93DF931F92CDB7DEB719828E
:101C200041E0BE016F5F7F4F0E94CD069093440458
:101C300080934304892B71F087E798E00E94F40AAF
:101C400080914304909144040E940A0B86E798E037
:101C50000E94EE0D89810F90DF91CF9108951F9220
:101C60000F920FB60F9211242F933F934F935F93D0
:101C70006F937F938F939F93AF93BF93EF93FF9354
:101C80008091B900887F803609F44AC0F0F5883227
:101C900009F4A5C018F5803109F499C0B8F4882377
:101CA00009F4F5C0883009F492C0FF91EF91BF911B
:101CB000AF919F918F917F916F915F914F913F91E4
:101CC0002F910F900FBE0F901F901895883109F437
:101CD00086C0803251F780933F0314C0803409F4EA
:101CE0009BC040F48033B9F38833F9F680933F0307
:101CF00085ECAEC0803509F483C0883509F494C002
:101D0000883499F60E94090CD0CF883909F48AC02A
:101D100038F5883729F050F4883611F0803729F6E5
:101D200083E08093400310923E0355C0883809F445
:101D300079C0803919F0803809F0B7CF80913E031F
:101D4000803208F06FC0E0913E0381E08E0F8093F7
:101D50003E038091BB00F0E0E25EFC4F80833BC01D
:101D6000803B39F0D0F4803A09F477C0883A09F022
:101D70009CCF84E08093400310921D0310921C03BB
:101D8000F0E0E0E0099580911C0381110FC081E033
:101D900080931C031092FC0209C0803C09F4A8CF78
:101DA000883C09F4A5CF883B09F07FCFE0911D0363
:101DB00081E08E0F80931D03F0E0E450FD4F8081A1
:101DC0008093BB0090911D0380911C0329C08091DA
:101DD00065038093BB0085EC8093BC0066CF909137
:101DE000640380916303981758F5E091640381E0E0
:101DF0008E0F80936403F0E0ED5BFC4F8081E9CFB0
:101E0000E091640381E08E0F809364038091BB00B6
:101E1000F0E0ED5BFC4F808390916403809163035D
:101E20009817C8F285E8D8CFE091640381E08E0F5F
:101E3000809364038091BB00F0E0ED5BFC4F8083F6
:101E40008091420381115ECF81E08093410384EA57
:101E50008093BC001092400328CF85EC8093BC0097
:101E60001092400380913E03803230F4E0913E03B3
:101E7000F0E0E25EFC4F108260913E0370E08EE184
:101E800093E0F0E0E0E0099510923E030ECF10924F
:101E90003F0338CF1F920F920FB60F9211242F934A
:101EA0003F938F939F93AF93BF938091ED02909157
:101EB000EE02A091EF02B091F0023091EC0223E02B
:101EC000230F2D3758F50196A11DB11D2093EC026B
:101ED0008093ED029093EE02A093EF02B093F00294
:101EE0008091F1029091F202A091F302B091F4027C
:101EF0000196A11DB11D8093F1029093F202A0936F
:101F0000F302B093F402BF91AF919F918F913F91F3
:101F10002F910F900FBE0F901F90189526E8230F5A
:101F20000296A11DB11DD2CF1F920F920FB60F9234
:101F300011242F933F934F935F936F937F938F93CE
:101F40009F93AF93BF93EF93FF9386E693E00E9436
:101F50008009FF91EF91BF91AF919F918F917F91F8
:101F60006F915F914F913F912F910F900FBE0F9006
:101F70001F9018951F920F920FB60F9211242F9356
:101F80008F939F93EF93FF93E0917603F091770304
:101F90008081E0917C03F0917D0382FD1BC09081E4
:101FA00080917F038F5F8F7320918003821741F0B0
:101FB000E0917F03F0E0EA59FC4F958F80937F0317
:101FC000FF91EF919F918F912F910F900FBE0F90E6
:101FD0001F9018958081F4CFCF93DF93E6E6F3E06E
:101FE0001382128288EE93E0A0E0B0E084839583B0
:101FF000A683B78384E291E09183808385EC90E0AF
:102000009587848784EC90E09787868780EC90E0C2
:10201000918B808B81EC90E0938B828B82EC90E0B3
:10202000958B848B86EC90E0978B868B118E128E2D
:10203000138E148EE3E0F4E012828AE0838385E25B
:10204000A7E0B4E0ED0119928A95E9F784E0808772
:10205000109244041092430480E580934704109248
:102060004804DF91CF910895CF93DF93CDB7DEB7CA
:10207000A5970FB6F894DEBF0FBECDBF789484B598
:10208000826084BD84B5816084BD85B5826085BD74
:1020900085B5816085BD80916E00816080936E0002
:1020A00010928100809181008260809381008091F4
:1020B00081008160809381008091800081608093A5
:1020C00080008091B10084608093B1008091B00065
:1020D00081608093B00080917A00846080937A0060
:1020E00080917A00826080937A0080917A0081608A
:1020F00080937A0080917A00806880937A001092B1
:10210000C100E0917603F091770382E08083E09153
:102110007203F09173031082E0917403F0917503E0
:1021200080E1808310927E03E0917A03F0917B033B
:1021300086E08083E0917803F0917903808180616B
:102140008083E0917803F0917903808188608083B7
:10215000E0917803F0917903808180688083E09139
:102160007803F091790380818F7D808381E897E007
:102170000E948D0C8CE597E00E948D0C82E397E025
:102180000E948D0C8AE197E00E948D0C1FB7F89495
:102190008091D802811124C0E8E5F8E08491ECE652
:1021A000F8E09491E82FF0E0EE0FFF1FEC5BF74FA3
:1021B000A591B491EC91E92321F461E08AE00E94B9
:1021C00055088AE00E94E5078CB580618CBD8CB50E
:1021D00080648CBD8DE00E94E5078BE00E94E507DE
:1021E0008091D8028F5F8093D8021FBF83E00E9446
:1021F000E50761E083E00E94550888EF96E00E94C1
:102200008D0C89ED92E0909346048093450480E51F
:10221000809347041092480483E0809349040E940D
:10222000E50761E0809149040E94550880914704C8
:10223000909148040E94320A80E00E942B0A85E3B4
:102240009AE090934B0480934A0484E99AE0909337
:102250004D0480934C0483E094E090934F0480936A
:102260004E048AE494E0909308048093070410924B
:10227000090410920A048FEF80930B0480930C04DE
:1022800010920D0410920E0410920F04109210047C
:10229000109211041092120410921304109214045C
:1022A000109215041092160410921704109218043C
:1022B0001092190410921A0410921B0410921C041C
:1022C00010921D0410921E0410921F0410922004FC
:1022D00010922104198280E00E94000621E030E083
:1022E00040E050E0BE016F5F7F4F80E00E94D1056B
:1022F000009729F489818A3EA9F084E090E09093C8
:102300004404809343048EE494E00E94F40A809194
:102310004304909144040E940A0B8DE494E00E94CF
:10232000EE0D04C010924404109243040091430443
:10233000109144040115110509F44DC080EB94E09F
:102340000E94F40AC8010E940A0B8FEA94E00E94DE
:10235000EE0D1093440400934304012B71F08FEDB4
:1023600094E00E94F40A80914304909144040E94F6
:102370000A0B8EED94E00E94EE0D80914304909143
:102380004404892B09F4DAC284ED96E00E94EF0937
:1023900080914304909144048031910508F0CBC2B0
:1023A000880F991FFC01E050FF4F6081718161151A
:1023B000710521F086E693E00E947E0C62E371E0F5
:1023C00086E693E00E947E0C68EE73E080E090E089
:1023D0000E94C608F9CF80E00E94000621E030E0AC
:1023E00040E050E0BE016F5F7F4F86E00E94D10564
:1023F0008C01892B51F4898180688983BE016F5FCC
:102400007F4F86E00E94E7058C01109344040093FF
:1024100043040115110551F081E894E00E94F40A8B
:10242000C8010E940A0B80E894E091CF62E370E05B
:1024300080E090E00E94C60880E00E94000621E053
:1024400030E040E050E0BE016F5F7F4F86E00E94C9
:10245000D1058C01892B51F489818F7B8983BE0141
:102460006F5F7F4F86E00E94E7058C011093440464
:10247000009343040115110551F081E294E00E949C
:10248000F40AC8010E940A0B80E294E060CF80E069
:102490000E94000621E030E040E050E0BE016F5FA6
:1024A0007F4F86E00E94D1058C01892B51F48981F0
:1024B0008F7D8983BE016F5F7F4F86E00E94E705B5
:1024C0008C0110934404009343040115110551F04D
:1024D00081EF93E00E94F40AC8010E940A0B80EF8A
:1024E00093E035CF80E00E940006009711F40E942F
:1024F0006607909344048093430480E00E940006A2
:102500000097E1F50E9466070097C1F583E00E94FD
:102510000006009799F521E030E040E050E0BE0170
:102520006E5F7F4F81E00E94D105009739F58A8167
:10253000807F876080618A83BE016E5F7F4F81E00C
:102540000E94E7050097D1F480E00E940006009702
:10255000A9F421E030E040E050E0BE016F5F7F4F22
:1025600083E00E94D105009749F4898180628983C4
:10257000BE016F5F7F4F83E00E94E70590934404A4
:102580008093430481E08D8340E0BE016B5F7F4F09
:1025900082E30E94CD06909344048093430410E0AC
:1025A00044E0C42ED12C80910604181708F08BC08B
:1025B0001F5F80E00E940A0E082F809143049091D3
:1025C0004404892BD9F18EE591E00E94F40A802F12
:1025D00090E00E94E90C86E391E00E94F40A809169
:1025E0004304909144040E940A0B85E391E00E9409
:1025F000EE0D80E00E9400060097A9F421E030E093
:1026000040E050E0BE016F5F7F4F83E00E94D10544
:10261000009749F4898182608983BE016F5F7F4F93
:1026200083E00E94E70590934404809343046AE0AA
:1026300070E080E090E00E94C608B5CF81E00E9483
:102640000A0EF82E8091430490914404892BE9F0FE
:1026500085E191E00E94F40A802F90E00E94E90C4D
:102660008BEF90E00E94F40A8F2D90E00E94E90C1D
:1026700084ED90E00E94F40A809143049091440418
:102680000E940A0B83ED90E0B2CF083419F489E080
:10269000F816C9F083EB90E00E94F40A802F90E0D6
:1026A0000E94E90C89E990E00E94F40A8F2D90E0E5
:1026B0000E94E90C88E690E00E94EE0DD09244045E
:1026C000C092430496CF8091060481131FC088E610
:1026D00092E00E94F40A8091060490E00E94E90CC6
:1026E00084E492E00E94EE0D84E090E09093440434
:1026F0008093430404E010E086EB93E00E94F40A28
:10270000C8010E940A0B85EB93E021CE88E092E09D
:102710000E94F40A812F90E00E94E90C83E092E08D
:10272000113011F08CEF91E00E94EE0D88E08C8367
:1027300040E0BE016C5F7F4F81E30E94CD068C01BB
:102740009093440480934304892B81F088EC91E0BA
:102750000E94F40AC8010E940A0B87EC91E00E94D3
:10276000EE0D1093440400934304C6CF83E00E940F
:1027700000068C01892B11F58CE88B83BE016D5FFF
:102780007F4F83E00E94E7058C01892BB9F480E13B
:102790008A83BE016E5F7F4F84E00E94E7058C0153
:1027A000892B61F48981807489688F7B8983BE015C
:1027B0006F5F7F4F85E00E94E7058C011093440412
:1027C000009343040115110509F4D7C38FE791E085
:1027D0000E94F40AC8010E940A0B8EE791E0BFCF65
:1027E00060E083E090E00E943D068C0190934404F9
:1027F00080934304892B51F08DE493E00E94F40A06
:10280000C8010E940A0B8CE493E0A1CD82E00E94F3
:1028100000068C0121E030E040E050E0BE016F5F37
:102820007F4F84E10E94D105082B192B8981886391
:102830008983BE016F5F7F4F84E10E94E705082B0B
:10284000192B21E030E040E050E0BE016F5F7F4F88
:1028500084E10E94D105082B192B898186958695E4
:1028600086958770873009F0016082E00E9400063B
:10287000082B192B21E030E040E050E0BE016F5FF3
:102880007F4F81E00E94D105082B192B8981886335
:102890008983BE016F5F7F4F81E00E94E705082BAF
:1028A000192B21E030E040E050E0BE016F5F7F4F28
:1028B00081E00E94D105082B192B89818695869588
:1028C00086958770873009F0016010934404009367
:1028D00043040115110551F08BE193E00E94F40AC5
:1028E000C8010E940A0B8AE193E031CD81E00E9489
:1028F00084078C01892B51F083EE92E00E94F40A48
:10290000C8010E940A0B82EE92E021CD82E00E9473
:1029100084078C01892B51F08BEA92E00E94F40A23
:10292000C8010E940A0B8AEA92E011CD009143048B
:10293000109144040ECD61E471E03CCD8CEA96E048
:102940000E948D0C63E081E090E00E943D06909330
:102950004404809343046CE082E090E00E943D06D2
:10296000909344048093430482E00E9400068C010B
:102970001A829AE0F92EF982BE016E5F7F4F80E1E4
:102980000E94E705082B192BBE016F5F7F4F81E185
:102990000E94E705082B192B82E00E940006082BF5
:1029A000192BF982BE016F5F7F4F80E00E94E7051F
:1029B000802B912B909344048093430484E996E008
:1029C0000E948D0C86E896E00E948D0C8FE696E0C2
:1029D0000E948D0C84E596E00E948D0C8CE396E0BD
:1029E0000E948D0C82E196E00E948D0C81EF95E0B3
:1029F0000E948D0C88EC95E00E948D0CC12CD12C8E
:102A00007601460157012601370110E000E02AE077
:102A1000222E312C80E00E940006009711F40E94C3
:102A200023069093440480934304892B81F50E94EC
:102A3000570B909344048093430480913204909107
:102A400033040E9455059B01AC01C301B2010E94F1
:102A50005C182B013C0180913404909135040E9454
:102A600055059B01AC01C501B4010E945C184B01E6
:102A70005C0180913604909137040E9455059B01BA
:102A8000AC01C701B6010E945C186B017C016AE0D1
:102A900070E080E090E00E94C608C801B1010E9489
:102AA0000B18892B21F48AE295E00E94EF090F5F51
:102AB0001F4F0436110509F0ADCF62E371E086E6E1
:102AC00093E00E947E0C20E030E048EC52E4C30129
:102AD000B2010E94CD182B013C014092E2025092BB
:102AE000E3026092E4027092E50220E030E048ECFC
:102AF00052E4C501B4010E94CD186093DE027093C8
:102B0000DF028093E0029093E10220E030E048ECA5
:102B100052E4C701B6010E94CD186093DA027093A7
:102B2000DB028093DC029093DD0287E195E00E9456
:102B3000EF0942E050E0C301B2010E94DB0D83E1E6
:102B400095E00E94EF096091DE027091DF028091B2
:102B5000E0029091E10242E050E00E94DB0D8FE044
:102B600095E00E94EF096091DA027091DB0280919A
:102B7000DC029091DD020E94DD0D8EEA95E00E945C
:102B80008D0C8EE895E00E948D0C85E595E00E9405
:102B90008D0C8CE295E00E948D0C80E0282E80E068
:102BA000382E80E00E940006009711F40E94230650
:102BB0009093440480934304892BA1F08AEA97E020
:102BC0000E948D0C64E670E080E090E00E94C608F0
:102BD0002114310431F30E946C09882311F30E94FF
:102BE0000000DFCF0E94570B90934404809343046E
:102BF0000091EA021091EB020F5F1F4F1093EB025E
:102C00000093EA0280912C0490912D040E94940577
:102C100023EC35EF4CE151E40E94251A20E030E02E
:102C20004AE754E40E94CD184B015C0180912E04C8
:102C300090912F040E94940523EC35EF4CE151E470
:102C40000E94251A20E030E04AE754E40E94CD18A3
:102C50006E837F83888799878091300490913104B7
:102C60000E94940523EC35EF4CE151E40E94251AB3
:102C700020E030E04AE754E40E94CD182B013C01EB
:102C8000A5019401C501B4010E94251A6B017C01C4
:102C90002E813F8148855985CA01B9010E94251AB4
:102CA0009B01AC01C701B6010E945C186B017C015D
:102CB000A3019201C301B2010E94251A9B01AC013C
:102CC000C701B6010E945C180E94981A6093E60240
:102CD0007093E7028093E8029093E90280913204B6
:102CE000909133040E9455052091E2023091E30255
:102CF0004091E4025091E5020E945B186A877B874D
:102D00008C879D8780913404909135040E945505ED
:102D10002091DE023091DF024091E0025091E10209
:102D20000E945B186E877F87888B998B8091360411
:102D3000909137040E9455052091DA023091DB0210
:102D40004091DC025091DD020E945B186A8B7B8B04
:102D50008C8B9D8B6091380470913904072E000C88
:102D6000880B990B0E9470192AE939E949E15EE361
:102D70000E94251A6AA37BA38CA39DA360913A04A9
:102D800070913B04072E000C880B990B0E94701960
:102D90002AE939E949E15EE30E94251A6E8F7F8FA7
:102DA00088A399A360913C0470913D04072E000C08
:102DB000880B990B0E9470192AE939E949E15EE311
:102DC0000E94251A6A8F7B8F8C8F9D8F60913E04A5
:102DD00070913F04072E000C880B990B0E9470190C
:102DE00020E030E048EA51E40E945B182CE53FEE19
:102DF00046EA53E40E94CD1820E030E048EA51E46E
:102E00000E945C186E8B7F8B888F998F8CE198E085
:102E10000E94EF096801110FEE08FF082AE0B701D0
:102E2000A601F7FE0DC06DE286E693E00E94F80869
:102E300044275527BA014C195D096E097F092AE01C
:102E400086E693E00E949D0C88E198E00E94EF09DD
:102E50008FB7F8944091ED025091EE026091EF022D
:102E60007091F0028FBF2AE086E693E00E949D0CED
:102E700085E198E00E948D0C89E098E00E94EF09BE
:102E800042E050E0C501B4010E94DB0D85E098E00E
:102E90000E94EF0942E050E06E817F81888599852C
:102EA0000E94DB0D81E098E00E94EF0942E050E0D3
:102EB000C301B2010E94DB0D89EF97E00E94EF0988
:102EC0006091E6027091E7028091E8029091E90238
:102ED0000E94DD0D8DEE97E00E94EF0942E050E088
:102EE0006A857B858C859D850E94DB0D89EE97E048
:102EF0000E94EF0942E050E06E857F8588899989BC
:102F00000E94DB0D85EE97E00E94EF096A897B89BC
:102F10008C899D890E94DD0D89ED97E00E94EF0963
:102F200042E050E06AA17BA18CA19DA10E94DB0D33
:102F300085ED97E00E94EF0942E050E06E8D7F8DB5
:102F400088A199A10E94DB0D81ED97E00E94EF0915
:102F50006A8D7B8D8C8D9D8D0E94DD0D87EC97E0B9
:102F60000E94EF0941E050E06E897F89888D998D3C
:102F70000E94DB0D82EC97E023CE80E00E940006E9
:102F8000009769F521E030E040E050E0BE016F5F5E
:102F90007F4F85E00E94D105009709F589818F7DDB
:102FA0008F7E8983BE016F5F7F4F85E00E94E705BA
:102FB0000097A9F421E030E040E050E0BE016F5FEF
:102FC0007F4F85E00E94D105009749F4298125FBB8
:102FD000882780F990E024FF02C081E090E0909380
:102FE00044048093430461E070E080E090E00E943C
:102FF000C60800914304109144040115110509F419
:10300000EFCB81E893E00E94F40AC8010E940A0B0A
:1030100080E893E09CC997FB072E16F4009407D034
:1030200077FD09D00E94471807FC05D03EF4909523
:1030300081959F4F0895709561957F4F0895A1E206
:103040001A2EAA1BBB1BFD010DC0AA1FBB1FEE1F22
:10305000FF1FA217B307E407F50720F0A21BB30B6D
:10306000E40BF50B661F771F881F991F1A9469F7E9
:1030700060957095809590959B01AC01BD01CF0145
:103080000895EE0FFF1F0590F491E02D0994AA1BFF
:10309000BB1B51E107C0AA1FBB1FA617B70710F043
:1030A000A61BB70B881F991F5A95A9F78095909575
:1030B000BC01CD0108955058BB27AA270E94731860
:1030C0000C94E6190E94D81938F00E94DF1920F0FC
:1030D00039F49F3F19F426F40C94D5190EF4E095B9
:1030E000E7FB0C94CF19E92F0E94F71958F3BA1790
:1030F000620773078407950720F079F4A6F50C940E
:10310000191A0EF4E0950B2EBA2FA02D0B01B90160
:1031100090010C01CA01A0011124FF27591B99F04D
:10312000593F50F4503E68F11A16F040A22F232F59
:10313000342F4427585FF3CF469537952795A795A9
:10314000F0405395C9F77EF41F16BA0B620B730B50
:10315000840BBAF09150A1F0FF0FBB1F661F771FC1
:10316000881FC2F70EC0BA0F621F731F841F48F476
:10317000879577956795B795F7959E3F08F0B0CFFF
:103180009395880F08F09927EE0F979587950895E6
:103190000E94AB1908F481E008950E94E1180C9494
:1031A000E6190E94DF1958F00E94D81940F029F45E
:1031B0005F3F29F00C94CF1951110C941A1A0C94FA
:1031C000D5190E94F71968F39923B1F3552391F3A8
:1031D000951B550BBB27AA2762177307840738F086
:1031E0009F5F5F4F220F331F441FAA1FA9F335D0E3
:1031F0000E2E3AF0E0E832D091505040E695001C97
:10320000CAF72BD0FE2F29D0660F771F881FBB1F50
:10321000261737074807AB07B0E809F0BB0B802D2E
:10322000BF01FF2793585F4F3AF09E3F510578F05A
:103230000C94CF190C941A1A5F3FE4F3983ED4F320
:10324000869577956795B795F7959F5FC9F7880F2E
:10325000911D9695879597F90895E1E0660F771F80
:10326000881FBB1F621773078407BA0720F0621B11
:10327000730B840BBA0BEE1F88F7E09508950E943C
:10328000FF1988F09F5798F0B92F9927B751B0F0E0
:10329000E1F0660F771F881F991F1AF0BA95C9F7DA
:1032A00014C0B13091F00E94191AB1E008950C9445
:1032B000191A672F782F8827B85F39F0B93FCCF3F8
:1032C000869577956795B395D9F73EF49095809557
:1032D000709561957F4F8F4F9F4F0895E89409C077
:1032E00097FB3EF490958095709561957F4F8F4F39
:1032F0009F4F9923A9F0F92F96E9BB279395F6954F
:10330000879577956795B795F111F8CFFAF4BB0FCC
:1033100011F460FF1BC06F5F7F4F8F4F9F4F16C030
:10332000882311F096E911C0772321F09EE8872FBA
:10333000762F05C0662371F096E8862F70E060E076
:103340002AF09A95660F771F881FDAF7880F9695EF
:10335000879597F90895990F0008550FAA0BE0E893
:10336000FEEF16161706E807F907C0F01216130647
:10337000E407F50798F0621B730B840B950B39F487
:103380000A2661F0232B242B252B21F408950A26ED
:1033900009F4A140A6958FEF811D811D089597F92D
:1033A0009F6780E870E060E008959FEF80EC0895EB
:1033B00000240A9416161706180609060895002414
:1033C0000A9412161306140605060895092E03948E
:1033D000000C11F4882352F0BB0F40F4BF2B11F402
:1033E00060FF04C06F5F7F4F8F4F9F4F089557FD61
:1033F0009058440F551F59F05F3F71F04795880F63
:1034000097FB991F61F09F3F79F0879508951216F9
:1034100013061406551FF2CF4695F1DF08C01616A5
:1034200017061806991FF1CF869571056105089456
:103430000895E894BB2766277727CB0197F908956D
:103440000E94AB1908F48FEF08950E94381A0C946B
:10345000E6190E94D81938F00E94DF1920F0952350
:1034600011F00C94CF190C94D51911240C941A1A3C
:103470000E94F71970F3959FC1F3950F50E0551F07
:10348000629FF001729FBB27F00DB11D639FAA27B9
:10349000F00DB11DAA1F649F6627B00DA11D661F08
:1034A000829F2227B00DA11D621F739FB00DA11D29
:1034B000621F839FA00D611D221F749F3327A00DE3
:1034C000611D231F849F600D211D822F762F6A2F7F
:1034D00011249F5750409AF0F1F088234AF0EE0FE4
:1034E000FF1FBB1F661F771F881F91505040A9F711
:1034F0009E3F510580F00C94CF190C941A1A5F3F2F
:10350000E4F3983ED4F3869577956795B795F7954C
:10351000E7959F5FC1F7FE2B880F911D96958795C4
:1035200097F9089519F416F40C94D5190C94DD1A32
:103530000E94FF19B8F39923C9F3B6F39F57550BAF
:1035400087FF0E94EB1A0024A0E640EA9001805811
:103550005695979528F4805C660F771F881F20F09A
:1035600026173707480730F4621B730B840B20299A
:1035700031294A2BA69517940794202531254A27EF
:1035800058F7660F771F881F20F026173707480760
:1035900030F4620B730B840B200D311D411DA0957F
:1035A00081F7B901842F9158880F969587950895D2
:1035B0000E94AB19880B990B08959F3F31F09150F1
:1035C00020F4879577956795B795880F911D969507
:1035D000879597F9089591505040660F771F881F7F
:0835E000D2F70895F894FFCF23
:1035E80050015D016B017B018B019401A301B201C4
:1035F800C70121024202590279029202AA02C302B9
:1036080000000000A209FF082F090A0A60093E0904
:1036180052090D0A006E616E00696E66006F76666B
:1036280000556E6B6E6F776E2053746174757300FE
:10363800416C6C2069732077656C6C2E0047656E51
:103648006572616C204572726F72004E6F7420490A
:103658006D706C656D656E74656400506172616D46
:1036680065746572204572726F720057726F6E676B
:1036780020494400496E76616C69642053656E7315
:103688006F72004461746120556E646572666C6F78
:10369800770053656E736F72204E6F742053757088
:1036A800706F7274656400444D50204669726D777E
:1036B800617265204E6F7420537570706F727465F7
:1036C800642E2049732023646566696E652049432A
:1036D8004D5F32303934385F5553455F444D502083
:1036E800636F6D6D656E74656420696E20757469AD
:1036F8006C2F49434D5F32303934385F432E683F71
:1037080000444D50204669726D7761726520566598
:1037180072696669636174696F6E204661696C6578
:1037280064004E6F204649464F2044617461204131
:103738007661696C61626C6500444D502064617407
:103748006120696E204649464F2077617320696E73
:10375800636F6D706C657465004D6F7265204649C6
:10376800464F204461746120417661696C61626CE6
:103778006500556E7265636F676E69736564204492
:103788004D502048656164657200556E7265636FBF
:10379800676E6973656420444D50204865616465AF
:1037A800723200496E76616C696420444D50205233
:0837B800656769737465720016
:00000001FF
