:100000000C9439040C9461040C9461040C94610404
:100010000C9461040C9461040C9461040C946104CC
:100020000C9461040C9461040C9461040C946104BC
:100030000C9461040C9461040C9461040C946104AC
:100040000C94B5200C9461040C9425210C94FF2091
:100050000C9461040C9461040C9461040C9461048C
:100060000C9457210C94610407634236B79BD8A7C0
:100070001A39685618AEBAAB558C1D3CB7CC5763CD
:10008000BD6DEDFD753EF6177231BF000000803F7B
:1000900008000000BE922449123EABAAAA2ABECD97
:1000A000CCCC4C3E00000080BEABAAAAAA3E000009
:1000B0000000BF000000803F000000000008417801
:1000C000D3BB4387D1133D190E3CC3BD4282AD2B38
:1000D0003E68EC8276BED98FE1A93E4C80EFFFBE30
:1000E00001C4FF7F3F0000000000202045787065BC
:1000F0006374656420372062797465732C20676FA0
:10010000743A2000202028313D6461746120746FAE
:100110006F206C6F6E672C20323D4E41434B206F39
:100120006E20616464722C20333D4E41434B206F3E
:100130006E20646174612C20343D6F74686572298F
:10014000002020493243204572726F7220436F6451
:10015000653A20007C3C3E5E2B3D3F2F5B5D3B2C97
:100160002A225C002020474E44202D3E20474E444A
:10017000002020564343202D3E20332E3356206F3F
:100180007220355600202053434C202D3E2041350F
:10019000002020534441202D3E2041340043686517
:1001A000636B20776972696E673A00E29C9720461C
:1001B00061696C656420746F20696E697469616C33
:1001C000697A6520424D5032383020766961204985
:1001D00032432100436F6E66696775726174696F9F
:1001E0006E20636F6D706C6574652E00E29C9320C9
:1001F000424D5032383020696E697469616C697A99
:100200006564207375636365737366756C6C7921BF
:1002100000496E697469616C697A696E6720424D44
:10022000503238302028493243206D6F6465292EC2
:100230002E2E0053443A20496E697469616C697AC4
:100240006174696F6E207375636365737366756C33
:100250000053443A20496E697469616C697A61742B
:10026000696F6E206661696C65640053443A204989
:100270006E697469616C697A696E67207769746800
:100280002043532070696E2000436F6D6D616E6472
:10029000733A204C3D5374617274206C6F676769C8
:1002A0006E672C20533D53746F70206C6F676769C5
:1002B0006E672C20443D44656C6574652066696CEE
:1002C000652C20483D48656C70003D3D3D3D3D3D01
:1002D0003D3D3D3D3D3D3D3D3D3D3D3D3D3D3D3D4E
:1002E0003D3D3D3D3D3D3D3D3D3D3D3D3D3D3D3D3E
:1002F0003D3D3D3D3D3D3D3D3D3D3D3D3D3D3D3D2E
:100300003D3D3D3D3D3D3D3D3D3D3D000A54696D1A
:10031000657374616D7009090954656D7028C2B008
:100320004329095072657373757265286850612995
:1003300009416C746974756465286D2900E29C93A9
:100340002053442063617264207265616479202DBA
:1003500020757365204C20746F2073746172742053
:100360006C6F6767696E6700E29C9320534420635B
:10037000617264204F4B00E29C97205344206361DC
:100380007264206661696C65642100E29C9320427E
:1003900061726F6D65746572204F4B00E29C97200F
:1003A0004261726F6D65746572206661696C656427
:1003B0002100E29C93205254432074696D652073A0
:1003C0006574207375636365737366756C6C7921EE
:1003D00000436F756C64206E6F74207265616420D9
:1003E0005254432074696D652E2053657474696E90
:1003F000672064656661756C742074696D652E2E66
:100400002E00E29C93205254432074696D65207342
:100410006574207375636365737366756C6C79219D
:10042000005254432074696D65206170706561727B
:100430007320756E7365742E2053657474696E67CE
:1004400020746F2063757272656E742074696D65B7
:100450002E2E2E00E29C93205254432074696D6529
:100460002069732076616C69642C206C6561766903
:100470006E6720697420756E6368616E6765642EAF
:10048000003A003A0020002D002D0043757272657D
:100490006E74205254432074696D653A2000E29CCA
:1004A0009320525443204F4B00E29C9720525443D8
:1004B000206661696C65642100E29C932053504979
:1004C00020696E697469616C697A65640055534C82
:1004D00049205061796C6F61643A204261726F6D9E
:1004E00065746572202B20525443202B2053440006
:1004F00053443A205772697465206572726F722096
:100500006465746563746564002C002C002C0030F5
:10051000003A0030003A003000200030002D00305A
:10052000002D0053443A2046696C65206E6F74209C
:100530006F70656E0053443A204E6F74206C6F6785
:1005400067696E670054696D657374616D702C54D2
:10055000656D705F432C50726573737572655F686B
:1005600050612C416C7469747564655F6D0053440F
:100570003A2046696C65206F70656E6564207375FE
:10058000636365737366756C6C790053443A2046F7
:1005900061696C656420746F206F70656E20666998
:1005A0006C650053443A204F70656E696E67206633
:1005B000696C65200053443A20416C72656164792E
:1005C000206C6F6767696E670050726573732027D0
:1005D000482720666F722068656C7000556E6B6EE0
:1005E0006F776E20636F6D6D616E643A2000436FAC
:1005F0006D6D616E64733A204C3D5374617274206A
:100600006C6F6767696E672C20533D53746F702061
:100610006C6F6767696E672C20443D44656C657438
:10062000652066696C6500E29C97204661696C658F
:100630006420746F2064656C6574652066696C6500
:100640002100E29C932046696C652064656C6574AA
:100650006564207375636365737366756C6C79216B
:100660000044656C6574696E6720646174612E6313
:1006700073762E2E2E00E29C97204661696C65648D
:1006800020746F2064656C6574652066696C6521F3
:1006900000E29C932046696C652064656C65746516
:1006A00064207375636365737366756C6C79210080
:1006B00044656C6574696E6720646174612E637350
:1006C000762E2E2E0053746F7070696E67206C6FDB
:1006D0006767696E672E2E2E004E6F7420637572E9
:1006E00072656E746C79206C6F6767696E6700E283
:1006F0009C97204661696C656420746F2073746FE9
:1007000070206C6F6767696E672100E29C93204CD4
:100710006F6767696E672073746F707065642073AC
:1007200075636365737366756C6C79210053746FC0
:100730007070696E672064617461206C6F676769AF
:100740006E672E2E2E00E29C97204661696C6564D0
:1007500020746F2073746172742064617461206C02
:100760006F6767696E672100E29C93204461746142
:10077000206C6F6767696E6720737461727465645B
:1007800020746F20646174612E637376005374610A
:100790007274696E672064617461206C6F67676949
:1007A0006E672E2E2E00416C7265616479206C6F2D
:1007B0006767696E6720746F3A2000E29C97204655
:1007C00061696C656420746F207772697465207448
:1007D0006F205344206361726421000909000909F4
:1007E000005D20005B005D20E29C9720496E7661F1
:1007F0006C6964206261726F6D65746572207265E8
:10080000616421005B00E29C97204661696C65642D
:1008100020746F20726561642052544321000000EF
:100820000000240027002A00000000002500280006
:100830002B00040404040404040402020202020261
:100840000303030303030102040810204080010294
:100850000408102001020408102000000008000213
:1008600001000003040700000000000000009F23B7
:10087000272D11241FBECFEFD8E0DEBFCDBF11E082
:10088000A0E0B1E0ECEFFEE602C005900D92A63AC2
:10089000B107D9F725E0A6EAB1E001C01D92A93859
:1008A000B207E1F714E0C8E3D4E004C02197FE01E9
:1008B0000E944F2FC733D107C9F70E9439240C94E7
:1008C00071370C9400000895089590E0FC01E65AF9
:1008D000F74F2491FC01EA5BF74F3491FC01EE5C89
:1008E000F74FE491EE23C9F0222339F0233001F1D0
:1008F000A8F4213019F1223029F1F0E0EE0FFF1FAA
:10090000E85DF74FA591B4918FB7F894EC91611120
:1009100026C030953E233C938FBF08952730A9F021
:100920002830C9F0243049F7809180008F7D03C0C2
:10093000809180008F7780938000DFCF84B58F77A0
:1009400084BDDBCF84B58F7DFBCF8091B0008F77E6
:100950008093B000D2CF8091B0008F7DF9CF3E2B35
:10096000DACFCF93DF9390E0FC01EA5BF74F24915D
:100970008E5C974FFC0184918823D1F090E0880F22
:10098000991FFC01E25EF74FA591B491FC01E85D6F
:10099000F74FC591D49161110EC09FB7F8948C9117
:1009A000E22FE0958E238C932881E223E8839FBF7A
:1009B000DF91CF9108958FB7F894EC91E22BEC93EF
:1009C0008FBFF6CF8230910538F0880F991F880FBE
:1009D000991F05970197F1F70895BF92CF92DF9283
:1009E000EF92FF920F931F93CF93DF93EC018881D7
:1009F0009981892B81F06EBD0DB407FEFDCF0EB538
:100A0000802FDF91CF911F910F91FF90EF90DF909A
:100A1000CF90BF9008958885998511E0892B09F0C2
:100A200010E8BB24B394862F812309F0B12CF62E55
:100A30002C813D814E815F8160E271EA87E090E028
:100A40000E94832DE22E00E0C22ED12CEE2019F060
:100A5000C6010E94E2048A85982F977F09F044C05E
:100A60008D858F3F89F09F2D912381E009F480E0EF
:100A70008B1551F0EF85F8898F89992379F1908151
:100A8000892B8083BB24B394E989FA898081998D6D
:100A9000892B8083EE2019F0C6010E94E2048E8526
:100AA0008F3F39F0EB89FC898081988D892309F08B
:100AB000012BE989FA899081898D8095892380832A
:100AC00088859985892B09F067C0110F1111BECF58
:100AD0008E858F3F09F094CF0F2D92CF9081809516
:100AE00089238083B12CD0CF8C3099F58D858F3FB1
:100AF00049F0EF85F8898F899F2D912331F19081FD
:100B0000892B8083E989FA899081898D8095892351
:100B10008083EE2019F0C6010E94E204E989FA8977
:100B20008081998D892B8083EE2019F0C6010E9467
:100B3000E2048E858F3F21F2EB89FC898081988DBC
:100B4000892309F4BDCF012BBBCF908180958923E8
:100B5000D8CFE989FA898081998D892B8083EE200D
:100B600019F0C6010E94E2048D858F3F49F0EF85A0
:100B7000F8898F899F2D912359F09081892B80834B
:100B8000E989FA899081898D809589238083D1CFE5
:100B9000908180958923F3CF169598CF3FB7F8942D
:100BA00080910C0290910D02A0910E02B0910F0263
:100BB00026B5A89B05C02F3F19F00196A11DB11DB8
:100BC0003FBFBA2FA92F982F8827BC01CD01620FF4
:100BD000711D811D911D42E0660F771F881F991FAF
:100BE0004A95D1F708958F929F92AF92BF92CF927C
:100BF000DF92EF92FF924B015C010E94CE056B01E8
:100C00007C010E94CE056C197D098E099F09683E02
:100C1000734081059105A8F321E0821A9108A1088B
:100C2000B10888EEC80E83E0D81EE11CF11C8114C7
:100C30009104A104B10429F7FF90EF90DF90CF90C9
:100C4000BF90AF909F908F9008952FB7F8946091C8
:100C500008027091090280910A0290910B022FBF45
:100C60000895DC01ED91FC910190F081E02D099453
:100C7000EF92FF920F931F93CF93DF938C017B0131
:100C8000D0E0C0E0F701EC0FFD1F6491662361F036
:100C9000D801ED91FC910190F081E02DC8010995FA
:100CA000892B11F02196EECFCE01DF91CF911F91CC
:100CB0000F91FF90EF900895AF92BF92CF92DF9285
:100CC000EF92FF920F931F93CF93DF936C017B0101
:100CD0008B01040F151FEB015E01AE18BF08C01792
:100CE000D10759F06991D601ED91FC910190F08105
:100CF000E02DC6010995892B79F7C501DF91CF91C8
:100D00001F910F91FF90EF90DF90CF90BF90AF9029
:100D10000895FC01538D448D252F30E0842F90E001
:100D2000821B930B541710F00F96089501970895A6
:100D3000FC01918D828D981761F0A28DAE0FBF2FAF
:100D4000B11D5D968C91928D9F5F9F70928F90E008
:100D500008958FEF9FEF0895FC01918D828D981774
:100D600031F0828DE80FF11D858D90E008958FEFB1
:100D70009FEF0895FC01918D228D892F90E0409680
:100D8000821B91098F709927089589EA94E00E9447
:100D9000BA0621E0892B09F420E0822F089580E033
:100DA00090E0892B29F00E94C50681110C94000067
:100DB0000895FC01A48DA80FB92FB11D9D962C910B
:100DC000848D90E001968F709927848FA689B789CA
:100DD0002C93A089B1898C91837080648C93938DBE
:100DE000848D981306C00288F389E02D80818F7D61
:100DF00080830895EF92FF920F931F93CF93DF9319
:100E0000EC0181E0888F9B8D8C8D98131AC0E88946
:100E1000F989808185FF15C09FB7F894EE89FF8915
:100E20006083E889F98980818370806480839FBFB3
:100E300081E090E0DF91CF911F910F91FF90EF90B3
:100E40000895F62E0B8D10E00F5F1F4F0F701127C6
:100E5000E02E8C8D8E110CC00FB607FCFACFE889FE
:100E6000F989808185FFF5CFCE010E94D906F1CFA7
:100E7000EB8DEC0FFD2FF11DF5A69FB7F8940B8FAE
:100E8000EA89FB8980818062D1CFCF93DF93EC0127
:100E9000888D8823B9F0AA89BB89E889F9898C9162
:100EA00085FD03C0808186FD0DC00FB607FCF7CF1E
:100EB0008C9185FFF2CF808185FFEDCFCE010E941E
:100EC000D906E9CFDF91CF9108950895FC0183857C
:100ED0008F3F19F061E00C946504089561E0FC0116
:100EE00084810E9465048091EB0181111092EB01D5
:100EF00008958EBD00000DB407FEFDCF8EB5089598
:100F00008FEF0C9479070F931F93CF93DF93EC012E
:100F10000E9425068B010E9480078F3F69F00E9486
:100F20002506601B710B6C177D07A8F380E0DF912D
:100F3000CF911F910F91089581E0F9CF8CBD9DBD98
:100F40000895CF93DF93EC0188819981892B31F04B
:100F5000EA81FB81808191810E949E078B858F3F72
:100F600029F060E0DF91CF910C946504DF91CF917F
:100F70000895CF92DF92EF92FF920F931F93CF933A
:100F8000DF938C01EB016A0179010E94A10768815E
:100F9000C8010E94ED04E601EC0CFD1C6FEFC801D6
:100FA0000E94ED048993CE15DF05C1F7C8010E94A8
:100FB000660781E0DF91CF911F910F91FF90EF9035
:100FC000DF90CF900895CF93DF93EC018091EB01F8
:100FD000811109C081E08093EB018091E60490913A
:100FE000E7040E949E0760E08C81DF91CF910C9412
:100FF00065048F929F92AF92BF92FF920F931F93BF
:10100000CF93DF93EC01F62E49015A018E8188239C
:1010100089F08F8198859C012F5F3F4F38872F8300
:101020008230924018F40E948007F3CFCE010E94D4
:101030006E071E82CE010E94E3078CE291E00E94BF
:1010400083078F2D80640E94790708E110E0D501A5
:10105000C401002E04C0B695A795979587950A946C
:10106000D2F70E94790708501109083F8FEF18073F
:1010700071F785E9FF2021F028E087E8F2128FEF71
:101080000E94790710E00E9480078A8787FF04C0CA
:101090001F3F11F01F5FF7CFDF91CF911F910F918D
:1010A000FF90BF90AF909F908F900895AF92BF92A6
:1010B000CF92DF92EF92FF920F931F93CF93DF9324
:1010C000EC016901C801820F931F8130924050F5F5
:1010D0008E81882379F088819981AA81BB818417C8
:1010E0009507A607B70731F48F819885C816D906EA
:1010F00008F042C0488359836A837B838B858330A1
:1011000039F089E0440F551F661F771F8A95D1F784
:101110009A01AB0161E1CE010E94F907882389F0B1
:1011200083E08D83CE010E946E0780E0DF91CF9136
:101130001F910F91FF90EF90DF90CF90BF90AF90F5
:1011400008950E9425065B010E9480078A878F3FD1
:1011500069F40E9425066A197B096D327140A0F37B
:101160008FE08D83CE010E946E07DCCF8E3F89F425
:1011700018861F8281E08E838F8198858C159D054E
:1011800050F40E9480078F819885019698878F83FD
:10119000F3CF8DE0E6CF6701E00EF11E0E948007DD
:1011A000F60181936F01EE15FF05C1F78F819885D8
:1011B000080F191F18870F838985882319F00115D7
:1011C0001240A0F08E81882389F08F8198859C0140
:1011D0002F5F3F4F38872F838230924018F40E9450
:1011E0008007F3CFCE010E946E071E8281E09ECF62
:1011F000CF92DF92EF92FF920F93CF93DF93EC01A8
:10120000690182E1411551056105710599F08B85F0
:10121000833039F089E0440F551F661F771F8A9588
:10122000D1F79A01AB0168E1CE010E94F90788234A
:1012300019F084E08D832DC08EEF0E94790776012E
:101240008EEFD81AF70181917F010E947907EC1483
:10125000FD04C1F78FEF0E9479078FEF0E94790795
:101260000E9480078A878F71853071F4011116C042
:10127000CE010E946E0781E0DF91CF910F91FF9028
:10128000EF90DF90CF90089581E18D83CE010E9491
:101290006E07CE010E946E0780E0EECF88E592E0F7
:1012A0000E948307811102C085E1C4CF20E030E0B5
:1012B000A9016DE0CE010E94F907882311F084E1B5
:1012C000B9CF0E9480078111FACFD2CF0F934091FE
:1012D000ED015091EE016091EF017091F001411527
:1012E00051056105710599F0082F23E332E08091E3
:1012F0001002909111020E94F808882349F0109280
:10130000ED011092EE011092EF011092F00181E0D8
:101310000F9108950F93CF93C82F8091EC01811105
:1013200005C0C1E08C2FCF910F910895409100012D
:101330005091010160910201709103010C2F23E390
:1013400032E080911002909111020E94F808811100
:1013500002C0C0E0E7CFCC2321F381E00E94660900
:101360008823B9F31092EC01DDCF8F929F92AF9258
:10137000BF92EF92FF920F931F93CF934B015C01AB
:10138000C42F8091000190910101A0910201B091C0
:10139000030188159905AA05BB0551F181E00E945A
:1013A0008A0981110BC080E0CF911F910F91FF90AE
:1013B000EF90BF90AF909F908F90089583E3E82EB9
:1013C00082E0F82E00E012E030E020E0B501A40158
:1013D00080911002909111020E945608882319F3FF
:1013E0008092000190920101A0920201B09203014B
:1013F0004091EC014C2B4093EC0181E0D5CFCF9391
:10140000DF93EC016E857F858889998941E00E9490
:10141000B509882351F08A8920E2829FC0011124F6
:101420008D5C9D4FDF91CF91089590E080E0FACFE1
:101430004F925F926F927F928F929F92AF92BF92E4
:10144000CF92DF92EF92FF920F931F93CF93DF9390
:10145000EC01423051056105710590F480E0DF91A7
:10146000CF911F910F91FF90EF90DF90CF90BF90A1
:10147000AF909F908F907F906F905F904F90089566
:1014800089859A85AB85BC850196A11DB11D841700
:101490009507A607B70710F3CB88DC88ED88FE8890
:1014A0008F89803109F042C0BB27A72F962F852F47
:1014B000480159012A013B01C80ED91EEA1EFB1E34
:1014C0008091000190910101A0910201B09103016E
:1014D000C816D906EA06FB0699F58F898031C1F551
:1014E000B301A201552766277727440F551F4D5C8E
:1014F0005D4FFA01918280828091EC01816080933E
:10150000EC018A89823080F08D819E81AF81B8851F
:101510008C0D9D1DAE1DBF1D8093ED019093EE01BE
:10152000A093EF01B093F00181E099CFDB01CA01F4
:10153000E7E0B695A79597958795EA95D1F7B8CF47
:1015400040E0C701B6010E94B5098111C6CF86CF20
:10155000B301A2014F77552766277727440F551F00
:10156000440F551F4D5C5D4FFA0180829182A2822B
:10157000B382C2CF8F929F92AF92BF92CF92DF92EF
:10158000EF92FF920F931F93CF93DF93FC0181851E
:101590009285A385B4850196A11DB11D8417950779
:1015A000A607B70770F480E0DF91CF911F910F91EC
:1015B000FF90EF90DF90CF90BF90AF909F908F9073
:1015C000089583889488A588B6888789803189F5AD
:1015D000BB27A72F962F852FE9016A017B018F0179
:1015E000BC01CD01680D791D8A1D9B1D80900001F5
:1015F00090900101A0900201B09003018616970619
:10160000A806B90601F5F8018789803111F5DD24B6
:10161000EE24FF24F601EE0FFF1FED5CFD4F8081ED
:101620009181B0E0A0E088839983AA83BB8381E0A5
:10163000BBCFDB01CA01C7E0B695A7959795879503
:10164000CA95D1F7C9CF40E00E94B5098111DBCF1F
:10165000AACFE894C7F8DD24EE24FF24F601EE0FAC
:10166000FF1FEE0FFF1FED5CFD4F80819181A28176
:10167000B381BF70D8CF4F925F926F927F92AF923B
:10168000BF92CF92DF92EF92FF920F931F93CF936F
:10169000DF9300D000D0CDB7DEB78C0149835A83E9
:1016A0006B837C835901C12CD12C7601412C82E0C3
:1016B000582E612C712C49815A816B817C819E014D
:1016C0002F5F3F4FC8010E94BA0A882339F1F80101
:1016D0008585A301920104C0220F331F441F551FAB
:1016E0008A95D2F7DA01C901C80ED91EEA1EFB1E7F
:1016F00049815A816B817C818789803111F188EF22
:101700009FEFAFEFBFE0481759076A077B0798F2D2
:10171000F501C082D182E282F38281E00F900F90C6
:101720000F900F90DF91CF911F910F91FF90EF904D
:10173000DF90CF90BF90AF907F906F905F904F9071
:10174000089588EF9FEFA0E0B0E0DDCFCF93DF9367
:10175000FC012581222321F080E0DF91CF910895C3
:10176000EC0180910B05803159F582E08583178A61
:10177000108E118E128E80910C0590910D05B0E0A7
:10178000A0E025E0880F991FAA1FBB1F2A95D1F75B
:10179000838B948BA58BB68B84EF94E09C8F8B8F7F
:1017A00081E08C831E821F82188619861A861B860A
:1017B0001C861D861E861F86188A198A1A8ACDCF16
:1017C000803251F683E0858340910E0550910F05DC
:1017D0006091100570911105478B508F618F728F4A
:1017E0009F012D5E3F4F84EF94E00E943B0B8111DF
:1017F000D3CFB2CF8F929F92AF92BF92CF92DF9210
:10180000EF92FF920F931F93CF93DF93EC018D81A3
:1018100081110EC080E0DF91CF911F910F91FF9059
:10182000EF90DF90CF90BF90AF909F908F900895F2
:101830000B891C892D893E89041715072607370750
:1018400048F34A015B01823031F48A869B86AC867C
:10185000BD8681E0E0CF81149104A104B10449F474
:101860001E821F82188619861A861B861C861D8674
:10187000F0CF0A851B852C853D85EB8DFC8D8585FC
:1018800090E00996B901A801415051096109710917
:10189000082E04C076956795579547950A94D2F718
:1018A00075016401E1E0CE1AD108E108F10804C035
:1018B000F694E794D794C7948A95D2F7C416D506C0
:1018C000E606F70620F0012B022B032B11F58F897A
:1018D000988DA98DBA8D8E839F83A887B9878E0135
:1018E0000A5F1F4FC114D104E104F10409F4ADCF24
:1018F0004E815F816885798598018B8D9C8D0E94D2
:10190000BA0A91E0C91AD108E108F1088111EACFB9
:1019100081CFC41AD50AE60AF70AE1CF3F924F9267
:101920005F926F927F928F929F92AF92BF92CF926F
:10193000DF92EF92FF920F931F93CF93DF93CDB778
:10194000DEB72C970FB6F894DEBF0FBECDBF5C019B
:10195000DC015B968D909C905C9716964D905D9007
:101960006D907C901997411451046104710409F43D
:1019700068C0BFEF4B1A5B0A6B0A7B0A312CF4017B
:1019800081859285A385B4859C01AD012F5F3F4F72
:101990004F4F5F4F29873A874B875C8773016201FE
:1019A0001D821E821F821886F40181859285A3857F
:1019B000B4852D813E814F815885281739074A0704
:1019C0005B0708F056C089859A85AB85BC858C1568
:1019D0009D05AE05BF0550F482E0C82ED12CE12C48
:1019E000F12C92E0492E512C612C712C9E012F5F1D
:1019F0003F4FB701A601C4010E94BA0A8823C9F16A
:101A000089819A81AB81BC81892B8A2B8B2B09F12F
:101A1000260137019FEF491A590A690A790A2D816F
:101A20003E814F8158852F5F3F4F4F4F5F4F2D8332
:101A30003E834F8358873FEFC31AD30AE30AF30A62
:101A4000B3CFF4014080518062807380332433949B
:101A500096CFC414D504E604F70409F70FEF1FEF7F
:101A60002FEF3FE0B701A601C4010E94180A8111BF
:101A700019C080E02C960FB6F894DEBF0FBECDBF24
:101A8000DF91CF911F910F91FF90EF90DF90CF905A
:101A9000BF90AF909F908F907F906F905F904F908E
:101AA0003F900895D50116964D915D916D917C9171
:101AB0001997411551056105710539F097018601A6
:101AC000C4010E94180A8823A1F2D5011696CD926E
:101AD000DD92ED92FC921997332051F0D701C601A7
:101AE0000196A11DB11DF40180839183A283B3836C
:101AF000F5018789908DA18DB28D892B8A2B8B2B37
:101B000039F48481C78AD08EE18EF28E8068848316
:101B1000F50184818062848381E0ACCF1F93CF93F1
:101B2000DF93FC012581222371F1162FEC018481C2
:101B300087FF1EC0CF010E94FF09FC01892B19F10C
:101B40008D81823040F48B899C89AD89BE89848FD8
:101B5000958FA68FB78F8F89988D938F828F8F895E
:101B6000988DA98DBA8DB58BA48B8C818F778C8342
:101B7000111103C08C818F7E8C83812FDF91CF91D7
:101B80001F910C948A0980E0DF91CF911F910895F5
:101B9000FF920F931F93CF93DF93EC018D818130E0
:101BA00041F090E080E0DF91CF911F910F91FF9085
:101BB00008958C8181FFF5CF82FD1BC0009110023A
:101BC00010911102C8010E94E3070E948007F82EBD
:101BD000C8010E946E078FEFF812E3CF8C8185FF5A
:101BE0001BC060E0CE010E948E0D8C818F7D8C83A6
:101BF000D8CF4B895C896D897E898A859B85AC8528
:101C0000BD8584179507A607B707C1F2CE010E94CC
:101C1000FA0B8111D3CFC5CF4091ED015091EE0168
:101C20006091EF017091F001452B462B472B21F07D
:101C300080E00E946609B5CF80618C832A853B8550
:101C4000317080E092E0821B930BADCFCF93DF9396
:101C5000EC0161E00E948E0D882311F01D8281E06D
:101C6000DF91CF9108952F923F924F925F926F92A2
:101C70007F928F929F92AF92BF92CF92DF92EF921C
:101C8000FF920F931F93CF93DF9300D000D01F924A
:101C9000CDB7DEB77C015B01342E5D83DC01159688
:101CA0008C911597813009F0CEC014962C9021FEAE
:101CB000CAC022FCB4C0C32CDD8022947FE027225E
:101CC0002094B22DB1702B2ED7011A964D915D91B3
:101CD0006D917C911D97C114D10409F428C15B96C4
:101CE0008D919C915C97FC0174807A948A019B0190
:101CF00069E036952795179507956A95D1F7702273
:101D00008A011170711020C001151105E9F41696B1
:101D10004D915D916D917C9119974115510561052A
:101D2000710509F099C057968D919D910D90BC91C8
:101D3000A02D0097A105B10509F0B0C0C7010E9410
:101D40008E0C882309F47FC080E092E0801B910B09
:101D500046018C159D0508F44C01D7015B964D9109
:101D60005C915C9716968D919D910D90BC91A02DE4
:101D70000297A109B109FA01258504C0880F991FAE
:101D8000AA1FBB1F2A95D2F746855785608971899E
:101D9000840F951FA61FB71F9C01AD01270D311D94
:101DA000411D511D29013A01811432E0930609F0C9
:101DB0007BC08091000190910101A0910201B0913E
:101DC000030184159505A605B70559F48FEF9FEF1C
:101DD000DC018093000190930101A0930201B09374
:101DE0000301022D9501B301A2018091100290918F
:101DF00011020E94F808882331F19EEFB91AC81821
:101E0000D908F70182859385A485B585880D991D2C
:101E1000A11DB11D82879387A487B58755CFF70190
:101E2000438954896589768982859385A485B5859A
:101E3000481759076A077B0709F43DCFC7010E947D
:101E4000FA0B811138CF81E090E0D70113969C9373
:101E50008E93129780E007C09E012F5F3F4F0E9434
:101E6000BA0A811102C090E079C089819A81AB8160
:101E7000BC81F701238D348DF901278948EF5FEF8D
:101E800060E070E0203121F048EF5FEF6FEF7FE01E
:101E900084179507A607B70708F050CFF701868388
:101EA0009783A087B18750CF0115110599F5D70108
:101EB0001A964D915D916D917C911D9753968D91E0
:101EC0009D910D90BC91A02D481759076A077B077B
:101ED00008F181E00E948A09882309F4B4CF409276
:101EE0000001509201016092020170920301809101
:101EF000EC0181608093EC01C8018D5C9D4FD501A0
:101F00009C01280D391DFC012E173F0759F04D91FA
:101F10004193FACF41E0C301B2010E94B50981119A
:101F2000EBCF91CF281B390BA20EB31E68CFF70160
:101F300083899489A589B68984179507A607B70769
:101F400038F48481438B548B658B768B80688483D3
:101F5000F701848183FD1AC0832D9D810F900F901E
:101F60000F900F900F90DF91CF911F910F91FF90E5
:101F7000EF90DF90CF90BF90AF909F908F907F9029
:101F80006F905F904F903F902F90089561E0C70150
:101F90000E948E0D882309F456CFDECFCF93DF93B6
:101FA0001F92CDB7DEB7698341E050E0BE016F5F9D
:101FB0007F4F0E94330E0F90DF91CF910895FC0167
:101FC000DB0112968D919C9113979383828380E21B
:101FD00091E09183808314968C9114978483159655
:101FE0008C911597858316964D915D916D917C919D
:101FF000199746835783608771871A964D915D9133
:102000006D917C911D9742875387648775871E96D3
:102010004D915D916D917C91519746875787608B6B
:10202000718B52968C915297828B53964D915D9104
:102030006D917C915697438B548B658B768B57961D
:102040004D915D916D917C915A97478B508F618F27
:10205000728F5B968D919C91948F838F08950895D4
:10206000FC01818D928D009719F061E00C948E0D2A
:102070000895DC015996ED91FC913097B9F0838970
:102080009489A589B6894285538564857585841BA5
:10209000950BA60BB70B811520E89207A105B1059A
:1020A00038F08FEF9FE7A0E0B0E0089590E080E087
:1020B0000895DC0159968D919C91009739F0DC01CF
:1020C000ED91FC910480F581E02D099490E080E091
:1020D0000895CF93DF93EC01E98DFA8D309749F4A1
:1020E00081E090E09B838A8390E080E0DF91CF9154
:1020F000089513821282898D9A8D0E94330EE98D84
:10210000FA8D22813381232B59F7F0CFCF93DF93C0
:102110001F92CDB7DEB76983DC01ED91FC9102809F
:10212000F381E02D41E050E0BE016F5F7F4F0995E4
:102130000F90DF91CF9108952F923F924F925F922F
:102140006F927F928F929F92AF92BF92CF92DF92C7
:10215000EF92FF920F931F93CF93DF9300D01F92C4
:10216000CDB7DEB7FC018581811118C08FEF9FEFDD
:102170000F900F900F90DF91CF911F910F91FF90D3
:10218000EF90DF90CF90BF90AF909F908F907F9017
:102190006F905F904F903F902F900895848180FFC3
:1021A000E5CF438954896589768982859385A4859D
:1021B000B585312C212C481759076A077B0719F080
:1021C00022242394312C6F012101CE0101963C0180
:1021D000DF011696BB83AA834114510409F4C5C0DC
:1021E000F60142855385648575854A01F1E09F2299
:1021F000D6015B968D919C915C978A019B01E9E0E9
:102200003695279517950795EA95D1F71596EC9190
:10221000E230E9F5FC01628D738D848D958D600F40
:10222000711F821F931FA12C22E0B22EA818B9089B
:102230004A145B0408F45201F601248126FD04C00F
:10224000A114F2E0BF0671F40091000110910101A8
:10225000209102013091030106171707280739075B
:1022600009F05EC040E00E94B509882309F47ECFE2
:10227000C4018D5C9D4FD3019C012A0D3B1DFC01C7
:102280002E173F0709F46CC041914D93F9CFDC0143
:102290001496BC90BA94B0228114910479F4B110D0
:1022A0000DC0452B462B472B69F5F6018789908D8C
:1022B000A18DB28D86839783A087B187D6015B9667
:1022C000ED91FC915C9716966D917D918D919C910D
:1022D00019976250710981099109258504C0660F1B
:1022E000771F881F991F2A95D2F7068517852089A1
:1022F0003189600F711F821F931F6B0D711D811D2E
:10230000911D91CFD60116964D915D916D917C9165
:1023100019972A813B810E94BA0A8111CFCF26CF1B
:10232000730185019401AB01BC0180911002909171
:1023300011020E945608882309F418CF6A0C7B1CEE
:10234000F60182859385A485B5858A0D9B1DA11D07
:10235000B11D82879387A487B5874A185B083CCF55
:10236000281B390B620E731EEBCF2A94232809F029
:10237000FDCE898190E0FCCEFC01818D928D00978D
:1023800011F00C949C108FEF9FEF08950F931F9303
:10239000CF93DF93EC01898D9A8D10E000E00097D8
:1023A00099F00E949C108C010F3F100769F0898DF5
:1023B0009A8DFC014285538564857585415051098C
:1023C000610971090E94FA0BC801DF91CF911F9139
:1023D0000F91089508950895CF93CFB7F894809101
:1023E000EA01811127C0ECE3F8E08491E0E5F8E030
:1023F0009491E82FF0E0EE0FFF1FE25EF74FA591FA
:10240000B491EC91E92321F461E08AE00E94650433
:1024100061E08AE00E94B1048CB580618CBD8CB50E
:1024200080648CBD61E08DE00E94B10461E08BE0CE
:102430000E94B1048091EA018F5F8093EA01CFBFCF
:10244000CF9108952091C701260F3327331F2132E2
:102450003105ECF420917F04FC0190E080E0243011
:1024600069F082E00895A091C7012191AC0149551E
:102470005E4FA40FB52FB11D2C930196861798F3CC
:102480008091C701680F6093C70180E0089581E0E3
:10249000089510927F0481E080937E041092590485
:1024A00061E082E10E94650461E083E10E946504CD
:1024B000E9EBF0E080818E7F808380818D7F808357
:1024C00088E48093B80085E48093BC00089510925E
:1024D000380410923704109286041092A8040E94C7
:1024E000491283E694E0909336048093350484E6A1
:1024F00094E090933404809333040895CF93DF9352
:1025000091E09093A6018823B9F0C091B800D091D2
:10251000BA008091BC008A7B8093BC0060E082E1BD
:102520000E94650460E083E10E9465040E944912F4
:10253000D093BA00C093B800DF91CF9108958F92E5
:102540009F92AF92BF92CF92DF92EF92FF920F9342
:102550001F93CF93DF93D091A804D13208F0D7C056
:10256000182FC091A7040E94CE056B017C018091B9
:102570007F0481116BC082E080937F0410937E04FE
:102580008FEF80937D0410927C04D0937B04A7E8A6
:10259000B4E0EBE5F4E080E0D81391C010925A0467
:1025A00080915A04CC0FC82BC0935A0480915904CF
:1025B000813009F088C0109259040E94CE056B0149
:1025C0007C0180915A048093BB008091810490919A
:1025D0008204A0918304B0918404892B8A2B8B2BD5
:1025E000A1F00E94CE0500918104109182042091F7
:1025F0008304309184046C197D098E099F090617A4
:1026000017072807390708F442C08091BC0083FDF2
:10261000D8CF85EC8093BC000E94CE056B017C0175
:1026200080917F04823009F450C080917D048F3FF7
:1026300009F46FC080917D04803209F46CC08091F0
:102640007D04803309F469C084E026C08091810450
:1026500090918204A0918304B0918404892B8A2BE9
:102660008B2B09F484CF0E94CE058090810490903A
:102670008204A0908304B09084046C197D098E09B3
:102680009F0986169706A806B90608F070CF8091B4
:1026900080040E947E1285E0109286041092A804A5
:1026A00010928504DF91CF911F910F91FF90EF90D1
:1026B000DF90CF90BF90AF909F908F9008959D91A5
:1026C00091938F5F69CF85EEA5CF80918104909122
:1026D0008204A0918304B0918404892B8A2B8B2BD4
:1026E00009F49ECF0E94CE050091810410918204CE
:1026F00020918304309184046C197D098E099F090F
:10270000061717072807390708F08ACFC0CF81E0DE
:10271000C3CF80E0C1CF82E0BFCF83E0BDCF1F93A6
:10272000CF93DF93EA01122FDC0111968D919C91DA
:10273000DC01ED91FC910280F381E02D0995C81731
:10274000D90729F4812F0E949F1291E0811190E016
:10275000892FDF91CF911F910895CF93DF93EC01E3
:102760008B818823A1F0888191E0909385048093E8
:10277000A704109286041092A80481E00E949F1280
:1027800091E0811190E0892FDF91CF9108950E940F
:10279000671281E08B83CE010E94AD13982F8111C7
:1027A000E2CFF1CF8F929F92AF92BF92CF92DF9202
:1027B000EF92FF920F931F93CF93DF93D82FC62FE3
:1027C000142F613208F09CC00E94CE056B017C0181
:1027D00080917F0481116FC081E080937F0410930A
:1027E0007E049FEF90937D0410927C049C0F909345
:1027F0007B0480935A0480915A04DD0FD82BD09328
:102800005A0480915904813009F07CC01092590417
:102810000E94CE056B017C0180915A048093BB001D
:102820008091810490918204A0918304B0918404EA
:10283000892B8A2B8B2BA1F00E94CE05009181045D
:102840001091820420918304309184046C197D09D5
:102850008E099F09061717072807390708F44CC087
:102860008091BC0083FDD8CF85EC8093BC000E9492
:10287000CE056B017C0180917F04813009F444C056
:1028800080917C048C1710F4C0917C04EBE5F4E09B
:10289000A9E3B4E080E08C1359C08C2FDF91CF9175
:1028A0001F910F91FF90EF90DF90CF90BF90AF906E
:1028B0009F908F9008958091810490918204A091BF
:1028C0008304B0918404892B8A2B8B2B09F480CF4D
:1028D0000E94CE058090810490908204A090830491
:1028E000B09084046C197D098E099F09861697069D
:1028F000A806B90608F06CCF809180040E947E1271
:10290000C0E0CBCF85EEB1CF80918104909182045D
:10291000A0918304B0918404892B8A2B8B2B09F41A
:10292000AACF0E94CE0500918104109182042091CB
:102930008304309184046C197D098E099F09061760
:1029400017072807390708F096CFD6CF91919D93A6
:102950008F5FA1CF0895E091380480913704E81784
:1029600030F4F0E0E75CFB4F808190E008958FEF5A
:102970009FEF089590913804809137042FEF3FEF37
:10298000981748F4E92FF0E0E75CFB4F208130E036
:102990009F5F90933804C901089580913704909106
:1029A0003804891B990B0895CF92DF92EF92FF9222
:1029B0000F931F93CF93DF937C01CB018A0120916A
:1029C0008504222389F0EB016B01C40ED51ECC15C2
:1029D000DD0569F06991D701ED91FC910190F081DD
:1029E000E02DC7010995F3CF642F0E942212C80180
:1029F000DF91CF911F910F91FF90EF90DF90CF90DB
:102A00000895CF93DF931F92CDB7DEB769832091EE
:102A100085042223F9F02091A804203258F021E007
:102A200030E0FC013383228390E080E00F90DF915F
:102A3000CF91089580918604E82FF0E0E957FB4F8D
:102A4000998190838F5F809386048093A80481E0AE
:102A500090E0ECCF61E0CE0101960E942212F7CF08
:102A600090E080E00895CF93C62F91E09093850485
:102A700098E69093A704109286041092A804682FF9
:102A80008CE495E00E9401156C2F8CE495E00E9487
:102A9000011581E0CF910C949F120F931F93CF9358
:102AA000DF9300D0CDB7DEB76A83E0915A05F0918D
:102AB0005B053097F9F0898384819581029798F0BE
:102AC000808191E0909385048093A70410928604FE
:102AD0001092A80421E042E050E0BE016F5F7F4FFA
:102AE000CF010E948F130F900F90DF91CF911F9114
:102AF0000F9108958F77898300915C0510915D0592
:102B0000C8010E94A1076981C8010E94ED046A8181
:102B1000C8010E94ED04C8010E946607E4CFCF936C
:102B2000DF93C4E8D5E08770886E8883E3E8F5E03A
:102B3000962F9770990F990F990F8081807C242F81
:102B40002770892B822B808395E0440F551F9A951F
:102B5000E1F787FB882780F9482B660F771F660F00
:102B6000771F642B85EF0E944D158881682F677051
:102B700090E2699FB0011124282F2695269526956D
:102B8000277094E0299F90011124622B82958695ED
:102B900086958370682B84EFDF91CF910C944D154F
:102BA0005F926F927F928F929F92AF92BF92CF92DD
:102BB000DF92EF92FF920F931F93CF93DF93DC018D
:102BC0001496ED91FC911597EF2B09F465C06901FE
:102BD0003A01EC01888191E0909385048093A704E9
:102BE000109286041092A80420E041E050E0CD014C
:102BF0000E948F13582E882309F44EC0F12CE12C2B
:102C00008C819D8186010E191F098017910708F498
:102C10008C0141E0C601801B910BE816F90608F40F
:102C200040E0602F013208F060E288810E94D213F8
:102C300010923804809337048017110669F5430118
:102C40008E0C9F1C5401C5018819990980179107A2
:102C500068F489819A81DC01ED91FC910284F3850D
:102C6000E02D0995F50181935F01EDCFE00EF11E96
:102C7000EC14FD0428F2852DDF91CF911F910F9167
:102C8000FF90EF90DF90CF90BF90AF909F908F908C
:102C90007F906F905F900895512CEDCFCF93DF938D
:102CA00000D0CDB7DEB7E0915A05F0915B0589837E
:102CB00022E030E0AE014F5F5F4FBA01309751F034
:102CC000CF010E94D01589819A810F900F90DF91DA
:102CD000CF91089580915C0590915D050E94B907A0
:102CE000F2CFCF93DF9300D01F92CDB7DEB7FC01B8
:102CF00082819381698323E030E0AE014F5F5F4FB3
:102D0000BA010097A1F00E94D01529816A8170E074
:102D100090E080E0982F872F762F6627822B2B81DB
:102D2000622B0F900F900F90DF91CF9108958481C7
:102D300095810E94B907E9CF8F929F92AF92BF927F
:102D4000CF92DF92EF92FF920F931F93CF93DF9377
:102D5000FC014385548565857685452B462B472B9D
:102D600009F479C0EC016AEF0E9471160B891C8985
:102D700030E020E0C72ED82EE92EFF24E7FCFA949D
:102D8000C01AD10AE20AF30A57E09595879577951C
:102D900067955A95D1F7000F111F221F331F4B0162
:102DA0005C01801A910AA20AB30AA5019401AD89B7
:102DB000BE890E94B02D4B015C01FBE0B594A79445
:102DC00097948794FA95D1F7A7019601C701B601A8
:102DD0000E945F2D9B01AC01ACE05595479537955E
:102DE0002795AA95D1F7AF89B88D0E94B02D9B0188
:102DF000AC01BEE05595479537952795BA95D1F723
:102E0000280D391D4A1D5B1D2F87388B498B5A8B26
:102E1000A5E0B0E00E94A52D60587F4F8F4F9F4FD7
:102E2000672F782F892F992787FD9A950E947F30E9
:102E300020E030E048EC52E40E94D62FDF91CF91A1
:102E40001F910F91FF90EF90DF90CF90BF90AF90C8
:102E50009F908F90089560E070E080EC9FE7EECF48
:102E60002F923F924F925F926F927F928F929F929A
:102E7000AF92BF92CF92DF92EF92FF920F931F9388
:102E8000CF93DF93CDB7DEB76D970FB6F894DEBF63
:102E90000FBECDBF9D8F8C8F0E949C1667EF8C8DCF
:102EA0009D8D0E947116688F798F8A8F9B8FEC8D14
:102EB000FD8D87859089A189B2896C017D01FF0C08
:102EC000CC08DC2C76019C01AD016C2D7C2D8C2D69
:102ED0009C2D345F414051096109710981099109B3
:102EE00029873A874B875C873B014C0159016A016E
:102EF0007B018C010E94B82D322E232E4A8B5B8BD6
:102F00006C8B7D8B8E8B9F8BAC8DBD8D5C963C913D
:102F10005C975B962C91932F990F990B492F592F02
:102F2000692F792F892F0E94B82D0CE00E94E72E7F
:102F3000522E39834D875E876F87788B898B492E18
:102F4000EC8DFD8D368D258D932F990F990BA32C2C
:102F5000B22CCA88DB88EC88FD880E891F89492F2E
:102F6000592F692F792F892F0E94B82D08E00E94D0
:102F7000002FA52CB980CD84DE84EF84F8880989E0
:102F8000142D0E941D2F70588F4F9F4FAC8DBD8DFB
:102F90005996ED91FC915F01D12CC12CE12CF12CC3
:102FA0008701E983BA82CB82DC82ED82FE820F83C5
:102FB0001887C12CD12CE12CF12C00E010E00E94EC
:102FC000B82D01E20E94002F2983532E4D875E8782
:102FD0006F87788B898B492EA0E00E942F2F09F4F0
:102FE0003DC1AC8DBD8D94963C91949793962C9158
:102FF000932F990F990BA32CB22CCA88DB88EC88ED
:10300000FD880E891F89492F592F692F792F892F04
:103010000E94B82D19014A8B5B8B6C8B7D8B8E8B3C
:103020009F8BEC8DFD8D32A121A1932F990F990BD0
:10303000A984BA84CB84DC8473018401492F592F7D
:10304000692F792F892F0E94B82D01E10E94E72E68
:103050005101CA88DB88EC88FD880E891F890E948F
:103060001D2F59016A017B01282E192F488D598D7A
:103070006A8D7B8D84E075956795579547958A9500
:10308000D1F780E090E0A0E1B0E0841B950BA60BA7
:10309000B70B3C014D01990C6608762C43019C014D
:1030A000AD01662D762D862D962D0FE10E94E72E1F
:1030B000722E832E942E652EB62FA72F382E998729
:1030C000EC8DFD8D30A1278D932F990F990B492FF2
:1030D000592F692F792F892F03E20E94E72E022DA5
:1030E0000E941D2F59016A017B018C01272D382D6B
:1030F000492D562D6B2F7A2F832D99850E94262FCF
:10310000E5E3AE2EFCE0BF2EC12CD12CE12CF12C3E
:1031100000E010E00E94B82DA980B52CCD84DE849B
:10312000EF84F8880989142D0E94122E29873A8786
:103130004B875C8769837D878E879F870DE00E9420
:10314000002F922E832E742E652E562E472E382E4B
:10315000292EAC8DBD8D9A963C919A9799962C917B
:10316000932F990F990BA92CB82CC72CD62CE52C92
:10317000F42C032D122D492F592F692F792F892FC8
:103180000E94B82D0E94B82D09E10E94002FA98449
:10319000BA84CB84DC84E980FD840E851F850E947F
:1031A0001D2F19012A013B014C01EC8DFD8D30A52D
:1031B00027A1932F990F990B492F592F692F792FF9
:1031C000892F0E94B82D03E10E94002F59016A0146
:1031D0007B018C019101A201B301C4010E941D2F4A
:1031E00008E00E94002F59016A017B01E82F192F86
:1031F000AC8DBD8D96963C91969795962C91932F7C
:10320000990F990B492F592F692F792F892F04E096
:103210000E94E72E0E2F0E941D2F0E94773020E083
:1032200030E040E85BE30E9482316D960FB6F8947F
:10323000DEBF0FBECDBFDF91CF911F910F91FF90E9
:10324000EF90DF90CF90BF90AF909F908F907F9046
:103250006F905F904F903F902F90089560E070E0E6
:10326000CB01E3CF8F929F92AF92BF92CF92DF922A
:10327000EF92FF920F931F93CF93DF9300D000D074
:10328000CDB7DEB7FC018581813091F080E00F90F1
:103290000F900F900F90DF91CF911F910F91FF90A2
:1032A000EF90DF90CF90BF90AF909F908F90089558
:1032B000848181FFEBCF83899489A589B689892B85
:1032C0008A2B8B2B09F45FC07F0140E050E0BA01EC
:1032D000CF010E94FA0B8823C9F2F701C38CD48C6A
:1032E0008788908CA18CB28C82E090E0A0E0B0E066
:1032F000F60180839183A283B3839E012F5F3F4FAA
:10330000B501A401C6010E94BA0A882309F4BECF00
:1033100000E010E09801B501A401C6010E94180A5E
:10332000882309F4B3CF89809A80AB80BC80F601F2
:103330008789803119F188EF9FEFAFEFBFE08816E2
:103340009906AA06BB06C8F2F701178A108E118EDD
:10335000128E138A148A158A168A8481806884835F
:1033600061E0C7010E948E0D882309F48FCF40E0F1
:1033700050E0BA01C7010E94FA0B89CF88EF9FEF96
:10338000A0E0B0E0DCCF81E082CFCF92DF92EF927D
:10339000FF921F93CF93DF93EC0180E2689FF001CF
:1033A0001124ED5CFD4F9385917161F0842F82743F
:1033B00049F080E0DF91CF911F91FF90EF90DF9077
:1033C000CF900895142F6A8B809100019091010194
:1033D000A0910201B09103018E879F87A88BB98BC2
:1033E000C488D588F12CE12C7601DD24CC24CF8A49
:1033F000D88EE98EFA8E828D938DB0E0A0E0AC017C
:10340000BD014C295D296E297F294F8B588F698F0B
:103410007A8F83858871B1F4848D958DA68DB78D53
:103420008B8B9C8BAD8BBE8B81E08D831F701C833F
:103430001E821F82188619861A861B861C861D8688
:1034400081E0B8CF803109F0B4CF9E012D5E3F4FAF
:103450008B8D9C8D0E943B0B882309F4AACF84E0BE
:10346000E4CF0C9415340C941534CF93C0913202F0
:10347000CC23B1F080914A0590914B05009761F003
:103480000E94260E80914A0590914B050E941534AA
:1034900010924B0510924A051092320210921202BD
:1034A0008C2FCF910895FB0101900020E9F731970F
:1034B000AF01461B570BDC01ED91FC910280F381BB
:1034C000E02D09948F929F92AF92BF92EF92FF925C
:1034D0000F931F93CF93DF93CDB7DEB7A1970FB6AE
:1034E000F894DEBF0FBECDBF7C01FA01CB0119A25B
:1034F000223008F42AE08E010F5D1F4F822E912C9E
:10350000B12CA12CBF01A50194010E94832DF901CA
:10351000CA016A300CF5605DD8016E938D01232BD2
:10352000242B252B79F790E080E0109721F0BD0146
:10353000C7010E94531AA1960FB6F894DEBF0FBEC2
:10354000CDBFDF91CF911F910F91FF90EF90BF9072
:10355000AF909F908F900895695CDECF462F50E02A
:1035600070E060E02AE00C94621A2F923F924F9232
:103570005F926F927F928F929F92AF92BF92CF9203
:10358000DF92EF92FF921F93CF93DF93EC016A01DA
:103590007B01722EAB019601CB01B6010E943F3236
:1035A00068E671E0811126C046015701E894B7F83A
:1035B0002FEF3FEF4FE75FE7C501B4010E943F32B5
:1035C00081110CC02FEF3FEF4FE75FE7C501B4015A
:1035D0000E94D12F6CE671E0181664F02FEF3FEFD8
:1035E0004FE75FE4C701B6010E947D311816B4F4BD
:1035F00060E771E0CE01DF91CF911F91FF90EF90D6
:10360000DF90CF90BF90AF909F908F907F906F9002
:103610005F904F903F902F900C94531A2FEF3FEFF5
:103620004FE75FECC701B6010E94D12F87FDE0CFC5
:1036300020E030E0A901C701B6010E94D12F312C52
:10364000212C87FF09C06DE2CE010E9431061C01CA
:10365000F7FAF094F7F8F09410E060E070E080E0A2
:103660009FE3711641F020E030E040E251E40E9417
:10367000D62F1F5FF6CFA70196010E94652F2B0161
:103680003C010E9448304B015C012AE0BC01A401CE
:10369000CE010E94621A7C01E20CF31C1123C1F1DD
:1036A000C501B4010E947D309B01AC01C301B20190
:1036B0000E94642F4B015C016EE2CE010E94310634
:1036C000E80EF91E115020F120E030E040E251E414
:1036D000C501B4010E9482312B013C010E94483097
:1036E0004B01B12CA12C2AE0B501A401CE010E940E
:1036F000621AE80EF91EC501B4010E947D309B01DB
:10370000AC01C301B2010E94642F4B015C01DACF0E
:10371000C701DF91CF911F91FF90EF90DF90CF9085
:10372000BF90AF909F908F907F906F905F904F90E1
:103730003F902F90089564E771E00C94531ACF9353
:10374000DF93682F89EA94E00E94AE1AEC0189EABF
:1037500094E00E949B1B8C0F9D1FDF91CF910895D9
:103760000F931F93CF93DF93EC010E9438068C01D7
:10377000CE010E949B1B800F911FDF91CF911F9163
:103780000F910895CF92DF92EF92FF920F931F93C4
:10379000CF93DF93EC0111E01093850488E68093CA
:1037A000A704109286041092A80463E08CE495E0CC
:1037B0000E94011581E00E949F12082F8823D1F0FA
:1037C0001F8261E471E089EA94E00E943806802F4C
:1037D0000E949F1B64E071E089EA94E00E94B01BA4
:1037E00080E0DF91CF911F910F91FF90EF90DF90DC
:1037F000CF90089541E067E088E60E94D213082F39
:103800001092380480933704873058F41F826AEE90
:1038100070E089EA94E00E943806802F0E949F1B86
:10382000DFCF8CE495E00E94BA14C82E8CE495E0BA
:103830000E94BA14D82E8CE495E00E94BA14E82EA7
:103840008CE495E00E94BA14F82E8CE495E00E9476
:10385000BA148CE495E00E94BA14082F8CE495E029
:103860000E94BA144C2D4F77242F30E054E0359548
:1038700027955A95E1F7322F330F330FA22FA31B51
:10388000AA0FA40FAE834D2D4F77242F30E064E0B4
:10389000359527956A95E1F7322F330F330FF22FC5
:1038A000F31BFF0FF40FFD834E2D4F73242F30E0D9
:1038B00074E0359527957A95E1F7322F330F330F62
:1038C000E22FE31BEE0FE40FEC832F2D2F73622FFB
:1038D00070E0B4E075956795BA95E1F7362F330F30
:1038E000330F631B660F620F6B830F71402F50E025
:1038F00024E0559547952A95E1F7242F220F220FB2
:10390000421B440F400F4A839C0154E03595279594
:103910005A95E1F72F703327922F990F990F291B92
:10392000220F280F30E02053384F39832883AC33DF
:1039300050F4FC3340F4E83130F461506F3118F446
:1039400041504C3010F01F824BCF1F8381E049CF94
:103950003F924F925F926F927F928F929F92AF921F
:10396000BF92CF92DF92EF92FF920F931F93CF936C
:10397000DF93CDB7DEB72B970FB6F894DEBF0FBE3F
:10398000CDBF7C01FE013196CE010C966F0130E275
:1039900031938E179F07E1F7DA0130E087E09D91C0
:1039A000B92E992309F43CC09E32F1F48A30C9F44F
:1039B00080E02B960FB6F894DEBF0FBECDBFDF912F
:1039C000CF911F910F91FF90EF90DF90CF90BF901C
:1039D000AF909F908F907F906F905F904F903F90AF
:1039E000089538E08AE0DBCFE4E5F1E04491442338
:1039F00021F031969413FACFDBCF8317C8F24FED45
:103A0000490F4E35A8F64FE9490F4A3118F440EEF8
:103A1000B42EB90EF601E30FF11DB0823F5FBFCFA8
:103A20008981803229F2322E8B01DB015B968D91E8
:103A30009C915C97F701948F838F16961D921D922F
:103A40001D921C921997FB01128613861486158607
:103A5000F80182859385A485B58543895489658954
:103A6000768984179507A607B70708F04DC025E0AB
:103A7000B695A795979587952A95D1F7F82FFF705A
:103A8000AF2ED80115968C91823008F491CFC801E1
:103A90000E949C1097FD8CCFF80182859385A485A8
:103AA000B5854F96A11DB11D82879387A487B587E1
:103AB000F0E2AF9EB00111246D5C7D4F6115710580
:103AC00009F476CFDB018C91882341F0853E09F023
:103AD00058C0BB2029F0BB24B394BACFB1100EC09C
:103AE000F701A28A8091000190910101A091020149
:103AF000B091030186879787A08BB18BDB018C91F6
:103B00008111E9CFBB24B394832D8271823109F0F6
:103B10004FCFBB2009F443C0C7010E94FF090097A3
:103B200009F446CF20E2FC0111922A95E9F72BE037
:103B3000F601DC0101900D922A95E1F721E238E2CD
:103B4000DC0151963C932E93509740E058E01F962D
:103B50005C934E931E9753963C932E93529759968F
:103B60003C932E93589757965C934E93569781E0CB
:103B70000E948A09882309F41BCF432DF70162892B
:103B80000AC04BE050E0C6010E949E34892B09F028
:103B90005FCF432D6A2DC7010E94C5190ACFF801D6
:103BA0008581823009F404CFC8010E948E0C8823DD
:103BB00009F4FECED8015B96ED91FC915C971696C8
:103BC0008D909D90AD90BC901997B2E08B1A9108A2
:103BD000A108B108858504C0880C991CAA1CBB1CCF
:103BE0008A95D2F786859785A089B189880E991E16
:103BF000AA1EBB1E848124013501480E511C611C84
:103C0000711C481459046A047B0409F1E1E04E1A5E
:103C100051086108710881E00E948A09882309F42B
:103C2000C7CEE3E3F2E0119283E394E08E179F079F
:103C3000D1F740920001509201016092020170920E
:103C400003018091EC0181608093EC01DACFD8010F
:103C50005B96ED91FC91258580E092E0A0E0B0E0DC
:103C600004C0880F991FAA1FBB1F2A95D2F7F8011D
:103C70004389548965897689840F951FA61FB71FCC
:103C8000838B948BA58BB68BD70152961C9283E3C2
:103C900092E048CFBF92CF92DF92EF92FF920F93C4
:103CA0001F93CF93DF93CDB7DEB7C456D1090FB6BC
:103CB000F894DEBF0FBECDBF80913202882349F059
:103CC00067E771E082E192E00E94AB34892B09F44E
:103CD0006FC01EAE1DAE80E291E09CAF8BAF21960F
:103CE0001FAE219719A218A29F8F8E8F1BA2C12CE5
:103CF000B12C7E018BE3E80EF11C02E115E08C2D66
:103D00009B2DFC01E958FE4F20812F3209F40196CA
:103D1000DC01A958BE4FFE01E85AFF4F30E020E019
:103D2000AF016D916F3249F0662339F001962F5F34
:103D30003F4F61932C303105A1F7240F351FF90156
:103D40001082FC01E958FE4F20812F3209F40196C0
:103D5000C82EB92E89589E4FFC01808181112AC03E
:103D60001C821B8280E291E09A8389831E8222E07A
:103D7000B801CE0101960E94A81C8823A9F0CE01AB
:103D800001960E943219882379F0CE0101960E9493
:103D9000FF09009749F025EEFC0120831E8281E097
:103DA0000E948A0981111AC0F5E002311F07F1F55E
:103DB00080E01CC0F7018581811134C021E0B80189
:103DC000C7010E94A81CD82E85E002311807F9F01F
:103DD000C8010E94260ED1101FC0EACFF5E00231C3
:103DE0001F0719F0C8010E94260E81E0CC59DF4F51
:103DF0000FB6F894DEBF0FBECDBFDF91CF911F91FC
:103E00000F91FF90EF90DF90CF90BF900895DD204D
:103E100079F28E01025E1F4F902F812F8701E92ECC
:103E2000F82E6DCF85E00231180711F2C8010E940B
:103E3000260EBECF0F931F93CF93DF938C01EB0120
:103E4000FB01349680E2DF011D928A95E9F784E256
:103E500090E0A0E0B0E088839983AA83BB83F80157
:103E600082819381092E000CAA0BBB0B8C839D834E
:103E7000AE83BF8386E090E0A0E0B0E088879987BA
:103E8000AA87BB870E942506688B798B8A8B9B8BC0
:103E9000D80114968D919C91FC01438554856585CC
:103EA0007685452B462B472B91F00E94301720E05A
:103EB00030E048EC52E40E94D62F6C8B7D8B8E8BC9
:103EC0009F8B81E0DF91CF911F910F91089560E06A
:103ED00070E080EC9FE7EBCF0F931F93CF93DF93BE
:103EE0008C01EB0188E2FB0111928A95E9F74BE026
:103EF00050E060E871E0CE010E94B4341B8681E09E
:103F000090E0A0E0B0E08C879D87AE87BF87F80186
:103F100082819381092E000CAA0BBB0B888B998B95
:103F2000AA8BBB8B86E090E0A0E0B0E08C8B9D8BF1
:103F3000AE8BBF8B1CA21DA21EA21FA280E090E030
:103F4000A6E9B3E48C8F9D8FAE8FBF8F80E090E8A1
:103F5000A9E8B4E4888F998FAA8FBB8F86EA9BE982
:103F6000A4E4BCE388A399A3AAA3BBA3DF91CF9148
:103F70001F910F9108950F931F93CF93DF938C019F
:103F8000EB01FB01349680E2DF011D928A95E9F78F
:103F900084E290E0A0E0B0E088839983AA83BB83A9
:103FA000F80182819381092E000CAA0BBB0B8C8334
:103FB0009D83AE83BF838DE090E0A0E0B0E0888772
:103FC0009987AA87BB870E942506688B798B8A8B85
:103FD0009B8BD80114968D919C910E949C166C8BA2
:103FE0007D8B8E8B9F8B81E0DF91CF911F910F9105
:103FF00008950F931F93CF93DF938C01EB0188E219
:10400000FB0111928A95E9F74BE050E060E871E01E
:10401000CE010E94B4341B8681E090E0A0E0B0E0C5
:104020008C879D87AE87BF87F80182819381092E97
:10403000000CAA0BBB0B888B998BAA8BBB8B8DE0DA
:1040400090E0A0E0B0E08C8B9D8BAE8BBF8B1CA270
:104050001DA21EA21FA280E090E0A0E2B2EC8C8F15
:104060009D8FAE8FBF8F80E090E0AAEAB2E4888F88
:10407000998FAA8FBB8F8AE097EDA3E2BCE388A358
:1040800099A3AAA3BBA3DF91CF911F910F9108958C
:10409000EF92FF920F931F93CF93DF93EC017B017D
:1040A0008A011B821A8288EE93E0A0E0B0E08C8344
:1040B0009D83AE83BF838EE391E0998388838DE1F6
:1040C00090E00E9479339A8F898F009779F02DE1E3
:1040D000F701DC0101900D922A95E1F74CE050E0E8
:1040E000B801CE010C960E94B434188EDF91CF91A6
:1040F0001F910F91FF90EF90089585ED8093BC0084
:104100008091810490918204A0918304B0918404F1
:104110000796A11DB11D23E0B695A79597958795A4
:104120002A95D1F72091BC0024FD03C010927F0492
:1041300008954091810450918204609183047091AC
:104140008404452B462B472B69F30097A105B10545
:1041500041F02AE22A95F1F700C00197A109B109BF
:10416000E1CF809180040C947E121F920F920FB6C3
:104170000F9211242F933F938F939F93AF93BF93ED
:104180008091080290910902A0910A02B0910B025D
:104190003091070223E0230F2D3758F50196A11D1A
:1041A000B11D209307028093080290930902A09307
:1041B0000A02B0930B0280910C0290910D02A09123
:1041C0000E02B0910F020196A11DB11D80930C0249
:1041D00090930D02A0930E02B0930F02BF91AF9186
:1041E0009F918F913F912F910F900FBE0F901F9035
:1041F000189526E8230F0296A11DB11DD2CF1F925C
:104200000F920FB60F9211242F933F934F935F930A
:104210006F937F938F939F93AF93BF93EF93FF938E
:1042200089EA94E00E94D906FF91EF91BF91AF9186
:104230009F918F917F916F915F914F913F912F91BE
:104240000F900FBE0F901F9018951F920F920FB6F0
:104250000F9211242F938F939F93EF93FF93E091ED
:10426000B904F091BA048081E091BF04F091C004D8
:1042700082FD1BC090818091C2048F5F8F7020915E
:10428000C304821741F0E091C204F0E0E755FB4F10
:10429000958F8093C204FF91EF919F918F912F9101
:1042A0000F900FBE0F901F9018958081F4CF1F9232
:1042B0000F920FB60F9211242F933F934F935F935A
:1042C0006F937F938F939F93AF93BF93EF93FF93DE
:1042D0008091B900887F803609F44AC0F0F58832B1
:1042E00009F4A7C018F5803109F49BC0B8F48823FD
:1042F00009F4F9C0883009F494C0FF91EF91BF919F
:10430000AF919F918F917F916F915F914F913F916D
:104310002F910F900FBE0F901F901895883109F4C0
:1043200088C0803251F780937D0414C0803409F432
:104330009DC040F48033B9F38833F9F680937D044F
:1043400085ECB0C0803509F485C0883509F496C085
:10435000883499F60E947D20D0CF883909F48CC02A
:1043600038F5883729F050F4883611F0803729F66F
:1043700083E080937F041092E90157C0883809F4E4
:104380007BC0803919F0803809F0B7CF8091E901FE
:10439000803208F071C0E091E90181E08E0F8093D6
:1043A000E9018091BB00F0E0E753FE4F80833DC000
:1043B000803B39F0E0F4803A09F479C0883A09F09A
:1043C0009CCF84E080937F041092C8011092C701B3
:1043D000E0913504F091360409958091C70181116F
:1043E0000FC081E08093C7011092A70109C0803CF3
:1043F00009F4A6CF883C09F4A3CF883B09F07DCF10
:10440000E091C80181E08E0F8093C801F0E0E9558A
:10441000FE4F80818093BB009091C8018091C701BD
:1044200029C080915A048093BB0085EC8093BC0026
:1044300064CF90917C0480917B04981758F5E091AB
:104440007C0481E08E0F80937C04F0E0E55AFB4F02
:104450008081E9CFE0917C0481E08E0F80937C0421
:104460008091BB00F0E0E55AFB4F808390917C0483
:1044700080917B049817C8F285E8D8CFE0917C043E
:1044800081E08E0F80937C048091BB00F0E0E55AC0
:10449000FB4F808380917E0481115CCF81E080930B
:1044A000590484EA8093BC0010927F0426CF85ECE7
:1044B0008093BC0010927F048091E901803230F437
:1044C000E091E901F0E0E753FE4F10826091E901CD
:1044D00070E0E0913304F091340489EC91E00995A7
:1044E0001092E9010ACF10927D0434CF8F929F92EF
:1044F000AF92BF92CF92DF92EF92FF92CF9328EECE
:1045000034E03093110220931002882309F46DC027
:1045100040E060E070E0CB010E94B50981110BC062
:1045200080E0CF91FF90EF90DF90CF90BF90AF9061
:104530009F908F9008958091F1038F7789F78091F4
:10454000FD039091FE03A091FF03B0910004843617
:104550009105A105B10520F3C090F903D090FA03AD
:10456000E090FB03F090FC03C114D104E104F104DA
:10457000B9F240E0C701B6010E94B509882381F273
:1045800080913E0290913F028115924049F6A091A0
:104590004302AA2329F260914102709142026115FF
:1045A000710509F4BDCF20914002222309F4B8CF50
:1045B000A09306052093F80490E080E030E0E1E06D
:1045C000F0E0C82FAF01082E02C0440F551F0A9417
:1045D000E2F72417350769F041E0480F019689306A
:1045E000910579F7409301059BCFC12CD12C760121
:1045F000C0CF809301052091490230914A0250E0DA
:1046000040E02115310541F42091570230915802C4
:104610004091590250915A022093F9043093FA04C0
:104620004093FB045093FC0446015701860E971EED
:10463000A11CB11C8092070590920805A092090563
:10464000B0920A05E0914402F0914502F0930D0505
:10465000E0930C05B0E00E94A52DDC01CB01880D94
:10466000991DAA1DBB1D80930E0590930F05A09365
:104670001005B093110525E0EE0FFF1F2A95E1F715
:10468000E150FE4FEF2FFF27E6958E0F9F1FA11DD4
:10469000B11D8093020590930305A0930405B09388
:1046A00005058090460290904702B12CA12C811400
:1046B000910441F48090530290905402A0905502CE
:1046C000B0905602C81AD90AEA0AFB0AC80CD91CCB
:1046D000EA1CFB1C04C0F694E794D794C794CA95CF
:1046E000D2F7C092FD04D092FE04E092FF04F09253
:1046F000000585EFC8168FE0D806E104F10428F420
:104700008CE080930B0581E00CCF80E125EFC21691
:104710002FEFD206E104F104A0F380915F029091A3
:104720006002A0916102B091620280930E059093A5
:104730000F05A0931005B093110580E2E2CFCF934F
:10474000DF93E9EAF4E01382128248EE53E060E07E
:1047500070E044835583668377838EE091E0918394
:10476000808385EC90E09587848784EC90E0978740
:10477000868780EC90E0918B808B81EC90E0938B2E
:10478000828B82EC90E0958B848B86EC90E0978B0B
:10479000868B118E128E138E148EE6EEF4E080E579
:1047A00080831182E8EEF4E015821682118613866A
:1047B00082E090E0A0E0B0E084879587A687B78785
:1047C00013A215A614A680E291E093A782A717A6CC
:1047D000ACE4B5E013961C921E92129714964D937A
:1047E0005D936D937C9317978CE291E011969C9367
:1047F0008E93E1E3F5E0138212824483558366834E
:1048000077838EE391E091838083128E118E1486DC
:10481000C8E5D5E01B821A821D821C821B861C867D
:104820001D861E861BA61CA6B983A88386E090E081
:104830000E947933FC018EE591E09183808388E1C9
:1048400091E093838283D583C483FF83EE8386E0E4
:1048500090E00E947933FC0180E591E091838083B0
:1048600013821282D583C483F987E887DF91CF91C1
:104870000895CF93DF93CDB7DEB7C45AD1090FB6F1
:10488000F894DEBF0FBECDBF789484B5826084BD3E
:1048900084B5816084BD85B5826085BD85B5816044
:1048A00085BD80916E00816080936E0010928100C2
:1048B000809181008260809381008091810081607D
:1048C000809381008091800081608093800080913E
:1048D000B10084608093B1008091B00081608093CA
:1048E000B00080917A00846080937A0080917A0091
:1048F000826080937A0080917A00816080937A0050
:1049000080917A00806880937A001092C100E091D3
:10491000B904F091BA0482E08083E091B504F0918B
:10492000B6041082E091B704F091B80480E180836E
:104930001092C104E091BD04F091BE0486E0808332
:10494000E091BB04F091BC04808180618083E091A0
:10495000BB04F091BC04808188608083E091BB043B
:10496000F091BC04808180688083E091BB04F09169
:10497000BC0480818F7D80836DEC74E089EA94E0D3
:104980000E94B01B0E94EC1169EB74E089EA94E08C
:104990000E94B01B0E94671211E01093850488E604
:1049A0008093A704109286041092A80481E00E94CC
:1049B0009F12882369F069EA74E089EA94E00E9412
:1049C000B01B68EE73E080E090E00E94F305F9CF41
:1049D00010938504109286041092A80460E08CE481
:1049E00095E00E94011581E00E949F1241E061E084
:1049F00088E60E94D21310923804809337048CE426
:104A000095E00E94BA1485FF0BC0682F6F7D80E08F
:104A10000E9433156AE070E080E090E00E94F305A8
:104A20006EE974E089EA94E00E94B01B9E012F5F5A
:104A30003F4F1901C9010E94C21B882309F4E6C037
:104A40006BE874E089EA94E00E94380649815A8153
:104A500070E060E02AE089EA94E00E94621A69E866
:104A600074E089EA94E00E9438066B8189EA94E058
:104A70000E94AE1A67E874E089EA94E00E94380662
:104A80006C8189EA94E00E94AE1A65E874E089EAD4
:104A900094E00E9438066D8189EA94E00E94AE1A83
:104AA00063E874E089EA94E00E9438066E8189EA3E
:104AB00094E00E94AE1A61E874E089EA94E00E94F2
:104AC00038068F810E949F1B89819A81883E97407A
:104AD00008F47BC08D818C3021F48E81853008F400
:104AE00074C064E574E089EA94E00E94B01B61E15F
:104AF00072E089EA94E00E94B01B00915C0510917D
:104B00005D050115110509F0A2C080915A0590912B
:104B10005B05009711F00E94153486E090E00E943A
:104B200079338C01809158059091590527E7D80178
:104B30002C9312969C938E93119713961C92139715
:104B400080E290E015969C938E93149710935B05EA
:104B500000935A050E94671281E0F8018383C8011F
:104B60000E94AD1381118BC06BEA71E089EA94E079
:104B70000E94B01B6DE971E089EA94E00E94B01BCD
:104B800061E971E089EA94E00E94B01B65E871E098
:104B900089EA94E00E94B01B61E771E089EA94E041
:104BA0000E94B01B64E671E089EA94E00E94B01BA9
:104BB0006CE973E089EA94E00E94B01B68EE73E050
:104BC00080E090E00E94F305F9CF61E274E089EAA9
:104BD00094E00E94B01B60E283E00E94331568E01D
:104BE00084E00E94331561E285E00E94331564E1A0
:104BF00086E00E94331560E188E00E94331565E28B
:104C000089E00E94331562E074E06DCF61ED73E0DE
:104C100089EA94E00E94B01B60E083E00E943315B3
:104C200067E084E00E94331561E285E00E9433155D
:104C300064E186E00E94331560E188E00E9433154C
:104C400065E289E00E94331562EB73E04CCFD80136
:104C50001B968C918F3F41F061E00E94B10461E0AE
:104C6000F80183850E946504D8018D919C91892B60
:104C700009F438C10E94EC1181E0F801838F809122
:104C80005A0590915B05009709F457C120ED29A3BF
:104C900021E030E0AE014F5D5F4FBA010E94D015B8
:104CA00089A190E0B0E0A0E0809363059093640553
:104CB000A0936505B093660588359105A105B105FA
:104CC00009F052CF88E80E944E1690936C058093AD
:104CD0006B058AE80E944E1690936E0580936D05D1
:104CE0008CE80E944E169093700580936F058EE8B5
:104CF0000E944E16909372058093710580E90E9480
:104D00004E16909374058093730582E90E944E16A7
:104D1000909376058093750584E90E944E169093D2
:104D200078058093770586E90E944E1690937A0560
:104D30008093790588E90E944E1690937C058093B4
:104D40007B058AE90E944E1690937E0580937D052F
:104D50008CE90E944E169093800580937F058EE922
:104D60000E944E1690938205809381058091630581
:104D700090916405A0916505B0916605892B8A2BF9
:104D80008B2B41F050E040E070E060E085E090E087
:104D90000E948F1564E670E080E090E00E94F305C9
:104DA0006CEE71E089EA94E00E94B01B809163058B
:104DB00090916405A0916505B0916605892B8A2BB9
:104DC0008B2B41F044E050E064E070E082E090E042
:104DD0000E948F1564ED71E089EA94E00E94B01B97
:104DE0006BE873E089EA94E00E94B01B6BE672E026
:104DF00089EA94E00E9438062AE049E050E060E049
:104E000070E089EA94E00E94621A89EA94E00E94C4
:104E10009B1B80911705882321F082E195E00E9479
:104E2000260E1092F3041092F1041092EE041092E8
:104E3000ED0489E08093EC040E9425068B0161E07B
:104E40008091EC040E94B10461E08091EC040E9426
:104E500065040E94EC1182E58093E6041092E70459
:104E60008091E6049091E7040E949E073AE0F32EB9
:104E70008FEF0E947907FA94F110FACF88EE94E050
:104E80000E94E30720E030E0A90160E088EE94E0B2
:104E90000E94F907F82E8093F204F1E08F1709F4CD
:104EA0005BC00E942506601B710B613D774050F38B
:104EB00081E08093ED0488EE94E00E946E0761E546
:104EC00072E089EA94E00E94B01B67E773E089EA28
:104ED00094E00E94B01B68EE73E080E090E00E94D6
:104EE000F305F9CF61E0F80184850E94B104D8018F
:104EF0001A968C911A978B7FE1F460E01C968C9146
:104F00000E946504D8011D968C918F3F41F061E0AD
:104F10000E94B10461E0F80185850E946504D80112
:104F20001E968C918F3F09F4A7CE60E00E94B104D9
:104F3000A3CE61E0F8018485E3CF80ED89A321E071
:104F400030E0AE014F5D5F4FBA0180915C059091FA
:104F50005D050E94B907A4CE2AEA31E040E050E0A6
:104F600068E088EE94E00E94F90782FF2AC0F09280
:104F7000F3048091F304C12CD12C7601823029F402
:104F8000C12CD12CE12C90E4F92E20E030E0A901D5
:104F900067E388EE94E00E94F907A701960169E2B1
:104FA00088EE94E00E94F9078093F2048823D1F000
:104FB0000E942506601B710B613D774030F388E04D
:104FC00078CF24E0F22E0E9480078093F204FA94B6
:104FD000F110F9CF8A3A11F082E06BCF82E0809332
:104FE000F304C7CF8091F3048230D1F420E030E0A5
:104FF000A9016AE388EE94E00E94F907882311F082
:1050000086E057CF0E948007807C803C19F483E0C3
:105010008093F3040E9480070E9480070E9480070B
:1050200088EE94E00E946E0780E58093E60410927B
:10503000E70481E00E947622882309F45FC282E1BE
:1050400095E00E94A60B882309F439CF63E372E050
:1050500089EA94E00E94B01B68E673E089EA94E074
:105060000E94B01B6DE373E089EA94E00E94B01BDC
:105070006CE073E089EA94E00E94B01B6AEC72E095
:1050800089EA94E00E94B01B69E872E089EA94E042
:105090000E94B01BCE01C196C556DF4F998388830D
:1050A000CB59D040CE018D569F4F0E94C21B66E067
:1050B00078E0882309F440C2C756DF4F8881C95978
:1050C000D0401F928F93C856DF4F8881C859D04077
:1050D0001F928F93C956DF4F8881C759D0401F92C6
:1050E0008F93CA56DF4F8881C659D0401F928F9345
:1050F000CB56DF4F8881C559D0401F928F93CC5635
:10510000DF4F8881C459D0408F93CD56DF4F8881BF
:10511000C359D0408F93A7E8B1E0BF93AF931F92DC
:1051200080E28F933F922F920E94C33488E595E0EE
:105130000E949C162B013C010FB6F894DEBF0FBEF7
:10514000CDBF8091630590916405A0916505B091F4
:105150006605892B8A2B8B2B09F4D7C188E595E04E
:105160000E94301720E030E048EC52E40E94D62F35
:105170006B017C01A3019201C301B2010E943F3285
:10518000811131C0A7019601C701B6010E943F32CB
:10519000811129C020E030E040E252ECC301B201AD
:1051A0000E94D12F87FD1FC020E030E04AEA52E480
:1051B000C301B2010E947D311816ACF020E030E04E
:1051C00046E953E4C701B6010E94D12F87FD0BC009
:1051D00020E030E849E854E4C701B6010E947D317F
:1051E00018160CF05FC06AE070E080E090E00E946A
:1051F000F30588E595E00E949C162B013C01809107
:10520000630590916405A0916505B0916605892BB1
:105210008A2B8B2B09F47EC188E595E00E9430171C
:1052200020E030E048EC52E40E94D62F6B017C0174
:10523000A3019201C301B2010E943F3281116FC1EB
:10524000A7019601C701B6010E943F32811167C1D3
:1052500020E030E040E252ECC301B2010E94D12FC5
:1052600087FD5DC120E030E04AEA52E4C301B201AB
:105270000E947D3118160CF452C120E030E046E95E
:1052800053E4C701B6010E94D12F87FD48C120E039
:1052900030E849E854E4C701B6010E947D31181690
:1052A0000CF43DC120E030E54DE754E4C701B60100
:1052B0000E94D62F21E03EED42E45EE30E94EF31F2
:1052C0004B015C0180910502909106029C012F5FC9
:1052D0003F4F309306022093050265E070E00E9484
:1052E0006F2D8C01000F111F000F111F0F501E4F4B
:1052F000A501940160E070E080E89FE30E94642FC4
:1053000020E03AE24DE257E40E948231D8016D93E9
:105310007D938D939C93139784E1E1EFF1E0DE019F
:10532000919601900D928A95E1F78E010F5D1F4FC6
:10533000C156DF4F0883CF59D040C056DF4F188386
:10534000C05AD040C356DF4F19830883CD59D0408F
:10535000C356DF4FA881B981CD59D04014968D91A5
:105360009D910D90BC91A02DCF55DF4F88839983DF
:10537000AA83BB83C15AD040F80180809180A2806B
:10538000B380A5019401BC01CD010E94D12F87FFFC
:1053900019C0CF55DF4F88819981AA81BB81C15A3D
:1053A000D040F80180839183A283B383C356DF4F3B
:1053B000A881B981CD59D04014968D929D92AD921D
:1053C000BC921797C356DF4FE881F981CD59D04081
:1053D0003496C356DF4FF983E883CD59D040C55684
:1053E000DF4F28813981CB59D0402E173F0709F074
:1053F000AFCF0C5F1F4FC556DF4FE881F981CB5906
:10540000D0400E171F0709F09DCF89A49AA4ABA422
:10541000BCA464EE77E089EA94E00E943806B1010A
:1054200089EA94E00E94531A61EE77E089EA94E0F9
:105430000E94380622E0B301A20189EA94E00E94AA
:10544000B51A6EED77E089EA94E00E94380622E012
:10545000B701A60189EA94E00E94B51A6BED77E0E6
:1054600089EA94E00E94380622E0B501A40189EAA5
:1054700094E00E94B51A89EA94E00E949B1B8091F7
:105480003202811170C065E375E089EA94E00E9400
:10549000B01B6BEB77E089EA94E00E94B01B89EACD
:1054A00094E00E94BA06892B09F44AC089EA94E084
:1054B0000E949806182F89EA94E00E949B1B1C34D6
:1054C00009F476C10CF035C11D3009F485C10CF02A
:1054D00028C11A3009F480C16CED75E089EA94E0C6
:1054E0000E943806612F89EA94E00E94310689EA19
:1054F00094E00E949B1B69EC75E02EC280E00E9444
:105500007622882309F4DBCC9ACD60E070E080EC51
:105510009FE728CE60E070E080EC9FE781CE64E0FA
:1055200078E089EA94E00E943806B10189EA94E0C3
:105530000E94531A66EE77E089EA94E00E94B01B5D
:1055400068EE73E080E090E00E94F30580E090E078
:10555000892B09F4A7CD0E94C506882309F4A2CDA2
:105560000E94000097CDE0914A05F0914B053097DD
:1055700019F08581811103C063E275E086CFCD56B5
:10558000DF4F48815981C359D04070E060E02AE084
:1055900081E395E00E94621A61E275E081E395E0A3
:1055A0000E943806CB56DF4F8881C559D0408A30DB
:1055B00030F46FE175E081E395E00E943806CB5648
:1055C000DF4F6881C559D04081E395E00E94AE1A53
:1055D0006DE175E081E395E00E943806CA56DF4F21
:1055E0008881C659D0408A3030F46BE175E081E3A0
:1055F00095E00E943806CA56DF4F6881C659D040F0
:1056000081E395E00E94AE1A69E175E081E395E0DF
:105610000E943806C956DF4F8881C759D0408A306A
:1056200030F467E175E081E395E00E943806C956E1
:10563000DF4F6881C759D04081E395E00E94AE1AE0
:1056400065E175E081E395E00E943806C856DF4FBA
:105650008881C859D0408A3030F463E175E081E335
:1056600095E00E943806C856DF4F6881C859D0407F
:1056700081E395E00E94AE1A61E175E081E395E077
:105680000E943806C756DF4F8881C959D0408A30FA
:1056900030F46FE075E081E395E00E943806C7566C
:1056A000DF4F6881C959D04081E395E00E94AE1A6E
:1056B0006DE075E081E395E00E94380622E0B301D9
:1056C000A20181E395E00E94B51A6BE075E081E3E9
:1056D00095E00E94380622E0B701A60181E395E03B
:1056E0000E94B51A69E075E081E395E00E943806F2
:1056F00022E0B501A40181E395E00E94B51A81E39F
:1057000095E00E949B1B81E395E00E943010809100
:10571000330590913405892B09F4C1CE60EF74E014
:10572000B4CE143471F0183409F0D6CE6EEE75E0B4
:1057300013C11836D9F30CF5133521F1143609F0DD
:10574000CBCE80913202882309F472C165EC76E0F9
:1057500089EA94E00E94B01B0E94351A60EB76E063
:1057600089EA94E00E94B01B0E944A1E61E976E03B
:105770008111F2C066E776E0EFC01C36C9F013373E
:1057800009F0AACE8091320269ED76E0882309F40F
:10579000E3C06DE277E089EA94E00E94B01B0E94CA
:1057A000351A6BE077E08111D7C06FEE76E0D4C098
:1057B000809132028823A9F066EA77E089EA94E0D2
:1057C0000E94B01B62E172E089EA94E00E94531AE1
:1057D00089EA94E00E949B1B89EA94E00E949B1B4B
:1057E000AFCE6DE877E089EA94E00E94B01B80912B
:1057F000320265EB75E08111A9C063EA75E089EAC0
:1058000094E00E94380667E771E089EA94E00E941C
:10581000531A89EA94E00E949B1B1CA21BA280E2FF
:1058200091E09AA389A31EA2C156DF4F8881CF5968
:10583000D040C056DF4F9881C05AD0400E94A60B7E
:10584000C156DF4F6881CF59D040C056DF4F7881B5
:10585000C05AD040CE01855A9F4F0E94DF0F22963A
:105860001FAE1EAE2297A0E2B1E0BFAFAEAF24964E
:105870001FAE2497A1968FADA197811172C0EC96AF
:105880001FAE1EAEEC9788EE93E0A0E0B0E0C458E7
:10589000DF4F88839983AA83BB83CC57D040EEE344
:1058A000F1E0EA96FFAFEEAFEA97CF56DF4F1982ED
:1058B0001882C159D040CC57DF4F1882C458D0400D
:1058C000EC968EAD9FADEC979093340580933305A5
:1058D000C458DF4F88819981AA81BB81CC57D040C1
:1058E0008093350590933605A0933705B09338051E
:1058F000C058DF4F88819981AA81BB81C058D040B0
:105900008093390590933A05A0933B05B0933C05ED
:10591000A8E7B0E0AC0FBD1F1C96EDE3F5E08D915C
:10592000819325E0EA34F207D1F7CF56DF4FE881C3
:10593000F981C159D040F0934B05E0934A05309767
:1059400019F0858181114AC06BE875E089EA94E01D
:105950000E94B01B66E477E089EA94E00E94B01BE5
:105960003BCF27E147E751E0BE01655A7F4FCE01AB
:10597000CE960E94A81C882309F481CFCE01855AB7
:105980009F4F0E94260E65964CAD5DAD6EAD7FAD0E
:105990006597CE01CE960E94FA0BBE01625C7F4FE6
:1059A000C156DF4F8881CF59D040C056DF4F988114
:1059B000C05AD0400E94DF0F47E751E0C156DF4F89
:1059C0006881CF59D040C056DF4F7881C05AD0404F
:1059D000CE0188589F4F0E94482072CF6EE675E036
:1059E00089EA94E00E94B01BE0914A05F0914B05D2
:1059F000309741F083899489A589B689892B8A2BB0
:105A00008B2B31F465E475E081E395E00E94B01BD7
:105A100081E0809332024FE150E067E771E082E17C
:105A200092E00E94B4341092310268E677E094CF9D
:105A300061E676E089EA94E00E94B01B0E944A1E6B
:105A400062E476E0811188CF67E276E085CFCF937C
:105A5000DF93C0915C05D0915D05209749F08A8164
:105A60009B81009711F00E941534CE010E941534DD
:105A700080915A0590915B05009711F00E941534B2
:105A800080915E0590915F05009739F0DC01ED9102
:105A9000FC910280F381E02D099580916005909141
:105AA0006105009749F0DC01ED91FC910280F381E2
:105AB000E02DDF91CF910994DF91CF910895DB0123
:105AC0008F939F930E94A52DBF91AF91A29F800DB0
:105AD000911DA39F900DB29F900D1124089597FBE7
