:100000000C942C040C9454040C9454040C94540438
:100010000C9454040C9454040C9454040C94540400
:100020000C9454040C9454040C9454040C945404F0
:100030000C9454040C9454040C9454040C945404E0
:100040000C9461220C9454040C94D1220C94AB2295
:100050000C9454040C9454040C9454040C945404C0
:100060000C9403230C94540407634236B79BD8A71F
:100070001A39685618AEBAAB558C1D3CB7CC5763CD
:10008000BD6DEDFD753EF6177231BF000000803F7B
:1000900008000000BE922449123EABAAAA2ABECD97
:1000A000CCCC4C3E00000080BEABAAAAAA3E000009
:1000B0000000BF000000803F000000000008417801
:1000C000D3BB4387D1133D190E3CC3BD4282AD2B38
:1000D0003E68EC8276BED98FE1A93E4C80EFFFBE30
:1000E00001C4FF7F3F00000000007C3C3E5E2B3DD2
:1000F0003F2F5B5D3B2C2A225C00202873686F75C4
:100100006C642062652039292E2052657475726EE8
:10011000696E672049434D5F32303934385F53741C
:1001200061745F57726F6E67494400202873686F6F
:10013000756C64206265203732292077686F6961A9
:100140006D323A200049434D5F32303934383A3A03
:100150006D616757686F49416D3A2077686F6961D3
:100160006D313A200000202873686F756C6420623E
:100170006520392920726561644D6167207365745B
:100180002073746174757320746F3A200020287393
:10019000686F756C64206265203732292077686F3C
:1001A00069616D323A200049434D5F32303934384D
:1001B0003A3A6D616757686F49416D3A2077686FC9
:1001C00069616D313A200000202873686F756C6496
:1001D0002062652037322920726561644D61672095
:1001E0007365742073746174757320746F3A2000A2
:1001F00049434D5F32303934383A3A6D6167576858
:100200006F49416D3A2077686F69616D313A20001E
:100210000049434D5F32303934383A3A7374617271
:100220007475704D61676E65746F6D657465723A53
:10023000206932634D6173746572436F6E666967DE
:100240007572655065726970686572616C2072655F
:100250007475726E65643A20000049434D5F323018
:100260003934383A3A737461727475704D61676EDF
:1002700065746F6D657465723A2077726974654D47
:1002800061672072657475726E65643A200020742F
:100290007269657300207472790049434D5F323092
:1002A0003934383A3A737461727475704D61676E9F
:1002B00065746F6D657465723A20737563636573F9
:1002C0007366756C206D616757686F49416D206179
:1002D000667465722000292E2052657475726E69ED
:1002E0006E672049434D5F32303934385F53746153
:1002F000745F57726F6E6749440049434D5F3230F7
:100300003934383A3A737461727475704D61676E3E
:1003100065746F6D657465723A20726561636865B6
:1003200064204D41585F4D41474E45544F4D455413
:1003300045525F5354415254532028000049434DC5
:100340005F32303934383A3A73746172747570447C
:10035000656661756C743A20656E61626C65444CCB
:1003600050462028477972292072657475726E652F
:10037000643A20000049434D5F32303934383A3A0C
:100380007374617274757044656661756C743A203B
:10039000656E61626C65444C504620284163632958
:1003A0002072657475726E65643A20000049434D91
:1003B0005F32303934383A3A73746172747570440C
:1003C000656661756C743A20736574444C5046637D
:1003D00066672072657475726E65643A2000004924
:1003E000434D5F32303934383A3A73746172747500
:1003F0007044656661756C743A2073657446756CFB
:100400006C5363616C652072657475726E65643AD5
:1004100020000049434D5F32303934383A3A737422
:10042000617274757044656661756C743A207365A9
:100430007453616D706C654D6F6465207265747581
:10044000726E65643A20000049434D5F32303934A2
:10045000383A3A7374617274757044656661756C8C
:10046000743A20737461727475704D61676E65744F
:100470006F6D657465722072657475726E65643A2D
:1004800020000049434D5F32303934383A3A7374B2
:10049000617274757044656661756C743A206C6F36
:1004A00077506F7765722072657475726E65643A05
:1004B00020000049434D5F32303934383A3A737482
:1004C000617274757044656661756C743A20736C02
:1004D0006565702072657475726E65643A200000FF
:1004E00049434D5F32303934383A3A636865636B5B
:1004F00049443A2049434D5F32303934385F6368AC
:1005000065636B5F69642072657475726E65643AC9
:1005100020000049434D5F32303934383A3A737421
:10052000617274757044656661756C743A20737796
:1005300052657365742072657475726E65643A20D5
:10054000000049434D5F32303934383A3A737461B0
:100550007274757044656661756C743A2063686581
:10056000636B49442072657475726E65643A20004D
:100570000049434D5F32303934385F5350493A3A7D
:10058000626567696E3A2073746172747570446550
:100590006661756C742072657475726E65643A205C
:1005A000004C3D4C6F6720533D53746F700020200A
:1005B000457870656374656420372062797465736B
:1005C0002C20676F743A2000202028313D6461742C
:1005D0006120746F6F206C6F6E672C20323D4E412E
:1005E000434B206F6E20616464722C20333D4E417A
:1005F000434B206F6E20646174612C20343D6F7416
:1006000068657229002020493243204572726F725A
:1006100020436F64653A20004F4E00000000002424
:100620000027002A0000000000250028002B000001
:10063000000000230026002900040404040404042C
:100640000402020202020203030303030301020481
:100650000810204080010204081020010204081044
:100660002000000008000201000003040700000051
:1006700000000000000049434D5F32303934383A01
:100680003A6932634D617374657253696E676C6564
:10069000523A2049434D5F32303934385F69326312
:1006A0005F6D61737465725F73696E676C655F72AD
:1006B0002072657475726E65643A2000556E6B6EBB
:1006C0006F776E2053746174757300496E76616C38
:1006D000696420444D5020526567697374657200E7
:1006E000556E7265636F676E6973656420444D5023
:1006F000204865616465723200556E7265636F678C
:100700006E6973656420444D50204865616465726C
:10071000004D6F7265204649464F20446174612048
:10072000417661696C61626C6500444D5020646182
:10073000746120696E204649464F207761732069B5
:100740006E636F6D706C657465004E6F2046494630
:100750004F204461746120417661696C61626C650F
:1007600000444D50204669726D7761726520566570
:1007700072696669636174696F6E204661696C6550
:100780006400444D50204669726D77617265204E59
:100790006F7420537570706F727465642E20497386
:1007A0002023646566696E652049434D5F323039A8
:1007B00034385F5553455F444D5020636F6D6D6510
:1007C0006E74656420696E207574696C2F49434DA1
:1007D0005F32303934385F432E683F0053656E73A3
:1007E0006F72204E6F7420537570706F72746564F1
:1007F000004461746120556E646572666C6F7700A9
:10080000496E76616C69642053656E736F72005730
:10081000726F6E6720494400506172616D65746546
:1008200072204572726F72004E6F7420496D706C49
:10083000656D656E7465640047656E6572616C20F8
:100840004572726F7200416C6C2069732077656C21
:100850006C2E00002224C63011241FBECFEFD8E03A
:10086000DEBFCDBF11E0A0E0B1E0E6E6F5E702C0F3
:1008700005900D92AE3CB107D9F725E0AEECB1E0A2
:1008800001C01D92A83DB207E1F714E0CBE2D4E02D
:1008900004C02197FE010E943031CA32D107C9F746
:1008A0000E94FB240C94A63A0C940000089508952D
:1008B0000F931F93A0915D05B0915E051296ED9187
:1008C000FC911397309739F014960D911C9109956E
:1008D0001F910F91089582E090E0FACF0F931F933C
:1008E000A0915D05B0915E05ED91FC911197309757
:1008F00059F014960D911C9121E030E040E050E059
:1009000009951F910F91089582E090E0FACFCF935F
:10091000DF931F92CDB7DEB78430B0F490916105BC
:100920008917A9F08093610520E1829FC0011124FD
:1009300080738983BE016F5F7F4F8FE70E946E04D3
:100940000F90DF91CF91089583E090E0F9CF90E090
:1009500080E0F6CFAF92BF92DF92EF92FF920F93BB
:100960001F93CF93DF931F92CDB7DEB79C01237007
:10097000332707E010E0232B09F470C05C01D62E6A
:10098000D694D6948D2D8370D82E10E000E0A0FE72
:1009900031C06370F62E82E00E9487048C0121E052
:1009A00030E040E050E0BE016F5F7F4F84E10E9485
:1009B0005804082B192B8F2D880F9981997F982B1C
:1009C0009983BE016F5F7F4F84E10E946E04082B04
:1009D000192B21E030E040E050E0BE016F5F7F4F17
:1009E00084E10E945804082B192B89818695837015
:1009F000F8120160A1FE32C082E00E9487047C01EF
:100A000021E030E040E050E0BE016F5F7F4F81E0C9
:100A10000E9458048E299F29082B192B9D2D937015
:100A2000990F8981897F892B8983BE016F5F7F4FF1
:100A300081E00E946E04082B192B21E030E040E099
:100A400050E0BE016F5F7F4F81E00E945804082B89
:100A5000192B898186958370D8120160C8010F9087
:100A6000DF91CF911F910F91FF90EF90DF90BF909A
:100A7000AF900895BC018091960583708130B1F0EC
:100A800040F08230F1F0833039F160E070E0CB016A
:100A90000895072E000C880B990B0E94C2332FE695
:100AA00032E143E851E40E9448330895072E000CD8
:100AB000880B990B0E94C2332FE632E143E051E4E8
:100AC000F2CF072E000C880B990B0E94C2332FE641
:100AD00032E143E850E4E7CF072E000C880B990B76
:100AE0000E94C2332FE632E143E050E4DCCFBC0188
:100AF000809196058695869583708130B1F040F09F
:100B00008230F1F0833039F160E070E0CB0108957C
:100B1000072E000C880B990B0E94C23320E030E0B6
:100B200043E053E40E9448330895072E000C880BDD
:100B3000990B0E94C23320E030E043E852E4F2CF48
:100B4000072E000C880B990B0E94C23323E333E37A
:100B500043E052E4E7CF072E000C880B990B0E946C
:100B6000C23323E333E343E851E4DCCFBF92CF92B7
:100B7000DF92EF92FF920F931F93CF93DF9300D0FA
:100B800000D0CDB7DEB78C838B01B42E80E041114D
:100B900080E88C608B8383E00E948704BE016D5FD8
:100BA0007F4F83E10E946E04009701F583E00E946D
:100BB0008704BE016C5F7F4F84E10E946E04009742
:100BC000A9F48A818068807A8F7D8A83BB20E1F0D6
:100BD00083E00E948704BE016E5F7F4F85E10E9423
:100BE0006E04C12CD12C76010097C1F00F900F90AC
:100BF0000F900F90DF91CF911F910F91FF90EF9089
:100C0000DF90CF90BF90089583E00E948704B801E1
:100C100086E10E946E040097D9F2E8CF80E00E943E
:100C2000870421E030E040E050E0BE016F5F7F4F7D
:100C300087E10E945804298126FB332730F941E0DF
:100C400058EEC51653E0D506E104F10408F440E07F
:100C5000342B4FEFC41AD40AE40AF40A3323F1F216
:100C60002295217031E058EEC51653E0D506E10417
:100C7000F10408F430E0232B79F4BB2009F4B6CF5B
:100C800083E00E94870421E030E040E050E0B801BA
:100C900087E10E945804AACF81E090E0A7CFCF93CC
:100CA000DF931F92CDB7DEB721E030E040E050E0A7
:100CB000BE016F5F7F4F8FE00E945804009749F498
:100CC00089818D7F8983BE016F5F7F4F8FE00E9496
:100CD0006E040F90DF91CF9108950F931F93CF93E0
:100CE000DF931F92CDB7DEB78130A1F582E00E947D
:100CF00087048C0121E030E040E050E0BE016F5FEE
:100D00007F4F84E10E945804082B192B89818E7F24
:100D10008983BE016F5F7F4F84E10E946E04082BC0
:100D2000192B21E030E040E050E0BE016F5F7F4FC3
:100D300084E10E945804802B912B298120FD816041
:100D400090939A05809399050F90DF91CF911F9111
:100D50000F91089582E00E9487048C0121E030E029
:100D600040E050E0BE016F5F7F4F81E00E94580479
:100D7000082B192B89818E7F8983BE016F5F7F4F7E
:100D800081E00E946E04082B192B21E030E040E046
:100D900050E0BE016F5F7F4F81E0CBCF833081F0A9
:100DA00028F4813099F08230A9F008958730A9F0B5
:100DB0008830C9F08430B1F4809180008F7D03C009
:100DC000809180008F7780938000089584B58F771D
:100DD00084BD089584B58F7DFBCF8091B0008F775F
:100DE0008093B00008958091B0008F7DF9CFCF93AC
:100DF000DF93EEE6F6E08491EAE5F6E0D491E6E4EE
:100E0000F6E0C491CC23A1F081110E94CE06EC2F14
:100E1000F0E0EE0FFF1FE15DF94FA591B491EC9169
:100E2000ED2381E090E009F480E0DF91CF91089517
:100E300080E090E0FACF1F93CF93DF93282F30E02C
:100E4000F901EF59F94F8491F901E35BF94FD4911E
:100E5000F901E75CF94FC491CC23A9F0162F811159
:100E60000E94CE06EC2FF0E0EE0FFF1FEB5DF94F76
:100E7000A591B4918FB7F894EC91111108C0D09559
:100E8000DE23DC938FBFDF91CF911F910895DE2B7E
:100E9000F8CFCF93DF9390E0FC01E35BF94F24910F
:100EA000875C994FFC0184918823D1F090E0880FF2
:100EB000991FFC01E55EF94FA591B491FC01EB5D32
:100EC000F94FC591D49161110EC09FB7F8948C91E0
:100ED000E22FE0958E238C932881E223E8839FBF45
:100EE000DF91CF9108958FB7F894EC91E22BEC93BA
:100EF0008FBFF6CF8230910538F0880F991F880F89
:100F0000991F05970197F1F70895BF92CF92DF924D
:100F1000EF92FF920F931F93CF93DF93EC018881A1
:100F20009981892B81F06EBD0DB407FEFDCF0EB502
:100F3000802FDF91CF911F910F91FF90EF90DF9065
:100F4000CF90BF9008958885998511E0892B09F08D
:100F500010E8BB24B394862F812309F0B12CF62E20
:100F60002C813D814E815F8160E271EA87E090E0F3
:100F70000E940E31E22E00E0C22ED12CEE2019F09C
:100F8000C6010E947A078A85982F977F09F044C08E
:100F90008D858F3F89F09F2D912381E009F480E0BA
:100FA0008B1551F0EF85F8898F89992379F190811C
:100FB000892B8083BB24B394E989FA898081998D38
:100FC000892B8083EE2019F0C6010E947A078E8556
:100FD0008F3F39F0EB89FC898081988D892309F056
:100FE000012BE989FA899081898D809589238083F5
:100FF00088859985892B09F067C0110F1111BECF23
:101000008E858F3F09F094CF0F2D92CF90818095E0
:1010100089238083B12CD0CF8C3099F58D858F3F7B
:1010200049F0EF85F8898F899F2D912331F19081C7
:10103000892B8083E989FA899081898D809589231C
:101040008083EE2019F0C6010E947A07E989FA89A7
:101050008081998D892B8083EE2019F0C6010E9432
:101060007A078E858F3F21F2EB89FC898081988DEC
:10107000892309F4BDCF012BBBCF908180958923B3
:10108000D8CFE989FA898081998D892B8083EE20D8
:1010900019F0C6010E947A078D858F3F49F0EF85D0
:1010A000F8898F899F2D912359F09081892B808316
:1010B000E989FA899081898D809589238083D1CFB0
:1010C000908180958923F3CF169598CF3FB7F894F8
:1010D00080912E0290912F02A0913002B0913102A6
:1010E00026B5A89B05C02F3F19F00196A11DB11D83
:1010F0003FBFBA2FA92F982F8827BC01CD01620FBF
:10110000711D811D911D42E0660F771F881F991F79
:101110004A95D1F708958F929F92AF92BF92CF9246
:10112000DF92EF92FF924B015C010E9466086B0117
:101130007C010E9466086C197D098E099F09683E32
:10114000734081059105A8F321E0821A9108A10856
:10115000B10888EEC80E83E0D81EE11CF11C811492
:101160009104A104B10429F7FF90EF90DF90CF9094
:10117000BF90AF909F908F9008952FB7F894609193
:101180002A0270912B0280912C0290912D022FBF88
:1011900008958091380490913904891B990B089522
:1011A000DC01ED91FC910190F081E02D0994AF926A
:1011B000BF92CF92DF92EF92FF920F931F93CF9344
:1011C000DF936C017B018B01040F151FEB015E01A6
:1011D000AE18BF08C017D10759F06991D601ED913B
:1011E000FC910190F081E02DC6010995892B79F7DA
:1011F000C501DF91CF911F910F91FF90EF90DF908C
:10120000CF90BF90AF900895FC01538D448D252F52
:1012100030E0842F90E0821B930B541710F00F9650
:10122000089501970895FC01918D828D981761F0C2
:10123000A28DAE0FBF2FB11D5D968C91928D9F5FD9
:101240009F70928F90E008958FEF9FEF0895FC01BB
:10125000918D828D981731F0828DE80FF11D858D6B
:1012600090E008958FEF9FEF0895FC01918D228DFE
:10127000892F90E04096821B91098F7099270895DD
:101280008AEA94E00E94350921E0892B09F420E0E4
:10129000822F089580E090E0892B29F00E94400978
:1012A00081110C9400000895FC01A48DA80FB92FA2
:1012B000B11D9D962C91848D90E001968F70992799
:1012C000848FA689B7892C93A089B1898C9183706A
:1012D00080648C93938D848D981306C00288F38963
:1012E000E02D80818F7D80830895EF92FF920F9390
:1012F0001F93CF93DF93EC0181E0888F9B8D8C8DC2
:1013000098131AC0E889F989808185FF15C09FB7B5
:10131000F894EE89FF896083E889F9898081837078
:10132000806480839FBF81E090E0DF91CF911F9127
:101330000F91FF90EF900895F62E0B8D10E00F5F48
:101340001F4F0F701127E02E8C8D8E110CC00FB621
:1013500007FCFACFE889F989808185FFF5CFCE01B6
:101360000E945409F1CFEB8DEC0FFD2FF11DF5A676
:101370009FB7F8940B8FEA89FB8980818062D1CF77
:101380000F931F93CF93DF938C01D0E0C0E0F8015F
:10139000EC0FFD1F6491662341F08AEA94E00E94FD
:1013A0007509892B11F02196F2CFCE01DF91CF91F3
:1013B0001F910F910895CF93DF93EC01888D8823BF
:1013C000B9F0AA89BB89E889F9898C9185FD03C0A8
:1013D000808186FD0DC00FB607FCF7CF8C9185FF8D
:1013E000F2CF808185FFEDCFCE010E945409E9CF75
:1013F000DF91CF9108950895FC0183858F3F19F007
:1014000061E00C941B07089561E0FC0184810E9457
:101410001B078091130281111092130208958EBD53
:1014200000000DB407FEFDCF8EB508958FEF0C942C
:101430000F0A0F931F93CF93DF93EC010E94BD0817
:101440008B010E94160A8F3F69F00E94BD08601B45
:10145000710B6C177D07A8F380E0DF91CF911F918E
:101460000F91089581E0F9CF8CBD9DBD0895CF9374
:10147000DF93EC0188819981892B31F0EA81FB812E
:10148000808191810E94340A8B858F3F29F060E032
:10149000DF91CF910C941B07DF91CF910895CF92EC
:1014A000DF92EF92FF920F931F93CF93DF938C0104
:1014B000EB016A0179010E94370A6881C8010E9424
:1014C0008507E601EC0CFD1C6FEFC8010E94850743
:1014D0008993CE15DF05C1F7C8010E94FC0981E0A0
:1014E000DF91CF911F910F91FF90EF90DF90CF9000
:1014F00008957F928F929F92AF92BF92CF92DF9288
:10150000EF92FF920F931F93CF93DF930115110575
:1015100081F483E090E0DF91CF911F910F91FF90D4
:10152000EF90DF90CF90BF90AF909F908F907F9083
:101530000895F801EE5BFF4F0190F081E02DD80196
:10154000AA5BBF4F7C900C5B1F4FD801CD91DC9103
:10155000EF2BF9F249015A018B01F82ECE010E94BE
:10156000340A80E00E940F0ACE010E94340A60E033
:10157000872D0E941B078F2D8F770E940F0AE8018D
:10158000C12CD12C7601C814D904EA04FB0449F01B
:1015900089910E940F0ABFEFCB1ADB0AEB0AFB0A04
:1015A000F2CF61E0872D0E941B0790E080E0B3CF6F
:1015B0007F928F929F92AF92BF92CF92DF92EF92E3
:1015C000FF920F931F93CF93DF930115110581F4C1
:1015D00083E090E0DF91CF911F910F91FF90EF900A
:1015E000DF90CF90BF90AF909F908F907F900895A5
:1015F000F801EE5BFF4F0190F081E02DD801AA5B6E
:10160000BF4F7C900C5B1F4FD801CD91DC91EF2B2D
:10161000F9F249015A018B01F82ECE010E94340AD9
:1016200080E00E940F0ACE010E94340A60E0872DFC
:101630000E941B078F2D80680E940F0AE801C12CB1
:10164000D12C7601C814D904EA04FB0451F080E0DF
:101650000E940F0A8993BFEFCB1ADB0AEB0AFB0A41
:10166000F1CF61E0872D0E941B0790E080E0B2CFB0
:10167000CF93DF93EC0180911302811109C081E0C7
:10168000809313028091E7049091E8040E94340A49
:1016900060E08C81DF91CF910C941B078F929F9219
:1016A000AF92BF92FF920F931F93CF93DF93EC0102
:1016B000F62E49015A018E81882389F08F81988501
:1016C0009C012F5F3F4F38872F838230924018F460
:1016D0000E94160AF3CFCE010E94040A1E82CE0198
:1016E0000E94380B8CE291E00E94190A8F2D8064D1
:1016F0000E940F0A08E110E0D501C401002E04C0C9
:10170000B695A795979587950A94D2F70E940F0AE8
:1017100008501109083F8FEF180771F785E9FF207E
:1017200021F028E087E8F2128FEF0E940F0A10E004
:101730000E94160A8A8787FF04C01F3F11F01F5FAF
:10174000F7CFDF91CF911F910F91FF90BF90AF9096
:101750009F908F900895AF92BF92CF92DF92EF92B9
:10176000FF920F931F93CF93DF93EC016901C801A0
:10177000820F931F8130924050F58E81882379F03B
:1017800088819981AA81BB8184179507A607B7072D
:1017900031F48F819885C816D90608F042C0488375
:1017A00059836A837B838B85833039F089E0440FCA
:1017B000551F661F771F8A95D1F79A01AB0161E12A
:1017C000CE010E944E0B882389F083E08D83CE01E9
:1017D0000E94040A80E0DF91CF911F910F91FF904A
:1017E000EF90DF90CF90BF90AF9008950E94BD081A
:1017F0005B010E94160A8A878F3F69F40E94BD0828
:101800006A197B096D327140A0F38FE08D83CE01A0
:101810000E94040ADCCF8E3F89F418861F8281E083
:101820008E838F8198858C159D0550F40E94160A31
:101830008F819885019698878F83F3CF8DE0E6CFCF
:101840006701E00EF11E0E94160AF60181936F01F6
:10185000EE15FF05C1F78F819885080F191F1887AE
:101860000F838985882319F001151240A0F08E811D
:10187000882389F08F8198859C012F5F3F4F38879F
:101880002F838230924018F40E94160AF3CFCE01C3
:101890000E94040A1E8281E09ECFCF92DF92EF92D7
:1018A000FF920F93CF93DF93EC01690182E1411521
:1018B00051056105710599F08B85833039F089E018
:1018C000440F551F661F771F8A95D1F79A01AB0108
:1018D00068E1CE010E944E0B882319F084E08D83CD
:1018E0002DC08EEF0E940F0A76018EEFD81AF701F5
:1018F00081917F010E940F0AEC14FD04C1F78FEF64
:101900000E940F0A8FEF0E940F0A0E94160A8A8710
:101910008F71853071F4011116C0CE010E94040A46
:1019200081E0DF91CF910F91FF90EF90DF90CF900A
:10193000089581E18D83CE010E94040ACE010E94A8
:10194000040A80E0EECF88E592E00E94190A811136
:1019500002C085E1C4CF20E030E0A9016DE0CE01F6
:101960000E944E0B882311F084E1B9CF0E94160A21
:101970008111FACFD2CF0F934091150250911602E8
:1019800060911702709118024115510561057105AA
:1019900099F0082F22E332E08091320490913304D1
:1019A0000E944D0C882349F01092150210921602E5
:1019B000109217021092180281E00F9108950F9370
:1019C000CF93C82F80911402811105C0C1E08C2FE4
:1019D000CF910F91089540910001509101016091C4
:1019E0000201709103010C2F22E332E08091320456
:1019F000909133040E944D0C811102C0C0E0E7CFEA
:101A0000CC2321F381E00E94BB0C8823B9F3109210
:101A10001402DDCF8F929F92AF92BF92EF92FF920E
:101A20000F931F93CF934B015C01C42F8091000152
:101A300090910101A0910201B091030188159905CF
:101A4000AA05BB0551F181E00E94DF0C81110BC09A
:101A500080E0CF911F910F91FF90EF90BF90AF90DA
:101A60009F908F90089582E3E82E82E0F82E00E0A8
:101A700012E030E020E0B501A401809132049091A1
:101A800033040E94AB0B882319F3809200019092DB
:101A90000101A0920201B0920301409114024C2B6B
:101AA0004093140281E0D5CF8F929F92AF92BF9264
:101AB000CF92DF92EF92FF92CF9329EE34E03093F2
:101AC000330420933204882309F46DC040E060E0C1
:101AD00070E0CB010E940A0D81110BC080E0CF9114
:101AE000FF90EF90DF90CF90BF90AF909F908F903E
:101AF00008958091F0038F7789F78091FC0390918E
:101B0000FD03A091FE03B091FF0384369105A1056A
:101B1000B10520F3C090F803D090F903E090FA03E8
:101B2000F090FB03C114D104E104F104B9F240E0E8
:101B3000C701B6010E940A0D882381F280913D02FF
:101B400090913E028115924049F6A0914202AA234B
:101B500029F260914002709141026115710509F40A
:101B6000BDCF20913F02222309F4B8CFA0930705EF
:101B70002093F90490E080E030E0E1E0F0E0C82F4D
:101B8000AF01082E02C0440F551F0A94E2F7241734
:101B9000350769F041E0480F01968930910579F7E2
:101BA000409302059BCFC12CD12C7601C0CF8093EE
:101BB0000205209148023091490250E040E0211591
:101BC000310541F42091560230915702409158025C
:101BD000509159022093FA043093FB044093FC0483
:101BE0005093FD0446015701860E971EA11CB11C9F
:101BF0008092080590920905A0920A05B0920B0503
:101C0000E0914302F0914402F0930E05E0930D053C
:101C1000B0E00E943631DC01CB01880D991DAA1D70
:101C2000BB1D80930F0590931005A0931105B093F1
:101C3000120525E0EE0FFF1F2A95E1F7E150FE4F58
:101C4000EF2FFF27E6958E0F9F1FA11DB11D8093DB
:101C5000030590930405A0930505B09306058090B5
:101C6000450290904602B12CA12C8114910441F4BC
:101C70008090520290905302A0905402B09055026E
:101C8000C81AD90AEA0AFB0AC80CD91CEA1CFB1CB0
:101C900004C0F694E794D794C794CA95D2F7C0923B
:101CA000FE04D092FF04E0920005F092010585EF5A
:101CB000C8168FE0D806E104F10428F48CE0809384
:101CC0000C0581E00CCF80E125EFC2162FEFD20684
:101CD000E104F104A0F380915E0290915F02A09173
:101CE0006002B091610280930F0590931005A0935C
:101CF0001105B093120580E2E2CF4F925F926F928E
:101D00007F928F929F92AF92BF92CF92DF92EF928B
:101D1000FF920F931F93CF93DF93EC014230510555
:101D20006105710590F480E0DF91CF911F910F91D3
:101D3000FF90EF90DF90CF90BF90AF909F908F90EB
:101D40007F906F905F904F90089589859A85AB85BD
:101D5000BC850196A11DB11D84179507A607B7077D
:101D600010F3CB88DC88ED88FE888F89803109F0FC
:101D700042C0BB27A72F962F852F480159012A0162
:101D80003B01C80ED91EEA1EFB1E809100019091F6
:101D90000101A0910201B0910301C816D906EA061B
:101DA000FB0699F58F898031C1F5B301A201552752
:101DB00066277727440F551F4E5C5D4FFA019182CD
:101DC0008082809114028160809314028A8982301B
:101DD00080F08D819E81AF81B8858C0D9D1DAE1DDB
:101DE000BF1D8093150290931602A0931702B09323
:101DF000180281E099CFDB01CA01E7E0B695A7950B
:101E000097958795EA95D1F7B8CF40E0C701B6011D
:101E10000E940A0D8111C6CF86CFB301A2014F7770
:101E2000552766277727440F551F440F551F4E5CD3
:101E30005D4FFA0180829182A282B382C2CF8F92DB
:101E40009F92AF92BF92CF92DF92EF92FF920F9349
:101E50001F93CF93DF93FC0181859285A385B48581
:101E60000196A11DB11D84179507A607B70770F449
:101E700080E0DF91CF911F910F91FF90EF90DF9065
:101E8000CF90BF90AF909F908F9008958388948853
:101E9000A588B6888789803189F5BB27A72F962F1B
:101EA000852FE9016A017B018F01BC01CD01680D1D
:101EB000791D8A1D9B1D8090000190900101A090CA
:101EC0000201B090030186169706A806B90601F52F
:101ED000F8018789803111F5DD24EE24FF24F60115
:101EE000EE0FFF1FEE5CFD4F80819181B0E0A0E01E
:101EF00088839983AA83BB8381E0BBCFDB01CA01BE
:101F0000C7E0B695A79597958795CA95D1F7C9CF9C
:101F100040E00E940A0D8111DBCFAACFE894C7F8F8
:101F2000DD24EE24FF24F601EE0FFF1FEE0FFF1F4E
:101F3000EE5CFD4F80819181A281B381BF70D8CFCB
:101F40004F925F926F927F92AF92BF92CF92DF9249
:101F5000EF92FF920F931F93CF93DF9300D000D0A7
:101F6000CDB7DEB78C0149835A836B837C835901DB
:101F7000C12CD12C7601412C82E0582E612C712C81
:101F800049815A816B817C819E012F5F3F4FC8013F
:101F90000E941F0F882339F1F8018585A301920162
:101FA00004C0220F331F441F551F8A95D2F7DA0150
:101FB000C901C80ED91EEA1EFB1E49815A816B81D8
:101FC0007C818789803111F188EF9FEFAFEFBFE00F
:101FD000481759076A077B0798F2F501C082D1823A
:101FE000E282F38281E00F900F900F900F90DF91CB
:101FF000CF911F910F91FF90EF90DF90CF90BF9006
:10200000AF907F906F905F904F90089588EF9FEF13
:10201000A0E0B0E0DDCFCF93DF93FC012581222348
:1020200021F080E0DF91CF910895EC0180910C05C3
:10203000803159F582E08583178A108E118E128EB9
:1020400080910D0590910E05B0E0A0E025E0880F8D
:10205000991FAA1FBB1F2A95D1F7838B948BA58B41
:10206000B68B85EF94E09C8F8B8F81E08C831E82F2
:102070001F82188619861A861B861C861D861E8658
:102080001F86188A198A1A8ACDCF803251F683E0CA
:10209000858340910F055091100560911105709155
:1020A0001205478B508F618F728F9F012D5E3F4FBE
:1020B00085EF94E00E94A00F8111D3CFB2CF8F9211
:1020C0009F92AF92BF92CF92DF92EF92FF920F93C7
:1020D0001F93CF93DF93EC018D8181110EC080E0BF
:1020E000DF91CF911F910F91FF90EF90DF90CF90F4
:1020F000BF90AF909F908F9008950B891C892D8978
:102100003E89041715072607370748F34A015B0184
:10211000823031F48A869B86AC86BD8681E0E0CF32
:1021200081149104A104B10449F41E821F8218860F
:1021300019861A861B861C861D86F0CF0A851B858C
:102140002C853D85EB8DFC8D858590E00996B90148
:10215000A8014150510961097109082E04C0769502
:102160006795579547950A94D2F775016401E1E0A8
:10217000CE1AD108E108F10804C0F694E794D79488
:10218000C7948A95D2F7C416D506E606F70620F05E
:10219000012B022B032B11F58F89988DA98DBA8DF8
:1021A0008E839F83A887B9878E010A5F1F4FC11452
:1021B000D104E104F10409F4ADCF4E815F8168855B
:1021C000798598018B8D9C8D0E941F0F91E0C91A13
:1021D000D108E108F1088111EACF81CFC41AD50AEC
:1021E000E60AF70AE1CF3F924F925F926F927F9299
:1021F0008F929F92AF92BF92CF92DF92EF92FF9217
:102200000F931F93CF93DF93CDB7DEB72C970FB605
:10221000F894DEBF0FBECDBF5C01DC015B968D90F4
:102220009C905C9716964D905D906D907C90199760
:10223000411451046104710409F468C0BFEF4B1AE2
:102240005B0A6B0A7B0A312CF40181859285A38598
:10225000B4859C01AD012F5F3F4F4F4F5F4F2987E2
:102260003A874B875C87730162011D821E821F8241
:102270001886F40181859285A385B4852D813E81E0
:102280004F815885281739074A075B0708F056C061
:1022900089859A85AB85BC858C159D05AE05BF05E6
:1022A00050F482E0C82ED12CE12CF12C92E0492E82
:1022B000512C612C712C9E012F5F3F4FB701A6015D
:1022C000C4010E941F0F8823C9F189819A81AB81C3
:1022D000BC81892B8A2B8B2B09F1260137019FEFBB
:1022E000491A590A690A790A2D813E814F81588518
:1022F0002F5F3F4F4F4F5F4F2D833E834F83588754
:102300003FEFC31AD30AE30AF30AB3CFF4014080C4
:102310005180628073803324339496CFC414D504E3
:10232000E604F70409F70FEF1FEF2FEF3FE0B701C7
:10233000A601C4010E947D0E811119C080E02C9677
:102340000FB6F894DEBF0FBECDBFDF91CF911F91C6
:102350000F91FF90EF90DF90CF90BF90AF909F9044
:102360008F907F906F905F904F903F900895D50130
:1023700016964D915D916D917C911997411551057E
:102380006105710539F097018601C4010E947D0E37
:102390008823A1F2D5011696CD92DD92ED92FC92A2
:1023A0001997332051F0D701C6010196A11DB11D27
:1023B000F40180839183A283B383F5018789908D93
:1023C000A18DB28D892B8A2B8B2B39F48481C78AFE
:1023D000D08EE18EF28E80688483F50184818062E4
:1023E000848381E0ACCF1F93CF93DF93FC012581E1
:1023F0002223D1F1162FEC01848187FF2AC0668544
:1024000077858089918941E00E940A0D882361F1D6
:10241000EA8980E2E89FF0011124EE5CFD4F3097DD
:1024200019F18D81823040F48B899C89AD89BE89F8
:10243000848F958FA68FB78F8F89988D938F828F7A
:102440008F89988DA98DBA8DB58BA48B8C818F7750
:102450008C83111103C08C818F7E8C83812FDF913F
:10246000CF911F910C94DF0C80E0DF91CF911F91F1
:102470000895FF920F931F93CF93DF93EC018D810B
:10248000813041F090E080E0DF91CF911F910F917A
:10249000FF9008958C8181FFF5CF82FD1BC00091D4
:1024A000320410913304C8010E94380B0E94160AAE
:1024B000F82EC8010E94040A8FEFF812E3CF8C8136
:1024C00085FF1BC060E0CE010E94F3118C818F7DDF
:1024D0008C83D8CF4B895C896D897E898A859B8561
:1024E000AC85BD8584179507A607B707C1F2CE0155
:1024F0000E945F108111D3CFC5CF4091150250913A
:1025000016026091170270911802452B462B472B3B
:1025100021F080E00E94BB0CB5CF80618C832A85BE
:102520003B85317080E092E0821B930BADCFCF935F
:10253000DF93EC0161E00E94F311882311F01D820A
:1025400081E0DF91CF9108952F923F924F925F9259
:102550006F927F928F929F92AF92BF92CF92DF92B3
:10256000EF92FF920F931F93CF93DF9300D000D091
:102570001F92CDB7DEB77C015B01342E5D83DC0199
:1025800015968C911597813009F0CEC014962C9039
:1025900021FECAC022FCB4C0C32CDD8022947FE09F
:1025A00027222094B22DB1702B2ED7011A964D916F
:1025B0005D916D917C911D97C114D10409F428C1DE
:1025C0005B968D919C915C97FC0174807A948A0152
:1025D0009B0169E036952795179507956A95D1F780
:1025E00070228A011170711020C001151105E9F4E3
:1025F00016964D915D916D917C91199741155105FC
:102600006105710509F099C057968D919D910D90C6
:10261000BC91A02D0097A105B10509F0B0C0C7017C
:102620000E94F310882309F47FC080E092E0801BB1
:10263000910B46018C159D0508F44C01D7015B9662
:102640004D915C915C9716968D919D910D90BC91EA
:10265000A02D0297A109B109FA01258504C0880FB0
:10266000991FAA1FBB1F2A95D2F7468557856089F7
:102670007189840F951FA61FB71F9C01AD01270DFF
:10268000311D411D511D29013A01811432E093068B
:1026900009F07BC08091000190910101A09102019D
:1026A000B091030184159505A605B70559F48FEF80
:1026B0009FEFDC018093000190930101A093020140
:1026C000B0930301022D9501B301A2018091320460
:1026D000909133040E944D0C882331F19EEFB91A7A
:1026E000C818D908F70182859385A485B585880D1A
:1026F000991DA11DB11D82879387A487B58755CFEA
:10270000F701438954896589768982859385A485F3
:10271000B585481759076A077B0709F43DCFC701FC
:102720000E945F10811138CF81E090E0D7011396AD
:102730009C938E93129780E007C09E012F5F3F4FBE
:102740000E941F0F811102C090E079C089819A8197
:10275000AB81BC81F701238D348DF901278948EFC6
:102760005FEF60E070E0203121F048EF5FEF6FEF46
:102770007FE084179507A607B70708F050CFF70149
:1027800086839783A087B18750CF0115110599F5EE
:10279000D7011A964D915D916D917C911D9753963D
:1027A0008D919D910D90BC91A02D481759076A07F6
:1027B0007B0708F181E00E94DF0C882309F4B4CF85
:1027C0004092000150920101609202017092030157
:1027D00080911402816080931402C8018E5C9D4F29
:1027E000D5019C01280D391DFC012E173F0759F01A
:1027F0004D914193FACF41E0C301B2010E940A0D0D
:102800008111EBCF91CF281B390BA20EB31E68CFDD
:10281000F70183899489A589B68984179507A60746
:10282000B70738F48481438B548B658B768B806833
:102830008483F701848183FD1AC0832D9D810F90CD
:102840000F900F900F900F90DF91CF911F910F91EC
:10285000FF90EF90DF90CF90BF90AF909F908F90C0
:102860007F906F905F904F903F902F90089561E020
:10287000C7010E94F311882309F456CFDECFCF930E
:10288000DF931F92CDB7DEB7698341E050E0BE0110
:102890006F5F7F4F0E94A4120F90DF91CF91089538
:1028A000FC01DB0112968D919C9113979383828397
:1028B00080E291E09183808314968C9114978483B5
:1028C00015968C911597858316964D915D916D9116
:1028D0007C91199746835783608771871A964D912B
:1028E0005D916D917C911D974287538764877587B1
:1028F0001E964D915D916D917C91519746875787BA
:10290000608B718B52968C915297828B53964D911E
:102910005D916D917C915697438B548B658B768B33
:1029200057964D915D916D917C915A97478B508F41
:10293000618F728F5B968D919C91948F838F089598
:102940000895FC01818D928D009719F061E00C943F
:10295000F3110895DC015996ED91FC913097B9F08F
:1029600083899489A589B68942855385648575854F
:10297000841B950BA60BB70B811520E89207A105C8
:10298000B10538F08FEF9FE7A0E0B0E0089590E048
:1029900080E00895DC0159968D919C91009739F063
:1029A000DC01ED91FC910480F581E02D099490E02B
:1029B00080E00895CF93DF93EC01E98DFA8D309795
:1029C00049F481E090E09B838A8390E080E0DF918E
:1029D000CF91089513821282898D9A8D0E94A4123C
:1029E000E98DFA8D22813381232B59F7F0CFCF93D4
:1029F000DF931F92CDB7DEB76983DC01ED91FC91C7
:102A00000280F381E02D41E050E0BE016F5F7F4F17
:102A100009950F90DF91CF9108952F923F924F9299
:102A20005F926F927F928F929F92AF92BF92CF925E
:102A3000DF92EF92FF920F931F93CF93DF9300D01B
:102A40001F92CDB7DEB7FC018581811118C08FEFD1
:102A50009FEF0F900F900F90DF91CF911F910F91EB
:102A6000FF90EF90DF90CF90BF90AF909F908F90AE
:102A70007F906F905F904F903F902F90089584814A
:102A800080FFE5CF4389548965897689828593855E
:102A9000A485B585312C212C481759076A077B0777
:102AA00019F022242394312C6F012101CE010196CB
:102AB0003C01DF011696BB83AA834114510409F43B
:102AC000C5C0F60142855385648575854A01F1E0EC
:102AD0009F22D6015B968D919C915C978A019B0108
:102AE000E9E03695279517950795EA95D1F715965C
:102AF000EC91E230E9F5FC01628D738D848D958D4A
:102B0000600F711F821F931FA12C22E0B22EA81804
:102B1000B9084A145B0408F45201F601248126FD29
:102B200004C0A114F2E0BF0671F4009100011091FD
:102B300001012091020130910301061717072807B0
:102B4000390709F05EC040E00E940A0D882309F4AD
:102B50007ECFC4018E5C9D4FD3019C012A0D3B1D8D
:102B6000FC012E173F0709F46CC041914D93F9CF3A
:102B7000DC011496BC90BA94B0228114910479F4CB
:102B8000B1100DC0452B462B472B69F5F6018789FF
:102B9000908DA18DB28D86839783A087B187D60152
:102BA0005B96ED91FC915C9716966D917D918D9160
:102BB0009C9119976250710981099109258504C07A
:102BC000660F771F881F991F2A95D2F706851785EC
:102BD00020893189600F711F821F931F6B0D711D3A
:102BE000811D911D91CFD60116964D915D916D91EC
:102BF0007C9119972A813B810E941F0F8111CFCFB1
:102C000026CF730185019401AB01BC018091320490
:102C1000909133040E94AB0B882309F418CF6A0CFF
:102C20007B1CF60182859385A485B5858A0D9B1D45
:102C3000A11DB11D82879387A487B5874A185B08B9
:102C40003CCF281B390B620E731EEBCF2A9423282E
:102C500009F0FDCE898190E0FCCEFC01818D928D42
:102C6000009711F00C940D158FEF9FEF08950F93BF
:102C70001F93CF93DF93EC01898D9A8D10E000E0D4
:102C8000009799F00E940D158C010F3F100769F015
:102C9000898D9A8DFC0142855385648575854150E7
:102CA0005109610971090E945F10C801DF91CF913C
:102CB0001F910F91089508950895CF93CFB7F89479
:102CC00080911202811127C0E3E4F6E08491E7E5E8
:102CD000F6E09491E82FF0E0EE0FFF1FE55EF94F6C
:102CE000A591B491EC91E92321F461E08AE00E947E
:102CF0001B0761E08AE00E9449078CB580618CBDAA
:102D00008CB580648CBD61E08DE00E94490761E074
:102D10008BE00E944907809112028F5F809312021C
:102D2000CFBFCF9108952091EF01260F3327331F96
:102D300021323105ECF420918004FC0190E080E028
:102D4000243069F082E00895A091EF012191AC0157
:102D500041535E4FA40FB52FB11D2C9301968617DA
:102D600098F38091EF01680F6093EF0180E0089580
:102D700081E008951092800481E080937F04109296
:102D80005A0461E082E10E941B0761E083E10E9436
:102D90001B07E9EBF0E080818E7F808380818D7F4F
:102DA000808388E48093B80085E48093BC00089514
:102DB0001092390410923804109287041092A904DA
:102DC0000E94BA1686E594E0909337048093360407
:102DD00087E594E090933504809334040895CF936D
:102DE000DF9391E09093CE018823B9F0C091B800B1
:102DF000D091BA008091BC008A7B8093BC0060E0D7
:102E000082E10E941B0760E083E10E941B070E9491
:102E1000BA16D093BA00C093B800DF91CF9108954D
:102E20008F929F92AF92BF92CF92DF92EF92FF92DA
:102E30000F931F93CF93DF93D091A904D13208F061
:102E4000D7C0182FC091A8040E9466086B017C01AE
:102E50008091800481116BC082E080938004109384
:102E60007F048FEF80937E0410927D04D0937C04C6
:102E7000A8E8B4E0ECE5F4E080E0D81391C010924B
:102E80005B0480915B04CC0FC82BC0935B048091E2
:102E90005A04813009F088C010925A040E946608D2
:102EA0006B017C0180915B048093BB008091820464
:102EB00090918304A0918404B0918504892B8A2B7E
:102EC0008B2BA1F00E94660800918204109183046C
:102ED00020918404309185046C197D098E099F0925
:102EE000061717072807390708F442C08091BC006D
:102EF00083FDD8CF85EC8093BC000E9466086B01EF
:102F00007C0180918004823009F450C080917E045D
:102F10008F3F09F46FC080917E04803209F46CC049
:102F200080917E04803309F469C084E026C08091DA
:102F3000820490918304A0918404B0918504892B2C
:102F40008A2B8B2B09F484CF0E9466088090820420
:102F500090908304A0908404B09085046C197D093E
:102F60008E099F0986169706A806B90608F070CF45
:102F7000809181040E94EF1685E0109287041092E0
:102F8000A90410928604DF91CF911F910F91FF90B9
:102F9000EF90DF90CF90BF90AF909F908F9008956B
:102FA0009D9191938F5F69CF85EEA5CF809182042B
:102FB00090918304A0918404B0918504892B8A2B7D
:102FC0008B2B09F49ECF0E94660800918204109119
:102FD000830420918404309185046C197D098E0945
:102FE0009F09061717072807390708F08ACFC0CFAF
:102FF00081E0C3CF80E0C1CF82E0BFCF83E0BDCF0F
:103000001F93CF93DF93EA01122FDC0111968D916C
:103010009C91DC01ED91FC910280F381E02D0995FA
:10302000C817D90729F4812F0E94101791E0811148
:1030300090E0892FDF91CF911F910895CF93DF9377
:10304000EC018B818823A1F0888191E09093860424
:103050008093A804109287041092A90481E00E9432
:10306000101791E0811190E0892FDF91CF910895A1
:103070000E94D81681E08B83CE010E941E18982FE3
:103080008111E2CFF1CF8F929F92AF92BF92CF92F8
:10309000DF92EF92FF920F931F93CF93DF93D82F7E
:1030A000C62F142F613208F09CC00E9466086B0185
:1030B0007C018091800481116FC081E08093800445
:1030C00010937F049FEF90937E0410927D049C0FD9
:1030D00090937C0480935B0480915B04DD0FD82B7C
:1030E000D0935B0480915A04813009F07CC0109227
:1030F0005A040E9466086B017C0180915B048093F6
:10310000BB008091820490918304A0918404B091CB
:103110008504892B8A2B8B2BA1F00E9466080091D5
:1031200082041091830420918404309185046C19E9
:103130007D098E099F09061717072807390708F424
:103140004CC08091BC0083FDD8CF85EC8093BC003F
:103150000E9466086B017C0180918004813009F433
:1031600044C080917D048C1710F4C0917D04ECE57F
:10317000F4E0AAE3B4E080E08C1359C08C2FDF9117
:10318000CF911F910F91FF90EF90DF90CF90BF9064
:10319000AF909F908F9008958091820490918304C6
:1031A000A0918404B0918504892B8A2B8B2B09F480
:1031B00080CF0E9466088090820490908304A09043
:1031C0008404B09085046C197D098E099F098616C8
:1031D0009706A806B90608F06CCF809181040E947A
:1031E000EF16C0E0CBCF85EEB1CF809182049091F5
:1031F0008304A0918404B0918504892B8A2B8B2BA6
:1032000009F4AACF0E9466080091820410918304F9
:1032100020918404309185046C197D098E099F09E1
:10322000061717072807390708F096CFD6CF9191D0
:103230009D938F5FA1CF0895E09139048091380468
:10324000E81730F4F0E0E65CFB4F808190E00895F1
:103250008FEF9FEF089590913904809138042FEFFC
:103260003FEF981748F4E92FF0E0E65CFB4F208130
:1032700030E09F5F90933904C9010895CF92DF92A7
:10328000EF92FF920F931F93CF93DF937C01CB01BB
:103290008A0120918604222389F0EB016B01C40E80
:1032A000D51ECC15DD0569F06991D701ED91FC9132
:1032B0000190F081E02DC7010995F3CF642F0E94A2
:1032C0009316C801DF91CF911F910F91FF90EF905E
:1032D000DF90CF900895CF93DF931F92CDB7DEB7E5
:1032E0006983209186042223F9F02091A9042032D9
:1032F00058F021E030E0FC013383228390E080E04D
:103300000F90DF91CF91089580918704E82FF0E02E
:10331000E857FB4F998190838F5F80938704809358
:10332000A90481E090E0ECCF61E0CE0101960E941B
:103330009316F7CF90E080E008950F931F93CF93FB
:10334000DF9300D0CDB7DEB76A83E091A905F09195
:10335000AA053097F9F0898384819581029798F0C6
:10336000808191E0909386048093A8041092870452
:103370001092A90421E042E050E0BE016F5F7F4F50
:10338000CF010E9400180F900F90DF91CF911F91F5
:103390000F9108958F7789830091AB051091AC054B
:1033A000C8010E94370A6981C8010E9485076A81A5
:1033B000C8010E948507C8010E94FC09E4CFCF9391
:1033C000DF93C3EDD5E08770886E8883E2EDF5E08A
:1033D000962F9770990F990F990F8081807C242FD9
:1033E0002770892B822B808395E0440F551F9A9577
:1033F000E1F787FB882780F9482B660F771F660F58
:10340000771F642B85EF0E949D198881682F677054
:1034100090E2699FB0011124282F269526952695C4
:10342000277094E0299F90011124622B8295869544
:1034300086958370682B84EFDF91CF910C949D1952
:103440005F926F927F928F929F92AF92BF92CF9234
:10345000DF92EF92FF920F931F93CF93DF93DC01E4
:103460001496ED91FC911597EF2B09F465C0690155
:103470003A01EC01888191E0909386048093A8043E
:10348000109287041092A90420E041E050E0CD01A1
:103490000E940018582E882309F44EC0F12CE12C0C
:1034A0008C819D8186010E191F098017910708F4F0
:1034B0008C0141E0C601801B910BE816F90608F467
:1034C00040E0602F013208F060E288810E944318DA
:1034D00010923904809338048017110669F543016E
:1034E0008E0C9F1C5401C5018819990980179107FA
:1034F00068F489819A81DC01ED91FC910284F38565
:10350000E02D0995F50181935F01EDCFE00EF11EED
:10351000EC14FD0428F2852DDF91CF911F910F91BE
:10352000FF90EF90DF90CF90BF90AF909F908F90E3
:103530007F906F905F900895512CEDCFCF93DF93E4
:1035400000D0CDB7DEB7E091A905F091AA05898337
:1035500022E030E0AE014F5F5F4FBA01309751F08B
:10356000CF010E94201A89819A810F900F90DF91DC
:10357000CF9108958091AB059091AC050E944F0AC0
:10358000F2CFCF93DF9300D01F92CDB7DEB7FC010F
:1035900082819381698323E030E0AE014F5F5F4F0A
:1035A000BA010097A1F00E94201A29816A8170E077
:1035B00090E080E0982F872F762F6627822B2B8133
:1035C000622B0F900F900F90DF91CF91089584811F
:1035D00095810E944F0AE9CF8F929F92AF92BF923E
:1035E000CF92DF92EF92FF920F931F93CF93DF93CF
:1035F000EC016AEF0E94C11A0B891C8930E020E0BF
:10360000C72ED82EE92EFF24E7FCFA94C01AD10A5F
:10361000E20AF30A57E095958795779567955A954D
:10362000D1F7000F111F221F331F4B015C01801ABD
:10363000910AA20AB30AA5019401AD89BE890E942C
:1036400041314B015C01FBE0B594A79497948794BA
:10365000FA95D1F7A7019601C701B6010E94FE3085
:103660009B01AC01ACE05595479537952795AA95F8
:10367000D1F7AF89B88D0E9441319B01AC01BEE00A
:103680005595479537952795BA95D1F7280D391D4A
:103690004A1D5B1D2F87388B498B5A8BA5E0B0E004
:1036A0000E94363160587F4F8F4F9F4F672F782F82
:1036B000892F992787FD9A950E94C23320E030E038
:1036C00048EC52E40E944833DF91CF911F910F9153
:1036D000FF90EF90DF90CF90BF90AF909F908F9032
:1036E00008952F923F924F925F926F927F928F92A6
:1036F0009F92AF92BF92CF92DF92EF92FF920F9381
:103700001F93CF93DF93CDB7DEB76D970FB6F894C5
:10371000DEBF0FBECDBF9D8F8C8FFC01838594854E
:10372000A585B685892B8A2B8B2B19F0CF010E949A
:10373000EC1A67EF8C8D9D8D0E94C11A688F798F6E
:103740008A8F9B8FEC8DFD8D87859089A189B289A9
:103750006C017D01FF0CCC08DC2C76019C01AD01D5
:103760006C2D7C2D8C2D9C2D345F414051096109BD
:1037700071098109910929873A874B875C873B0149
:103780004C0159016A017B018C010E944931322EA2
:10379000232E4A8B5B8B6C8B7D8B8E8B9F8BAC8DA2
:1037A000BD8D5C963C915C975B962C91932F990F05
:1037B000990B492F592F692F792F892F0E94493151
:1037C0000CE00E947832522E39834D875E876F87D6
:1037D000788B898B492EEC8DFD8D368D258D932F21
:1037E000990F990BA32CB22CCA88DB88EC88FD8832
:1037F0000E891F89492F592F692F792F892F0E94F0
:10380000493108E00E949132A52CB980CD84DE8434
:10381000EF84F8880989142D0E94AE3270588F4FBA
:103820009F4FAC8DBD8D5996ED91FC915F01D12CD0
:10383000C12CE12CF12C8701E983BA82CB82DC8296
:10384000ED82FE820F831887C12CD12CE12CF12C44
:1038500000E010E00E94493101E20E949132298388
:10386000532E4D875E876F87788B898B492EA0E01A
:103870000E94C03209F43DC1AC8DBD8D94963C913F
:10388000949793962C91932F990F990BA32CB22C6C
:10389000CA88DB88EC88FD880E891F89492F592F3B
:1038A000692F792F892F0E94493119014A8B5B8B2F
:1038B0006C8B7D8B8E8B9F8BEC8DFD8D32A121A12E
:1038C000932F990F990BA984BA84CB84DC8473015C
:1038D0008401492F592F692F792F892F0E9449314F
:1038E00001E10E9478325101CA88DB88EC88FD88AA
:1038F0000E891F890E94AE3259016A017B01282E70
:10390000192F488D598D6A8D7B8D84E0759567954B
:10391000579547958A95D1F780E090E0A0E1B0E017
:10392000841B950BA60BB70B3C014D01990C660847
:10393000762C43019C01AD01662D762D862D962DAA
:103940000FE10E947832722E832E942E652EB62FB0
:10395000A72F382E9987EC8DFD8D30A1278D932FC1
:10396000990F990B492F592F692F792F892F03E22E
:103970000E947832022D0E94AE3259016A017B0109
:103980008C01272D382D492D562D6B2F7A2F832D05
:1039900099850E94B732E5E3AE2EFCE0BF2EC12C24
:1039A000D12CE12CF12C00E010E00E944931A980DB
:1039B000B52CCD84DE84EF84F8880989142D0E940B
:1039C000A33129873A874B875C8769837D878E87F8
:1039D0009F870DE00E949132922E832E742E652EC9
:1039E000562E472E382E292EAC8DBD8D9A963C91A1
:1039F0009A9799962C91932F990F990BA92CB82CE3
:103A0000C72CD62CE52CF42C032D122D492F592F21
:103A1000692F792F892F0E9449310E94493109E18C
:103A20000E949132A984BA84CB84DC84E980FD842D
:103A30000E851F850E94AE3219012A013B014C01FF
:103A4000EC8DFD8D30A527A1932F990F990B492F50
:103A5000592F692F792F892F0E94493103E10E9444
:103A6000913259016A017B018C019101A201B301DC
:103A7000C4010E94AE3208E00E94913259016A01ED
:103A80007B01E82F192FAC8DBD8D96963C919697B2
:103A900095962C91932F990F990B492F592F692F98
:103AA000792F892F04E00E9478320E2F0E94AE32C7
:103AB0000E94BA3320E030E040E85BE30E949C348F
:103AC0006D960FB6F894DEBF0FBECDBFDF91CF91DC
:103AD0001F910F91FF90EF90DF90CF90BF90AF902C
:103AE0009F908F907F906F905F904F903F902F901E
:103AF000089560E070E0CB01E3CFCF93DF93209196
:103B00005B05222369F0EC01FE0164912196662396
:103B100039F08091590590915A050E94D008F4CF50
:103B2000DF91CF9108958031910508F046C0FC01E6
:103B3000E456F24E0C943031AC1DB01DB31DB61DD1
:103B4000B91DBC1DBF1DC21DC51DC81DCB1DCE1D71
:103B5000D11DD41DD71DDA1D86E498E00C947D1D7F
:103B600088E398E0FBCF88E298E0F8CF88E198E01E
:103B7000F5CF8FE098E0F2CF80E098E0EFCF81EFD3
:103B800097E0ECCF8CED97E0E9CF82E897E0E6CFC5
:103B900081E697E0E3CF8AE497E0E0CF8AE297E01E
:103BA000DDCF81E197E0DACF89EF96E0D7CF80EEE5
:103BB00096E0D4CF8BEC96E0D1CF8CEB96E0CECFD5
:103BC000CF92DF92EF92FF921F93CF93DF93EC019E
:103BD00080E2689FF0011124EE5CFD4F93859171A6
:103BE00061F0842F827449F080E0DF91CF911F91C2
:103BF000FF90EF90DF90CF900895142F6A8B809103
:103C0000000190910101A0910201B09103018E8702
:103C10009F87A88BB98BC488D588F12CE12C7601BD
:103C2000DD24CC24CF8AD88EE98EFA8E828D938DB6
:103C3000B0E0A0E0AC01BD014C295D296E297F29CF
:103C40004F8B588F698F7A8F83858871B1F4848DFB
:103C5000958DA68DB78D8B8B9C8BAD8BBE8B81E0AC
:103C60008D831F701C831E821F82188619861A86F8
:103C70001B861C861D8681E0B8CF803109F0B4CF49
:103C80009E012D5E3F4F8B8D9C8D0E94A00F88233F
:103C900009F4AACF84E0E4CF0C9453370C94533743
:103CA000FB0101900020E9F73197AF01461B570B4C
:103CB000DC01ED91FC910280F381E02D0994CF931A
:103CC000DF9320915B05222399F0EC01FE016491C2
:103CD0008091590590915A052196662319F00E940A
:103CE000D008F4CF68E671E0DF91CF910C94501EBC
:103CF000DF91CF910895CF93DF931F92CDB7DEB7B9
:103D0000198241E0BE016F5F7F4F0E94B60590931C
:103D10009A0580939905892B71F086E796E00E94B9
:103D20007D1D8091990590919A050E94931D85E7CC
:103D300096E00E945F1E89810F90DF91CF910895D8
:103D4000CF93DF930E94C009EC0168E671E08AEA34
:103D500094E00E94501E8C0F9D1FDF91CF9108951B
:103D60008F929F92AF92BF92EF92FF920F931F9309
:103D7000CF93DF93CDB7DEB7A1970FB6F894DEBF30
:103D80000FBECDBF7C01FA01CB0119A2223008F48D
:103D90002AE08E010F5D1F4F822E912CB12CA12C99
:103DA000BF01A50194010E940E31F901CA016A30D8
:103DB0000CF5605DD8016E938D01232B242B252BF0
:103DC00079F790E080E0109721F0BD01C7010E94D3
:103DD000501EA1960FB6F894DEBF0FBECDBFDF9187
:103DE000CF911F910F91FF90EF90BF90AF909F9058
:103DF0008F900895695CDECF20915B05222359F0F6
:103E0000AC01990F660B770B2AE0809159059091D0
:103E10005A050C94B01E08953F924F925F926F9294
:103E20007F928F929F92AF92BF92CF92DF92EF924A
:103E3000FF920F931F93CF93DF93CDB7DEB72B97EE
:103E40000FB6F894DEBF0FBECDBF7C01FE013196E8
:103E5000CE010C966F0130E23193E817F907E1F7D4
:103E6000DA0130E087E09D91B92E992309F43CC036
:103E70009E32F1F48A30C9F480E02B960FB6F894A4
:103E8000DEBF0FBECDBFDF91CF911F910F91FF908D
:103E9000EF90DF90CF90BF90AF909F908F907F90EA
:103EA0006F905F904F903F90089538E08AE0DBCFAD
:103EB000EAEEF0E04491442321F031969413FACFD6
:103EC000DBCF8317C8F24FED490F4E35A8F64FE907
:103ED000490F4A3118F440EEB42EB90EF601E30F43
:103EE000F11DB0823F5FBFCF8981803229F2322E2F
:103EF0008B01DB015B968D919C915C97F701948F10
:103F0000838F16961D921D921D921C921997FB018C
:103F10001286138614861586F80182859385A485FA
:103F2000B585438954896589768984179507A607DD
:103F3000B70708F04DC025E0B695A79597958795EA
:103F40002A95D1F7F82FFF70AF2ED80115968C91D6
:103F5000823008F491CFC8010E940D1597FD8CCFD7
:103F6000F80182859385A485B5854F96A11DB11D65
:103F700082879387A487B587F0E2AF9EB0011124B2
:103F80006E5C7D4F6115710509F476CFDB018C9174
:103F9000882341F0853E09F062C0BB2029F0BB2494
:103FA000B394BACFB1100EC0F701A28A809100017C
:103FB00090910101A0910201B0910301868797873A
:103FC000A08BB18BDB018C918111E9CFBB24B39421
:103FD000832D8271823109F04FCFBB2009F44DC08F
:103FE000F701668577858089918941E00E940A0DF5
:103FF000882309F441CFD70152968C91B0E28B9F70
:10400000C00111248E5C9D4F009709F435CFFC014F
:104010003A9626E1DF011D922A95E9F72BE0F60199
:10402000DC0101900D922A95E1F721E238E2FC01D2
:10403000318B208B40E058E057874687338B228BAB
:10404000318F208F578B468B81E00E94DF0C8823B5
:1040500009F412CF432DD70152966C910AC04BE060
:1040600050E0C6010E94DC37892B09F055CF432D63
:104070006A2DC7010E94E01D00CFF80185818230C2
:1040800009F4FACEC8010E94F310882309F4F4CE93
:10409000D8015B96ED91FC915C9716968D909D9062
:1040A000AD90BC901997B2E08B1A9108A108B108A5
:1040B000858504C0880C991CAA1CBB1C8A95D2F764
:1040C00086859785A089B189880E991EAA1EBB1E78
:1040D000848124013501480E511C611C711C84141B
:1040E0009504A604B70409F1E1E04E1A51086108ED
:1040F000710881E00E94DF0C882309F4BDCEE2E361
:10410000F2E0119282E394E08E179F07D1F740927C
:1041100000015092010160920201709203018091AE
:104120001402816080931402DACFD8015B96ED917E
:10413000FC91258580E092E0A0E0B0E004C0880F0B
:10414000991FAA1FBB1F2A95D2F7F80143895489EA
:1041500065897689840F951FA61FB71F838B948B63
:10416000A58BB68BD70152961C9282E392E04FCF7B
:104170000F931F93CF93DF938C01EB01FB013496D8
:1041800080E2DF011D928A95E9F784E290E0A0E0E9
:10419000B0E088839983AA83BB83F80182819381ED
:1041A000092E000CAA0BBB0B8C839D83AE83BF83AF
:1041B00086E090E0A0E0B0E088879987AA87BB8777
:1041C0000E94BD08688B798B8A8B9B8BD8011496D3
:1041D0008D919C91FC014385548565857685452BA1
:1041E000462B472B91F00E94711B20E030E048ECF9
:1041F00052E40E9448336C8B7D8B8E8B9F8B81E0C9
:10420000DF91CF911F910F91089560E070E080ECF5
:104210009FE7EBCF0F931F93CF93DF938C01EB01BD
:1042200088E2FB0111928A95E9F74BE050E06BE6DA
:1042300071E0CE010E94E9371B8681E090E0A0E0AA
:10424000B0E08C879D87AE87BF87F801828193811C
:10425000092E000CAA0BBB0B888B998BAA8BBB8BEE
:1042600086E090E0A0E0B0E08C8B9D8BAE8BBF8BA6
:104270001CA21DA21EA21FA280E090E0A6E9B3E44A
:104280008C8F9D8FAE8FBF8F80E090E8A9E8B4E45B
:10429000888F998FAA8FBB8F86EA9BE9A4E4BCE341
:1042A00088A399A3AAA3BBA3DF91CF911F910F91DC
:1042B00008950F931F93CF93DF938C01EB01FB01C4
:1042C000349680E2DF011D928A95E9F784E290E05E
:1042D000A0E0B0E088839983AA83BB83F801828140
:1042E0009381092E000CAA0BBB0B8C839D83AE839C
:1042F000BF838DE090E0A0E0B0E088879987AA872F
:10430000BB870E94BD08688B798B8A8B9B8BD801F9
:1043100014968D919C91FC01438554856585768525
:10432000452B462B472B61F00E94EC1A6C8B7D8B42
:104330008E8B9F8B81E0DF91CF911F910F9108951C
:1043400060E070E080EC9FE7F1CF0F931F93CF9375
:10435000DF938C01EB0188E2FB0111928A95E9F76A
:104360004BE050E06BE671E0CE010E94E9371B861E
:1043700081E090E0A0E0B0E08C879D87AE87BF87AA
:10438000F80182819381092E000CAA0BBB0B888B4C
:10439000998BAA8BBB8B8DE090E0A0E0B0E08C8B7A
:1043A0009D8BAE8BBF8B1CA21DA21EA21FA280E004
:1043B00090E0A0E2B2EC8C8F9D8FAE8FBF8F80E03B
:1043C00090E0AAEAB2E4888F998FAA8FBB8F8AE027
:1043D00097EDA3E2BCE388A399A3AAA3BBA3DF91B3
:1043E000CF911F910F910895EF92FF920F931F931A
:1043F000CF93DF93EC017B018A011B821A8288EE46
:1044000093E0A0E0B0E08C839D83AE83BF838EE316
:1044100091E0998388838DE190E00E94B7369A8F6E
:10442000898F009779F02DE1F701DC0101900D9261
:104430002A95E1F74CE050E0B801CE010C960E94BD
:10444000E937188EDF91CF911F910F91FF90EF9078
:10445000089585ED8093BC0080918204909183043F
:10446000A0918404B09185040796A11DB11D23E09D
:10447000B695A795979587952A95D1F72091BC0079
:1044800024FD03C01092800408954091820450914D
:1044900083046091840470918504452B462B472B3F
:1044A00069F30097A105B10541F02AE22A95F1F7D9
:1044B00000C00197A109B109E1CF809181040C945A
:1044C000EF161F920F920FB60F9211242F933F9366
:1044D0008F939F93AF93BF9380912A0290912B0269
:1044E000A0912C02B0912D023091290223E0230FDC
:1044F0002D3758F50196A11DB11D209329028093F7
:104500002A0290932B02A0932C02B0932D0280914B
:104510002E0290912F02A0913002B09131020196AB
:10452000A11DB11D80932E0290932F02A093300203
:10453000B0933102BF91AF919F918F913F912F9195
:104540000F900FBE0F901F90189526E8230F02962C
:10455000A11DB11DD2CF1F920F920FB60F92112441
:104560002F933F934F935F936F937F938F939F937B
:10457000AF93BF93EF93FF938AEA94E00E945409AC
:10458000FF91EF91BF91AF919F918F917F916F912B
:104590005F914F913F912F910F900FBE0F901F9001
:1045A00018951F920F920FB60F9211242F938F938D
:1045B0009F93EF93FF93E091BA04F091BB04808145
:1045C000E091C004F091C10482FD1BC090818091F4
:1045D000C3048F5F8F702091C404821741F0E09173
:1045E000C304F0E0E655FB4F958F8093C304FF9121
:1045F000EF919F918F912F910F900FBE0F901F9071
:1046000018958081F4CF1F920F920FB60F9211244C
:104610002F933F934F935F936F937F938F939F93CA
:10462000AF93BF93EF93FF938091B900887F80365B
:1046300009F44AC0F0F5883209F4A7C018F58031B2
:1046400009F49BC0B8F4882309F4F9C0883009F450
:1046500094C0FF91EF91BF91AF919F918F917F9106
:104660006F915F914F913F912F910F900FBE0F90DF
:104670001F901895883109F488C0803251F78093D3
:104680007E0414C0803409F49DC040F48033B9F333
:104690008833F9F680937E0485ECB0C0803509F448
:1046A00085C0883509F496C0883499F60E9429227D
:1046B000D0CF883909F48CC038F5883729F050F408
:1046C000883611F0803729F683E0809380041092B9
:1046D000110257C0883809F47BC0803919F080383E
:1046E00009F0B7CF80911102803208F071C0E091DB
:1046F000110281E08E0F809311028091BB00F0E0E7
:10470000EF50FE4F80833DC0803B39F0E0F4803AAB
:1047100009F479C0883A09F09CCF84E08093800442
:104720001092F0011092EF01E0913604F0913704FD
:1047300009958091EF0181110FC081E08093EF0115
:104740001092CF0109C0803C09F4A6CF883C09F43F
:10475000A3CF883B09F07DCFE091F00181E08E0F7F
:104760008093F001F0E0E153FE4F80818093BB0025
:104770009091F0018091EF0129C080915B048093BA
:10478000BB0085EC8093BC0064CF90917D04809148
:104790007C04981758F5E0917D0481E08E0F80939A
:1047A0007D04F0E0E45AFB4F8081E9CFE0917D0485
:1047B00081E08E0F80937D048091BB00F0E0E45A8D
:1047C000FB4F808390917D0480917C049817C8F200
:1047D00085E8D8CFE0917D0481E08E0F80937D0441
:1047E0008091BB00F0E0E45AFB4F808380917F040E
:1047F00081115CCF81E080935A0484EA8093BC00ED
:104800001092800426CF85EC8093BC001092800427
:1048100080911102803230F4E0911102F0E0EF500B
:10482000FE4F10826091110270E0E0913404F0912B
:10483000350481EF91E00995109211020ACF109290
:104840007E0434CF0F931F93CF93DF93EAEAF4E013
:104850001382128288EE93E0A0E0B0E08483958317
:10486000A683B7832EE031E03183208325EC30E04E
:104870003587248724EC30E03787268720EC30E02A
:10488000318B208B21EC30E0338B228B22EC30E01B
:10489000358B248B26EC30E0378B268B118E128ED5
:1048A000138E148EE7EEF4E020E520831182E9EE0A
:1048B000F4E0158216821186138642E050E060E033
:1048C00070E0448755876687778713A215A614A6DC
:1048D00040E251E053A742A717A6E2E3F5E01382B6
:1048E000128284839583A683B7834CE251E051837F
:1048F0004083EEE3F5E01382128284839583A683DE
:10490000B7838EE391E091838083128E118E14869B
:10491000E9E5F5E012828AE0838385E2ADE5B5E062
:10492000ED0119928A95E9F784E0808710929A0543
:104930001092990520939D0510929E0507EA15E0B7
:10494000F80113821282138614861586168613A622
:1049500014A68CE190E00E94B736EC0183E08B87CF
:104960008FEF8E878D878C8786EA95E09983888381
:104970001B8E82E090E00E94B73621E5FC01208387
:1049800011829B838A8380E492E4AFE0B0E08C8361
:104990009D83AE83BF8381E090E0998788871A86E4
:1049A000D8011596DC93CE93149786E090E00E9490
:1049B000B736FC018EE591E09183808388E191E038
:1049C0009383828315830483E801FF83EE8386E06B
:1049D00090E00E94B736FC0180E591E091838083EE
:1049E0001382128215830483F987E887DF91CF91C0
:1049F0001F910F910895CF93DF93CDB7DEB7C05EBF
:104A0000D1090FB6F894DEBF0FBECDBF789484B540
:104A1000826084BD84B5816084BD85B5826085BDBA
:104A200085B5816085BD80916E00816080936E0048
:104A3000109281008091810082608093810080913A
:104A400081008160809381008091800081608093EB
:104A500080008091B10084608093B1008091B000AB
:104A600081608093B00080917A00846080937A00A6
:104A700080917A00826080937A0080917A008160D0
:104A800080937A0080917A00806880937A001092F7
:104A9000C100E091BA04F091BB0482E08083E09110
:104AA000B604F091B7041082E091B804F091B90413
:104AB00080E180831092C204E091BE04F091BF04B3
:104AC00086E08083E091BC04F091BD048081806128
:104AD0008083E091BC04F091BD0480818860808374
:104AE000E091BC04F091BD04808180688083E091F6
:104AF000BC04F091BD0480818F7D808361E08DE0F6
:104B00000E9449070E94D8160E94D81601E000931F
:104B1000860488E68093A804109287041092A90462
:104B200081E00E94101781113AC000938604109210
:104B300087041092A90460E082E395E00E946B195B
:104B400081E00E94101741E061E088E60E9443186E
:104B5000109239048093380482E395E00E942B1967
:104B6000182F85FF1AC000938604109287041092B4
:104B7000A90460E082E395E00E946B19612F6F7DCC
:104B800082E395E00E946B1981E00E9410176AE0B1
:104B900070E080E090E00E948B0881E001C080E03E
:104BA00080931F020E945D160091AB051091AC0529
:104BB000CE0101961C010115110509F055C1809126
:104BC000A9059091AA05009711F00E94533786E03D
:104BD00090E00E94B7368C018091A7059091A805BE
:104BE00027E7D8012C9312969C938E9311971396D6
:104BF0001C92139780E290E015969C938E931497E5
:104C00001093AA050093A9050E94D81681E0F80127
:104C10008383C8010E941E1881113EC180E08093E9
:104C20001E020E945D1686EA95E090939C05809393
:104C30009B0580E580939D0510929E0586E08093FC
:104C40009F0561E00E94490761E080919F050E94F5
:104C50001B0780919D0590919E050E94340A80E07B
:104C60000E940F0A89E79AE09093A1058093A0051E
:104C700088ED9AE09093A3058093A20589E595E0DD
:104C80009093A5058093A40580EA95E090935E0536
:104C900080935D0510925F05109260058FEF809301
:104CA000610580936205109263051092640510926D
:104CB00065051092660510926705109268051092BE
:104CC000690510926A0510926B0510926C0510929E
:104CD0006D0510926E0510926F051092700510927E
:104CE000710510927205109273051092740510925E
:104CF00075051092760510927705198280E00E9462
:104D0000870421E030E040E050E0B10180E00E9403
:104D10005804009709F0A5C189818A3E09F09FC116
:104D200010929A05109299050091990510919A0593
:104D30000115110509F4A8C182E495E00E947D1DCA
:104D4000C8010E94931D81E495E00E945F1E1093AC
:104D50009A0500939905012B71F081E795E00E9477
:104D60007D1D8091990590919A050E94931D80E781
:104D700095E00E945F1E8091990590919A05892B7C
:104D800009F022C46FE083E090E00E94AA049093AF
:104D90009A058093990581E080931D028091180502
:104DA000882321F083E195E00E9497121092F40489
:104DB0001092F2041092EF041092EE0489E08093B6
:104DC000ED040E94BD088B0161E08091ED040E941A
:104DD000490761E08091ED040E941B070E945D1667
:104DE00082E58093E7041092E8048091E7049091B3
:104DF000E8040E94340A4AE0F42E8FEF0E940F0A62
:104E0000FA94F110FACF89EE94E00E94380B20E07A
:104E100030E0A90160E089EE94E00E944E0BF82E8C
:104E20008093F30421E0821709F4D0C30E94BD08E7
:104E3000601B710B613D774050F381E08093EE047D
:104E400089EE94E00E94040A0E94F70661E0892B33
:104E500009F060E08DE00E941B0768EC70E080E0E4
:104E600090E00E948B08F0CFD8011B968C918F3F69
:104E700041F061E00E94490761E0F80183850E94EA
:104E80001B07D8018D919C91892B09F4B0C00E9419
:104E90005D1681E0F801838F8091A9059091AA05A4
:104EA000009709F4CFC020ED298321E030E0A10173
:104EB000B1010E94201A898190E0B0E0A0E08093C7
:104EC000B2059093B305A093B405B093B5058835AA
:104ED0009105A105B10509F0A1CE88E80E949E1AAE
:104EE0009093BB058093BA058AE80E949E1A90931E
:104EF000BD058093BC058CE80E949E1A9093BF0567
:104F00008093BE058EE80E949E1A9093C1058093FF
:104F1000C00580E90E949E1A9093C3058093C20544
:104F200082E90E949E1A9093C5058093C40584E986
:104F30000E949E1A9093C7058093C60586E90E9439
:104F40009E1A9093C9058093C80588E90E949E1A0D
:104F50009093CB058093CA058AE90E949E1A90938C
:104F6000CD058093CC058CE90E949E1A9093CF05C5
:104F70008093CE058EE90E949E1A9093D10580936E
:104F8000D0058091B2059091B305A091B405B09180
:104F9000B505892B8A2B8B2B41F050E040E070E067
:104FA00060E085E090E00E94DF1964E670E080E058
:104FB00090E00E948B088091B2059091B305A0917A
:104FC000B405B091B505892B8A2B8B2B41F044E0B9
:104FD00050E064E070E082E090E00E94DF1964E657
:104FE00070E080E090E00E948B0881E018CE61E0E4
:104FF000F80184850E944907D8011A968C911A9766
:105000008B7FE1F460E01C968C910E941B07D80115
:105010001D968C918F3F41F061E00E94490761E04D
:10502000F80185850E941B07D8011E968C918F3F41
:1050300009F42FCF60E00E9449072BCF61E0F8010F
:105040008485E3CF80ED898321E030E0A101B101C7
:105050008091AB059091AC050E944F0A2CCF84E063
:1050600090E090939A058093990580EE94E00E94D9
:105070007D1D8091990590919A050E94931D8FED59
:1050800094E00E945F1E50CE80E00E94870421E0E1
:1050900030E040E050E0B10186E00E9458048C010D
:1050A000892B41F4898180688983B10186E00E945F
:1050B0006E048C0110939A05009399050115110552
:1050C00051F083E195E00E947D1DC8010E94931D6F
:1050D00082E195E03ACE62E370E080E090E00E94E9
:1050E0008B0880E00E94870421E030E040E050E03F
:1050F000B10186E00E9458048C01892B41F489811A
:105100008F7B8983B10186E00E946E048C0110932D
:105110009A05009399050115110551F083EB94E070
:105120000E947D1DC8010E94931D82EB94E00DCE6C
:1051300080E00E94870421E030E040E050E0B101CF
:1051400086E00E9458048C01892B41F489818F7D6F
:105150008983B10186E00E946E048C0110939A0548
:10516000009399050115110551F083E894E00E9420
:105170007D1DC8010E94931D82E894E0E6CD80E089
:105180000E948704009711F40E944F0690939A059D
:105190008093990580E00E9487040097E1F50E94C2
:1051A0004F060097C1F583E00E948704009799F5A8
:1051B00021E030E040E050E0BE016B597F4F81E0DC
:1051C0000E945804009739F5A6968FADA697807F68
:1051D00087608061A6968FAFA697BE016B597F4FFF
:1051E00081E00E946E040097B1F480E00E94870481
:1051F000009789F421E030E040E050E0B10183E025
:105200000E945804009739F4898180628983B10132
:1052100083E00E946E0490939A058093990581E043
:10522000C852DF4F8883C85DD04040E0BE0168525D
:105230007F4F82E30E94B60590939A05809399056B
:1052400010E054E0C52ED12C80915C05181708F0B1
:1052500087C01F5F80E00E947B1E082F8091990508
:1052600090919A05892BB9F180EF91E00E947D1D04
:10527000802F90E00E94FC1E88EC91E00E947D1D32
:105280008091990590919A050E94931D87EC91E079
:105290000E945F1E80E00E948704009789F421E04D
:1052A00030E040E050E0B10183E00E9458040097F4
:1052B00039F4898182608983B10183E00E946E04A0
:1052C00090939A05809399056AE070E080E090E001
:1052D0000E948B08B9CF81E00E947B1EF82E80913E
:1052E000990590919A05892BE9F087EA91E00E944F
:1052F0007D1D802F90E00E94FC1E8DE891E00E94B1
:105300007D1D8F2D90E00E94FC1E86E691E00E949C
:105310007D1D8091990590919A050E94931D85E6C7
:1053200091E0B6CF083419F4F9E0FF16C9F085E42E
:1053300091E00E947D1D802F90E00E94FC1E8BE278
:1053400091E00E947D1D8F2D90E00E94FC1E8AEF4F
:1053500090E00E945F1ED0929A05C09299059ACF64
:1053600080915C0581131FC08AEF92E00E947D1D31
:1053700080915C0590E00E94FC1E86ED92E00E9408
:105380005F1E84E090E090939A058093990504E075
:1053900010E088E494E00E947D1DC8010E94931DE6
:1053A00087E494E0D2CC8AE992E00E947D1D812FAF
:1053B00090E00E94FC1E85E992E0113011F08EE829
:1053C00092E00E945F1E88E0C952DF4F8883C75D6C
:1053D000D04040E0BE0169527F4F81E30E94B60594
:1053E0008C0190939A0580939905892B81F08AE529
:1053F00092E00E947D1DC8010E94931D89E592E004
:105400000E945F1E10939A0500939905C2CF83E016
:105410000E9487048C01892B31F58CE8CE57DF4F31
:105420008883C258D040BE016E577F4F83E00E94F0
:105430006E048C01892BB9F480E1A6968FAFA697F4
:10544000BE016B597F4F84E00E946E048C01892B52
:1054500051F48981807489688F7B8983B10185E0EB
:105460000E946E048C0110939A0500939905011512
:10547000110509F442C681E192E00E947D1DC80138
:105480000E94931D80E192E0BBCF60E083E090E05A
:105490000E94AA048C0190939A0580939905892B08
:1054A00051F08FED93E00E947D1DC8010E94931D75
:1054B0008EED93E04ACC82E00E9487048C0121E0CB
:1054C00030E040E050E0B10184E10E945804082B34
:1054D000192B898188638983B10184E10E946E045C
:1054E000082B192B21E030E040E050E0B10184E1CD
:1054F0000E945804082B192B8981869586958695DC
:105500008770873009F0016082E00E948704082BD1
:10551000192B21E030E040E050E0B10181E00E9431
:105520005804082B192B898188638983B10181E094
:105530000E946E04082B192B21E030E040E050E07F
:10554000B10181E00E945804082B192B89818695AE
:10555000869586958770873009F0016010939A05CB
:10556000009399050115110551F08DEA93E00E9411
:105570007D1DC8010E94931D8CEA93E0E6CB81E07B
:105580000E946D068C01892B51F085E793E00E9403
:105590007D1DC8010E94931D84E793E0D6CB82E075
:1055A0000E946D068C01892B51F08DE393E00E94DF
:1055B0007D1DC8010E94931D8CE393E0C6CB009132
:1055C000990510919A05C3CB80E0E6CB2AEA31E039
:1055D00040E050E068E089EE94E00E944E0B82FFCC
:1055E0002AC0F092F4048091F404C12CD12CE12C57
:1055F00020E4F22E823019F0C12CD12C760120E06B
:1056000030E0A90167E389EE94E00E944E0BA70108
:10561000960169E289EE94E00E944E0B8093F304B8
:105620008823D1F00E94BD08601B710B613D77405B
:1056300030F388E003CC34E0F32E0E94160A809306
:10564000F304FA94F110F9CF8A3A11F082E0F6CB24
:1056500082E08093F404C7CF8091F4048230D1F4C7
:1056600020E030E0A9016AE389EE94E00E944E0B4D
:10567000882311F086E0E2CB0E94160A807C803CF1
:1056800019F483E08093F4040E94160A0E94160A1B
:105690000E94160A89EE94E00E94040A80E5809335
:1056A000E7041092E80481E00E94540D882309F178
:1056B00083E195E00E940B10882309F4C5CB81EAB1
:1056C00095E00E94A01E8AEA94E00E943509892B89
:1056D000A1F18AEA94E00E941309182F8AEA94E063
:1056E0000E943509892B61F08AEA94E00E9413092F
:1056F000F5CF80E00E94540D882309F4A5CBD8CFC4
:105700001F7D1C3409F07FC081E080932802109235
:1057100024021092250210922602109227020E9463
:10572000BD0860932002709321028093220290931F
:10573000230288E196E00E94A01E8091280288231F
:1057400009F453C40E94BD08009120021091210267
:105750002091220230912302601B710B820B930B6C
:10576000683E73408105910508F465C40E94BD0838
:10577000609320027093210280932202909323026F
:1057800080911F02882369F181E08093860488E676
:105790008093A804109287041092A90463E082E326
:1057A00095E00E946B1981E00E941017182F882342
:1057B00009F446C085E096E00E94C009412F50E000
:1057C00070E060E02AE08AEA94E00E94B01E68E699
:1057D00071E08AEA94E00E94501E88EC95E00E94F5
:1057E000A01E0E94BD089F938F937F936F9381E9C2
:1057F00091E09F938F931F9284E68F933F922F9215
:105800000E94F837EBC0133509F097CF10922802A9
:1058100060E08DE00E941B07409124025091250218
:1058200060912602709127022AE08AEA94E00E94A1
:10583000B01E68E671E08AEA94E00E94501E7DCFB7
:1058400041E067E088E60E944318182F109239045F
:10585000809338048730A0F48EEA95E00E94C00956
:10586000412F50E070E060E02AE08AEA94E00E9474
:10587000B01E68E671E08AEA94E00E94501EB1CF43
:1058800082E395E00E942B19D82E82E395E00E94D6
:105890002B19E82E82E395E00E942B19F82E82E363
:1058A00095E00E942B19082F82E395E00E942B19A6
:1058B00082E395E00E942B19182F82E395E00E9465
:1058C0002B19E894D7F82D2D30E0B4E035952795C5
:1058D000BA95E1F7322F330F330F422F431B440F9A
:1058E0004D0D9C0194E0359527959A95E1F72F7021
:1058F0003327922F990F990F291B220F820F90E0C7
:105900008053984F4C3308F06CCFE894E7F82E2D75
:1059100030E0A4E035952795AA95E1F7322F330FB3
:10592000330FB22FB31B3B2F330F3E0D3C3308F028
:1059300058CFEF2DEF736E2F70E0F4E075956795FB
:10594000FA95E1F7262F220F220FF62FF21B2F2FA9
:10595000220F2E0F283108F044CF0F73602F70E014
:10596000E4E075956795EA95E1F7562F550F550FC9
:10597000651B660F060F5FEF500F5F3108F031CFE8
:105980001F71612F70E054E0759567955A95E1F7A6
:10599000562F550F550F651B660F160F5FEF510FF2
:1059A0005C3008F01ECF1F924F931F923F931F92BF
:1059B0002F931F920F931F921F939F938F9382E7B2
:1059C00091E09F938F931F9284E68F9381E090E004
:1059D0008C0F9D1F9F938F930E94F8378C010FB6F9
:1059E000F894DEBF0FBECDBF80911E02882309F45C
:1059F00036C38091B2059091B305A091B405B091E2
:105A0000B505892B8A2B8B2B09F422C387EA95E0F5
:105A10000E94711B6B017C0184E6682E712C601A58
:105A2000710A2101400E511E8091B2059091B3057B
:105A3000A091B405B091B505892B8A2B8B2B09F465
:105A40000EC387EA95E00E94EC1AB62EA72E982E78
:105A5000892EA7019601C701B6010E94593581110F
:105A6000FEC2B501C401272F362F492F582FD5016B
:105A7000F4016B2F7A2F8F2F9E2F0E9459358111A1
:105A8000EEC220E030E048EC52E4C701B6010E94CB
:105A90004833F62EE72ED82EC92E20E030E54DE70C
:105AA00054E4D701F6016B2F7A2F8F2F9E2F0E947F
:105AB000483321E03EED42E45EE30E9409359B015C
:105AC000AC0160E070E080E89FE30E94DB3220E000
:105AD0003AE24DE257E40E949C349F938F937F9368
