:100000000C9491030C94B9030C94B9030C94B903A8
:100010000C94B9030C94B9030C94B9030C940C24FC
:100020000C94B9030C94B9030C94B9030C94B90360
:100030000C94B9030C94B9030C94B9030C94B90350
:100040000C94C2230C94B9030C948E240C94682451
:100050000C94B9030C94B9030C94B9030C94B90330
:100060000C94C0240C94B90307634236B79BD8A7FD
:100070001A39685618AEBAAB558C1D3CB7CC5763CD
:10008000BD6DEDFD753EF6177231BF000000803F7B
:1000900008000000BE922449123EABAAAA2ABECD97
:1000A000CCCC4C3E00000080BEABAAAAAA3E000009
:1000B0000000BF000000803F000000000008417801
:1000C000D3BB4387D1133D190E3CC3BD4282AD2B38
:1000D0003E68EC8276BED98FE1A93E4C80EFFFBE30
:1000E00001C4FF7F3F0000000000202045787065BC
:1000F0006374656420372062797465732C20676FA0
:10010000743A2000202028313D6461746120746FAE
:100110006F206C6F6E672C20323D4E41434B206F39
:100120006E20616464722C20333D4E41434B206F3E
:100130006E20646174612C20343D6F74686572298F
:10014000002020493243204572726F7220436F6451
:10015000653A20002C2C002C002C0030003A003096
:10016000003A003000200030002D0030002D007CCF
:100170003C3E5E2B3D3F2F5B5D3B2C2A225C0020EA
:1001800020474E44202D3E20474E44002020564319
:1001900043202D3E20332E3356206F7220355600DB
:1001A000202053434C202D3E204135002020534435
:1001B00041202D3E20413400436865636B20776900
:1001C00072696E673A00E29C97204661696C6564CB
:1001D00020746F20696E697469616C697A65204268
:1001E0004D50323830207669612049324321004336
:1001F0006F6E66696775726174696F6E20636F6D8B
:10020000706C6574652E00E29C9320424D5032382C
:100210003020696E697469616C697A6564207375F0
:10022000636365737366756C6C792100496E6974DC
:1002300069616C697A696E6720424D5032383020AE
:1002400028493243206D6F6465292E2E2E005344B9
:100250003A20496E697469616C697A6174696F6E7C
:10026000207375636365737366756C0053443A203D
:10027000496E697469616C697A6174696F6E206630
:1002800061696C65640053443A20496E6974696120
:100290006C697A696E6720776974682043532070AF
:1002A000696E20000A4C3D53746172742C20533DDA
:1002B00053746F702C20443D44656C657465005325
:1002C00044206661696C656400526561647900462A
:1002D00041494C4544004F4B003D3D3D3D3D3D3D7A
:1002E0003D3D3D3D3D3D3D3D3D004641494C454444
:1002F000004F4B00534420436172643A2000464152
:10030000494C4544004F4B004261726F6D65746506
:10031000723A20005254433A20000A3D3D3D20539A
:100320005441545553203D3D3D00E29C932053449D
:100330002063617264204F4B00E29AA02053442056
:1003400063617264206661696C656400E29C93205D
:100350004261726F6D65746572204F4B00E29AA026
:10036000204261726F6D65746572206661696C65AB
:1003700064005741524E494E473A2043616E6E6FBA
:10038000742072656164205254432074696D650065
:100390005741524E494E473A205254432074696D9A
:1003A00065206D617920626520696E76616C696493
:1003B000003A003A0020002D002D005254432074D2
:1003C000696D653A2000E29C9320525443204F4BC4
:1003D00000E29AA020525443206661696C65640073
:1003E000E29C9320535049204F4B00E29C932042C3
:1003F000757A7A6572204F4B00E29C9320427574A7
:10040000746F6E204F4B0055534C49205061796CEE
:100410006F61640053443A205772697465206572B5
:10042000726F72206465746563746564002C002CBF
:10043000002C0030003A0030003A0030002000303C
:10044000002D0030002D0053443A2046696C652091
:100450006E6F74206F70656E000000000023002630
:100460000029004C6F6767696E672073746F707046
:100470006564004C6F6767696E672073746172749E
:10048000656400427574746F6E2070726573736575
:10049000640050726573732027482720666F7220AE
:1004A00068656C7000556E6B6E6F776E20636F6D54
:1004B0006D616E643A20004C3D53746172742C205F
:1004C000533D53746F702C20443D44656C657465D6
:1004D0000046696C65206E6F7420666F756E6420CF
:1004E0006F722064656C657465206661696C656413
:1004F0000046696C652064656C65746564004465DC
:100500006C6574696E6720646174612E6373762E06
:100510002E2E0053746F7070696E67206C6F676762
:10052000696E672E2E2E004E6F7420637572726591
:100530006E746C79206C6F6767696E67004C6F67CB
:1005400067696E672073746F707065640053746FB1
:100550007070696E67206C6F6767696E672E2E2EEC
:10056000004C6F6767696E672073746172746564AD
:10057000005374617274696E67206C6F6767696E8F
:10058000672E2E2E00416C7265616479206C6F6756
:1005900067696E6720746F3A200053442077726950
:1005A0007465206661696C6564004E4F2D4241524E
:1005B0004F002A2A2A204C414E44494E47204445A8
:1005C00054454354454421202A2A2A002A2A2A2015
:1005D00054414B454F4646204445544543544544B9
:1005E00021202A2A2A006D006850612000C2B043F1
:1005F0002000200000000000240027002A00000046
:1006000000080002010000030407000000000000D1
:10061000000053443A20417070656E64696E672033
:10062000746F206578697374696E672066696C659C
:100630000053443A204E65772066696C65202D2072
:100640006865616465722061646465640054696D05
:10065000657374616D702C54656D705F432C5072BE
:100660006573737572655F6850612C416C74697451
:100670007564655F6D0053443A2046696C65206F70
:1006800070656E6564207375636365737366756CFE
:100690006C790053443A20436865636B2077697234
:1006A000696E6720616E6420636172640053443A2E
:1006B000204661696C656420746F206F70656E20E0
:1006C00066696C650053443A204F70656E696E67C9
:1006D0002066696C65200053443A20416C72656164
:1006E0006479206C6F6767696E6700010204081007
:1006F000204080010204081020010204081020009C
:10070000000000250028002B000404040404040455
:100710000402020202020203030303030302DF25B1
:100720009F3011241FBECFEFD8E0DEBFCDBF11E058
:10073000A0E0B1E0E8E3F6E702C005900D92A23C2C
:10074000B107D9F725E0A2ECB1E001C01D92AC3CA5
:10075000B207E1F713E0C0E9D3E004C02197FE013E
:100760000E94E632CF38D107C9F70E9479260C944F
:100770000F3B0C94000008950895833081F028F415
:10078000813099F08230A9F008958730A9F088303F
:10079000C9F08430B1F4809180008F7D03C08091D6
:1007A00080008F7780938000089584B58F7784BD13
:1007B000089584B58F7DFBCF8091B0008F778093B3
:1007C000B00008958091B0008F7DF9CF1F93CF9333
:1007D000DF93282F30E0F901E250FA4F8491F901BC
:1007E000E551F94FD491F901E75FF84FC491CC235B
:1007F000A9F0162F81110E94BD03EC2FF0E0EE0F3F
:10080000FF1FE150F94FA591B4918FB7F894EC9187
:10081000111108C0D095DE23DC938FBFDF91CF91FB
:100820001F910895DE2BF8CFCF93DF9390E0FC016A
:10083000E551F94F2491875F984FFC0184918823FB
:10084000C9F090E0880F991FFC01EC50FA4FA59178
:10085000B491FC01E150F94FC591D49161110DC0E3
:100860009FB7F8948C91209582238C9388812823BC
:1008700028839FBFDF91CF910895623051F49FB7D5
:10088000F8943C91822F809583238C93E8812E2BC2
:10089000EFCF8FB7F894EC912E2B2C938FBFEACF2C
:1008A0004F925F926F927F928F929F92AF92BF9280
:1008B000CF92DF92EF92FF920F931F93CF938C0111
:1008C0004A015B0180910501873099F08F3F09F45F
:1008D00051C0CF911F910F91FF90EF90DF90CF907B
:1008E000BF90AF909F908F907F906F905F904F9050
:1008F0000895EDE1F7E0C491C7FDEBCF61E087E03B
:100900000E941404CC2319F0C23009F0E7C0712C06
:10091000612C60E472E48FE090E0A30198010E94F2
:100920001D3169017A0181E0C81AD108E108F10896
:10093000C23009F08EC092E08FEFC816D104E104F6
:10094000F10489F084F060E970ED83E090E0A301A8
:1009500098010E941D3169017A0181E0C81AD1080D
:10096000E108F10893E08091B100887F892B8093A2
:10097000B10092C087E080930501EDE1F7E0C491FA
:10098000CF3F09F4A6CFC13021F150F0C23009F4B5
:100990003EC0C7FD9ECF61E087E00E941404B4CF43
:1009A00014BC15BC84B5826084BD85B5816085BDED
:1009B000E0E1F7E0E491F0E0EE0FFF1FE150F94FC6
:1009C00085919491E2EFF6E0E491E0936904C0E050
:1009D00095CF1092800010928100809181008860F4
:1009E0008093810080918100816080938100E0E1AB
:1009F000F7E0E491F0E0EE0FFF1FE150F94F859131
:100A00009491E2EFF6E0E491E093680477CF1092DE
:100A1000B0001092B1008091B00082608093B0006D
:100A20008091B10081608093B100E0E1F7E0E49152
:100A3000F0E0EE0FFF1FE150F94F859194919093F4
:100A4000670480936604E2EFF6E0E491E0936504C6
:100A500055CF8FEFC816D104E104F104A9F0A4F03A
:100A600068E478EE81E090E0A30198010E941D31D6
:100A700069017A0181E0C81AD108E108F10894E01F
:100A8000C11171CF93E003C092E0C1116CCF85B565
:100A9000887F892B85BDC0E0D801AA0FBB1FA501A7
:100AA00094010E943C3128EE33E040E050E00E9487
:100AB000FB30C13061F1C230E1F1C1110ACFC7BCD6
:100AC000209372043093730440937404509375041C
:100AD00080916E00826080936E00FBCE980150E0A2
:100AE00040E060E072E18AE790E00E941D31690118
:100AF0007A0181E0C81AD108E108F108C13061F635
:100B000080918100887F816080938100C5CFD092E1
:100B10008900C092880020936E0430936F04409344
:100B200070045093710480916F00826080936F0015
:100B3000D0CEC092B30020936A0430936B044093EC
:100B40006C0450936D0480917000826080937000FB
:100B5000C0CE8230910538F0880F991F880F991FF9
:100B600005970197F1F70895BF92CF92DF92EF9228
:100B7000FF920F931F93CF93DF93EC0188819981AC
:100B8000892B81F06EBD0DB407FEFDCF0EB5802F11
:100B9000DF91CF911F910F91FF90EF90DF90CF9059
:100BA000BF9008958885998511E0892B09F010E898
:100BB000BB24B394862F812309F0B12CF62E2C810F
:100BC0003D814E815F8160E271EA87E090E00E94A2
:100BD000FB30E22E00E0C22ED12CEE2019F0C6012F
:100BE0000E94A9058A85982F977F09F044C08D85BA
:100BF0008F3F89F09F2D912381E009F480E08B15D0
:100C000051F0EF85F8898F89992379F19081892BAB
:100C10008083BB24B394E989FA898081998D892BDB
:100C20008083EE2019F0C6010E94A9058E858F3FB2
:100C300039F0EB89FC898081988D892309F0012B9B
:100C4000E989FA899081898D8095892380838885B7
:100C50009985892B09F067C0110F1111BECF8E85C0
:100C60008F3F09F094CF0F2D92CF908180958923EB
:100C70008083B12CD0CF8C3099F58D858F3F49F092
:100C8000EF85F8898F899F2D912331F19081892BF0
:100C90008083E989FA899081898D80958923808371
:100CA000EE2019F0C6010E94A905E989FA89808120
:100CB000998D892B8083EE2019F0C6010E94A90529
:100CC0008E858F3F21F2EB89FC898081988D892365
:100CD00009F4BDCF012BBBCF908180958923D8CF5C
:100CE000E989FA898081998D892B8083EE2019F01A
:100CF000C6010E94A9058D858F3F49F0EF85F889CF
:100D00008F899F2D912359F09081892B8083E989C8
:100D1000FA899081898D809589238083D1CF9081B4
:100D200080958923F3CF169598CF3FB7F89480919B
:100D30003E0290913F02A0914002B091410226B53F
:100D4000A89B05C02F3F19F00196A11DB11D3FBF03
:100D5000BA2FA92F982F8827BC01CD01620F711DD2
:100D6000811D911D42E0660F771F881F991F4A95CC
:100D7000D1F708958F929F92AF92BF92CF92DF9258
:100D8000EF92FF924B015C010E9495066B017C0182
:100D90000E9495066C197D098E099F09683E734073
:100DA00081059105A8F321E0821A9108A108B108F4
:100DB00088EEC80E83E0D81EE11CF11C811491045A
:100DC000A104B10429F7FF90EF90DF90CF90BF907E
:100DD000AF909F908F9008952FB7F89460913A024A
:100DE00070913B0280913C0290913D022FBF08958B
:100DF0009091050189130BC0EDE1F7E0E4919FEFBD
:100E000090930501E13049F028F0E23061F060E0B4
:100E10000C94E60310926E00FACF90916F009D7FC4
:100E200090936F00F4CF909170009D7F909370002D
:100E300091E09093B0009091B100987F946090936E
:100E4000B1001092B300E3CFDC01ED91FC91019071
:100E5000F081E02D0994EF92FF920F931F93CF93AF
:100E6000DF938C017B01D0E0C0E0F701EC0FFD1FA8
:100E70006491662361F0D801ED91FC910190F081BD
:100E8000E02DC8010995892B11F02196EECFCE01F6
:100E9000DF91CF911F910F91FF90EF900895AF9246
:100EA000BF92CF92DF92EF92FF920F931F93CF9357
:100EB000DF936C017B018B01040F151FEB015E01B9
:100EC000AE18BF08C017D10759F06991D601ED914E
:100ED000FC910190F081E02DC6010995892B79F7ED
:100EE000C501DF91CF911F910F91FF90EF90DF909F
:100EF000CF90BF90AF900895FC01538D448D252F66
:100F000030E0842F90E0821B930B541710F00F9663
:100F1000089501970895FC01918D828D981761F0D5
:100F2000A28DAE0FBF2FB11D5D968C91928D9F5FEC
:100F30009F70928F90E008958FEF9FEF0895FC01CE
:100F4000918D828D981731F0828DE80FF11D858D7E
:100F500090E008958FEF9FEF0895FC01918D228D11
:100F6000892F90E04096821B91098F7099270895F0
:100F70008CEE94E00E94AD0721E0892B09F420E07B
:100F8000822F089580E090E0892B29F00E94B80715
:100F900081110C9400000895FC01A48DA80FB92FB5
:100FA000B11D9D962C91848D90E001968F709927AC
:100FB000848FA689B7892C93A089B1898C9183707D
:100FC00080648C93938D848D981306C00288F38976
:100FD000E02D80818F7D80830895EF92FF920F93A3
:100FE0001F93CF93DF93EC0181E0888F9B8D8C8DD5
:100FF00098131AC0E889F989808185FF15C09FB7C9
:10100000F894EE89FF896083E889F989808183708B
:10101000806480839FBF81E090E0DF91CF911F913A
:101020000F91FF90EF900895F62E0B8D10E00F5F5B
:101030001F4F0F701127E02E8C8D8E110CC00FB634
:1010400007FCFACFE889F989808185FFF5CFCE01C9
:101050000E94CC07F1CFEB8DEC0FFD2FF11DF5A613
:101060009FB7F8940B8FEA89FB8980818062D1CF8A
:10107000CF93DF93EC01888D8823B9F0AA89BB89CF
:10108000E889F9898C9185FD03C0808186FD0DC0BA
:101090000FB607FCF7CF8C9185FFF2CF808185FFDB
:1010A000EDCFCE010E94CC07E9CFDF91CF9108951B
:1010B0000895FC0183858F3F19F061E00C94E603ED
:1010C000089561E0FC0184810E94E603809107029B
:1010D00081111092070208958EBD00000DB407FE25
:1010E000FDCF8EB508958FEF0C946C080F931F936E
:1010F000CF93DF93EC010E94EC068B010E947308F2
:101100008F3F69F00E94EC06601B710B6C177D0726
:10111000A8F380E0DF91CF911F910F91089581E0B6
:10112000F9CF8CBD9DBD0895CF93DF93EC018881ED
:101130009981892B31F0EA81FB81808191810E9424
:1011400091088B858F3F29F060E0DF91CF910C945F
:10115000E603DF91CF910895CF92DF92EF92FF9255
:101160000F931F93CF93DF938C01EB016A017901F9
:101170000E9494086881C8010E94B405E601EC0C45
:10118000FD1C6FEFC8010E94B4058993CE15DF05E1
:10119000C1F7C8010E94590881E0DF91CF911F91EA
:1011A0000F91FF90EF90DF90CF900895CF93DF9352
:1011B000EC0180910702811109C081E08093070250
:1011C0008091290590912A050E94910860E08C8108
:1011D000DF91CF910C94E6038F929F92AF92BF92D2
:1011E000FF920F931F93CF93DF93EC01F62E4901EB
:1011F0005A018E81882389F08F8198859C012F5F09
:101200003F4F38872F838230924018F40E94730832
:10121000F3CFCE010E9461081E82CE010E94D60843
:101220008CE291E00E9476088F2D80640E946C0809
:1012300008E110E0D501C401002E04C0B695A795C1
:10124000979587950A94D2F70E946C080850110967
:10125000083F8FEF180771F785E9FF2021F028E09C
:1012600087E8F2128FEF0E946C0810E00E9473086A
:101270008A8787FF04C01F3F11F01F5FF7CFDF9100
:10128000CF911F910F91FF90BF90AF909F908F9043
:101290000895AF92BF92CF92DF92EF92FF920F9399
:1012A0001F93CF93DF93EC016901C801820F931F55
:1012B0008130924050F58E81882379F08881998120
:1012C000AA81BB8184179507A607B70731F48F81E0
:1012D0009885C816D90608F042C0488359836A83A6
:1012E0007B838B85833039F089E0440F551F661F5F
:1012F000771F8A95D1F79A01AB0161E1CE010E9477
:10130000EC08882389F083E08D83CE010E94610878
:1013100080E0DF91CF911F910F91FF90EF90DF90D0
:10132000CF90BF90AF9008950E94EC065B010E94A1
:1013300073088A878F3F69F40E94EC066A197B095B
:101340006D327140A0F38FE08D83CE010E94610861
:10135000DCCF8E3F89F418861F8281E08E838F81D7
:1013600098858C159D0550F40E9473088F8198858F
:10137000019698878F83F3CF8DE0E6CF6701E00E6B
:10138000F11E0E947308F60181936F01EE15FF05AF
:10139000C1F78F819885080F191F18870F838985DA
:1013A000882319F001151240A0F08E81882389F05E
:1013B0008F8198859C012F5F3F4F38872F83823024
:1013C000924018F40E947308F3CFCE010E94610886
:1013D0001E8281E09ECFCF92DF92EF92FF920F9319
:1013E000CF93DF93EC01690182E14115510561055D
:1013F000710599F08B85833039F089E0440F551FD2
:10140000661F771F8A95D1F79A01AB0168E1CE017B
:101410000E94EC08882319F084E08D832DC08EEFA4
:101420000E946C0876018EEFD81AF70181917F0136
:101430000E946C08EC14FD04C1F78FEF0E946C0849
:101440008FEF0E946C080E9473088A878F71853025
:1014500071F4011116C0CE010E94610881E0DF9194
:10146000CF910F91FF90EF90DF90CF90089581E1A1
:101470008D83CE010E946108CE010E94610880E048
:10148000EECF88E592E00E947608811102C085E1E6
:10149000C4CF20E030E0A9016DE0CE010E94EC084D
:1014A000882311F084E1B9CF0E9473088111FACF2B
:1014B000D2CF0F934091090250910A0260910B0222
:1014C00070910C02411551056105710599F0082FC5
:1014D00025E632E080914202909143020E94EB099E
:1014E000882349F01092090210920A0210920B020E
:1014F00010920C0281E00F9108950F93CF93C82FA3
:1015000080910802811105C0C1E08C2FCF910F910D
:101510000895409100015091010160910201709184
:1015200003010C2F25E632E08091420290914302A4
:101530000E94EB09811102C0C0E0E7CFCC2321F368
:1015400081E00E94590A8823B9F310920802DDCF86
:101550008F929F92AF92BF92EF92FF920F931F9341
:10156000CF934B015C01C42F809100019091010148
:10157000A0910201B091030188159905AA05BB0548
:1015800051F181E00E947D0A81110BC080E0CF9172
:101590001F910F91FF90EF90BF90AF909F908F9011
:1015A000089585E6E82E82E0F82E00E012E030E0B3
:1015B00020E0B501A40180914202909143020E9473
:1015C0004909882319F38092000190920101A092A9
:1015D0000201B0920301409108024C2B4093080293
:1015E00081E0D5CFCF93DF93EC016E857F8588892D
:1015F000998941E00E94A80A882351F08A8920E253
:10160000829FC00111248B599D4FDF91CF91089586
:1016100090E080E0FACF8F929F92AF92BF92CF92EC
:10162000DF92EF92FF92CF932BE235E030934302AB
:1016300020934202882309F46DC040E060E070E02E
:10164000CB010E94A80A81110BC080E0CF91FF90CE
:10165000EF90DF90CF90BF90AF909F908F900895C4
:10166000809123048F7789F780912F049091300423
:10167000A0913104B091320484369105A105B105E1
:1016800020F3C0902B04D0902C04E0902D04F09017
:101690002E04C114D104E104F104B9F240E0C70101
:1016A000B6010E94A80A882381F28091700290916D
:1016B00071028115924049F6A0917502AA2329F280
:1016C00060917302709174026115710509F4BDCFC8
:1016D00020917202222309F4B8CFA09349052093E8
:1016E0003B0590E080E030E0E1E0F0E0C82FAF01A2
:1016F000082E02C0440F551F0A94E2F7241735073D
:1017000069F041E0480F01968930910579F74093DF
:1017100044059BCFC12CD12C7601C0CF80934405CA
:1017200020917B0230917C0250E040E02115310590
:1017300041F42091890230918A0240918B025091AC
:101740008C0220933C0530933D0540933E05509319
:101750003F0546015701860E971EA11CB11C8092C1
:101760004A0590924B05A0924C05B0924D05E09130
:101770007602F0917702F0935005E0934F05B0E0C8
:101780000E943C31DC01CB01880D991DAA1DBB1DB7
:101790008093510590935205A0935305B09354053F
:1017A00025E0EE0FFF1F2A95E1F7E150FE4FEF2FE6
:1017B000FF27E6958E0F9F1FA11DB11D8093450544
:1017C00090934605A0934705B09348058090780212
:1017D00090907902B12CA12C8114910441F4809055
:1017E000850290908602A0908702B0908802C81A65
:1017F000D90AEA0AFB0AC80CD91CEA1CFB1C04C063
:10180000F694E794D794C794CA95D2F7C09240054E
:10181000D0924105E0924205F092430585EFC8164B
:101820008FE0D806E104F10428F48CE080934E05A3
:1018300081E00CCF80E125EFC2162FEFD206E10444
:10184000F104A0F38091910290919202A0919302F1
:10185000B09194028093510590935205A093530543
:10186000B093540580E2E2CF4F925F926F927F92E5
:101870008F929F92AF92BF92CF92DF92EF92FF92A0
:101880000F931F93CF93DF93EC0142305105610515
:10189000710590F480E0DF91CF911F910F91FF903F
:1018A000EF90DF90CF90BF90AF909F908F907F9000
:1018B0006F905F904F90089589859A85AB85BC8520
:1018C0000196A11DB11D84179507A607B70710F350
:1018D000CB88DC88ED88FE888F89803109F042C092
:1018E000BB27A72F962F852F480159012A013B01BD
:1018F000C80ED91EEA1EFB1E8091000190910101C5
:10190000A0910201B0910301C816D906EA06FB06B0
:1019100099F58F898031C1F5B301A201552766275A
:101920007727440F551F4B595D4FFA0191828082F2
:10193000809108028160809308028A89823080F059
:101940008D819E81AF81B8858C0D9D1DAE1DBF1D03
:101950008093090290930A02A0930B02B0930C02A9
:1019600081E099CFDB01CA01E7E0B695A79597958D
:101970008795EA95D1F7B8CF40E0C701B6010E943C
:10198000A80A8111C6CF86CFB301A2014F77552790
:1019900066277727440F551F440F551F4B595D4F3E
:1019A000FA0180829182A282B382C2CF8F929F92EB
:1019B000AF92BF92CF92DF92EF92FF920F931F935D
:1019C000CF93DF93FC0181859285A385B485019631
:1019D000A11DB11D84179507A607B70770F480E015
:1019E000DF91CF911F910F91FF90EF90DF90CF90FB
:1019F000BF90AF909F908F90089583889488A5881A
:101A0000B6888789803189F5BB27A72F962F852F28
:101A1000E9016A017B018F01BC01CD01680D791DCF
:101A20008A1D9B1D8090000190900101A0900201F1
:101A3000B090030186169706A806B90601F5F801CD
:101A40008789803111F5DD24EE24FF24F601EE0FA5
:101A5000FF1FEB59FD4F80819181B0E0A0E08883AA
:101A60009983AA83BB8381E0BBCFDB01CA01C7E0B6
:101A7000B695A79597958795CA95D1F7C9CF40E0B8
:101A80000E94A80A8111DBCFAACFE894C7F8DD2411
:101A9000EE24FF24F601EE0FFF1FEE0FFF1FEB59A0
:101AA000FD4F80819181A281B381BF70D8CF4F92C9
:101AB0005F926F927F92AF92BF92CF92DF92EF923E
:101AC000FF920F931F93CF93DF9300D000D0CDB739
:101AD000DEB78C0149835A836B837C835901C12C07
:101AE000D12C7601412C82E0582E612C712C498139
:101AF0005A816B817C819E012F5F3F4FC8010E94FC
:101B0000D60C882339F1F8018585A301920104C020
:101B1000220F331F441F551F8A95D2F7DA01C901DE
:101B2000C80ED91EEA1EFB1E49815A816B817C8139
:101B30008789803111F188EF9FEFAFEFBFE0481741
:101B400059076A077B0798F2F501C082D182E282C9
:101B5000F38281E00F900F900F900F90DF91CF9163
:101B60001F910F91FF90EF90DF90CF90BF90AF90BB
:101B70007F906F905F904F90089588EF9FEFA0E067
:101B8000B0E0DDCFCF93DF93FC012581222321F04C
:101B900080E0DF91CF910895EC0180914E05803176
:101BA00059F582E08583178A108E118E128E8091EE
:101BB0004F0590915005B0E0A0E025E0880F991FF7
:101BC000AA1FBB1F2A95D1F7838B948BA58BB68B4D
:101BD00087E395E09C8F8B8F81E08C831E821F8230
:101BE000188619861A861B861C861D861E861F86E9
:101BF000188A198A1A8ACDCF803251F683E08583FC
:101C000040915105509152056091530570915405D2
:101C1000478B508F618F728F9F012D5E3F4F87E3FF
:101C200095E00E94570D8111D3CFB2CF8F929F9232
:101C3000AF92BF92CF92DF92EF92FF920F931F93DA
:101C4000CF93DF93EC018D8181110EC080E0DF9195
:101C5000CF911F910F91FF90EF90DF90CF90BF90A9
:101C6000AF909F908F9008950B891C892D893E8994
:101C7000041715072607370748F34A015B0182302E
:101C800031F48A869B86AC86BD8681E0E0CF8114E4
:101C90009104A104B10449F41E821F82188619869A
:101CA0001A861B861C861D86F0CF0A851B852C850F
:101CB0003D85EB8DFC8D858590E00996B901A801E5
:101CC0004150510961097109082E04C07695679544
:101CD000579547950A94D2F775016401E1E0CE1A51
:101CE000D108E108F10804C0F694E794D794C794AA
:101CF0008A95D2F7C416D506E606F70620F0012B22
:101D0000022B032B11F58F89988DA98DBA8D8E83A7
:101D10009F83A887B9878E010A5F1F4FC114D10422
:101D2000E104F10409F4ADCF4E815F8168857985C6
:101D300098018B8D9C8D0E94D60C91E0C91AD10818
:101D4000E108F1088111EACF81CFC41AD50AE60A69
:101D5000F70AE1CF3F924F925F926F927F928F92FC
:101D60009F92AF92BF92CF92DF92EF92FF920F932A
:101D70001F93CF93DF93CDB7DEB72C970FB6F894B0
:101D8000DEBF0FBECDBF5C01DC015B968D909C90E9
:101D90005C9716964D905D906D907C9019974114CC
:101DA00051046104710409F468C0BFEF4B1A5B0A67
:101DB0006B0A7B0A312CF40181859285A385B48559
:101DC0009C01AD012F5F3F4F4F4F5F4F29873A87EF
:101DD0004B875C87730162011D821E821F821886F9
:101DE000F40181859285A385B4852D813E814F8143
:101DF0005885281739074A075B0708F056C08985B8
:101E00009A85AB85BC858C159D05AE05BF0550F444
:101E100082E0C82ED12CE12CF12C92E0492E512CDD
:101E2000612C712C9E012F5F3F4FB701A601C401A9
:101E30000E94D60C8823C9F189819A81AB81BC812B
:101E4000892B8A2B8B2B09F1260137019FEF491A29
:101E5000590A690A790A2D813E814F8158852F5F81
:101E60003F4F4F4F5F4F2D833E834F8358873FEF48
:101E7000C31AD30AE30AF30AB3CFF40140805180B6
:101E8000628073803324339496CFC414D504E6045F
:101E9000F70409F70FEF1FEF2FEF3FE0B701A6019F
:101EA000C4010E94340C811119C080E02C960FB639
:101EB000F894DEBF0FBECDBFDF91CF911F910F9180
:101EC000FF90EF90DF90CF90BF90AF909F908F905A
:101ED0007F906F905F904F903F900895D501169638
:101EE0004D915D916D917C91199741155105610559
:101EF000710539F097018601C4010E94340C8823D2
:101F0000A1F2D5011696CD92DD92ED92FC92199731
:101F1000332051F0D701C6010196A11DB11DF40176
:101F200080839183A283B383F5018789908DA18DEE
:101F3000B28D892B8A2B8B2B39F48481C78AD08E62
:101F4000E18EF28E80688483F501848180628483CF
:101F500081E0ACCF1F93CF93DF93FC012581222337
:101F600071F1162FEC01848187FF1EC0CF010E9402
:101F7000F20AFC01892B19F18D81823040F48B89A2
:101F80009C89AD89BE89848F958FA68FB78F8F89E5
:101F9000988D938F828F8F89988DA98DBA8DB58BEF
:101FA000A48B8C818F778C83111103C08C818F7EE1
:101FB0008C83812FDF91CF911F910C947D0A80E05B
:101FC000DF91CF911F910895FF920F931F93CF93AD
:101FD000DF93EC018D81813041F090E080E0DF9172
:101FE000CF911F910F91FF9008958C8181FFF5CFC4
:101FF00082FD1BC00091420210914302C8010E9461
:10200000D6080E947308F82EC8010E9461088FEF5D
:10201000F812E3CF8C8185FF1BC060E0CE010E94E7
:10202000AA0F8C818F7D8C83D8CF4B895C896D8979
:102030007E898A859B85AC85BD8584179507A60713
:10204000B707C1F2CE010E94160E8111D3CFC5CFC2
:102050004091090250910A0260910B0270910C02AA
:10206000452B462B472B21F080E00E94590AB5CF23
:1020700080618C832A853B85317080E092E0821BF1
:10208000930BADCFCF93DF93EC0161E00E94AA0FD9
:10209000882311F01D8281E0DF91CF9108952F9266
:1020A0003F924F925F926F927F928F929F92AF92E8
:1020B000BF92CF92DF92EF92FF920F931F93CF9335
:1020C000DF9300D000D01F92CDB7DEB77C015B015B
:1020D000342E5D83DC0115968C911597813009F0C3
:1020E000CEC014962C9021FECAC022FCB4C0C32CD2
:1020F000DD8022947FE027222094B22DB1702B2E18
:10210000D7011A964D915D916D917C911D97C114E7
:10211000D10409F428C15B968D919C915C97FC01D8
:1021200074807A948A019B0169E03695279517950A
:1021300007956A95D1F770228A011170711020C03D
:1021400001151105E9F416964D915D916D917C9103
:102150001997411551056105710509F099C0579608
:102160008D919D910D90BC91A02D0097A105B10579
:1021700009F0B0C0C7010E94AA0E882309F47FC0ED
:1021800080E092E0801B910B46018C159D0508F4C0
:102190004C01D7015B964D915C915C9716968D91A1
:1021A0009D910D90BC91A02D0297A109B109FA0152
:1021B000258504C0880F991FAA1FBB1F2A95D2F737
:1021C0004685578560897189840F951FA61FB71FA3
:1021D0009C01AD01270D311D411D511D29013A0101
:1021E000811432E0930609F07BC080910001909148
:1021F0000101A0910201B091030184159505A60586
:10220000B70559F48FEF9FEFDC01809300019093A5
:102210000101A0930201B0930301022D9501B301C6
:10222000A20180914202909143020E94EB0988230F
:1022300031F19EEFB91AC818D908F7018285938544
:10224000A485B585880D991DA11DB11D8287938731
:10225000A487B58755CFF701438954896589768965
:1022600082859385A485B585481759076A077B073A
:1022700009F43DCFC7010E94160E811138CF81E0CD
:1022800090E0D70113969C938E93129780E007C03D
:102290009E012F5F3F4F0E94D60C811102C090E03B
:1022A00079C089819A81AB81BC81F701238D348DFE
:1022B000F901278948EF5FEF60E070E0203121F0FD
:1022C00048EF5FEF6FEF7FE084179507A607B7072A
:1022D00008F050CFF70186839783A087B18750CF4E
:1022E0000115110599F5D7011A964D915D916D91E2
:1022F0007C911D9753968D919D910D90BC91A02D31
:10230000481759076A077B0708F181E00E947D0A98
:10231000882309F4B4CF40920001509201016092E9
:10232000020170920301809108028160809308028B
:10233000C8018B599D4FD5019C01280D391DFC0109
:102340002E173F0759F04D914193FACF41E0C30159
:10235000B2010E94A80A8111EBCF91CF281B390B43
:10236000A20EB31E68CFF70183899489A589B68927
:1023700084179507A607B70738F48481438B548BDD
:10238000658B768B80688483F701848183FD1AC016
:10239000832D9D810F900F900F900F900F90DF91E4
:1023A000CF911F910F91FF90EF90DF90CF90BF9052
:1023B000AF909F908F907F906F905F904F903F90E5
:1023C0002F90089561E0C7010E94AA0F882309F4A5
:1023D00056CFDECFCF93DF931F92CDB7DEB76983A1
:1023E00041E050E0BE016F5F7F4F0E944F100F90A1
:1023F000DF91CF910895FC01DB0112968D919C91A4
:1024000013979383828382E291E091838083149671
:102410008C911497848315968C91159785831696C5
:102420004D915D916D917C9119974683578360879B
:1024300071871A964D915D916D917C911D974287A0
:102440005387648775871E964D915D916D917C9140
:10245000519746875787608B718B52968C91529714
:10246000828B53964D915D916D917C915697438BE4
:10247000548B658B768B57964D915D916D917C91C8
:102480005A97478B508F618F728F5B968D919C917D
:10249000948F838F08950895FC01818D928D00970C
:1024A00019F061E00C94AA0F0895DC015996ED91A2
:1024B000FC913097B9F083899489A589B6894285C2
:1024C000538564857585841B950BA60BB70B811509
:1024D00020E89207A105B10538F08FEF9FE7A0E053
:1024E000B0E0089590E080E00895DC0159968D9168
:1024F0009C91009739F0DC01ED91FC910480F5810D
:10250000E02D099490E080E00895CF93DF93EC01F3
:10251000E98DFA8D309749F481E090E09B838A83BE
:1025200090E080E0DF91CF91089513821282898D2F
:102530009A8D0E944F10E98DFA8D22813381232BD1
:1025400059F7F0CFCF93DF931F92CDB7DEB76983F2
:10255000DC01ED91FC910280F381E02D41E050E03F
:10256000BE016F5F7F4F09950F90DF91CF91089566
:102570002F923F924F925F926F927F928F929F9293
:10258000AF92BF92CF92DF92EF92FF920F931F9381
:10259000CF93DF9300D01F92CDB7DEB7FC018581CA
:1025A000811118C08FEF9FEF0F900F900F90DF9168
:1025B000CF911F910F91FF90EF90DF90CF90BF9040
:1025C000AF909F908F907F906F905F904F903F90D3
:1025D0002F900895848180FFE5CF438954896589D0
:1025E000768982859385A485B585312C212C481761
:1025F00059076A077B0719F022242394312C6F01B5
:102600002101CE0101963C01DF011696BB83AA830E
:102610004114510409F4C5C0F6014285538564850F
:1026200075854A01F1E09F22D6015B968D919C91C0
:102630005C978A019B01E9E03695279517950795E8
:10264000EA95D1F71596EC91E230E9F5FC01628D3F
:10265000738D848D958D600F711F821F931FA12C28
:1026600022E0B22EA818B9084A145B0408F45201FB
:10267000F601248126FD04C0A114F2E0BF0671F426
:10268000009100011091010120910201309103019C
:10269000061717072807390709F05EC040E00E94B7
:1026A000A80A882309F47ECFC4018B599D4FD3011A
:1026B0009C012A0D3B1DFC012E173F0709F46CC03D
:1026C00041914D93F9CFDC011496BC90BA94B0229D
:1026D0008114910479F4B1100DC0452B462B472B82
:1026E00069F5F6018789908DA18DB28D86839783D8
:1026F000A087B187D6015B96ED91FC915C97169609
:102700006D917D918D919C9119976250710981090C
:102710009109258504C0660F771F881F991F2A9588
:10272000D2F70685178520893189600F711F821FB6
:10273000931F6B0D711D811D911D91CFD6011696B2
:102740004D915D916D917C9119972A813B810E94F9
:10275000D60C8111CFCF26CF730185019401AB0137
:10276000BC0180914202909143020E944909882352
:1027700009F418CF6A0C7B1CF60182859385A48529
:10278000B5858A0D9B1DA11DB11D82879387A487E6
:10279000B5874A185B083CCF281B390B620E731EA5
:1027A000EBCF2A94232809F0FDCE898190E0FCCE5E
:1027B000FC01818D928D009711F00C94B8128FEF6F
:1027C0009FEF08950F931F93CF93DF93EC01898DB3
:1027D0009A8D10E000E0009799F00E94B8128C01E9
:1027E0000F3F100769F0898D9A8DFC014285538552
:1027F0006485758541505109610971090E94160E61
:10280000C801DF91CF911F910F9108950895089508
:10281000CF93CFB7F89480910602811127C0E3E1EE
:10282000F7E08491E5EFF6E09491E82FF0E0EE0F09
:10283000FF1FEC50FA4FA591B491EC91E92321F4DC
:1028400061E08AE00E94E60361E08AE00E941404ED
:102850008CB580618CBD8CB580648CBD61E08DE0F1
:102860000E94140461E08BE00E941404809106022F
:102870008F5F80930602CFBFCF9108952091E3012F
:10288000260F3327331F21323105ECF42091C20487
:10289000FC0190E080E0243069F082E00895A0918E
:1028A000E3012191AC014D535E4FA40FB52FB11D33
:1028B0002C930196861798F38091E301680F60933B
:1028C000E30180E0089581E008951092C20481E060
:1028D0008093C10410929C0461E082E10E94E603AF
:1028E00061E083E10E94E603E9EBF0E080818E7F06
:1028F000808380818D7F808388E48093B80085E425
:102900008093BC00089510927B0410927A04109278
:10291000C9041092EB040E9465148BEB93E0909332
:102920007904809378048CEB93E090937704809300
:1029300076040895CF93DF9391E09093C2018823AA
:10294000B9F0C091B800D091BA008091BC008A7BE8
:102950008093BC0060E082E10E94E60360E083E1D6
:102960000E94E6030E946514D093BA00C093B80099
:10297000DF91CF9108958F929F92AF92BF92CF92A5
:10298000DF92EF92FF920F931F93CF93DF93D0913B
:10299000EB04D13208F0D7C0182FC091EA040E948E
:1029A00095066B017C018091C20481116BC082E0AD
:1029B0008093C2041093C1048FEF8093C0041092DF
:1029C000BF04D093BE04AAECB4E0EEE9F4E080E0EA
:1029D000D81391C010929D0480919D04CC0FC82BF8
:1029E000C0939D0480919C04813009F088C01092AE
:1029F0009C040E9495066B017C0180919D0480934C
:102A0000BB008091C4049091C504A091C604B0910C
:102A1000C704892B8A2B8B2BA1F00E94950600916D
:102A2000C4041091C5042091C6043091C7046C19E8
:102A30007D098E099F09061717072807390708F42B
:102A400042C08091BC0083FDD8CF85EC8093BC0050
:102A50000E9495066B017C018091C204823009F4CA
:102A600050C08091C0048F3F09F46FC08091C004B2
:102A7000803209F46CC08091C004803309F469C0CD
:102A800084E026C08091C4049091C504A091C6043E
:102A9000B091C704892B8A2B8B2B09F484CF0E9419
:102AA00095068090C4049090C504A090C604B09090
:102AB000C7046C197D098E099F0986169706A8061A
:102AC000B90608F070CF8091C3040E949A1485E083
:102AD0001092C9041092EB041092C804DF91CF91B8
:102AE0001F910F91FF90EF90DF90CF90BF90AF902C
:102AF0009F908F9008959D9191938F5F69CF85EE00
:102B0000A5CF8091C4049091C504A091C604B09152
:102B1000C704892B8A2B8B2B09F49ECF0E94950624
:102B20000091C4041091C5042091C6043091C704DB
:102B30006C197D098E099F090617170728073907A1
:102B400008F08ACFC0CF81E0C3CF80E0C1CF82E060
:102B5000BFCF83E0BDCF1F93CF93DF93EA01122F46
:102B6000DC0111968D919C91DC01ED91FC9102802C
:102B7000F381E02D0995C817D90729F4812F0E9408
:102B8000BB1491E0811190E0892FDF91CF911F91CB
:102B90000895CF93DF93EC018B818823A1F0888186
:102BA00091E09093C8048093EA041092C9041092B3
:102BB000EB0481E00E94BB1491E0811190E0892F29
:102BC000DF91CF9108950E94831481E08B83CE0121
:102BD0000E94C915982F8111E2CFF1CF8F929F9259
:102BE000AF92BF92CF92DF92EF92FF920F931F931B
:102BF000CF93DF93D82FC62F142F613208F09CC0DB
:102C00000E9495066B017C018091C20481116FC006
:102C100081E08093C2041093C1049FEF9093C0049D
:102C20001092BF049C0F9093BE0480939D048091EA
:102C30009D04DD0FD82BD0939D0480919C0481309E
:102C400009F07CC010929C040E9495066B017C01E7
:102C500080919D048093BB008091C4049091C50431
:102C6000A091C604B091C704892B8A2B8B2BA1F0AD
:102C70000E9495060091C4041091C5042091C604D9
:102C80003091C7046C197D098E099F090617170733
:102C90002807390708F44CC08091BC0083FDD8CFC9
:102CA00085EC8093BC000E9495066B017C018091AD
:102CB000C204813009F444C08091BF048C1710F421
:102CC000C091BF04EEE9F4E0ACE7B4E080E08C131F
:102CD00059C08C2FDF91CF911F910F91FF90EF90F2
:102CE000DF90CF90BF90AF909F908F90089580918C
:102CF000C4049091C504A091C604B091C704892B67
:102D00008A2B8B2B09F480CF0E9495068090C404F7
:102D10009090C504A090C604B090C7046C197D09BA
:102D20008E099F0986169706A806B90608F06CCF8B
:102D30008091C3040E949A14C0E0CBCF85EEB1CF3E
:102D40008091C4049091C504A091C604B091C704B9
:102D5000892B8A2B8B2B09F4AACF0E949506009110
:102D6000C4041091C5042091C6043091C7046C19A5
:102D70007D098E099F09061717072807390708F0EC
:102D800096CFD6CF91919D938F5FA1CF0895E0917B
:102D90007B0480917A04E81730F4F0E0E458FB4FAC
:102DA000808190E008958FEF9FEF089590917B04CC
:102DB00080917A042FEF3FEF981748F4E92FF0E065
:102DC000E458FB4F208130E09F5F90937B04C90162
:102DD000089580917A0490917B04891B990B089542
:102DE000CF92DF92EF92FF920F931F93CF93DF93D7
:102DF0007C01CB018A012091C804222389F0EB01D8
:102E00006B01C40ED51ECC15DD0569F06991D701A3
:102E1000ED91FC910190F081E02DC7010995F3CF70
:102E2000642F0E943E14C801DF91CF911F910F9132
:102E3000FF90EF90DF90CF900895CF93DF931F9294
:102E4000CDB7DEB769832091C8042223F9F0209121
:102E5000EB04203258F021E030E0FC013383228380
:102E600090E080E00F90DF91CF9108958091C904A8
:102E7000E82FF0E0E653FB4F998190838F5F8093BA
:102E8000C9048093EB0481E090E0ECCF61E0CE01D7
:102E900001960E943E14F7CF90E080E008954CED3B
:102EA00055E060E070E088EE93E00E94500460E43A
:102EB00076E080E090E00C94BA060F931F93CF93D6
:102EC000DF9300D0CDB7DEB76A83E0919D05F09126
:102ED0009E053097F9F0898384819581029798F057
:102EE000808191E09093C8048093EA041092C90411
:102EF0001092EB0421E042E050E0BE016F5F7F4F93
:102F0000CF010E94AB150F900F90DF91CF911F91D1
:102F10000F9108958F77898300919F051091A005E7
:102F2000C8010E9494086981C8010E94B4056A81A1
:102F3000C8010E94B405C8010E945908E4CFCF938C
:102F4000DF93C7ECD5E08770886E8883E6ECF5E008
:102F5000962F9770990F990F990F8081807C242F5D
:102F60002770892B822B808395E0440F551F9A95FB
:102F7000E1F787FB882780F9482B660F771F660FDC
:102F8000771F642B85EF0E945D178881682F67701B
:102F900090E2699FB0011124282F26952695269549
:102FA000277094E0299F90011124622B82958695C9
:102FB00086958370682B84EFDF91CF910C945D1719
:102FC0005F926F927F928F929F92AF92BF92CF92B9
:102FD000DF92EF92FF920F931F93CF93DF93DC0169
:102FE0001496ED91FC911597EF2B09F465C06901DA
:102FF0003A01EC01888191E09093C8048093EA043F
:103000001092C9041092EB0420E041E050E0CD01A1
:103010000E94AB15582E882309F44EC0F12CE12CE8
:103020008C819D8186010E191F098017910708F474
:103030008C0141E0C601801B910BE816F90608F4EB
:1030400040E0602F013208F060E288810E94EE15B6
:1030500010927B0480937A048017110669F543016E
:103060008E0C9F1C5401C50188199909801791077E
:1030700068F489819A81DC01ED91FC910284F385E9
:10308000E02D0995F50181935F01EDCFE00EF11E72
:10309000EC14FD0428F2852DDF91CF911F910F9143
:1030A000FF90EF90DF90CF90BF90AF909F908F9068
:1030B0007F906F905F900895512CEDCFCF93DF9369
:1030C00000D0CDB7DEB7E0919D05F0919E058983D4
:1030D00022E030E0AE014F5F5F4FBA01309751F010
:1030E000CF010E94E01789819A810F900F90DF91A4
:1030F000CF91089580919F059091A0050E94AC0802
:10310000F2CFCF93DF9300D01F92CDB7DEB7FC0193
:1031100082819381698323E030E0AE014F5F5F4F8E
:10312000BA010097A1F00E94E01729816A8170E03E
:1031300090E080E0982F872F762F6627822B2B81B7
:10314000622B0F900F900F90DF91CF9108958481A3
:1031500095810E94AC08E9CF8F929F92AF92BF9267
:10316000CF92DF92EF92FF920F931F93CF93DF9353
:10317000FC014385548565857685452B462B472B79
:1031800009F479C0EC016AEF0E9481180B891C894F
:1031900030E020E0C72ED82EE92EFF24E7FCFA9479
:1031A000C01AD10AE20AF30A57E0959587957795F8
:1031B00067955A95D1F7000F111F221F331F4B013E
:1031C0005C01801A910AA20AB30AA5019401AD8993
:1031D000BE890E9447314B015C01FBE0B594A79486
:1031E00097948794FA95D1F7A7019601C701B60184
:1031F0000E94D7309B01AC01ACE0559547953795BF
:103200002795AA95D1F7AF89B88D0E9447319B01C8
:10321000AC01BEE05595479537952795BA95D1F7FE
:10322000280D391D4A1D5B1D2F87388B498B5A8B02
:10323000A5E0B0E00E943C3160587F4F8F4F9F4F18
:10324000672F782F892F992787FD9A950E9416342A
:1032500020E030E048EC52E40E946D33DF91CF91E2
:103260001F910F91FF90EF90DF90CF90BF90AF90A4
:103270009F908F90089560E070E080EC9FE7EECF24
:103280002F923F924F925F926F927F928F929F9276
:10329000AF92BF92CF92DF92EF92FF920F931F9364
:1032A000CF93DF93CDB7DEB76D970FB6F894DEBF3F
:1032B0000FBECDBF9D8F8C8F0E94AC1867EF8C8D99
:1032C0009D8D0E948118688F798F8A8F9B8FEC8DDE
:1032D000FD8D87859089A189B2896C017D01FF0CE4
:1032E000CC08DC2C76019C01AD016C2D7C2D8C2D45
:1032F0009C2D345F4140510961097109810991098F
:1033000029873A874B875C873B014C0159016A0149
:103310007B018C010E944F31322E232E4A8B5B8B16
:103320006C8B7D8B8E8B9F8BAC8DBD8D5C963C9119
:103330005C975B962C91932F990F990B492F592FDE
:10334000692F792F892F0E944F310CE00E947E3225
:10335000522E39834D875E876F87788B898B492EF4
:10336000EC8DFD8D368D258D932F990F990BA32C08
:10337000B22CCA88DB88EC88FD880E891F89492F0A
:10338000592F692F792F892F0E944F3108E00E9411
:103390009732A52CB980CD84DE84EF84F888098922
:1033A000142D0E94B43270588F4F9F4FAC8DBD8D3D
:1033B0005996ED91FC915F01D12CC12CE12CF12C9F
:1033C0008701E983BA82CB82DC82ED82FE820F83A1
:1033D0001887C12CD12CE12CF12C00E010E00E94C8
:1033E0004F3101E20E9497322983532E4D875E8729
:1033F0006F87788B898B492EA0E00E94C63209F432
:103400003DC1AC8DBD8D94963C91949793962C9133
:10341000932F990F990BA32CB22CCA88DB88EC88C8
:10342000FD880E891F89492F592F692F792F892FE0
:103430000E944F3119014A8B5B8B6C8B7D8B8E8B7D
:103440009F8BEC8DFD8D32A121A1932F990F990BAC
:10345000A984BA84CB84DC8473018401492F592F59
:10346000692F792F892F0E944F3101E10E947E320E
:103470005101CA88DB88EC88FD880E891F890E946B
:10348000B43259016A017B01282E192F488D598DBC
:103490006A8D7B8D84E075956795579547958A95DC
:1034A000D1F780E090E0A0E1B0E0841B950BA60B83
:1034B000B70B3C014D01990C6608762C43019C0129
:1034C000AD01662D762D862D962D0FE10E947E3260
:1034D000722E832E942E652EB62FA72F382E998705
:1034E000EC8DFD8D30A1278D932F990F990B492FCE
:1034F000592F692F792F892F03E20E947E32022DE6
:103500000E94B43259016A017B018C01272D382DAC
:10351000492D562D6B2F7A2F832D99850E94BD3210
:10352000E5E3AE2EFCE0BF2EC12CD12CE12CF12C1A
:1035300000E010E00E944F31A980B52CCD84DE84DC
:10354000EF84F8880989142D0E94A93129873A87C8
:103550004B875C8769837D878E879F870DE00E94FC
:103560009732922E832E742E652E562E472E382E8D
:10357000292EAC8DBD8D9A963C919A9799962C9157
:10358000932F990F990BA92CB82CC72CD62CE52C6E
:10359000F42C032D122D492F592F692F792F892FA4
:1035A0000E944F310E944F3109E10E949732A98455
:1035B000BA84CB84DC84E980FD840E851F850E945B
:1035C000B43219012A013B014C01EC8DFD8D30A56F
:1035D00027A1932F990F990B492F592F692F792FD5
:1035E000892F0E944F3103E10E94973259016A01ED
:1035F0007B018C019101A201B301C4010E94B4328C
:1036000008E00E94973259016A017B01E82F192FC7
:10361000AC8DBD8D96963C91969795962C91932F57
:10362000990F990B492F592F692F792F892F04E072
:103630000E947E320E2F0E94B4320E940E3420E08F
:1036400030E040E85BE30E9419356D960FB6F894C0
:10365000DEBF0FBECDBFDF91CF911F910F91FF90C5
:10366000EF90DF90CF90BF90AF909F908F907F9022
:103670006F905F904F903F902F90089560E070E0C2
:10368000CB01E3CF8F929F92AF92BF92CF92DF9206
:10369000EF92FF920F931F93CF93DF9300D000D050
:1036A000CDB7DEB7FC018581813091F080E00F90CD
:1036B0000F900F900F90DF91CF911F910F91FF907E
:1036C000EF90DF90CF90BF90AF909F908F90089534
:1036D000848181FFEBCF83899489A589B689892B61
:1036E0008A2B8B2B09F45FC07F0140E050E0BA01C8
:1036F000CF010E94160E8823C9F2F701C38CD48C27
:103700008788908CA18CB28C82E090E0A0E0B0E041
:10371000F60180839183A283B3839E012F5F3F4F85
:10372000B501A401C6010E94D60C882309F4BECFBE
:1037300000E010E09801B501A401C6010E94340C1C
:10374000882309F4B3CF89809A80AB80BC80F601CE
:103750008789803119F188EF9FEFAFEFBFE08816BE
:103760009906AA06BB06C8F2F701178A108E118EB9
:10377000128E138A148A158A168A8481806884833B
:1037800061E0C7010E94AA0F882309F48FCF40E0AF
:1037900050E0BA01C7010E94160E89CF88EF9FEF53
:1037A000A0E0B0E0DCCF81E082CFCF92DF92EF9259
:1037B000FF921F93CF93DF93EC0180E2689FF001AB
:1037C0001124EB59FD4F9385917161F0842F827420
:1037D00049F080E0DF91CF911F91FF90EF90DF9053
:1037E000CF900895142F6A8B809100019091010170
:1037F000A0910201B09103018E879F87A88BB98B9E
:10380000C488D588F12CE12C7601DD24CC24CF8A24
:10381000D88EE98EFA8E828D938DB0E0A0E0AC0157
:10382000BD014C295D296E297F294F8B588F698FE7
:103830007A8F83858871B1F4848D958DA68DB78D2F
:103840008B8B9C8BAD8BBE8B81E08D831F701C831B
:103850001E821F82188619861A861B861C861D8664
:1038600081E0B8CF803109F0B4CF9E012D5E3F4F8B
:103870008B8D9C8D0E94570D882309F4AACF84E07C
:10388000E4CF0C94AC370C94AC37CF93C091640266
:10389000CC23B1F080918D0590918E05009761F059
:1038A0000E94421080918D0590918E050E94AC3748
:1038B00010928E0510928D051092640210924402AF
:1038C0008C2FCF910895FB0101900020E9F73197EB
:1038D000AF01461B570BDC01ED91FC910280F38197
:1038E000E02D09948F929F92AF92BF92EF92FF9238
:1038F0000F931F93CF93DF93CDB7DEB7A1970FB68A
:10390000F894DEBF0FBECDBF7C01FA01CB0119A236
:10391000223008F42AE08E010F5D1F4F822E912C79
:10392000B12CA12CBF01A50194010E94FB30F9012B
:10393000CA016A300CF5605DD8016E938D01232BAE
:10394000242B252B79F790E080E0109721F0BD0122
:10395000C7010E94631CA1960FB6F894DEBF0FBE8C
:10396000CDBFDF91CF911F910F91FF90EF90BF904E
:10397000AF909F908F900895695CDECF462F50E006
:1039800070E060E02AE00C94721C2F923F924F92FC
:103990005F926F927F928F929F92AF92BF92CF92DF
:1039A000DF92EF92FF921F93CF93DF93EC016A01B6
:1039B0007B01722EAB019601CB01B6010E94D63578
:1039C0006AE671E0811126C046015701E894B7F814
:1039D0002FEF3FEF4FE75FE7C501B4010E94D635F7
:1039E00081110CC02FEF3FEF4FE75FE7C501B40136
:1039F0000E9468336EE671E0181664F02FEF3FEF17
:103A00004FE75FE4C701B6010E9414351816B4F4FD
:103A100062E771E0CE01DF91CF911F91FF90EF90AF
:103A2000DF90CF90BF90AF909F908F907F906F90DE
:103A30005F904F903F902F900C94631C2FEF3FEFBF
:103A40004FE75FECC701B6010E94683387FDE0CF06
:103A500020E030E0A901C701B6010E946833312C93
:103A6000212C87FF09C06DE2CE010E9424071C01B2
:103A7000F7FAF094F7F8F09410E060E070E080E07E
:103A80009FE3711641F020E030E040E251E40E94F3
:103A90006D331F5FF6CFA70196010E94FC322B0108
:103AA0003C010E94DF334B015C012AE0BC01A40110
:103AB000CE010E94721C7C01E20CF31C1123C1F1A7
:103AC000C501B4010E9414349B01AC01C301B201D1
:103AD0000E94FB324B015C016EE2CE010E94240782
:103AE000E80EF91E115020F120E030E040E251E4F0
:103AF000C501B4010E9419352B013C010E94DF333E
:103B00004B01B12CA12C2AE0B501A401CE010E94E9
:103B1000721CE80EF91EC501B4010E9414349B0109
:103B2000AC01C301B2010E94FB324B015C01DACF50
:103B3000C701DF91CF911F91FF90EF90DF90CF9061
:103B4000BF90AF909F908F907F906F905F904F90BD
:103B50003F902F90089566E771E00C94631CCF931B
:103B6000DF93682F8CEE94E00E94BE1CEC018CEE7B
:103B700094E00E94AB1D8C0F9D1FDF91CF910895A3
:103B80000F931F93CF93DF93EC010E942B078C01BF
:103B9000CE010E94AB1D800F911FDF91CF911F912D
:103BA0000F910895CF92DF92EF92FF920F931F93A0
:103BB000CF93DF93EC0111E01093C80488E6809363
:103BC000EA041092C9041092EB0463E08FE895E0D8
:103BD0000E941D1781E00E94BB14082F8823D1F09A
:103BE0001F8261E471E08CEE94E00E942B07802F2D
:103BF0000E94AF1D64E071E08CEE94E00E94C01D55
:103C000080E0DF91CF911F910F91FF90EF90DF90B7
:103C1000CF90089541E067E088E60E94EE15082FF6
:103C200010927B0480937A04873058F41F826AEEE6
:103C300070E08CEE94E00E942B07802F0E94AF1D55
:103C4000DFCF8FE895E00E94D616C82E8FE895E06A
:103C50000E94D616D82E8FE895E00E94D616E82E40
:103C60008FE895E00E94D616F82E8FE895E00E9426
:103C7000D6168FE895E00E94D616082F8FE895E0BB
:103C80000E94D6164C2D4F77242F30E054E0359506
:103C900027955A95E1F7322F330F330FA22FA31B2D
:103CA000AA0FA40FAE834D2D4F77242F30E064E090
:103CB000359527956A95E1F7322F330F330FF22FA1
:103CC000F31BFF0FF40FFD834E2D4F73242F30E0B5
:103CD00074E0359527957A95E1F7322F330F330F3E
:103CE000E22FE31BEE0FE40FEC832F2D2F73622FD7
:103CF00070E0B4E075956795BA95E1F7362F330F0C
:103D0000330F631B660F620F6B830F71402F50E000
:103D100024E0559547952A95E1F7242F220F220F8D
:103D2000421B440F400F4A839C0154E03595279570
:103D30005A95E1F72F703327922F990F990F291B6E
:103D4000220F280F30E02053384F39832883AC33BB
:103D500050F4FC3340F4E83130F461506F3118F422
:103D600041504C3010F01F824BCF1F8381E049CF70
:103D7000CF92DF92EF92FF921F93CF93DF93109138
:103D80006402112309F49FC0E0918D05F0918E0526
:103D9000309709F4A1C02581222309F49DC07A013E
:103DA0006B01EC014881598170E060E02AE084E712
:103DB00095E00E94721C6DE671E084E795E00E9438
:103DC0002B078A818A3030F46BE671E084E795E056
:103DD0000E942B076A8184E795E00E94BE1C69E679
:103DE00071E084E795E00E942B078B818A3030F4E4
:103DF00067E671E084E795E00E942B076B8184E71A
:103E000095E00E94BE1C65E671E084E795E00E94A3
:103E10002B078C818A3030F463E671E084E795E00B
:103E20000E942B076C8184E795E00E94BE1C61E62E
:103E300071E084E795E00E942B078D818A3030F491
:103E40006FE571E084E795E00E942B076D8184E7C0
:103E500095E00E94BE1C6DE571E084E795E00E944C
:103E60002B078E818A3030F46BE571E084E795E0B2
:103E70000E942B076E8184E795E00E94BE1C69E5D5
:103E800071E084E795E00E942B07B60184E795E096
:103E90000E94631C67E571E084E795E00E942B07B0
:103EA000B70184E795E00E94631C64E571E084E754
:103EB00095E00E942B0784E795E00E94AB1D84E704
:103EC00095E00E944C12812FDF91CF911F91FF90BE
:103ED000EF90DF90CF90089510E0F5CF3F924F9292
:103EE0005F926F927F928F929F92AF92BF92CF928A
:103EF000DF92EF92FF920F931F93CF93DF93CDB793
:103F0000DEB72B970FB6F894DEBF0FBECDBF7C0196
:103F1000FE013196CE010C966F0130E231938E177F
:103F20009F07E1F7DA0130E087E09D91B92E9923F0
:103F300009F43CC09E32F1F48A30C9F480E02B963B
:103F40000FB6F894DEBF0FBECDBFDF91CF911F91AA
:103F50000F91FF90EF90DF90CF90BF90AF909F9028
:103F60008F907F906F905F904F903F90089538E0D2
:103F70008AE0DBCFEFE6F1E04491442321F0319673
:103F80009413FACFDBCF8317C8F24FED490F4E35AC
:103F9000A8F64FE9490F4A3118F440EEB42EB90E95
:103FA000F601E30FF11DB0823F5FBFCF8981803200
:103FB00029F2322E8B01DB015B968D919C915C97EF
:103FC000F701948F838F16961D921D921D921C925D
:103FD0001997FB011286138614861586F8018285CF
:103FE0009385A485B5854389548965897689841725
:103FF0009507A607B70708F04DC025E0B695A79529
:10400000979587952A95D1F7F82FFF70AF2ED80195
:1040100015968C91823008F491CFC8010E94B81295
:1040200097FD8CCFF80182859385A485B5854F9641
:10403000A11DB11D82879387A487B587F0E2AF9E4B
:10404000B00111246B597D4F6115710509F476CFCC
:10405000DB018C91882341F0853E09F058C0BB20DC
:1040600029F0BB24B394BACFB1100EC0F701A28AD5
:104070008091000190910101A0910201B091030192
:1040800086879787A08BB18BDB018C918111E9CF5B
:10409000BB24B394832D8271823109F04FCFBB20B2
:1040A00009F443C0C7010E94F20A009709F446CF01
:1040B00020E2FC0111922A95E9F72BE0F601DC01E0
:1040C00001900D922A95E1F721E238E2DC01519648
:1040D0003C932E93509740E058E01F965C934E938C
:1040E0001E9753963C932E93529759963C932E933A
:1040F000589757965C934E93569781E00E947D0A9D
:10410000882309F41BCF432DF70162890AC04BE0D5
:1041100050E0C6010E943538892B09F05FCF432D4E
:104120006A2DC7010E94D51B0ACFF8018581823014
:1041300009F404CFC8010E94AA0E882309F4FECE18
:10414000D8015B96ED91FC915C9716968D909D90B1
:10415000AD90BC901997B2E08B1A9108A108B108F4
:10416000858504C0880C991CAA1CBB1C8A95D2F7B3
:1041700086859785A089B189880E991EAA1EBB1EC7
:10418000848124013501480E511C611C711C4814A6
:1041900059046A047B0409F1E1E04E1A51086108F0
:1041A000710881E00E947D0A882309F4C7CEE5E604
:1041B000F2E0119285E694E08E179F07D1F74092C6
:1041C00000015092010160920201709203018091FE
:1041D0000802816080930802DACFD8015B96ED91E6
:1041E000FC91258580E092E0A0E0B0E004C0880F5B
:1041F000991FAA1FBB1F2A95D2F7F801438954893A
:1042000065897689840F951FA61FB71F838B948BB2
:10421000A58BB68BD70152961C9285E692E048CFCB
:104220000F931F93CF93DF938C01EB01FB01349627
:1042300080E2DF011D928A95E9F784E290E0A0E038
:10424000B0E088839983AA83BB83F801828193813C
:10425000092E000CAA0BBB0B8C839D83AE83BF83FE
:1042600086E090E0A0E0B0E088879987AA87BB87C6
:104270000E94EC06688B798B8A8B9B8BD8011496F5
:104280008D919C91FC014385548565857685452BF0
:10429000462B472B91F00E94401920E030E048EC7B
:1042A00052E40E946D336C8B7D8B8E8B9F8B81E0F3
:1042B000DF91CF911F910F91089560E070E080EC45
:1042C0009FE7EBCF0F931F93CF93DF938C01EB010D
:1042D00088E2FB0111928A95E9F74BE050E069E72B
:1042E00071E0CE010E9452381B8681E090E0A0E090
:1042F000B0E08C879D87AE87BF87F801828193816C
:10430000092E000CAA0BBB0B888B998BAA8BBB8B3D
:1043100086E090E0A0E0B0E08C8B9D8BAE8BBF8BF5
:104320001CA21DA21EA21FA280E090E0A6E9B3E499
:104330008C8F9D8FAE8FBF8F80E090E8A9E8B4E4AA
:10434000888F998FAA8FBB8F86EA9BE9A4E4BCE390
:1043500088A399A3AAA3BBA3DF91CF911F910F912B
:1043600008950F931F93CF93DF938C01EB01FB0113
:10437000349680E2DF011D928A95E9F784E290E0AD
:10438000A0E0B0E088839983AA83BB83F80182818F
:104390009381092E000CAA0BBB0B8C839D83AE83EB
:1043A000BF838DE090E0A0E0B0E088879987AA877E
:1043B000BB870E94EC06688B798B8A8B9B8BD8011C
:1043C00014968D919C910E94AC186C8B7D8B8E8B7A
:1043D0009F8B81E0DF91CF911F910F9108950F93F3
:1043E0001F93CF93DF938C01EB0188E2FB011192C5
:1043F0008A95E9F74BE050E069E771E0CE010E9451
:1044000052381B8681E090E0A0E0B0E08C879D8769
:10441000AE87BF87F80182819381092E000CAA0B19
:10442000BB0B888B998BAA8BBB8B8DE090E0A0E0B7
:10443000B0E08C8B9D8BAE8BBF8B1CA21DA21EA2ED
:104440001FA280E090E0A0E2B2EC8C8F9D8FAE8F37
:10445000BF8F80E090E0AAEAB2E4888F998FAA8F9C
:10446000BB8F8AE097EDA3E2BCE388A399A3AAA33C
:10447000BBA3DF91CF911F910F910895EF92FF920F
:104480000F931F93CF93DF93EC017B018A011B8273
:104490001A8288EE93E0A0E0B0E08C839D83AE8327
:1044A000BF8380E491E0998388838DE190E00E944E
:1044B00010379A8F898F009779F02DE1F701DC0191
:1044C00001900D922A95E1F74CE050E0B801CE0141
:1044D0000C960E945238188EDF91CF911F910F9148
:1044E000FF90EF900895EF92FF921F93CF93DF9389
:1044F000CDB7DEB7C257D1090FB6F894DEBF0FBEF5
:10450000CDBF109164021123A9F067ED76E08CEE27
:1045100094E00E94C01D10E0812FCE58DF4F0FB6EF
:10452000F894DEBF0FBECDBFDF91CF911F91FF90FA
:10453000EF90089565EC76E08CEE94E00E942B07F6
:1045400060E871E08CEE94E00E94631C8CEE94E0D5
:104550000E94AB1D1C821B8282E2E82E81E0F82EB5
:10456000FA82E9821E82CE0101960E94C20DBE012E
:104570006F5F7F4FCE01CB960E94FB1119A218A24C
:10458000FF8EEE8E1BA221968FAD2197811166C002
:104590006C961FAE1EAE6C9788EE93E0A0E0B0E084
:1045A000A0968CAF9DAFAEAFBFAFA09780E491E077
:1045B0006A969FAF8EAF6A97E3961FAE1EAEE397E3
:1045C000A5961FAEA5976C968EAD9FAD6C979093F8
:1045D000770580937605A0968CAD9DADAEADBFAD51
:1045E000A0978093780590937905A0937A05B0936E
:1045F0007B05A4968CAD9DADAEADBFADA497809369
:104600007C0590937D05A0937E05B0937F05A8E57A
:10461000B0E0AC0FBD1F1C96E0E8F5E08D918193F2
:1046200085E0ED38F807D1F7E396EEADFFADE397FF
:10463000F0938E05E0938D05309719F085818111F7
:1046400038C06DEA76E08CEE94E00E94C01D63E90C
:1046500076E08CEE94E00E94C01D5ECF27E140E83A
:1046600051E0BE01655C7F4FCE014E960E946E1FE9
:10467000882309F48DCFCE01CB960E94421049A920
:104680005AA96BA97CA9CE014E960E94160EBE01B6
:10469000625E7F4FCE0101960E94FB1140E851E01F
:1046A000BE016F5F7F4FCE01885A9F4F0E943E220E
:1046B0008ACF66E776E08CEE94E00E94C01DE09120
:1046C0008D05F0918E05309751F083899489A589E5
:1046D000B68962E176E0892B8A2B8B2B41F46DE45D
:1046E00076E084E795E00E94C01D61E376E08CEE01
:1046F00094E00E94C01D81E0809364024FE150E08D
:1047000060E871E084E492E00E9452381092630203
:1047100011E002CF85ED8093BC008091C40490919C
:10472000C504A091C604B091C7040796A11DB11D90
:1047300023E0B695A795979587952A95D1F720916F
:10474000BC0024FD03C01092C20408954091C4042B
:104750005091C5046091C6047091C704452B462B47
:10476000472B69F30097A105B10541F02AE22A958C
:10477000F1F700C00197A109B109E1CF8091C3040D
:104780000C949A141F920F920FB60F9211242F932C
:104790003F938F939F93AF93BF9380913A029091F1
:1047A0003B02A0913C02B0913D023091390223E0DE
:1047B000230F2D3758F50196A11DB11D2093390205
:1047C00080933A0290933B02A0933C02B0933D0247
:1047D00080913E0290913F02A0914002B09141022F
:1047E0000196A11DB11D80933E0290933F02A093BC
:1047F0004002B0934102BF91AF919F918F913F9141
:104800002F910F900FBE0F901F90189526E8230F41
:104810000296A11DB11DD2CF1F920F920FB60F921B
:1048200011242F933F934F935F936F937F938F93B5
:104830009F93AF93BF93EF93FF9380916A049091FE
:104840006B04A0916C04B0916D04892B8A2B8B2B87
:10485000D1F190916504E0916604F0916704808144
:104860008927808380916A0490916B04A0916C04E5
:10487000B0916D04181619061A061B069CF4809157
:104880006A0490916B04A0916C04B0916D0401973F
:10489000A109B10980936A0490936B04A0936C04FE
:1048A000B0936D04FF91EF91BF91AF919F918F9164
:1048B0007F916F915F914F913F912F910F900FBE1C
:1048C0000F901F901895809105010E94F806EACF7D
:1048D0001F920F920FB60F9211242F933F934F9375
:1048E0005F936F937F938F939F93AF93BF93EF9358
:1048F000FF938CEE94E00E94CC07FF91EF91BF9163
:10490000AF919F918F917F916F915F914F913F9167
:104910002F910F900FBE0F901F9018951F920F921E
:104920000FB60F9211242F938F939F93EF93FF93C2
:10493000E091FC04F091FD048081E0910205F0918A
:10494000030582FD1BC09081809105058F5F8F70EC
:1049500020910605821741F0E0910505F0E0E45151
:10496000FB4F958F80930505FF91EF919F918F915C
:104970002F910F900FBE0F901F9018958081F4CF4C
:104980001F920F920FB60F9211242F933F934F93C4
:104990005F936F937F938F939F93AF93BF93EF93A7
:1049A000FF938091B900887F803609F44AC0F0F502
:1049B000883209F4A7C018F5803109F49BC0B8F417
:1049C000882309F4F9C0883009F494C0FF91EF916D
:1049D000BF91AF919F918F917F916F915F914F9117
:1049E0003F912F910F900FBE0F901F901895883117
:1049F00009F488C0803251F78093C00414C0803419
:104A000009F49DC040F48033B9F38833F9F68093FC
:104A1000C00485ECB0C0803509F485C0883509F440
:104A200096C0883499F60E948A23D0CF883909F439
:104A30008CC038F5883729F050F4883611F080376B
:104A400029F683E08093C2041092050257C088388B
:104A500009F47BC0803919F0803809F0B7CF809114
:104A60000502803208F071C0E091050281E08E0FEE
:104A7000809305028091BB00F0E0EB51FE4F8083F4
:104A80003DC0803B39F0E0F4803A09F479C0883ABF
:104A900009F09CCF84E08093C2041092E40110924C
:104AA000E301E0917804F091790409958091E301A4
:104AB00081110FC081E08093E3011092C30109C00E
:104AC000803C09F4A6CF883C09F4A3CF883B09F0C9
:104AD0007DCFE091E40181E08E0F8093E401F0E06E
:104AE000ED53FE4F80818093BB009091E401809153
:104AF000E30129C080919D048093BB0085EC8093E5
:104B0000BC0064CF9091BF048091BE04981758F503
:104B1000E091BF0481E08E0F8093BF04F0E0E25685
:104B2000FB4F8081E9CFE091BF0481E08E0F80933D
:104B3000BF048091BB00F0E0E256FB4F8083909170
:104B4000BF048091BE049817C8F285E8D8CFE091E1
:104B5000BF0481E08E0F8093BF048091BB00F0E022
:104B6000E256FB4F80838091C10481115CCF81E0CC
:104B700080939C0484EA8093BC001092C20426CFE8
:104B800085EC8093BC001092C204809105028032B3
:104B900030F4E0910502F0E0EB51FE4F108260919D
:104BA000050270E0E0917604F091770485EE91E0E3
:104BB0000995109205020ACF1092C00434CFCF930A
:104BC000DF93ECEEF4E01382128248EE53E060E0F3
:104BD00070E0448355836683778380E191E091831D
:104BE000808385EC90E09587848784EC90E09787BC
:104BF000868780EC90E0918B808B81EC90E0938BAA
:104C0000828B82EC90E0958B848B86EC90E0978B86
:104C1000868B118E128E138E148EE9E2F5E080E5FC
:104C200080831182EBE2F5E01582168211861386ED
:104C300082E090E0A0E0B0E084879587A687B78700
:104C400013A215A614A682E291E093A782A717A645
:104C5000AFE8B5E013961C921E92129714964D93EE
:104C60005D936D937C9317978EE291E011969C93E0
:104C70008E93E4E7F5E013821282448355836683C2
:104C8000778380E491E091838083128E118E148665
:104C9000CBE9D5E01B821A821D821C821B861C86F2
:104CA0001D861E861BA61CA6B983A88386E090E0FD
:104CB0000E941037FC0180E691E09183808388E1B7
:104CC00091E093838283D583C483FF83EE8386E060
:104CD00090E00E941037FC0182E591E0918380838F
:104CE00013821282D583C483F987E887DF91CF913D
:104CF0000895CF93DF93CDB7DEB7C759D1090FB66B
:104D0000F894DEBF0FBECDBF789484B5826084BDB9
:104D100084B5816084BD85B5826085BD85B58160BF
:104D200085BD80916E00816080936E00109281003D
:104D300080918100826080938100809181008160F8
:104D400080938100809180008160809380008091B9
:104D5000B10084608093B1008091B0008160809345
:104D6000B00080917A00846080937A0080917A000C
:104D7000826080937A0080917A00816080937A00CB
:104D800080917A00806880937A001092C100E0914F
:104D9000FC04F091FD0482E08083E091F804F0913E
:104DA000F9041082E091FA04F091FB0480E1808321
:104DB00010920405E0910005F091010586E08083E2
:104DC000E091FE04F091FF04808180618083E09196
:104DD000FE04F091FF04808188608083E091FE04EE
:104DE000F091FF04808180688083E091FE04F0915F
:104DF000FF0480818F7D808367E074E08CEE94E017
:104E00000E94C01D62E084E00E94140469EF73E018
:104E10008CEE94E00E94C01D61E087E00E941404C3
:104E200060E087E00E94E6036BEE73E08CEE94E0B6
:104E30000E94C01D0E94081460EE73E08CEE94E0A6
:104E40000E94C01D0E94831411E01093C80488E6DC
:104E50008093EA041092C9041092EB0481E00E944E
:104E6000BB14882309F447C11092380261ED73E046
:104E70008CEE94E00E94C01D0E944F178091380272
:104E8000882309F453C0CE0101960E94D21D8823C5
:104E900009F473C16BEB73E08CEE94E00E942B0776
:104EA00049815A8170E060E02AE08CEE94E00E9433
:104EB000721C69EB73E08CEE94E00E942B076B810F
:104EC0008CEE94E00E94BE1C67EB73E08CEE94E0E5
:104ED0000E942B076C818CEE94E00E94BE1C65EB57
:104EE00073E08CEE94E00E942B076D818CEE94E0D1
:104EF0000E94BE1C63EB73E08CEE94E00E942B07D3
:104F00006E818CEE94E00E94BE1C61EB73E08CEE2F
:104F100094E00E942B078F810E94AF1D89819A81A6
:104F200060E973E0883E974008F429C16CE272E0C2
:104F30008CEE94E00E94C01D00919F051091A00589
:104F40000115110509F020C180919D0590919E05E4
:104F5000009711F00E94AC3786E090E00E94103775
:104F60008C0180919B0590919C0527E7D8012C939B
:104F700012969C938E93119713961C92139780E22E
:104F800090E015969C938E93149710939E05009332
:104F90009D050E94831481E0F8018383C8010E946B
:104FA000C915811109C166EC71E08CEE94E00E9494
:104FB000C01D68EB71E08CEE94E00E94C01D6CEAAD
:104FC00071E08CEE94E00E94C01D60EA71E08CEE0E
:104FD00094E00E94C01D6CE871E08CEE94E00E94A9
:104FE000C01D6FE771E08CEE94E00E94C01D10922E
:104FF00037026DE573E08CEE94E00E94C01D0E94C4
:105000004F1766E872E08CEE94E00E942B072AE0CE
:1050100049E050E060E070E08CEE94E00E94721C89
:105020008CEE94E00E94AB1D80915A05882321F0FC
:1050300085E595E00E9442101092360510923405E5
:10504000109231051092300589E080932F050E945F
:10505000EC068B0161E080912F050E94140461E051
:1050600080912F050E94E6030E94081482E5809338
:10507000290510922A058091290590912A050E9400
:1050800091084AE0F42E8FEF0E946C08FA94F11018
:10509000FACF8BE295E00E94D60820E030E0A9012B
:1050A00060E08BE295E00E94EC08F82E80933505D5
:1050B000F1E08F1709F475C10E94EC06601B710BBB
:1050C000613D774050F381E0809330058BE295E0BD
:1050D0000E9461086CE672E08CEE94E00E94C01DB4
:1050E0001092300269E373E08CEE94E00E94C01DE0
:1050F0000E944F17DFC11093C8041092C904109288
:10510000EB0460E08FE895E00E941D1781E00E94AB
:10511000BB1441E061E088E60E94EE1510927B042A
:1051200080937A048FE895E00E94D616082F85FDBB
:1051300009C01093380266EC73E08CEE94E00E9494
:10514000C01D9CCE1093C8041092C9041092EB04A9
:1051500060E08FE895E00E941D17602F6F7D8FE85B
:1051600095E00E941D1781E00E94BB146AE070E088
:1051700080E090E00E94BA06DCCF62E773E08CEE3C
:1051800094E00E94C01DD2CED8011B968C918F3F17
:1051900041F061E00E94140461E0F80183850E94FF
:1051A000E603D8018D919C91892B09F4C0C00E941F
:1051B000081481E0F801838F80919D0590919E05F0
:1051C000009709F4DFC020ED298321E030E0AE0133
:1051D0004F5F5F4FBA010E94E017898190E0B0E015
:1051E000A0E08093A6059093A705A093A805B0938F
:1051F000A90588359105A105B10509F0D4CE88E847
:105200000E945E189093AF058093AE058AE80E94D5
:105210005E189093B1058093B0058CE80E945E18EB
:105220009093B3058093B2058EE80E945E18909328
:10523000B5058093B40580E90E945E189093B70588
:105240008093B60582E90E945E189093B905809319
:10525000B80584E90E945E189093BB058093BA0557
:1052600086E90E945E189093BD058093BC0588E98D
:105270000E945E189093BF058093BE058AE90E9444
:105280005E189093C1058093C0058CE90E945E185A
:105290009093C3058093C2058EE90E945E18909397
:1052A000C5058093C4058091A6059091A705A0919E
:1052B000A805B091A905892B8A2B8B2B41F050E0D2
:1052C00040E070E060E085E090E00E949F1764E6B7
:1052D00070E080E090E00E94BA0667E072E08CEE39
:1052E00094E00E94C01D8091A6059091A705A09111
:1052F000A805B091A905892B8A2B8B2B41F044E09E
:1053000050E064E070E082E090E00E949F176FEE52
:1053100071E08CEE94E00E94C01D81E08093370222
:105320006CE473E08CEE94E00E94C01D6ACE61E0F4
:10533000F80184850E941404D8011A968C911A975A
:105340008B7FE1F460E01C968C910E94E603D8010B
:105350001D968C918F3F41F061E00E94140461E042
:10536000F80185850E94E603D8011E968C918F3F37
:1053700009F41FCF60E00E9414041BCF61E0F80124
:105380008485E3CF80ED898321E030E0AE014F5F7B
:105390005F4FBA0180919F059091A0050E94AC08D3
:1053A0001CCF2AEA31E040E050E068E08BE295E073
:1053B0000E94EC0882FF2AC0F092360580913605E3
:1053C000C12CD12CE12C20E4F22E823019F0C12C1A
:1053D000D12C760120E030E0A90167E38BE295E073
:1053E0000E94EC08A701960169E28BE295E00E9419
:1053F000EC08809335058823D1F00E94EC06601BF1
:10540000710B613D774030F388E05ECE34E0F32EDF
:105410000E94730880933505FA94F110F9CF8A3A07
:1054200011F082E051CE82E080933605C7CF8091A3
:1054300036058230D1F420E030E0A9016AE38BE246
:1054400095E00E94EC08882311F086E03DCE0E9492
:105450007308807C803C19F483E0809336050E94B9
:1054600073080E9473080E9473088BE295E00E9403
:10547000610880E58093290510922A0581E00E9449
:105480000B0B882309F463C385E595E00E94C20DE8
:10549000882309F41FCE6EE472E08CEE94E00E9443
:1054A000C01D81E0809330026AE273E08CEE94E0EC
:1054B0000E94C01D6AE173E08CEE94E00E94C01D62
:1054C00064E173E08CEE94E00E942B078091380237
:1054D00065E073E0811102C06EEF72E08CEE94E043
:1054E0000E94C01D68E073E08CEE94E00E942B07E0
:1054F0008091370261EF72E0811102C06AEE72E0C2
:105500008CEE94E00E94C01D64EF72E08CEE94E09B
:105510000E942B078091300266ED72E0811102C07B
:105520006FEC72E08CEE94E00E94C01D69ED72E0B9
:105530008CEE94E00E94C01D8091300269EC72E014
:10554000811102C06FEB72E08CEE94E00E94C01DEE
:1055500064EA72E08CEE94E00E94C01DCE010196D8
:105560001C01DE01D196C357DF4FB983A883CD5804
:10557000D04080913802882309F4F0C2CE018B57C5
:105580009F4F0E94D21D882309F4E8C2C557DF4F00
:105590008881CB58D0401F928F93C657DF4F8881A8
:1055A000CA58D0401F928F93C757DF4F8881C95880
:1055B000D0401F928F93C857DF4F8881C858D04082
:1055C0001F928F93C957DF4F8881C758D0401F92D1
:1055D0008F93CA57DF4F8881C658D0408F93CB57DF
:1055E000DF4F8881C558D0408F93E9E8F1E0FF9301
:1055F000EF931F9280E28F933F922F920E94613827
:105600000FB6F894DEBF0FBECDBF90913702CD56D6
:10561000DF4F9883C359D040992309F4AFC28BE977
:1056200095E00E94AC182B013C018091A605909159
:10563000A705A091A805B091A905892B8A2B8B2BD2
:1056400009F492C28BE995E00E94401920E030E015
:1056500048EC52E40E946D336B017C01A30192017E
:10566000C301B2010E94D635811131C0A701960154
:10567000C701B6010E94D635811129C020E030E073
:1056800040E252ECC301B2010E94683387FD1FC0A3
:1056900020E030E04AEA52E4C301B2010E9414352E
:1056A0001816ACF020E030E046E953E4C701B6013B
:1056B0000E94683387FD0BC020E030E849E854E4DD
:1056C000C701B6010E94143518160CF05FC06AE0DD
:1056D00070E080E090E00E94BA068BE995E00E94BD
:1056E000AC182B013C018091A6059091A705A091D3
:1056F000A805B091A905892B8A2B8B2B09F439C2F7
:105700008BE995E00E94401920E030E048EC52E43B
:105710000E946D336B017C01A3019201C301B201B0
:105720000E94D63581112AC2A7019601C701B60190
:105730000E94D635811122C220E030E040E252ECD6
:10574000C301B2010E94683387FD18C220E030E037
:105750004AEA52E4C301B2010E94143518160CF44F
:105760000DC220E030E046E953E4C701B6010E94D3
:10577000683387FD03C220E030E849E854E4C701FC
:10578000B6010E94143518160CF4F8C120E030E57B
:105790004DE754E4C701B6010E946D3321E03EEDB0
:1057A00042E45EE30E9486354B015C018091210258
:1057B00090912202AC014F5F5F4F509322024093C1
:1057C000210265E070E00E94E7308C01000F111F9C
:1057D000000F111F035F1D4FA501940160E070E0F1
:1057E00080E89FE30E94FB3220E03AE24DE257E47A
:1057F0000E941935D8016D937D938D939C931397D7
:1058000084E1EDE0F2E0DE01919601900D928A953F
:10581000E1F78E010F5D1F4FC157DF4F19830883DA
:10582000CF58D040C157DF4FA881B981CF58D04061
:1058300014968D919D910D90BC91A02DCC56DF4F6B
:1058400088839983AA83BB83C459D040F8018080A0
:105850009180A280B380A5019401BC01CD010E947A
:10586000683387FF19C0CC56DF4F88819981AA81A0
:10587000BB81C459D040F80180839183A283B38354
:10588000C157DF4FA881B981CF58D04014968D926F
:105890009D92AD92BC921797C157DF4FE881F98175
:1058A000CF58D0403496C157DF4FF983E883CF58A3
:1058B000D040C357DF4F28813981CD58D0402E17B3
:1058C0003F0709F0AFCF0C5F1F4FC357DF4FE88191
:1058D000F981CD58D0400E171F0709F09DCF89A43C
:1058E0009AA4ABA4BCA480916402882309F46DC07F
:1058F000CD56DF4F3881C359D040332309F4AAC1B4
:10590000B1018CEE94E00E94631C62EF75E08CEEB6
:1059100094E00E942B0721E0B301A2018CEE94E0F9
:105920000E94C51C6DEE75E08CEE94E00E942B0782
:1059300021E0B701A6018CEE94E00E94C51C68EE40
:1059400075E08CEE94E00E942B0721E0B501A401E4
:105950008CEE94E00E94C51C66EE75E08CEE94E03F
:105960000E94C01D80916402882379F180913802E1
:10597000882359F18091330290913402A09135022D
:10598000B0913602C157DF4F88839983AA83BB83C6
:10599000CF58D04020E030E0A901BC01CD010E94E9
:1059A00068338111F8C020E030E0A901C501B401DD
:1059B0000E94143518160CF0EEC0809233029092BB
:1059C0003402A0923502B0923602809130028823D0
:1059D000D1F080916402882309F4A6C3E0918D057B
:1059E000F0918E05309719F0858181113AC167E4F5
:1059F00074E08CEE94E00E94C01D6AE975E08CEEC4
:105A000094E00E94C01D80912B0290916402992322
:105A100009F48CC3811133C30E94EC060091270264
:105A2000109128022091290230912A02601B710BEB
:105A3000820B930B683E734081059105A8F044E604
:105A400050E060E070E088E893E10E9450040E941A
:105A5000EC066093230270932402809325029093B6
:105A6000260281E080932B02E2E0F6E08491EFEEE3
:105A7000F6E01491EDE0F7E004910111C4C18091CA
:105A80000401882391F10E94EC0600912C021091F0
:105A90002D0220912E0230912F02601B710B820B80
:105AA000930B6536710581059105F8F063E874E0A4
:105AB0008CEE94E00E94C01D80916402882309F45A
:105AC000B3C10E94451C882331F063E674E08CEE7C
:105AD00094E00E94C01D0E94EC0660932C0270931B
