:100000000C9473010C949B010C949B010C949B0128
:100010000C949B010C949B010C949B010C949B01F0
:100020000C949B010C949B010C949B010C949B01E0
:100030000C949B010C949B010C949B010C949B01D0
:100040000C948C0F0C949B010C94FC0F0C94D60F09
:100050000C949B010C949B010C949B010C949B01B0
:100060000C946D0E0C949B0107634236B79BD8A786
:100070001A39685618AEBAAB558C1D3CB7CC5763CD
:10008000BD6DEDFD753EF6177231BF000000803F7B
:1000900008000000BE922449123EABAAAA2ABECD97
:1000A000CCCC4C3E00000080BEABAAAAAA3E000009
:1000B0000000BF000000803F000000000008417801
:1000C000D3BB4387D1133D190E3CC3BD4282AD2B38
:1000D0003E68EC8276BED98FE1A93E4C80EFFFBE30
:1000E00001C4FF7F3F000000000054696D65286D6A
:1000F00073290954656D7028C2B04329095072658F
:100100007373757265286850612909416C7469744C
:10011000756465286D2900436F6E66696775726145
:1001200074696F6E20636F6D706C6574652E00E28C
:100130009C9320424D5032383020696E6974696159
:100140006C697A6564207375636365737366756C37
:100150006C792100E29C97204661696C656420748B
:100160006F20696E697469616C697A6520424D50CF
:100170003238302076696120535049212043686528
:10018000636B20776972696E672E00496E697469C6
:10019000616C697A696E6720424D50323830202890
:1001A000535049206D6F6465292E2E2E003D3D3D34
:1001B0003D3D3D3D3D3D3D3D3D3D3D3D3D3D3D3D6F
:1001C0003D3D3D3D3D3D3D3D3D3D3D3D3D3D3D3D5F
:1001D0003D3D3D3D3D00424D503238302042617240
:1001E0006F6D6574657220535049205465737400B7
:1001F0003D3D3D3D3D3D3D3D3D3D3D3D3D3D3D3D2F
:100200003D3D3D3D3D3D3D3D3D3D3D3D3D3D3D3D1E
:100210003D3D3D3D3D3D3D3D002D2D2D2D2D2D2DBB
:100220002D2D2D2D2D2D2D2D2D2D2D0A00416C74B4
:1002300069747564652072616E67653A200050725A
:100240006573737572652072616E67653A2000543C
:10025000656D702072616E67653A20000A2D2D2D44
:100260002053746174697374696373202D2D2D009C
:10027000E29C972053656E736F72207265616420F3
:100280006572726F72210000000000240027002AAE
:100290000000000008000201000003040700000045
:1002A00000000000000000000023002600290001DB
:1002B00002040810204080010204081020010204FA
:1002C00008102000000000250028002B0004040472
:1002D00004040404040202020202020303030303EF
:1002E00003002E103E1511241FBECFEFD8E0DEBF55
:1002F000CDBF11E0A0E0B1E0E2EAF9E302C0059071
:100300000D92A436B107D9F722E0A4E6B1E001C00E
:100310001D92AC3FB207E1F711E0C2E7D1E004C0A3
:100320002197FE010E946617C137D107C9F70E94C5
:100330000D110C94C41C0C94000020919701260F01
:100340003327331F21323105ECF420910402FC01E4
:1003500090E080E0243069F082E00895A091970158
:100360002191AC014B585E4FA40FB52FB11D2C93BA
:100370000196861798F380919701680F6093970113
:1003800080E0089581E00895089508950895E0912A
:10039000BD018091BC01E81730F4F0E0E254FE4F5B
:1003A000808190E008958FEF9FEF08959091BD01B7
:1003B0008091BC012FEF3FEF981748F4E92FF0E050
:1003C000E254FE4F208130E09F5F9093BD01C90150
:1003D00008958091BC019091BD01891B990B0895EE
:1003E000CF92DF92EF92FF920F931F93CF93DF9301
:1003F0007C01CB018A0120910A02222389F0EB01C2
:100400006B01C40ED51ECC15DD0569F06991D701CD
:10041000ED91FC910190F081E02DC7010995F3CF9A
:10042000642F0E949D01C801DF91CF911F910F9110
:10043000FF90EF90DF90CF900895CF93DF931F92BE
:10044000CDB7DEB7698320910A022223F9F020910B
:100450002D02203258F021E030E0FC01338322836A
:1004600090E080E00F90DF91CF91089580910B0292
:10047000E82FF0E0E45FFD4F998190838F5F8093D8
:100480000B0280932D0281E090E0ECCF61E0CE0181
:1004900001960E949D01F7CF90E0FC01EF56FD4FC1
:1004A0002491FC01E155FD4F3491FC01E353FD4FD4
:1004B000E491EE23C9F0222339F0233001F1A8F4AE
:1004C000213019F1223029F1F0E0EE0FFF1FED533A
:1004D000FD4FA591B4918FB7F894EC91611126C0AE
:1004E00030953E233C938FBF08952730A9F02830E4
:1004F000C9F0243049F7809180008F7D03C080913E
:1005000080008F7780938000DFCF84B58F7784BDA4
:10051000DBCF84B58F7DFBCF8091B0008F77809348
:10052000B000D2CF8091B0008F7DF9CF3E2BDACFD3
:100530001092040281E0809303021092DE0161E0D8
:1005400082E10E944C0261E083E10E944C02E9EBEF
:10055000F0E080818E7F808380818D7F808388E43E
:100560008093B80085E48093BC000895CF93DF9317
:1005700091E0909374018823B9F0C091B800D091B4
:10058000BA008091BC008A7B8093BC0060E082E16D
:100590000E944C0260E083E10E944C020E9498029B
:1005A000D093BA00C093B800DF91CF910895CF9354
:1005B000DF9390E0FC01E155FD4F249183539D4F63
:1005C000FC0184918823D1F090E0880F991FFC01F1
:1005D000E957FD4FA591B491FC01ED53FD4FC59135
:1005E000D49161110EC09FB7F8948C91E22FE095E1
:1005F0008E238C932881E223E8839FBFDF91CF91E4
:1006000008958FB7F894EC91E22BEC938FBFF6CF5F
:10061000FC0183858F3F19F061E00C944C02089532
:10062000FC0180819181892B39F0A281B3819C9159
:1006300011968C919CBD8DBD83858F3F19F060E034
:100640000C944C0208958230910538F0880F991F60
:10065000880F991F05970197F1F70895BF92CF92E0
:10066000DF92EF92FF920F931F93CF93DF93EC01F2
:1006700088819981892B81F06EBD0DB407FEFDCF75
:100680000EB5802FDF91CF911F910F91FF90EF90CA
:10069000DF90CF90BF9008958885998511E0892BD0
:1006A00009F010E8BB24B394862F812309F0B12C04
:1006B000F62E2C813D814E815F8160E271EA87E0F8
:1006C00090E00E949A15E22E00E0C22ED12CEE207E
:1006D00019F0C6010E9423038A85982F977F09F09D
:1006E00044C08D858F3F89F09F2D912381E009F4CF
:1006F00080E08B1551F0EF85F8898F89992379F186
:100700009081892B8083BB24B394E989FA89808105
:10071000998D892B8083EE2019F0C6010E94230356
:100720008E858F3F39F0EB89FC898081988D8923F4
:1007300009F0012BE989FA899081898D80958923B7
:10074000808388859985892B09F067C0110F111165
:10075000BECF8E858F3F09F094CF0F2D92CF908121
:10076000809589238083B12CD0CF8C3099F58D85ED
:100770008F3F49F0EF85F8898F899F2D912331F1C3
:100780009081892B8083E989FA899081898D809570
:1007900089238083EE2019F0C6010E942303E98992
:1007A000FA898081998D892B8083EE2019F0C6010A
:1007B0000E9423038E858F3F21F2EB89FC89808183
:1007C000988D892309F4BDCF012BBBCF90818095F3
:1007D0008923D8CFE989FA898081998D892B8083F3
:1007E000EE2019F0C6010E9423038D858F3F49F04A
:1007F000EF85F8898F899F2D912359F09081892B5E
:100800008083E989FA899081898D80958923808305
:10081000D1CF908180958923F3CF169598CFCF9231
:10082000DF92EF92FF920F931F93CF93DF938C0190
:10083000EB016A0179010E9410036881C8010E94DE
:100840002E03E601EC0CFD1C6FEFC8010E942E0385
:100850008993CE15DF05C1F7C8010E94080381E026
:10086000DF91CF911F910F91FF90EF90DF90CF908C
:1008700008953FB7F8948091700190917101A09113
:100880007201B091730126B5A89B05C02F3F19F0E6
:100890000196A11DB11D3FBFBA2FA92F982F882700
:1008A000BC01CD01620F711D811D911D42E0660FDB
:1008B000771F881F991F4A95D1F708958F929F92AD
:1008C000AF92BF92CF92DF92EF92FF920F931F935E
:1008D000CF93DF93D0912D02D13208F0D7C0182FDB
:1008E000C0912C020E9439046B017C0180910402AA
:1008F00081116BC082E080930402109303028FEF9A
:100900008093020210920102D0930002ACE0B2E0A8
:10091000E0EEF1E080E0D81391C01092DF01809109
:10092000DF01CC0FC82BC093DF018091DE01813045
:1009300009F088C01092DE010E9439046B017C012D
:100940008091DF018093BB008091060290910702A5
:10095000A0910802B0910902892B8A2B8B2BA1F060
:100960000E943904009106021091070220910802AA
:10097000309109026C197D098E099F090617170726
:100980002807390708F442C08091BC0083FDD8CF06
:1009900085EC8093BC000E9439046B017C0180913E
:1009A0000402823009F450C0809102028F3F09F4A2
:1009B0006FC080910202803209F46CC08091020203
:1009C000803309F469C084E026C0809106029091CA
:1009D0000702A0910802B0910902892B8A2B8B2B68
:1009E00009F484CF0E943904809006029090070297
:1009F000A0900802B09009026C197D098E099F0928
:100A000086169706A806B90608F070CF80910502F1
:100A10000E94B60285E010920B0210922D021092F5
:100A20000A02DF91CF911F910F91FF90EF90DF901D
:100A3000CF90BF90AF909F908F9008959D9191938C
:100A40008F5F69CF85EEA5CF809106029091070256
:100A5000A0910802B0910902892B8A2B8B2B09F4F3
:100A60009ECF0E9439040091060210910702209146
:100A70000802309109026C197D098E099F09061739
:100A800017072807390708F08ACFC0CF81E0C3CF06
:100A900080E0C1CF82E0BFCF83E0BDCF1F93CF9373
:100AA000DF93EA01122FDC0111968D919C91DC01FC
:100AB000ED91FC910280F381E02D0995C817D907CB
:100AC00029F4812F0E945E0491E0811190E0892F2A
:100AD000DF91CF911F910895CF93DF93EC018B812C
:100AE0008823A1F0888191E090930A0280932C02E0
:100AF00010920B0210922D0281E00E945E0491E0A0
:100B0000811190E0892FDF91CF9108951092BD015E
:100B10001092BC0110920B0210922D020E949802BA
:100B200084EC91E0909396018093950185EC91E09F
:100B300090939A018093990181E08B83CE010E946A
:100B40006C05982F8111CECFDDCF8F929F92AF92FF
:100B5000BF92CF92DF92EF92FF924B015C010E9415
:100B600039046B017C010E9439046C197D098E09DE
:100B70009F09683E734081059105A8F321E0821A20
:100B80009108A108B10888EEC80E83E0D81EE11CC8
:100B9000F11C81149104A104B10429F7FF90EF9096
:100BA000DF90CF90BF90AF909F908F900895AF92BD
:100BB000BF92CF92DF92EF92FF920F931F93CF934A
:100BC000DF936C017B018B01040F151FEB015E01AC
:100BD000AE18BF08C017D10759F06991D601ED9141
:100BE000FC910190F081E02DC6010995892B79F7E0
:100BF000C501DF91CF911F910F91FF90EF90DF9092
:100C0000CF90BF90AF90089590E080E00895FC01F0
:100C1000538D448D252F30E0842F90E0821B930B61
:100C2000541710F0CF96089501970895FC01918D07
:100C3000828D981761F0A28DAE0FBF2FB11D5D960A
:100C40008C91928D9F5F9F73928F90E008958FEFAC
:100C50009FEF0895FC01918D828D981731F0828D60
:100C6000E80FF11D858D90E008958FEF9FEF0895B7
:100C7000FC01918D228D892F90E0805C9F4F821B1B
:100C800091098F73992708958EE292E00E943806A9
:100C900021E0892B09F420E0822F089580E090E084
:100CA000892B29F00E94440681110C9400000895BC
:100CB000FC01A48DA80FB92FB11DA35ABF4F2C91D1
:100CC000848D90E001968F739927848FA689B789C8
:100CD0002C93A089B1898C91837080648C93938DBF
:100CE000848D981306C00288F389E02D80818F7D62
:100CF00080830895EF92FF920F931F93CF93DF931A
:100D0000EC0181E0888F9B8D8C8D98131AC0E88947
:100D1000F989808185FF15C09FB7F894EE89FF8916
:100D20006083E889F98980818370806480839FBFB4
:100D300081E090E0DF91CF911F910F91FF90EF90B4
:100D40000895F62E0B8D10E00F5F1F4F0F731127C4
:100D5000E02E8C8D8E110CC00FB607FCFACFE889FF
:100D6000F989808185FFF5CFCE010E945806F1CF29
:100D7000EB8DEC0FFD2FF11DE35AFF4FF0829FB773
:100D8000F8940B8FEA89FB8980818062CFCF0F9323
:100D90001F93CF93DF938C01D0E0C0E0F801EC0FFC
:100DA000FD1F6491662341F08EE292E00E947A0674
:100DB000892B11F02196F2CFCE01DF91CF911F91B7
:100DC0000F910895CF93DF93EC01888D8823B9F0BC
:100DD000AA89BB89E889F9898C9185FD03C0808146
:100DE00086FD0DC00FB607FCF7CF8C9185FFF2CFC3
:100DF000808185FFEDCFCE010E945806E9CFDF91BB
:100E0000CF910895089508950F931F93CF93DF9383
:100E100000D0CDB7DEB76A83E091CD02F091CE026B
:100E20003097F9F0898384819581029798F08081C9
:100E300091E090930A0280932C0210920B02109280
:100E40002D0221E042E050E0BE016F5F7F4FCF01F5
:100E50000E944E050F900F90DF91CF911F910F913F
:100E600008958F7789830091CF021091D002C80135
:100E70000E9410036981C8010E942E036A81C80183
:100E80000E942E03C8010E940803E4CFCF93DF9392
:100E9000C7EFD2E08770886E8883E6EFF2E0962F86
:100EA0009770990F990F990F8081807C242F27705C
:100EB000892B822B808395E0440F551F9A95E1F78B
:100EC00087FB882780F9482B660F771F660F771FEF
:100ED000642B85EF0E9404078881682F677090E279
:100EE000699FB0011124282F2695269526952770F5
:100EF00094E0299F90011124622B82958695869516
:100F00008370682B84EFDF91CF910C9404072F92AC
:100F10003F924F925F926F927F928F929F92AF9289
:100F2000BF92CF92DF92EF92FF920F931F93CF93D6
:100F3000DF93DC011496ED91FC911597EF2B09F4EA
:100F400025C169012A01EC01888191E090930A0290
:100F500080932C0210920B0210922D0220E041E0AF
:100F600050E0CD010E944E05782E882309F40EC171
:100F7000F12CE12C332433948C819D8186010E1950
:100F80001F098017910708F48C0128800E943904FA
:100F90004B015C0180910402811173C0602EB0E2AC
:100FA000B01710F480E2682E3092040221E0C601EE
:100FB000801B910BE816F90608F420E02093030249
:100FC000EFEFE0930202109201028FEF860D809303
:100FD00000023092DF018091DF01220C282A20924A
:100FE000DF018091DE01813009F090C01092DE01B6
:100FF0000E9439044B015C018091DF018093BB00AA
:101000008091060290910702A0910802B091090216
:10101000892B8A2B8B2BA1F00E9439042091060288
:10102000309107024091080250910902681979092C
:101030008A099B09261737074807590708F442C051
:101040008091BC0083FDD8CFF5ECF093BC000E94EA
:1010500039044B015C0180910402813009F45AC0CB
:1010600080910102861510F460900102A0EEB1E0BB
:10107000EEEBF1E080E0861551F19D9191938F5F49
:10108000FACF8091060290910702A0910802B091D8
:101090000902892B8A2B8B2B09F47CCF0E943904FF
:1010A00020910602309107024091080250910902F6
:1010B000681979098A099B092617370748075907CC
:1010C00008F068CF809105020E94B602612C109250
:1010D000BD016092BC016016110609F057C04201C3
:1010E0008E0C9F1C5401C50188199909801791071E
:1010F00098F589819A81DC01ED91FC910284F38558
:10110000E02D0995F50181935F01EDCF85EE809388
:10111000BC009DCF8091060290910702A091080229
:10112000B0910902892B8A2B8B2B09F494CF0E9452
:101130003904209106023091070240910802509133
:101140000902681979098A099B0926173707480790
:10115000590708F080CFB6CFE00EF11EEC14FD0465
:1011600008F40ACF872DDF91CF911F910F91FF9047
:10117000EF90DF90CF90BF90AF909F908F907F9037
:101180006F905F904F903F902F900895712CEACF11
:10119000CF93DF9300D0CDB7DEB7E091CD02F091D1
:1011A000CE02898322E030E0AE014F5F5F4FBA018B
:1011B000309751F0CF010E94870789819A810F9063
:1011C0000F90DF91CF9108958091CF029091D0023E
:1011D0000E940F04F2CFCF93DF9300D01F92CDB7C0
:1011E000DEB7FC0182819381698323E030E0AE01A8
:1011F0004F5F5F4FBA010097A1F00E9487072981D6
:101200006A8170E090E080E0982F872F762F662724
:10121000822B2B81622B0F900F900F90DF91CF913B
:101220000895848195810E940F04E9CF8F929F9247
:10123000AF92BF92CF92DF92EF92FF920F931F93E4
:10124000CF93DF93EC016AEF0E94EB080B891C89B6
:1012500030E020E0C72ED82EE92EFF24E7FCFA94D8
:10126000C01AD10AE20AF30A57E095958795779557
:1012700067955A95D1F7000F111F221F331F4B019D
:101280005C01801A910AA20AB30AA5019401AD89F2
:10129000BE890E94C7154B015C01FBE0B594A79481
:1012A00097948794FA95D1F7A7019601C701B601E3
:1012B0000E9476159B01AC01ACE05595479537959A
:1012C0002795AA95D1F7AF89B88D0E94C7159B01C4
:1012D000AC01BEE05595479537952795BA95D1F75E
:1012E000280D391D4A1D5B1D2F87388B498B5A8B62
:1012F000A5E0B0E00E94BC1560587F4F8F4F9F4F14
:10130000672F782F892F992787FD9A950E94961825
:1013100020E030E048EC52E40E94ED17DF91CF91DD
:101320001F910F91FF90EF90DF90CF90BF90AF9003
:101330009F908F9008952F923F924F925F926F925D
:101340007F928F929F92AF92BF92CF92DF92EF9255
:10135000FF920F931F93CF93DF93CDB7DEB76D97B7
:101360000FB6F894DEBF0FBECDBF9D8F8C8FFC01F2
:1013700083859485A585B685892B8A2B8B2B19F0BF
:10138000CF010E94160967EF8C8D9D8D0E94EB089E
:10139000688F798F8A8F9B8FEC8DFD8D87859089E3
:1013A000A189B2896C017D01FF0CCC08DC2C76018F
:1013B0009C01AD016C2D7C2D8C2D9C2D345F41400A
:1013C0005109610971098109910929873A874B8778
:1013D0005C873B014C0159016A017B018C010E9431
:1013E000CF15322E232E4A8B5B8B6C8B7D8B8E8B95
:1013F0009F8BAC8DBD8D5C963C915C975B962C91E0
:10140000932F990F990B492F592F692F792F892FD6
:101410000E94CF150CE00E94FE16522E39834D8794
:101420005E876F87788B898B492EEC8DFD8D368D8D
:10143000258D932F990F990BA32CB22CCA88DB888A
:10144000EC88FD880E891F89492F592F692F792F24
:10145000892F0E94CF1508E00E941717A52CB9808C
:10146000CD84DE84EF84F8880989142D0E94341716
:1014700070588F4F9F4FAC8DBD8D5996ED91FC915B
:101480005F01D12CC12CE12CF12C8701E983BA82B8
:10149000CB82DC82ED82FE820F831887C12CD12C97
:1014A000E12CF12C00E010E00E94CF1501E20E9437
:1014B00017172983532E4D875E876F87788B898B0B
:1014C000492EA0E00E94461709F43DC1AC8DBD8DA8
:1014D00094963C91949793962C91932F990F990BF6
:1014E000A32CB22CCA88DB88EC88FD880E891F8962
:1014F000492F592F692F792F892F0E94CF15190154
:101500004A8B5B8B6C8B7D8B8E8B9F8BEC8DFD8DDB
:1015100032A121A1932F990F990BA984BA84CB846E
:10152000DC8473018401492F592F692F792F892F6A
:101530000E94CF1501E10E94FE165101CA88DB8886
:10154000EC88FD880E891F890E94341759016A01B1
:101550007B01282E192F488D598D6A8D7B8D84E053
:1015600075956795579547958A95D1F780E090E0F6
:10157000A0E1B0E0841B950BA60BB70B3C014D011D
:10158000990C6608762C43019C01AD01662D762DE1
:10159000862D962D0FE10E94FE16722E832E942E1C
:1015A000652EB62FA72F382E9987EC8DFD8D30A193
:1015B000278D932F990F990B492F592F692F792F29
:1015C000892F03E20E94FE16022D0E943417590152
:1015D0006A017B018C01272D382D492D562D6B2F4B
:1015E0007A2F832D99850E943D17E5E3AE2EFCE00E
:1015F000BF2EC12CD12CE12CF12C00E010E00E9478
:10160000CF15A980B52CCD84DE84EF84F8880989B4
:10161000142D0E94291629873A874B875C87698396
:101620007D878E879F870DE00E941717922E832E4D
:10163000742E652E562E472E382E292EAC8DBD8D3C
:101640009A963C919A9799962C91932F990F990B72
:10165000A92CB82CC72CD62CE52CF42C032D122D3C
:10166000492F592F692F792F892F0E94CF150E945A
:10167000CF1509E10E941717A984BA84CB84DC84B2
:10168000E980FD840E851F850E94341719012A0107
:101690003B014C01EC8DFD8D30A527A1932F990FB7
:1016A000990B492F592F692F792F892F0E94CF1518
:1016B00003E10E94171759016A017B018C01910116
:1016C000A201B301C4010E94341708E00E94171759
:1016D00059016A017B01E82F192FAC8DBD8D9696BB
:1016E0003C91969795962C91932F990F990B492F92
:1016F000592F692F792F892F04E00E94FE160E2F93
:101700000E9434170E948E1820E030E040E85BE32E
:101710000E9499196D960FB6F894DEBF0FBECDBF2B
:10172000DF91CF911F910F91FF90EF90DF90CF90BD
:10173000BF90AF909F908F907F906F905F904F90F1
:101740003F902F90089560E070E0CB01E3CFFC0163
:1017500001900020E9F73197AF01481B590BBC01FC
:101760008EE292E00C94D705CF93DF930E94C706D8
:10177000EC0188E491E00E94A70B8C0F9D1FDF9184
:10178000CF9108958F929F92AF92BF920F931F9324
:10179000CF93DF93CDB7DEB7A1970FB6F894DEBF36
:1017A0000FBECDBF19A2423008F44AE08E010F5D92
:1017B0001F4F842E912CB12CA12CA50194010E94C5
:1017C0009A15E62FB901CA01EA30F4F4E05DD801B8
:1017D000EE938D01232B242B252B79F790E080E0CD
:1017E000109719F0CD010E94A70BA1960FB6F8949F
:1017F000DEBF0FBECDBFDF91CF911F910F91BF9084
:10180000AF909F908F900895E95CE1CF4F925F92E7
:101810006F927F928F929F92AF92BF92CF92DF9200
:10182000EF92FF920F931F93CF936B017C01742E65
:10183000AC019B010E94561A882399F08BE491E039
:10184000CF911F910F91FF90EF90DF90CF90BF90BD
:10185000AF909F908F907F906F905F904F900C947F
:10186000A70B46015701E894B7F82FEF3FEF4FE77A
:101870005FE7C501B4010E94561A81110DC02FEF18
:101880003FEF4FE75FE7C501B4010E94E817181664
:101890001CF48FE491E0D4CF2FEF3FEF4FE75FE4EC
:1018A000C701B6010E94941918161CF483E591E053
:1018B000C7CF2FEF3FEF4FE75FECC701B6010E94A4
:1018C000E81787FDF3CF20E030E0A901C701B6019A
:1018D0000E94E81710E000E087FF0AC06DE28EE288
:1018E00092E00E947A068C01F7FAF094F7F8F094EF
:1018F000C0E060E070E080E09FE37C1641F020E013
:1019000030E040E251E40E94ED17CF5FF6CFA7012F
:1019100096010E947C172B013C010E945F184B012D
:101920005C014AE00E94C20B7C01E00EF11ECC2358
:10193000C1F1C501B4010E9494189B01AC01C3011F
:10194000B2010E947B174B015C016EE28EE292E0D5
:101950000E947A06E80EF91EC15018F120E030E02E
:1019600040E251E4C501B4010E9499192B013C01E8
:101970000E945F184B01B12CA12C4AE0C501B401B3
:101980000E94C20BE80EF91EC501B4010E94941812
:101990009B01AC01C301B2010E947B174B015C01AA
:1019A000DBCFC701CF911F910F91FF90EF90DF9098
:1019B000CF90BF90AF909F908F907F906F905F90EF
:1019C0004F900895CF93DF9342E00E94060CEC0104
:1019D00088E491E00E94A70B8C0F9D1FDF91CF91AF
:1019E000089585ED8093BC008091060290910702D6
:1019F000A0910802B09109020796A11DB11D23E034
:101A0000B695A795979587952A95D1F72091BC0013
:101A100024FD03C0109204020895409106025091E3
:101A200007026091080270910902452B462B472B53
:101A300069F30097A105B10541F02AE22A95F1F773
:101A400000C00197A109B109E1CF809105020C9472
:101A5000B6020C942C1C0C942C1CCF93DF93EB013E
:101A6000FB01349620E2DF011D922A95E9F744E25A
:101A700050E060E070E0488359836A837B83FC0117
:101A800042815381052E000C660B770B4C835D83DE
:101A90006E837F8346E050E060E070E048875987BE
:101AA0006A877B872FB7F89440916C0150916D0144
:101AB00060916E0170916F012FBF488B598B6A8BBB
:101AC0007B8B84819581FC01438554856585768572
:101AD000452B462B472B81F00E949B0920E030E0EC
:101AE00048EC52E40E94ED176C8B7D8B8E8B9F8BA4
:101AF00081E0DF91CF91089560E070E080EC9FE796
:101B0000EDCFCF93DF93EB01FB01349620E2DF01B1
:101B10001D922A95E9F744E250E060E070E04883C6
:101B200059836A837B83FC0142815381052E000C1B
:101B3000660B770B4C835D836E837F834DE050E0B3
:101B400060E070E0488759876A877B872FB7F894F1
:101B500040916C0150916D0160916E0170916F0127
:101B60002FBF488B598B6A8B7B8B84819581FC01BD
:101B70004385548565857685452B462B472B51F04B
:101B80000E9416096C8B7D8B8E8B9F8B81E0DF9181
:101B9000CF91089560E070E080EC9FE7F3CF0F9362
:101BA0001F93CF93DF938C01EB0188E2FB0111922D
:101BB0008A95E9F74BE050E067E571E0CE010E94BD
:101BC000B51C1B8681E090E0A0E0B0E08C879D878B
:101BD000AE87BF87F80182819381092E000CAA0B82
:101BE000BB0B888B998BAA8BBB8B86E090E0A0E027
:101BF000B0E08C8B9D8BAE8BBF8B1CA21DA21EA256
:101C00001FA280E090E0A6E9B3E48C8F9D8FAE8F99
:101C1000BF8F80E090E8A9E8B4E4888F998FAA8FFD
:101C2000BB8F86EA9BE9A4E4BCE388A399A3AAA39B
:101C3000BBA3DF91CF911F910F9108950F931F9335
:101C4000CF93DF938C01EB0188E2FB0111928A951F
:101C5000E9F74BE050E067E571E0CE010E94B51C6A
:101C60001B8681E090E0A0E0B0E08C879D87AE8786
:101C7000BF87F80182819381092E000CAA0BBB0B50
:101C8000888B998BAA8BBB8B8DE090E0A0E0B0E0B5
:101C90008C8B9D8BAE8BBF8B1CA21DA21EA21FA284
:101CA00080E090E0A0E2B2EC8C8F9D8FAE8FBF8F72
:101CB00080E090E0AAEAB2E4888F998FAA8FBB8F68
:101CC0008AE097EDA3E2BCE388A399A3AAA3BBA3F0
:101CD000DF91CF911F910F9108951F920F920FB630
:101CE0000F9211242F933F934F935F936F937F93A2
:101CF0008F939F93AF93BF93EF93FF938091B9001E
:101D0000887F803609F44AC0F0F5883209F4A7C00C
:101D100018F5803109F49BC0B8F4882309F4F9C0A0
:101D2000883009F494C0FF91EF91BF91AF919F91DA
:101D30008F917F916F915F914F913F912F910F9074
:101D40000FBE0F901F901895883109F488C080321B
:101D500051F78093020214C0803409F49DC040F40E
:101D60008033B9F38833F9F68093020285ECB0C072
:101D7000803509F485C0883509F496C0883499F611
:101D80000E94F10CD0CF883909F48CC038F588371F
:101D900029F050F4883611F0803729F683E08093DB
:101DA00004021092BB0157C0883809F47BC0803907
:101DB00019F0803809F0B7CF8091BB01803208F06C
:101DC00071C0E091BB0181E08E0F8093BB018091D7
:101DD000BB00F0E0E556FE4F80833DC0803B39F00C
:101DE000E0F4803A09F479C0883A09F09CCF84E0A5
:101DF000809304021092980110929701E09195014E
:101E0000F091960109958091970181110FC081E0B1
:101E1000809397011092750109C0803C09F4A6CF08
:101E2000883C09F4A3CF883B09F07DCFE09198016D
:101E300081E08E0F80939801F0E0EB58FE4F808197
:101E40008093BB00909198018091970129C0809167
:101E5000DF018093BB0085EC8093BC0064CF909140
:101E6000010280910002981758F5E091010281E08B
:101E70008E0F80930102F0E0E052FE4F8081E9CFA7
:101E8000E091010281E08E0F809301028091BB00FE
:101E9000F0E0E052FE4F80839091010280910002B9
:101EA0009817C8F285E8D8CFE091010281E08E0F43
:101EB000809301028091BB00F0E0E052FE4F8083EE
:101EC0008091030281115CCF81E08093DE0184EA7E
:101ED0008093BC001092040226CF85EC8093BC0056
:101EE000109204028091BB01803230F4E091BB017A
:101EF000F0E0E556FE4F10826091BB0170E0E0918A
:101F00009901F0919A018BE991E009951092BB013A
:101F10000ACF1092020234CF1F920F920FB60F9287
:101F200011242F933F938F939F93AF93BF938091EF
:101F30006C0190916D01A0916E01B0916F01309193
:101F40006B0123E0230F2D3758F50196A11DB11D1C
:101F500020936B0180936C0190936D01A0936E01AF
:101F6000B0936F018091700190917101A091720105
:101F7000B09173010196A11DB11D809370019093E2
:101F80007101A0937201B0937301BF91AF919F91C2
:101F90008F913F912F910F900FBE0F901F9018952A
:101FA00026E8230F0296A11DB11DD2CF1F920F92DA
:101FB0000FB60F9211242F933F934F935F936F931C
:101FC0007F938F939F93AF93BF93EF93FF938EE293
:101FD00092E00E945806FF91EF91BF91AF919F91BF
:101FE0008F917F916F915F914F913F912F910F90C2
:101FF0000FBE0F901F9018951F920F920FB60F9261
:1020000011242F938F939F93EF93FF93E0913E02C0
:10201000F0913F028081E0914402F091450282FDFF
:102020001BC09081809147028F5F8F73209148027F
:10203000821741F0E0914702F0E0E25DFD4F958F9D
:1020400080934702FF91EF919F918F912F910F9075
:102050000FBE0F901F9018958081F4CFCF93DF9320
:10206000EEE2F2E01382128288EE93E0A0E0B0E0AC
:1020700084839583A683B7838EE191E091838083E7
:1020800085EC90E09587848784EC90E0978786873D
:1020900080EC90E0918B808B81EC90E0938B828B35
:1020A00082EC90E0958B848B86EC90E0978B868B0E
:1020B000118E128E138E148ECBECD2E01B821A82FC
:1020C0001B861C861D861E861BA61CA68CE190E026
:1020D0000E94901BDC0111961C921E9213961C927A
:1020E0001E92129783E01B968C931B978DE01C9693
:1020F0008C931C978CE01E968C931E978BE01D96FC
:102100008C931D97E0EDF2E0E491F0E0EE0FFF1FFD
:10211000ED53FD4F8591949156969C938E935597D0
:10212000E2EBF2E0E4915A96EC935A97E8EDF2E094
:10213000E491F0E0EE0FFF1FED53FD4F8591949178
:1021400050969C938E931F97EAEBF2E0E49157969A
:10215000EC935797E9EDF2E0E491F0E0EE0FFF1F0A
:10216000EB55FD4F8591949154969C938E93539784
:10217000EBEBF2E0E4915896EC935897EAEDF2E03D
:10218000E491F0E0EE0FFF1FED53FD4F8591949128
:1021900052969C938E935197ECEBF2E0E491599612
:1021A000EC93599740E452E46FE070E014964D933D
:1021B0005D936D937C93179781E090E019969C93C3
:1021C0008E9318971A961C921A975B961C925B979F
:1021D000BD83AC8386E090E00E94901BFC018EE3FF
:1021E00091E09183808388E191E093838283D5831A
:1021F000C483FF83EE8386E090E00E94901BFC0185
:1022000080E391E09183808313821282D583C4831B
:10221000F987E887DF91CF910895CF93DF931F92DD
:10222000CDB7DEB7789484B5826084BD84B5816013
:1022300084BD85B5826085BD85B5816085BD809191
:102240006E00816080936E00109281008091810009
:102250008260809381008091810081608093810001
:10226000809180008160809380008091B1008460C3
:102270008093B1008091B00081608093B000809124
:102280007A00846080937A0080917A0082608093E3
:102290007A0080917A00816080937A0080917A0040
:1022A000806880937A001092C100E0913E02F09124
:1022B0003F0282E08083E0913A02F0913B0210827B
:1022C000E0913C02F0913D0280E180831092460251
:1022D000E0914202F091430286E08083E091400267
:1022E000F0914102808180618083E0914002F09111
:1022F0004102808188608083E0914002F091410238
:10230000808180688083E0914002F0914102808169
:102310008F7D808380EF91E00E94B40B86ED91E089
:102320000E94B40B8DEA91E00E94B40B8BE891E01F
:102330000E94B40B0091CF021091D002011511053B
:1023400009F04EC08091CD029091CE02009711F01D
:102350000E942C1C86E090E00E94901B8C018091D2
:10236000CB029091CC0227E7D8012C9312969C9334
:102370008E93119713961C92139780E290E0159616
:102380009C938E9314971093CE020093CD021092DB
:10239000BD011092BC0110920B0210922D020E94FE
:1023A000980284EC91E0909396018093950185ECDE
:1023B00091E090939A018093990181E0F8018383E1
:1023C000C8010E946C05811154C084E591E00E940F
:1023D000B40B68EE73E080E090E00E94A505F9CFB1
:1023E000D8011B968C918F3F41F061E00E94D7028B
:1023F00061E0F80183850E944C02D8018D919C9187
:10240000892B09F46EC1FFB6F894809164018111A3
:1024100027C0E7EDF2E08491E9EBF2E09491E82F38
:10242000F0E0EE0FFF1FE957FD4FA591B491EC913D
:10243000E92321F461E08AE00E944C0261E08AE035
:102440000E94D7028CB580618CBD8CB580648CBD38
:1024500061E08DE00E94D70261E08BE00E94D7022C
:10246000809164018F5F80936401FFBE81E0F80179
:10247000838F8091CD029091CE02009709F45CC1C8
:1024800020ED298321E030E0AE014F5F5F4FBA01BC
:102490000E948707898190E0B0E0A0E08093D60297
:1024A0009093D702A093D802B093D90288359105B2
:1024B000A105B10509F089CF88E80E94C80890936A
:1024C000DF028093DE028AE80E94C8089093E1024E
:1024D0008093E0028CE80E94C8089093E302809306
:1024E000E2028EE80E94C8089093E5028093E4021D
:1024F00080E90E94C8089093E7028093E60282E98F
:102500000E94C8089093E9028093E80284E90E943F
:10251000C8089093EB028093EA0286E90E94C808FB
:102520009093ED028093EC0288E90E94C808909392
:10253000EF028093EE028AE90E94C8089093F102AC
:102540008093F0028CE90E94C8089093F302809374
:10255000F2028EE90E94C8089093F5028093F4027B
:102560008091D6029091D702A091D802B091D90261
:10257000892B8A2B8B2B41F050E040E070E060E02B
:1025800085E090E00E94460764E670E080E090E01D
:102590000E94A5058FE291E00E94B40B8091D602C3
:1025A0009091D702A091D802B091D902892B8A2BA1
:1025B0008B2B41F044E050E064E070E082E090E07A
:1025C0000E94460787E191E00E94B40B8AEE90E0FA
:1025D0000E94B40B8091D6029091D702A091D802AC
:1025E000B091D902892B8A2B8B2B09F4B4C08BECC8
:1025F00092E00E9416097B018C018091D602909195
:10260000D702A091D802B091D902892B8A2B8B2BAB
:1026100009F4A6C08BEC92E00E949B0920E030E018
:1026200048EC52E40E94ED175B016C018091D602E8
:102630009091D702A091D802B091D902892B8A2B10
:102640008B2B09F492C08BEC92E00E949B0920E056
:1026500030E048EC52E40E94ED1720E030E54DE711
:1026600054E40E94ED1721E03EED42E45EE30E9457
:10267000061A9B01AC0160E070E080E89FE30E94D5
:102680007B1720E03AE24DE257E40E9499193B01A2
:102690004C019701A801B701C8010E94561A811187
:1026A00009C09501A601B501C6010E94561A8823EA
:1026B00009F460C080E792E00E94B40B68EE73E01A
:1026C00080E090E00E94A505A0E0B0E0AB2B09F40B
:1026D00081CF0E944406882309F47CCF0E94000029
:1026E00079CF61E0F80184850E94D702D8011A965B
:1026F0008C911A978B7FE1F460E01C968C910E947C
:102700004C02D8011D968C918F3F41F061E00E94F0
:10271000D70261E0F80185850E944C02D8011E961F
:102720008C918F3F09F4A2CE60E00E94D7029ECE2A
:1027300061E0F8018485E3CF80ED898321E030E01A
:10274000AE014F5F5F4FBA018091CF029091D002EE
:102750000E940F049FCEE12CF12C00EC1FE74DCF1F
:1027600060E070E080EC9FE759CF60E070E080ECC3
:102770009FE76DCF8091690190916A0101969093D6
:102780006A018093690120901001309011014090FE
:102790001201509013019101A201B501C6010E94DE
:1027A0009419181614F015012601C101D201809365
:1027B000100190931101A0931201B0931301209086
:1027C0006501309066014090670150906801910169
:1027D000A201B501C6010E94E81787FD02C01501DC
:1027E0002601C101D2018093650190936601A093F7
:1027F0006701B093680120900C0130900D0140906A
:102800000E0150900F019701A801B101C2010E9471
:10281000E81787FD02C017012801C101D20180938A
:102820000C0190930D01A0930E01B0930F01209025
:1028300008013090090140900A0150900B01970166
:10284000A801B101C2010E949419181614F01701D1
:102850002801C101D2018093080190930901A0933E
:102860000A01B0930B0120900401309005014090C3
:102870000601509007019301A401B101C2010E9419
:10288000E81787FD02C013012401C101D201809322
:10289000040190930501A0930601B09307012090D5
:1028A000000130900101409002015090030193011A
:1028B000A401B101C2010E949419181614F0130169
:1028C0002401C101D2018093000190930101A093E2
:1028D0000201B09303012FB7F89460916C017091DD
:1028E0006D0180916E0190916F012FBF4AE00E94AF
:1028F000C20B8EE591E00E94A70B42E0B701C80130
:102900000E94060C8EE591E00E94A70B42E0B50103
:10291000C6010E94060C8EE591E00E94A70BB30150
:10292000C4010E94E20C8091690190916A016AE001
:1029300070E00E948615892B09F0C0CE8CE592E0EC
:102940000E94B40B8FE492E00E94C70660910C01D4
:1029500070910D0180910E0190910F0142E00E9453
:10296000060C80E691E00E94A70B6091080170912F
:10297000090180910A0190910B010E94E20C8EE303
:1029800092E00E94C7066091100170911101809140
:1029900012019091130142E00E94060C80E691E042
:1029A0000E94A70B6091650170916601809167019B
:1029B000909168010E94E20C8DE292E00E94C706AD
:1029C00060910401709105018091060190910701C9
:1029D00042E00E94060C80E691E00E94A70B609105
:1029E00000017091010180910201909103010E9408
:1029F000E20C89E192E00E94B40B80EF93E2A4E73D
:102A0000B9E48093100190931101A0931201B09347
:102A100013011092650110926601109267011092E5
:102A2000680180930C0190930D01A0930E01B09367
:102A30000F0180EF93E2A4E7B9EC80930801909333
:102A40000901A0930A01B0930B0180EF93E2A4E780
:102A5000B9E48093040190930501A0930601B0931B
:102A6000070180EF93E2A4E7B9EC80930001909313
:102A70000101A0930201B093030120CECF93DF9315
:102A8000C091CF02D091D002209749F08A819B81DA
:102A9000009711F00E942C1CCE010E942C1C8091EA
:102AA000CD029091CE02009711F00E942C1C8091D3
:102AB000D1029091D202009739F0DC01ED91FC91A6
:102AC0000280F381E02D09958091D3029091D40288
:102AD000009749F0DC01ED91FC910280F381E02D3B
:102AE000DF91CF910994DF91CF910895DB018F930E
:102AF0009F930E94BC15BF91AF91A29F800D911D25
:102B0000A39F900DB29F900D1124089597FB072E5F
:102B100016F4009407D077FD09D00E94521707FCE5
:102B200005D03EF4909581959F4F089570956195DD
:102B30007F4F0895A1E21A2EAA1BBB1BFD010DC0F9
:102B4000AA1FBB1FEE1FFF1FA217B307E407F5075D
:102B500020F0A21BB30BE40BF50B661F771F881F39
:102B6000991F1A9469F760957095809590959B01CF
:102B7000AC01BD01CF0108950E946C17A59F900D77
:102B8000B49F900DA49F800D911D11240895B7FF4F
:102B90000C94BC150E94BC15821B930B0895DF9307
:102BA000CF931F930F939A9DF02D219FF00D8B9D36
:102BB000F00D8A9DE02DF10D039FF00D029FE00DB9
:102BC000F11D4E9DE00DF11D5E9DF00D4F9DF00D30
:102BD0007F936F93BF92AF925F934F93D5010E9403
:102BE0006C178B01AC01D7010E946C17EB01E80F49
:102BF000F91FD6010E941E162F913F91D6010E9407
:102C00006C17C60FD71FE81FF91FAF91BF910E9425
:102C10001E162F913F910E946C17C60FD71FE81FF9
:102C2000F91FD6010E946C17E60FF71F9801BE012D
:102C3000CF010F911F91CF91DF9108950E946C17E2
:102C4000460F571FC81FD91F08F43196089568947E
:102C500001C0E894F92FF12B12F00C945B16A0E060
:102C6000B0E0E5E3F6E10C94CD16092E059422F4CC
:102C70000E94B716112392F4F0E80F26FFEFE094BC
:102C8000F09400951095B094C094D094A194BF0A8C
:102C9000CF0ADF0AEF0AFF0A0F0B1F0B0E9466160E
:102CA00007FC0E94B716CDB7DEB7ECE00C94E9162E
:102CB000689401C0E8948F929F92CF93DF930E9413
:102CC0006616DF91CF919F908F9008958824992464
:102CD000F401E401B0E49F93AA279A158B049C04A5
:102CE000ED05FE05CF05D007A10798F4AD2FDC2F29
:102CF000CF2FFE2FE92D982C892E982F872F762FF6
:102D0000652F542F432F322F2227B85031F7BF9110
:102D100027C01B2EBF91BB27220F331F441F551FF7
:102D2000661F771F881F991F881C991CEE1FFF1FA5
:102D3000CC1FDD1FAA1FBB1F8A149B04EC05FD05D9
:102D4000CE05DF05A007B10748F08A189B08EC09FB
:102D5000FD09CE09DF09A00BB10B21601A94E1F641
:102D60002EF49401AF01BE01CD01000C08956095D1
:102D700070958095909530954095509521953F4F51
:102D80004F4F5F4F6F4F7F4F8F4F9F4F08952F9241
:102D90003F924F925F926F927F928F929F92AF92EB
:102DA000BF92CF92DF92EF92FF920F931F93CF9338
:102DB000DF93CDB7DEB7CA1BDB0B0FB6F894DEBFCF
:102DC0000FBECDBF09942A88398848885F846E84F5
:102DD0007D848C849B84AA84B984C884DF80EE803F
:102DE000FD800C811B81AA81B981CE0FD11D0FB648
:102DF000F894DEBF0FBECDBFED010895002E083060
:102E000090F0982F872F762F652F542F432F322F36
:102E100022270850F4CF220F331F441F551F661F6F
:102E2000771F881F991F0A95B2F7002D089597FD07
:102E30001094002E083098F00850232F342F452F7F
:102E4000562F672F782F892F912DF4CF15949795B2
:102E500087957795679557954795379527950A955F
:102E6000AAF71124002D08952A0D3B1D4C1D5D1D50
:102E70006E1D7F1D801F911F08952A193B094C0963
:102E80005D096E097F09800B910B08950024A7FD51
:102E900000942A173005400550056005700580052F
:102EA00090050895AA1BBB1B51E107C0AA1FBB1FB9
:102EB000A617B70710F0A61BB70B881F991F5A95C6
:102EC000A9F780959095BC01CD010895EE0FFF1FE5
:102ED0000590F491E02D0994A29FB001B39FC00129
:102EE000A39F700D811D1124911DB29F700D811D36
:102EF0001124911D08955058BB27AA270E949317AB
:102F00000C945A190E944C1938F00E94531920F061
:102F100039F49F3F19F426F40C9439190EF4E09516
:102F2000E7FB0C943319E92F0E946B1958F3BA1779
:102F3000620773078407950720F079F4A6F50C94CF
:102F40008D190EF4E0950B2EBA2FA02D0B01B901AF
:102F500090010C01CA01A0011124FF27591B99F00F
:102F6000593F50F4503E68F11A16F040A22F232F1B
:102F7000342F4427585FF3CF469537952795A7956B
:102F8000F0405395C9F77EF41F16BA0B620B730B12
:102F9000840BBAF09150A1F0FF0FBB1F661F771F83
:102FA000881FC2F70EC0BA0F621F731F841F48F438
:102FB000879577956795B795F7959E3F08F0B0CFC1
:102FC0009395880F08F09927EE0F979587950895A8
:102FD0000E940F1908F481E008950E9401180C94D2
:102FE0005A190E94531958F00E944C1940F029F4C4
:102FF0005F3F29F00C94331951110C948E190C94E5
:1030000039190E946B1968F39923B1F3552391F391
:10301000951B550BBB27AA2762177307840738F047
:103020009F5F5F4F220F331F441FAA1FA9F335D0A4
:103030000E2E3AF0E0E832D091505040E695001C58
:10304000CAF72BD0FE2F29D0660F771F881FBB1F12
:10305000261737074807AB07B0E809F0BB0B802DF0
:10306000BF01FF2793585F4F3AF09E3F510578F01C
:103070000C9433190C948E195F3FE4F3983ED4F30B
:10308000869577956795B795F7959F5FC9F7880FF0
:10309000911D9695879597F90895E1E0660F771F42
:1030A000881FBB1F621773078407BA0720F0621BD3
:1030B000730B840BBA0BEE1F88F7E09508950E94FE
:1030C000731988F09F5798F0B92F9927B751B0F02E
:1030D000E1F0660F771F881F991F1AF0BA95C9F79C
:1030E00014C0B13091F00E948D19B1E008950C9494
:1030F0008D19672F782F8827B85F39F0B93FCCF347
:10310000869577956795B395D9F73EF49095809518
:10311000709561957F4F8F4F9F4F089597FB16F4E1
:103120000E943C190C94D218E89409C097FB3EF415
:1031300090958095709561957F4F8F4F9F4F992304
:10314000A9F0F92F96E9BB279395F6958795779582
:103150006795B795F111F8CFFAF4BB0F11F460FF42
:103160001BC06F5F7F4F8F4F9F4F16C0882311F09A
:1031700096E911C0772321F09EE8872F762F05C0AE
:10318000662371F096E8862F70E060E02AF09A9549
:10319000660F771F881FDAF7880F9695879597F93E
:1031A0000895E894F92F96EBFF2381F01216130689
:1031B0001406440B9395F6958795779567955795E3
:1031C0004040FF23B9F71BC099270895882351F485
:1031D0009850D2F7872B762F652F542F432F322FFD
:1031E00020E0B1F3121613061406440B88233AF0BC
:1031F0009A95440F551F661F771F881FCAF75523DE
:103200004AF4440F551F11F460FF04C06F5F7F4FF5
:103210008F4F9F4F880F9695879597F90895990F2F
:103220000008550FAA0BE0E8FEEF16161706E80790
:10323000F907C0F012161306E407F50798F0621BB1
:10324000730B840B950B39F40A2661F0232B242B86
:10325000252B21F408950A2609F4A140A6958FEFA5
:10326000811D811D089597F99F6780E870E060E0F7
:1032700008959FEF80EC08959095809570956095E6
:1032800050954095309521953F4F4F4F5F4F6F4F71
:103290007F4F8F4F9F4F089500240A9416161706EC
:1032A00018060906089500240A9412161306140637
:1032B00005060895092E0394000C11F4882352F09A
:1032C000BB0F40F4BF2B11F460FF04C06F5F7F4F52
:1032D0008F4F9F4F089557FD9058440F551F59F039
:1032E0005F3F71F04795880F97FB991F61F09F3FF3
:1032F00079F087950895121613061406551FF2CF1C
:103300004695F1DF08C0161617061806991FF1CF6B
:1033100086957105610508940895E894BB27662792
:103320007727CB0197F908950E940F1908F48FEFC2
:1033300008950E94AC190C945A190E944C1938F047
:103340000E94531920F0952311F00C9433190C941A
:10335000391911240C948E190E946B1970F3959FE2
:10336000C1F3950F50E0551F629FF001729FBB277C
:10337000F00DB11D639FAA27F00DB11DAA1F649F18
:103380006627B00DA11D661F829F2227B00DA11DCB
:10339000621F739FB00DA11D621F839FA00D611D51
:1033A000221F749F3327A00D611D231F849F600D72
:1033B000211D822F762F6A2F11249F5750409AF09B
:1033C000F1F088234AF0EE0FFF1FBB1F661F771F27
:1033D000881F91505040A9F79E3F510580F00C94F2
:1033E00033190C948E195F3FE4F3983ED4F386951D
:1033F00077956795B795F795E7959F5FC1F7FE2B92
:10340000880F911D9695879597F90895FA01EE0F0B
:10341000FF1F309621053105A1F16115710561F499
:103420008038BFE39B0749F168949038810561F0CB
:103430008038BFEF9B0741F099234AF5FF3FE10534
:103440003105210519F1E8940894E795D901AA23DB
:1034500029F4AB2FBE2FF85FD0F310C0FF5F70F4DC
:10346000A695E0F7F73950F019F0FF3A38F49F7756
:103470009F930DD00F9007FC9058089546F00C9440
:10348000391960E070E080E89FE308954FE79F7787
:103490005F934F933F932F930E94061B2F913F9171
:1034A0004F915F910E9499190C94631A0E940F1911
:1034B000880B990B089529F416F00C9433190C9489
:1034C0008D190C9439190E947319A8F39638A0F736
:1034D00007F80F92E8942BE33AEA48EB5FE70E9483
:1034E000AF190F920F920F924DB75EB70F920E94D5
:1034F0004E1BE8E6F0E00E94951A4F915F91EF9124
:10350000FF91E595EE1FFF1F49F0FE57E068442745
:10351000EE0F441FFA95E1F74195550B0E94C81A2A
:103520000F9007FE0C94BC1A0895DF93CF931F935E
:103530000F93FF92EF92DF927B018C01689406C09B
:10354000DA2EEF010E94AC19FE01E894A5912591B5
:10355000359145915591A6F3EF010E949317FE0115
:103560009701A801DA9469F7DF90EF90FF900F912F
:103570001F91CF91DF9108959B01AC0160E070E055
:1035800080E89FE30C94ED170C9433190C94821B84
:103590000E947319D8F39923C9F3940F511DA3F313
:1035A0009150504094F059F0882332F0660F771F05
:1035B000881F91505040C1F79E3F51052CF7880F4E
:1035C000911D9695879597F908955F3FACF0983EC9
:1035D0009CF0BB27869577956795B79508F4B16001
:1035E0009395C1F7BB0F58F711F460FFE8CF6F5FF9
:1035F0007F4F8F4F9F4FE3CF0C948E1916F00C9492
:10360000821B0C94391968940C9433190E94731915
:10361000A8F39923C1F3AEF3DF93CF931F930F93D6
:10362000FF92C92FDD2788232AF02197660F771F85
:10363000881FDAF720E030E040E85FEB9FE388394D
:1036400020F0803E38F021968F770E947C17E0E9C9
:10365000F0E004C00E947C17EDEBF0E00E94951AA8
:103660008B01BE01EC01FB2E6F5771097595771F19
:10367000880B990B0E94961828E132E741E35FE33B
:103680000E94AC19AF2D9801AE01FF900F911F91D0
:10369000CF91DF910E9493170C945A19FA01DC0123
:1036A000AA0FBB1F9B01AC01BF5728F42227332769
:1036B0004427507820C0B75190F4AB2F0024469592
:1036C00037952795011CA395D2F3002071F0220FA6
:1036D000331F441FB395DAF30ED00C947B1761307F
:1036E0007105A0E88A07B94630F49B01AC01662752
:1036F000772788279078309621F020833183428382
:10370000538308959F3F31F0915020F4879577952A
:103710006795B795880F911D9695879597F90895A8
:103720000F931F93CF93DF938230910510F482E0C3
:1037300090E0E091FA02F091FB0230E020E0B0E08E
:10374000A0E0309799F42115310509F44AC0281BEF
:10375000390B24303105D8F58A819B8161157105BB
:1037600089F1FB0193838283FE0111C04081518165
:103770000281138148175907E0F04817590799F457
:10378000109761F012960C93129713961C93329631
:10379000CF01DF91CF911F910F9108950093FA020D
:1037A0001093FB02F4CF2115310551F04217530756
:1037B00038F0A901DB019A01BD01DF01F801C1CF99
:1037C000EF01F9CF9093FB028093FA02CDCFFE0177
:1037D000E20FF31F8193919322503109398328839B
:1037E000D7CF2091F8023091F902232B41F4209198
:1037F0001601309117013093F9022093F8022091BD
:103800001401309115012115310541F42DB73EB752
:103810004091180150911901241B350BE091F802D9
:10382000F091F902E217F307A0F42E1B3F0B2817C3
:10383000390778F0AC014E5F5F4F2417350748F029
:103840004E0F5F1F5093F9024093F80281939193BA
:103850009FCFF0E0E0E09CCFCF93DF930097E9F0BB
:10386000FC01329713821282A091FA02B091FB02FE
:10387000ED0130E020E01097A1F420813181820F2A
:10388000931F2091F8023091F9022817390709F0A7
:1038900061C0F093F902E093F802DF91CF910895AF
:1038A000EA01CE17DF07E8F54A815B819E014115E9
:1038B0005105B1F7E901FB83EA8349915991C40F9E
:1038C000D51FEC17FD0761F4808191810296840F6A
:1038D000951FE90199838883828193819B838A83E1
:1038E000F0E0E0E012968D919C9113970097B9F566
:1038F0002D913C911197CD010296820F931F20913B
:10390000F8023091F9022817390739F6309751F546
:103910001092FB021092FA02B093F902A093F802FF
:10392000BCCFD383C28340815181840F951FC817B8
:10393000D90761F44E5F5F4F88819981480F591F05
:10394000518340838A819B81938382832115310532
:1039500009F0B0CFF093FB02E093FA029ECFFD0195
:10396000DC01C0CF13821282D7CFFB01DC014150B2
:10397000504048F001900D920020C9F701C01D92FF
:1039800041505040E0F7089511E0C2E7D1E004C093
:10399000FE010E9466172196C337D107C9F7F89434
:0239A000FFCF57
:1039A200F02374C9F0237449F02374C9F0237449D5
:1039B200F02374490000FC028000000000007A0637
:1039C200D7050706E206380616062A06000000009A
:1039D20002072B0D03072D0DCF0D0000000002077B
:1039E200290D0307810D1E0E0D0A006E616E00691E
:1039F2006E66006F766600424D5032383000090024
:043A0200E2809300CB
:00000001FF
