:100000000C9474010C949C010C949C010C949C0124
:100010000C949C010C949C010C949C010C949C01EC
:100020000C949C010C949C010C949C010C949C01DC
:100030000C949C010C949C010C949C010C949C01CC
:100040000C94800F0C949C010C94F00F0C94CA0F2C
:100050000C949C010C949C010C949C010C949C01AC
:100060000C94610E0C949C0107634236B79BD8A791
:100070001A39685618AEBAAB558C1D3CB7CC5763CD
:10008000BD6DEDFD753EF6177231BF000000803F7B
:1000900008000000BE922449123EABAAAA2ABECD97
:1000A000CCCC4C3E00000080BEABAAAAAA3E000009
:1000B0000000BF000000803F000000000008417801
:1000C000D3BB4387D1133D190E3CC3BD4282AD2B38
:1000D0003E68EC8276BED98FE1A93E4C80EFFFBE30
:1000E00001C4FF7F3F000000000054696D65286D6A
:1000F00073290954656D7028C2B04329095072658F
:100100007373757265286850612909416C7469744C
:10011000756465286D2900436F6E66696775726145
:1001200074696F6E20636F6D706C6574652E00E28C
:100130009C9320424D5032383020696E6974696159
:100140006C697A6564207375636365737366756C37
:100150006C792100E29C97204661696C656420748B
:100160006F20696E697469616C697A6520424D50CF
:100170003238302076696120535049212043686528
:10018000636B20776972696E672E00496E697469C6
:10019000616C697A696E6720424D50323830202890
:1001A000535049206D6F6465292E2E2E003D3D3D34
:1001B0003D3D3D3D3D3D3D3D3D3D3D3D3D3D3D3D6F
:1001C0003D3D3D3D3D3D3D3D3D3D3D3D3D3D3D3D5F
:1001D0003D3D3D3D3D00424D503238302042617240
:1001E0006F6D6574657220535049205465737400B7
:1001F0003D3D3D3D3D3D3D3D3D3D3D3D3D3D3D3D2F
:100200003D3D3D3D3D3D3D3D3D3D3D3D3D3D3D3D1E
:100210003D3D3D3D3D3D3D3D002D2D2D2D2D2D2DBB
:100220002D2D2D2D2D2D2D2D2D2D2D0A00416C74B4
:1002300069747564652072616E67653A200050725A
:100240006573737572652072616E67653A2000543C
:10025000656D702072616E67653A20000A2D2D2D44
:100260002053746174697374696373202D2D2D009C
:10027000E29C9720496E76616C69642073656E73A9
:100280006F72207265616421000000000024002765
:10029000002A00000000080002010000030407001B
:1002A00000000000000000000000002300260029DC
:1002B00000010204081020408001020408102001FF
:1002C000020408102000000000250028002B000474
:1002D00004040404040404020202020202030303ED
:1002E0000303030022101F1611241FBECFEFD8E016
:1002F000DEBFCDBF11E0A0E0B1E0E4E6FBE302C069
:1003000005900D92A436B107D9F722E0A4E6B1E03A
:1003100001C01D92A23BB207E1F711E0C3E7D1E0B3
:1003200004C02197FE010E944718C237D107C9F7C0
:100330000E9401110C94A51D0C9400002091AD01A8
:10034000260F3327331F21323105ECF420911A0296
:10035000FC0190E080E0243069F082E00895A091F3
:10036000AD012191AC0145575E4FA40FB52FB11DD2
:100370002C930196861798F38091AD01680F6093D6
:10038000AD0180E0089581E00895089508950895ED
:10039000E091D3018091D201E81730F4F0E0EC5203
:1003A000FE4F808190E008958FEF9FEF0895909128
:1003B000D3018091D2012FEF3FEF981748F4E92F36
:1003C000F0E0EC52FE4F208130E09F5F9093D3012C
:1003D000C90108958091D2019091D301891B990B95
:1003E0000895CF92DF92EF92FF920F931F93CF93D6
:1003F000DF937C01CB018A0120912002222389F026
:10040000EB016B01C40ED51ECC15DD0569F06991B9
:10041000D701ED91FC910190F081E02DC701099584
:10042000F3CF642F0E949E01C801DF91CF911F91ED
:100430000F91FF90EF90DF90CF900895CF93DF93CF
:100440001F92CDB7DEB76983209120022223F9F0F5
:1004500020914302203258F021E030E0FC01338348
:10046000228390E080E00F90DF91CF9108958091FA
:100470002102E82FF0E0EE5DFD4F998190838F5FC0
:10048000809321028093430281E090E0ECCF61E011
:10049000CE0101960E949E01F7CF90E0FC01ED563F
:1004A000FD4F2491FC01EF54FD4F3491FC01E153C9
:1004B000FD4FE491EE23C9F0222339F0233001F1FE
:1004C000A8F4213019F1223029F1F0E0EE0FFF1FDE
:1004D000EB53FD4FA591B4918FB7F894EC91611156
:1004E00026C030953E233C938FBF08952730A9F056
:1004F0002830C9F0243049F7809180008F7D03C0F7
:10050000809180008F7780938000DFCF84B58F77D4
:1005100084BDDBCF84B58F7DFBCF8091B0008F771A
:100520008093B000D2CF8091B0008F7DF9CF3E2B69
:10053000DACF10921A0281E0809319021092F4012E
:1005400061E082E10E944D0261E083E10E944D0280
:10055000E9EBF0E080818E7F808380818D7F8083D6
:1005600088E48093B80085E48093BC000895CF931D
:10057000DF9391E090938A018823B9F0C091B8008D
:10058000D091BA008091BC008A7B8093BC0060E06F
:1005900082E10E944D0260E083E10E944D020E94D0
:1005A0009902D093BA00C093B800DF91CF9108951B
:1005B000CF93DF9390E0FC01EF54FD4F24918153E2
:1005C0009D4FFC0184918823D1F090E0880F991F02
:1005D000FC01E757FD4FA591B491FC01EB53FD4F92
:1005E000C591D49161110EC09FB7F8948C91E22F00
:1005F000E0958E238C932881E223E8839FBFDF91CF
:10060000CF9108958FB7F894EC91E22BEC938FBFC4
:10061000F6CFFC0183858F3F19F061E00C944D0209
:100620000895FC0180819181892B39F0A281B381E9
:100630009C9111968C919CBD8DBD83858F3F19F047
:1006400060E00C944D0208958230910538F0880FD7
:10065000991F880F991F05970197F1F70895BF9289
:10066000CF92DF92EF92FF920F931F93CF93DF937E
:10067000EC0188819981892B81F06EBD0DB407FE54
:10068000FDCF0EB5802FDF91CF911F910F91FF907D
:10069000EF90DF90CF90BF9008958885998511E005
:1006A000892B09F010E8BB24B394862F812309F02D
:1006B000B12CF62E2C813D814E815F8160E271EA82
:1006C00087E090E00E947B16E22E00E0C22ED12C43
:1006D000EE2019F0C6010E9424038A85982F977F87
:1006E00009F044C08D858F3F89F09F2D912381E0D3
:1006F00009F480E08B1551F0EF85F8898F899923F3
:1007000079F19081892B8083BB24B394E989FA899C
:100710008081998D892B8083EE2019F0C6010E947B
:1007200024038E858F3F39F0EB89FC898081988D79
:10073000892309F0012BE989FA899081898D8095B7
:100740008923808388859985892B09F067C0110FDB
:100750001111BECF8E858F3F09F094CF0F2D92CF10
:100760009081809589238083B12CD0CF8C3099F5EE
:100770008D858F3F49F0EF85F8898F899F2D9123D3
:1007800031F19081892B8083E989FA899081898D63
:10079000809589238083EE2019F0C6010E942403EE
:1007A000E989FA898081998D892B8083EE2019F05F
:1007B000C6010E9424038E858F3F21F2EB89FC89BC
:1007C0008081988D892309F4BDCF012BBBCF908107
:1007D00080958923D8CFE989FA898081998D892BE1
:1007E0008083EE2019F0C6010E9424038D858F3F7F
:1007F00049F0EF85F8898F899F2D912359F09081D9
:10080000892B8083E989FA899081898D8095892354
:100810008083D1CF908180958923F3CF169598CF8F
:10082000CF92DF92EF92FF920F931F93CF93DF93BC
:100830008C01EB016A0179010E9411036881C801F2
:100840000E942F03E601EC0CFD1C6FEFC8010E9413
:100850002F038993CE15DF05C1F7C8010E94090354
:1008600081E0DF91CF911F910F91FF90EF90DF908A
:10087000CF9008953FB7F8948091860190918701B9
:10088000A0918801B091890126B5A89B05C02F3F92
:1008900019F00196A11DB11D3FBFBA2FA92F982FA6
:1008A0008827BC01CD01620F711D811D911D42E0A1
:1008B000660F771F881F991F4A95D1F708958F9269
:1008C0009F92AF92BF92CF92DF92EF92FF920F93DF
:1008D0001F93CF93DF93D0914302D13208F0D7C05A
:1008E000182FC09142020E943A046B017C01809152
:1008F0001A0281116BC082E080931A0210931902D0
:100900008FEF8093180210921702D0931602A2E282
:10091000B2E0E6EFF1E080E0D81391C01092F5016B
:100920008091F501CC0FC82BC093F5018091F401A3
:10093000813009F088C01092F4010E943A046B01E2
:100940007C018091F5018093BB0080911C02909105
:100950001D02A0911E02B0911F02892B8A2B8B2BA6
:10096000A1F00E943A0400911C0210911D022091F6
:100970001E0230911F026C197D098E099F0906170E
:1009800017072807390708F442C08091BC0083FD8F
:10099000D8CF85EC8093BC000E943A046B017C01A7
:1009A00080911A02823009F450C0809118028F3F62
:1009B00009F46FC080911802803209F46CC08091F4
:1009C0001802803309F469C084E026C080911C02BB
:1009D00090911D02A0911E02B0911F02892B8A2BBB
:1009E0008B2B09F484CF0E943A0480901C029090D3
:1009F0001D02A0901E02B0901F026C197D098E0985
:100A00009F0986169706A806B90608F070CF809150
:100A10001B020E94B70285E010922102109243024D
:100A200010922002DF91CF911F910F91FF90EF90D4
:100A3000DF90CF90BF90AF909F908F9008959D9141
:100A400091938F5F69CF85EEA5CF80911C02909125
:100A50001D02A0911E02B0911F02892B8A2B8B2BA5
:100A600009F49ECF0E943A0400911C0210911D02CD
:100A700020911E0230911F026C197D098E099F0979
:100A8000061717072807390708F08ACFC0CF81E07B
:100A9000C3CF80E0C1CF82E0BFCF83E0BDCF1F9343
:100AA000CF93DF93EA01122FDC0111968D919C9177
:100AB000DC01ED91FC910280F381E02D0995C817CE
:100AC000D90729F4812F0E945F0491E0811190E001
:100AD000892FDF91CF911F910895CF93DF93EC0180
:100AE0008B818823A1F0888191E0909320028093EC
:100AF0004202109221021092430281E00E945F04A0
:100B000091E0811190E0892FDF91CF9108951092AB
:100B1000D3011092D20110922102109243020E943E
:100B2000990285EC91E09093AC018093AB0186EC47
:100B300091E09093B0018093AF0181E08B83CE016F
:100B40000E946D05982F8111CECFDDCF8F929F929D
:100B5000AF92BF92CF92DF92EF92FF924B015C0176
:100B60000E943A046B017C010E943A046C197D09D1
:100B70008E099F09683E734081059105A8F321E025
:100B8000821A9108A108B10888EEC80E83E0D81E29
:100B9000E11CF11C81149104A104B10429F7FF9018
:100BA000EF90DF90CF90BF90AF909F908F9008957F
:100BB000AF92BF92CF92DF92EF92FF920F931F936B
:100BC000CF93DF936C017B018B01040F151FEB01A9
:100BD0005E01AE18BF08C017D10759F06991D60160
:100BE000ED91FC910190F081E02DC6010995892BD2
:100BF00079F7C501DF91CF911F910F91FF90EF9091
:100C0000DF90CF90BF90AF90089590E080E008957E
:100C1000FC01538D448D252F30E0842F90E0821B02
:100C2000930B541710F00F96089501970895FC0147
:100C3000918D828D981761F0A28DAE0FBF2FB11DDF
:100C40005D968C91928D9F5F9F70928F90E008953A
:100C50008FEF9FEF0895FC01918D828D981731F0F1
:100C6000828DE80FF11D858D90E008958FEF9FEF45
:100C70000895FC01918D228D892F90E04096821B72
:100C800091098F709927089584E492E00E943906B3
:100C900021E0892B09F420E0822F089580E090E084
:100CA000892B29F00E94440681110C9400000895BC
:100CB000FC01A48DA80FB92FB11D9D962C91848D98
:100CC00090E001968F709927848FA689B7892C931D
:100CD000A089B1898C91837080648C93938D848D6D
:100CE000981306C00288F389E02D80818F7D808370
:100CF0000895EF92FF920F931F93CF93DF93EC0130
:100D000081E0888F9B8D8C8D98131AC0E889F989B2
:100D1000808185FF15C09FB7F894EE89FF896083B5
:100D2000E889F98980818370806480839FBF81E036
:100D300090E0DF91CF911F910F91FF90EF90089578
:100D4000F62E0B8D10E00F5F1F4F0F701127E02E56
:100D50008C8D8E110CC00FB607FCFACFE889F9898B
:100D6000808185FFF5CFCE010E945806F1CFEB8D33
:100D7000EC0FFD2FF11DF5A69FB7F8940B8FEA89B4
:100D8000FB8980818062D1CF0F931F93CF93DF9334
:100D90008C01D0E0C0E0F801EC0FFD1F64916623E8
:100DA00041F084E492E00E947906892B11F02196AB
:100DB000F2CFCE01DF91CF911F910F910895CF9384
:100DC000DF93EC01888D8823B9F0AA89BB89E88973
:100DD000F9898C9185FD03C0808186FD0DC00FB619
:100DE00007FCF7CF8C9185FFF2CF808185FFEDCF97
:100DF000CE010E945806E9CFDF91CF910895089562
:100E000008950F931F93CF93DF9300D0CDB7DEB734
:100E10006A83E0918302F09184023097F9F089832C
:100E200084819581029798F0808191E090932002CF
:100E300080934202109221021092430221E042E08C
:100E400050E0BE016F5F7F4FCF010E944F050F90B2
:100E50000F90DF91CF911F910F9108958F77898324
:100E60000091850210918602C8010E9411036981D8
:100E7000C8010E942F036A81C8010E942F03C80184
:100E80000E940903E4CFCF93DF93CDEAD2E08770CD
:100E9000886E8883ECEAF2E0962F9770990F990F8D
:100EA000990F8081807C242F2770892B822B80834F
:100EB00095E0440F551F9A95E1F787FB882780F945
:100EC000482B660F771F660F771F642B85EF0E94F4
:100ED00001078881682F677090E2699FB001112433
:100EE000282F269526952695277094E0299F900116
:100EF0001124622B8295869586958370682B84EFEA
:100F0000DF91CF910C9401072F923F924F925F9205
:100F10006F927F928F929F92AF92BF92CF92DF9209
:100F2000EF92FF920F931F93CF93DF93DC01149600
:100F3000ED91FC911597EF2B09F425C169012A0168
:100F4000EC01888191E090932002809342021092FC
:100F500021021092430220E041E050E0CD010E94C6
:100F60004F05782E882309F40EC1F12CE12C33248F
:100F700033948C819D8186010E191F09801791077A
:100F800008F48C0128800E943A044B015C01809196
:100F90001A02811173C0602EB0E2B01710F480E223
:100FA000682E30921A0221E0C601801B910BE816D0
:100FB000F90608F420E020931902EFEFE0931802FD
:100FC000109217028FEF860D809316023092F50172
:100FD0008091F501220C282A2092F5018091F401DC
:100FE000813009F090C01092F4010E943A044B0144
:100FF0005C018091F5018093BB0080911C0290916F
:101000001D02A0911E02B0911F02892B8A2B8B2BEF
:10101000A1F00E943A0420911C0230911D024091DF
:101020001E0250911F02681979098A099B09261727
:1010300037074807590708F442C08091BC0083FD78
:10104000D8CFF5ECF093BC000E943A044B015C0150
:1010500080911A02813009F45AC0809117028615D6
:1010600010F460901702A6EFB1E0E4EDF1E080E04B
:10107000861551F19D9191938F5FFACF80911C025B
:1010800090911D02A0911E02B0911F02892B8A2B04
:101090008B2B09F47CCF0E943A0420911C023091E2
:1010A0001D0240911E0250911F02681979098A0998
:1010B0009B09261737074807590708F068CF809122
:1010C0001B020E94B702612C1092D3016092D201E0
:1010D0006016110609F057C042018E0C9F1C540186
:1010E000C501881999098017910798F589819A8116
:1010F000DC01ED91FC910284F385E02D0995F50169
:1011000081935F01EDCF85EE8093BC009DCF8091F0
:101110001C0290911D02A0911E02B0911F02892B0A
:101120008A2B8B2B09F494CF0E943A0420911C0245
:1011300030911D0240911E0250911F0268197909D9
:101140008A099B09261737074807590708F080CFF7
:10115000B6CFE00EF11EEC14FD0408F40ACF872D83
:10116000DF91CF911F910F91FF90EF90DF90CF9083
:10117000BF90AF909F908F907F906F905F904F90B7
:101180003F902F900895712CEACFCF93DF9300D03A
:10119000CDB7DEB7E0918302F0918402898322E02B
:1011A00030E0AE014F5F5F4FBA01309751F0CF0191
:1011B0000E94840789819A810F900F90DF91CF91CF
:1011C000089580918502909186020E941004F2CFCA
:1011D000CF93DF9300D01F92CDB7DEB7FC018281A1
:1011E0009381698323E030E0AE014F5F5F4FBA0126
:1011F0000097A1F00E94840729816A8170E090E045
:1012000080E0982F872F762F6627822B2B81622BE9
:101210000F900F900F90DF91CF9108958481958169
:101220000E941004E9CF8F929F92AF92BF92CF920B
:10123000DF92EF92FF920F931F93CF93DF93FC0106
:101240004385548565857685452B462B472B09F4C8
:1012500079C0EC016AEF0E94E8080B891C8930E034
:1012600020E0C72ED82EE92EFF24E7FCFA94C01AFE
:10127000D10AE20AF30A57E0959587957795679525
:101280005A95D1F7000F111F221F331F4B015C012C
:10129000801A910AA20AB30AA5019401AD89BE89F8
:1012A0000E94A8164B015C01FBE0B594A7949794AB
:1012B0008794FA95D1F7A7019601C701B6010E945C
:1012C00057169B01AC01ACE055954795379527958E
:1012D000AA95D1F7AF89B88D0E94A8169B01AC01E1
:1012E000BEE05595479537952795BA95D1F7280DC6
:1012F000391D4A1D5B1D2F87388B498B5A8BA5E002
:10130000B0E00E949D1660587F4F8F4F9F4F672F10
:10131000782F892F992787FD9A950E94771920E0C9
:1013200030E048EC52E40E94CE18DF91CF911F913B
:101330000F91FF90EF90DF90CF90BF90AF909F9074
:101340008F90089560E070E080EC9FE7EECF2F92E1
:101350003F924F925F926F927F928F929F92AF9245
:10136000BF92CF92DF92EF92FF920F931F93CF9392
:10137000DF93CDB7DEB76D970FB6F894DEBF0FBE23
:10138000CDBF9D8F8C8F0E94130967EF8C8D9D8D33
:101390000E94E808688F798F8A8F9B8FEC8DFD8D76
:1013A00087859089A189B2896C017D01FF0CCC08E9
:1013B000DC2C76019C01AD016C2D7C2D8C2D9C2D9F
:1013C000345F4140510961097109810991092987F7
:1013D0003A874B875C873B014C0159016A017B01CD
:1013E0008C010E94B016322E232E4A8B5B8B6C8BA5
:1013F0007D8B8E8B9F8BAC8DBD8D5C963C915C976D
:101400005B962C91932F990F990B492F592F692F88
:10141000792F892F0E94B0160CE00E94DF17522E00
:1014200039834D875E876F87788B898B492EEC8D4A
:10143000FD8D368D258D932F990F990BA32CB22CF2
:10144000CA88DB88EC88FD880E891F89492F592FAF
:10145000692F792F892F0E94B01608E00E94F81793
:10146000A52CB980CD84DE84EF84F8880989142DF9
:101470000E94151870588F4F9F4FAC8DBD8D599697
:10148000ED91FC915F01D12CC12CE12CF12C870155
:10149000E983BA82CB82DC82ED82FE820F831887D9
:1014A000C12CD12CE12CF12C00E010E00E94B016F0
:1014B00001E20E94F8172983532E4D875E876F87BC
:1014C000788B898B492EA0E00E94271809F43DC132
:1014D000AC8DBD8D94963C91949793962C91932FBF
:1014E000990F990BA32CB22CCA88DB88EC88FD8855
:1014F0000E891F89492F592F692F792F892F0E9413
:10150000B01619014A8B5B8B6C8B7D8B8E8B9F8BFE
:10151000EC8DFD8D32A121A1932F990F990BA984F8
:10152000BA84CB84DC8473018401492F592F692F3D
:10153000792F892F0E94B01601E10E94DF17510117
:10154000CA88DB88EC88FD880E891F890E941518DF
:1015500059016A017B01282E192F488D598D6A8DFA
:101560007B8D84E075956795579547958A95D1F75A
:1015700080E090E0A0E1B0E0841B950BA60BB70BD8
:101580003C014D01990C6608762C43019C01AD018C
:10159000662D762D862D962D0FE10E94DF17722E77
:1015A000832E942E652EB62FA72F382E9987EC8D7B
:1015B000FD8D30A1278D932F990F990B492F592F0E
:1015C000692F792F892F03E20E94DF17022D0E94D5
:1015D000151859016A017B018C01272D382D492DE1
:1015E000562D6B2F7A2F832D99850E941E18E5E3C7
:1015F000AE2EFCE0BF2EC12CD12CE12CF12C00E052
:1016000010E00E94B016A980B52CCD84DE84EF8452
:10161000F8880989142D0E940A1729873A874B8771
:101620005C8769837D878E879F870DE00E94F8170E
:10163000922E832E742E652E562E472E382E292E4E
:10164000AC8DBD8D9A963C919A9799962C91932F3B
:10165000990F990BA92CB82CC72CD62CE52CF42C5F
:10166000032D122D492F592F692F792F892F0E9471
:10167000B0160E94B01609E10E94F817A984BA8436
:10168000CB84DC84E980FD840E851F850E941518BB
:1016900019012A013B014C01EC8DFD8D30A527A1DC
:1016A000932F990F990B492F592F692F792F892F34
:1016B0000E94B01603E10E94F81759016A017B01EC
:1016C0008C019101A201B301C4010E94151808E028
:1016D0000E94F81759016A017B01E82F192FAC8D80
:1016E000BD8D96963C91969795962C91932F990F38
:1016F000990B492F592F692F792F892F04E00E94C8
:10170000DF170E2F0E9415180E946F1920E030E09D
:1017100040E85BE30E947A1A6D960FB6F894DEBF3C
:101720000FBECDBFDF91CF911F910F91FF90EF9032
:10173000DF90CF90BF90AF909F908F907F906F90F1
:101740005F904F903F902F90089560E070E0CB0144
:10175000E3CFFC0101900020E9F73197AF01481B6E
:10176000590BBC0184E492E00C94D805CF93DF932D
:101770000E94C406EC0188E491E00E94A90B8C0F42
:101780009D1FDF91CF9108958F929F92AF92BF924C
:101790000F931F93CF93DF93CDB7DEB7A1970FB60B
:1017A000F894DEBF0FBECDBF19A2423008F44AE064
:1017B0008E010F5D1F4F842E912CB12CA12CA50101
:1017C00094010E947B16E62FB901CA01EA30F4F4B5
:1017D000E05DD801EE938D01232B242B252B79F787
:1017E00090E080E0109719F0CD010E94A90BA1961E
:1017F0000FB6F894DEBF0FBECDBFDF91CF911F9122
:101800000F91BF90AF909F908F900895E95CE1CFCA
:101810004F925F926F927F928F929F92AF92BF9200
:10182000CF92DF92EF92FF920F931F93CF936B01B2
:101830007C01742EAC019B010E94371B882399F018
:101840008BE491E0CF911F910F91FF90EF90DF908B
:10185000CF90BF90AF909F908F907F906F905F9050
:101860004F900C94A90B46015701E894B7F82FEF5D
:101870003FEF4FE75FE7C501B4010E94371B8111BD
:101880000DC02FEF3FEF4FE75FE7C501B4010E94A6
:10189000C91818161CF48FE491E0D4CF2FEF3FEF56
:1018A0004FE75FE4C701B6010E94751A18161CF4D1
:1018B00083E591E0C7CF2FEF3FEF4FE75FECC70124
:1018C000B6010E94C91887FDF3CF20E030E0A901DE
:1018D000C701B6010E94C91810E000E087FF0AC0E6
:1018E0006DE284E492E00E9479068C01F7FAF094AC
:1018F000F7F8F094C0E060E070E080E09FE37C16D1
:1019000041F020E030E040E251E40E94CE18CF5F89
:10191000F6CFA70196010E945D182B013C010E94A1
:1019200040194B015C014AE00E94C40B7C01E00EAF
:10193000F11ECC23C1F1C501B4010E9475199B01B0
:10194000AC01C301B2010E945C184B015C016EE264
:1019500084E492E00E947906E80EF91EC15018F165
:1019600020E030E040E251E4C501B4010E947A1A5F
:101970002B013C010E9440194B01B12CA12C4AE0E3
:10198000C501B4010E94C40BE80EF91EC501B401E3
:101990000E9475199B01AC01C301B2010E945C1841
:1019A0004B015C01DBCFC701CF911F910F91FF90DD
:1019B000EF90DF90CF90BF90AF909F908F907F90EF
:1019C0006F905F904F900895CF93DF9342E00E9415
:1019D000080CEC0188E491E00E94A90B8C0F9D1F7C
:1019E000DF91CF91089585ED8093BC0080911C021A
:1019F00090911D02A0911E02B0911F020796A11D99
:101A0000B11D23E0B695A795979587952A95D1F7AF
:101A10002091BC0024FD03C010921A020895409149
:101A20001C0250911D0260911E0270911F02452BF5
:101A3000462B472B69F30097A105B10541F02AE237
:101A40002A95F1F700C00197A109B109E1CF809172
:101A50001B020C94B7020C940D1D0C940D1DCF931A
:101A6000DF93EB01FB01349620E2DF011D922A9502
:101A7000E9F744E250E060E070E0488359836A830C
:101A80007B83FC0142815381052E000C660B770B92
:101A90004C835D836E837F8346E050E060E070E0BE
:101AA000488759876A877B872FB7F89440918201CE
:101AB0005091830160918401709185012FBF488B03
:101AC000598B6A8B7B8B84819581FC01438554857E
:101AD00065857685452B462B472B81F00E94A7090B
:101AE00020E030E048EC52E40E94CE186C8B7D8BF5
:101AF0008E8B9F8B81E0DF91CF91089560E070E045
:101B000080EC9FE7EDCFCF93DF93EB01FB013496A1
:101B100020E2DF011D922A95E9F744E250E060E0FF
:101B200070E0488359836A837B83FC01428153813F
:101B3000052E000C660B770B4C835D836E837F83D1
:101B40004DE050E060E070E0488759876A877B8706
:101B50002FB7F894409182015091830160918401E4
:101B6000709185012FBF488B598B6A8B7B8B848149
:101B700095810E9413096C8B7D8B8E8B9F8B81E0EE
:101B8000DF91CF9108950F931F93CF93DF938C0133
:101B9000EB0188E2FB0111928A95E9F74BE050E0F6
:101BA00067E571E0CE010E94961D1B8681E090E002
:101BB000A0E0B0E08C879D87AE87BF87F801828167
:101BC0009381092E000CAA0BBB0B888B998BAA8BD7
:101BD000BB8B86E090E0A0E0B0E08C8B9D8BAE8B61
:101BE000BF8B1CA21DA21EA21FA280E090E0A6E94E
:101BF000B3E48C8F9D8FAE8FBF8F80E090E8A9E813
:101C0000B4E4888F998FAA8FBB8F86EA9BE9A4E4FE
:101C1000BCE388A399A3AAA3BBA3DF91CF911F9193
:101C20000F9108950F931F93CF93DF938C01EB01D6
:101C300088E2FB0111928A95E9F74BE050E067E5F5
:101C400071E0CE010E94961D1B8681E090E0A0E02D
:101C5000B0E08C879D87AE87BF87F8018281938132
:101C6000092E000CAA0BBB0B888B998BAA8BBB8B04
:101C70008DE090E0A0E0B0E08C8B9D8BAE8BBF8BB5
:101C80001CA21DA21EA21FA280E090E0A0E2B2EC66
:101C90008C8F9D8FAE8FBF8F80E090E0AAEAB2E478
:101CA000888F998FAA8FBB8F8AE097EDA3E2BCE360
:101CB00088A399A3AAA3BBA3DF91CF911F910F91F2
:101CC00008951F920F920FB60F9211242F933F93F6
:101CD0004F935F936F937F938F939F93AF93BF9334
:101CE000EF93FF938091B900887F803609F44AC052
:101CF000F0F5883209F4A7C018F5803109F49BC0CB
:101D0000B8F4882309F4F9C0883009F494C0FF912D
:101D1000EF91BF91AF919F918F917F916F915F9163
:101D20004F913F912F910F900FBE0F901F901895DC
:101D3000883109F488C0803251F78093180214C0AA
:101D4000803409F49DC040F48033B9F38833F9F648
:101D50008093180285ECB0C0803509F485C08835C1
:101D600009F496C0883499F60E94F30CD0CF8839D4
:101D700009F48CC038F5883729F050F4883611F012
:101D8000803729F683E080931A021092D10157C060
:101D9000883809F47BC0803919F0803809F0B7CF52
:101DA0008091D101803208F071C0E091D10181E0D1
:101DB0008E0F8093D1018091BB00F0E0EF54FE4F75
:101DC00080833DC0803B39F0E0F4803A09F479C06B
:101DD000883A09F09CCF84E080931A021092AE01F9
:101DE0001092AD01E091AB01F091AC0109958091A9
:101DF000AD0181110FC081E08093AD0110928B0184
:101E000009C0803C09F4A6CF883C09F4A3CF883BE5
:101E100009F07DCFE091AE0181E08E0F8093AE019D
:101E2000F0E0E557FE4F80818093BB009091AE01BA
:101E30008091AD0129C08091F5018093BB0085ECB4
:101E40008093BC0064CF909117028091160298177E
:101E500058F5E091170281E08E0F80931702F0E0B1
:101E6000EA50FE4F8081E9CFE091170281E08E0FAA
:101E7000809317028091BB00F0E0EA50FE4F808310
:101E800090911702809116029817C8F285E8D8CF72
:101E9000E091170281E08E0F809317028091BB00C2
:101EA000F0E0EA50FE4F80838091190281115CCFEF
:101EB00081E08093F40184EA8093BC0010921A02BE
:101EC00026CF85EC8093BC0010921A028091D1013C
:101ED000803230F4E091D101F0E0EF54FE4F1082F7
:101EE0006091D10170E0E091AF01F091B00181EB20
:101EF00091E009951092D1010ACF1092180234CFC7
:101F00001F920F920FB60F9211242F933F938F932E
:101F10009F93AF93BF938091820190918301A09191
:101F20008401B09185013091810123E0230F2D3789
:101F300058F50196A11DB11D209381018093820166
:101F400090938301A0938401B093850180918601D1
:101F500090918701A0918801B09189010196A11DFE
:101F6000B11D8093860190938701A0938801B0935F
:101F70008901BF91AF919F918F913F912F910F90C8
:101F80000FBE0F901F90189526E8230F0296A11DF3
:101F9000B11DD2CF1F920F920FB60F9211242F9323
:101FA0003F934F935F936F937F938F939F93AF93E1
:101FB000BF93EF93FF9384E492E00E945806FF9151
:101FC000EF91BF91AF919F918F917F916F915F91B1
:101FD0004F913F912F910F900FBE0F901F9018952A
:101FE0001F920F920FB60F9211242F938F939F93EE
:101FF000EF93FF93E0915402F09155028081E091BC
:102000005A02F0915B0282FD1BC0908180915D02BB
:102010008F5F8F7020915E02821741F0E0915D0228
:10202000F0E0EC5BFD4F958F80935D02FF91EF91A7
:102030009F918F912F910F900FBE0F901F90189529
:102040008081F4CFCF93DF93E4E4F2E01382128235
:1020500088EE93E0A0E0B0E084839583A683B78305
:102060008EE191E09183808385EC90E09587848771
:1020700084EC90E09787868780EC90E0918B808B52
:1020800081EC90E0938B828B82EC90E0958B848B3B
:1020900086EC90E0978B868B118E128E138E148EA9
:1020A000C1E8D2E01B821A821B861C861D861E8612
:1020B0001BA61CA68CE190E00E94711CDC0111960D
:1020C0001C921E9213961C921E92129783E01B96EE
:1020D0008C931B978DE01C968C931C978CE01E961E
:1020E0008C931E978BE01D968C931D97E2EDF2E08A
:1020F000E491F0E0EE0FFF1FEB53FD4F85919491BB
:1021000056969C938E935597E4EBF2E0E4915A96A1
:10211000EC935A97EAEDF2E0E491F0E0EE0FFF1F46
:10212000EB53FD4F8591949150969C938E931F97FE
:10213000ECEBF2E0E4915796EC935797EBEDF2E07D
:10214000E491F0E0EE0FFF1FE955FD4F859194916A
:1021500054969C938E935397EDEBF2E0E49158964E
:10216000EC935897ECEDF2E0E491F0E0EE0FFF1FF6
:10217000EB53FD4F8591949152969C938E9351977A
:10218000EEEBF2E0E4915996EC93599740E452E477
:102190006FE070E014964D935D936D937C93179769
:1021A00081E090E019969C938E9318971A961C9252
:1021B0001A975B961C925B97BD83AC8386E090E098
:1021C0000E94711CFC018EE391E09183808388E181
:1021D00091E093838283D583C483FF83EE8386E07B
:1021E00090E00E94711CFC0180E391E09183808368
:1021F00013821282D583C483F987E887DF91CF9158
:102200000895CF93DF93CDB7DEB76A970FB6F894F2
:10221000DEBF0FBECDBF789484B5826084BD84B527
:10222000816084BD85B5826085BD85B5816085BDD1
:1022300080916E00816080936E0010928100809189
:102240008100826080938100809181008160809311
:102250008100809180008160809380008091B10036
:1022600084608093B1008091B00081608093B00061
:1022700080917A00846080937A0080917A008260F5
:1022800080937A0080917A00816080937A008091B7
:102290007A00806880937A001092C100E091540225
:1022A000F091550282E08083E0915002F09151025A
:1022B0001082E0915202F091530280E180831092EB
:1022C0005C02E0915802F091590286E08083E0912F
:1022D0005602F0915702808180618083E09156021E
:1022E000F0915702808188608083E0915602F091DE
:1022F0005702808180688083E0915602F0915702F6
:1023000080818F7D808380EF91E00E94B60B86ED07
:1023100091E00E94B60B8DEA91E00E94B60B8BE82B
:1023200091E00E94B60B0091850210918602011582
:10233000110509F04EC080918302909184020097AC
:1023400011F00E940D1D86E090E00E94711C8C012E
:10235000809181029091820227E7D8012C931296F6
:102360009C938E93119713961C92139780E290E0A2
:1023700015969C938E931497109384020093830276
:102380001092D3011092D2011092210210924302B6
:102390000E94990285EC91E09093AC018093AB018F
:1023A00086EC91E09093B0018093AF0181E0F80159
:1023B0008383C8010E946D05811154C084E591E0BA
:1023C0000E94B60B68EE73E080E090E00E94A605E4
:1023D000F9CFD8011B968C918F3F41F061E00E94AC
:1023E000D80261E0F80183850E944D02D8018D91E9
:1023F0009C91892B09F4CDC1FFB6F89480916401BA
:10240000811127C0E9EDF2E08491EBEBF2E09491C9
:10241000E82FF0E0EE0FFF1FE757FD4FA591B491B5
:10242000EC91E92321F461E08AE00E944D0261E031
:102430008AE00E94D8028CB580618CBD8CB5806426
:102440008CBD61E08DE00E94D80261E08BE00E94CB
:10245000D802809164018F5F80936401FFBE81E0A8
:10246000F801838F8091830290918402009709F490
:10247000BBC120ED298321E030E0AE014F5F5F4F0B
:10248000BA010E948407898190E0B0E0A0E08093C7
:102490008C0290938D02A0938E02B0938F028835A8
:1024A0009105A105B10509F089CF88E80E94C5080A
:1024B00090939502809394028AE80E94C5089093B5
:1024C0009702809396028CE80E94C5089093990227
:1024D000809398028EE80E94C50890939B02809397
:1024E0009A0280E90E94C50890939D0280939C0205
:1024F00082E90E94C50890939F0280939E0284E91E
:102500000E94C5089093A1028093A00286E90E94D0
:10251000C5089093A3028093A20288E90E94C5088F
:102520009093A5028093A4028AE90E94C508909323
:10253000A7028093A6028CE90E94C5089093A90285
:102540008093A8028EE90E94C5089093AB02809305
:10255000AA0280918C0290918D02A0918E02B0917E
:102560008F02892B8A2B8B2B41F050E040E070E0EA
:1025700060E085E090E00E94430764E670E080E060
:1025800090E00E94A6058FE291E00E94B60B809138
:102590008C0290918D02A0918E02B0918F02892BB6
:1025A0008A2B8B2B41F044E050E064E070E082E045
:1025B00090E00E94430787E191E00E94B60B8AEE0B
:1025C00090E00E94B60B9E012F5E3F4F3E8B2D8BFD
:1025D00081E892E00E941309962E872E382E292E2C
:1025E00080918C0290918D02A0918E02B0918F0209
:1025F000892B8A2B8B2B09F406C181E892E00E947B
:10260000A70920E030E048EC52E40E94CE187B019C
:102610008C01292D382D432D522D692D782D832D98
:10262000922D0E94371B811135C09701A801B70177
:10263000C8010E94371B81112DC020E030E040E22C
:1026400052EC692D782D832D922D0E94C91887FD9B
:1026500021C020E030E04AEA52E4692D782D832D34
:10266000922D0E94751A1816ACF020E030E046E971
:1026700053E4B701C8010E94C91887FD0BC020E0D0
:1026800030E849E854E4B701C8010E94751A1816E9
:102690000CF0C3C06AE070E080E090E00E94A60504
:1026A00081E892E00E941309962E872E382E292E5B
:1026B00080918C0290918D02A0918E02B0918F0238
:1026C000892B8A2B8B2B09F4A3C081E892E00E940E
:1026D000A70920E030E048EC52E40E94CE187B01CC
:1026E0008C01292D382D432D522D692D782D832DC8
:1026F000922D0E94371B811135C09701A801B701A7
:10270000C8010E94371B81112DC020E030E040E25B
:1027100052EC692D782D832D922D0E94C91887FDCA
:1027200021C020E030E04AEA52E4692D782D832D63
:10273000922D0E94751A1816ACF020E030E046E9A0
:1027400053E4B701C8010E94C91887FD0BC020E0FF
:1027500030E849E854E4B701C8010E94751A181618
:102760000CF05BC080E792E00E94B60B68EE73E06D
:1027700080E090E00E94A605A0E0B0E0AB2B09F459
:1027800027CF0E944406882309F422CF0E9400002C
:102790001FCF61E0F80184850E94D802D8011A9603
:1027A0008C911A978B7FE1F460E01C968C910E94CB
:1027B0004D02D8011D968C918F3F41F061E00E943F
:1027C000D80261E0F80185850E944D02D8011E966D
:1027D0008C918F3F09F443CE60E00E94D8023FCE37
:1027E00061E0F8018485E3CF80ED898321E030E06A
:1027F000AE014F5F5F4FBA018091850290918602D2
:102800000E94100440CE60E070E080EC9FE7F9CEBB
:1028100060E070E080EC9FE75CCF20E030E54DE7C2
:1028200054E4B701C8010E94CE1821E03EED42E415
:102830005EE30E94E71A2B013C018091790190919F
:102840007A01AC014F5F5F4F50937A014093790159
:1028500065E070E00E946716880F991F880F991F26
:10286000DC01AB59BE4F6D01A301920160E070E045
:1028700080E89FE30E945C1820E03AE24DE257E4D2
:102880000E947A1AF601608371838283938384E1C4
:10289000E5E6F1E0DE01119601900D928A95E1F7EF
:1028A0009E012F5F3F4F69015601D50114968D910E
:1028B0009D910D90BC91A02D8F8B988FA98FBA8F71
:1028C000F6014080518062807380A3019201BC01B7
:1028D000CD010E94C91887FF10C08F89988DA98DDE
:1028E000BA8DF60180839183A283B383D5011496B8
:1028F0004D925D926D927C921797B4E0AB0EB11C35
:10290000ED89FE89EA15FB0581F634E0C30ED11C82
:102910008D899E89C816D90639F6A984BA84CB84D4
:10292000DC8480917F0190918001019690938001D9
:1029300080937F014090100150901101609012012E
:10294000709013019201A301B701C8010E94751A8A
:10295000181614F027013801C201D3018093100129
:1029600090931101A0931201B093130140907B0149
:1029700050907C0160907D0170907E019201A301D6
:10298000B701C8010E94C91887FD02C0270138019C
:10299000C201D30180937B0190937C01A0937D01C0
:1029A000B0937E0140900C0150900D0160900E019B
:1029B00070900F01292D382D432D522DB201C301E6
:1029C0000E94C91887FD04C0492C582C632C722C16
:1029D000C201D30180930C0190930D01A0930E01CD
:1029E000B0930F01409008015090090160900A01D6
:1029F00070900B019201A301692D782D832D922DEA
:102A00000E94C91887FD04C0492C582C632C722CD5
:102A1000C201D3018093080190930901A0930A0198
:102A2000B0930B01409004015090050160900601A5
:102A3000709007019501A601B201C3010E94C91857
:102A400087FD02C025013601C201D3018093040134
:102A500090930501A0930601B093070140900001F7
:102A60005090010160900201709003019501A60150
:102A7000B201C3010E94751A181614F0250136011F
:102A8000C201D3018093000190930101A093020140
:102A9000B09303012FB7F894609182017091830184
:102AA00080918401909185012FBF4AE00E94C40B60
:102AB0008EE591E00E94A90B42E0692D782D832DCF
:102AC000922D0E94080C8EE591E00E94A90B42E035
:102AD000B701C8010E94080C8EE591E00E94A90B85
:102AE000B501C6010E94E40C80917F0190918001A4
:102AF0006AE070E00E946716892B09F037CE8CE5FA
:102B000092E00E94B60B8FE492E00E94C4066091AE
:102B10000C0170910D0180910E0190910F0142E026
:102B20000E94080C80E691E00E94A90B60910801C8
:102B30007091090180910A0190910B010E94E40CAF
:102B40008EE392E00E94C406609110017091110121
:102B5000809112019091130142E00E94080C80E6DE
:102B600091E00E94A90B60917B0170917C018091A2
:102B70007D0190917E010E94E40C8DE292E00E9422
:102B8000C406609104017091050180910601909145
:102B9000070142E00E94080C80E691E00E94A90B28
:102BA00060910001709101018091020190910301F7
:102BB0000E94E40C89E192E00E94B60B80EF93E260
:102BC000A4E7B9E48093100190931101A09312013E
:102BD000B093130110927B0110927C0110927D0141
:102BE00010927E0180930C0190930D01A0930E0131
:102BF000B0930F0180EF93E2A4E7B9EC8093080152
:102C000090930901A0930A01B0930B0180EF93E226
:102C1000A4E7B9E48093040190930501A093060111
:102C2000B093070180EF93E2A4E7B9EC8093000131
:102C300090930101A0930201B093030197CDCF932C
:102C4000DF93C0918502D0918602209749F08A8156
:102C50009B81009711F00E940D1DCE010E940D1D59
:102C60008091830290918402009711F00E940D1DC3
:102C70008091870290918802009739F0DC01ED91F4
:102C8000FC910280F381E02D099580918902909159
:102C90008A02009749F0DC01ED91FC910280F381FA
:102CA000E02DDF91CF910994DF91CF910895DB0161
:102CB0008F939F930E949D16BF91AF91A29F800D0D
:102CC000911DA39F900DB29F900D1124089597FB25
:102CD000072E16F4009407D077FD09D00E94331810
:102CE00007FC05D03EF4909581959F4F089570950F
:102CF00061957F4F0895A1E21A2EAA1BBB1BFD010F
:102D00000DC0AA1FBB1FEE1FFF1FA217B307E407CA
:102D1000F50720F0A21BB30BE40BF50B661F771F22
:102D2000881F991F1A9469F7609570958095909502
:102D30009B01AC01BD01CF0108950E944D18A59FD4
:102D4000900DB49F900DA49F800D911D11240895A6
:102D5000B7FF0C949D160E949D16821B930B08953D
:102D6000DF93CF931F930F939A9DF02D219FF00D2A
:102D70008B9DF00D8A9DE02DF10D039FF00D029FBC
:102D8000E00DF11D4E9DE00DF11D5E9DF00D4F9D7E
:102D9000F00D7F936F93BF92AF925F934F93D501E6
:102DA0000E944D188B01AC01D7010E944D18EB0118
:102DB000E80FF91FD6010E94FF162F913F91D6010F
:102DC0000E944D18C60FD71FE81FF91FAF91BF9182
:102DD0000E94FF162F913F910E944D18C60FD71FDA
:102DE000E81FF91FD6010E944D18E60FF71F980142
:102DF000BE01CF010F911F91CF91DF9108950E94E5
:102E00004D18460F571FC81FD91F08F43196089553
:102E1000689401C0E894F92FF12B12F00C943C1740
:102E2000A0E0B0E0E6E1F7E10C94AE17092E0594BE
:102E300022F40E949817112392F4F0E80F26FFEF76
:102E4000E094F09400951095B094C094D094A1941F
:102E5000BF0ACF0ADF0AEF0AFF0A0F0B1F0B0E94FF
:102E6000471707FC0E949817CDB7DEB7ECE00C942B
:102E7000CA17689401C0E8948F929F92CF93DF9312
:102E80000E944717DF91CF919F908F9008958824DB
:102E90009924F401E401B0E49F93AA279A158B04C6
:102EA0009C04ED05FE05CF05D007A10798F4AD2FD2
:102EB000DC2FCF2FFE2FE92D982C892E982F872FCE
:102EC000762F652F542F432F322F2227B85031F7FA
:102ED000BF9127C01B2EBF91BB27220F331F441F5A
:102EE000551F661F771F881F991F881C991CEE1F8E
:102EF000FF1FCC1FDD1FAA1FBB1F8A149B04EC05FC
:102F0000FD05CE05DF05A007B10748F08A189B082C
:102F1000EC09FD09CE09DF09A00BB10B21601A9461
:102F2000E1F62EF49401AF01BE01CD01000C08952D
:102F30006095709580959095309540955095219528
:102F40003F4F4F4F5F4F6F4F7F4F8F4F9F4F0895B2
:102F50002F923F924F925F926F927F928F929F92A9
:102F6000AF92BF92CF92DF92EF92FF920F931F9397
:102F7000CF93DF93CDB7DEB7CA1BDB0B0FB6F89448
:102F8000DEBF0FBECDBF09942A88398848885F8488
:102F90006E847D848C849B84AA84B984C884DF80F9
:102FA000EE80FD800C811B81AA81B981CE0FD11DDD
:102FB0000FB6F894DEBF0FBECDBFED010895002E11
:102FC000083090F0982F872F762F652F542F432F9E
:102FD000322F22270850F4CF220F331F441F551FD2
:102FE000661F771F881F991F0A95B2F7002D089555
:102FF00097FD1094002E083098F00850232F342F9E
:10300000452F562F672F782F892F912DF4CF1594A8
:103010009795879577956795579547953795279510
:103020000A95AAF71124002D08952A0D3B1D4C1D69
:103030005D1D6E1D7F1D801F911F08952A193B097C
:103040004C095D096E097F09800B910B08950024DE
:10305000A7FD00942A17300540055005600570054E
:10306000800590050895AA1BBB1B51E107C0AA1F4C
:10307000BB1FA617B70710F0A61BB70B881F991F19
:103080005A95A9F780959095BC01CD010895EE0F52
:10309000FF1F0590F491E02D0994A29FB001B39F0A
:1030A000C001A39F700D811D1124911DB29F700D51
:1030B000811D1124911D08955058BB27AA270E94F5
:1030C00074180C943B1A0E942D1A38F00E94341A7E
:1030D00020F039F49F3F19F426F40C941A1A0EF4D8
:1030E000E095E7FB0C94141AE92F0E944C1A58F350
:1030F000BA17620773078407950720F079F4A6F5DD
:103100000C946E1A0EF4E0950B2EBA2FA02D0B0125
:10311000B90190010C01CA01A0011124FF27591B1C
:1031200099F0593F50F4503E68F11A16F040A22F22
:10313000232F342F4427585FF3CF46953795279593
:10314000A795F0405395C9F77EF41F16BA0B620B92
:10315000730B840BBAF09150A1F0FF0FBB1F661FD9
:10316000771F881FC2F70EC0BA0F621F731F841F1C
:1031700048F4879577956795B795F7959E3F08F042
:10318000B0CF9395880F08F09927EE0F9795879504
:1031900008950E94F01908F481E008950E94E21851
:1031A0000C943B1A0E94341A58F00E942D1A40F0D9
:1031B00029F45F3F29F00C94141A51110C946F1AE2
:1031C0000C941A1A0E944C1A68F39923B1F35523F0
:1031D00091F3951B550BBB27AA276217730784072A
:1031E00038F09F5F5F4F220F331F441FAA1FA9F3C0
:1031F00035D00E2E3AF0E0E832D091505040E695AE
:10320000001CCAF72BD0FE2F29D0660F771F881F0E
:10321000BB1F261737074807AB07B0E809F0BB0B01
:10322000802DBF01FF2793585F4F3AF09E3F510515
:1032300078F00C94141A0C946F1A5F3FE4F3983EE4
:10324000D4F3869577956795B795F7959F5FC9F7FE
:10325000880F911D9695879597F90895E1E0660F7F
:10326000771F881FBB1F621773078407BA0720F0F8
:10327000621B730B840BBA0BEE1F88F7E095089561
:103280000E94541A88F09F5798F0B92F9927B75188
:10329000B0F0E1F0660F771F881F991F1AF0BA95FA
:1032A000C9F714C0B13091F00E946E1AB1E00895D0
:1032B0000C946E1A672F782F8827B85F39F0B93FC2
:1032C000CCF3869577956795B395D9F73EF49095AD
:1032D0008095709561957F4F8F4F9F4F089597FB15
:1032E00016F40E941D1A0C94B319E89409C097FBB8
:1032F0003EF490958095709561957F4F8F4F9F4FCD
:103300009923A9F0F92F96E9BB279395F695879510
:1033100077956795B795F111F8CFFAF4BB0F11F4D3
:1033200060FF1BC06F5F7F4F8F4F9F4F16C088237A
:1033300011F096E911C0772321F09EE8872F762FB0
:1033400005C0662371F096E8862F70E060E02AF0F1
:103350009A95660F771F881FDAF7880F96958795DD
:1033600097F90895E894F92F96EBFF2381F0121650
:1033700013061406440B9395F695879577956795F4
:1033800057954040FF23B9F71BC09927089588231C
:1033900051F49850D2F7872B762F652F542F432F57
:1033A000322F20E0B1F3121613061406440B8823C3
:1033B0003AF09A95440F551F661F771F881FCAF76A
:1033C00055234AF4440F551F11F460FF04C06F5F8A
:1033D0007F4F8F4F9F4F880F9695879597F9089548
:1033E000990F0008550FAA0BE0E8FEEF1616170616
:1033F000E807F907C0F012161306E407F50798F07E
:10340000621B730B840B950B39F40A2661F0232B96
:10341000242B252B21F408950A2609F4A140A69512
:103420008FEF811D811D089597F99F6780E870E0F7
:1034300060E008959FEF80EC0895909580957095D9
:10344000609550954095309521953F4F4F4F5F4F78
:103450006F4F7F4F8F4F9F4F089500240A94161689
:10346000170618060906089500240A941216130672
:10347000140605060895092E0394000C11F4882300
:1034800052F0BB0F40F4BF2B11F460FF04C06F5F1C
:103490007F4F8F4F9F4F089557FD9058440F551FF2
:1034A00059F05F3F71F04795880F97FB991F61F0C6
:1034B0009F3F79F087950895121613061406551F3D
:1034C000F2CF4695F1DF08C0161617061806991FA9
:1034D000F1CF86957105610508940895E894BB279E
:1034E00066277727CB0197F908950E94F01908F411
:1034F0008FEF08950E948D1A0C943B1A0E942D1A8A
:1035000038F00E94341A20F0952311F00C94141A0C
:103510000C941A1A11240C946F1A0E944C1A70F30E
:10352000959FC1F3950F50E0551F629FF001729F68
:10353000BB27F00DB11D639FAA27F00DB11DAA1F77
:10354000649F6627B00DA11D661F829F2227B00DC4
:10355000A11D621F739FB00DA11D621F839FA00D4F
:10356000611D221F749F3327A00D611D231F849F9F
:10357000600D211D822F762F6A2F11249F575040F6
:103580009AF0F1F088234AF0EE0FFF1FBB1F661F71
:10359000771F881F91505040A9F79E3F510580F03A
:1035A0000C94141A0C946F1A5F3FE4F3983ED4F312
:1035B000869577956795B795F795E7959F5FC1F7DE
:1035C000FE2B880F911D9695879597F90895FA011E
:1035D000EE0FFF1F309621053105A1F16115710530
:1035E00061F48038BFE39B0749F168949038810506
:1035F00061F08038BFEF9B0741F099234AF5FF3F08
:10360000E1053105210519F1E8940894E795D90100
:10361000AA2329F4AB2FBE2FF85FD0F310C0FF5FB1
:1036200070F4A695E0F7F73950F019F0FF3A38F446
:103630009F779F930DD00F9007FC9058089546F008
:103640000C941A1A60E070E080E89FE308954FE759
:103650009F775F934F933F932F930E94E71B2F9188
:103660003F914F915F910E947A1A0C94441B0E94E3
:10367000F019880B990B089529F416F00C94141A7C
:103680000C946E1A0C941A1A0E94541AA8F39638C5
:10369000A0F707F80F92E8942BE33AEA48EB5FE7CC
:1036A0000E94901A0F920F920F924DB75EB70F9231
:1036B0000E942F1CE8E6F0E00E94761B4F915F917C
:1036C000EF91FF91E595EE1FFF1F49F0FE57E0686F
:1036D0004427EE0F441FFA95E1F74195550B0E94E0
:1036E000A91B0F9007FE0C949D1B0895DF93CF93A9
:1036F0001F930F93FF92EF92DF927B018C016894EE
:1037000006C0DA2EEF010E948D1AFE01E894A59101
:103710002591359145915591A6F3EF010E947418BA
:10372000FE019701A801DA9469F7DF90EF90FF900E
:103730000F911F91CF91DF9108959B01AC0160E043
:1037400070E080E89FE30C94CE180C94141A0C944B
:10375000631C0E94541AD8F39923C9F3940F511D86
:10376000A3F39150504094F059F0882332F0660F43
:10377000771F881F91505040C1F79E3F51052CF78D
:10378000880F911D9695879597F908955F3FACF046
:10379000983E9CF0BB27869577956795B79508F47A
:1037A000B1609395C1F7BB0F58F711F460FFE8CFF4
:1037B0006F5F7F4F8F4F9F4FE3CF0C946F1A16F0C0
:1037C0000C94631C0C941A1A68940C94141A0E949A
:1037D000541AA8F39923C1F3AEF3DF93CF931F9349
:1037E0000F93FF92C92FDD2788232AF02197660FB8
:1037F000771F881FDAF720E030E040E85FEB9FE3B7
:10380000883920F0803E38F021968F770E945D182D
:10381000E0E9F0E004C00E945D18EDEBF0E00E94EA
:10382000761B8B01BE01EC01FB2E6F57710975955C
:10383000771F880B990B0E94771928E132E741E343
:103840005FE30E948D1AAF2D9801AE01FF900F919A
:103850001F91CF91DF910E9474180C943B1AFA01CA
:10386000DC01AA0FBB1F9B01AC01BF5728F4222724
:1038700033274427507820C0B75190F4AB2F002451
:10388000469537952795011CA395D2F3002071F03A
:10389000220F331F441FB395DAF30ED00C945C183B
:1038A00061307105A0E88A07B94630F49B01AC018C
:1038B0006627772788279078309621F020833183F8
:1038C0004283538308959F3F31F0915020F48795B0
:1038D00077956795B795880F911D9695879597F978
:1038E00008950F931F93CF93DF938230910510F4C7
:1038F00082E090E0E091B002F091B10230E020E08F
:10390000B0E0A0E0309799F42115310509F44AC0E0
:10391000281B390B24303105D8F58A819B8161152C
:10392000710589F1FB0193838283FE0111C04081FF
:1039300051810281138148175907E0F04817590750
:1039400099F4109761F012960C93129713961C93AA
:103950003296CF01DF91CF911F910F91089500937F
:10396000B0021093B102F4CF2115310551F0421786
:10397000530738F0A901DB019A01BD01DF01F8010D
:10398000C1CFEF01F9CF9093B1028093B002CDCFB8
:10399000FE01E20FF31F8193919322503109398385
:1039A0002883D7CF2091AE023091AF02232B41F470
:1039B00020911601309117013093AF022093AE028F
:1039C00020911401309115012115310541F42DB7D5
:1039D0003EB74091180150911901241B350BE0911D
:1039E000AE02F091AF02E217F307A0F42E1B3F0BDB
:1039F0002817390778F0AC014E5F5F4F2417350761
:103A000048F04E0F5F1F5093AF024093AE02819378
:103A100091939FCFF0E0E0E09CCFCF93DF930097AE
:103A2000E9F0FC01329713821282A091B002B091AA
:103A3000B102ED0130E020E01097A1F42081318146
:103A4000820F931F2091AE023091AF0228173907E1
:103A500009F061C0F093AF02E093AE02DF91CF9125
:103A60000895EA01CE17DF07E8F54A815B819E01E0
:103A700041155105B1F7E901FB83EA834991599159
:103A8000C40FD51FEC17FD0761F480819181029668
:103A9000840F951FE90199838883828193819B8399
:103AA0008A83F0E0E0E012968D919C911397009745
:103AB000B9F52D913C911197CD010296820F931F7C
:103AC0002091AE023091AF022817390739F63097AE
:103AD00051F51092B1021092B002B093AF02A093D0
:103AE000AE02BCCFD383C28340815181840F951F26
:103AF000C817D90761F44E5F5F4F88819981480FDD
:103B0000591F518340838A819B819383828321152E
:103B1000310509F0B0CFF093B102E093B0029ECF2F
:103B2000FD01DC01C0CF13821282D7CFFB01DC0183
:103B30004150504048F001900D920020C9F701C05B
:103B40001D9241505040E0F7089511E0C3E7D1E0E5
:103B500004C0FE010E9447182196C437D107C9F757
:043B6000F894FFCF07
:103B6400F02374C9F0237449F02374C9F023744911
:103B7400F02374490000B2028000000000007906BE
:103B8400D8050806DF06390617062B0600000000D4
:103B9400FF062B0D00072F0DC30D00000000FF06CC
:103BA4002D0D0007830D120E0D0A006E616E006963
:103BB4006E66006F766600424D5032383000090060
:043BC400E280930008
:00000001FF
