:100000000C94CC040C94F4040C94F4040C94F404B8
:100010000C94F4040C94F4040C94F4040C94F40480
:100020000C94F4040C94F4040C94F4040C94F40470
:100030000C94F4040C94F4040C94F4040C94F40460
:100040000C945C220C94F4040C94CC220C94A62204
:100050000C94F4040C94F4040C94F4040C94F40440
:100060000C94FE220C94F40407634236B79BD8A785
:100070001A39685618AEBAAB558C1D3CB7CC5763CD
:10008000BD6DEDFD753EF6177231BF000000803F7B
:1000900008000000BE922449123EABAAAA2ABECD97
:1000A000CCCC4C3E00000080BEABAAAAAA3E000009
:1000B0000000BF000000803F000000000008417801
:1000C000D3BB4387D1133D190E3CC3BD4282AD2B38
:1000D0003E68EC8276BED98FE1A93E4C80EFFFBE30
:1000E00001C4FF7F3F0000000000202045787065BC
:1000F0006374656420372062797465732C20676FA0
:10010000743A2000202028313D6461746120746FAE
:100110006F206C6F6E672C20323D4E41434B206F39
:100120006E20616464722C20333D4E41434B206F3E
:100130006E20646174612C20343D6F74686572298F
:10014000002020493243204572726F7220436F6451
:10015000653A20007C3C3E5E2B3D3F2F5B5D3B2C97
:100160002A225C002020474E44202D3E20474E444A
:10017000002020564343202D3E20332E3356206F3F
:100180007220355600202053434C202D3E2041350F
:10019000002020534441202D3E2041340043686517
:1001A000636B20776972696E673A00E29C9720461C
:1001B00061696C656420746F20696E697469616C33
:1001C000697A6520424D5032383020766961204985
:1001D00032432100436F6E66696775726174696F9F
:1001E0006E20636F6D706C6574652E00E29C9320C9
:1001F000424D5032383020696E697469616C697A99
:100200006564207375636365737366756C6C7921BF
:1002100000496E697469616C697A696E6720424D44
:10022000503238302028493243206D6F6465292EC2
:100230002E2E0053443A20496E697469616C697AC4
:100240006174696F6E207375636365737366756C33
:100250000053443A20496E697469616C697A61742B
:10026000696F6E206661696C65640053443A204989
:100270006E697469616C697A696E67207769746800
:100280002043532070696E2000427574746F6E3A7B
:1002900020507265737320627574746F6E206F6E78
:1002A0002070696E203420746F20746F67676C65EE
:1002B000206C6F6767696E6700436F6D6D616E6478
:1002C000733A204C3D5374617274206C6F67676998
:1002D0006E672C20533D53746F70206C6F67676995
:1002E0006E672C20443D44656C6574652066696CBE
:1002F000652C20483D48656C70003D3D3D3D3D3DD1
:100300003D3D3D3D3D3D3D3D3D3D3D3D3D3D3D3D1D
:100310003D3D3D3D3D3D3D3D3D3D3D3D3D3D3D3D0D
:100320003D3D3D3D3D3D3D3D3D3D3D3D3D3D3D3DFD
:100330003D3D3D3D3D3D3D3D3D3D3D000A54696DEA
:10034000657374616D7009090954656D7028C2B0D8
:100350004329095072657373757265286850612965
:1003600009416C746974756465286D2900E29C9379
:100370002053442063617264207265616479202D8A
:1003800020757365204C20746F2073746172742023
:100390006C6F6767696E6700E29C9320534420632B
:1003A000617264204F4B00E29C97205344206361AC
:1003B0007264206661696C65642100E29C9320424E
:1003C00061726F6D65746572204F4B00E29C9720DF
:1003D0004261726F6D65746572206661696C6564F7
:1003E0002100E29C93205254432074696D65207370
:1003F0006574207375636365737366756C6C7921BE
:1004000000436F756C64206E6F74207265616420A8
:100410005254432074696D652E2053657474696E5F
:10042000672064656661756C742074696D652E2E35
:100430002E00E29C93205254432074696D65207312
:100440006574207375636365737366756C6C79216D
:10045000005254432074696D65206170706561724B
:100460007320756E7365742E2053657474696E679E
:1004700020746F2063757272656E742074696D6587
:100480002E2E2E00E29C93205254432074696D65F9
:100490002069732076616C69642C206C65617669D3
:1004A0006E6720697420756E6368616E6765642E7F
:1004B000003A003A0020002D002D0043757272654D
:1004C0006E74205254432074696D653A2000E29C9A
:1004D0009320525443204F4B00E29C9720525443A8
:1004E000206661696C65642100E29C932053504949
:1004F00020696E697469616C697A656400E29C9335
:1005000020427574746F6E20696E697469616C69DC
:100510007A6564206F6E2070696E20340055534CEC
:1005200049205061796C6F61643A204261726F6D4D
:1005300065746572202B20525443202B20534400B5
:1005400053443A205772697465206572726F722045
:100550006465746563746564002C002C002C0030A5
:10056000003A0030003A003000200030002D00300A
:10057000002D0053443A2046696C65206E6F74204C
:100580006F70656E0053443A204E6F74206C6F6735
:1005900067696E670000000000230026002900E262
:1005A0009C93204C6F6767696E67207374617274E7
:1005B00065642100E29C97204661696C6564207443
:1005C0006F207374617274206C6F6767696E672146
:1005D000005374617274696E67206C6F6767696E2F
:1005E000672E2E2E00E29C97204661696C65642080
:1005F000746F2073746F70206C6F6767696E67210A
:1006000000E29C93204C6F6767696E672073746F7C
:1006100070706564210053746F7070696E67206C30
:100620006F6767696E672E2E2E00427574746F6E49
:100630002070726573736564210050726573732056
:1006400027482720666F722068656C7000556E6BB6
:100650006E6F776E20636F6D6D616E643A2000423D
:100660007574746F6E3A205072657373206275747E
:10067000746F6E206F6E2070696E203420746F204E
:10068000746F67676C65206C6F6767696E6700439E
:100690006F6D6D616E64733A204C3D53746172747A
:1006A000206C6F6767696E672C20533D53746F70C1
:1006B000206C6F6767696E672C20443D44656C65EC
:1006C00074652066696C6500E29C97204661696CE0
:1006D000656420746F2064656C6574652066696C60
:1006E000652100E29C932046696C652064656C6519
:1006F000746564207375636365737366756C6C7978
:10070000210044656C6574696E6720646174612EB4
:100710006373762E2E2E00E29C97204661696C65ED
:100720006420746F2064656C6574652066696C650F
:100730002100E29C932046696C652064656C6574B9
:100740006564207375636365737366756C6C79217A
:100750000044656C6574696E6720646174612E6322
:1007600073762E2E2E0053746F7070696E67206C36
:100770006F6767696E672E2E2E004E6F742063754B
:100780007272656E746C79206C6F6767696E670052
:10079000E29C97204661696C656420746F207374D5
:1007A0006F70206C6F6767696E672100E29C932011
:1007B0004C6F6767696E672073746F707065642033
:1007C0007375636365737366756C6C79210053741C
:1007D0006F7070696E672064617461206C6F676709
:1007E000696E672E2E2E00E29C97204661696C652B
:1007F0006420746F2073746172742064617461206A
:100800006C6F6767696E672100E29C932044617496
:1008100061206C6F6767696E6720737461727465BD
:100820006420746F20646174612E63737600537466
:10083000617274696E672064617461206C6F6767B0
:10084000696E672E2E2E00416C7265616479206C92
:100850006F6767696E6720746F3A2000E29C97208B
:100860004661696C656420746F20777269746520D5
:10087000746F2053442063617264210009090009E8
:1008800009005D20005B005D20E29C9720496E76A8
:10089000616C6964206261726F6D6574657220724B
:1008A00065616421005B00E29C97204661696C658C
:1008B0006420746F207265616420525443210000EB
:1008C000000000240027002A000000000025002866
:1008D000002B0004040404040404040202020202C3
:1008E00002030303030303010204081020408001F4
:1008F0000204081020010204081020000000080073
:100900000201000003040700000000000000005482
:10091000696D657374616D702C54656D705F432CE7
:1009200050726573737572655F6850612C416C74A9
:1009300069747564655F6D0053443A2046696C655F
:10094000206F70656E65642073756363657373668D
:10095000756C6C790053443A204661696C6564207B
:10096000746F206F70656E2066696C650053443A41
:10097000204F70656E696E672066696C6520005354
:10098000443A20416C7265616479206C6F676769D5
:100990006E6700004625D12D11241FBECFEFD8E091
:1009A000DEBFCDBF11E0A0E0B1E0E0E5F0E702C0BE
:1009B00005900D92A63AB107D9F725E0A6EAB1E075
:1009C00001C01D92AD38B207E1F714E0CBECD4E0E2
:1009D00004C02197FE010E94F92FCA3CD107C9F734
:1009E0000E94E0250C941B380C9400000895089593
:1009F000833081F028F4813099F08230A9F0089595
:100A00008730A9F08830C9F08430B1F4809180003B
:100A10008F7D03C0809180008F7780938000089540
:100A200084B58F7784BD089584B58F7DFBCF809189
:100A3000B0008F778093B00008958091B0008F7DD3
:100A4000F9CF1F93CF93DF93282F30E0F901E550C2
:100A5000F74F8491F901E951F74FD491F901ED5223
:100A6000F74FC491CC23A9F0162F81110E94F804EE
:100A7000EC2FF0E0EE0FFF1FE753F74FA591B49175
:100A80008FB7F894EC91111108C0D095DE23DC9358
:100A90008FBFDF91CF911F910895DE2BF8CFCF93B9
:100AA000DF9390E0FC01E951F74F24918D52974F6D
:100AB000FC0184918823D1F090E0880F991FFC01FC
:100AC000E154F74FA591B491FC01E753F74FC5915D
:100AD000D49161110EC09FB7F8948C91E22FE095EC
:100AE0008E238C932881E223E8839FBFDF91CF91EF
:100AF00008958FB7F894EC91E22BEC938FBFF6CF6B
:100B00008230910538F0880F991F880F991F05973B
:100B10000197F1F70895BF92CF92DF92EF92FF9283
:100B20000F931F93CF93DF93EC0188819981892BD9
:100B300081F06EBD0DB407FEFDCF0EB5802FDF91A5
:100B4000CF911F910F91FF90EF90DF90CF90BF90CA
:100B500008958885998511E0892B09F010E8BB2458
:100B6000B394862F812309F0B12CF62E2C813D8180
:100B70004E815F8160E271EA87E090E00E942D2E55
:100B8000E22E00E0C22ED12CEE2019F0C6010E9408
:100B900080058A85982F977F09F044C08D858F3F07
:100BA00089F09F2D912381E009F480E08B1551F0AD
:100BB000EF85F8898F89992379F19081892B80833A
:100BC000BB24B394E989FA898081998D892B80832C
:100BD000EE2019F0C6010E9480058E858F3F39F006
:100BE000EB89FC898081988D892309F0012BE989A3
:100BF000FA899081898D809589238083888599855C
:100C0000892B09F067C0110F1111BECF8E858F3F60
:100C100009F094CF0F2D92CF908180958923808306
:100C2000B12CD0CF8C3099F58D858F3F49F0EF8571
:100C3000F8898F899F2D912331F19081892B8083B1
:100C4000E989FA899081898D809589238083EE20B6
:100C500019F0C6010E948005E989FA898081998D81
:100C6000892B8083EE2019F0C6010E9480058E85B5
:100C70008F3F21F2EB89FC898081988D892309F4CB
:100C8000BDCF012BBBCF908180958923D8CFE98937
:100C9000FA898081998D892B8083EE2019F0C60115
:100CA0000E9480058D858F3F49F0EF85F8898F89F7
:100CB0009F2D912359F09081892B8083E989FA89AE
:100CC0009081898D809589238083D1CF9081809573
:100CD0008923F3CF169598CF3FB7F89480911002EF
:100CE00090911102A0911202B091130226B5A89B17
:100CF00005C02F3F19F00196A11DB11D3FBFBA2FAE
:100D0000A92F982F8827BC01CD01620F711D811D6D
:100D1000911D42E0660F771F881F991F4A95D1F7F2
:100D200008958F929F92AF92BF92CF92DF92EF92EF
:100D3000FF924B015C010E946C066B017C010E94DA
:100D40006C066C197D098E099F09683E7340810508
:100D50009105A8F321E0821A9108A108B10888EE54
:100D6000C80E83E0D81EE11CF11C81149104A1047B
:100D7000B10429F7FF90EF90DF90CF90BF90AF9034
:100D80009F908F9008952FB7F89460910C02709106
:100D90000D0280910E0290910F022FBF0895DC0189
:100DA000ED91FC910190F081E02D0994EF92FF927A
:100DB0000F931F93CF93DF938C017B01D0E0C0E0B2
:100DC000F701EC0FFD1F6491662361F0D801ED91EE
:100DD000FC910190F081E02DC8010995892B11F05B
:100DE0002196EECFCE01DF91CF911F910F91FF9011
:100DF000EF900895AF92BF92CF92DF92EF92FF9261
:100E00000F931F93CF93DF936C017B018B01040F32
:100E1000151FEB015E01AE18BF08C017D10759F0CE
:100E20006991D601ED91FC910190F081E02DC60110
:100E30000995892B79F7C501DF91CF911F910F910A
:100E4000FF90EF90DF90CF90BF90AF900895FC019E
:100E5000538D448D252F30E0842F90E0821B930B1F
:100E6000541710F00F96089501970895FC01918D85
:100E7000828D981761F0A28DAE0FBF2FB11D5D96C8
:100E80008C91928D9F5F9F70928F90E008958FEF6D
:100E90009FEF0895FC01918D828D981731F0828D1E
:100EA000E80FF11D858D90E008958FEF9FEF089575
:100EB000FC01918D228D892F90E04096821B910933
:100EC0008F70992708958DEA94E00E94580721E0D9
:100ED000892B09F420E0822F089580E090E0892B8F
:100EE00029F00E94630781110C9400000895FC0111
:100EF000A48DA80FB92FB11D9D962C91848D90E0E3
:100F000001968F709927848FA689B7892C93A08921
:100F1000B1898C91837080648C93938D848D9813A8
:100F200006C00288F389E02D80818F7D808308953B
:100F3000EF92FF920F931F93CF93DF93EC0181E029
:100F4000888F9B8D8C8D98131AC0E889F9898081D0
:100F500085FF15C09FB7F894EE89FF896083E88903
:100F6000F98980818370806480839FBF81E090E0F5
:100F7000DF91CF911F910F91FF90EF900895F62E82
:100F80000B8D10E00F5F1F4F0F701127E02E8C8D1F
:100F90008E110CC00FB607FCFACFE889F989808161
:100FA00085FFF5CFCE010E947707F1CFEB8DEC0FD7
:100FB000FD2FF11DF5A69FB7F8940B8FEA89FB89E9
:100FC00080818062D1CFCF93DF93EC01888D88231D
:100FD000B9F0AA89BB89E889F9898C9185FD03C09C
:100FE000808186FD0DC00FB607FCF7CF8C9185FF81
:100FF000F2CF808185FFEDCFCE010E947707E9CF48
:10100000DF91CF9108950895FC0183858F3F19F0FA
:1010100061E00C942105089561E0FC0184810E9447
:1010200021058091EB0181111092EB0108958EBD95
:1010300000000DB407FEFDCF8EB508958FEF0C9420
:1010400017080F931F93CF93DF93EC010E94C30601
:101050008B010E941E088F3F69F00E94C306601B2F
:10106000710B6C177D07A8F380E0DF91CF911F9182
:101070000F91089581E0F9CF8CBD9DBD0895CF9368
:10108000DF93EC0188819981892B31F0EA81FB8122
:10109000808191810E943C088B858F3F29F060E020
:1010A000DF91CF910C942105DF91CF910895CF92DC
:1010B000DF92EF92FF920F931F93CF93DF938C01F8
:1010C000EB016A0179010E943F086881C8010E9412
:1010D0008B05E601EC0CFD1C6FEFC8010E948B052F
:1010E0008993CE15DF05C1F7C8010E94040881E08D
:1010F000DF91CF911F910F91FF90EF90DF90CF90F4
:101100000895CF93DF93EC018091EB01811109C029
:1011100081E08093EB018091EA049091EB040E94BE
:101120003C0860E08C81DF91CF910C9421058F9277
:101130009F92AF92BF92FF920F931F93CF93DF9333
:10114000EC01F62E49015A018E81882389F08F81A6
:1011500098859C012F5F3F4F38872F8382309240C4
:1011600018F40E941E08F3CFCE010E940C081E82C4
:10117000CE010E9481088CE291E00E9421088F2D0F
:1011800080640E94170808E110E0D501C401002E18
:1011900004C0B695A795979587950A94D2F70E94B3
:1011A000170808501109083F8FEF180771F785E9F4
:1011B000FF2021F028E087E8F2128FEF0E94170845
:1011C00010E00E941E088A8787FF04C01F3F11F0AD
:1011D0001F5FF7CFDF91CF911F910F91FF90BF90CD
:1011E000AF909F908F900895AF92BF92CF92DF9271
:1011F000EF92FF920F931F93CF93DF93EC0169015E
:10120000C801820F931F8130924050F58E81882350
:1012100079F088819981AA81BB8184179507A607F7
:10122000B70731F48F819885C816D90608F042C0F7
:10123000488359836A837B838B85833039F089E0C7
:10124000440F551F661F771F8A95D1F79A01AB018E
:1012500061E1CE010E949708882389F083E08D83A5
:10126000CE010E940C0880E0DF91CF911F910F9179
:10127000FF90EF90DF90CF90BF90AF9008950E94C5
:10128000C3065B010E941E088A878F3F69F40E9493
:10129000C3066A197B096D327140A0F38FE08D831C
:1012A000CE010E940C08DCCF8E3F89F418861F8285
:1012B00081E08E838F8198858C159D0550F40E9466
:1012C0001E088F819885019698878F83F3CF8DE0D4
:1012D000E6CF6701E00EF11E0E941E08F601819321
:1012E0006F01EE15FF05C1F78F819885080F191F53
:1012F00018870F838985882319F001151240A0F003
:101300008E81882389F08F8198859C012F5F3F4FC4
:1013100038872F838230924018F40E941E08F3CF42
:10132000CE010E940C081E8281E09ECFCF92DF92F8
:10133000EF92FF920F93CF93DF93EC01690182E16B
:10134000411551056105710599F08B85833039F0A0
:1013500089E0440F551F661F771F8A95D1F79A01C0
:10136000AB0168E1CE010E949708882319F084E060
:101370008D832DC08EEF0E94170876018EEFD81A4C
:10138000F70181917F010E941708EC14FD04C1F759
:101390008FEF0E9417088FEF0E9417080E941E0807
:1013A0008A878F71853071F4011116C0CE010E94B9
:1013B0000C0881E0DF91CF910F91FF90EF90DF90CB
:1013C000CF90089581E18D83CE010E940C08CE015B
:1013D0000E940C0880E0EECF88E592E00E94210890
:1013E000811102C085E1C4CF20E030E0A9016DE0A9
:1013F000CE010E949708882311F084E1B9CF0E94A2
:101400001E088111FACFD2CF0F934091ED01509178
:10141000EE016091EF017091F001411551056105F8
:10142000710599F0082F27E332E080911402909122
:1014300015020E949609882349F01092ED0110923E
:10144000EE011092EF011092F00181E00F910895EA
:101450000F93CF93C82F8091EC01811105C0C1E09B
:101460008C2FCF910F91089540910001509101016F
:1014700060910201709103010C2F27E332E080910B
:101480001402909115020E949609811102C0C0E0D9
:10149000E7CFCC2321F381E00E94040A8823B9F32B
:1014A0001092EC01DDCF8F929F92AF92BF92EF929C
:1014B000FF920F931F93CF934B015C01C42F809138
:1014C000000190910101A0910201B09103018815E2
:1014D0009905AA05BB0551F181E00E94280A8111F6
:1014E0000BC080E0CF911F910F91FF90EF90BF90C4
:1014F000AF909F908F90089587E3E82E82E0F82EBA
:1015000000E012E030E020E0B501A4018091140277
:10151000909115020E94F408882319F3809200012B
:1015200090920101A0920201B09203014091EC015E
:101530004C2B4093EC0181E0D5CFCF93DF93EC01AE
:101540006E857F858889998941E00E94530A8823A6
:1015500051F08A8920E2829FC0011124895C9D4F4D
:10156000DF91CF91089590E080E0FACF4F925F92A3
:101570006F927F928F929F92AF92BF92CF92DF92A3
:10158000EF92FF920F931F93CF93DF93EC014230C2
:1015900051056105710590F480E0DF91CF911F91B5
:1015A0000F91FF90EF90DF90CF90BF90AF909F9002
:1015B0008F907F906F905F904F90089589859A8566
:1015C000AB85BC850196A11DB11D84179507A607A3
:1015D000B70710F3CB88DC88ED88FE888F898031CF
:1015E00009F042C0BB27A72F962F852F480159012C
:1015F0002A013B01C80ED91EEA1EFB1E8091000184
:1016000090910101A0910201B0910301C816D90681
:10161000EA06FB0699F58F898031C1F5B301A20175
:10162000552766277727440F551F495C5D4FFA0100
:10163000918280828091EC0181608093EC018A89A3
:10164000823080F08D819E81AF81B8858C0D9D1D8B
:10165000AE1DBF1D8093ED019093EE01A093EF01AD
:10166000B093F00181E099CFDB01CA01E7E0B695C4
:10167000A79597958795EA95D1F7B8CF40E0C70130
:10168000B6010E94530A8111C6CF86CFB301A201D1
:101690004F77552766277727440F551F440F551F4F
:1016A000495C5D4FFA0180829182A282B382C2CFEF
:1016B0008F929F92AF92BF92CF92DF92EF92FF9262
:1016C0000F931F93CF93DF93FC0181859285A385B0
:1016D000B4850196A11DB11D84179507A607B7070C
:1016E00070F480E0DF91CF911F910F91FF90EF9008
:1016F000DF90CF90BF90AF909F908F900895838898
:101700009488A588B6888789803189F5BB27A72F5B
:10171000962F852FE9016A017B018F01BC01CD0164
:10172000680D791D8A1D9B1D80900001909001011C
:10173000A0900201B090030186169706A806B9068C
:1017400001F5F8018789803111F5DD24EE24FF24AD
:10175000F601EE0FFF1FE95CFD4F80819181B0E043
:10176000A0E088839983AA83BB8381E0BBCFDB01A0
:10177000CA01C7E0B695A79597958795CA95D1F701
:10178000C9CF40E00E94530A8111DBCFAACFE89471
:10179000C7F8DD24EE24FF24F601EE0FFF1FEE0F45
:1017A000FF1FE95CFD4F80819181A281B381BF70F1
:1017B000D8CF4F925F926F927F92AF92BF92CF92AB
:1017C000DF92EF92FF920F931F93CF93DF9300D09E
:1017D00000D0CDB7DEB78C0149835A836B837C83FD
:1017E0005901C12CD12C7601412C82E0582E612C5C
:1017F000712C49815A816B817C819E012F5F3F4F03
:10180000C8010E94580B882339F1F8018585A3018E
:10181000920104C0220F331F441F551F8A95D2F72F
:10182000DA01C901C80ED91EEA1EFB1E49815A8180
:101830006B817C818789803111F188EF9FEFAFEF59
:10184000BFE0481759076A077B0798F2F501C08285
:10185000D182E282F38281E00F900F900F900F907F
:10186000DF91CF911F910F91FF90EF90DF90CF907C
:10187000BF90AF907F906F905F904F90089588EFEA
:101880009FEFA0E0B0E0DDCFCF93DF93FC01258197
:10189000222321F080E0DF91CF910895EC01809127
:1018A0000F05803159F582E08583178A108E118EDD
:1018B000128E8091100590911105B0E0A0E025E016
:1018C000880F991FAA1FBB1F2A95D1F7838B948B72
:1018D000A58BB68B88EF94E09C8F8B8F81E08C83F7
:1018E0001E821F82188619861A861B861C861D86F4
:1018F0001E861F86188A198A1A8ACDCF803251F621
:1019000083E0858340911205509113056091140581
:1019100070911505478B508F618F728F9F012D5EDF
:101920003F4F88EF94E00E94D90B8111D3CFB2CF03
:101930008F929F92AF92BF92CF92DF92EF92FF92DF
:101940000F931F93CF93DF93EC018D8181110EC014
:1019500080E0DF91CF911F910F91FF90EF90DF908A
:10196000CF90BF90AF909F908F9008950B891C8966
:101970002D893E89041715072607370748F34A01C2
:101980005B01823031F48A869B86AC86BD8681E01D
:10199000E0CF81149104A104B10449F41E821F8296
:1019A000188619861A861B861C861D86F0CF0A8526
:1019B0001B852C853D85EB8DFC8D858590E00996FA
:1019C000B901A8014150510961097109082E04C0EB
:1019D00076956795579547950A94D2F775016401F6
:1019E000E1E0CE1AD108E108F10804C0F694E794CA
:1019F000D794C7948A95D2F7C416D506E606F7069B
:101A000020F0012B022B032B11F58F89988DA98DC6
:101A1000BA8D8E839F83A887B9878E010A5F1F4F77
:101A2000C114D104E104F10409F4ADCF4E815F810A
:101A30006885798598018B8D9C8D0E94580B91E06B
:101A4000C91AD108E108F1088111EACF81CFC41A7F
:101A5000D50AE60AF70AE1CF3F924F925F926F9262
:101A60007F928F929F92AF92BF92CF92DF92EF922E
:101A7000FF920F931F93CF93DF93CDB7DEB72C97D1
:101A80000FB6F894DEBF0FBECDBF5C01DC015B96E4
:101A90008D909C905C9716964D905D906D907C908B
:101AA0001997411451046104710409F468C0BFEF2F
:101AB0004B1A5B0A6B0A7B0A312CF40181859285F3
:101AC000A385B4859C01AD012F5F3F4F4F4F5F4F02
:101AD00029873A874B875C87730162011D821E82CA
:101AE0001F821886F40181859285A385B4852D8196
:101AF0003E814F815885281739074A075B0708F050
:101B000056C089859A85AB85BC858C159D05AE052B
:101B1000BF0550F482E0C82ED12CE12CF12C92E0CC
:101B2000492E512C612C712C9E012F5F3F4FB70124
:101B3000A601C4010E94580B8823C9F189819A81AA
:101B4000AB81BC81892B8A2B8B2B09F126013701B4
:101B50009FEF491A590A690A790A2D813E814F81FE
:101B600058852F5F3F4F4F4F5F4F2D833E834F83ED
:101B700058873FEFC31AD30AE30AF30AB3CFF4013D
:101B800040805180628073803324339496CFC41494
:101B9000D504E604F70409F70FEF1FEF2FEF3FE03E
:101BA000B701A601C4010E94B60A811119C080E0E4
:101BB0002C960FB6F894DEBF0FBECDBFDF91CF914C
:101BC0001F910F91FF90EF90DF90CF90BF90AF905B
:101BD0009F908F907F906F905F904F903F9008956F
:101BE000D50116964D915D916D917C911997411596
:101BF00051056105710539F097018601C4010E9404
:101C0000B60A8823A1F2D5011696CD92DD92ED9207
:101C1000FC921997332051F0D701C6010196A11DFE
:101C2000B11DF40180839183A283B383F501878979
:101C3000908DA18DB28D892B8A2B8B2B39F48481C9
:101C4000C78AD08EE18EF28E80688483F50184810C
:101C50008062848381E0ACCF1F93CF93DF93FC013C
:101C60002581222371F1162FEC01848187FF1EC08C
:101C7000CF010E949D0AFC01892B19F18D818230D0
:101C800040F48B899C89AD89BE89848F958FA68FFE
:101C9000B78F8F89988D938F828F8F89988DA98D1B
:101CA000BA8DB58BA48B8C818F778C83111103C077
:101CB0008C818F7E8C83812FDF91CF911F910C942B
:101CC000280A80E0DF91CF911F910895FF920F9332
:101CD0001F93CF93DF93EC018D81813041F090E031
:101CE00080E0DF91CF911F910F91FF9008958C813B
:101CF00081FFF5CF82FD1BC00091140210911502E7
:101D0000C8010E9481080E941E08F82EC8010E9486
:101D10000C088FEFF812E3CF8C8185FF1BC060E0C9
:101D2000CE010E942C0E8C818F7D8C83D8CF4B8965
:101D30005C896D897E898A859B85AC85BD85841784
:101D40009507A607B707C1F2CE010E94980C811132
:101D5000D3CFC5CF4091ED015091EE016091EF01DD
:101D60007091F001452B462B472B21F080E00E941B
:101D7000040AB5CF80618C832A853B85317080E071
:101D800092E0821B930BADCFCF93DF93EC0161E028
:101D90000E942C0E882311F01D8281E0DF91CF91EB
:101DA00008952F923F924F925F926F927F928F92FF
:101DB0009F92AF92BF92CF92DF92EF92FF920F93DA
:101DC0001F93CF93DF9300D000D01F92CDB7DEB723
:101DD0007C015B01342E5D83DC0115968C91159797
:101DE000813009F0CEC014962C9021FECAC022FC8E
:101DF000B4C0C32CDD8022947FE027222094B22D32
:101E0000B1702B2ED7011A964D915D916D917C91F9
:101E10001D97C114D10409F428C15B968D919C9142
:101E20005C97FC0174807A948A019B0169E0369585
:101E30002795179507956A95D1F770228A01117039
:101E4000711020C001151105E9F416964D915D91B0
:101E50006D917C911997411551056105710509F046
:101E600099C057968D919D910D90BC91A02D009792
:101E7000A105B10509F0B0C0C7010E942C0D88234F
:101E800009F47FC080E092E0801B910B46018C1525
:101E90009D0508F44C01D7015B964D915C915C97D0
:101EA00016968D919D910D90BC91A02D0297A10940
:101EB000B109FA01258504C0880F991FAA1FBB1F0D
:101EC0002A95D2F74685578560897189840F951FB9
:101ED000A61FB71F9C01AD01270D311D411D511DCE
:101EE00029013A01811432E0930609F07BC0809108
:101EF000000190910101A0910201B09103018415AC
:101F00009505A605B70559F48FEF9FEFDC01809387
:101F1000000190930101A0930201B0930301022DEF
:101F20009501B301A20180911402909115020E94C3
:101F30009609882331F19EEFB91AC818D908F7011C
:101F400082859385A485B585880D991DA11DB11D38
:101F500082879387A487B58755CFF7014389548932
:101F60006589768982859385A485B5854817590743
:101F70006A077B0709F43DCFC7010E94980C8111C5
:101F800038CF81E090E0D70113969C938E931297FF
:101F900080E007C09E012F5F3F4F0E94580B8111C8
:101FA00002C090E079C089819A81AB81BC81F70140
:101FB000238D348DF901278948EF5FEF60E070E0F1
:101FC000203121F048EF5FEF6FEF7FE08417950736
:101FD000A607B70708F050CFF70186839783A0873D
:101FE000B18750CF0115110599F5D7011A964D917A
:101FF0005D916D917C911D9753968D919D910D9062
:10200000BC91A02D481759076A077B0708F181E0AA
:102010000E94280A882309F4B4CF4092000150920C
:10202000010160920201709203018091EC018160D4
:102030008093EC01C801895C9D4FD5019C01280D5E
:10204000391DFC012E173F0759F04D914193FACFEE
:1020500041E0C301B2010E94530A8111EBCF91CF3D
:10206000281B390BA20EB31E68CFF7018389948910
:10207000A589B68984179507A607B70738F4848120
:10208000438B548B658B768B80688483F7018481C6
:1020900083FD1AC0832D9D810F900F900F900F909C
:1020A0000F90DF91CF911F910F91FF90EF90DF90F4
:1020B000CF90BF90AF909F908F907F906F905F90E8
:1020C0004F903F902F90089561E0C7010E942C0E21
:1020D000882309F456CFDECFCF93DF931F92CDB77D
:1020E000DEB7698341E050E0BE016F5F7F4F0E9421
:1020F000D10E0F90DF91CF910895FC01DB01129674
:102100008D919C9113979383828381E291E09183D7
:10211000808314968C911497848315968C911597CF
:10212000858316964D915D916D917C9119974683AB
:102130005783608771871A964D915D916D917C915F
:102140001D9742875387648775871E964D915D91D1
:102150006D917C91519746875787608B718B529612
:102160008C915297828B53964D915D916D917C919C
:102170005697438B548B658B768B57964D915D911B
:102180006D917C915A97478B508F618F728F5B96C0
:102190008D919C91948F838F08950895FC01818D7A
:1021A000928D009719F061E00C942C0E0895DC01DB
:1021B0005996ED91FC913097B9F083899489A5895E
:1021C000B6894285538564857585841B950BA60B5E
:1021D000B70B811520E89207A105B10538F08FEF04
:1021E0009FE7A0E0B0E0089590E080E00895DC0172
:1021F00059968D919C91009739F0DC01ED91FC91FD
:102200000480F581E02D099490E080E00895CF935B
:10221000DF93EC01E98DFA8D309749F481E090E08D
:102220009B838A8390E080E0DF91CF9108951382B1
:102230001282898D9A8D0E94D10EE98DFA8D2281AC
:102240003381232B59F7F0CFCF93DF931F92CDB774
:10225000DEB76983DC01ED91FC910280F381E02D12
:1022600041E050E0BE016F5F7F4F09950F90DF9115
:10227000CF9108952F923F924F925F926F927F92EB
:102280008F929F92AF92BF92CF92DF92EF92FF9286
:102290000F931F93CF93DF9300D01F92CDB7DEB77C
:1022A000FC018581811118C08FEF9FEF0F900F9077
:1022B0000F90DF91CF911F910F91FF90EF90DF90E2
:1022C000CF90BF90AF909F908F907F906F905F90D6
:1022D0004F903F902F900895848180FFE5CF4389F0
:1022E00054896589768982859385A485B585312C45
:1022F000212C481759076A077B0719F022242394D9
:10230000312C6F012101CE0101963C01DF011696AF
:10231000BB83AA834114510409F4C5C0F601428568
:102320005385648575854A01F1E09F22D6015B964D
:102330008D919C915C978A019B01E9E036952795E8
:1023400017950795EA95D1F71596EC91E230E9F5E6
:10235000FC01628D738D848D958D600F711F821FBE
:10236000931FA12C22E0B22EA818B9084A145B04CE
:1023700008F45201F601248126FD04C0A114F2E004
:10238000BF0671F40091000110910101209102013A
:1023900030910301061717072807390709F05EC0B7
:1023A00040E00E94530A882309F47ECFC401895C6F
:1023B0009D4FD3019C012A0D3B1DFC012E173F07A9
:1023C00009F46CC041914D93F9CFDC011496BC9097
:1023D000BA94B0228114910479F4B1100DC0452B48
:1023E000462B472B69F5F6018789908DA18DB28D1B
:1023F00086839783A087B187D6015B96ED91FC9188
:102400005C9716966D917D918D919C911997625074
:10241000710981099109258504C0660F771F881FFE
:10242000991F2A95D2F70685178520893189600F73
:10243000711F821F931F6B0D711D811D911D91CF07
:10244000D60116964D915D916D917C9119972A81D7
:102450003B810E94580B8111CFCF26CF730185019C
:102460009401AB01BC0180911402909115020E946D
:10247000F408882309F418CF6A0C7B1CF6018285C6
:102480009385A485B5858A0D9B1DA11DB11D8287ED
:102490009387A487B5874A185B083CCF281B390B64
:1024A000620E731EEBCF2A94232809F0FDCE89819A
:1024B00090E0FCCEFC01818D928D009711F00C9480
:1024C0003A118FEF9FEF08950F931F93CF93DF93F0
:1024D000EC01898D9A8D10E000E0009799F00E9440
:1024E0003A118C010F3F100769F0898D9A8DFC011C
:1024F000428553856485758541505109610971098B
:102500000E94980CC801DF91CF911F910F910895FF
:1025100008950895CF93CFB7F8948091EA0181117F
:1025200027C0EDEDF8E08491E1EFF8E09491E82F19
:10253000F0E0EE0FFF1FE154F74FA591B491EC913D
:10254000E92321F461E08AE00E94210561E08AE04C
:102550000E944F058CB580618CBD8CB580648CBDAC
:1025600061E08DE00E944F0561E08BE00E944F0525
:102570008091EA018F5F8093EA01CFBFCF910895E8
:102580002091C701260F3327331F21323105ECF488
:1025900020918304FC0190E080E0243069F082E027
:1025A0000895A091C7012191AC0149555E4FA40F38
:1025B000B52FB11D2C930196861798F38091C70112
:1025C000680F6093C70180E0089581E0089510923C
:1025D000830481E08093820410925D0461E082E1D3
:1025E0000E94210561E083E10E942105E9EBF0E012
:1025F00080818E7F808380818D7F808388E480933B
:10260000B80085E48093BC00089510923C041092B9
:102610003B0410928A041092AC040E94E71286EFE9
:1026200094E090933A048093390487EF94E0909378
:102630003804809337040895CF93DF9391E090930B
:10264000A6018823B9F0C091B800D091BA0080915A
:10265000BC008A7B8093BC0060E082E10E9421057F
:1026600060E083E10E9421050E94E712D093BA0046
:10267000C093B800DF91CF9108958F929F92AF924F
:10268000BF92CF92DF92EF92FF920F931F93CF935F
:10269000DF93D091AC04D13208F0D7C0182FC0918D
:1026A000AB040E946C066B017C0180918304811154
:1026B0006BC082E080938304109382048FEF809339
:1026C000810410928004D0937F04ABE8B4E0EFE57E
:1026D000F4E080E0D81391C010925E0480915E0413
:1026E000CC0FC82BC0935E0480915D04813009F04B
:1026F00088C010925D040E946C066B017C01809181
:102700005E048093BB008091850490918604A09123
:102710008704B0918804892B8A2B8B2BA1F00E940F
:102720006C060091850410918604209187043091F5
:1027300088046C197D098E099F0906171707280759
:10274000390708F442C08091BC0083FDD8CF85ECE6
:102750008093BC000E946C066B017C018091830415
:10276000823009F450C0809181048F3F09F46FC01A
:1027700080918104803209F46CC08091810480339F
:1027800009F469C084E026C0809185049091860494
:10279000A0918704B0918804892B8A2B8B2B09F494
:1027A00084CF0E946C068090850490908604A0904F
:1027B0008704B09088046C197D098E099F098616DC
:1027C0009706A806B90608F070CF809184040E948D
:1027D0001C1385E010928A041092AC0410928904B4
:1027E000DF91CF911F910F91FF90EF90DF90CF90ED
:1027F000BF90AF909F908F9008959D9191938F5F20
:1028000069CF85EEA5CF8091850490918604A09133
:102810008704B0918804892B8A2B8B2B09F49ECFD7
:102820000E946C0600918504109186042091870413
:10283000309188046C197D098E099F0906171707C6
:102840002807390708F08ACFC0CF81E0C3CF80E0E6
:10285000C1CF82E0BFCF83E0BDCF1F93CF93DF9383
:10286000EA01122FDC0111968D919C91DC01ED9112
:10287000FC910280F381E02D0995C817D90729F44E
:10288000812F0E943D1391E0811190E0892FDF910B
:10289000CF911F910895CF93DF93EC018B81882313
:1028A000A1F0888191E0909389048093AB04109209
:1028B0008A041092AC0481E00E943D1391E08111E2
:1028C00090E0892FDF91CF9108950E94051381E058
:1028D0008B83CE010E944B14982F8111E2CFF1CF50
:1028E0008F929F92AF92BF92CF92DF92EF92FF9220
:1028F0000F931F93CF93DF93D82FC62F142F6132DE
:1029000008F09CC00E946C066B017C0180918304DE
:1029100081116FC081E080938304109382049FEF44
:1029200090938104109280049C0F90937F04809375
:102930005E0480915E04DD0FD82BD0935E048091FD
:102940005D04813009F07CC010925D040E946C0629
:102950006B017C0180915E048093BB0080918504B3
:1029600090918604A0918704B0918804892B8A2BCA
:102970008B2BA1F00E946C060091850410918604B7
:1029800020918704309188046C197D098E099F0974
:10299000061717072807390708F44CC08091BC00B8
:1029A00083FDD8CF85EC8093BC000E946C066B0140
:1029B0007C0180918304813009F444C080918004BB
:1029C0008C1710F4C0918004EFE5F4E0ADE3B4E0BF
:1029D00080E08C1359C08C2FDF91CF911F910F9104
:1029E000FF90EF90DF90CF90BF90AF909F908F902F
:1029F00008958091850490918604A0918704B091F8
:102A00008804892B8A2B8B2B09F480CF0E946C06BB
:102A10008090850490908604A0908704B0908804EC
:102A20006C197D098E099F0986169706A806B906B6
:102A300008F06CCF809184040E941C13C0E0CBCFBF
:102A400085EEB1CF8091850490918604A091870492
:102A5000B0918804892B8A2B8B2B09F4AACF0E9472
:102A60006C060091850410918604209187043091B2
:102A700088046C197D098E099F0906171707280716
:102A8000390708F096CFD6CF91919D938F5FA1CF54
:102A90000895E0913C0480913B04E81730F4F0E0A5
:102AA000E35CFB4F808190E008958FEF9FEF0895E6
:102AB00090913C0480913B042FEF3FEF981748F42E
:102AC000E92FF0E0E35CFB4F208130E09F5F9093C3
:102AD0003C04C901089580913B0490913C04891BFA
:102AE000990B0895CF92DF92EF92FF920F931F936D
:102AF000CF93DF937C01CB018A01209189042223AB
:102B000089F0EB016B01C40ED51ECC15DD0569F013
:102B10006991D701ED91FC910190F081E02DC70101
:102B20000995F3CF642F0E94C012C801DF91CF91A5
:102B30001F910F91FF90EF90DF90CF900895CF936A
:102B4000DF931F92CDB7DEB76983209189042223DA
:102B5000F9F02091AC04203258F021E030E0FC0183
:102B60003383228390E080E00F90DF91CF9108952E
:102B700080918A04E82FF0E0E557FB4F998190831C
:102B80008F5F80938A048093AC0481E090E0ECCF67
:102B900061E0CE0101960E94C012F7CF90E080E084
:102BA0000895CF93C62F91E09093890498E690936F
:102BB000AB0410928A041092AC04682F80E595E073
:102BC0000E949F156C2F80E595E00E949F1581E083
:102BD000CF910C943D130F931F93CF93DF9300D0AD
:102BE000CDB7DEB76A83E0915E05F0915F0530975F
:102BF000F9F0898384819581029798F0808191E032
:102C0000909389048093AB0410928A041092AC04D0
:102C100021E042E050E0BE016F5F7F4FCF010E9494
:102C20002D140F900F90DF91CF911F910F91089568
:102C30008F7789830091600510916105C8010E941A
:102C40003F086981C8010E948B056A81C8010E9402
:102C50008B05C8010E940408E4CFCF93DF93C8E836
:102C6000D5E08770886E8883E7E8F5E0962F977047
:102C7000990F990F990F8081807C242F2770892BC1
:102C8000822B808395E0440F551F9A95E1F787FBCF
:102C9000882780F9482B660F771F660F771F642BF4
:102CA00085EF0E94EB158881682F677090E2699F1D
:102CB000B0011124282F269526952695277094E09B
:102CC000299F90011124622B8295869586958370A9
:102CD000682B84EFDF91CF910C94EB155F926F928C
:102CE0007F928F929F92AF92BF92CF92DF92EF929C
:102CF000FF920F931F93CF93DF93DC011496ED9116
:102D0000FC911597EF2B09F465C069013A01EC01BC
:102D1000888191E0909389048093AB0410928A0497
:102D20001092AC0420E041E050E0CD010E942D144F
:102D3000582E882309F44EC0F12CE12C8C819D8102
:102D400086010E191F098017910708F48C0141E0D4
:102D5000C601801B910BE816F90608F440E0602FCD
:102D6000013208F060E288810E94701410923C04E5
:102D700080933B048017110669F543018E0C9F1C5C
:102D80005401C501881999098017910768F4898150
:102D90009A81DC01ED91FC910284F385E02D099587
:102DA000F50181935F01EDCFE00EF11EEC14FD04FF
:102DB00028F2852DDF91CF911F910F91FF90EF9019
:102DC000DF90CF90BF90AF909F908F907F906F904B
:102DD0005F900895512CEDCFCF93DF9300D0CDB706
:102DE000DEB7E0915E05F0915F05898322E030E077
:102DF000AE014F5F5F4FBA01309751F0CF010E9493
:102E00006E1689819A810F900F90DF91CF9108956E
:102E100080916005909161050E945708F2CFCF9391
:102E2000DF9300D01F92CDB7DEB7FC018281938182
:102E3000698323E030E0AE014F5F5F4FBA01009736
:102E4000A1F00E946E1629816A8170E090E080E016
:102E5000982F872F762F6627822B2B81622B0F903E
:102E60000F900F90DF91CF910895848195810E94FA
:102E70005708E9CF8F929F92AF92BF92CF92DF9285
:102E8000EF92FF920F931F93CF93DF93FC01438543
:102E9000548565857685452B462B472B09F479C0EB
:102EA000EC016AEF0E940F170B891C8930E020E0CB
:102EB000C72ED82EE92EFF24E7FCFA94C01AD10AB7
:102EC000E20AF30A57E095958795779567955A95A5
:102ED000D1F7000F111F221F331F4B015C01801A15
:102EE000910AA20AB30AA5019401AD89BE890E9484
:102EF0005A2E4B015C01FBE0B594A79497948794FC
:102F0000FA95D1F7A7019601C701B6010E94092ED3
:102F10009B01AC01ACE05595479537952795AA954F
:102F2000D1F7AF89B88D0E945A2E9B01AC01BEE04B
:102F30005595479537952795BA95D1F7280D391DA1
:102F40004A1D5B1D2F87388B498B5A8BA5E0B0E05B
:102F50000E944F2E60587F4F8F4F9F4F672F782FC3
:102F6000892F992787FD9A950E94293120E030E02A
:102F700048EC52E40E948030DF91CF911F910F9175
:102F8000FF90EF90DF90CF90BF90AF909F908F9089
:102F9000089560E070E080EC9FE7EECF2F923F92C3
:102FA0004F925F926F927F928F929F92AF92BF9259
:102FB000CF92DF92EF92FF920F931F93CF93DF9305
:102FC000CDB7DEB76D970FB6F894DEBF0FBECDBF9D
:102FD0009D8F8C8F0E943A1767EF8C8D9D8D0E947C
:102FE0000F17688F798F8A8F9B8FEC8DFD8D87856A
:102FF0009089A189B2896C017D01FF0CCC08DC2C81
:1030000076019C01AD016C2D7C2D8C2D9C2D345FA7
:1030100041405109610971098109910929873A875C
:103020004B875C873B014C0159016A017B018C0194
:103030000E94622E322E232E4A8B5B8B6C8B7D8BF3
:103040008E8B9F8BAC8DBD8D5C963C915C975B9617
:103050002C91932F990F990B492F592F692F792F65
:10306000892F0E94622E0CE00E94912F522E3983EC
:103070004D875E876F87788B898B492EEC8DFD8D10
:10308000368D258D932F990F990BA32CB22CCA88BE
:10309000DB88EC88FD880E891F89492F592F692FFD
:1030A000792F892F0E94622E08E00E94AA2FA52C5A
:1030B000B980CD84DE84EF84F8880989142D0E94BC
:1030C000C72F70588F4F9F4FAC8DBD8D5996ED9186
:1030D000FC915F01D12CC12CE12CF12C8701E983FB
:1030E000BA82CB82DC82ED82FE820F831887C12CEC
:1030F000D12CE12CF12C00E010E00E94622E01E2C4
:103100000E94AA2F2983532E4D875E876F87788B65
:10311000898B492EA0E00E94D92F09F43DC1AC8DC6
:10312000BD8D94963C91949793962C91932F990FE3
:10313000990BA32CB22CCA88DB88EC88FD880E89F9
:103140001F89492F592F692F792F892F0E94622EAD
:1031500019014A8B5B8B6C8B7D8B8E8B9F8BEC8DDF
:10316000FD8D32A121A1932F990F990BA984BA84C7
:10317000CB84DC8473018401492F592F692F792F67
:10318000892F0E94622E01E10E94912F5101CA886D
:10319000DB88EC88FD880E891F890E94C72F5901A2
:1031A0006A017B01282E192F488D598D6A8D7B8DE0
:1031B00084E075956795579547958A95D1F780E096
:1031C00090E0A0E1B0E0841B950BA60BB70B3C018F
:1031D0004D01990C6608762C43019C01AD01662DCA
:1031E000762D862D962D0FE10E94912F722E832E23
:1031F000942E652EB62FA72F382E9987EC8DFD8D36
:1032000030A1278D932F990F990B492F592F692F93
:10321000792F892F03E20E94912F022D0E94C72F40
:1032200059016A017B018C01272D382D492D562D1E
:103230006B2F7A2F832D99850E94D02FE5E3AE2E38
:10324000FCE0BF2EC12CD12CE12CF12C00E010E0D1
:103250000E94622EA980B52CCD84DE84EF84F8888C
:103260000989142D0E94BC2E29873A874B875C87D9
:1032700069837D878E879F870DE00E94AA2F922EFB
:10328000832E742E652E562E472E382E292EAC8D69
:10329000BD8D9A963C919A9799962C91932F990F60
:1032A000990BA92CB82CC72CD62CE52CF42C032D6B
:1032B000122D492F592F692F792F892F0E94622EA5
:1032C0000E94622E09E10E94AA2FA984BA84CB84AD
:1032D000DC84E980FD840E851F850E94C72F1901BB
:1032E0002A013B014C01EC8DFD8D30A527A1932FC8
:1032F000990F990B492F592F692F792F892F0E94E8
:10330000622E03E10E94AA2F59016A017B018C0100
:103310009101A201B301C4010E94C72F08E00E94DD
:10332000AA2F59016A017B01E82F192FAC8DBD8DA1
:1033300096963C91969795962C91932F990F990B71
:10334000492F592F692F792F892F04E00E94912F3F
:103350000E2F0E94C72F0E94213120E030E040E86C
:103360005BE30E942C326D960FB6F894DEBF0FBE61
:10337000CDBFDF91CF911F910F91FF90EF90DF9024
:10338000CF90BF90AF909F908F907F906F905F9005
:103390004F903F902F90089560E070E0CB01E3CF15
:1033A0008F929F92AF92BF92CF92DF92EF92FF9255
:1033B0000F931F93CF93DF9300D000D0CDB7DEB72C
:1033C000FC018581813091F080E00F900F900F908B
:1033D0000F90DF91CF911F910F91FF90EF90DF90B1
:1033E000CF90BF90AF909F908F900895848181FF80
:1033F000EBCF83899489A589B689892B8A2B8B2B5E
:1034000009F45FC07F0140E050E0BA01CF010E94A3
:10341000980C8823C9F2F701C38CD48C8788908CD0
:10342000A18CB28C82E090E0A0E0B0E0F601808355
:103430009183A283B3839E012F5F3F4FB501A40107
:10344000C6010E94580B882309F4BECF00E010E0AB
:103450009801B501A401C6010E94B60A882309F4A7
:10346000B3CF89809A80AB80BC80F6018789803198
:1034700019F188EF9FEFAFEFBFE088169906AA0613
:10348000BB06C8F2F701178A108E118E128E138AAE
:10349000148A158A168A84818068848361E0C70152
:1034A0000E942C0E882309F48FCF40E050E0BA012F
:1034B000C7010E94980C89CF88EF9FEFA0E0B0E091
:1034C000DCCF81E082CFCF92DF92EF92FF921F9309
:1034D000CF93DF93EC0180E2689FF0011124E95C57
:1034E000FD4F9385917161F0842F827449F080E0E3
:1034F000DF91CF911F91FF90EF90DF90CF900895D3
:10350000142F6A8B8091000190910101A09102011A
:10351000B09103018E879F87A88BB98BC488D5880B
:10352000F12CE12C7601DD24CC24CF8AD88EE98ED3
:10353000FA8E828D938DB0E0A0E0AC01BD014C29E4
:103540005D296E297F294F8B588F698F7A8F8385EC
:103550008871B1F4848D958DA68DB78D8B8B9C8BE6
:10356000AD8BBE8B81E08D831F701C831E821F82FA
:10357000188619861A861B861C861D8681E0B8CFA0
:10358000803109F0B4CF9E012D5E3F4F8B8D9C8D15
:103590000E94D90B882309F4AACF84E0E4CF0C94CD
:1035A000BF340C94BF34CF93C0913602CC23B1F01A
:1035B00080914E0590914F05009761F00E94C40ED6
:1035C00080914E0590914F050E94BF3410924F0597
:1035D00010924E0510923602109216028C2FCF9147
:1035E0000895FB0101900020E9F73197AF01461BD8
:1035F000570BDC01ED91FC910280F381E02D0994E1
:103600008F929F92AF92BF92EF92FF920F931F9370
:10361000CF93DF93CDB7DEB7A1970FB6F894DEBF97
:103620000FBECDBF7C01FA01CB0119A2223008F4F4
:103630002AE08E010F5D1F4F822E912CB12CA12C00
:10364000BF01A50194010E942D2EF901CA016A3023
:103650000CF5605DD8016E938D01232B242B252B57
:1036600079F790E080E0109721F0BD01C7010E943A
:10367000F11AA1960FB6F894DEBF0FBECDBFDF9151
:10368000CF911F910F91FF90EF90BF90AF909F90BF
:103690008F900895695CDECF462F50E070E060E0C7
:1036A0002AE00C94001B2F923F924F925F926F92F0
:1036B0007F928F929F92AF92BF92CF92DF92EF92C2
:1036C000FF921F93CF93DF93EC016A017B01722E6F
:1036D000AB019601CB01B6010E94E93269E671E0C7
:1036E000811126C046015701E894B7F82FEF3FEF4C
:1036F0004FE75FE7C501B4010E94E93281110CC0B8
:103700002FEF3FEF4FE75FE7C501B4010E947B3029
:103710006DE671E0181664F02FEF3FEF4FE75FE4BE
:10372000C701B6010E9427321816B4F461E771E0B0
:10373000CE01DF91CF911F91FF90EF90DF90CF905E
:10374000BF90AF909F908F907F906F905F904F90C1
:103750003F902F900C94F11A2FEF3FEF4FE75FEC63
:10376000C701B6010E947B3087FDE0CF20E030E04A
:10377000A901C701B6010E947B30312C212C87FFA3
:1037800009C06DE2CE010E94CF061C01F7FAF09449
:10379000F7F8F09410E060E070E080E09FE37116CD
:1037A00041F020E030E040E251E40E9480301F5FB1
:1037B000F6CFA70196010E940F302B013C010E9419
:1037C000F2304B015C012AE0BC01A401CE010E9451
:1037D000001B7C01E20CF31C1123C1F1C501B401F3
:1037E0000E9427319B01AC01C301B2010E940E303F
:1037F0004B015C016EE2CE010E94CF06E80EF91E7D
:10380000115020F120E030E040E251E4C501B40164
:103810000E942C322B013C010E94F2304B01B12C52
:10382000A12C2AE0B501A401CE010E94001BE80EE4
:10383000F91EC501B4010E9427319B01AC01C301EF
:10384000B2010E940E304B015C01DACFC701DF915B
:10385000CF911F91FF90EF90DF90CF90BF90AF90EE
:103860009F908F907F906F905F904F903F902F90A0
:10387000089565E771E00C94F11ACF93DF93682FF8
:103880008DEA94E00E944C1BEC018DEA94E00E94CA
:10389000391C8C0F9D1FDF91CF9108950F931F93BB
:1038A000CF93DF93EC010E94D6068C01CE010E94DB
:1038B000391C800F911FDF91CF911F910F910895B7
:1038C000CF92DF92EF92FF920F931F93CF93DF93EC
:1038D000EC0111E01093890488E68093AB04109208
:1038E0008A041092AC0463E080E595E00E949F1585
:1038F00081E00E943D13082F8823D1F01F8261E4EC
:1039000071E08DEA94E00E94D606802F0E943D1C53
:1039100064E071E08DEA94E00E944E1C80E0DF914B
:10392000CF911F910F91FF90EF90DF90CF9008956E
:1039300041E067E088E60E947014082F10923C0472
:1039400080933B04873058F41F826AEE70E08DEA62
:1039500094E00E94D606802F0E943D1CDFCF80E5B8
:1039600095E00E945815C82E80E595E00E945815F4
:10397000D82E80E595E00E945815E82E80E595E068
:103980000E945815F82E80E595E00E94581580E5B4
:1039900095E00E945815082F80E595E00E94581583
:1039A0004C2D4F77242F30E054E0359527955A95CC
:1039B000E1F7322F330F330FA22FA31BAA0FA40F4F
:1039C000AE834D2D4F77242F30E064E03595279559
:1039D0006A95E1F7322F330F330FF22FF31BFF0FEE
:1039E000F40FFD834E2D4F73242F30E074E0359596
:1039F00027957A95E1F7322F330F330FE22FE31B30
:103A0000EE0FE40FEC832F2D2F73622F70E0B4E0E4
:103A100075956795BA95E1F7362F330F330F631B12
:103A2000660F620F6B830F71402F50E024E05595B5
:103A300047952A95E1F7242F220F220F421B440FAE
:103A4000400F4A839C0154E0359527955A95E1F73C
:103A50002F703327922F990F990F291B220F280FB0
:103A600030E02053384F39832883AC3350F4FC3393
:103A700040F4E83130F461506F3118F441504C306B
:103A800010F01F824BCF1F8381E049CF3F924F92AE
:103A90005F926F927F928F929F92AF92BF92CF92DE
:103AA000DF92EF92FF920F931F93CF93DF93CDB7E7
:103AB000DEB72B970FB6F894DEBF0FBECDBF7C01EB
:103AC000FE013196CE010C966F0130E231938E17D4
:103AD0009F07E1F7DA0130E087E09D91B92E992345
:103AE00009F43CC09E32F1F48A30C9F480E02B9690
:103AF0000FB6F894DEBF0FBECDBFDF91CF911F91FF
:103B00000F91FF90EF90DF90CF90BF90AF909F907C
:103B10008F907F906F905F904F903F90089538E026
:103B20008AE0DBCFE4E5F1E04491442321F03196D3
:103B30009413FACFDBCF8317C8F24FED490F4E3500
:103B4000A8F64FE9490F4A3118F440EEB42EB90EE9
:103B5000F601E30FF11DB0823F5FBFCF8981803254
:103B600029F2322E8B01DB015B968D919C915C9743
:103B7000F701948F838F16961D921D921D921C92B1
:103B80001997FB011286138614861586F801828523
:103B90009385A485B5854389548965897689841779
:103BA0009507A607B70708F04DC025E0B695A7957D
:103BB000979587952A95D1F7F82FFF70AF2ED801EA
:103BC00015968C91823008F491CFC8010E943A1169
:103BD00097FD8CCFF80182859385A485B5854F9696
:103BE000A11DB11D82879387A487B587F0E2AF9EA0
:103BF000B0011124695C7D4F6115710509F476CF20
:103C0000DB018C91882341F0853E09F058C0BB2030
:103C100029F0BB24B394BACFB1100EC0F701A28A29
:103C20008091000190910101A0910201B0910301E6
:103C300086879787A08BB18BDB018C918111E9CFAF
:103C4000BB24B394832D8271823109F04FCFBB2006
:103C500009F443C0C7010E949D0A009709F446CFAA
:103C600020E2FC0111922A95E9F72BE0F601DC0134
:103C700001900D922A95E1F721E238E2DC0151969C
:103C80003C932E93509740E058E01F965C934E93E0
:103C90001E9753963C932E93529759963C932E938E
:103CA000589757965C934E93569781E00E94280A46
:103CB000882309F41BCF432DF70162890AC04BE02A
:103CC00050E0C6010E944835892B09F05FCF432D93
:103CD0006A2DC7010E94631A0ACFF80185818230DC
:103CE00009F404CFC8010E942C0D882309F4FECEEC
:103CF000D8015B96ED91FC915C9716968D909D9006
:103D0000AD90BC901997B2E08B1A9108A108B10848
:103D1000858504C0880C991CAA1CBB1C8A95D2F707
:103D200086859785A089B189880E991EAA1EBB1E1B
:103D3000848124013501480E511C611C711C4814FA
:103D400059046A047B0409F1E1E04E1A5108610844
:103D5000710881E00E94280A882309F4C7CEE7E3AE
:103D6000F2E0119287E394E08E179F07D1F740921B
:103D70000001509201016092020170920301809152
:103D8000EC0181608093EC01DACFD8015B96ED9174
:103D9000FC91258580E092E0A0E0B0E004C0880FAF
:103DA000991FAA1FBB1F2A95D2F7F801438954898E
:103DB00065897689840F951FA61FB71F838B948B07
:103DC000A58BB68BD70152961C9287E392E048CF21
:103DD000BF92CF92DF92EF92FF920F931F93CF93F8
:103DE000DF93CDB7DEB7C456D1090FB6F894DEBF66
:103DF0000FBECDBF80913602882349F068E771E09D
:103E000086E192E00E945535892B09F46FC01EAE01
:103E10001DAE81E291E09CAF8BAF21961FAE219742
:103E200019A218A29F8F8E8F1BA2C12CB12C7E01CC
:103E30008BE3E80EF11C06E115E08C2D9B2DFC01B7
:103E4000E858FE4F20812F3209F40196DC01A85872
:103E5000BE4FFE01E85AFF4F30E020E0AF016D9108
:103E60006F3249F0662339F001962F5F3F4F61931F
:103E70002C303105A1F7240F351FF9011082FC0108
:103E8000E858FE4F20812F3209F40196C82EB92E32
:103E900088589E4FFC01808181112AC01C821B82A0
:103EA00081E291E09A8389831E8222E0B801CE01EB
:103EB00001960E94461D8823A9F0CE0101960E941A
:103EC000D019882379F0CE0101960E949D0A0097AF
:103ED00049F025EEFC0120831E8281E00E94280A21
:103EE00081111AC0F5E006311F07F1F580E01CC012
:103EF000F7018581811134C021E0B801C7010E941A
:103F0000461DD82E85E006311807F9F0C8010E9439
:103F1000C40ED1101FC0EACFF5E006311F0719F01B
:103F2000C8010E94C40E81E0CC59DF4F0FB6F8944F
:103F3000DEBF0FBECDBFDF91CF911F910F91FF90DC
:103F4000EF90DF90CF90BF900895DD2079F28E0141
:103F5000025E1F4F902F812F8701E92EF82E6DCF23
:103F600085E00631180711F2C8010E94C40EBECFC9
:103F70000F931F93CF93DF938C01EB01FB013496DA
:103F800080E2DF011D928A95E9F784E290E0A0E0EB
:103F9000B0E088839983AA83BB83F80182819381EF
:103FA000092E000CAA0BBB0B8C839D83AE83BF83B1
:103FB00086E090E0A0E0B0E088879987AA87BB8779
:103FC0000E94C306688B798B8A8B9B8BD8011496D1
:103FD0008D919C91FC014385548565857685452BA3
:103FE000462B472B91F00E94CE1720E030E048ECA2
:103FF00052E40E9480306C8B7D8B8E8B9F8B81E096
:10400000DF91CF911F910F91089560E070E080ECF7
:104010009FE7EBCF0F931F93CF93DF938C01EB01BF
:1040200088E2FB0111928A95E9F74BE050E061E8E4
:1040300071E0CE010E945E351B8681E090E0A0E039
:10404000B0E08C879D87AE87BF87F801828193811E
:10405000092E000CAA0BBB0B888B998BAA8BBB8BF0
:1040600086E090E0A0E0B0E08C8B9D8BAE8BBF8BA8
:104070001CA21DA21EA21FA280E090E0A6E9B3E44C
:104080008C8F9D8FAE8FBF8F80E090E8A9E8B4E45D
:10409000888F998FAA8FBB8F86EA9BE9A4E4BCE343
:1040A00088A399A3AAA3BBA3DF91CF911F910F91DE
:1040B00008950F931F93CF93DF938C01EB01FB01C6
:1040C000349680E2DF011D928A95E9F784E290E060
:1040D000A0E0B0E088839983AA83BB83F801828142
:1040E0009381092E000CAA0BBB0B8C839D83AE839E
:1040F000BF838DE090E0A0E0B0E088879987AA8731
:10410000BB870E94C306688B798B8A8B9B8BD801F7
:1041100014968D919C910E943A176C8B7D8B8E8B9F
:104120009F8B81E0DF91CF911F910F9108950F93A5
:104130001F93CF93DF938C01EB0188E2FB01119277
:104140008A95E9F74BE050E061E871E0CE010E940A
:104150005E351B8681E090E0A0E0B0E08C879D8713
:10416000AE87BF87F80182819381092E000CAA0BCC
:10417000BB0B888B998BAA8BBB8B8DE090E0A0E06A
:10418000B0E08C8B9D8BAE8BBF8B1CA21DA21EA2A0
:104190001FA280E090E0A0E2B2EC8C8F9D8FAE8FEA
:1041A000BF8F80E090E0AAEAB2E4888F998FAA8F4F
:1041B000BB8F8AE097EDA3E2BCE388A399A3AAA3EF
:1041C000BBA3DF91CF911F910F910895EF92FF92C2
:1041D0000F931F93CF93DF93EC017B018A011B8226
:1041E0001A8288EE93E0A0E0B0E08C839D83AE83DA
:1041F000BF838FE391E0998388838DE190E00E94F3
:1042000023349A8F898F009779F02DE1F701DC0133
:1042100001900D922A95E1F74CE050E0B801CE01F3
:104220000C960E945E35188EDF91CF911F910F91F1
:10423000FF90EF900895EF92FF921F93CF93DF933B
:10424000CDB7DEB7C257D1090FB6F894DEBF0FBEA7
:10425000CDBF109136021123A9F06FE779E08DEA06
:1042600094E00E944E1C10E0812FCE58DF4F0FB615
:10427000F894DEBF0FBECDBFDF91CF911F91FF90AD
:10428000EF9008956DE679E08DEA94E00E94D606FD
:1042900068E771E08DEA94E00E94F11A8DEA94E0FB
:1042A0000E94391C1C821B8281E2E82E81E0F82EDC
:1042B000FA82E9821E82CE0101960E94440CBE0160
:1042C0006F5F7F4FCE01CB960E947D1019A218A27E
:1042D000FF8EEE8E1BA221968FAD2197811160C0BB
:1042E0006C961FAE1EAE6C9788EE93E0A0E0B0E037
:1042F000A0968CAF9DAFAEAFBFAFA0978FE391E01C
:104300006A969FAF8EAF6A97E3961FAE1EAEE39795
:10431000A5961FAEA5976C968EAD9FAD6C979093AA
:10432000380580933705A0968CAD9DADAEADBFAD81
:10433000A0978093390590933A05A0933B05B093DD
:104340003C05A4968CAD9DADAEADBFADA49780935A
:104350003D0590933E05A0933F05B0934005A8E529
:10436000B0E0AC0FBD1F1C96E1E4F5E08D918193A8
:1043700085E0EE34F807D1F7E396EEADFFADE397B5
:10438000F0934F05E0934E05309719F08581811128
:1043900032C065E579E08DEA94E00E944E1C64CF5E
:1043A00027E148E751E0BE01655C7F4FCE014E96A4
:1043B0000E94461D882309F493CFCE01CB960E941C
:1043C000C40E49A95AA96BA97CA9CE014E960E9498
:1043D000980CBE01625E7F4FCE0101960E947D1057
:1043E00048E751E0BE016F5F7F4FCE01885A9F4F73
:1043F0000E94E62090CF68E379E08DEA94E00E9485
:104400004E1CE0914E05F0914F05309741F08389A5
:104410009489A589B689892B8A2B8B2B31F46FE07F
:1044200079E085E395E00E944E1C81E0809336029E
:104430004FE150E068E771E086E192E00E945E356E
:104440001092350211E010CF85ED8093BC00809171
:10445000850490918604A0918704B0918804079602
:10446000A11DB11D23E0B695A795979587952A952F
:10447000D1F72091BC0024FD03C01092830408955D
:10448000409185045091860460918704709188045E
:10449000452B462B472B69F30097A105B10541F049
:1044A0002AE22A95F1F700C00197A109B109E1CFED
:1044B000809184040C941C131F920F920FB60F92DC
:1044C00011242F933F938F939F93AF93BF9380912A
:1044D0000C0290910D02A0910E02B0910F0230914A
:1044E0000B0223E0230F2D3758F50196A11DB11DB6
:1044F00020930B0280930C0290930D02A0930E0266
:10450000B0930F028091100290911102A0911202BB
:10451000B09113020196A11DB11D809310029093DA
:104520001102A0931202B0931302BF91AF919F9119
:104530008F913F912F910F900FBE0F901F90189564
:1045400026E8230F0296A11DB11DD2CF1F920F9214
:104550000FB60F9211242F933F934F935F936F9356
:104560007F938F939F93AF93BF93EF93FF938DEAC6
:1045700094E00E947707FF91EF91BF91AF919F91D7
:104580008F917F916F915F914F913F912F910F90FC
:104590000FBE0F901F9018951F920F920FB60F929B
:1045A00011242F938F939F93EF93FF93E091BD047A
:1045B000F091BE048081E091C304F091C40482FDB7
:1045C0001BC090818091C6048F5F8F702091C704BB
:1045D000821741F0E091C604F0E0E355FB4F958F60
:1045E0008093C604FF91EF919F918F912F910F902F
:1045F0000FBE0F901F9018958081F4CF1F920F92DD
:104600000FB60F9211242F933F934F935F936F93A5
:104610007F938F939F93AF93BF93EF93FF9380917B
:10462000B900887F803609F44AC0F0F5883209F471
:10463000A7C018F5803109F49BC0B8F4882309F4A9
:10464000F9C0883009F494C0FF91EF91BF91AF9108
:104650009F918F917F916F915F914F913F912F919A
:104660000F900FBE0F901F901895883109F488C0E5
:10467000803251F78093810414C0803409F49DC0C6
:1046800040F48033B9F38833F9F68093810485ECE4
:10469000B0C0803509F485C0883509F496C08834E7
:1046A00099F60E942422D0CF883909F48CC038F5BD
:1046B000883729F050F4883611F0803729F683E0E6
:1046C000809383041092E90157C0883809F47BC0B5
:1046D000803919F0803809F0B7CF8091E901803234
:1046E00008F071C0E091E90181E08E0F8093E9014B
:1046F0008091BB00F0E0E753FE4F80833DC0803BDC
:1047000039F0E0F4803A09F479C0883A09F09CCF96
:1047100084E0809383041092C8011092C701E09155
:104720003904F0913A0409958091C70181110FC0B5
:1047300081E08093C7011092A70109C0803C09F471
:10474000A6CF883C09F4A3CF883B09F07DCFE09148
:10475000C80181E08E0F8093C801F0E0E955FE4F5B
:1047600080818093BB009091C8018091C70129C0CE
:1047700080915E048093BB0085EC8093BC0064CF85
:104780009091800480917F04981758F5E0918004FF
:1047900081E08E0F80938004F0E0E15AFB4F80812E
:1047A000E9CFE091800481E08E0F809380048091B6
:1047B000BB00F0E0E15AFB4F808390918004809130
:1047C0007F049817C8F285E8D8CFE091800481E093
:1047D0008E0F809380048091BB00F0E0E15AFB4F84
:1047E00080838091820481115CCF81E080935D049D
:1047F00084EA8093BC001092830426CF85EC8093DA
:10480000BC00109283048091E901803230F4E09181
:10481000E901F0E0E753FE4F10826091E90170E09A
:10482000E0913704F091380489EC91E009951092F9
:10483000E9010ACF1092810434CF8F929F92AF92F8
:10484000BF92CF92DF92EF92FF92CF932CEE34E0A3
:104850003093150220931402882309F46DC040E0C0
:1048600060E070E0CB010E94530A81110BC080E030
:10487000CF91FF90EF90DF90CF90BF90AF909F903F
:104880008F9008958091F5038F7789F780910104C7
:1048900090910204A0910304B09104048436910520
:1048A000A105B10520F3C090FD03D090FE03E09078
:1048B000FF03F0900004C114D104E104F104B9F243
:1048C00040E0C701B6010E94530A882381F280911B
:1048D0004202909143028115924049F6A09147020D
:1048E000AA2329F260914502709146026115710573
:1048F00009F4BDCF20914402222309F4B8CFA0933C
:104900000A052093FC0490E080E030E0E1E0F0E074
:10491000C82FAF01082E02C0440F551F0A94E2F7BA
:104920002417350769F041E0480F01968930910559
:1049300079F7409305059BCFC12CD12C7601C0CFD0
:104940008093050520914D0230914E0250E040E0E9
:104950002115310541F420915B0230915C024091B8
:104960005D0250915E022093FD043093FE0440935B
:10497000FF045093000546015701860E971EA11CA7
:10498000B11C80920B0590920C05A0920D05B0927F
:104990000E05E0914802F0914902F0931105E09371
:1049A0001005B0E00E944F2EDC01CB01880D991D4F
:1049B000AA1DBB1D8093120590931305A0931405A7
:1049C000B093150525E0EE0FFF1F2A95E1F7E150A2
:1049D000FE4FEF2FFF27E6958E0F9F1FA11DB11DE4
:1049E0008093060590930705A0930805B0930905E9
:1049F00080904A0290904B02B12CA12C811491041A
:104A000041F48090570290905802A0905902B090C3
:104A10005A02C81AD90AEA0AFB0AC80CD91CEA1CAD
:104A2000FB1C04C0F694E794D794C794CA95D2F7B8
:104A3000C0920105D0920205E0920305F0920405B0
:104A400085EFC8168FE0D806E104F10428F48CE065
:104A500080930F0581E00CCF80E125EFC2162FEF88
:104A6000D206E104F104A0F3809163029091640204
:104A7000A0916502B0916602809312059093130590
:104A8000A0931405B093150580E2E2CFCF93DF9396
:104A9000EDEAF4E01382128248EE53E060E070E049
:104AA00044835583668377838FE091E0918380838D
:104AB00085EC90E09587848784EC90E097878687E3
:104AC00080EC90E0918B808B81EC90E0938B828BDB
:104AD00082EC90E0958B848B86EC90E0978B868BB4
:104AE000118E128E138E148EEAEEF4E080E5808330
:104AF0001182ECEEF4E0158216821186138682E0B4
:104B000090E0A0E0B0E084879587A687B78713A2DE
:104B100015A614A681E291E093A782A717A6A0E5A7
:104B2000B5E013961C921E92129714964D935D93C6
:104B30006D937C9317978DE291E011969C938E93E1
:104B4000E5E3F5E01382128244835583668377831D
:104B50008FE391E091838083128E118E1486CCE5D1
:104B6000D5E01B821A821D821C821B861C861D8634
:104B70001E861BA61CA6B983A88386E090E00E942F
:104B80002334FC018FE591E09183808388E191E0FB
:104B900093838283D583C483FF83EE8386E090E092
:104BA0000E942334FC0181E591E09183808313828C
:104BB0001282D583C483F987E887DF91CF91089566
:104BC000CF93DF93CDB7DEB7C554D1090FB6F894B4
:104BD000DEBF0FBECDBF789484B5826084BD84B53E
:104BE000816084BD85B5826085BD85B5816085BDE8
:104BF00080916E00816080936E00109281008091A0
:104C00008100826080938100809181008160809327
:104C10008100809180008160809380008091B1004C
:104C200084608093B1008091B00081608093B00077
:104C300080917A00846080937A0080917A0082600B
:104C400080937A0080917A00816080937A008091CD
:104C50007A00806880937A001092C100E091BD04D0
:104C6000F091BE0482E08083E091B904F091BA042F
:104C70001082E091BB04F091BC0480E1808310922B
:104C8000C504E091C104F091C20486E08083E09104
:104C9000BF04F091C004808180618083E091BF04F3
:104CA000F091C004808188608083E091BF04F0911E
:104CB000C004808180688083E091BF04F091C004CB
:104CC00080818F7D80836DE175E08DEA94E00E94A4
:104CD0004E1C60E084E00E944F056DEF74E08DEAA9
:104CE00094E00E944E1C0E948A1269EE74E08DEAE4
:104CF00094E00E944E1C0E94051311E01093890459
:104D000088E68093AB0410928A041092AC0481E090
:104D10000E943D13882369F069ED74E08DEA94E008
:104D20000E944E1C68EE73E080E090E00E949106C5
:104D3000F9CF1093890410928A041092AC0460E0B9
:104D400080E595E00E949F1581E00E943D1341E0BF
:104D500061E088E60E94701410923C0480933B044A
:104D600080E595E00E94581585FF0BC0682F6F7D88
:104D700080E00E94D1156AE070E080E090E00E943F
:104D800091066EEC74E08DEA94E00E944E1C9E0148
:104D90002F5F3F4F1901C9010E94601C882309F44D
:104DA000E6C06BEB74E08DEA94E00E94D606498180
:104DB0005A8170E060E02AE08DEA94E00E94001BD6
:104DC00069EB74E08DEA94E00E94D6066B818DEA6F
:104DD00094E00E944C1B67EB74E08DEA94E00E9423
:104DE000D6066C818DEA94E00E944C1B65EB74E062
:104DF0008DEA94E00E94D6066D818DEA94E00E94CF
:104E00004C1B63EB74E08DEA94E00E94D6066E8141
:104E10008DEA94E00E944C1B61EB74E08DEA94E013
:104E20000E94D6068F810E943D1C89819A81883E0E
:104E3000974008F47BC08D818C3021F48E818530C1
:104E400008F474C064E874E08DEA94E00E944E1C9B
:104E500061E172E08DEA94E00E944E1C00916005D1
:104E6000109161050115110509F0A2C080915E0540
:104E700090915F05009711F00E94BF3486E090E0AA
:104E80000E9423348C0180915C0590915D0527E799
:104E9000D8012C9312969C938E93119713961C9283
:104EA000139780E290E015969C938E93149710933D
:104EB0005F0500935E050E94051381E0F80183837E
:104EC000C8010E944B1481118BC06BEA71E08DEA1E
:104ED00094E00E944E1C6DE971E08DEA94E00E941E
:104EE0004E1C61E971E08DEA94E00E944E1C65E879
:104EF00071E08DEA94E00E944E1C61E771E08DEA5A
:104F000094E00E944E1C64E671E08DEA94E00E94F9
:104F10004E1C6CEC73E08DEA94E00E944E1C68EE2F
:104F200073E080E090E00E949106F9CF61E574E0C3
:104F30008DEA94E00E944E1C60E283E00E94D1154D
:104F400068E084E00E94D11561E285E00E94D115FD
:104F500064E186E00E94D11560E188E00E94D115ED
:104F600065E289E00E94D11562E374E06DCF61E0F3
:104F700074E08DEA94E00E944E1C60E083E00E94A1
:104F8000D11567E084E00E94D11561E285E00E94BE
:104F9000D11564E186E00E94D11560E188E00E94AD
:104FA000D11565E289E00E94D11562EE73E04CCF25
:104FB000D8011B968C918F3F41F061E00E944F0514
:104FC00061E0F80183850E942105D8018D919C91B3
:104FD000892B09F438C10E948A1281E0F801838F7D
:104FE00080915E0590915F05009709F457C120ED0F
:104FF00029A321E030E0AE014F5D5F4FBA010E946E
:105000006E1689A190E0B0E0A0E0809367059093D0
:105010006805A0936905B0936A0588359105A105D7
:10502000B10509F052CF88E80E94EC169093700504
:1050300080936F058AE80E94EC1690937205809326
:1050400071058CE80E94EC169093740580937305AB
:105050008EE80E94EC16909376058093750580E9A2
:105060000E94EC16909378058093770582E90E9460
:10507000EC1690937A058093790584E90E94EC16EA
:1050800090937C0580937B0586E90E94EC169093B3
:105090007E0580937D0588E90E94EC16909380053B
:1050A00080937F058AE90E94EC1690938205809395
:1050B00081058CE90E94EC1690938405809383050A
:1050C0008EE90E94EC169093860580938505809169
:1050D000670590916805A0916905B0916A05892BD3
:1050E0008A2B8B2B41F050E040E070E060E085E0DF
:1050F00090E00E942D1664E670E080E090E00E944F
:1051000091066CEE71E08DEA94E00E944E1C809155
:10511000670590916805A0916905B0916A05892B92
:105120008A2B8B2B41F044E050E064E070E082E099
:1051300090E00E942D1664ED71E08DEA94E00E94EB
:105140004E1C6BEB73E08DEA94E00E944E1C6BE604
:1051500072E08DEA94E00E94D6062AE049E050E031
:1051600060E070E08DEA94E00E94001B8DEA94E01C
:105170000E94391C80911B05882321F086E195E06F
:105180000E94C40E1092F7041092F5041092F204DB
:105190001092F10489E08093F0040E94C3068B0111
:1051A00061E08091F0040E944F0561E08091F0047D
:1051B0000E9421050E948A1282E58093EA041092DF
:1051C000EB048091EA049091EB040E943C084AE0D1
:1051D000F42E8FEF0E941708FA94F110FACF8CEE9C
:1051E00094E00E94810820E030E0A90160E08CEEAC
:1051F00094E00E949708F82E8093F604F1E08F1750
:1052000009F45BC00E94C306601B710B613D7740CF
:1052100050F381E08093F1048CEE94E00E940C083E
:1052200061E572E08DEA94E00E944E1C67EA73E04B
:105230008DEA94E00E944E1C68EE73E080E090E0FE
:105240000E949106F9CF61E0F80184850E944F0524
:10525000D8011A968C911A978B7FE1F460E01C9626
:105260008C910E942105D8011D968C918F3F41F0B1
:1052700061E00E944F0561E0F80185850E942105EB
:10528000D8011E968C918F3F09F4A7CE60E00E9452
:105290004F05A3CE61E0F8018485E3CF80ED89A3BB
:1052A00021E030E0AE014F5D5F4FBA0180916005B3
:1052B000909161050E945708A4CE2AEA31E040E0AF
:1052C00050E068E08CEE94E00E94970882FF2AC0CC
:1052D000F092F7048091F704C12CD12C7601823032
:1052E00029F4C12CD12CE12C20E4F22E20E030E076
:1052F000A90167E38CEE94E00E949708A70196014C
:1053000069E28CEE94E00E9497088093F60488236B
:10531000D1F00E94C306601B710B613D774030F3F2
:1053200088E078CF34E0F32E0E941E088093F604C4
:10533000FA94F110F9CF8A3A11F082E06BCF82E053
:105340008093F704C7CF8091F7048230D1F420E036
:1053500030E0A9016AE38CEE94E00E94970888236C
:1053600011F086E057CF0E941E08807C803C19F423
:1053700083E08093F7040E941E080E941E080E948A
:105380001E088CEE94E00E940C0880E58093EA04ED
:105390001092EB0481E00E941D24882309F445C289
:1053A00086E195E00E94440C882309F439CF63E339
:1053B00072E08DEA94E00E944E1C68E973E08DEA89
:1053C00094E00E944E1C6DE673E08DEA94E00E942A
:1053D0004E1C6CE373E08DEA94E00E944E1C6AEF71
:1053E00072E08DEA94E00E944E1C69EB72E08DEA57
:1053F00094E00E944E1C69E872E08DEA94E00E94FD
:105400004E1CCE01C1969EAF8DAFCE01C5960E94B7
:10541000601C22968FAF229767EA78E0882309F410
:1054200022C28BAD1F928F938AAD1F928F9389AD4D
:105430001F928F9388AD1F928F938FA91F928F9386
:105440008EA98F938DA98F93A8E8B1E0BF93AF93F6
:105450001F92F0E2FF933F922F920E946D358CE5F0
:1054600095E00E943A172B013C010FB6F894DEBF7D
:105470000FBECDBF8091670590916805A091690529
:10548000B0916A05892B8A2B8B2B09F4D5C18CE549
:1054900095E00E94CE1720E030E048EC52E40E94F4
:1054A00080306B017C01A3019201C301B2010E9413
:1054B000E932811131C0A7019601C701B6010E94EE
:1054C000E932811129C020E030E040E252ECC30112
:1054D000B2010E947B3087FD1FC020E030E04AEA25
:1054E00052E4C301B2010E9427321816ACF020E04A
:1054F00030E046E953E4C701B6010E947B3087FDE6
:105500000BC020E030E849E854E4C701B6010E942E
:10551000273218160CF05FC06AE070E080E090E07F
:105520000E9491068CE595E00E943A172B013C0100
:105530008091670590916805A0916905B0916A0511
:10554000892B8A2B8B2B09F47CC18CE595E00E947A
:10555000CE1720E030E048EC52E40E9480306B012E
:105560007C01A3019201C301B2010E94E9328111C1
:105570006DC1A7019601C701B6010E94E9328111F0
:1055800065C120E030E040E252ECC301B2010E946C
:105590007B3087FD5BC120E030E04AEA52E4C30182
:1055A000B2010E94273218160CF450C120E030E0FE
:1055B00046E953E4C701B6010E947B3087FD46C12E
:1055C00020E030E849E854E4C701B6010E942732E0
:1055D00018160CF43BC120E030E54DE754E4C70158
:1055E000B6010E94803021E03EED42E45EE30E947D
:1055F00099324B015C018091050290910602AC0149
:105600004F5F5F4F509306024093050265E070E0E4
:105610000E94192E8C01000F111F000F111F0F5037
:105620001E4FA501940160E070E080E89FE30E94B6
:105630000E3020E03AE24DE257E40E942C32D801CD
:105640006D937D938D939C93139784E1E1EFF1E04B
:10565000DE01919601900D928A95E1F78E010F5D22
:105660001F4F21961FAF0EAF21972196AEADBFAD54
:10567000219714968D919D910D90BC91A02D269609
:105680008CAF9DAFAEAFBFAF2697F8018080918001
:10569000A280B380A5019401BC01CD010E947B30A2
:1056A00087FF15C026968CAD9DADAEADBFAD2697DC
:1056B000F80180839183A283B3832196AEADBFAD01
:1056C000219714968D929D92AD92BC921797219638
:1056D000EEADFFAD219734962196FFAFEEAF219747
:1056E0002DAD3EAD2E173F0709F0BFCF0C5F1F4F0A
:1056F000EDADFEAD0E171F0709F0B3CF89A49AA434
:10570000ABA4BCA465E878E08DEA94E00E94D606DC
:10571000B1018DEA94E00E94F11A62E878E08DEA26
:1057200094E00E94D60622E0B301A2018DEA94E043
:105730000E94531B6FE778E08DEA94E00E94D60642
:1057400022E0B701A6018DEA94E00E94531B6CE7AA
:1057500078E08DEA94E00E94D60622E0B501A4012B
:105760008DEA94E00E94531B8DEA94E00E94391C5C
:105770008091360281118EC065E875E08DEA94E073
:105780000E944E1C6CE578E08DEA94E00E944E1C6D
:10579000EFEFF8E08491EBEEF8E00491E7EDF8E04C
:1057A0001491111129C1809104018823D1F10E9423
:1057B000C30600910702109108022091090230915E
:1057C0000A02601B710B820B930B693C710581050A
:1057D000910538F16AE276E08DEA94E00E944E1C71
:1057E00080913602882309F448C166E176E08DEAAB
:1057F00094E00E944E1C0E94D31A61E076E0811171
:1058000002C065EE75E08DEA94E00E944E1C0E9495
:10581000C306609307027093080280930902909375
:105820000A0222961FAE2297F6C080E00E941D2435
:10583000882309F4F5CCB4CD60E070E080EC9FE7FC
:105840002ACE60E070E080EC9FE783CE65EA78E0E6
:105850008DEA94E00E94D606B1018DEA94E00E94A0
:10586000F11A67E878E08DEA94E00E944E1C68EE39
:1058700073E080E090E00E94910620E030E0232B6E
:1058800009F4C3CD0E946307882309F4BECD0E94AA
:105890000000BBCDE0914E05F0914F05309719F017
:1058A0008581811103C063E775E068CF4DA95EA9CA
:1058B00070E060E02AE085E395E00E94001B61E76C
:1058C00075E085E395E00E94D6068FA98A3030F412
:1058D0006FE675E085E395E00E94D6066FA985E343
:1058E00095E00E944C1B6DE675E085E395E00E9413
:1058F000D60688AD8A3030F46BE675E085E395E036
:105900000E94D60668AD85E395E00E944C1B69E6CF
:1059100075E085E395E00E94D60689AD8A3030F4C3
:1059200067E675E085E395E00E94D60669AD85E3FC
:1059300095E00E944C1B65E675E085E395E00E94CA
:10594000D6068AAD8A3030F463E675E085E395E0EB
:105950000E94D6066AAD85E395E00E944C1B61E685
:1059600075E085E395E00E94D6068BAD8A3030F471
:105970006FE575E085E395E00E94D6066BAD85E3A3
:1059800095E00E944C1B6DE575E085E395E00E9473
:10599000D60622E0B301A20185E395E00E94531BE5
:1059A0006BE575E085E395E00E94D60622E0B7013D
:1059B000A60185E395E00E94531B69E575E085E348
:1059C00095E00E94D60622E0B501A40185E395E0AA
:1059D0000E94531B85E395E00E94391C85E395E006
:1059E0000E94CE108091370590913805892B09F4DB
:1059F000CFCE60E475E0C2CE81110E94F804E12FA1
:105A0000F0E0EE0FFF1FEB56FA4FA591B4918C9189
:105A1000082309F4C8CE2296FFAD2297F093040123
:105A20008DEA94E00E945807892B09F420CF8DEA73
:105A300094E00E943607182F8DEA94E00E94391CEA
:105A40001C3409F473C0ACF51D3009F483C024F58F
:105A50001A3009F47FC06DE476E08DEA94E00E948C
:105A6000D606612F8DEA94E00E94CF068DEA94E07D
:105A70000E94391C6AE376E080C061ED75E08DEA32
:105A800094E00E944E1C0E941B216FE975E0811179
:105A9000BACE64EB75E0B7CE143491F01834D9F671
:105AA0006FE876E08DEA94E00E944E1C6FE576E0A8
:105AB00064C01836A9F304F5133519F1143659F6F4
:105AC00080913602882309F45DC066E677E08DEAAE
:105AD00094E00E944E1C0E94D31A61E577E08DEAA3
